{
	"data": {
		"bytecode": {
			"linkReferences": {
				"contracts/AuctionHandler.sol": {
					"AuctionHandler": [
						{
							"length": 20,
							"start": 4873
						},
						{
							"length": 20,
							"start": 5377
						}
					]
				},
				"contracts/PriceConverter.sol": {
					"PriceConverter": [
						{
							"length": 20,
							"start": 2387
						}
					]
				}
			},
			"object": "60a06040523073ffffffffffffffffffffffffffffffffffffffff1660809073ffffffffffffffffffffffffffffffffffffffff168152503480156041575f5ffd5b50608051615bac6100685f395f81816122e70152818161233c01526125190152615bac5ff3fe608060405260043610610228575f3560e01c80638456cb5911610122578063af7665ce116100aa578063c217d4d61161006e578063c217d4d6146107a1578063c415b95c146107c9578063d547741f146107f3578063f72c0d8b1461081b578063fc5284821461084557610229565b8063af7665ce146106e1578063b2703dc61461070b578063b9a2de3a14610727578063bf654aac1461074f578063c0c53b8b1461077957610229565b806395ccea67116100f157806395ccea671461060d5780639dcb511a14610635578063a217fddf14610671578063ad3cb1cc1461069b578063ad6561ec146106c557610229565b80638456cb591461056b57806385572ffb1461058157806391d14854146105a9578063922b8079146105e557610229565b80634f1ef286116101b057806375b238fc1161017457806375b238fc1461049d57806376e11286146104c757806377698771146104ef5780637bc9412b146105195780638375bb391461054157610229565b80634f1ef286146103bf57806352d1902d146103db578063571a26a0146104055780635c975abb1461044b5780635d9a2c481461047557610229565b80632f2ff15d116101f75780632f2ff15d1461030957806331c1e16a1461033157806336568abe146103595780633f4ba83a1461038157806349eec9321461039757610229565b806301ffc9a71461022b578063236fc47b14610267578063248a9ca3146102a35780632a0b17ee146102df57610229565b5b005b348015610236575f5ffd5b50610251600480360381019061024c9190613e2a565b61086f565b60405161025e9190613e6f565b60405180910390f35b348015610272575f5ffd5b5061028d60048036038101906102889190613f15565b6108e8565b60405161029a9190613f62565b60405180910390f35b3480156102ae575f5ffd5b506102c960048036038101906102c49190613fae565b61099b565b6040516102d69190613fe8565b60405180910390f35b3480156102ea575f5ffd5b506102f36109c5565b6040516103009190613f62565b60405180910390f35b348015610314575f5ffd5b5061032f600480360381019061032a9190614001565b6109cb565b005b34801561033c575f5ffd5b506103576004803603810190610352919061403f565b6109ed565b005b348015610364575f5ffd5b5061037f600480360381019061037a9190614001565b610a2e565b005b34801561038c575f5ffd5b50610395610aa9565b005b3480156103a2575f5ffd5b506103bd60048036038101906103b8919061406a565b610ade565b005b6103d960048036038101906103d4919061420a565b610bf8565b005b3480156103e6575f5ffd5b506103ef610c17565b6040516103fc9190613fe8565b60405180910390f35b348015610410575f5ffd5b5061042b60048036038101906104269190614264565b610c48565b6040516104429b9a9998979695949392919061429e565b60405180910390f35b348015610456575f5ffd5b5061045f610d26565b60405161046c9190613e6f565b60405180910390f35b348015610480575f5ffd5b5061049b600480360381019061049691906143ae565b610d48565b005b3480156104a8575f5ffd5b506104b1610d8c565b6040516104be9190613fe8565b60405180910390f35b3480156104d2575f5ffd5b506104ed60048036038101906104e891906143ec565b610db0565b005b3480156104fa575f5ffd5b50610503610e5a565b604051610510919061442a565b60405180910390f35b348015610524575f5ffd5b5061053f600480360381019061053a9190613fae565b610e7f565b005b34801561054c575f5ffd5b50610555610ece565b6040516105629190613f62565b60405180910390f35b348015610576575f5ffd5b5061057f610ed4565b005b34801561058c575f5ffd5b506105a760048036038101906105a29190614639565b610f09565b005b3480156105b4575f5ffd5b506105cf60048036038101906105ca9190614001565b610fee565b6040516105dc9190613e6f565b60405180910390f35b3480156105f0575f5ffd5b5061060b60048036038101906106069190614680565b61105f565b005b348015610618575f5ffd5b50610633600480360381019061062e9190614680565b6110f8565b005b348015610640575f5ffd5b5061065b6004803603810190610656919061403f565b611220565b6040516106689190614719565b60405180910390f35b34801561067c575f5ffd5b50610685611250565b6040516106929190613fe8565b60405180910390f35b3480156106a6575f5ffd5b506106af611256565b6040516106bc9190614792565b60405180910390f35b6106df60048036038101906106da91906147b2565b61128f565b005b3480156106ec575f5ffd5b506106f561133e565b6040516107029190614719565b60405180910390f35b61072560048036038101906107209190614802565b611363565b005b348015610732575f5ffd5b5061074d60048036038101906107489190614264565b61139d565b005b34801561075a575f5ffd5b5061076361152e565b6040516107709190613f62565b60405180910390f35b348015610784575f5ffd5b5061079f600480360381019061079a9190614866565b611534565b005b3480156107ac575f5ffd5b506107c760048036038101906107c291906148b6565b61181d565b005b3480156107d4575f5ffd5b506107dd611f25565b6040516107ea919061442a565b60405180910390f35b3480156107fe575f5ffd5b5061081960048036038101906108149190614001565b611f4a565b005b348015610826575f5ffd5b5061082f611f6c565b60405161083c9190613fe8565b60405180910390f35b348015610850575f5ffd5b50610859611f90565b6040516108669190613f62565b60405180910390f35b5f7f7965db0b000000000000000000000000000000000000000000000000000000007bffffffffffffffffffffffffffffffffffffffffffffffffffffffff1916827bffffffffffffffffffffffffffffffffffffffffffffffffffffffff191614806108e157506108e082611f96565b5b9050919050565b5f73__$970d497a1df28a900e3dd97e15a13b1bae$__635980022f848460065f9054906101000a900473ffffffffffffffffffffffffffffffffffffffff166007600854600a546009546040518863ffffffff1660e01b81526004016109549796959493929190614961565b602060405180830381865af415801561096f573d5f5f3e3d5ffd5b505050506040513d601f19601f8201168201806040525081019061099391906149e2565b905092915050565b5f5f6109a5611fff565b9050805f015f8481526020019081526020015f2060010154915050919050565b600a5481565b6109d48261099b565b6109dd81612026565b6109e7838361203a565b50505050565b7fa49807205ce4d355092ef5a8a18f56e8913cf4a201fbe287825b095693c21775610a1781612026565b610a2a825f61213290919063ffffffff16565b5050565b610a36612178565b73ffffffffffffffffffffffffffffffffffffffff168173ffffffffffffffffffffffffffffffffffffffff1614610a9a576040517f6697b23200000000000000000000000000000000000000000000000000000000815260040160405180910390fd5b610aa4828261217f565b505050565b7fa49807205ce4d355092ef5a8a18f56e8913cf4a201fbe287825b095693c21775610ad381612026565b610adb612277565b50565b7fa49807205ce4d355092ef5a8a18f56e8913cf4a201fbe287825b095693c21775610b0881612026565b848411158015610b185750828511155b610b57576040517f08c379a0000000000000000000000000000000000000000000000000000000008152600401610b4e90614a57565b60405180910390fd5b6103e8831115610b9c576040517f08c379a0000000000000000000000000000000000000000000000000000000008152600401610b9390614abf565b60405180910390fd5b8460088190555083600a819055508260098190555081600b5f6101000a81548173ffffffffffffffffffffffffffffffffffffffff021916908373ffffffffffffffffffffffffffffffffffffffff1602179055505050505050565b610c006122e5565b610c09826123cb565b610c1382826123f9565b5050565b5f610c20612517565b7f360894a13ba1a3210667c828492db98dca3e2076cc3735a920a3ca505d382bbc5f1b905090565b6004602052805f5260405f205f91509050805f015f9054906101000a900473ffffffffffffffffffffffffffffffffffffffff1690806001015490806002015490806003015490806004015f9054906101000a900460ff1690806005015490806006015f9054906101000a900473ffffffffffffffffffffffffffffffffffffffff1690806007015f9054906101000a900473ffffffffffffffffffffffffffffffffffffffff1690806008015490806009015f9054906101000a900473ffffffffffffffffffffffffffffffffffffffff169080600a015490508b565b5f5f610d3061259e565b9050805f015f9054906101000a900460ff1691505090565b7fa49807205ce4d355092ef5a8a18f56e8913cf4a201fbe287825b095693c21775610d7281612026565b610d8783835f6125c59092919063ffffffff16565b505050565b7fa49807205ce4d355092ef5a8a18f56e8913cf4a201fbe287825b095693c2177581565b7fa49807205ce4d355092ef5a8a18f56e8913cf4a201fbe287825b095693c21775610dda81612026565b8260075f8473ffffffffffffffffffffffffffffffffffffffff1673ffffffffffffffffffffffffffffffffffffffff1681526020019081526020015f205f6101000a81548173ffffffffffffffffffffffffffffffffffffffff021916908373ffffffffffffffffffffffffffffffffffffffff160217905550505050565b60035f9054906101000a900473ffffffffffffffffffffffffffffffffffffffff1681565b610e87612608565b610ec381600460065f9054906101000a900473ffffffffffffffffffffffffffffffffffffffff1660075f61265c90949392919063ffffffff16565b610ecb612c21565b50565b60085481565b7fa49807205ce4d355092ef5a8a18f56e8913cf4a201fbe287825b095693c21775610efe81612026565b610f06612c38565b50565b60035f9054906101000a900473ffffffffffffffffffffffffffffffffffffffff1673ffffffffffffffffffffffffffffffffffffffff163373ffffffffffffffffffffffffffffffffffffffff1614610f98576040517f08c379a0000000000000000000000000000000000000000000000000000000008152600401610f8f90614b27565b60405180910390fd5b5f610fac825f612ca790919063ffffffff16565b9050610fea81600460065f9054906101000a900473ffffffffffffffffffffffffffffffffffffffff1660075f61265c90949392919063ffffffff16565b5050565b5f5f610ff8611fff565b9050805f015f8581526020019081526020015f205f015f8473ffffffffffffffffffffffffffffffffffffffff1673ffffffffffffffffffffffffffffffffffffffff1681526020019081526020015f205f9054906101000a900460ff1691505092915050565b7fa49807205ce4d355092ef5a8a18f56e8913cf4a201fbe287825b095693c2177561108981612026565b8273ffffffffffffffffffffffffffffffffffffffff166323b872dd3033856040518463ffffffff1660e01b81526004016110c693929190614b45565b5f604051808303815f87803b1580156110dd575f5ffd5b505af11580156110ef573d5f5f3e3d5ffd5b50505050505050565b7fa49807205ce4d355092ef5a8a18f56e8913cf4a201fbe287825b095693c2177561112281612026565b5f73ffffffffffffffffffffffffffffffffffffffff168373ffffffffffffffffffffffffffffffffffffffff160361119e573373ffffffffffffffffffffffffffffffffffffffff166108fc8390811502906040515f60405180830381858888f19350505050158015611198573d5f5f3e3d5ffd5b5061121b565b8273ffffffffffffffffffffffffffffffffffffffff1663a9059cbb33846040518363ffffffff1660e01b81526004016111d9929190614b7a565b6020604051808303815f875af11580156111f5573d5f5f3e3d5ffd5b505050506040513d601f19601f820116820180604052508101906112199190614bb5565b505b505050565b6007602052805f5260405f205f915054906101000a900473ffffffffffffffffffffffffffffffffffffffff1681565b5f5f1b81565b6040518060400160405280600581526020017f352e302e3000000000000000000000000000000000000000000000000000000081525081565b611297612f03565b61129f612608565b73__$11d33411d7d2a93d79cf2ab116f0b41fc8$__630a8b0e63848484600460065f9054906101000a900473ffffffffffffffffffffffffffffffffffffffff166007306040518863ffffffff1660e01b81526004016113059796959493929190614be7565b5f6040518083038186803b15801561131b575f5ffd5b505af415801561132d573d5f5f3e3d5ffd5b50505050611339612c21565b505050565b60065f9054906101000a900473ffffffffffffffffffffffffffffffffffffffff1681565b61136b612f03565b611373612608565b61138e84848484305f612f449095949392919063ffffffff16565b50611397612c21565b50505050565b6113a5612608565b5f60045f8381526020019081526020015f209050805f015f9054906101000a900473ffffffffffffffffffffffffffffffffffffffff1673ffffffffffffffffffffffffffffffffffffffff163373ffffffffffffffffffffffffffffffffffffffff1614806114275750806003015481600201546114249190614c81565b42115b8061145857506114577fa49807205ce4d355092ef5a8a18f56e8913cf4a201fbe287825b095693c2177533610fee565b5b611497576040517f08c379a000000000000000000000000000000000000000000000000000000000815260040161148e90614d24565b60405180910390fd5b73__$11d33411d7d2a93d79cf2ab116f0b41fc8$__6387781010836004600b5f9054906101000a900473ffffffffffffffffffffffffffffffffffffffff16306040518563ffffffff1660e01b81526004016114f69493929190614d42565b5f6040518083038186803b15801561150c575f5ffd5b505af415801561151e573d5f5f3e3d5ffd5b505050505061152b612c21565b50565b60095481565b5f61153d613543565b90505f815f0160089054906101000a900460ff161590505f825f015f9054906101000a900467ffffffffffffffff1690505f5f8267ffffffffffffffff161480156115855750825b90505f60018367ffffffffffffffff161480156115b857505f3073ffffffffffffffffffffffffffffffffffffffff163b145b9050811580156115c6575080155b156115fd576040517ff92ee8a900000000000000000000000000000000000000000000000000000000815260040160405180910390fd5b6001855f015f6101000a81548167ffffffffffffffff021916908367ffffffffffffffff160217905550831561164a576001855f0160086101000a81548160ff0219169083151502179055505b611652613556565b61165a613560565b61166261356a565b61166a61357c565b6116765f5f1b8761203a565b506116a17fa49807205ce4d355092ef5a8a18f56e8913cf4a201fbe287825b095693c217758761203a565b506116cc7f189ab7a9244df0848122154315af71fe140f3db0fe014031783b0946b8c9d2e38761203a565b508660065f6101000a81548173ffffffffffffffffffffffffffffffffffffffff021916908373ffffffffffffffffffffffffffffffffffffffff1602179055508760035f6101000a81548173ffffffffffffffffffffffffffffffffffffffff021916908373ffffffffffffffffffffffffffffffffffffffff160217905550611760885f61358690919063ffffffff16565b85600b5f6101000a81548173ffffffffffffffffffffffffffffffffffffffff021916908373ffffffffffffffffffffffffffffffffffffffff16021790555060fa6008819055506101f46009819055506064600a819055508315611813575f855f0160086101000a81548160ff0219169083151502179055507fc7f505b2f371ae2175ee4913f4499e1f2633a7b5936321eed1cdaeb6115181d2600160405161180a9190614dbe565b60405180910390a15b5050505050505050565b611825612f03565b61182d612608565b6064851015611871576040517f08c379a000000000000000000000000000000000000000000000000000000000815260040161186890614e47565b60405180910390fd5b5f84116118b3576040517f08c379a00000000000000000000000000000000000000000000000000000000081526004016118aa90614ed5565b60405180910390fd5b5f73ffffffffffffffffffffffffffffffffffffffff168173ffffffffffffffffffffffffffffffffffffffff16148061197557505f73ffffffffffffffffffffffffffffffffffffffff1660075f8373ffffffffffffffffffffffffffffffffffffffff1673ffffffffffffffffffffffffffffffffffffffff1681526020019081526020015f205f9054906101000a900473ffffffffffffffffffffffffffffffffffffffff1673ffffffffffffffffffffffffffffffffffffffff1614155b6119b4576040517f08c379a00000000000000000000000000000000000000000000000000000000081526004016119ab90614f3d565b60405180910390fd5b5f8390503373ffffffffffffffffffffffffffffffffffffffff168173ffffffffffffffffffffffffffffffffffffffff16636352211e856040518263ffffffff1660e01b8152600401611a089190613f62565b602060405180830381865afa158015611a23573d5f5f3e3d5ffd5b505050506040513d601f19601f82011682018060405250810190611a479190614f6f565b73ffffffffffffffffffffffffffffffffffffffff1614611a9d576040517f08c379a0000000000000000000000000000000000000000000000000000000008152600401611a9490614fe4565b60405180910390fd5b8073ffffffffffffffffffffffffffffffffffffffff1663e985e9c533306040518363ffffffff1660e01b8152600401611ad8929190615002565b602060405180830381865afa158015611af3573d5f5f3e3d5ffd5b505050506040513d601f19601f82011682018060405250810190611b179190614bb5565b80611bc457503073ffffffffffffffffffffffffffffffffffffffff168173ffffffffffffffffffffffffffffffffffffffff1663081812fc856040518263ffffffff1660e01b8152600401611b6d9190613f62565b602060405180830381865afa158015611b88573d5f5f3e3d5ffd5b505050506040513d601f19601f82011682018060405250810190611bac9190614f6f565b73ffffffffffffffffffffffffffffffffffffffff16145b611c03576040517f08c379a0000000000000000000000000000000000000000000000000000000008152600401611bfa90615073565b60405180910390fd5b8073ffffffffffffffffffffffffffffffffffffffff166323b872dd3330866040518463ffffffff1660e01b8152600401611c4093929190614b45565b5f604051808303815f87803b158015611c57575f5ffd5b505af1158015611c69573d5f5f3e3d5ffd5b505050505f611c7886846108e8565b90506040518061016001604052803373ffffffffffffffffffffffffffffffffffffffff1681526020018781526020014281526020018881526020015f151581526020015f81526020015f73ffffffffffffffffffffffffffffffffffffffff1681526020018673ffffffffffffffffffffffffffffffffffffffff1681526020018581526020018473ffffffffffffffffffffffffffffffffffffffff1681526020018281525060045f60055481526020019081526020015f205f820151815f015f6101000a81548173ffffffffffffffffffffffffffffffffffffffff021916908373ffffffffffffffffffffffffffffffffffffffff1602179055506020820151816001015560408201518160020155606082015181600301556080820151816004015f6101000a81548160ff02191690831515021790555060a0820151816005015560c0820151816006015f6101000a81548173ffffffffffffffffffffffffffffffffffffffff021916908373ffffffffffffffffffffffffffffffffffffffff16021790555060e0820151816007015f6101000a81548173ffffffffffffffffffffffffffffffffffffffff021916908373ffffffffffffffffffffffffffffffffffffffff1602179055506101008201518160080155610120820151816009015f6101000a81548173ffffffffffffffffffffffffffffffffffffffff021916908373ffffffffffffffffffffffffffffffffffffffff16021790555061014082015181600a01559050503373ffffffffffffffffffffffffffffffffffffffff166005547f8777bed2a899ba8843de663a1f6ed1c48d071cc8bde08e2488b59c00c1993f768787604051611ef5929190614b7a565b60405180910390a360055f815480929190611f0f90615091565b91905055505050611f1e612c21565b5050505050565b600b5f9054906101000a900473ffffffffffffffffffffffffffffffffffffffff1681565b611f538261099b565b611f5c81612026565b611f66838361217f565b50505050565b7f189ab7a9244df0848122154315af71fe140f3db0fe014031783b0946b8c9d2e381565b60055481565b5f7f01ffc9a7000000000000000000000000000000000000000000000000000000007bffffffffffffffffffffffffffffffffffffffffffffffffffffffff1916827bffffffffffffffffffffffffffffffffffffffffffffffffffffffff1916149050919050565b5f7f02dd7bc7dec4dceedda775e58dd541e08a116c6c53815c0bd028192f7b626800905090565b61203781612032612178565b6136a5565b50565b5f5f612044611fff565b90506120508484610fee565b612127576001815f015f8681526020019081526020015f205f015f8573ffffffffffffffffffffffffffffffffffffffff1673ffffffffffffffffffffffffffffffffffffffff1681526020019081526020015f205f6101000a81548160ff0219169083151502179055506120c3612178565b73ffffffffffffffffffffffffffffffffffffffff168373ffffffffffffffffffffffffffffffffffffffff16857f2f8788117e7eff1d82e926ec794901d17c78024a50270940304540a733656f0d60405160405180910390a4600191505061212c565b5f9150505b92915050565b80826002015f6101000a81548173ffffffffffffffffffffffffffffffffffffffff021916908373ffffffffffffffffffffffffffffffffffffffff1602179055505050565b5f33905090565b5f5f612189611fff565b90506121958484610fee565b1561226c575f815f015f8681526020019081526020015f205f015f8573ffffffffffffffffffffffffffffffffffffffff1673ffffffffffffffffffffffffffffffffffffffff1681526020019081526020015f205f6101000a81548160ff021916908315150217905550612208612178565b73ffffffffffffffffffffffffffffffffffffffff168373ffffffffffffffffffffffffffffffffffffffff16857ff6391f5c32d9c69d2a47ea670b442974b53935d1edc7fd64eb21e047a839171b60405160405180910390a46001915050612271565b5f9150505b92915050565b61227f6136f6565b5f61228861259e565b90505f815f015f6101000a81548160ff0219169083151502179055507f5db9ee0a495bf2e6ff9c91a7834c1ba4fdd244a5e8aa4e537bd38aeae4b073aa6122cd612178565b6040516122da919061442a565b60405180910390a150565b7f000000000000000000000000000000000000000000000000000000000000000073ffffffffffffffffffffffffffffffffffffffff163073ffffffffffffffffffffffffffffffffffffffff16148061239257507f000000000000000000000000000000000000000000000000000000000000000073ffffffffffffffffffffffffffffffffffffffff16612379613736565b73ffffffffffffffffffffffffffffffffffffffff1614155b156123c9576040517fe07c8dba00000000000000000000000000000000000000000000000000000000815260040160405180910390fd5b565b7f189ab7a9244df0848122154315af71fe140f3db0fe014031783b0946b8c9d2e36123f581612026565b5050565b8173ffffffffffffffffffffffffffffffffffffffff166352d1902d6040518163ffffffff1660e01b8152600401602060405180830381865afa92505050801561246157506040513d601f19601f8201168201806040525081019061245e91906150ec565b60015b6124a257816040517f4c9c8ce3000000000000000000000000000000000000000000000000000000008152600401612499919061442a565b60405180910390fd5b7f360894a13ba1a3210667c828492db98dca3e2076cc3735a920a3ca505d382bbc5f1b811461250857806040517faa1d49a40000000000000000000000000000000000000000000000000000000081526004016124ff9190613fe8565b60405180910390fd5b6125128383613789565b505050565b7f000000000000000000000000000000000000000000000000000000000000000073ffffffffffffffffffffffffffffffffffffffff163073ffffffffffffffffffffffffffffffffffffffff161461259c576040517fe07c8dba00000000000000000000000000000000000000000000000000000000815260040160405180910390fd5b565b5f7fcd5ed15c6e187e77e9aee88184c21f4f2182ab5827cb3b7e07fbedcd63f03300905090565b80836001015f8467ffffffffffffffff1667ffffffffffffffff1681526020019081526020015f205f6101000a81548160ff021916908315150217905550505050565b5f6126116137fb565b90506002815f015403612650576040517f3ee5aeb500000000000000000000000000000000000000000000000000000000815260040160405180910390fd5b6002815f018190555050565b5f855f015f8681526020019081526020015f206040518060c00160405290815f82015f9054906101000a900467ffffffffffffffff1667ffffffffffffffff1667ffffffffffffffff1681526020015f820160089054906101000a900473ffffffffffffffffffffffffffffffffffffffff1673ffffffffffffffffffffffffffffffffffffffff1673ffffffffffffffffffffffffffffffffffffffff1681526020016001820154815260200160028201548152602001600382015f9054906101000a900473ffffffffffffffffffffffffffffffffffffffff1673ffffffffffffffffffffffffffffffffffffffff1673ffffffffffffffffffffffffffffffffffffffff1681526020016003820160149054906101000a900460ff16151515158152505090508060a00151156127ca576040517f08c379a00000000000000000000000000000000000000000000000000000000081526004016127c190615161565b60405180910390fd5b5f845f836060015181526020019081526020015f209050806004015f9054906101000a900460ff168061280f57508060030154816002015461280c9190614c81565b42115b15612849576001875f015f8881526020019081526020015f2060030160146101000a81548160ff0219169083151502179055505050612c1a565b5f61285e836040015184608001518787613822565b90505f6128948360010154846009015f9054906101000a900473ffffffffffffffffffffffffffffffffffffffff168888613822565b90505f6128ca8460050154856009015f9054906101000a900473ffffffffffffffffffffffffffffffffffffffff168989613822565b90508183101580156128db57508083115b15612baa575f73ffffffffffffffffffffffffffffffffffffffff16846006015f9054906101000a900473ffffffffffffffffffffffffffffffffffffffff1673ffffffffffffffffffffffffffffffffffffffff1614612ac4575f73ffffffffffffffffffffffffffffffffffffffff16846009015f9054906101000a900473ffffffffffffffffffffffffffffffffffffffff1673ffffffffffffffffffffffffffffffffffffffff16036129fc57836006015f9054906101000a900473ffffffffffffffffffffffffffffffffffffffff1673ffffffffffffffffffffffffffffffffffffffff166108fc856005015490811502906040515f60405180830381858888f193505050501580156129f6573d5f5f3e3d5ffd5b50612ac3565b836009015f9054906101000a900473ffffffffffffffffffffffffffffffffffffffff1673ffffffffffffffffffffffffffffffffffffffff1663a9059cbb856006015f9054906101000a900473ffffffffffffffffffffffffffffffffffffffff1686600501546040518363ffffffff1660e01b8152600401612a81929190614b7a565b6020604051808303815f875af1158015612a9d573d5f5f3e3d5ffd5b505050506040513d601f19601f82011682018060405250810190612ac19190614bb5565b505b5b8460200151846006015f6101000a81548173ffffffffffffffffffffffffffffffffffffffff021916908373ffffffffffffffffffffffffffffffffffffffff160217905550846040015184600501819055508460800151846009015f6101000a81548173ffffffffffffffffffffffffffffffffffffffff021916908373ffffffffffffffffffffffffffffffffffffffff16021790555084606001517fe30abccebb20a387be8e75e927d7e06ce1bf9d77bb3888516663bdc8995fb334866020015187604001518860800151604051612ba19392919061517f565b60405180910390a25b60018a5f015f8b81526020019081526020015f2060030160146101000a81548160ff021916908315150217905550887f656160706f8ffe27fdaba0dc89b407422a6e20d7ebc44b45557939303b8acd188660600151604051612c0c9190613f62565b60405180910390a250505050505b5050505050565b5f612c2a6137fb565b90506001815f018190555050565b612c40612f03565b5f612c4961259e565b90506001815f015f6101000a81548160ff0219169083151502179055507f62e78cea01bee320cd4e420270b5ea74000d11b0c9f74754ebdbfc544b05a258612c8f612178565b604051612c9c919061442a565b60405180910390a150565b5f826001015f836020015167ffffffffffffffff1667ffffffffffffffff1681526020019081526020015f205f9054906101000a900460ff16612d1f576040517f08c379a0000000000000000000000000000000000000000000000000000000008152600401612d16906151fe565b60405180910390fd5b5f5f5f5f8560600151806020019051810190612d3b9190615257565b93509350935093506040518060c00160405280876020015167ffffffffffffffff1681526020018573ffffffffffffffffffffffffffffffffffffffff1681526020018381526020018481526020018273ffffffffffffffffffffffffffffffffffffffff1681526020015f1515815250875f015f885f015181526020019081526020015f205f820151815f015f6101000a81548167ffffffffffffffff021916908367ffffffffffffffff1602179055506020820151815f0160086101000a81548173ffffffffffffffffffffffffffffffffffffffff021916908373ffffffffffffffffffffffffffffffffffffffff16021790555060408201518160010155606082015181600201556080820151816003015f6101000a81548173ffffffffffffffffffffffffffffffffffffffff021916908373ffffffffffffffffffffffffffffffffffffffff16021790555060a08201518160030160146101000a81548160ff021916908315150217905550905050855f01517f55a2834b0d140be6a504c40cd99b41dfe578e2a1a0e57e1d34b62183e35196cb87602001518685604051612eeb939291906152ca565b60405180910390a2855f015194505050505092915050565b612f0b610d26565b15612f42576040517fd93c066500000000000000000000000000000000000000000000000000000000815260040160405180910390fd5b565b5f5f73ffffffffffffffffffffffffffffffffffffffff16876002015f9054906101000a900473ffffffffffffffffffffffffffffffffffffffff1673ffffffffffffffffffffffffffffffffffffffff1603612fd6576040517f08c379a0000000000000000000000000000000000000000000000000000000008152600401612fcd90615349565b60405180910390fd5b5f73ffffffffffffffffffffffffffffffffffffffff168373ffffffffffffffffffffffffffffffffffffffff161461308c578273ffffffffffffffffffffffffffffffffffffffff166323b872dd3384876040518463ffffffff1660e01b815260040161304693929190614b45565b6020604051808303815f875af1158015613062573d5f5f3e3d5ffd5b505050506040513d601f19601f820116820180604052508101906130869190614bb5565b506130d0565b833410156130cf576040517f08c379a00000000000000000000000000000000000000000000000000000000081526004016130c6906153b1565b60405180910390fd5b5b5f6040518060a00160405280846040516020016130ed919061442a565b60405160208183030381529060405281526020013388888860405160200161311894939291906153cf565b60405160208183030381529060405281526020015f67ffffffffffffffff811115613146576131456140e6565b5b60405190808252806020026020018201604052801561317f57816020015b61316c613d96565b8152602001906001900390816131645790505b5081526020015f73ffffffffffffffffffffffffffffffffffffffff1681526020016131bb604051806020016040528062030d40815250613a12565b81525090505f886002015f9054906101000a900473ffffffffffffffffffffffffffffffffffffffff1673ffffffffffffffffffffffffffffffffffffffff166320487ded89846040518363ffffffff1660e01b815260040161321f9291906155df565b602060405180830381865afa15801561323a573d5f5f3e3d5ffd5b505050506040513d601f19601f8201168201806040525081019061325e91906149e2565b90505f73ffffffffffffffffffffffffffffffffffffffff168573ffffffffffffffffffffffffffffffffffffffff16036132e657858161329f9190614c81565b3410156132e1576040517f08c379a00000000000000000000000000000000000000000000000000000000081526004016132d89061567d565b60405180910390fd5b61332a565b80341015613329576040517f08c379a0000000000000000000000000000000000000000000000000000000008152600401613320906156e5565b60405180910390fd5b5b5f896002015f9054906101000a900473ffffffffffffffffffffffffffffffffffffffff1673ffffffffffffffffffffffffffffffffffffffff166396f4e9f9348b866040518463ffffffff1660e01b815260040161338a9291906155df565b60206040518083038185885af11580156133a6573d5f5f3e3d5ffd5b50505050506040513d601f19601f820116820180604052508101906133cb91906150ec565b90506040518060c001604052805f67ffffffffffffffff1681526020013373ffffffffffffffffffffffffffffffffffffffff1681526020018881526020018981526020018773ffffffffffffffffffffffffffffffffffffffff1681526020015f15158152508a5f015f8381526020019081526020015f205f820151815f015f6101000a81548167ffffffffffffffff021916908367ffffffffffffffff1602179055506020820151815f0160086101000a81548173ffffffffffffffffffffffffffffffffffffffff021916908373ffffffffffffffffffffffffffffffffffffffff16021790555060408201518160010155606082015181600201556080820151816003015f6101000a81548173ffffffffffffffffffffffffffffffffffffffff021916908373ffffffffffffffffffffffffffffffffffffffff16021790555060a08201518160030160146101000a81548160ff0219169083151502179055509050508093505050509695505050505050565b5f5f61354d613a91565b90508091505090565b61355e613aba565b565b613568613aba565b565b613572613aba565b61357a613afa565b565b613584613aba565b565b80826002015f6101000a81548173ffffffffffffffffffffffffffffffffffffffff021916908373ffffffffffffffffffffffffffffffffffffffff1602179055506001826001015f600167ffffffffffffffff1681526020019081526020015f205f6101000a81548160ff0219169083151502179055506001826001015f61a86a67ffffffffffffffff1681526020019081526020015f205f6101000a81548160ff0219169083151502179055506001826001015f608967ffffffffffffffff1681526020019081526020015f205f6101000a81548160ff0219169083151502179055506001826001015f603867ffffffffffffffff1681526020019081526020015f205f6101000a81548160ff0219169083151502179055505050565b6136af8282610fee565b6136f25780826040517fe2517d3f0000000000000000000000000000000000000000000000000000000081526004016136e9929190615703565b60405180910390fd5b5050565b6136fe610d26565b613734576040517f8dfc202b00000000000000000000000000000000000000000000000000000000815260040160405180910390fd5b565b5f6137627f360894a13ba1a3210667c828492db98dca3e2076cc3735a920a3ca505d382bbc5f1b613b19565b5f015f9054906101000a900473ffffffffffffffffffffffffffffffffffffffff16905090565b61379282613b22565b8173ffffffffffffffffffffffffffffffffffffffff167fbc7cd75a20ee27fd9adebab32041f755214dbc6bffa90cc0225b39da2e5c2d3b60405160405180910390a25f815111156137ee576137e88282613beb565b506137f7565b6137f6613c6b565b5b5050565b5f7f9b779b17422d0df92223018b32b4d1fa46e071723d6817e2486d003becc55f00905090565b5f5f5f73ffffffffffffffffffffffffffffffffffffffff168573ffffffffffffffffffffffffffffffffffffffff16146138b857825f8673ffffffffffffffffffffffffffffffffffffffff1673ffffffffffffffffffffffffffffffffffffffff1681526020019081526020015f205f9054906101000a900473ffffffffffffffffffffffffffffffffffffffff166138ba565b835b90505f8173ffffffffffffffffffffffffffffffffffffffff1663feaf968c6040518163ffffffff1660e01b815260040160a060405180830381865afa158015613906573d5f5f3e3d5ffd5b505050506040513d601f19601f8201168201806040525081019061392a919061579c565b5050509150505f8113613972576040517f08c379a00000000000000000000000000000000000000000000000000000000081526004016139699061585d565b60405180910390fd5b5f8273ffffffffffffffffffffffffffffffffffffffff1663313ce5676040518163ffffffff1660e01b8152600401602060405180830381865afa1580156139bc573d5f5f3e3d5ffd5b505050506040513d601f19601f820116820180604052508101906139e091906158b1565b905080600a6139ef9190615a0b565b82896139fb9190615a55565b613a059190615ac3565b9350505050949350505050565b60606397a657c960e01b82604051602401613a2d9190615b0d565b604051602081830303815290604052907bffffffffffffffffffffffffffffffffffffffffffffffffffffffff19166020820180517bffffffffffffffffffffffffffffffffffffffffffffffffffffffff83818316178352505050509050919050565b5f7ff0c57e16840df040f15088dc2f81fe391c3923bec73e23a9662efc9c229c6a005f1b905090565b613ac2613ca7565b613af8576040517fd7e6bcf800000000000000000000000000000000000000000000000000000000815260040160405180910390fd5b565b613b02613aba565b5f613b0b6137fb565b90506001815f018190555050565b5f819050919050565b5f8173ffffffffffffffffffffffffffffffffffffffff163b03613b7d57806040517f4c9c8ce3000000000000000000000000000000000000000000000000000000008152600401613b74919061442a565b60405180910390fd5b80613ba97f360894a13ba1a3210667c828492db98dca3e2076cc3735a920a3ca505d382bbc5f1b613b19565b5f015f6101000a81548173ffffffffffffffffffffffffffffffffffffffff021916908373ffffffffffffffffffffffffffffffffffffffff16021790555050565b60605f5f8473ffffffffffffffffffffffffffffffffffffffff1684604051613c149190615b60565b5f60405180830381855af49150503d805f8114613c4c576040519150601f19603f3d011682016040523d82523d5f602084013e613c51565b606091505b5091509150613c61858383613cc5565b9250505092915050565b5f341115613ca5576040517fb398979f00000000000000000000000000000000000000000000000000000000815260040160405180910390fd5b565b5f613cb0613543565b5f0160089054906101000a900460ff16905090565b606082613cda57613cd582613d52565b613d4a565b5f8251148015613d0057505f8473ffffffffffffffffffffffffffffffffffffffff163b145b15613d4257836040517f9996b315000000000000000000000000000000000000000000000000000000008152600401613d39919061442a565b60405180910390fd5b819050613d4b565b5b9392505050565b5f81511115613d645780518082602001fd5b6040517fd6bda27500000000000000000000000000000000000000000000000000000000815260040160405180910390fd5b60405180604001604052805f73ffffffffffffffffffffffffffffffffffffffff1681526020015f81525090565b5f604051905090565b5f5ffd5b5f5ffd5b5f7fffffffff0000000000000000000000000000000000000000000000000000000082169050919050565b613e0981613dd5565b8114613e13575f5ffd5b50565b5f81359050613e2481613e00565b92915050565b5f60208284031215613e3f57613e3e613dcd565b5b5f613e4c84828501613e16565b91505092915050565b5f8115159050919050565b613e6981613e55565b82525050565b5f602082019050613e825f830184613e60565b92915050565b5f819050919050565b613e9a81613e88565b8114613ea4575f5ffd5b50565b5f81359050613eb581613e91565b92915050565b5f73ffffffffffffffffffffffffffffffffffffffff82169050919050565b5f613ee482613ebb565b9050919050565b613ef481613eda565b8114613efe575f5ffd5b50565b5f81359050613f0f81613eeb565b92915050565b5f5f60408385031215613f2b57613f2a613dcd565b5b5f613f3885828601613ea7565b9250506020613f4985828601613f01565b9150509250929050565b613f5c81613e88565b82525050565b5f602082019050613f755f830184613f53565b92915050565b5f819050919050565b613f8d81613f7b565b8114613f97575f5ffd5b50565b5f81359050613fa881613f84565b92915050565b5f60208284031215613fc357613fc2613dcd565b5b5f613fd084828501613f9a565b91505092915050565b613fe281613f7b565b82525050565b5f602082019050613ffb5f830184613fd9565b92915050565b5f5f6040838503121561401757614016613dcd565b5b5f61402485828601613f9a565b925050602061403585828601613f01565b9150509250929050565b5f6020828403121561405457614053613dcd565b5b5f61406184828501613f01565b91505092915050565b5f5f5f5f6080858703121561408257614081613dcd565b5b5f61408f87828801613ea7565b94505060206140a087828801613ea7565b93505060406140b187828801613ea7565b92505060606140c287828801613f01565b91505092959194509250565b5f5ffd5b5f5ffd5b5f601f19601f8301169050919050565b7f4e487b71000000000000000000000000000000000000000000000000000000005f52604160045260245ffd5b61411c826140d6565b810181811067ffffffffffffffff8211171561413b5761413a6140e6565b5b80604052505050565b5f61414d613dc4565b90506141598282614113565b919050565b5f67ffffffffffffffff821115614178576141776140e6565b5b614181826140d6565b9050602081019050919050565b828183375f83830152505050565b5f6141ae6141a98461415e565b614144565b9050828152602081018484840111156141ca576141c96140d2565b5b6141d584828561418e565b509392505050565b5f82601f8301126141f1576141f06140ce565b5b813561420184826020860161419c565b91505092915050565b5f5f604083850312156142205761421f613dcd565b5b5f61422d85828601613f01565b925050602083013567ffffffffffffffff81111561424e5761424d613dd1565b5b61425a858286016141dd565b9150509250929050565b5f6020828403121561427957614278613dcd565b5b5f61428684828501613ea7565b91505092915050565b61429881613eda565b82525050565b5f610160820190506142b25f83018e61428f565b6142bf602083018d613f53565b6142cc604083018c613f53565b6142d9606083018b613f53565b6142e6608083018a613e60565b6142f360a0830189613f53565b61430060c083018861428f565b61430d60e083018761428f565b61431b610100830186613f53565b61432961012083018561428f565b614337610140830184613f53565b9c9b505050505050505050505050565b5f67ffffffffffffffff82169050919050565b61436381614347565b811461436d575f5ffd5b50565b5f8135905061437e8161435a565b92915050565b61438d81613e55565b8114614397575f5ffd5b50565b5f813590506143a881614384565b92915050565b5f5f604083850312156143c4576143c3613dcd565b5b5f6143d185828601614370565b92505060206143e28582860161439a565b9150509250929050565b5f5f6040838503121561440257614401613dcd565b5b5f61440f85828601613f01565b925050602061442085828601613f01565b9150509250929050565b5f60208201905061443d5f83018461428f565b92915050565b5f5ffd5b5f5ffd5b5f67ffffffffffffffff821115614465576144646140e6565b5b602082029050602081019050919050565b5f5ffd5b5f6040828403121561448f5761448e614443565b5b6144996040614144565b90505f6144a884828501613f01565b5f8301525060206144bb84828501613ea7565b60208301525092915050565b5f6144d96144d48461444b565b614144565b905080838252602082019050604084028301858111156144fc576144fb614476565b5b835b818110156145255780614511888261447a565b8452602084019350506040810190506144fe565b5050509392505050565b5f82601f830112614543576145426140ce565b5b81356145538482602086016144c7565b91505092915050565b5f60a0828403121561457157614570614443565b5b61457b60a0614144565b90505f61458a84828501613f9a565b5f83015250602061459d84828501614370565b602083015250604082013567ffffffffffffffff8111156145c1576145c0614447565b5b6145cd848285016141dd565b604083015250606082013567ffffffffffffffff8111156145f1576145f0614447565b5b6145fd848285016141dd565b606083015250608082013567ffffffffffffffff81111561462157614620614447565b5b61462d8482850161452f565b60808301525092915050565b5f6020828403121561464e5761464d613dcd565b5b5f82013567ffffffffffffffff81111561466b5761466a613dd1565b5b6146778482850161455c565b91505092915050565b5f5f6040838503121561469657614695613dcd565b5b5f6146a385828601613f01565b92505060206146b485828601613ea7565b9150509250929050565b5f819050919050565b5f6146e16146dc6146d784613ebb565b6146be565b613ebb565b9050919050565b5f6146f2826146c7565b9050919050565b5f614703826146e8565b9050919050565b614713816146f9565b82525050565b5f60208201905061472c5f83018461470a565b92915050565b5f81519050919050565b5f82825260208201905092915050565b8281835e5f83830152505050565b5f61476482614732565b61476e818561473c565b935061477e81856020860161474c565b614787816140d6565b840191505092915050565b5f6020820190508181035f8301526147aa818461475a565b905092915050565b5f5f5f606084860312156147c9576147c8613dcd565b5b5f6147d686828701613ea7565b93505060206147e786828701613ea7565b92505060406147f886828701613f01565b9150509250925092565b5f5f5f5f6080858703121561481a57614819613dcd565b5b5f61482787828801614370565b945050602061483887828801613ea7565b935050604061484987828801613ea7565b925050606061485a87828801613f01565b91505092959194509250565b5f5f5f6060848603121561487d5761487c613dcd565b5b5f61488a86828701613f01565b935050602061489b86828701613f01565b92505060406148ac86828701613f01565b9150509250925092565b5f5f5f5f5f60a086880312156148cf576148ce613dcd565b5b5f6148dc88828901613ea7565b95505060206148ed88828901613ea7565b94505060406148fe88828901613f01565b935050606061490f88828901613ea7565b925050608061492088828901613f01565b9150509295509295909350565b61493681613e88565b82525050565b61494581613eda565b82525050565b614954816146f9565b82525050565b8082525050565b5f60e0820190506149745f83018a61492d565b614981602083018961493c565b61498e604083018861494b565b61499b606083018761495a565b6149a8608083018661492d565b6149b560a083018561492d565b6149c260c083018461492d565b98975050505050505050565b5f815190506149dc81613e91565b92915050565b5f602082840312156149f7576149f6613dcd565b5b5f614a04848285016149ce565b91505092915050565b7f496e76616c6964206665652072616e67650000000000000000000000000000005f82015250565b5f614a4160118361473c565b9150614a4c82614a0d565b602082019050919050565b5f6020820190508181035f830152614a6e81614a35565b9050919050565b7f4d61782066656520746f6f2068696768000000000000000000000000000000005f82015250565b5f614aa960108361473c565b9150614ab482614a75565b602082019050919050565b5f6020820190508181035f830152614ad681614a9d565b9050919050565b7f4f6e6c79204343495020726f757465722063616e2063616c6c000000000000005f82015250565b5f614b1160198361473c565b9150614b1c82614add565b602082019050919050565b5f6020820190508181035f830152614b3e81614b05565b9050919050565b5f606082019050614b585f83018661428f565b614b65602083018561428f565b614b726040830184613f53565b949350505050565b5f604082019050614b8d5f83018561428f565b614b9a6020830184613f53565b9392505050565b5f81519050614baf81614384565b92915050565b5f60208284031215614bca57614bc9613dcd565b5b5f614bd784828501614ba1565b91505092915050565b8082525050565b5f60e082019050614bfa5f83018a61492d565b614c07602083018961492d565b614c14604083018861493c565b614c216060830187614be0565b614c2e608083018661494b565b614c3b60a083018561495a565b614c4860c083018461493c565b98975050505050505050565b7f4e487b71000000000000000000000000000000000000000000000000000000005f52601160045260245ffd5b5f614c8b82613e88565b9150614c9683613e88565b9250828201905080821115614cae57614cad614c54565b5b92915050565b7f4e6f7420617574686f72697a6564206f722061756374696f6e206e6f742065785f8201527f7069726564000000000000000000000000000000000000000000000000000000602082015250565b5f614d0e60258361473c565b9150614d1982614cb4565b604082019050919050565b5f6020820190508181035f830152614d3b81614d02565b9050919050565b5f608082019050614d555f83018761492d565b614d626020830186614be0565b614d6f604083018561493c565b614d7c606083018461493c565b95945050505050565b5f819050919050565b5f614da8614da3614d9e84614d85565b6146be565b614347565b9050919050565b614db881614d8e565b82525050565b5f602082019050614dd15f830184614daf565b92915050565b7f41756374696f6e206475726174696f6e206e6565647320746f206265206174205f8201527f6c65617374203130307300000000000000000000000000000000000000000000602082015250565b5f614e31602a8361473c565b9150614e3c82614dd7565b604082019050919050565b5f6020820190508181035f830152614e5e81614e25565b9050919050565b7f5374617274207072696365206d7573742062652067726561746572207468616e5f8201527f2030000000000000000000000000000000000000000000000000000000000000602082015250565b5f614ebf60228361473c565b9150614eca82614e65565b604082019050919050565b5f6020820190508181035f830152614eec81614eb3565b9050919050565b7f546f6b656e2070726963652066656564206e6f7420636f6e66696775726564005f82015250565b5f614f27601f8361473c565b9150614f3282614ef3565b602082019050919050565b5f6020820190508181035f830152614f5481614f1b565b9050919050565b5f81519050614f6981613eeb565b92915050565b5f60208284031215614f8457614f83613dcd565b5b5f614f9184828501614f5b565b91505092915050565b7f4e4654206e6f74206f776e6564206279207468652073656e64657200000000005f82015250565b5f614fce601b8361473c565b9150614fd982614f9a565b602082019050919050565b5f6020820190508181035f830152614ffb81614fc2565b9050919050565b5f6040820190506150155f83018561428f565b615022602083018461428f565b9392505050565b7f4e4654206e6f7420617070726f76656420666f722061756374696f6e000000005f82015250565b5f61505d601c8361473c565b915061506882615029565b602082019050919050565b5f6020820190508181035f83015261508a81615051565b9050919050565b5f61509b82613e88565b91507fffffffffffffffffffffffffffffffffffffffffffffffffffffffffffffffff82036150cd576150cc614c54565b5b600182019050919050565b5f815190506150e681613f84565b92915050565b5f6020828403121561510157615100613dcd565b5b5f61510e848285016150d8565b91505092915050565b7f42696420616c72656164792065786563757465640000000000000000000000005f82015250565b5f61514b60148361473c565b915061515682615117565b602082019050919050565b5f6020820190508181035f8301526151788161513f565b9050919050565b5f6060820190506151925f83018661428f565b61519f6020830185613f53565b6151ac604083018461428f565b949350505050565b7f496e76616c696420736f7572636520636861696e0000000000000000000000005f82015250565b5f6151e860148361473c565b91506151f3826151b4565b602082019050919050565b5f6020820190508181035f830152615215816151dc565b9050919050565b5f61522682613ebb565b9050919050565b6152368161521c565b8114615240575f5ffd5b50565b5f815190506152518161522d565b92915050565b5f5f5f5f6080858703121561526f5761526e613dcd565b5b5f61527c87828801615243565b945050602061528d878288016149ce565b935050604061529e878288016149ce565b92505060606152af87828801615243565b91505092959194509250565b6152c481614347565b82525050565b5f6060820190506152dd5f8301866152bb565b6152ea602083018561428f565b6152f76040830184613f53565b949350505050565b7f43434950206e6f7420636f6e66696775726564000000000000000000000000005f82015250565b5f61533360138361473c565b915061533e826152ff565b602082019050919050565b5f6020820190508181035f83015261536081615327565b9050919050565b7f496e73756666696369656e742045544820666f722062696400000000000000005f82015250565b5f61539b60188361473c565b91506153a682615367565b602082019050919050565b5f6020820190508181035f8301526153c88161538f565b9050919050565b5f6080820190506153e25f83018761428f565b6153ef6020830186613f53565b6153fc6040830185613f53565b615409606083018461428f565b95945050505050565b5f81519050919050565b5f82825260208201905092915050565b5f61543682615412565b615440818561541c565b935061545081856020860161474c565b615459816140d6565b840191505092915050565b5f81519050919050565b5f82825260208201905092915050565b5f819050602082019050919050565b61549681613eda565b82525050565b6154a581613e88565b82525050565b604082015f8201516154bf5f85018261548d565b5060208201516154d2602085018261549c565b50505050565b5f6154e383836154ab565b60408301905092915050565b5f602082019050919050565b5f61550582615464565b61550f818561546e565b935061551a8361547e565b805f5b8381101561554a57815161553188826154d8565b975061553c836154ef565b92505060018101905061551d565b5085935050505092915050565b5f60a083015f8301518482035f860152615571828261542c565b9150506020830151848203602086015261558b828261542c565b915050604083015184820360408601526155a582826154fb565b91505060608301516155ba606086018261548d565b50608083015184820360808601526155d2828261542c565b9150508091505092915050565b5f6040820190506155f25f8301856152bb565b81810360208301526156048184615557565b90509392505050565b7f496e73756666696369656e742045544820666f722062696420616e64204343495f8201527f5020666565000000000000000000000000000000000000000000000000000000602082015250565b5f61566760258361473c565b91506156728261560d565b604082019050919050565b5f6020820190508181035f8301526156948161565b565b9050919050565b7f496e73756666696369656e742045544820666f722043434950206665650000005f82015250565b5f6156cf601d8361473c565b91506156da8261569b565b602082019050919050565b5f6020820190508181035f8301526156fc816156c3565b9050919050565b5f6040820190506157165f83018561428f565b6157236020830184613fd9565b9392505050565b5f69ffffffffffffffffffff82169050919050565b6157488161572a565b8114615752575f5ffd5b50565b5f815190506157638161573f565b92915050565b5f819050919050565b61577b81615769565b8114615785575f5ffd5b50565b5f8151905061579681615772565b92915050565b5f5f5f5f5f60a086880312156157b5576157b4613dcd565b5b5f6157c288828901615755565b95505060206157d388828901615788565b94505060406157e4888289016149ce565b93505060606157f5888289016149ce565b925050608061580688828901615755565b9150509295509295909350565b7f496e76616c6964207072696365000000000000000000000000000000000000005f82015250565b5f615847600d8361473c565b915061585282615813565b602082019050919050565b5f6020820190508181035f8301526158748161583b565b9050919050565b5f60ff82169050919050565b6158908161587b565b811461589a575f5ffd5b50565b5f815190506158ab81615887565b92915050565b5f602082840312156158c6576158c5613dcd565b5b5f6158d38482850161589d565b91505092915050565b5f8160011c9050919050565b5f5f8291508390505b60018511156159315780860481111561590d5761590c614c54565b5b600185161561591c5780820291505b808102905061592a856158dc565b94506158f1565b94509492505050565b5f826159495760019050615a04565b81615956575f9050615a04565b816001811461596c5760028114615976576159a5565b6001915050615a04565b60ff84111561598857615987614c54565b5b8360020a91508482111561599f5761599e614c54565b5b50615a04565b5060208310610133831016604e8410600b84101617156159da5782820a9050838111156159d5576159d4614c54565b5b615a04565b6159e784848460016158e8565b925090508184048111156159fe576159fd614c54565b5b81810290505b9392505050565b5f615a1582613e88565b9150615a208361587b565b9250615a4d7fffffffffffffffffffffffffffffffffffffffffffffffffffffffffffffffff848461593a565b905092915050565b5f615a5f82613e88565b9150615a6a83613e88565b9250828202615a7881613e88565b91508282048414831517615a8f57615a8e614c54565b5b5092915050565b7f4e487b71000000000000000000000000000000000000000000000000000000005f52601260045260245ffd5b5f615acd82613e88565b9150615ad883613e88565b925082615ae857615ae7615a96565b5b828204905092915050565b602082015f820151615b075f85018261549c565b50505050565b5f602082019050615b205f830184615af3565b92915050565b5f81905092915050565b5f615b3a82615412565b615b448185615b26565b9350615b5481856020860161474c565b80840191505092915050565b5f615b6b8284615b30565b91508190509291505056fea2646970667358221220ce6b4f313555d25d578636c9dd65b7bd67bec5373f401b643b39e33ae50927de64736f6c634300081e0033",
			"opcodes": "PUSH1 0xA0 PUSH1 0x40 MSTORE ADDRESS PUSH20 0xFFFFFFFFFFFFFFFFFFFFFFFFFFFFFFFFFFFFFFFF AND PUSH1 0x80 SWAP1 PUSH20 0xFFFFFFFFFFFFFFFFFFFFFFFFFFFFFFFFFFFFFFFF AND DUP2 MSTORE POP CALLVALUE DUP1 ISZERO PUSH1 0x41 JUMPI PUSH0 PUSH0 REVERT JUMPDEST POP PUSH1 0x80 MLOAD PUSH2 0x5BAC PUSH2 0x68 PUSH0 CODECOPY PUSH0 DUP2 DUP2 PUSH2 0x22E7 ADD MSTORE DUP2 DUP2 PUSH2 0x233C ADD MSTORE PUSH2 0x2519 ADD MSTORE PUSH2 0x5BAC PUSH0 RETURN INVALID PUSH1 0x80 PUSH1 0x40 MSTORE PUSH1 0x4 CALLDATASIZE LT PUSH2 0x228 JUMPI PUSH0 CALLDATALOAD PUSH1 0xE0 SHR DUP1 PUSH4 0x8456CB59 GT PUSH2 0x122 JUMPI DUP1 PUSH4 0xAF7665CE GT PUSH2 0xAA JUMPI DUP1 PUSH4 0xC217D4D6 GT PUSH2 0x6E JUMPI DUP1 PUSH4 0xC217D4D6 EQ PUSH2 0x7A1 JUMPI DUP1 PUSH4 0xC415B95C EQ PUSH2 0x7C9 JUMPI DUP1 PUSH4 0xD547741F EQ PUSH2 0x7F3 JUMPI DUP1 PUSH4 0xF72C0D8B EQ PUSH2 0x81B JUMPI DUP1 PUSH4 0xFC528482 EQ PUSH2 0x845 JUMPI PUSH2 0x229 JUMP JUMPDEST DUP1 PUSH4 0xAF7665CE EQ PUSH2 0x6E1 JUMPI DUP1 PUSH4 0xB2703DC6 EQ PUSH2 0x70B JUMPI DUP1 PUSH4 0xB9A2DE3A EQ PUSH2 0x727 JUMPI DUP1 PUSH4 0xBF654AAC EQ PUSH2 0x74F JUMPI DUP1 PUSH4 0xC0C53B8B EQ PUSH2 0x779 JUMPI PUSH2 0x229 JUMP JUMPDEST DUP1 PUSH4 0x95CCEA67 GT PUSH2 0xF1 JUMPI DUP1 PUSH4 0x95CCEA67 EQ PUSH2 0x60D JUMPI DUP1 PUSH4 0x9DCB511A EQ PUSH2 0x635 JUMPI DUP1 PUSH4 0xA217FDDF EQ PUSH2 0x671 JUMPI DUP1 PUSH4 0xAD3CB1CC EQ PUSH2 0x69B JUMPI DUP1 PUSH4 0xAD6561EC EQ PUSH2 0x6C5 JUMPI PUSH2 0x229 JUMP JUMPDEST DUP1 PUSH4 0x8456CB59 EQ PUSH2 0x56B JUMPI DUP1 PUSH4 0x85572FFB EQ PUSH2 0x581 JUMPI DUP1 PUSH4 0x91D14854 EQ PUSH2 0x5A9 JUMPI DUP1 PUSH4 0x922B8079 EQ PUSH2 0x5E5 JUMPI PUSH2 0x229 JUMP JUMPDEST DUP1 PUSH4 0x4F1EF286 GT PUSH2 0x1B0 JUMPI DUP1 PUSH4 0x75B238FC GT PUSH2 0x174 JUMPI DUP1 PUSH4 0x75B238FC EQ PUSH2 0x49D JUMPI DUP1 PUSH4 0x76E11286 EQ PUSH2 0x4C7 JUMPI DUP1 PUSH4 0x77698771 EQ PUSH2 0x4EF JUMPI DUP1 PUSH4 0x7BC9412B EQ PUSH2 0x519 JUMPI DUP1 PUSH4 0x8375BB39 EQ PUSH2 0x541 JUMPI PUSH2 0x229 JUMP JUMPDEST DUP1 PUSH4 0x4F1EF286 EQ PUSH2 0x3BF JUMPI DUP1 PUSH4 0x52D1902D EQ PUSH2 0x3DB JUMPI DUP1 PUSH4 0x571A26A0 EQ PUSH2 0x405 JUMPI DUP1 PUSH4 0x5C975ABB EQ PUSH2 0x44B JUMPI DUP1 PUSH4 0x5D9A2C48 EQ PUSH2 0x475 JUMPI PUSH2 0x229 JUMP JUMPDEST DUP1 PUSH4 0x2F2FF15D GT PUSH2 0x1F7 JUMPI DUP1 PUSH4 0x2F2FF15D EQ PUSH2 0x309 JUMPI DUP1 PUSH4 0x31C1E16A EQ PUSH2 0x331 JUMPI DUP1 PUSH4 0x36568ABE EQ PUSH2 0x359 JUMPI DUP1 PUSH4 0x3F4BA83A EQ PUSH2 0x381 JUMPI DUP1 PUSH4 0x49EEC932 EQ PUSH2 0x397 JUMPI PUSH2 0x229 JUMP JUMPDEST DUP1 PUSH4 0x1FFC9A7 EQ PUSH2 0x22B JUMPI DUP1 PUSH4 0x236FC47B EQ PUSH2 0x267 JUMPI DUP1 PUSH4 0x248A9CA3 EQ PUSH2 0x2A3 JUMPI DUP1 PUSH4 0x2A0B17EE EQ PUSH2 0x2DF JUMPI PUSH2 0x229 JUMP JUMPDEST JUMPDEST STOP JUMPDEST CALLVALUE DUP1 ISZERO PUSH2 0x236 JUMPI PUSH0 PUSH0 REVERT JUMPDEST POP PUSH2 0x251 PUSH1 0x4 DUP1 CALLDATASIZE SUB DUP2 ADD SWAP1 PUSH2 0x24C SWAP2 SWAP1 PUSH2 0x3E2A JUMP JUMPDEST PUSH2 0x86F JUMP JUMPDEST PUSH1 0x40 MLOAD PUSH2 0x25E SWAP2 SWAP1 PUSH2 0x3E6F JUMP JUMPDEST PUSH1 0x40 MLOAD DUP1 SWAP2 SUB SWAP1 RETURN JUMPDEST CALLVALUE DUP1 ISZERO PUSH2 0x272 JUMPI PUSH0 PUSH0 REVERT JUMPDEST POP PUSH2 0x28D PUSH1 0x4 DUP1 CALLDATASIZE SUB DUP2 ADD SWAP1 PUSH2 0x288 SWAP2 SWAP1 PUSH2 0x3F15 JUMP JUMPDEST PUSH2 0x8E8 JUMP JUMPDEST PUSH1 0x40 MLOAD PUSH2 0x29A SWAP2 SWAP1 PUSH2 0x3F62 JUMP JUMPDEST PUSH1 0x40 MLOAD DUP1 SWAP2 SUB SWAP1 RETURN JUMPDEST CALLVALUE DUP1 ISZERO PUSH2 0x2AE JUMPI PUSH0 PUSH0 REVERT JUMPDEST POP PUSH2 0x2C9 PUSH1 0x4 DUP1 CALLDATASIZE SUB DUP2 ADD SWAP1 PUSH2 0x2C4 SWAP2 SWAP1 PUSH2 0x3FAE JUMP JUMPDEST PUSH2 0x99B JUMP JUMPDEST PUSH1 0x40 MLOAD PUSH2 0x2D6 SWAP2 SWAP1 PUSH2 0x3FE8 JUMP JUMPDEST PUSH1 0x40 MLOAD DUP1 SWAP2 SUB SWAP1 RETURN JUMPDEST CALLVALUE DUP1 ISZERO PUSH2 0x2EA JUMPI PUSH0 PUSH0 REVERT JUMPDEST POP PUSH2 0x2F3 PUSH2 0x9C5 JUMP JUMPDEST PUSH1 0x40 MLOAD PUSH2 0x300 SWAP2 SWAP1 PUSH2 0x3F62 JUMP JUMPDEST PUSH1 0x40 MLOAD DUP1 SWAP2 SUB SWAP1 RETURN JUMPDEST CALLVALUE DUP1 ISZERO PUSH2 0x314 JUMPI PUSH0 PUSH0 REVERT JUMPDEST POP PUSH2 0x32F PUSH1 0x4 DUP1 CALLDATASIZE SUB DUP2 ADD SWAP1 PUSH2 0x32A SWAP2 SWAP1 PUSH2 0x4001 JUMP JUMPDEST PUSH2 0x9CB JUMP JUMPDEST STOP JUMPDEST CALLVALUE DUP1 ISZERO PUSH2 0x33C JUMPI PUSH0 PUSH0 REVERT JUMPDEST POP PUSH2 0x357 PUSH1 0x4 DUP1 CALLDATASIZE SUB DUP2 ADD SWAP1 PUSH2 0x352 SWAP2 SWAP1 PUSH2 0x403F JUMP JUMPDEST PUSH2 0x9ED JUMP JUMPDEST STOP JUMPDEST CALLVALUE DUP1 ISZERO PUSH2 0x364 JUMPI PUSH0 PUSH0 REVERT JUMPDEST POP PUSH2 0x37F PUSH1 0x4 DUP1 CALLDATASIZE SUB DUP2 ADD SWAP1 PUSH2 0x37A SWAP2 SWAP1 PUSH2 0x4001 JUMP JUMPDEST PUSH2 0xA2E JUMP JUMPDEST STOP JUMPDEST CALLVALUE DUP1 ISZERO PUSH2 0x38C JUMPI PUSH0 PUSH0 REVERT JUMPDEST POP PUSH2 0x395 PUSH2 0xAA9 JUMP JUMPDEST STOP JUMPDEST CALLVALUE DUP1 ISZERO PUSH2 0x3A2 JUMPI PUSH0 PUSH0 REVERT JUMPDEST POP PUSH2 0x3BD PUSH1 0x4 DUP1 CALLDATASIZE SUB DUP2 ADD SWAP1 PUSH2 0x3B8 SWAP2 SWAP1 PUSH2 0x406A JUMP JUMPDEST PUSH2 0xADE JUMP JUMPDEST STOP JUMPDEST PUSH2 0x3D9 PUSH1 0x4 DUP1 CALLDATASIZE SUB DUP2 ADD SWAP1 PUSH2 0x3D4 SWAP2 SWAP1 PUSH2 0x420A JUMP JUMPDEST PUSH2 0xBF8 JUMP JUMPDEST STOP JUMPDEST CALLVALUE DUP1 ISZERO PUSH2 0x3E6 JUMPI PUSH0 PUSH0 REVERT JUMPDEST POP PUSH2 0x3EF PUSH2 0xC17 JUMP JUMPDEST PUSH1 0x40 MLOAD PUSH2 0x3FC SWAP2 SWAP1 PUSH2 0x3FE8 JUMP JUMPDEST PUSH1 0x40 MLOAD DUP1 SWAP2 SUB SWAP1 RETURN JUMPDEST CALLVALUE DUP1 ISZERO PUSH2 0x410 JUMPI PUSH0 PUSH0 REVERT JUMPDEST POP PUSH2 0x42B PUSH1 0x4 DUP1 CALLDATASIZE SUB DUP2 ADD SWAP1 PUSH2 0x426 SWAP2 SWAP1 PUSH2 0x4264 JUMP JUMPDEST PUSH2 0xC48 JUMP JUMPDEST PUSH1 0x40 MLOAD PUSH2 0x442 SWAP12 SWAP11 SWAP10 SWAP9 SWAP8 SWAP7 SWAP6 SWAP5 SWAP4 SWAP3 SWAP2 SWAP1 PUSH2 0x429E JUMP JUMPDEST PUSH1 0x40 MLOAD DUP1 SWAP2 SUB SWAP1 RETURN JUMPDEST CALLVALUE DUP1 ISZERO PUSH2 0x456 JUMPI PUSH0 PUSH0 REVERT JUMPDEST POP PUSH2 0x45F PUSH2 0xD26 JUMP JUMPDEST PUSH1 0x40 MLOAD PUSH2 0x46C SWAP2 SWAP1 PUSH2 0x3E6F JUMP JUMPDEST PUSH1 0x40 MLOAD DUP1 SWAP2 SUB SWAP1 RETURN JUMPDEST CALLVALUE DUP1 ISZERO PUSH2 0x480 JUMPI PUSH0 PUSH0 REVERT JUMPDEST POP PUSH2 0x49B PUSH1 0x4 DUP1 CALLDATASIZE SUB DUP2 ADD SWAP1 PUSH2 0x496 SWAP2 SWAP1 PUSH2 0x43AE JUMP JUMPDEST PUSH2 0xD48 JUMP JUMPDEST STOP JUMPDEST CALLVALUE DUP1 ISZERO PUSH2 0x4A8 JUMPI PUSH0 PUSH0 REVERT JUMPDEST POP PUSH2 0x4B1 PUSH2 0xD8C JUMP JUMPDEST PUSH1 0x40 MLOAD PUSH2 0x4BE SWAP2 SWAP1 PUSH2 0x3FE8 JUMP JUMPDEST PUSH1 0x40 MLOAD DUP1 SWAP2 SUB SWAP1 RETURN JUMPDEST CALLVALUE DUP1 ISZERO PUSH2 0x4D2 JUMPI PUSH0 PUSH0 REVERT JUMPDEST POP PUSH2 0x4ED PUSH1 0x4 DUP1 CALLDATASIZE SUB DUP2 ADD SWAP1 PUSH2 0x4E8 SWAP2 SWAP1 PUSH2 0x43EC JUMP JUMPDEST PUSH2 0xDB0 JUMP JUMPDEST STOP JUMPDEST CALLVALUE DUP1 ISZERO PUSH2 0x4FA JUMPI PUSH0 PUSH0 REVERT JUMPDEST POP PUSH2 0x503 PUSH2 0xE5A JUMP JUMPDEST PUSH1 0x40 MLOAD PUSH2 0x510 SWAP2 SWAP1 PUSH2 0x442A JUMP JUMPDEST PUSH1 0x40 MLOAD DUP1 SWAP2 SUB SWAP1 RETURN JUMPDEST CALLVALUE DUP1 ISZERO PUSH2 0x524 JUMPI PUSH0 PUSH0 REVERT JUMPDEST POP PUSH2 0x53F PUSH1 0x4 DUP1 CALLDATASIZE SUB DUP2 ADD SWAP1 PUSH2 0x53A SWAP2 SWAP1 PUSH2 0x3FAE JUMP JUMPDEST PUSH2 0xE7F JUMP JUMPDEST STOP JUMPDEST CALLVALUE DUP1 ISZERO PUSH2 0x54C JUMPI PUSH0 PUSH0 REVERT JUMPDEST POP PUSH2 0x555 PUSH2 0xECE JUMP JUMPDEST PUSH1 0x40 MLOAD PUSH2 0x562 SWAP2 SWAP1 PUSH2 0x3F62 JUMP JUMPDEST PUSH1 0x40 MLOAD DUP1 SWAP2 SUB SWAP1 RETURN JUMPDEST CALLVALUE DUP1 ISZERO PUSH2 0x576 JUMPI PUSH0 PUSH0 REVERT JUMPDEST POP PUSH2 0x57F PUSH2 0xED4 JUMP JUMPDEST STOP JUMPDEST CALLVALUE DUP1 ISZERO PUSH2 0x58C JUMPI PUSH0 PUSH0 REVERT JUMPDEST POP PUSH2 0x5A7 PUSH1 0x4 DUP1 CALLDATASIZE SUB DUP2 ADD SWAP1 PUSH2 0x5A2 SWAP2 SWAP1 PUSH2 0x4639 JUMP JUMPDEST PUSH2 0xF09 JUMP JUMPDEST STOP JUMPDEST CALLVALUE DUP1 ISZERO PUSH2 0x5B4 JUMPI PUSH0 PUSH0 REVERT JUMPDEST POP PUSH2 0x5CF PUSH1 0x4 DUP1 CALLDATASIZE SUB DUP2 ADD SWAP1 PUSH2 0x5CA SWAP2 SWAP1 PUSH2 0x4001 JUMP JUMPDEST PUSH2 0xFEE JUMP JUMPDEST PUSH1 0x40 MLOAD PUSH2 0x5DC SWAP2 SWAP1 PUSH2 0x3E6F JUMP JUMPDEST PUSH1 0x40 MLOAD DUP1 SWAP2 SUB SWAP1 RETURN JUMPDEST CALLVALUE DUP1 ISZERO PUSH2 0x5F0 JUMPI PUSH0 PUSH0 REVERT JUMPDEST POP PUSH2 0x60B PUSH1 0x4 DUP1 CALLDATASIZE SUB DUP2 ADD SWAP1 PUSH2 0x606 SWAP2 SWAP1 PUSH2 0x4680 JUMP JUMPDEST PUSH2 0x105F JUMP JUMPDEST STOP JUMPDEST CALLVALUE DUP1 ISZERO PUSH2 0x618 JUMPI PUSH0 PUSH0 REVERT JUMPDEST POP PUSH2 0x633 PUSH1 0x4 DUP1 CALLDATASIZE SUB DUP2 ADD SWAP1 PUSH2 0x62E SWAP2 SWAP1 PUSH2 0x4680 JUMP JUMPDEST PUSH2 0x10F8 JUMP JUMPDEST STOP JUMPDEST CALLVALUE DUP1 ISZERO PUSH2 0x640 JUMPI PUSH0 PUSH0 REVERT JUMPDEST POP PUSH2 0x65B PUSH1 0x4 DUP1 CALLDATASIZE SUB DUP2 ADD SWAP1 PUSH2 0x656 SWAP2 SWAP1 PUSH2 0x403F JUMP JUMPDEST PUSH2 0x1220 JUMP JUMPDEST PUSH1 0x40 MLOAD PUSH2 0x668 SWAP2 SWAP1 PUSH2 0x4719 JUMP JUMPDEST PUSH1 0x40 MLOAD DUP1 SWAP2 SUB SWAP1 RETURN JUMPDEST CALLVALUE DUP1 ISZERO PUSH2 0x67C JUMPI PUSH0 PUSH0 REVERT JUMPDEST POP PUSH2 0x685 PUSH2 0x1250 JUMP JUMPDEST PUSH1 0x40 MLOAD PUSH2 0x692 SWAP2 SWAP1 PUSH2 0x3FE8 JUMP JUMPDEST PUSH1 0x40 MLOAD DUP1 SWAP2 SUB SWAP1 RETURN JUMPDEST CALLVALUE DUP1 ISZERO PUSH2 0x6A6 JUMPI PUSH0 PUSH0 REVERT JUMPDEST POP PUSH2 0x6AF PUSH2 0x1256 JUMP JUMPDEST PUSH1 0x40 MLOAD PUSH2 0x6BC SWAP2 SWAP1 PUSH2 0x4792 JUMP JUMPDEST PUSH1 0x40 MLOAD DUP1 SWAP2 SUB SWAP1 RETURN JUMPDEST PUSH2 0x6DF PUSH1 0x4 DUP1 CALLDATASIZE SUB DUP2 ADD SWAP1 PUSH2 0x6DA SWAP2 SWAP1 PUSH2 0x47B2 JUMP JUMPDEST PUSH2 0x128F JUMP JUMPDEST STOP JUMPDEST CALLVALUE DUP1 ISZERO PUSH2 0x6EC JUMPI PUSH0 PUSH0 REVERT JUMPDEST POP PUSH2 0x6F5 PUSH2 0x133E JUMP JUMPDEST PUSH1 0x40 MLOAD PUSH2 0x702 SWAP2 SWAP1 PUSH2 0x4719 JUMP JUMPDEST PUSH1 0x40 MLOAD DUP1 SWAP2 SUB SWAP1 RETURN JUMPDEST PUSH2 0x725 PUSH1 0x4 DUP1 CALLDATASIZE SUB DUP2 ADD SWAP1 PUSH2 0x720 SWAP2 SWAP1 PUSH2 0x4802 JUMP JUMPDEST PUSH2 0x1363 JUMP JUMPDEST STOP JUMPDEST CALLVALUE DUP1 ISZERO PUSH2 0x732 JUMPI PUSH0 PUSH0 REVERT JUMPDEST POP PUSH2 0x74D PUSH1 0x4 DUP1 CALLDATASIZE SUB DUP2 ADD SWAP1 PUSH2 0x748 SWAP2 SWAP1 PUSH2 0x4264 JUMP JUMPDEST PUSH2 0x139D JUMP JUMPDEST STOP JUMPDEST CALLVALUE DUP1 ISZERO PUSH2 0x75A JUMPI PUSH0 PUSH0 REVERT JUMPDEST POP PUSH2 0x763 PUSH2 0x152E JUMP JUMPDEST PUSH1 0x40 MLOAD PUSH2 0x770 SWAP2 SWAP1 PUSH2 0x3F62 JUMP JUMPDEST PUSH1 0x40 MLOAD DUP1 SWAP2 SUB SWAP1 RETURN JUMPDEST CALLVALUE DUP1 ISZERO PUSH2 0x784 JUMPI PUSH0 PUSH0 REVERT JUMPDEST POP PUSH2 0x79F PUSH1 0x4 DUP1 CALLDATASIZE SUB DUP2 ADD SWAP1 PUSH2 0x79A SWAP2 SWAP1 PUSH2 0x4866 JUMP JUMPDEST PUSH2 0x1534 JUMP JUMPDEST STOP JUMPDEST CALLVALUE DUP1 ISZERO PUSH2 0x7AC JUMPI PUSH0 PUSH0 REVERT JUMPDEST POP PUSH2 0x7C7 PUSH1 0x4 DUP1 CALLDATASIZE SUB DUP2 ADD SWAP1 PUSH2 0x7C2 SWAP2 SWAP1 PUSH2 0x48B6 JUMP JUMPDEST PUSH2 0x181D JUMP JUMPDEST STOP JUMPDEST CALLVALUE DUP1 ISZERO PUSH2 0x7D4 JUMPI PUSH0 PUSH0 REVERT JUMPDEST POP PUSH2 0x7DD PUSH2 0x1F25 JUMP JUMPDEST PUSH1 0x40 MLOAD PUSH2 0x7EA SWAP2 SWAP1 PUSH2 0x442A JUMP JUMPDEST PUSH1 0x40 MLOAD DUP1 SWAP2 SUB SWAP1 RETURN JUMPDEST CALLVALUE DUP1 ISZERO PUSH2 0x7FE JUMPI PUSH0 PUSH0 REVERT JUMPDEST POP PUSH2 0x819 PUSH1 0x4 DUP1 CALLDATASIZE SUB DUP2 ADD SWAP1 PUSH2 0x814 SWAP2 SWAP1 PUSH2 0x4001 JUMP JUMPDEST PUSH2 0x1F4A JUMP JUMPDEST STOP JUMPDEST CALLVALUE DUP1 ISZERO PUSH2 0x826 JUMPI PUSH0 PUSH0 REVERT JUMPDEST POP PUSH2 0x82F PUSH2 0x1F6C JUMP JUMPDEST PUSH1 0x40 MLOAD PUSH2 0x83C SWAP2 SWAP1 PUSH2 0x3FE8 JUMP JUMPDEST PUSH1 0x40 MLOAD DUP1 SWAP2 SUB SWAP1 RETURN JUMPDEST CALLVALUE DUP1 ISZERO PUSH2 0x850 JUMPI PUSH0 PUSH0 REVERT JUMPDEST POP PUSH2 0x859 PUSH2 0x1F90 JUMP JUMPDEST PUSH1 0x40 MLOAD PUSH2 0x866 SWAP2 SWAP1 PUSH2 0x3F62 JUMP JUMPDEST PUSH1 0x40 MLOAD DUP1 SWAP2 SUB SWAP1 RETURN JUMPDEST PUSH0 PUSH32 0x7965DB0B00000000000000000000000000000000000000000000000000000000 PUSH28 0xFFFFFFFFFFFFFFFFFFFFFFFFFFFFFFFFFFFFFFFFFFFFFFFFFFFFFFFF NOT AND DUP3 PUSH28 0xFFFFFFFFFFFFFFFFFFFFFFFFFFFFFFFFFFFFFFFFFFFFFFFFFFFFFFFF NOT AND EQ DUP1 PUSH2 0x8E1 JUMPI POP PUSH2 0x8E0 DUP3 PUSH2 0x1F96 JUMP JUMPDEST JUMPDEST SWAP1 POP SWAP2 SWAP1 POP JUMP JUMPDEST PUSH0 PUSH20 0x0 PUSH4 0x5980022F DUP5 DUP5 PUSH1 0x6 PUSH0 SWAP1 SLOAD SWAP1 PUSH2 0x100 EXP SWAP1 DIV PUSH20 0xFFFFFFFFFFFFFFFFFFFFFFFFFFFFFFFFFFFFFFFF AND PUSH1 0x7 PUSH1 0x8 SLOAD PUSH1 0xA SLOAD PUSH1 0x9 SLOAD PUSH1 0x40 MLOAD DUP9 PUSH4 0xFFFFFFFF AND PUSH1 0xE0 SHL DUP2 MSTORE PUSH1 0x4 ADD PUSH2 0x954 SWAP8 SWAP7 SWAP6 SWAP5 SWAP4 SWAP3 SWAP2 SWAP1 PUSH2 0x4961 JUMP JUMPDEST PUSH1 0x20 PUSH1 0x40 MLOAD DUP1 DUP4 SUB DUP2 DUP7 GAS DELEGATECALL ISZERO DUP1 ISZERO PUSH2 0x96F JUMPI RETURNDATASIZE PUSH0 PUSH0 RETURNDATACOPY RETURNDATASIZE PUSH0 REVERT JUMPDEST POP POP POP POP PUSH1 0x40 MLOAD RETURNDATASIZE PUSH1 0x1F NOT PUSH1 0x1F DUP3 ADD AND DUP3 ADD DUP1 PUSH1 0x40 MSTORE POP DUP2 ADD SWAP1 PUSH2 0x993 SWAP2 SWAP1 PUSH2 0x49E2 JUMP JUMPDEST SWAP1 POP SWAP3 SWAP2 POP POP JUMP JUMPDEST PUSH0 PUSH0 PUSH2 0x9A5 PUSH2 0x1FFF JUMP JUMPDEST SWAP1 POP DUP1 PUSH0 ADD PUSH0 DUP5 DUP2 MSTORE PUSH1 0x20 ADD SWAP1 DUP2 MSTORE PUSH1 0x20 ADD PUSH0 KECCAK256 PUSH1 0x1 ADD SLOAD SWAP2 POP POP SWAP2 SWAP1 POP JUMP JUMPDEST PUSH1 0xA SLOAD DUP2 JUMP JUMPDEST PUSH2 0x9D4 DUP3 PUSH2 0x99B JUMP JUMPDEST PUSH2 0x9DD DUP2 PUSH2 0x2026 JUMP JUMPDEST PUSH2 0x9E7 DUP4 DUP4 PUSH2 0x203A JUMP JUMPDEST POP POP POP POP JUMP JUMPDEST PUSH32 0xA49807205CE4D355092EF5A8A18F56E8913CF4A201FBE287825B095693C21775 PUSH2 0xA17 DUP2 PUSH2 0x2026 JUMP JUMPDEST PUSH2 0xA2A DUP3 PUSH0 PUSH2 0x2132 SWAP1 SWAP2 SWAP1 PUSH4 0xFFFFFFFF AND JUMP JUMPDEST POP POP JUMP JUMPDEST PUSH2 0xA36 PUSH2 0x2178 JUMP JUMPDEST PUSH20 0xFFFFFFFFFFFFFFFFFFFFFFFFFFFFFFFFFFFFFFFF AND DUP2 PUSH20 0xFFFFFFFFFFFFFFFFFFFFFFFFFFFFFFFFFFFFFFFF AND EQ PUSH2 0xA9A JUMPI PUSH1 0x40 MLOAD PUSH32 0x6697B23200000000000000000000000000000000000000000000000000000000 DUP2 MSTORE PUSH1 0x4 ADD PUSH1 0x40 MLOAD DUP1 SWAP2 SUB SWAP1 REVERT JUMPDEST PUSH2 0xAA4 DUP3 DUP3 PUSH2 0x217F JUMP JUMPDEST POP POP POP JUMP JUMPDEST PUSH32 0xA49807205CE4D355092EF5A8A18F56E8913CF4A201FBE287825B095693C21775 PUSH2 0xAD3 DUP2 PUSH2 0x2026 JUMP JUMPDEST PUSH2 0xADB PUSH2 0x2277 JUMP JUMPDEST POP JUMP JUMPDEST PUSH32 0xA49807205CE4D355092EF5A8A18F56E8913CF4A201FBE287825B095693C21775 PUSH2 0xB08 DUP2 PUSH2 0x2026 JUMP JUMPDEST DUP5 DUP5 GT ISZERO DUP1 ISZERO PUSH2 0xB18 JUMPI POP DUP3 DUP6 GT ISZERO JUMPDEST PUSH2 0xB57 JUMPI PUSH1 0x40 MLOAD PUSH32 0x8C379A000000000000000000000000000000000000000000000000000000000 DUP2 MSTORE PUSH1 0x4 ADD PUSH2 0xB4E SWAP1 PUSH2 0x4A57 JUMP JUMPDEST PUSH1 0x40 MLOAD DUP1 SWAP2 SUB SWAP1 REVERT JUMPDEST PUSH2 0x3E8 DUP4 GT ISZERO PUSH2 0xB9C JUMPI PUSH1 0x40 MLOAD PUSH32 0x8C379A000000000000000000000000000000000000000000000000000000000 DUP2 MSTORE PUSH1 0x4 ADD PUSH2 0xB93 SWAP1 PUSH2 0x4ABF JUMP JUMPDEST PUSH1 0x40 MLOAD DUP1 SWAP2 SUB SWAP1 REVERT JUMPDEST DUP5 PUSH1 0x8 DUP2 SWAP1 SSTORE POP DUP4 PUSH1 0xA DUP2 SWAP1 SSTORE POP DUP3 PUSH1 0x9 DUP2 SWAP1 SSTORE POP DUP2 PUSH1 0xB PUSH0 PUSH2 0x100 EXP DUP2 SLOAD DUP2 PUSH20 0xFFFFFFFFFFFFFFFFFFFFFFFFFFFFFFFFFFFFFFFF MUL NOT AND SWAP1 DUP4 PUSH20 0xFFFFFFFFFFFFFFFFFFFFFFFFFFFFFFFFFFFFFFFF AND MUL OR SWAP1 SSTORE POP POP POP POP POP POP JUMP JUMPDEST PUSH2 0xC00 PUSH2 0x22E5 JUMP JUMPDEST PUSH2 0xC09 DUP3 PUSH2 0x23CB JUMP JUMPDEST PUSH2 0xC13 DUP3 DUP3 PUSH2 0x23F9 JUMP JUMPDEST POP POP JUMP JUMPDEST PUSH0 PUSH2 0xC20 PUSH2 0x2517 JUMP JUMPDEST PUSH32 0x360894A13BA1A3210667C828492DB98DCA3E2076CC3735A920A3CA505D382BBC PUSH0 SHL SWAP1 POP SWAP1 JUMP JUMPDEST PUSH1 0x4 PUSH1 0x20 MSTORE DUP1 PUSH0 MSTORE PUSH1 0x40 PUSH0 KECCAK256 PUSH0 SWAP2 POP SWAP1 POP DUP1 PUSH0 ADD PUSH0 SWAP1 SLOAD SWAP1 PUSH2 0x100 EXP SWAP1 DIV PUSH20 0xFFFFFFFFFFFFFFFFFFFFFFFFFFFFFFFFFFFFFFFF AND SWAP1 DUP1 PUSH1 0x1 ADD SLOAD SWAP1 DUP1 PUSH1 0x2 ADD SLOAD SWAP1 DUP1 PUSH1 0x3 ADD SLOAD SWAP1 DUP1 PUSH1 0x4 ADD PUSH0 SWAP1 SLOAD SWAP1 PUSH2 0x100 EXP SWAP1 DIV PUSH1 0xFF AND SWAP1 DUP1 PUSH1 0x5 ADD SLOAD SWAP1 DUP1 PUSH1 0x6 ADD PUSH0 SWAP1 SLOAD SWAP1 PUSH2 0x100 EXP SWAP1 DIV PUSH20 0xFFFFFFFFFFFFFFFFFFFFFFFFFFFFFFFFFFFFFFFF AND SWAP1 DUP1 PUSH1 0x7 ADD PUSH0 SWAP1 SLOAD SWAP1 PUSH2 0x100 EXP SWAP1 DIV PUSH20 0xFFFFFFFFFFFFFFFFFFFFFFFFFFFFFFFFFFFFFFFF AND SWAP1 DUP1 PUSH1 0x8 ADD SLOAD SWAP1 DUP1 PUSH1 0x9 ADD PUSH0 SWAP1 SLOAD SWAP1 PUSH2 0x100 EXP SWAP1 DIV PUSH20 0xFFFFFFFFFFFFFFFFFFFFFFFFFFFFFFFFFFFFFFFF AND SWAP1 DUP1 PUSH1 0xA ADD SLOAD SWAP1 POP DUP12 JUMP JUMPDEST PUSH0 PUSH0 PUSH2 0xD30 PUSH2 0x259E JUMP JUMPDEST SWAP1 POP DUP1 PUSH0 ADD PUSH0 SWAP1 SLOAD SWAP1 PUSH2 0x100 EXP SWAP1 DIV PUSH1 0xFF AND SWAP2 POP POP SWAP1 JUMP JUMPDEST PUSH32 0xA49807205CE4D355092EF5A8A18F56E8913CF4A201FBE287825B095693C21775 PUSH2 0xD72 DUP2 PUSH2 0x2026 JUMP JUMPDEST PUSH2 0xD87 DUP4 DUP4 PUSH0 PUSH2 0x25C5 SWAP1 SWAP3 SWAP2 SWAP1 PUSH4 0xFFFFFFFF AND JUMP JUMPDEST POP POP POP JUMP JUMPDEST PUSH32 0xA49807205CE4D355092EF5A8A18F56E8913CF4A201FBE287825B095693C21775 DUP2 JUMP JUMPDEST PUSH32 0xA49807205CE4D355092EF5A8A18F56E8913CF4A201FBE287825B095693C21775 PUSH2 0xDDA DUP2 PUSH2 0x2026 JUMP JUMPDEST DUP3 PUSH1 0x7 PUSH0 DUP5 PUSH20 0xFFFFFFFFFFFFFFFFFFFFFFFFFFFFFFFFFFFFFFFF AND PUSH20 0xFFFFFFFFFFFFFFFFFFFFFFFFFFFFFFFFFFFFFFFF AND DUP2 MSTORE PUSH1 0x20 ADD SWAP1 DUP2 MSTORE PUSH1 0x20 ADD PUSH0 KECCAK256 PUSH0 PUSH2 0x100 EXP DUP2 SLOAD DUP2 PUSH20 0xFFFFFFFFFFFFFFFFFFFFFFFFFFFFFFFFFFFFFFFF MUL NOT AND SWAP1 DUP4 PUSH20 0xFFFFFFFFFFFFFFFFFFFFFFFFFFFFFFFFFFFFFFFF AND MUL OR SWAP1 SSTORE POP POP POP POP JUMP JUMPDEST PUSH1 0x3 PUSH0 SWAP1 SLOAD SWAP1 PUSH2 0x100 EXP SWAP1 DIV PUSH20 0xFFFFFFFFFFFFFFFFFFFFFFFFFFFFFFFFFFFFFFFF AND DUP2 JUMP JUMPDEST PUSH2 0xE87 PUSH2 0x2608 JUMP JUMPDEST PUSH2 0xEC3 DUP2 PUSH1 0x4 PUSH1 0x6 PUSH0 SWAP1 SLOAD SWAP1 PUSH2 0x100 EXP SWAP1 DIV PUSH20 0xFFFFFFFFFFFFFFFFFFFFFFFFFFFFFFFFFFFFFFFF AND PUSH1 0x7 PUSH0 PUSH2 0x265C SWAP1 SWAP5 SWAP4 SWAP3 SWAP2 SWAP1 PUSH4 0xFFFFFFFF AND JUMP JUMPDEST PUSH2 0xECB PUSH2 0x2C21 JUMP JUMPDEST POP JUMP JUMPDEST PUSH1 0x8 SLOAD DUP2 JUMP JUMPDEST PUSH32 0xA49807205CE4D355092EF5A8A18F56E8913CF4A201FBE287825B095693C21775 PUSH2 0xEFE DUP2 PUSH2 0x2026 JUMP JUMPDEST PUSH2 0xF06 PUSH2 0x2C38 JUMP JUMPDEST POP JUMP JUMPDEST PUSH1 0x3 PUSH0 SWAP1 SLOAD SWAP1 PUSH2 0x100 EXP SWAP1 DIV PUSH20 0xFFFFFFFFFFFFFFFFFFFFFFFFFFFFFFFFFFFFFFFF AND PUSH20 0xFFFFFFFFFFFFFFFFFFFFFFFFFFFFFFFFFFFFFFFF AND CALLER PUSH20 0xFFFFFFFFFFFFFFFFFFFFFFFFFFFFFFFFFFFFFFFF AND EQ PUSH2 0xF98 JUMPI PUSH1 0x40 MLOAD PUSH32 0x8C379A000000000000000000000000000000000000000000000000000000000 DUP2 MSTORE PUSH1 0x4 ADD PUSH2 0xF8F SWAP1 PUSH2 0x4B27 JUMP JUMPDEST PUSH1 0x40 MLOAD DUP1 SWAP2 SUB SWAP1 REVERT JUMPDEST PUSH0 PUSH2 0xFAC DUP3 PUSH0 PUSH2 0x2CA7 SWAP1 SWAP2 SWAP1 PUSH4 0xFFFFFFFF AND JUMP JUMPDEST SWAP1 POP PUSH2 0xFEA DUP2 PUSH1 0x4 PUSH1 0x6 PUSH0 SWAP1 SLOAD SWAP1 PUSH2 0x100 EXP SWAP1 DIV PUSH20 0xFFFFFFFFFFFFFFFFFFFFFFFFFFFFFFFFFFFFFFFF AND PUSH1 0x7 PUSH0 PUSH2 0x265C SWAP1 SWAP5 SWAP4 SWAP3 SWAP2 SWAP1 PUSH4 0xFFFFFFFF AND JUMP JUMPDEST POP POP JUMP JUMPDEST PUSH0 PUSH0 PUSH2 0xFF8 PUSH2 0x1FFF JUMP JUMPDEST SWAP1 POP DUP1 PUSH0 ADD PUSH0 DUP6 DUP2 MSTORE PUSH1 0x20 ADD SWAP1 DUP2 MSTORE PUSH1 0x20 ADD PUSH0 KECCAK256 PUSH0 ADD PUSH0 DUP5 PUSH20 0xFFFFFFFFFFFFFFFFFFFFFFFFFFFFFFFFFFFFFFFF AND PUSH20 0xFFFFFFFFFFFFFFFFFFFFFFFFFFFFFFFFFFFFFFFF AND DUP2 MSTORE PUSH1 0x20 ADD SWAP1 DUP2 MSTORE PUSH1 0x20 ADD PUSH0 KECCAK256 PUSH0 SWAP1 SLOAD SWAP1 PUSH2 0x100 EXP SWAP1 DIV PUSH1 0xFF AND SWAP2 POP POP SWAP3 SWAP2 POP POP JUMP JUMPDEST PUSH32 0xA49807205CE4D355092EF5A8A18F56E8913CF4A201FBE287825B095693C21775 PUSH2 0x1089 DUP2 PUSH2 0x2026 JUMP JUMPDEST DUP3 PUSH20 0xFFFFFFFFFFFFFFFFFFFFFFFFFFFFFFFFFFFFFFFF AND PUSH4 0x23B872DD ADDRESS CALLER DUP6 PUSH1 0x40 MLOAD DUP5 PUSH4 0xFFFFFFFF AND PUSH1 0xE0 SHL DUP2 MSTORE PUSH1 0x4 ADD PUSH2 0x10C6 SWAP4 SWAP3 SWAP2 SWAP1 PUSH2 0x4B45 JUMP JUMPDEST PUSH0 PUSH1 0x40 MLOAD DUP1 DUP4 SUB DUP2 PUSH0 DUP8 DUP1 EXTCODESIZE ISZERO DUP1 ISZERO PUSH2 0x10DD JUMPI PUSH0 PUSH0 REVERT JUMPDEST POP GAS CALL ISZERO DUP1 ISZERO PUSH2 0x10EF JUMPI RETURNDATASIZE PUSH0 PUSH0 RETURNDATACOPY RETURNDATASIZE PUSH0 REVERT JUMPDEST POP POP POP POP POP POP POP JUMP JUMPDEST PUSH32 0xA49807205CE4D355092EF5A8A18F56E8913CF4A201FBE287825B095693C21775 PUSH2 0x1122 DUP2 PUSH2 0x2026 JUMP JUMPDEST PUSH0 PUSH20 0xFFFFFFFFFFFFFFFFFFFFFFFFFFFFFFFFFFFFFFFF AND DUP4 PUSH20 0xFFFFFFFFFFFFFFFFFFFFFFFFFFFFFFFFFFFFFFFF AND SUB PUSH2 0x119E JUMPI CALLER PUSH20 0xFFFFFFFFFFFFFFFFFFFFFFFFFFFFFFFFFFFFFFFF AND PUSH2 0x8FC DUP4 SWAP1 DUP2 ISZERO MUL SWAP1 PUSH1 0x40 MLOAD PUSH0 PUSH1 0x40 MLOAD DUP1 DUP4 SUB DUP2 DUP6 DUP9 DUP9 CALL SWAP4 POP POP POP POP ISZERO DUP1 ISZERO PUSH2 0x1198 JUMPI RETURNDATASIZE PUSH0 PUSH0 RETURNDATACOPY RETURNDATASIZE PUSH0 REVERT JUMPDEST POP PUSH2 0x121B JUMP JUMPDEST DUP3 PUSH20 0xFFFFFFFFFFFFFFFFFFFFFFFFFFFFFFFFFFFFFFFF AND PUSH4 0xA9059CBB CALLER DUP5 PUSH1 0x40 MLOAD DUP4 PUSH4 0xFFFFFFFF AND PUSH1 0xE0 SHL DUP2 MSTORE PUSH1 0x4 ADD PUSH2 0x11D9 SWAP3 SWAP2 SWAP1 PUSH2 0x4B7A JUMP JUMPDEST PUSH1 0x20 PUSH1 0x40 MLOAD DUP1 DUP4 SUB DUP2 PUSH0 DUP8 GAS CALL ISZERO DUP1 ISZERO PUSH2 0x11F5 JUMPI RETURNDATASIZE PUSH0 PUSH0 RETURNDATACOPY RETURNDATASIZE PUSH0 REVERT JUMPDEST POP POP POP POP PUSH1 0x40 MLOAD RETURNDATASIZE PUSH1 0x1F NOT PUSH1 0x1F DUP3 ADD AND DUP3 ADD DUP1 PUSH1 0x40 MSTORE POP DUP2 ADD SWAP1 PUSH2 0x1219 SWAP2 SWAP1 PUSH2 0x4BB5 JUMP JUMPDEST POP JUMPDEST POP POP POP JUMP JUMPDEST PUSH1 0x7 PUSH1 0x20 MSTORE DUP1 PUSH0 MSTORE PUSH1 0x40 PUSH0 KECCAK256 PUSH0 SWAP2 POP SLOAD SWAP1 PUSH2 0x100 EXP SWAP1 DIV PUSH20 0xFFFFFFFFFFFFFFFFFFFFFFFFFFFFFFFFFFFFFFFF AND DUP2 JUMP JUMPDEST PUSH0 PUSH0 SHL DUP2 JUMP JUMPDEST PUSH1 0x40 MLOAD DUP1 PUSH1 0x40 ADD PUSH1 0x40 MSTORE DUP1 PUSH1 0x5 DUP2 MSTORE PUSH1 0x20 ADD PUSH32 0x352E302E30000000000000000000000000000000000000000000000000000000 DUP2 MSTORE POP DUP2 JUMP JUMPDEST PUSH2 0x1297 PUSH2 0x2F03 JUMP JUMPDEST PUSH2 0x129F PUSH2 0x2608 JUMP JUMPDEST PUSH20 0x0 PUSH4 0xA8B0E63 DUP5 DUP5 DUP5 PUSH1 0x4 PUSH1 0x6 PUSH0 SWAP1 SLOAD SWAP1 PUSH2 0x100 EXP SWAP1 DIV PUSH20 0xFFFFFFFFFFFFFFFFFFFFFFFFFFFFFFFFFFFFFFFF AND PUSH1 0x7 ADDRESS PUSH1 0x40 MLOAD DUP9 PUSH4 0xFFFFFFFF AND PUSH1 0xE0 SHL DUP2 MSTORE PUSH1 0x4 ADD PUSH2 0x1305 SWAP8 SWAP7 SWAP6 SWAP5 SWAP4 SWAP3 SWAP2 SWAP1 PUSH2 0x4BE7 JUMP JUMPDEST PUSH0 PUSH1 0x40 MLOAD DUP1 DUP4 SUB DUP2 DUP7 DUP1 EXTCODESIZE ISZERO DUP1 ISZERO PUSH2 0x131B JUMPI PUSH0 PUSH0 REVERT JUMPDEST POP GAS DELEGATECALL ISZERO DUP1 ISZERO PUSH2 0x132D JUMPI RETURNDATASIZE PUSH0 PUSH0 RETURNDATACOPY RETURNDATASIZE PUSH0 REVERT JUMPDEST POP POP POP POP PUSH2 0x1339 PUSH2 0x2C21 JUMP JUMPDEST POP POP POP JUMP JUMPDEST PUSH1 0x6 PUSH0 SWAP1 SLOAD SWAP1 PUSH2 0x100 EXP SWAP1 DIV PUSH20 0xFFFFFFFFFFFFFFFFFFFFFFFFFFFFFFFFFFFFFFFF AND DUP2 JUMP JUMPDEST PUSH2 0x136B PUSH2 0x2F03 JUMP JUMPDEST PUSH2 0x1373 PUSH2 0x2608 JUMP JUMPDEST PUSH2 0x138E DUP5 DUP5 DUP5 DUP5 ADDRESS PUSH0 PUSH2 0x2F44 SWAP1 SWAP6 SWAP5 SWAP4 SWAP3 SWAP2 SWAP1 PUSH4 0xFFFFFFFF AND JUMP JUMPDEST POP PUSH2 0x1397 PUSH2 0x2C21 JUMP JUMPDEST POP POP POP POP JUMP JUMPDEST PUSH2 0x13A5 PUSH2 0x2608 JUMP JUMPDEST PUSH0 PUSH1 0x4 PUSH0 DUP4 DUP2 MSTORE PUSH1 0x20 ADD SWAP1 DUP2 MSTORE PUSH1 0x20 ADD PUSH0 KECCAK256 SWAP1 POP DUP1 PUSH0 ADD PUSH0 SWAP1 SLOAD SWAP1 PUSH2 0x100 EXP SWAP1 DIV PUSH20 0xFFFFFFFFFFFFFFFFFFFFFFFFFFFFFFFFFFFFFFFF AND PUSH20 0xFFFFFFFFFFFFFFFFFFFFFFFFFFFFFFFFFFFFFFFF AND CALLER PUSH20 0xFFFFFFFFFFFFFFFFFFFFFFFFFFFFFFFFFFFFFFFF AND EQ DUP1 PUSH2 0x1427 JUMPI POP DUP1 PUSH1 0x3 ADD SLOAD DUP2 PUSH1 0x2 ADD SLOAD PUSH2 0x1424 SWAP2 SWAP1 PUSH2 0x4C81 JUMP JUMPDEST TIMESTAMP GT JUMPDEST DUP1 PUSH2 0x1458 JUMPI POP PUSH2 0x1457 PUSH32 0xA49807205CE4D355092EF5A8A18F56E8913CF4A201FBE287825B095693C21775 CALLER PUSH2 0xFEE JUMP JUMPDEST JUMPDEST PUSH2 0x1497 JUMPI PUSH1 0x40 MLOAD PUSH32 0x8C379A000000000000000000000000000000000000000000000000000000000 DUP2 MSTORE PUSH1 0x4 ADD PUSH2 0x148E SWAP1 PUSH2 0x4D24 JUMP JUMPDEST PUSH1 0x40 MLOAD DUP1 SWAP2 SUB SWAP1 REVERT JUMPDEST PUSH20 0x0 PUSH4 0x87781010 DUP4 PUSH1 0x4 PUSH1 0xB PUSH0 SWAP1 SLOAD SWAP1 PUSH2 0x100 EXP SWAP1 DIV PUSH20 0xFFFFFFFFFFFFFFFFFFFFFFFFFFFFFFFFFFFFFFFF AND ADDRESS PUSH1 0x40 MLOAD DUP6 PUSH4 0xFFFFFFFF AND PUSH1 0xE0 SHL DUP2 MSTORE PUSH1 0x4 ADD PUSH2 0x14F6 SWAP5 SWAP4 SWAP3 SWAP2 SWAP1 PUSH2 0x4D42 JUMP JUMPDEST PUSH0 PUSH1 0x40 MLOAD DUP1 DUP4 SUB DUP2 DUP7 DUP1 EXTCODESIZE ISZERO DUP1 ISZERO PUSH2 0x150C JUMPI PUSH0 PUSH0 REVERT JUMPDEST POP GAS DELEGATECALL ISZERO DUP1 ISZERO PUSH2 0x151E JUMPI RETURNDATASIZE PUSH0 PUSH0 RETURNDATACOPY RETURNDATASIZE PUSH0 REVERT JUMPDEST POP POP POP POP POP PUSH2 0x152B PUSH2 0x2C21 JUMP JUMPDEST POP JUMP JUMPDEST PUSH1 0x9 SLOAD DUP2 JUMP JUMPDEST PUSH0 PUSH2 0x153D PUSH2 0x3543 JUMP JUMPDEST SWAP1 POP PUSH0 DUP2 PUSH0 ADD PUSH1 0x8 SWAP1 SLOAD SWAP1 PUSH2 0x100 EXP SWAP1 DIV PUSH1 0xFF AND ISZERO SWAP1 POP PUSH0 DUP3 PUSH0 ADD PUSH0 SWAP1 SLOAD SWAP1 PUSH2 0x100 EXP SWAP1 DIV PUSH8 0xFFFFFFFFFFFFFFFF AND SWAP1 POP PUSH0 PUSH0 DUP3 PUSH8 0xFFFFFFFFFFFFFFFF AND EQ DUP1 ISZERO PUSH2 0x1585 JUMPI POP DUP3 JUMPDEST SWAP1 POP PUSH0 PUSH1 0x1 DUP4 PUSH8 0xFFFFFFFFFFFFFFFF AND EQ DUP1 ISZERO PUSH2 0x15B8 JUMPI POP PUSH0 ADDRESS PUSH20 0xFFFFFFFFFFFFFFFFFFFFFFFFFFFFFFFFFFFFFFFF AND EXTCODESIZE EQ JUMPDEST SWAP1 POP DUP2 ISZERO DUP1 ISZERO PUSH2 0x15C6 JUMPI POP DUP1 ISZERO JUMPDEST ISZERO PUSH2 0x15FD JUMPI PUSH1 0x40 MLOAD PUSH32 0xF92EE8A900000000000000000000000000000000000000000000000000000000 DUP2 MSTORE PUSH1 0x4 ADD PUSH1 0x40 MLOAD DUP1 SWAP2 SUB SWAP1 REVERT JUMPDEST PUSH1 0x1 DUP6 PUSH0 ADD PUSH0 PUSH2 0x100 EXP DUP2 SLOAD DUP2 PUSH8 0xFFFFFFFFFFFFFFFF MUL NOT AND SWAP1 DUP4 PUSH8 0xFFFFFFFFFFFFFFFF AND MUL OR SWAP1 SSTORE POP DUP4 ISZERO PUSH2 0x164A JUMPI PUSH1 0x1 DUP6 PUSH0 ADD PUSH1 0x8 PUSH2 0x100 EXP DUP2 SLOAD DUP2 PUSH1 0xFF MUL NOT AND SWAP1 DUP4 ISZERO ISZERO MUL OR SWAP1 SSTORE POP JUMPDEST PUSH2 0x1652 PUSH2 0x3556 JUMP JUMPDEST PUSH2 0x165A PUSH2 0x3560 JUMP JUMPDEST PUSH2 0x1662 PUSH2 0x356A JUMP JUMPDEST PUSH2 0x166A PUSH2 0x357C JUMP JUMPDEST PUSH2 0x1676 PUSH0 PUSH0 SHL DUP8 PUSH2 0x203A JUMP JUMPDEST POP PUSH2 0x16A1 PUSH32 0xA49807205CE4D355092EF5A8A18F56E8913CF4A201FBE287825B095693C21775 DUP8 PUSH2 0x203A JUMP JUMPDEST POP PUSH2 0x16CC PUSH32 0x189AB7A9244DF0848122154315AF71FE140F3DB0FE014031783B0946B8C9D2E3 DUP8 PUSH2 0x203A JUMP JUMPDEST POP DUP7 PUSH1 0x6 PUSH0 PUSH2 0x100 EXP DUP2 SLOAD DUP2 PUSH20 0xFFFFFFFFFFFFFFFFFFFFFFFFFFFFFFFFFFFFFFFF MUL NOT AND SWAP1 DUP4 PUSH20 0xFFFFFFFFFFFFFFFFFFFFFFFFFFFFFFFFFFFFFFFF AND MUL OR SWAP1 SSTORE POP DUP8 PUSH1 0x3 PUSH0 PUSH2 0x100 EXP DUP2 SLOAD DUP2 PUSH20 0xFFFFFFFFFFFFFFFFFFFFFFFFFFFFFFFFFFFFFFFF MUL NOT AND SWAP1 DUP4 PUSH20 0xFFFFFFFFFFFFFFFFFFFFFFFFFFFFFFFFFFFFFFFF AND MUL OR SWAP1 SSTORE POP PUSH2 0x1760 DUP9 PUSH0 PUSH2 0x3586 SWAP1 SWAP2 SWAP1 PUSH4 0xFFFFFFFF AND JUMP JUMPDEST DUP6 PUSH1 0xB PUSH0 PUSH2 0x100 EXP DUP2 SLOAD DUP2 PUSH20 0xFFFFFFFFFFFFFFFFFFFFFFFFFFFFFFFFFFFFFFFF MUL NOT AND SWAP1 DUP4 PUSH20 0xFFFFFFFFFFFFFFFFFFFFFFFFFFFFFFFFFFFFFFFF AND MUL OR SWAP1 SSTORE POP PUSH1 0xFA PUSH1 0x8 DUP2 SWAP1 SSTORE POP PUSH2 0x1F4 PUSH1 0x9 DUP2 SWAP1 SSTORE POP PUSH1 0x64 PUSH1 0xA DUP2 SWAP1 SSTORE POP DUP4 ISZERO PUSH2 0x1813 JUMPI PUSH0 DUP6 PUSH0 ADD PUSH1 0x8 PUSH2 0x100 EXP DUP2 SLOAD DUP2 PUSH1 0xFF MUL NOT AND SWAP1 DUP4 ISZERO ISZERO MUL OR SWAP1 SSTORE POP PUSH32 0xC7F505B2F371AE2175EE4913F4499E1F2633A7B5936321EED1CDAEB6115181D2 PUSH1 0x1 PUSH1 0x40 MLOAD PUSH2 0x180A SWAP2 SWAP1 PUSH2 0x4DBE JUMP JUMPDEST PUSH1 0x40 MLOAD DUP1 SWAP2 SUB SWAP1 LOG1 JUMPDEST POP POP POP POP POP POP POP POP JUMP JUMPDEST PUSH2 0x1825 PUSH2 0x2F03 JUMP JUMPDEST PUSH2 0x182D PUSH2 0x2608 JUMP JUMPDEST PUSH1 0x64 DUP6 LT ISZERO PUSH2 0x1871 JUMPI PUSH1 0x40 MLOAD PUSH32 0x8C379A000000000000000000000000000000000000000000000000000000000 DUP2 MSTORE PUSH1 0x4 ADD PUSH2 0x1868 SWAP1 PUSH2 0x4E47 JUMP JUMPDEST PUSH1 0x40 MLOAD DUP1 SWAP2 SUB SWAP1 REVERT JUMPDEST PUSH0 DUP5 GT PUSH2 0x18B3 JUMPI PUSH1 0x40 MLOAD PUSH32 0x8C379A000000000000000000000000000000000000000000000000000000000 DUP2 MSTORE PUSH1 0x4 ADD PUSH2 0x18AA SWAP1 PUSH2 0x4ED5 JUMP JUMPDEST PUSH1 0x40 MLOAD DUP1 SWAP2 SUB SWAP1 REVERT JUMPDEST PUSH0 PUSH20 0xFFFFFFFFFFFFFFFFFFFFFFFFFFFFFFFFFFFFFFFF AND DUP2 PUSH20 0xFFFFFFFFFFFFFFFFFFFFFFFFFFFFFFFFFFFFFFFF AND EQ DUP1 PUSH2 0x1975 JUMPI POP PUSH0 PUSH20 0xFFFFFFFFFFFFFFFFFFFFFFFFFFFFFFFFFFFFFFFF AND PUSH1 0x7 PUSH0 DUP4 PUSH20 0xFFFFFFFFFFFFFFFFFFFFFFFFFFFFFFFFFFFFFFFF AND PUSH20 0xFFFFFFFFFFFFFFFFFFFFFFFFFFFFFFFFFFFFFFFF AND DUP2 MSTORE PUSH1 0x20 ADD SWAP1 DUP2 MSTORE PUSH1 0x20 ADD PUSH0 KECCAK256 PUSH0 SWAP1 SLOAD SWAP1 PUSH2 0x100 EXP SWAP1 DIV PUSH20 0xFFFFFFFFFFFFFFFFFFFFFFFFFFFFFFFFFFFFFFFF AND PUSH20 0xFFFFFFFFFFFFFFFFFFFFFFFFFFFFFFFFFFFFFFFF AND EQ ISZERO JUMPDEST PUSH2 0x19B4 JUMPI PUSH1 0x40 MLOAD PUSH32 0x8C379A000000000000000000000000000000000000000000000000000000000 DUP2 MSTORE PUSH1 0x4 ADD PUSH2 0x19AB SWAP1 PUSH2 0x4F3D JUMP JUMPDEST PUSH1 0x40 MLOAD DUP1 SWAP2 SUB SWAP1 REVERT JUMPDEST PUSH0 DUP4 SWAP1 POP CALLER PUSH20 0xFFFFFFFFFFFFFFFFFFFFFFFFFFFFFFFFFFFFFFFF AND DUP2 PUSH20 0xFFFFFFFFFFFFFFFFFFFFFFFFFFFFFFFFFFFFFFFF AND PUSH4 0x6352211E DUP6 PUSH1 0x40 MLOAD DUP3 PUSH4 0xFFFFFFFF AND PUSH1 0xE0 SHL DUP2 MSTORE PUSH1 0x4 ADD PUSH2 0x1A08 SWAP2 SWAP1 PUSH2 0x3F62 JUMP JUMPDEST PUSH1 0x20 PUSH1 0x40 MLOAD DUP1 DUP4 SUB DUP2 DUP7 GAS STATICCALL ISZERO DUP1 ISZERO PUSH2 0x1A23 JUMPI RETURNDATASIZE PUSH0 PUSH0 RETURNDATACOPY RETURNDATASIZE PUSH0 REVERT JUMPDEST POP POP POP POP PUSH1 0x40 MLOAD RETURNDATASIZE PUSH1 0x1F NOT PUSH1 0x1F DUP3 ADD AND DUP3 ADD DUP1 PUSH1 0x40 MSTORE POP DUP2 ADD SWAP1 PUSH2 0x1A47 SWAP2 SWAP1 PUSH2 0x4F6F JUMP JUMPDEST PUSH20 0xFFFFFFFFFFFFFFFFFFFFFFFFFFFFFFFFFFFFFFFF AND EQ PUSH2 0x1A9D JUMPI PUSH1 0x40 MLOAD PUSH32 0x8C379A000000000000000000000000000000000000000000000000000000000 DUP2 MSTORE PUSH1 0x4 ADD PUSH2 0x1A94 SWAP1 PUSH2 0x4FE4 JUMP JUMPDEST PUSH1 0x40 MLOAD DUP1 SWAP2 SUB SWAP1 REVERT JUMPDEST DUP1 PUSH20 0xFFFFFFFFFFFFFFFFFFFFFFFFFFFFFFFFFFFFFFFF AND PUSH4 0xE985E9C5 CALLER ADDRESS PUSH1 0x40 MLOAD DUP4 PUSH4 0xFFFFFFFF AND PUSH1 0xE0 SHL DUP2 MSTORE PUSH1 0x4 ADD PUSH2 0x1AD8 SWAP3 SWAP2 SWAP1 PUSH2 0x5002 JUMP JUMPDEST PUSH1 0x20 PUSH1 0x40 MLOAD DUP1 DUP4 SUB DUP2 DUP7 GAS STATICCALL ISZERO DUP1 ISZERO PUSH2 0x1AF3 JUMPI RETURNDATASIZE PUSH0 PUSH0 RETURNDATACOPY RETURNDATASIZE PUSH0 REVERT JUMPDEST POP POP POP POP PUSH1 0x40 MLOAD RETURNDATASIZE PUSH1 0x1F NOT PUSH1 0x1F DUP3 ADD AND DUP3 ADD DUP1 PUSH1 0x40 MSTORE POP DUP2 ADD SWAP1 PUSH2 0x1B17 SWAP2 SWAP1 PUSH2 0x4BB5 JUMP JUMPDEST DUP1 PUSH2 0x1BC4 JUMPI POP ADDRESS PUSH20 0xFFFFFFFFFFFFFFFFFFFFFFFFFFFFFFFFFFFFFFFF AND DUP2 PUSH20 0xFFFFFFFFFFFFFFFFFFFFFFFFFFFFFFFFFFFFFFFF AND PUSH4 0x81812FC DUP6 PUSH1 0x40 MLOAD DUP3 PUSH4 0xFFFFFFFF AND PUSH1 0xE0 SHL DUP2 MSTORE PUSH1 0x4 ADD PUSH2 0x1B6D SWAP2 SWAP1 PUSH2 0x3F62 JUMP JUMPDEST PUSH1 0x20 PUSH1 0x40 MLOAD DUP1 DUP4 SUB DUP2 DUP7 GAS STATICCALL ISZERO DUP1 ISZERO PUSH2 0x1B88 JUMPI RETURNDATASIZE PUSH0 PUSH0 RETURNDATACOPY RETURNDATASIZE PUSH0 REVERT JUMPDEST POP POP POP POP PUSH1 0x40 MLOAD RETURNDATASIZE PUSH1 0x1F NOT PUSH1 0x1F DUP3 ADD AND DUP3 ADD DUP1 PUSH1 0x40 MSTORE POP DUP2 ADD SWAP1 PUSH2 0x1BAC SWAP2 SWAP1 PUSH2 0x4F6F JUMP JUMPDEST PUSH20 0xFFFFFFFFFFFFFFFFFFFFFFFFFFFFFFFFFFFFFFFF AND EQ JUMPDEST PUSH2 0x1C03 JUMPI PUSH1 0x40 MLOAD PUSH32 0x8C379A000000000000000000000000000000000000000000000000000000000 DUP2 MSTORE PUSH1 0x4 ADD PUSH2 0x1BFA SWAP1 PUSH2 0x5073 JUMP JUMPDEST PUSH1 0x40 MLOAD DUP1 SWAP2 SUB SWAP1 REVERT JUMPDEST DUP1 PUSH20 0xFFFFFFFFFFFFFFFFFFFFFFFFFFFFFFFFFFFFFFFF AND PUSH4 0x23B872DD CALLER ADDRESS DUP7 PUSH1 0x40 MLOAD DUP5 PUSH4 0xFFFFFFFF AND PUSH1 0xE0 SHL DUP2 MSTORE PUSH1 0x4 ADD PUSH2 0x1C40 SWAP4 SWAP3 SWAP2 SWAP1 PUSH2 0x4B45 JUMP JUMPDEST PUSH0 PUSH1 0x40 MLOAD DUP1 DUP4 SUB DUP2 PUSH0 DUP8 DUP1 EXTCODESIZE ISZERO DUP1 ISZERO PUSH2 0x1C57 JUMPI PUSH0 PUSH0 REVERT JUMPDEST POP GAS CALL ISZERO DUP1 ISZERO PUSH2 0x1C69 JUMPI RETURNDATASIZE PUSH0 PUSH0 RETURNDATACOPY RETURNDATASIZE PUSH0 REVERT JUMPDEST POP POP POP POP PUSH0 PUSH2 0x1C78 DUP7 DUP5 PUSH2 0x8E8 JUMP JUMPDEST SWAP1 POP PUSH1 0x40 MLOAD DUP1 PUSH2 0x160 ADD PUSH1 0x40 MSTORE DUP1 CALLER PUSH20 0xFFFFFFFFFFFFFFFFFFFFFFFFFFFFFFFFFFFFFFFF AND DUP2 MSTORE PUSH1 0x20 ADD DUP8 DUP2 MSTORE PUSH1 0x20 ADD TIMESTAMP DUP2 MSTORE PUSH1 0x20 ADD DUP9 DUP2 MSTORE PUSH1 0x20 ADD PUSH0 ISZERO ISZERO DUP2 MSTORE PUSH1 0x20 ADD PUSH0 DUP2 MSTORE PUSH1 0x20 ADD PUSH0 PUSH20 0xFFFFFFFFFFFFFFFFFFFFFFFFFFFFFFFFFFFFFFFF AND DUP2 MSTORE PUSH1 0x20 ADD DUP7 PUSH20 0xFFFFFFFFFFFFFFFFFFFFFFFFFFFFFFFFFFFFFFFF AND DUP2 MSTORE PUSH1 0x20 ADD DUP6 DUP2 MSTORE PUSH1 0x20 ADD DUP5 PUSH20 0xFFFFFFFFFFFFFFFFFFFFFFFFFFFFFFFFFFFFFFFF AND DUP2 MSTORE PUSH1 0x20 ADD DUP3 DUP2 MSTORE POP PUSH1 0x4 PUSH0 PUSH1 0x5 SLOAD DUP2 MSTORE PUSH1 0x20 ADD SWAP1 DUP2 MSTORE PUSH1 0x20 ADD PUSH0 KECCAK256 PUSH0 DUP3 ADD MLOAD DUP2 PUSH0 ADD PUSH0 PUSH2 0x100 EXP DUP2 SLOAD DUP2 PUSH20 0xFFFFFFFFFFFFFFFFFFFFFFFFFFFFFFFFFFFFFFFF MUL NOT AND SWAP1 DUP4 PUSH20 0xFFFFFFFFFFFFFFFFFFFFFFFFFFFFFFFFFFFFFFFF AND MUL OR SWAP1 SSTORE POP PUSH1 0x20 DUP3 ADD MLOAD DUP2 PUSH1 0x1 ADD SSTORE PUSH1 0x40 DUP3 ADD MLOAD DUP2 PUSH1 0x2 ADD SSTORE PUSH1 0x60 DUP3 ADD MLOAD DUP2 PUSH1 0x3 ADD SSTORE PUSH1 0x80 DUP3 ADD MLOAD DUP2 PUSH1 0x4 ADD PUSH0 PUSH2 0x100 EXP DUP2 SLOAD DUP2 PUSH1 0xFF MUL NOT AND SWAP1 DUP4 ISZERO ISZERO MUL OR SWAP1 SSTORE POP PUSH1 0xA0 DUP3 ADD MLOAD DUP2 PUSH1 0x5 ADD SSTORE PUSH1 0xC0 DUP3 ADD MLOAD DUP2 PUSH1 0x6 ADD PUSH0 PUSH2 0x100 EXP DUP2 SLOAD DUP2 PUSH20 0xFFFFFFFFFFFFFFFFFFFFFFFFFFFFFFFFFFFFFFFF MUL NOT AND SWAP1 DUP4 PUSH20 0xFFFFFFFFFFFFFFFFFFFFFFFFFFFFFFFFFFFFFFFF AND MUL OR SWAP1 SSTORE POP PUSH1 0xE0 DUP3 ADD MLOAD DUP2 PUSH1 0x7 ADD PUSH0 PUSH2 0x100 EXP DUP2 SLOAD DUP2 PUSH20 0xFFFFFFFFFFFFFFFFFFFFFFFFFFFFFFFFFFFFFFFF MUL NOT AND SWAP1 DUP4 PUSH20 0xFFFFFFFFFFFFFFFFFFFFFFFFFFFFFFFFFFFFFFFF AND MUL OR SWAP1 SSTORE POP PUSH2 0x100 DUP3 ADD MLOAD DUP2 PUSH1 0x8 ADD SSTORE PUSH2 0x120 DUP3 ADD MLOAD DUP2 PUSH1 0x9 ADD PUSH0 PUSH2 0x100 EXP DUP2 SLOAD DUP2 PUSH20 0xFFFFFFFFFFFFFFFFFFFFFFFFFFFFFFFFFFFFFFFF MUL NOT AND SWAP1 DUP4 PUSH20 0xFFFFFFFFFFFFFFFFFFFFFFFFFFFFFFFFFFFFFFFF AND MUL OR SWAP1 SSTORE POP PUSH2 0x140 DUP3 ADD MLOAD DUP2 PUSH1 0xA ADD SSTORE SWAP1 POP POP CALLER PUSH20 0xFFFFFFFFFFFFFFFFFFFFFFFFFFFFFFFFFFFFFFFF AND PUSH1 0x5 SLOAD PUSH32 0x8777BED2A899BA8843DE663A1F6ED1C48D071CC8BDE08E2488B59C00C1993F76 DUP8 DUP8 PUSH1 0x40 MLOAD PUSH2 0x1EF5 SWAP3 SWAP2 SWAP1 PUSH2 0x4B7A JUMP JUMPDEST PUSH1 0x40 MLOAD DUP1 SWAP2 SUB SWAP1 LOG3 PUSH1 0x5 PUSH0 DUP2 SLOAD DUP1 SWAP3 SWAP2 SWAP1 PUSH2 0x1F0F SWAP1 PUSH2 0x5091 JUMP JUMPDEST SWAP2 SWAP1 POP SSTORE POP POP POP PUSH2 0x1F1E PUSH2 0x2C21 JUMP JUMPDEST POP POP POP POP POP JUMP JUMPDEST PUSH1 0xB PUSH0 SWAP1 SLOAD SWAP1 PUSH2 0x100 EXP SWAP1 DIV PUSH20 0xFFFFFFFFFFFFFFFFFFFFFFFFFFFFFFFFFFFFFFFF AND DUP2 JUMP JUMPDEST PUSH2 0x1F53 DUP3 PUSH2 0x99B JUMP JUMPDEST PUSH2 0x1F5C DUP2 PUSH2 0x2026 JUMP JUMPDEST PUSH2 0x1F66 DUP4 DUP4 PUSH2 0x217F JUMP JUMPDEST POP POP POP POP JUMP JUMPDEST PUSH32 0x189AB7A9244DF0848122154315AF71FE140F3DB0FE014031783B0946B8C9D2E3 DUP2 JUMP JUMPDEST PUSH1 0x5 SLOAD DUP2 JUMP JUMPDEST PUSH0 PUSH32 0x1FFC9A700000000000000000000000000000000000000000000000000000000 PUSH28 0xFFFFFFFFFFFFFFFFFFFFFFFFFFFFFFFFFFFFFFFFFFFFFFFFFFFFFFFF NOT AND DUP3 PUSH28 0xFFFFFFFFFFFFFFFFFFFFFFFFFFFFFFFFFFFFFFFFFFFFFFFFFFFFFFFF NOT AND EQ SWAP1 POP SWAP2 SWAP1 POP JUMP JUMPDEST PUSH0 PUSH32 0x2DD7BC7DEC4DCEEDDA775E58DD541E08A116C6C53815C0BD028192F7B626800 SWAP1 POP SWAP1 JUMP JUMPDEST PUSH2 0x2037 DUP2 PUSH2 0x2032 PUSH2 0x2178 JUMP JUMPDEST PUSH2 0x36A5 JUMP JUMPDEST POP JUMP JUMPDEST PUSH0 PUSH0 PUSH2 0x2044 PUSH2 0x1FFF JUMP JUMPDEST SWAP1 POP PUSH2 0x2050 DUP5 DUP5 PUSH2 0xFEE JUMP JUMPDEST PUSH2 0x2127 JUMPI PUSH1 0x1 DUP2 PUSH0 ADD PUSH0 DUP7 DUP2 MSTORE PUSH1 0x20 ADD SWAP1 DUP2 MSTORE PUSH1 0x20 ADD PUSH0 KECCAK256 PUSH0 ADD PUSH0 DUP6 PUSH20 0xFFFFFFFFFFFFFFFFFFFFFFFFFFFFFFFFFFFFFFFF AND PUSH20 0xFFFFFFFFFFFFFFFFFFFFFFFFFFFFFFFFFFFFFFFF AND DUP2 MSTORE PUSH1 0x20 ADD SWAP1 DUP2 MSTORE PUSH1 0x20 ADD PUSH0 KECCAK256 PUSH0 PUSH2 0x100 EXP DUP2 SLOAD DUP2 PUSH1 0xFF MUL NOT AND SWAP1 DUP4 ISZERO ISZERO MUL OR SWAP1 SSTORE POP PUSH2 0x20C3 PUSH2 0x2178 JUMP JUMPDEST PUSH20 0xFFFFFFFFFFFFFFFFFFFFFFFFFFFFFFFFFFFFFFFF AND DUP4 PUSH20 0xFFFFFFFFFFFFFFFFFFFFFFFFFFFFFFFFFFFFFFFF AND DUP6 PUSH32 0x2F8788117E7EFF1D82E926EC794901D17C78024A50270940304540A733656F0D PUSH1 0x40 MLOAD PUSH1 0x40 MLOAD DUP1 SWAP2 SUB SWAP1 LOG4 PUSH1 0x1 SWAP2 POP POP PUSH2 0x212C JUMP JUMPDEST PUSH0 SWAP2 POP POP JUMPDEST SWAP3 SWAP2 POP POP JUMP JUMPDEST DUP1 DUP3 PUSH1 0x2 ADD PUSH0 PUSH2 0x100 EXP DUP2 SLOAD DUP2 PUSH20 0xFFFFFFFFFFFFFFFFFFFFFFFFFFFFFFFFFFFFFFFF MUL NOT AND SWAP1 DUP4 PUSH20 0xFFFFFFFFFFFFFFFFFFFFFFFFFFFFFFFFFFFFFFFF AND MUL OR SWAP1 SSTORE POP POP POP JUMP JUMPDEST PUSH0 CALLER SWAP1 POP SWAP1 JUMP JUMPDEST PUSH0 PUSH0 PUSH2 0x2189 PUSH2 0x1FFF JUMP JUMPDEST SWAP1 POP PUSH2 0x2195 DUP5 DUP5 PUSH2 0xFEE JUMP JUMPDEST ISZERO PUSH2 0x226C JUMPI PUSH0 DUP2 PUSH0 ADD PUSH0 DUP7 DUP2 MSTORE PUSH1 0x20 ADD SWAP1 DUP2 MSTORE PUSH1 0x20 ADD PUSH0 KECCAK256 PUSH0 ADD PUSH0 DUP6 PUSH20 0xFFFFFFFFFFFFFFFFFFFFFFFFFFFFFFFFFFFFFFFF AND PUSH20 0xFFFFFFFFFFFFFFFFFFFFFFFFFFFFFFFFFFFFFFFF AND DUP2 MSTORE PUSH1 0x20 ADD SWAP1 DUP2 MSTORE PUSH1 0x20 ADD PUSH0 KECCAK256 PUSH0 PUSH2 0x100 EXP DUP2 SLOAD DUP2 PUSH1 0xFF MUL NOT AND SWAP1 DUP4 ISZERO ISZERO MUL OR SWAP1 SSTORE POP PUSH2 0x2208 PUSH2 0x2178 JUMP JUMPDEST PUSH20 0xFFFFFFFFFFFFFFFFFFFFFFFFFFFFFFFFFFFFFFFF AND DUP4 PUSH20 0xFFFFFFFFFFFFFFFFFFFFFFFFFFFFFFFFFFFFFFFF AND DUP6 PUSH32 0xF6391F5C32D9C69D2A47EA670B442974B53935D1EDC7FD64EB21E047A839171B PUSH1 0x40 MLOAD PUSH1 0x40 MLOAD DUP1 SWAP2 SUB SWAP1 LOG4 PUSH1 0x1 SWAP2 POP POP PUSH2 0x2271 JUMP JUMPDEST PUSH0 SWAP2 POP POP JUMPDEST SWAP3 SWAP2 POP POP JUMP JUMPDEST PUSH2 0x227F PUSH2 0x36F6 JUMP JUMPDEST PUSH0 PUSH2 0x2288 PUSH2 0x259E JUMP JUMPDEST SWAP1 POP PUSH0 DUP2 PUSH0 ADD PUSH0 PUSH2 0x100 EXP DUP2 SLOAD DUP2 PUSH1 0xFF MUL NOT AND SWAP1 DUP4 ISZERO ISZERO MUL OR SWAP1 SSTORE POP PUSH32 0x5DB9EE0A495BF2E6FF9C91A7834C1BA4FDD244A5E8AA4E537BD38AEAE4B073AA PUSH2 0x22CD PUSH2 0x2178 JUMP JUMPDEST PUSH1 0x40 MLOAD PUSH2 0x22DA SWAP2 SWAP1 PUSH2 0x442A JUMP JUMPDEST PUSH1 0x40 MLOAD DUP1 SWAP2 SUB SWAP1 LOG1 POP JUMP JUMPDEST PUSH32 0x0 PUSH20 0xFFFFFFFFFFFFFFFFFFFFFFFFFFFFFFFFFFFFFFFF AND ADDRESS PUSH20 0xFFFFFFFFFFFFFFFFFFFFFFFFFFFFFFFFFFFFFFFF AND EQ DUP1 PUSH2 0x2392 JUMPI POP PUSH32 0x0 PUSH20 0xFFFFFFFFFFFFFFFFFFFFFFFFFFFFFFFFFFFFFFFF AND PUSH2 0x2379 PUSH2 0x3736 JUMP JUMPDEST PUSH20 0xFFFFFFFFFFFFFFFFFFFFFFFFFFFFFFFFFFFFFFFF AND EQ ISZERO JUMPDEST ISZERO PUSH2 0x23C9 JUMPI PUSH1 0x40 MLOAD PUSH32 0xE07C8DBA00000000000000000000000000000000000000000000000000000000 DUP2 MSTORE PUSH1 0x4 ADD PUSH1 0x40 MLOAD DUP1 SWAP2 SUB SWAP1 REVERT JUMPDEST JUMP JUMPDEST PUSH32 0x189AB7A9244DF0848122154315AF71FE140F3DB0FE014031783B0946B8C9D2E3 PUSH2 0x23F5 DUP2 PUSH2 0x2026 JUMP JUMPDEST POP POP JUMP JUMPDEST DUP2 PUSH20 0xFFFFFFFFFFFFFFFFFFFFFFFFFFFFFFFFFFFFFFFF AND PUSH4 0x52D1902D PUSH1 0x40 MLOAD DUP2 PUSH4 0xFFFFFFFF AND PUSH1 0xE0 SHL DUP2 MSTORE PUSH1 0x4 ADD PUSH1 0x20 PUSH1 0x40 MLOAD DUP1 DUP4 SUB DUP2 DUP7 GAS STATICCALL SWAP3 POP POP POP DUP1 ISZERO PUSH2 0x2461 JUMPI POP PUSH1 0x40 MLOAD RETURNDATASIZE PUSH1 0x1F NOT PUSH1 0x1F DUP3 ADD AND DUP3 ADD DUP1 PUSH1 0x40 MSTORE POP DUP2 ADD SWAP1 PUSH2 0x245E SWAP2 SWAP1 PUSH2 0x50EC JUMP JUMPDEST PUSH1 0x1 JUMPDEST PUSH2 0x24A2 JUMPI DUP2 PUSH1 0x40 MLOAD PUSH32 0x4C9C8CE300000000000000000000000000000000000000000000000000000000 DUP2 MSTORE PUSH1 0x4 ADD PUSH2 0x2499 SWAP2 SWAP1 PUSH2 0x442A JUMP JUMPDEST PUSH1 0x40 MLOAD DUP1 SWAP2 SUB SWAP1 REVERT JUMPDEST PUSH32 0x360894A13BA1A3210667C828492DB98DCA3E2076CC3735A920A3CA505D382BBC PUSH0 SHL DUP2 EQ PUSH2 0x2508 JUMPI DUP1 PUSH1 0x40 MLOAD PUSH32 0xAA1D49A400000000000000000000000000000000000000000000000000000000 DUP2 MSTORE PUSH1 0x4 ADD PUSH2 0x24FF SWAP2 SWAP1 PUSH2 0x3FE8 JUMP JUMPDEST PUSH1 0x40 MLOAD DUP1 SWAP2 SUB SWAP1 REVERT JUMPDEST PUSH2 0x2512 DUP4 DUP4 PUSH2 0x3789 JUMP JUMPDEST POP POP POP JUMP JUMPDEST PUSH32 0x0 PUSH20 0xFFFFFFFFFFFFFFFFFFFFFFFFFFFFFFFFFFFFFFFF AND ADDRESS PUSH20 0xFFFFFFFFFFFFFFFFFFFFFFFFFFFFFFFFFFFFFFFF AND EQ PUSH2 0x259C JUMPI PUSH1 0x40 MLOAD PUSH32 0xE07C8DBA00000000000000000000000000000000000000000000000000000000 DUP2 MSTORE PUSH1 0x4 ADD PUSH1 0x40 MLOAD DUP1 SWAP2 SUB SWAP1 REVERT JUMPDEST JUMP JUMPDEST PUSH0 PUSH32 0xCD5ED15C6E187E77E9AEE88184C21F4F2182AB5827CB3B7E07FBEDCD63F03300 SWAP1 POP SWAP1 JUMP JUMPDEST DUP1 DUP4 PUSH1 0x1 ADD PUSH0 DUP5 PUSH8 0xFFFFFFFFFFFFFFFF AND PUSH8 0xFFFFFFFFFFFFFFFF AND DUP2 MSTORE PUSH1 0x20 ADD SWAP1 DUP2 MSTORE PUSH1 0x20 ADD PUSH0 KECCAK256 PUSH0 PUSH2 0x100 EXP DUP2 SLOAD DUP2 PUSH1 0xFF MUL NOT AND SWAP1 DUP4 ISZERO ISZERO MUL OR SWAP1 SSTORE POP POP POP POP JUMP JUMPDEST PUSH0 PUSH2 0x2611 PUSH2 0x37FB JUMP JUMPDEST SWAP1 POP PUSH1 0x2 DUP2 PUSH0 ADD SLOAD SUB PUSH2 0x2650 JUMPI PUSH1 0x40 MLOAD PUSH32 0x3EE5AEB500000000000000000000000000000000000000000000000000000000 DUP2 MSTORE PUSH1 0x4 ADD PUSH1 0x40 MLOAD DUP1 SWAP2 SUB SWAP1 REVERT JUMPDEST PUSH1 0x2 DUP2 PUSH0 ADD DUP2 SWAP1 SSTORE POP POP JUMP JUMPDEST PUSH0 DUP6 PUSH0 ADD PUSH0 DUP7 DUP2 MSTORE PUSH1 0x20 ADD SWAP1 DUP2 MSTORE PUSH1 0x20 ADD PUSH0 KECCAK256 PUSH1 0x40 MLOAD DUP1 PUSH1 0xC0 ADD PUSH1 0x40 MSTORE SWAP1 DUP2 PUSH0 DUP3 ADD PUSH0 SWAP1 SLOAD SWAP1 PUSH2 0x100 EXP SWAP1 DIV PUSH8 0xFFFFFFFFFFFFFFFF AND PUSH8 0xFFFFFFFFFFFFFFFF AND PUSH8 0xFFFFFFFFFFFFFFFF AND DUP2 MSTORE PUSH1 0x20 ADD PUSH0 DUP3 ADD PUSH1 0x8 SWAP1 SLOAD SWAP1 PUSH2 0x100 EXP SWAP1 DIV PUSH20 0xFFFFFFFFFFFFFFFFFFFFFFFFFFFFFFFFFFFFFFFF AND PUSH20 0xFFFFFFFFFFFFFFFFFFFFFFFFFFFFFFFFFFFFFFFF AND PUSH20 0xFFFFFFFFFFFFFFFFFFFFFFFFFFFFFFFFFFFFFFFF AND DUP2 MSTORE PUSH1 0x20 ADD PUSH1 0x1 DUP3 ADD SLOAD DUP2 MSTORE PUSH1 0x20 ADD PUSH1 0x2 DUP3 ADD SLOAD DUP2 MSTORE PUSH1 0x20 ADD PUSH1 0x3 DUP3 ADD PUSH0 SWAP1 SLOAD SWAP1 PUSH2 0x100 EXP SWAP1 DIV PUSH20 0xFFFFFFFFFFFFFFFFFFFFFFFFFFFFFFFFFFFFFFFF AND PUSH20 0xFFFFFFFFFFFFFFFFFFFFFFFFFFFFFFFFFFFFFFFF AND PUSH20 0xFFFFFFFFFFFFFFFFFFFFFFFFFFFFFFFFFFFFFFFF AND DUP2 MSTORE PUSH1 0x20 ADD PUSH1 0x3 DUP3 ADD PUSH1 0x14 SWAP1 SLOAD SWAP1 PUSH2 0x100 EXP SWAP1 DIV PUSH1 0xFF AND ISZERO ISZERO ISZERO ISZERO DUP2 MSTORE POP POP SWAP1 POP DUP1 PUSH1 0xA0 ADD MLOAD ISZERO PUSH2 0x27CA JUMPI PUSH1 0x40 MLOAD PUSH32 0x8C379A000000000000000000000000000000000000000000000000000000000 DUP2 MSTORE PUSH1 0x4 ADD PUSH2 0x27C1 SWAP1 PUSH2 0x5161 JUMP JUMPDEST PUSH1 0x40 MLOAD DUP1 SWAP2 SUB SWAP1 REVERT JUMPDEST PUSH0 DUP5 PUSH0 DUP4 PUSH1 0x60 ADD MLOAD DUP2 MSTORE PUSH1 0x20 ADD SWAP1 DUP2 MSTORE PUSH1 0x20 ADD PUSH0 KECCAK256 SWAP1 POP DUP1 PUSH1 0x4 ADD PUSH0 SWAP1 SLOAD SWAP1 PUSH2 0x100 EXP SWAP1 DIV PUSH1 0xFF AND DUP1 PUSH2 0x280F JUMPI POP DUP1 PUSH1 0x3 ADD SLOAD DUP2 PUSH1 0x2 ADD SLOAD PUSH2 0x280C SWAP2 SWAP1 PUSH2 0x4C81 JUMP JUMPDEST TIMESTAMP GT JUMPDEST ISZERO PUSH2 0x2849 JUMPI PUSH1 0x1 DUP8 PUSH0 ADD PUSH0 DUP9 DUP2 MSTORE PUSH1 0x20 ADD SWAP1 DUP2 MSTORE PUSH1 0x20 ADD PUSH0 KECCAK256 PUSH1 0x3 ADD PUSH1 0x14 PUSH2 0x100 EXP DUP2 SLOAD DUP2 PUSH1 0xFF MUL NOT AND SWAP1 DUP4 ISZERO ISZERO MUL OR SWAP1 SSTORE POP POP POP PUSH2 0x2C1A JUMP JUMPDEST PUSH0 PUSH2 0x285E DUP4 PUSH1 0x40 ADD MLOAD DUP5 PUSH1 0x80 ADD MLOAD DUP8 DUP8 PUSH2 0x3822 JUMP JUMPDEST SWAP1 POP PUSH0 PUSH2 0x2894 DUP4 PUSH1 0x1 ADD SLOAD DUP5 PUSH1 0x9 ADD PUSH0 SWAP1 SLOAD SWAP1 PUSH2 0x100 EXP SWAP1 DIV PUSH20 0xFFFFFFFFFFFFFFFFFFFFFFFFFFFFFFFFFFFFFFFF AND DUP9 DUP9 PUSH2 0x3822 JUMP JUMPDEST SWAP1 POP PUSH0 PUSH2 0x28CA DUP5 PUSH1 0x5 ADD SLOAD DUP6 PUSH1 0x9 ADD PUSH0 SWAP1 SLOAD SWAP1 PUSH2 0x100 EXP SWAP1 DIV PUSH20 0xFFFFFFFFFFFFFFFFFFFFFFFFFFFFFFFFFFFFFFFF AND DUP10 DUP10 PUSH2 0x3822 JUMP JUMPDEST SWAP1 POP DUP2 DUP4 LT ISZERO DUP1 ISZERO PUSH2 0x28DB JUMPI POP DUP1 DUP4 GT JUMPDEST ISZERO PUSH2 0x2BAA JUMPI PUSH0 PUSH20 0xFFFFFFFFFFFFFFFFFFFFFFFFFFFFFFFFFFFFFFFF AND DUP5 PUSH1 0x6 ADD PUSH0 SWAP1 SLOAD SWAP1 PUSH2 0x100 EXP SWAP1 DIV PUSH20 0xFFFFFFFFFFFFFFFFFFFFFFFFFFFFFFFFFFFFFFFF AND PUSH20 0xFFFFFFFFFFFFFFFFFFFFFFFFFFFFFFFFFFFFFFFF AND EQ PUSH2 0x2AC4 JUMPI PUSH0 PUSH20 0xFFFFFFFFFFFFFFFFFFFFFFFFFFFFFFFFFFFFFFFF AND DUP5 PUSH1 0x9 ADD PUSH0 SWAP1 SLOAD SWAP1 PUSH2 0x100 EXP SWAP1 DIV PUSH20 0xFFFFFFFFFFFFFFFFFFFFFFFFFFFFFFFFFFFFFFFF AND PUSH20 0xFFFFFFFFFFFFFFFFFFFFFFFFFFFFFFFFFFFFFFFF AND SUB PUSH2 0x29FC JUMPI DUP4 PUSH1 0x6 ADD PUSH0 SWAP1 SLOAD SWAP1 PUSH2 0x100 EXP SWAP1 DIV PUSH20 0xFFFFFFFFFFFFFFFFFFFFFFFFFFFFFFFFFFFFFFFF AND PUSH20 0xFFFFFFFFFFFFFFFFFFFFFFFFFFFFFFFFFFFFFFFF AND PUSH2 0x8FC DUP6 PUSH1 0x5 ADD SLOAD SWAP1 DUP2 ISZERO MUL SWAP1 PUSH1 0x40 MLOAD PUSH0 PUSH1 0x40 MLOAD DUP1 DUP4 SUB DUP2 DUP6 DUP9 DUP9 CALL SWAP4 POP POP POP POP ISZERO DUP1 ISZERO PUSH2 0x29F6 JUMPI RETURNDATASIZE PUSH0 PUSH0 RETURNDATACOPY RETURNDATASIZE PUSH0 REVERT JUMPDEST POP PUSH2 0x2AC3 JUMP JUMPDEST DUP4 PUSH1 0x9 ADD PUSH0 SWAP1 SLOAD SWAP1 PUSH2 0x100 EXP SWAP1 DIV PUSH20 0xFFFFFFFFFFFFFFFFFFFFFFFFFFFFFFFFFFFFFFFF AND PUSH20 0xFFFFFFFFFFFFFFFFFFFFFFFFFFFFFFFFFFFFFFFF AND PUSH4 0xA9059CBB DUP6 PUSH1 0x6 ADD PUSH0 SWAP1 SLOAD SWAP1 PUSH2 0x100 EXP SWAP1 DIV PUSH20 0xFFFFFFFFFFFFFFFFFFFFFFFFFFFFFFFFFFFFFFFF AND DUP7 PUSH1 0x5 ADD SLOAD PUSH1 0x40 MLOAD DUP4 PUSH4 0xFFFFFFFF AND PUSH1 0xE0 SHL DUP2 MSTORE PUSH1 0x4 ADD PUSH2 0x2A81 SWAP3 SWAP2 SWAP1 PUSH2 0x4B7A JUMP JUMPDEST PUSH1 0x20 PUSH1 0x40 MLOAD DUP1 DUP4 SUB DUP2 PUSH0 DUP8 GAS CALL ISZERO DUP1 ISZERO PUSH2 0x2A9D JUMPI RETURNDATASIZE PUSH0 PUSH0 RETURNDATACOPY RETURNDATASIZE PUSH0 REVERT JUMPDEST POP POP POP POP PUSH1 0x40 MLOAD RETURNDATASIZE PUSH1 0x1F NOT PUSH1 0x1F DUP3 ADD AND DUP3 ADD DUP1 PUSH1 0x40 MSTORE POP DUP2 ADD SWAP1 PUSH2 0x2AC1 SWAP2 SWAP1 PUSH2 0x4BB5 JUMP JUMPDEST POP JUMPDEST JUMPDEST DUP5 PUSH1 0x20 ADD MLOAD DUP5 PUSH1 0x6 ADD PUSH0 PUSH2 0x100 EXP DUP2 SLOAD DUP2 PUSH20 0xFFFFFFFFFFFFFFFFFFFFFFFFFFFFFFFFFFFFFFFF MUL NOT AND SWAP1 DUP4 PUSH20 0xFFFFFFFFFFFFFFFFFFFFFFFFFFFFFFFFFFFFFFFF AND MUL OR SWAP1 SSTORE POP DUP5 PUSH1 0x40 ADD MLOAD DUP5 PUSH1 0x5 ADD DUP2 SWAP1 SSTORE POP DUP5 PUSH1 0x80 ADD MLOAD DUP5 PUSH1 0x9 ADD PUSH0 PUSH2 0x100 EXP DUP2 SLOAD DUP2 PUSH20 0xFFFFFFFFFFFFFFFFFFFFFFFFFFFFFFFFFFFFFFFF MUL NOT AND SWAP1 DUP4 PUSH20 0xFFFFFFFFFFFFFFFFFFFFFFFFFFFFFFFFFFFFFFFF AND MUL OR SWAP1 SSTORE POP DUP5 PUSH1 0x60 ADD MLOAD PUSH32 0xE30ABCCEBB20A387BE8E75E927D7E06CE1BF9D77BB3888516663BDC8995FB334 DUP7 PUSH1 0x20 ADD MLOAD DUP8 PUSH1 0x40 ADD MLOAD DUP9 PUSH1 0x80 ADD MLOAD PUSH1 0x40 MLOAD PUSH2 0x2BA1 SWAP4 SWAP3 SWAP2 SWAP1 PUSH2 0x517F JUMP JUMPDEST PUSH1 0x40 MLOAD DUP1 SWAP2 SUB SWAP1 LOG2 JUMPDEST PUSH1 0x1 DUP11 PUSH0 ADD PUSH0 DUP12 DUP2 MSTORE PUSH1 0x20 ADD SWAP1 DUP2 MSTORE PUSH1 0x20 ADD PUSH0 KECCAK256 PUSH1 0x3 ADD PUSH1 0x14 PUSH2 0x100 EXP DUP2 SLOAD DUP2 PUSH1 0xFF MUL NOT AND SWAP1 DUP4 ISZERO ISZERO MUL OR SWAP1 SSTORE POP DUP9 PUSH32 0x656160706F8FFE27FDABA0DC89B407422A6E20D7EBC44B45557939303B8ACD18 DUP7 PUSH1 0x60 ADD MLOAD PUSH1 0x40 MLOAD PUSH2 0x2C0C SWAP2 SWAP1 PUSH2 0x3F62 JUMP JUMPDEST PUSH1 0x40 MLOAD DUP1 SWAP2 SUB SWAP1 LOG2 POP POP POP POP POP JUMPDEST POP POP POP POP POP JUMP JUMPDEST PUSH0 PUSH2 0x2C2A PUSH2 0x37FB JUMP JUMPDEST SWAP1 POP PUSH1 0x1 DUP2 PUSH0 ADD DUP2 SWAP1 SSTORE POP POP JUMP JUMPDEST PUSH2 0x2C40 PUSH2 0x2F03 JUMP JUMPDEST PUSH0 PUSH2 0x2C49 PUSH2 0x259E JUMP JUMPDEST SWAP1 POP PUSH1 0x1 DUP2 PUSH0 ADD PUSH0 PUSH2 0x100 EXP DUP2 SLOAD DUP2 PUSH1 0xFF MUL NOT AND SWAP1 DUP4 ISZERO ISZERO MUL OR SWAP1 SSTORE POP PUSH32 0x62E78CEA01BEE320CD4E420270B5EA74000D11B0C9F74754EBDBFC544B05A258 PUSH2 0x2C8F PUSH2 0x2178 JUMP JUMPDEST PUSH1 0x40 MLOAD PUSH2 0x2C9C SWAP2 SWAP1 PUSH2 0x442A JUMP JUMPDEST PUSH1 0x40 MLOAD DUP1 SWAP2 SUB SWAP1 LOG1 POP JUMP JUMPDEST PUSH0 DUP3 PUSH1 0x1 ADD PUSH0 DUP4 PUSH1 0x20 ADD MLOAD PUSH8 0xFFFFFFFFFFFFFFFF AND PUSH8 0xFFFFFFFFFFFFFFFF AND DUP2 MSTORE PUSH1 0x20 ADD SWAP1 DUP2 MSTORE PUSH1 0x20 ADD PUSH0 KECCAK256 PUSH0 SWAP1 SLOAD SWAP1 PUSH2 0x100 EXP SWAP1 DIV PUSH1 0xFF AND PUSH2 0x2D1F JUMPI PUSH1 0x40 MLOAD PUSH32 0x8C379A000000000000000000000000000000000000000000000000000000000 DUP2 MSTORE PUSH1 0x4 ADD PUSH2 0x2D16 SWAP1 PUSH2 0x51FE JUMP JUMPDEST PUSH1 0x40 MLOAD DUP1 SWAP2 SUB SWAP1 REVERT JUMPDEST PUSH0 PUSH0 PUSH0 PUSH0 DUP6 PUSH1 0x60 ADD MLOAD DUP1 PUSH1 0x20 ADD SWAP1 MLOAD DUP2 ADD SWAP1 PUSH2 0x2D3B SWAP2 SWAP1 PUSH2 0x5257 JUMP JUMPDEST SWAP4 POP SWAP4 POP SWAP4 POP SWAP4 POP PUSH1 0x40 MLOAD DUP1 PUSH1 0xC0 ADD PUSH1 0x40 MSTORE DUP1 DUP8 PUSH1 0x20 ADD MLOAD PUSH8 0xFFFFFFFFFFFFFFFF AND DUP2 MSTORE PUSH1 0x20 ADD DUP6 PUSH20 0xFFFFFFFFFFFFFFFFFFFFFFFFFFFFFFFFFFFFFFFF AND DUP2 MSTORE PUSH1 0x20 ADD DUP4 DUP2 MSTORE PUSH1 0x20 ADD DUP5 DUP2 MSTORE PUSH1 0x20 ADD DUP3 PUSH20 0xFFFFFFFFFFFFFFFFFFFFFFFFFFFFFFFFFFFFFFFF AND DUP2 MSTORE PUSH1 0x20 ADD PUSH0 ISZERO ISZERO DUP2 MSTORE POP DUP8 PUSH0 ADD PUSH0 DUP9 PUSH0 ADD MLOAD DUP2 MSTORE PUSH1 0x20 ADD SWAP1 DUP2 MSTORE PUSH1 0x20 ADD PUSH0 KECCAK256 PUSH0 DUP3 ADD MLOAD DUP2 PUSH0 ADD PUSH0 PUSH2 0x100 EXP DUP2 SLOAD DUP2 PUSH8 0xFFFFFFFFFFFFFFFF MUL NOT AND SWAP1 DUP4 PUSH8 0xFFFFFFFFFFFFFFFF AND MUL OR SWAP1 SSTORE POP PUSH1 0x20 DUP3 ADD MLOAD DUP2 PUSH0 ADD PUSH1 0x8 PUSH2 0x100 EXP DUP2 SLOAD DUP2 PUSH20 0xFFFFFFFFFFFFFFFFFFFFFFFFFFFFFFFFFFFFFFFF MUL NOT AND SWAP1 DUP4 PUSH20 0xFFFFFFFFFFFFFFFFFFFFFFFFFFFFFFFFFFFFFFFF AND MUL OR SWAP1 SSTORE POP PUSH1 0x40 DUP3 ADD MLOAD DUP2 PUSH1 0x1 ADD SSTORE PUSH1 0x60 DUP3 ADD MLOAD DUP2 PUSH1 0x2 ADD SSTORE PUSH1 0x80 DUP3 ADD MLOAD DUP2 PUSH1 0x3 ADD PUSH0 PUSH2 0x100 EXP DUP2 SLOAD DUP2 PUSH20 0xFFFFFFFFFFFFFFFFFFFFFFFFFFFFFFFFFFFFFFFF MUL NOT AND SWAP1 DUP4 PUSH20 0xFFFFFFFFFFFFFFFFFFFFFFFFFFFFFFFFFFFFFFFF AND MUL OR SWAP1 SSTORE POP PUSH1 0xA0 DUP3 ADD MLOAD DUP2 PUSH1 0x3 ADD PUSH1 0x14 PUSH2 0x100 EXP DUP2 SLOAD DUP2 PUSH1 0xFF MUL NOT AND SWAP1 DUP4 ISZERO ISZERO MUL OR SWAP1 SSTORE POP SWAP1 POP POP DUP6 PUSH0 ADD MLOAD PUSH32 0x55A2834B0D140BE6A504C40CD99B41DFE578E2A1A0E57E1D34B62183E35196CB DUP8 PUSH1 0x20 ADD MLOAD DUP7 DUP6 PUSH1 0x40 MLOAD PUSH2 0x2EEB SWAP4 SWAP3 SWAP2 SWAP1 PUSH2 0x52CA JUMP JUMPDEST PUSH1 0x40 MLOAD DUP1 SWAP2 SUB SWAP1 LOG2 DUP6 PUSH0 ADD MLOAD SWAP5 POP POP POP POP POP SWAP3 SWAP2 POP POP JUMP JUMPDEST PUSH2 0x2F0B PUSH2 0xD26 JUMP JUMPDEST ISZERO PUSH2 0x2F42 JUMPI PUSH1 0x40 MLOAD PUSH32 0xD93C066500000000000000000000000000000000000000000000000000000000 DUP2 MSTORE PUSH1 0x4 ADD PUSH1 0x40 MLOAD DUP1 SWAP2 SUB SWAP1 REVERT JUMPDEST JUMP JUMPDEST PUSH0 PUSH0 PUSH20 0xFFFFFFFFFFFFFFFFFFFFFFFFFFFFFFFFFFFFFFFF AND DUP8 PUSH1 0x2 ADD PUSH0 SWAP1 SLOAD SWAP1 PUSH2 0x100 EXP SWAP1 DIV PUSH20 0xFFFFFFFFFFFFFFFFFFFFFFFFFFFFFFFFFFFFFFFF AND PUSH20 0xFFFFFFFFFFFFFFFFFFFFFFFFFFFFFFFFFFFFFFFF AND SUB PUSH2 0x2FD6 JUMPI PUSH1 0x40 MLOAD PUSH32 0x8C379A000000000000000000000000000000000000000000000000000000000 DUP2 MSTORE PUSH1 0x4 ADD PUSH2 0x2FCD SWAP1 PUSH2 0x5349 JUMP JUMPDEST PUSH1 0x40 MLOAD DUP1 SWAP2 SUB SWAP1 REVERT JUMPDEST PUSH0 PUSH20 0xFFFFFFFFFFFFFFFFFFFFFFFFFFFFFFFFFFFFFFFF AND DUP4 PUSH20 0xFFFFFFFFFFFFFFFFFFFFFFFFFFFFFFFFFFFFFFFF AND EQ PUSH2 0x308C JUMPI DUP3 PUSH20 0xFFFFFFFFFFFFFFFFFFFFFFFFFFFFFFFFFFFFFFFF AND PUSH4 0x23B872DD CALLER DUP5 DUP8 PUSH1 0x40 MLOAD DUP5 PUSH4 0xFFFFFFFF AND PUSH1 0xE0 SHL DUP2 MSTORE PUSH1 0x4 ADD PUSH2 0x3046 SWAP4 SWAP3 SWAP2 SWAP1 PUSH2 0x4B45 JUMP JUMPDEST PUSH1 0x20 PUSH1 0x40 MLOAD DUP1 DUP4 SUB DUP2 PUSH0 DUP8 GAS CALL ISZERO DUP1 ISZERO PUSH2 0x3062 JUMPI RETURNDATASIZE PUSH0 PUSH0 RETURNDATACOPY RETURNDATASIZE PUSH0 REVERT JUMPDEST POP POP POP POP PUSH1 0x40 MLOAD RETURNDATASIZE PUSH1 0x1F NOT PUSH1 0x1F DUP3 ADD AND DUP3 ADD DUP1 PUSH1 0x40 MSTORE POP DUP2 ADD SWAP1 PUSH2 0x3086 SWAP2 SWAP1 PUSH2 0x4BB5 JUMP JUMPDEST POP PUSH2 0x30D0 JUMP JUMPDEST DUP4 CALLVALUE LT ISZERO PUSH2 0x30CF JUMPI PUSH1 0x40 MLOAD PUSH32 0x8C379A000000000000000000000000000000000000000000000000000000000 DUP2 MSTORE PUSH1 0x4 ADD PUSH2 0x30C6 SWAP1 PUSH2 0x53B1 JUMP JUMPDEST PUSH1 0x40 MLOAD DUP1 SWAP2 SUB SWAP1 REVERT JUMPDEST JUMPDEST PUSH0 PUSH1 0x40 MLOAD DUP1 PUSH1 0xA0 ADD PUSH1 0x40 MSTORE DUP1 DUP5 PUSH1 0x40 MLOAD PUSH1 0x20 ADD PUSH2 0x30ED SWAP2 SWAP1 PUSH2 0x442A JUMP JUMPDEST PUSH1 0x40 MLOAD PUSH1 0x20 DUP2 DUP4 SUB SUB DUP2 MSTORE SWAP1 PUSH1 0x40 MSTORE DUP2 MSTORE PUSH1 0x20 ADD CALLER DUP9 DUP9 DUP9 PUSH1 0x40 MLOAD PUSH1 0x20 ADD PUSH2 0x3118 SWAP5 SWAP4 SWAP3 SWAP2 SWAP1 PUSH2 0x53CF JUMP JUMPDEST PUSH1 0x40 MLOAD PUSH1 0x20 DUP2 DUP4 SUB SUB DUP2 MSTORE SWAP1 PUSH1 0x40 MSTORE DUP2 MSTORE PUSH1 0x20 ADD PUSH0 PUSH8 0xFFFFFFFFFFFFFFFF DUP2 GT ISZERO PUSH2 0x3146 JUMPI PUSH2 0x3145 PUSH2 0x40E6 JUMP JUMPDEST JUMPDEST PUSH1 0x40 MLOAD SWAP1 DUP1 DUP3 MSTORE DUP1 PUSH1 0x20 MUL PUSH1 0x20 ADD DUP3 ADD PUSH1 0x40 MSTORE DUP1 ISZERO PUSH2 0x317F JUMPI DUP2 PUSH1 0x20 ADD JUMPDEST PUSH2 0x316C PUSH2 0x3D96 JUMP JUMPDEST DUP2 MSTORE PUSH1 0x20 ADD SWAP1 PUSH1 0x1 SWAP1 SUB SWAP1 DUP2 PUSH2 0x3164 JUMPI SWAP1 POP JUMPDEST POP DUP2 MSTORE PUSH1 0x20 ADD PUSH0 PUSH20 0xFFFFFFFFFFFFFFFFFFFFFFFFFFFFFFFFFFFFFFFF AND DUP2 MSTORE PUSH1 0x20 ADD PUSH2 0x31BB PUSH1 0x40 MLOAD DUP1 PUSH1 0x20 ADD PUSH1 0x40 MSTORE DUP1 PUSH3 0x30D40 DUP2 MSTORE POP PUSH2 0x3A12 JUMP JUMPDEST DUP2 MSTORE POP SWAP1 POP PUSH0 DUP9 PUSH1 0x2 ADD PUSH0 SWAP1 SLOAD SWAP1 PUSH2 0x100 EXP SWAP1 DIV PUSH20 0xFFFFFFFFFFFFFFFFFFFFFFFFFFFFFFFFFFFFFFFF AND PUSH20 0xFFFFFFFFFFFFFFFFFFFFFFFFFFFFFFFFFFFFFFFF AND PUSH4 0x20487DED DUP10 DUP5 PUSH1 0x40 MLOAD DUP4 PUSH4 0xFFFFFFFF AND PUSH1 0xE0 SHL DUP2 MSTORE PUSH1 0x4 ADD PUSH2 0x321F SWAP3 SWAP2 SWAP1 PUSH2 0x55DF JUMP JUMPDEST PUSH1 0x20 PUSH1 0x40 MLOAD DUP1 DUP4 SUB DUP2 DUP7 GAS STATICCALL ISZERO DUP1 ISZERO PUSH2 0x323A JUMPI RETURNDATASIZE PUSH0 PUSH0 RETURNDATACOPY RETURNDATASIZE PUSH0 REVERT JUMPDEST POP POP POP POP PUSH1 0x40 MLOAD RETURNDATASIZE PUSH1 0x1F NOT PUSH1 0x1F DUP3 ADD AND DUP3 ADD DUP1 PUSH1 0x40 MSTORE POP DUP2 ADD SWAP1 PUSH2 0x325E SWAP2 SWAP1 PUSH2 0x49E2 JUMP JUMPDEST SWAP1 POP PUSH0 PUSH20 0xFFFFFFFFFFFFFFFFFFFFFFFFFFFFFFFFFFFFFFFF AND DUP6 PUSH20 0xFFFFFFFFFFFFFFFFFFFFFFFFFFFFFFFFFFFFFFFF AND SUB PUSH2 0x32E6 JUMPI DUP6 DUP2 PUSH2 0x329F SWAP2 SWAP1 PUSH2 0x4C81 JUMP JUMPDEST CALLVALUE LT ISZERO PUSH2 0x32E1 JUMPI PUSH1 0x40 MLOAD PUSH32 0x8C379A000000000000000000000000000000000000000000000000000000000 DUP2 MSTORE PUSH1 0x4 ADD PUSH2 0x32D8 SWAP1 PUSH2 0x567D JUMP JUMPDEST PUSH1 0x40 MLOAD DUP1 SWAP2 SUB SWAP1 REVERT JUMPDEST PUSH2 0x332A JUMP JUMPDEST DUP1 CALLVALUE LT ISZERO PUSH2 0x3329 JUMPI PUSH1 0x40 MLOAD PUSH32 0x8C379A000000000000000000000000000000000000000000000000000000000 DUP2 MSTORE PUSH1 0x4 ADD PUSH2 0x3320 SWAP1 PUSH2 0x56E5 JUMP JUMPDEST PUSH1 0x40 MLOAD DUP1 SWAP2 SUB SWAP1 REVERT JUMPDEST JUMPDEST PUSH0 DUP10 PUSH1 0x2 ADD PUSH0 SWAP1 SLOAD SWAP1 PUSH2 0x100 EXP SWAP1 DIV PUSH20 0xFFFFFFFFFFFFFFFFFFFFFFFFFFFFFFFFFFFFFFFF AND PUSH20 0xFFFFFFFFFFFFFFFFFFFFFFFFFFFFFFFFFFFFFFFF AND PUSH4 0x96F4E9F9 CALLVALUE DUP12 DUP7 PUSH1 0x40 MLOAD DUP5 PUSH4 0xFFFFFFFF AND PUSH1 0xE0 SHL DUP2 MSTORE PUSH1 0x4 ADD PUSH2 0x338A SWAP3 SWAP2 SWAP1 PUSH2 0x55DF JUMP JUMPDEST PUSH1 0x20 PUSH1 0x40 MLOAD DUP1 DUP4 SUB DUP2 DUP6 DUP9 GAS CALL ISZERO DUP1 ISZERO PUSH2 0x33A6 JUMPI RETURNDATASIZE PUSH0 PUSH0 RETURNDATACOPY RETURNDATASIZE PUSH0 REVERT JUMPDEST POP POP POP POP POP PUSH1 0x40 MLOAD RETURNDATASIZE PUSH1 0x1F NOT PUSH1 0x1F DUP3 ADD AND DUP3 ADD DUP1 PUSH1 0x40 MSTORE POP DUP2 ADD SWAP1 PUSH2 0x33CB SWAP2 SWAP1 PUSH2 0x50EC JUMP JUMPDEST SWAP1 POP PUSH1 0x40 MLOAD DUP1 PUSH1 0xC0 ADD PUSH1 0x40 MSTORE DUP1 PUSH0 PUSH8 0xFFFFFFFFFFFFFFFF AND DUP2 MSTORE PUSH1 0x20 ADD CALLER PUSH20 0xFFFFFFFFFFFFFFFFFFFFFFFFFFFFFFFFFFFFFFFF AND DUP2 MSTORE PUSH1 0x20 ADD DUP9 DUP2 MSTORE PUSH1 0x20 ADD DUP10 DUP2 MSTORE PUSH1 0x20 ADD DUP8 PUSH20 0xFFFFFFFFFFFFFFFFFFFFFFFFFFFFFFFFFFFFFFFF AND DUP2 MSTORE PUSH1 0x20 ADD PUSH0 ISZERO ISZERO DUP2 MSTORE POP DUP11 PUSH0 ADD PUSH0 DUP4 DUP2 MSTORE PUSH1 0x20 ADD SWAP1 DUP2 MSTORE PUSH1 0x20 ADD PUSH0 KECCAK256 PUSH0 DUP3 ADD MLOAD DUP2 PUSH0 ADD PUSH0 PUSH2 0x100 EXP DUP2 SLOAD DUP2 PUSH8 0xFFFFFFFFFFFFFFFF MUL NOT AND SWAP1 DUP4 PUSH8 0xFFFFFFFFFFFFFFFF AND MUL OR SWAP1 SSTORE POP PUSH1 0x20 DUP3 ADD MLOAD DUP2 PUSH0 ADD PUSH1 0x8 PUSH2 0x100 EXP DUP2 SLOAD DUP2 PUSH20 0xFFFFFFFFFFFFFFFFFFFFFFFFFFFFFFFFFFFFFFFF MUL NOT AND SWAP1 DUP4 PUSH20 0xFFFFFFFFFFFFFFFFFFFFFFFFFFFFFFFFFFFFFFFF AND MUL OR SWAP1 SSTORE POP PUSH1 0x40 DUP3 ADD MLOAD DUP2 PUSH1 0x1 ADD SSTORE PUSH1 0x60 DUP3 ADD MLOAD DUP2 PUSH1 0x2 ADD SSTORE PUSH1 0x80 DUP3 ADD MLOAD DUP2 PUSH1 0x3 ADD PUSH0 PUSH2 0x100 EXP DUP2 SLOAD DUP2 PUSH20 0xFFFFFFFFFFFFFFFFFFFFFFFFFFFFFFFFFFFFFFFF MUL NOT AND SWAP1 DUP4 PUSH20 0xFFFFFFFFFFFFFFFFFFFFFFFFFFFFFFFFFFFFFFFF AND MUL OR SWAP1 SSTORE POP PUSH1 0xA0 DUP3 ADD MLOAD DUP2 PUSH1 0x3 ADD PUSH1 0x14 PUSH2 0x100 EXP DUP2 SLOAD DUP2 PUSH1 0xFF MUL NOT AND SWAP1 DUP4 ISZERO ISZERO MUL OR SWAP1 SSTORE POP SWAP1 POP POP DUP1 SWAP4 POP POP POP POP SWAP7 SWAP6 POP POP POP POP POP POP JUMP JUMPDEST PUSH0 PUSH0 PUSH2 0x354D PUSH2 0x3A91 JUMP JUMPDEST SWAP1 POP DUP1 SWAP2 POP POP SWAP1 JUMP JUMPDEST PUSH2 0x355E PUSH2 0x3ABA JUMP JUMPDEST JUMP JUMPDEST PUSH2 0x3568 PUSH2 0x3ABA JUMP JUMPDEST JUMP JUMPDEST PUSH2 0x3572 PUSH2 0x3ABA JUMP JUMPDEST PUSH2 0x357A PUSH2 0x3AFA JUMP JUMPDEST JUMP JUMPDEST PUSH2 0x3584 PUSH2 0x3ABA JUMP JUMPDEST JUMP JUMPDEST DUP1 DUP3 PUSH1 0x2 ADD PUSH0 PUSH2 0x100 EXP DUP2 SLOAD DUP2 PUSH20 0xFFFFFFFFFFFFFFFFFFFFFFFFFFFFFFFFFFFFFFFF MUL NOT AND SWAP1 DUP4 PUSH20 0xFFFFFFFFFFFFFFFFFFFFFFFFFFFFFFFFFFFFFFFF AND MUL OR SWAP1 SSTORE POP PUSH1 0x1 DUP3 PUSH1 0x1 ADD PUSH0 PUSH1 0x1 PUSH8 0xFFFFFFFFFFFFFFFF AND DUP2 MSTORE PUSH1 0x20 ADD SWAP1 DUP2 MSTORE PUSH1 0x20 ADD PUSH0 KECCAK256 PUSH0 PUSH2 0x100 EXP DUP2 SLOAD DUP2 PUSH1 0xFF MUL NOT AND SWAP1 DUP4 ISZERO ISZERO MUL OR SWAP1 SSTORE POP PUSH1 0x1 DUP3 PUSH1 0x1 ADD PUSH0 PUSH2 0xA86A PUSH8 0xFFFFFFFFFFFFFFFF AND DUP2 MSTORE PUSH1 0x20 ADD SWAP1 DUP2 MSTORE PUSH1 0x20 ADD PUSH0 KECCAK256 PUSH0 PUSH2 0x100 EXP DUP2 SLOAD DUP2 PUSH1 0xFF MUL NOT AND SWAP1 DUP4 ISZERO ISZERO MUL OR SWAP1 SSTORE POP PUSH1 0x1 DUP3 PUSH1 0x1 ADD PUSH0 PUSH1 0x89 PUSH8 0xFFFFFFFFFFFFFFFF AND DUP2 MSTORE PUSH1 0x20 ADD SWAP1 DUP2 MSTORE PUSH1 0x20 ADD PUSH0 KECCAK256 PUSH0 PUSH2 0x100 EXP DUP2 SLOAD DUP2 PUSH1 0xFF MUL NOT AND SWAP1 DUP4 ISZERO ISZERO MUL OR SWAP1 SSTORE POP PUSH1 0x1 DUP3 PUSH1 0x1 ADD PUSH0 PUSH1 0x38 PUSH8 0xFFFFFFFFFFFFFFFF AND DUP2 MSTORE PUSH1 0x20 ADD SWAP1 DUP2 MSTORE PUSH1 0x20 ADD PUSH0 KECCAK256 PUSH0 PUSH2 0x100 EXP DUP2 SLOAD DUP2 PUSH1 0xFF MUL NOT AND SWAP1 DUP4 ISZERO ISZERO MUL OR SWAP1 SSTORE POP POP POP JUMP JUMPDEST PUSH2 0x36AF DUP3 DUP3 PUSH2 0xFEE JUMP JUMPDEST PUSH2 0x36F2 JUMPI DUP1 DUP3 PUSH1 0x40 MLOAD PUSH32 0xE2517D3F00000000000000000000000000000000000000000000000000000000 DUP2 MSTORE PUSH1 0x4 ADD PUSH2 0x36E9 SWAP3 SWAP2 SWAP1 PUSH2 0x5703 JUMP JUMPDEST PUSH1 0x40 MLOAD DUP1 SWAP2 SUB SWAP1 REVERT JUMPDEST POP POP JUMP JUMPDEST PUSH2 0x36FE PUSH2 0xD26 JUMP JUMPDEST PUSH2 0x3734 JUMPI PUSH1 0x40 MLOAD PUSH32 0x8DFC202B00000000000000000000000000000000000000000000000000000000 DUP2 MSTORE PUSH1 0x4 ADD PUSH1 0x40 MLOAD DUP1 SWAP2 SUB SWAP1 REVERT JUMPDEST JUMP JUMPDEST PUSH0 PUSH2 0x3762 PUSH32 0x360894A13BA1A3210667C828492DB98DCA3E2076CC3735A920A3CA505D382BBC PUSH0 SHL PUSH2 0x3B19 JUMP JUMPDEST PUSH0 ADD PUSH0 SWAP1 SLOAD SWAP1 PUSH2 0x100 EXP SWAP1 DIV PUSH20 0xFFFFFFFFFFFFFFFFFFFFFFFFFFFFFFFFFFFFFFFF AND SWAP1 POP SWAP1 JUMP JUMPDEST PUSH2 0x3792 DUP3 PUSH2 0x3B22 JUMP JUMPDEST DUP2 PUSH20 0xFFFFFFFFFFFFFFFFFFFFFFFFFFFFFFFFFFFFFFFF AND PUSH32 0xBC7CD75A20EE27FD9ADEBAB32041F755214DBC6BFFA90CC0225B39DA2E5C2D3B PUSH1 0x40 MLOAD PUSH1 0x40 MLOAD DUP1 SWAP2 SUB SWAP1 LOG2 PUSH0 DUP2 MLOAD GT ISZERO PUSH2 0x37EE JUMPI PUSH2 0x37E8 DUP3 DUP3 PUSH2 0x3BEB JUMP JUMPDEST POP PUSH2 0x37F7 JUMP JUMPDEST PUSH2 0x37F6 PUSH2 0x3C6B JUMP JUMPDEST JUMPDEST POP POP JUMP JUMPDEST PUSH0 PUSH32 0x9B779B17422D0DF92223018B32B4D1FA46E071723D6817E2486D003BECC55F00 SWAP1 POP SWAP1 JUMP JUMPDEST PUSH0 PUSH0 PUSH0 PUSH20 0xFFFFFFFFFFFFFFFFFFFFFFFFFFFFFFFFFFFFFFFF AND DUP6 PUSH20 0xFFFFFFFFFFFFFFFFFFFFFFFFFFFFFFFFFFFFFFFF AND EQ PUSH2 0x38B8 JUMPI DUP3 PUSH0 DUP7 PUSH20 0xFFFFFFFFFFFFFFFFFFFFFFFFFFFFFFFFFFFFFFFF AND PUSH20 0xFFFFFFFFFFFFFFFFFFFFFFFFFFFFFFFFFFFFFFFF AND DUP2 MSTORE PUSH1 0x20 ADD SWAP1 DUP2 MSTORE PUSH1 0x20 ADD PUSH0 KECCAK256 PUSH0 SWAP1 SLOAD SWAP1 PUSH2 0x100 EXP SWAP1 DIV PUSH20 0xFFFFFFFFFFFFFFFFFFFFFFFFFFFFFFFFFFFFFFFF AND PUSH2 0x38BA JUMP JUMPDEST DUP4 JUMPDEST SWAP1 POP PUSH0 DUP2 PUSH20 0xFFFFFFFFFFFFFFFFFFFFFFFFFFFFFFFFFFFFFFFF AND PUSH4 0xFEAF968C PUSH1 0x40 MLOAD DUP2 PUSH4 0xFFFFFFFF AND PUSH1 0xE0 SHL DUP2 MSTORE PUSH1 0x4 ADD PUSH1 0xA0 PUSH1 0x40 MLOAD DUP1 DUP4 SUB DUP2 DUP7 GAS STATICCALL ISZERO DUP1 ISZERO PUSH2 0x3906 JUMPI RETURNDATASIZE PUSH0 PUSH0 RETURNDATACOPY RETURNDATASIZE PUSH0 REVERT JUMPDEST POP POP POP POP PUSH1 0x40 MLOAD RETURNDATASIZE PUSH1 0x1F NOT PUSH1 0x1F DUP3 ADD AND DUP3 ADD DUP1 PUSH1 0x40 MSTORE POP DUP2 ADD SWAP1 PUSH2 0x392A SWAP2 SWAP1 PUSH2 0x579C JUMP JUMPDEST POP POP POP SWAP2 POP POP PUSH0 DUP2 SGT PUSH2 0x3972 JUMPI PUSH1 0x40 MLOAD PUSH32 0x8C379A000000000000000000000000000000000000000000000000000000000 DUP2 MSTORE PUSH1 0x4 ADD PUSH2 0x3969 SWAP1 PUSH2 0x585D JUMP JUMPDEST PUSH1 0x40 MLOAD DUP1 SWAP2 SUB SWAP1 REVERT JUMPDEST PUSH0 DUP3 PUSH20 0xFFFFFFFFFFFFFFFFFFFFFFFFFFFFFFFFFFFFFFFF AND PUSH4 0x313CE567 PUSH1 0x40 MLOAD DUP2 PUSH4 0xFFFFFFFF AND PUSH1 0xE0 SHL DUP2 MSTORE PUSH1 0x4 ADD PUSH1 0x20 PUSH1 0x40 MLOAD DUP1 DUP4 SUB DUP2 DUP7 GAS STATICCALL ISZERO DUP1 ISZERO PUSH2 0x39BC JUMPI RETURNDATASIZE PUSH0 PUSH0 RETURNDATACOPY RETURNDATASIZE PUSH0 REVERT JUMPDEST POP POP POP POP PUSH1 0x40 MLOAD RETURNDATASIZE PUSH1 0x1F NOT PUSH1 0x1F DUP3 ADD AND DUP3 ADD DUP1 PUSH1 0x40 MSTORE POP DUP2 ADD SWAP1 PUSH2 0x39E0 SWAP2 SWAP1 PUSH2 0x58B1 JUMP JUMPDEST SWAP1 POP DUP1 PUSH1 0xA PUSH2 0x39EF SWAP2 SWAP1 PUSH2 0x5A0B JUMP JUMPDEST DUP3 DUP10 PUSH2 0x39FB SWAP2 SWAP1 PUSH2 0x5A55 JUMP JUMPDEST PUSH2 0x3A05 SWAP2 SWAP1 PUSH2 0x5AC3 JUMP JUMPDEST SWAP4 POP POP POP POP SWAP5 SWAP4 POP POP POP POP JUMP JUMPDEST PUSH1 0x60 PUSH4 0x97A657C9 PUSH1 0xE0 SHL DUP3 PUSH1 0x40 MLOAD PUSH1 0x24 ADD PUSH2 0x3A2D SWAP2 SWAP1 PUSH2 0x5B0D JUMP JUMPDEST PUSH1 0x40 MLOAD PUSH1 0x20 DUP2 DUP4 SUB SUB DUP2 MSTORE SWAP1 PUSH1 0x40 MSTORE SWAP1 PUSH28 0xFFFFFFFFFFFFFFFFFFFFFFFFFFFFFFFFFFFFFFFFFFFFFFFFFFFFFFFF NOT AND PUSH1 0x20 DUP3 ADD DUP1 MLOAD PUSH28 0xFFFFFFFFFFFFFFFFFFFFFFFFFFFFFFFFFFFFFFFFFFFFFFFFFFFFFFFF DUP4 DUP2 DUP4 AND OR DUP4 MSTORE POP POP POP POP SWAP1 POP SWAP2 SWAP1 POP JUMP JUMPDEST PUSH0 PUSH32 0xF0C57E16840DF040F15088DC2F81FE391C3923BEC73E23A9662EFC9C229C6A00 PUSH0 SHL SWAP1 POP SWAP1 JUMP JUMPDEST PUSH2 0x3AC2 PUSH2 0x3CA7 JUMP JUMPDEST PUSH2 0x3AF8 JUMPI PUSH1 0x40 MLOAD PUSH32 0xD7E6BCF800000000000000000000000000000000000000000000000000000000 DUP2 MSTORE PUSH1 0x4 ADD PUSH1 0x40 MLOAD DUP1 SWAP2 SUB SWAP1 REVERT JUMPDEST JUMP JUMPDEST PUSH2 0x3B02 PUSH2 0x3ABA JUMP JUMPDEST PUSH0 PUSH2 0x3B0B PUSH2 0x37FB JUMP JUMPDEST SWAP1 POP PUSH1 0x1 DUP2 PUSH0 ADD DUP2 SWAP1 SSTORE POP POP JUMP JUMPDEST PUSH0 DUP2 SWAP1 POP SWAP2 SWAP1 POP JUMP JUMPDEST PUSH0 DUP2 PUSH20 0xFFFFFFFFFFFFFFFFFFFFFFFFFFFFFFFFFFFFFFFF AND EXTCODESIZE SUB PUSH2 0x3B7D JUMPI DUP1 PUSH1 0x40 MLOAD PUSH32 0x4C9C8CE300000000000000000000000000000000000000000000000000000000 DUP2 MSTORE PUSH1 0x4 ADD PUSH2 0x3B74 SWAP2 SWAP1 PUSH2 0x442A JUMP JUMPDEST PUSH1 0x40 MLOAD DUP1 SWAP2 SUB SWAP1 REVERT JUMPDEST DUP1 PUSH2 0x3BA9 PUSH32 0x360894A13BA1A3210667C828492DB98DCA3E2076CC3735A920A3CA505D382BBC PUSH0 SHL PUSH2 0x3B19 JUMP JUMPDEST PUSH0 ADD PUSH0 PUSH2 0x100 EXP DUP2 SLOAD DUP2 PUSH20 0xFFFFFFFFFFFFFFFFFFFFFFFFFFFFFFFFFFFFFFFF MUL NOT AND SWAP1 DUP4 PUSH20 0xFFFFFFFFFFFFFFFFFFFFFFFFFFFFFFFFFFFFFFFF AND MUL OR SWAP1 SSTORE POP POP JUMP JUMPDEST PUSH1 0x60 PUSH0 PUSH0 DUP5 PUSH20 0xFFFFFFFFFFFFFFFFFFFFFFFFFFFFFFFFFFFFFFFF AND DUP5 PUSH1 0x40 MLOAD PUSH2 0x3C14 SWAP2 SWAP1 PUSH2 0x5B60 JUMP JUMPDEST PUSH0 PUSH1 0x40 MLOAD DUP1 DUP4 SUB DUP2 DUP6 GAS DELEGATECALL SWAP2 POP POP RETURNDATASIZE DUP1 PUSH0 DUP2 EQ PUSH2 0x3C4C JUMPI PUSH1 0x40 MLOAD SWAP2 POP PUSH1 0x1F NOT PUSH1 0x3F RETURNDATASIZE ADD AND DUP3 ADD PUSH1 0x40 MSTORE RETURNDATASIZE DUP3 MSTORE RETURNDATASIZE PUSH0 PUSH1 0x20 DUP5 ADD RETURNDATACOPY PUSH2 0x3C51 JUMP JUMPDEST PUSH1 0x60 SWAP2 POP JUMPDEST POP SWAP2 POP SWAP2 POP PUSH2 0x3C61 DUP6 DUP4 DUP4 PUSH2 0x3CC5 JUMP JUMPDEST SWAP3 POP POP POP SWAP3 SWAP2 POP POP JUMP JUMPDEST PUSH0 CALLVALUE GT ISZERO PUSH2 0x3CA5 JUMPI PUSH1 0x40 MLOAD PUSH32 0xB398979F00000000000000000000000000000000000000000000000000000000 DUP2 MSTORE PUSH1 0x4 ADD PUSH1 0x40 MLOAD DUP1 SWAP2 SUB SWAP1 REVERT JUMPDEST JUMP JUMPDEST PUSH0 PUSH2 0x3CB0 PUSH2 0x3543 JUMP JUMPDEST PUSH0 ADD PUSH1 0x8 SWAP1 SLOAD SWAP1 PUSH2 0x100 EXP SWAP1 DIV PUSH1 0xFF AND SWAP1 POP SWAP1 JUMP JUMPDEST PUSH1 0x60 DUP3 PUSH2 0x3CDA JUMPI PUSH2 0x3CD5 DUP3 PUSH2 0x3D52 JUMP JUMPDEST PUSH2 0x3D4A JUMP JUMPDEST PUSH0 DUP3 MLOAD EQ DUP1 ISZERO PUSH2 0x3D00 JUMPI POP PUSH0 DUP5 PUSH20 0xFFFFFFFFFFFFFFFFFFFFFFFFFFFFFFFFFFFFFFFF AND EXTCODESIZE EQ JUMPDEST ISZERO PUSH2 0x3D42 JUMPI DUP4 PUSH1 0x40 MLOAD PUSH32 0x9996B31500000000000000000000000000000000000000000000000000000000 DUP2 MSTORE PUSH1 0x4 ADD PUSH2 0x3D39 SWAP2 SWAP1 PUSH2 0x442A JUMP JUMPDEST PUSH1 0x40 MLOAD DUP1 SWAP2 SUB SWAP1 REVERT JUMPDEST DUP2 SWAP1 POP PUSH2 0x3D4B JUMP JUMPDEST JUMPDEST SWAP4 SWAP3 POP POP POP JUMP JUMPDEST PUSH0 DUP2 MLOAD GT ISZERO PUSH2 0x3D64 JUMPI DUP1 MLOAD DUP1 DUP3 PUSH1 0x20 ADD REVERT JUMPDEST PUSH1 0x40 MLOAD PUSH32 0xD6BDA27500000000000000000000000000000000000000000000000000000000 DUP2 MSTORE PUSH1 0x4 ADD PUSH1 0x40 MLOAD DUP1 SWAP2 SUB SWAP1 REVERT JUMPDEST PUSH1 0x40 MLOAD DUP1 PUSH1 0x40 ADD PUSH1 0x40 MSTORE DUP1 PUSH0 PUSH20 0xFFFFFFFFFFFFFFFFFFFFFFFFFFFFFFFFFFFFFFFF AND DUP2 MSTORE PUSH1 0x20 ADD PUSH0 DUP2 MSTORE POP SWAP1 JUMP JUMPDEST PUSH0 PUSH1 0x40 MLOAD SWAP1 POP SWAP1 JUMP JUMPDEST PUSH0 PUSH0 REVERT JUMPDEST PUSH0 PUSH0 REVERT JUMPDEST PUSH0 PUSH32 0xFFFFFFFF00000000000000000000000000000000000000000000000000000000 DUP3 AND SWAP1 POP SWAP2 SWAP1 POP JUMP JUMPDEST PUSH2 0x3E09 DUP2 PUSH2 0x3DD5 JUMP JUMPDEST DUP2 EQ PUSH2 0x3E13 JUMPI PUSH0 PUSH0 REVERT JUMPDEST POP JUMP JUMPDEST PUSH0 DUP2 CALLDATALOAD SWAP1 POP PUSH2 0x3E24 DUP2 PUSH2 0x3E00 JUMP JUMPDEST SWAP3 SWAP2 POP POP JUMP JUMPDEST PUSH0 PUSH1 0x20 DUP3 DUP5 SUB SLT ISZERO PUSH2 0x3E3F JUMPI PUSH2 0x3E3E PUSH2 0x3DCD JUMP JUMPDEST JUMPDEST PUSH0 PUSH2 0x3E4C DUP5 DUP3 DUP6 ADD PUSH2 0x3E16 JUMP JUMPDEST SWAP2 POP POP SWAP3 SWAP2 POP POP JUMP JUMPDEST PUSH0 DUP2 ISZERO ISZERO SWAP1 POP SWAP2 SWAP1 POP JUMP JUMPDEST PUSH2 0x3E69 DUP2 PUSH2 0x3E55 JUMP JUMPDEST DUP3 MSTORE POP POP JUMP JUMPDEST PUSH0 PUSH1 0x20 DUP3 ADD SWAP1 POP PUSH2 0x3E82 PUSH0 DUP4 ADD DUP5 PUSH2 0x3E60 JUMP JUMPDEST SWAP3 SWAP2 POP POP JUMP JUMPDEST PUSH0 DUP2 SWAP1 POP SWAP2 SWAP1 POP JUMP JUMPDEST PUSH2 0x3E9A DUP2 PUSH2 0x3E88 JUMP JUMPDEST DUP2 EQ PUSH2 0x3EA4 JUMPI PUSH0 PUSH0 REVERT JUMPDEST POP JUMP JUMPDEST PUSH0 DUP2 CALLDATALOAD SWAP1 POP PUSH2 0x3EB5 DUP2 PUSH2 0x3E91 JUMP JUMPDEST SWAP3 SWAP2 POP POP JUMP JUMPDEST PUSH0 PUSH20 0xFFFFFFFFFFFFFFFFFFFFFFFFFFFFFFFFFFFFFFFF DUP3 AND SWAP1 POP SWAP2 SWAP1 POP JUMP JUMPDEST PUSH0 PUSH2 0x3EE4 DUP3 PUSH2 0x3EBB JUMP JUMPDEST SWAP1 POP SWAP2 SWAP1 POP JUMP JUMPDEST PUSH2 0x3EF4 DUP2 PUSH2 0x3EDA JUMP JUMPDEST DUP2 EQ PUSH2 0x3EFE JUMPI PUSH0 PUSH0 REVERT JUMPDEST POP JUMP JUMPDEST PUSH0 DUP2 CALLDATALOAD SWAP1 POP PUSH2 0x3F0F DUP2 PUSH2 0x3EEB JUMP JUMPDEST SWAP3 SWAP2 POP POP JUMP JUMPDEST PUSH0 PUSH0 PUSH1 0x40 DUP4 DUP6 SUB SLT ISZERO PUSH2 0x3F2B JUMPI PUSH2 0x3F2A PUSH2 0x3DCD JUMP JUMPDEST JUMPDEST PUSH0 PUSH2 0x3F38 DUP6 DUP3 DUP7 ADD PUSH2 0x3EA7 JUMP JUMPDEST SWAP3 POP POP PUSH1 0x20 PUSH2 0x3F49 DUP6 DUP3 DUP7 ADD PUSH2 0x3F01 JUMP JUMPDEST SWAP2 POP POP SWAP3 POP SWAP3 SWAP1 POP JUMP JUMPDEST PUSH2 0x3F5C DUP2 PUSH2 0x3E88 JUMP JUMPDEST DUP3 MSTORE POP POP JUMP JUMPDEST PUSH0 PUSH1 0x20 DUP3 ADD SWAP1 POP PUSH2 0x3F75 PUSH0 DUP4 ADD DUP5 PUSH2 0x3F53 JUMP JUMPDEST SWAP3 SWAP2 POP POP JUMP JUMPDEST PUSH0 DUP2 SWAP1 POP SWAP2 SWAP1 POP JUMP JUMPDEST PUSH2 0x3F8D DUP2 PUSH2 0x3F7B JUMP JUMPDEST DUP2 EQ PUSH2 0x3F97 JUMPI PUSH0 PUSH0 REVERT JUMPDEST POP JUMP JUMPDEST PUSH0 DUP2 CALLDATALOAD SWAP1 POP PUSH2 0x3FA8 DUP2 PUSH2 0x3F84 JUMP JUMPDEST SWAP3 SWAP2 POP POP JUMP JUMPDEST PUSH0 PUSH1 0x20 DUP3 DUP5 SUB SLT ISZERO PUSH2 0x3FC3 JUMPI PUSH2 0x3FC2 PUSH2 0x3DCD JUMP JUMPDEST JUMPDEST PUSH0 PUSH2 0x3FD0 DUP5 DUP3 DUP6 ADD PUSH2 0x3F9A JUMP JUMPDEST SWAP2 POP POP SWAP3 SWAP2 POP POP JUMP JUMPDEST PUSH2 0x3FE2 DUP2 PUSH2 0x3F7B JUMP JUMPDEST DUP3 MSTORE POP POP JUMP JUMPDEST PUSH0 PUSH1 0x20 DUP3 ADD SWAP1 POP PUSH2 0x3FFB PUSH0 DUP4 ADD DUP5 PUSH2 0x3FD9 JUMP JUMPDEST SWAP3 SWAP2 POP POP JUMP JUMPDEST PUSH0 PUSH0 PUSH1 0x40 DUP4 DUP6 SUB SLT ISZERO PUSH2 0x4017 JUMPI PUSH2 0x4016 PUSH2 0x3DCD JUMP JUMPDEST JUMPDEST PUSH0 PUSH2 0x4024 DUP6 DUP3 DUP7 ADD PUSH2 0x3F9A JUMP JUMPDEST SWAP3 POP POP PUSH1 0x20 PUSH2 0x4035 DUP6 DUP3 DUP7 ADD PUSH2 0x3F01 JUMP JUMPDEST SWAP2 POP POP SWAP3 POP SWAP3 SWAP1 POP JUMP JUMPDEST PUSH0 PUSH1 0x20 DUP3 DUP5 SUB SLT ISZERO PUSH2 0x4054 JUMPI PUSH2 0x4053 PUSH2 0x3DCD JUMP JUMPDEST JUMPDEST PUSH0 PUSH2 0x4061 DUP5 DUP3 DUP6 ADD PUSH2 0x3F01 JUMP JUMPDEST SWAP2 POP POP SWAP3 SWAP2 POP POP JUMP JUMPDEST PUSH0 PUSH0 PUSH0 PUSH0 PUSH1 0x80 DUP6 DUP8 SUB SLT ISZERO PUSH2 0x4082 JUMPI PUSH2 0x4081 PUSH2 0x3DCD JUMP JUMPDEST JUMPDEST PUSH0 PUSH2 0x408F DUP8 DUP3 DUP9 ADD PUSH2 0x3EA7 JUMP JUMPDEST SWAP5 POP POP PUSH1 0x20 PUSH2 0x40A0 DUP8 DUP3 DUP9 ADD PUSH2 0x3EA7 JUMP JUMPDEST SWAP4 POP POP PUSH1 0x40 PUSH2 0x40B1 DUP8 DUP3 DUP9 ADD PUSH2 0x3EA7 JUMP JUMPDEST SWAP3 POP POP PUSH1 0x60 PUSH2 0x40C2 DUP8 DUP3 DUP9 ADD PUSH2 0x3F01 JUMP JUMPDEST SWAP2 POP POP SWAP3 SWAP6 SWAP2 SWAP5 POP SWAP3 POP JUMP JUMPDEST PUSH0 PUSH0 REVERT JUMPDEST PUSH0 PUSH0 REVERT JUMPDEST PUSH0 PUSH1 0x1F NOT PUSH1 0x1F DUP4 ADD AND SWAP1 POP SWAP2 SWAP1 POP JUMP JUMPDEST PUSH32 0x4E487B7100000000000000000000000000000000000000000000000000000000 PUSH0 MSTORE PUSH1 0x41 PUSH1 0x4 MSTORE PUSH1 0x24 PUSH0 REVERT JUMPDEST PUSH2 0x411C DUP3 PUSH2 0x40D6 JUMP JUMPDEST DUP2 ADD DUP2 DUP2 LT PUSH8 0xFFFFFFFFFFFFFFFF DUP3 GT OR ISZERO PUSH2 0x413B JUMPI PUSH2 0x413A PUSH2 0x40E6 JUMP JUMPDEST JUMPDEST DUP1 PUSH1 0x40 MSTORE POP POP POP JUMP JUMPDEST PUSH0 PUSH2 0x414D PUSH2 0x3DC4 JUMP JUMPDEST SWAP1 POP PUSH2 0x4159 DUP3 DUP3 PUSH2 0x4113 JUMP JUMPDEST SWAP2 SWAP1 POP JUMP JUMPDEST PUSH0 PUSH8 0xFFFFFFFFFFFFFFFF DUP3 GT ISZERO PUSH2 0x4178 JUMPI PUSH2 0x4177 PUSH2 0x40E6 JUMP JUMPDEST JUMPDEST PUSH2 0x4181 DUP3 PUSH2 0x40D6 JUMP JUMPDEST SWAP1 POP PUSH1 0x20 DUP2 ADD SWAP1 POP SWAP2 SWAP1 POP JUMP JUMPDEST DUP3 DUP2 DUP4 CALLDATACOPY PUSH0 DUP4 DUP4 ADD MSTORE POP POP POP JUMP JUMPDEST PUSH0 PUSH2 0x41AE PUSH2 0x41A9 DUP5 PUSH2 0x415E JUMP JUMPDEST PUSH2 0x4144 JUMP JUMPDEST SWAP1 POP DUP3 DUP2 MSTORE PUSH1 0x20 DUP2 ADD DUP5 DUP5 DUP5 ADD GT ISZERO PUSH2 0x41CA JUMPI PUSH2 0x41C9 PUSH2 0x40D2 JUMP JUMPDEST JUMPDEST PUSH2 0x41D5 DUP5 DUP3 DUP6 PUSH2 0x418E JUMP JUMPDEST POP SWAP4 SWAP3 POP POP POP JUMP JUMPDEST PUSH0 DUP3 PUSH1 0x1F DUP4 ADD SLT PUSH2 0x41F1 JUMPI PUSH2 0x41F0 PUSH2 0x40CE JUMP JUMPDEST JUMPDEST DUP2 CALLDATALOAD PUSH2 0x4201 DUP5 DUP3 PUSH1 0x20 DUP7 ADD PUSH2 0x419C JUMP JUMPDEST SWAP2 POP POP SWAP3 SWAP2 POP POP JUMP JUMPDEST PUSH0 PUSH0 PUSH1 0x40 DUP4 DUP6 SUB SLT ISZERO PUSH2 0x4220 JUMPI PUSH2 0x421F PUSH2 0x3DCD JUMP JUMPDEST JUMPDEST PUSH0 PUSH2 0x422D DUP6 DUP3 DUP7 ADD PUSH2 0x3F01 JUMP JUMPDEST SWAP3 POP POP PUSH1 0x20 DUP4 ADD CALLDATALOAD PUSH8 0xFFFFFFFFFFFFFFFF DUP2 GT ISZERO PUSH2 0x424E JUMPI PUSH2 0x424D PUSH2 0x3DD1 JUMP JUMPDEST JUMPDEST PUSH2 0x425A DUP6 DUP3 DUP7 ADD PUSH2 0x41DD JUMP JUMPDEST SWAP2 POP POP SWAP3 POP SWAP3 SWAP1 POP JUMP JUMPDEST PUSH0 PUSH1 0x20 DUP3 DUP5 SUB SLT ISZERO PUSH2 0x4279 JUMPI PUSH2 0x4278 PUSH2 0x3DCD JUMP JUMPDEST JUMPDEST PUSH0 PUSH2 0x4286 DUP5 DUP3 DUP6 ADD PUSH2 0x3EA7 JUMP JUMPDEST SWAP2 POP POP SWAP3 SWAP2 POP POP JUMP JUMPDEST PUSH2 0x4298 DUP2 PUSH2 0x3EDA JUMP JUMPDEST DUP3 MSTORE POP POP JUMP JUMPDEST PUSH0 PUSH2 0x160 DUP3 ADD SWAP1 POP PUSH2 0x42B2 PUSH0 DUP4 ADD DUP15 PUSH2 0x428F JUMP JUMPDEST PUSH2 0x42BF PUSH1 0x20 DUP4 ADD DUP14 PUSH2 0x3F53 JUMP JUMPDEST PUSH2 0x42CC PUSH1 0x40 DUP4 ADD DUP13 PUSH2 0x3F53 JUMP JUMPDEST PUSH2 0x42D9 PUSH1 0x60 DUP4 ADD DUP12 PUSH2 0x3F53 JUMP JUMPDEST PUSH2 0x42E6 PUSH1 0x80 DUP4 ADD DUP11 PUSH2 0x3E60 JUMP JUMPDEST PUSH2 0x42F3 PUSH1 0xA0 DUP4 ADD DUP10 PUSH2 0x3F53 JUMP JUMPDEST PUSH2 0x4300 PUSH1 0xC0 DUP4 ADD DUP9 PUSH2 0x428F JUMP JUMPDEST PUSH2 0x430D PUSH1 0xE0 DUP4 ADD DUP8 PUSH2 0x428F JUMP JUMPDEST PUSH2 0x431B PUSH2 0x100 DUP4 ADD DUP7 PUSH2 0x3F53 JUMP JUMPDEST PUSH2 0x4329 PUSH2 0x120 DUP4 ADD DUP6 PUSH2 0x428F JUMP JUMPDEST PUSH2 0x4337 PUSH2 0x140 DUP4 ADD DUP5 PUSH2 0x3F53 JUMP JUMPDEST SWAP13 SWAP12 POP POP POP POP POP POP POP POP POP POP POP POP JUMP JUMPDEST PUSH0 PUSH8 0xFFFFFFFFFFFFFFFF DUP3 AND SWAP1 POP SWAP2 SWAP1 POP JUMP JUMPDEST PUSH2 0x4363 DUP2 PUSH2 0x4347 JUMP JUMPDEST DUP2 EQ PUSH2 0x436D JUMPI PUSH0 PUSH0 REVERT JUMPDEST POP JUMP JUMPDEST PUSH0 DUP2 CALLDATALOAD SWAP1 POP PUSH2 0x437E DUP2 PUSH2 0x435A JUMP JUMPDEST SWAP3 SWAP2 POP POP JUMP JUMPDEST PUSH2 0x438D DUP2 PUSH2 0x3E55 JUMP JUMPDEST DUP2 EQ PUSH2 0x4397 JUMPI PUSH0 PUSH0 REVERT JUMPDEST POP JUMP JUMPDEST PUSH0 DUP2 CALLDATALOAD SWAP1 POP PUSH2 0x43A8 DUP2 PUSH2 0x4384 JUMP JUMPDEST SWAP3 SWAP2 POP POP JUMP JUMPDEST PUSH0 PUSH0 PUSH1 0x40 DUP4 DUP6 SUB SLT ISZERO PUSH2 0x43C4 JUMPI PUSH2 0x43C3 PUSH2 0x3DCD JUMP JUMPDEST JUMPDEST PUSH0 PUSH2 0x43D1 DUP6 DUP3 DUP7 ADD PUSH2 0x4370 JUMP JUMPDEST SWAP3 POP POP PUSH1 0x20 PUSH2 0x43E2 DUP6 DUP3 DUP7 ADD PUSH2 0x439A JUMP JUMPDEST SWAP2 POP POP SWAP3 POP SWAP3 SWAP1 POP JUMP JUMPDEST PUSH0 PUSH0 PUSH1 0x40 DUP4 DUP6 SUB SLT ISZERO PUSH2 0x4402 JUMPI PUSH2 0x4401 PUSH2 0x3DCD JUMP JUMPDEST JUMPDEST PUSH0 PUSH2 0x440F DUP6 DUP3 DUP7 ADD PUSH2 0x3F01 JUMP JUMPDEST SWAP3 POP POP PUSH1 0x20 PUSH2 0x4420 DUP6 DUP3 DUP7 ADD PUSH2 0x3F01 JUMP JUMPDEST SWAP2 POP POP SWAP3 POP SWAP3 SWAP1 POP JUMP JUMPDEST PUSH0 PUSH1 0x20 DUP3 ADD SWAP1 POP PUSH2 0x443D PUSH0 DUP4 ADD DUP5 PUSH2 0x428F JUMP JUMPDEST SWAP3 SWAP2 POP POP JUMP JUMPDEST PUSH0 PUSH0 REVERT JUMPDEST PUSH0 PUSH0 REVERT JUMPDEST PUSH0 PUSH8 0xFFFFFFFFFFFFFFFF DUP3 GT ISZERO PUSH2 0x4465 JUMPI PUSH2 0x4464 PUSH2 0x40E6 JUMP JUMPDEST JUMPDEST PUSH1 0x20 DUP3 MUL SWAP1 POP PUSH1 0x20 DUP2 ADD SWAP1 POP SWAP2 SWAP1 POP JUMP JUMPDEST PUSH0 PUSH0 REVERT JUMPDEST PUSH0 PUSH1 0x40 DUP3 DUP5 SUB SLT ISZERO PUSH2 0x448F JUMPI PUSH2 0x448E PUSH2 0x4443 JUMP JUMPDEST JUMPDEST PUSH2 0x4499 PUSH1 0x40 PUSH2 0x4144 JUMP JUMPDEST SWAP1 POP PUSH0 PUSH2 0x44A8 DUP5 DUP3 DUP6 ADD PUSH2 0x3F01 JUMP JUMPDEST PUSH0 DUP4 ADD MSTORE POP PUSH1 0x20 PUSH2 0x44BB DUP5 DUP3 DUP6 ADD PUSH2 0x3EA7 JUMP JUMPDEST PUSH1 0x20 DUP4 ADD MSTORE POP SWAP3 SWAP2 POP POP JUMP JUMPDEST PUSH0 PUSH2 0x44D9 PUSH2 0x44D4 DUP5 PUSH2 0x444B JUMP JUMPDEST PUSH2 0x4144 JUMP JUMPDEST SWAP1 POP DUP1 DUP4 DUP3 MSTORE PUSH1 0x20 DUP3 ADD SWAP1 POP PUSH1 0x40 DUP5 MUL DUP4 ADD DUP6 DUP2 GT ISZERO PUSH2 0x44FC JUMPI PUSH2 0x44FB PUSH2 0x4476 JUMP JUMPDEST JUMPDEST DUP4 JUMPDEST DUP2 DUP2 LT ISZERO PUSH2 0x4525 JUMPI DUP1 PUSH2 0x4511 DUP9 DUP3 PUSH2 0x447A JUMP JUMPDEST DUP5 MSTORE PUSH1 0x20 DUP5 ADD SWAP4 POP POP PUSH1 0x40 DUP2 ADD SWAP1 POP PUSH2 0x44FE JUMP JUMPDEST POP POP POP SWAP4 SWAP3 POP POP POP JUMP JUMPDEST PUSH0 DUP3 PUSH1 0x1F DUP4 ADD SLT PUSH2 0x4543 JUMPI PUSH2 0x4542 PUSH2 0x40CE JUMP JUMPDEST JUMPDEST DUP2 CALLDATALOAD PUSH2 0x4553 DUP5 DUP3 PUSH1 0x20 DUP7 ADD PUSH2 0x44C7 JUMP JUMPDEST SWAP2 POP POP SWAP3 SWAP2 POP POP JUMP JUMPDEST PUSH0 PUSH1 0xA0 DUP3 DUP5 SUB SLT ISZERO PUSH2 0x4571 JUMPI PUSH2 0x4570 PUSH2 0x4443 JUMP JUMPDEST JUMPDEST PUSH2 0x457B PUSH1 0xA0 PUSH2 0x4144 JUMP JUMPDEST SWAP1 POP PUSH0 PUSH2 0x458A DUP5 DUP3 DUP6 ADD PUSH2 0x3F9A JUMP JUMPDEST PUSH0 DUP4 ADD MSTORE POP PUSH1 0x20 PUSH2 0x459D DUP5 DUP3 DUP6 ADD PUSH2 0x4370 JUMP JUMPDEST PUSH1 0x20 DUP4 ADD MSTORE POP PUSH1 0x40 DUP3 ADD CALLDATALOAD PUSH8 0xFFFFFFFFFFFFFFFF DUP2 GT ISZERO PUSH2 0x45C1 JUMPI PUSH2 0x45C0 PUSH2 0x4447 JUMP JUMPDEST JUMPDEST PUSH2 0x45CD DUP5 DUP3 DUP6 ADD PUSH2 0x41DD JUMP JUMPDEST PUSH1 0x40 DUP4 ADD MSTORE POP PUSH1 0x60 DUP3 ADD CALLDATALOAD PUSH8 0xFFFFFFFFFFFFFFFF DUP2 GT ISZERO PUSH2 0x45F1 JUMPI PUSH2 0x45F0 PUSH2 0x4447 JUMP JUMPDEST JUMPDEST PUSH2 0x45FD DUP5 DUP3 DUP6 ADD PUSH2 0x41DD JUMP JUMPDEST PUSH1 0x60 DUP4 ADD MSTORE POP PUSH1 0x80 DUP3 ADD CALLDATALOAD PUSH8 0xFFFFFFFFFFFFFFFF DUP2 GT ISZERO PUSH2 0x4621 JUMPI PUSH2 0x4620 PUSH2 0x4447 JUMP JUMPDEST JUMPDEST PUSH2 0x462D DUP5 DUP3 DUP6 ADD PUSH2 0x452F JUMP JUMPDEST PUSH1 0x80 DUP4 ADD MSTORE POP SWAP3 SWAP2 POP POP JUMP JUMPDEST PUSH0 PUSH1 0x20 DUP3 DUP5 SUB SLT ISZERO PUSH2 0x464E JUMPI PUSH2 0x464D PUSH2 0x3DCD JUMP JUMPDEST JUMPDEST PUSH0 DUP3 ADD CALLDATALOAD PUSH8 0xFFFFFFFFFFFFFFFF DUP2 GT ISZERO PUSH2 0x466B JUMPI PUSH2 0x466A PUSH2 0x3DD1 JUMP JUMPDEST JUMPDEST PUSH2 0x4677 DUP5 DUP3 DUP6 ADD PUSH2 0x455C JUMP JUMPDEST SWAP2 POP POP SWAP3 SWAP2 POP POP JUMP JUMPDEST PUSH0 PUSH0 PUSH1 0x40 DUP4 DUP6 SUB SLT ISZERO PUSH2 0x4696 JUMPI PUSH2 0x4695 PUSH2 0x3DCD JUMP JUMPDEST JUMPDEST PUSH0 PUSH2 0x46A3 DUP6 DUP3 DUP7 ADD PUSH2 0x3F01 JUMP JUMPDEST SWAP3 POP POP PUSH1 0x20 PUSH2 0x46B4 DUP6 DUP3 DUP7 ADD PUSH2 0x3EA7 JUMP JUMPDEST SWAP2 POP POP SWAP3 POP SWAP3 SWAP1 POP JUMP JUMPDEST PUSH0 DUP2 SWAP1 POP SWAP2 SWAP1 POP JUMP JUMPDEST PUSH0 PUSH2 0x46E1 PUSH2 0x46DC PUSH2 0x46D7 DUP5 PUSH2 0x3EBB JUMP JUMPDEST PUSH2 0x46BE JUMP JUMPDEST PUSH2 0x3EBB JUMP JUMPDEST SWAP1 POP SWAP2 SWAP1 POP JUMP JUMPDEST PUSH0 PUSH2 0x46F2 DUP3 PUSH2 0x46C7 JUMP JUMPDEST SWAP1 POP SWAP2 SWAP1 POP JUMP JUMPDEST PUSH0 PUSH2 0x4703 DUP3 PUSH2 0x46E8 JUMP JUMPDEST SWAP1 POP SWAP2 SWAP1 POP JUMP JUMPDEST PUSH2 0x4713 DUP2 PUSH2 0x46F9 JUMP JUMPDEST DUP3 MSTORE POP POP JUMP JUMPDEST PUSH0 PUSH1 0x20 DUP3 ADD SWAP1 POP PUSH2 0x472C PUSH0 DUP4 ADD DUP5 PUSH2 0x470A JUMP JUMPDEST SWAP3 SWAP2 POP POP JUMP JUMPDEST PUSH0 DUP2 MLOAD SWAP1 POP SWAP2 SWAP1 POP JUMP JUMPDEST PUSH0 DUP3 DUP3 MSTORE PUSH1 0x20 DUP3 ADD SWAP1 POP SWAP3 SWAP2 POP POP JUMP JUMPDEST DUP3 DUP2 DUP4 MCOPY PUSH0 DUP4 DUP4 ADD MSTORE POP POP POP JUMP JUMPDEST PUSH0 PUSH2 0x4764 DUP3 PUSH2 0x4732 JUMP JUMPDEST PUSH2 0x476E DUP2 DUP6 PUSH2 0x473C JUMP JUMPDEST SWAP4 POP PUSH2 0x477E DUP2 DUP6 PUSH1 0x20 DUP7 ADD PUSH2 0x474C JUMP JUMPDEST PUSH2 0x4787 DUP2 PUSH2 0x40D6 JUMP JUMPDEST DUP5 ADD SWAP2 POP POP SWAP3 SWAP2 POP POP JUMP JUMPDEST PUSH0 PUSH1 0x20 DUP3 ADD SWAP1 POP DUP2 DUP2 SUB PUSH0 DUP4 ADD MSTORE PUSH2 0x47AA DUP2 DUP5 PUSH2 0x475A JUMP JUMPDEST SWAP1 POP SWAP3 SWAP2 POP POP JUMP JUMPDEST PUSH0 PUSH0 PUSH0 PUSH1 0x60 DUP5 DUP7 SUB SLT ISZERO PUSH2 0x47C9 JUMPI PUSH2 0x47C8 PUSH2 0x3DCD JUMP JUMPDEST JUMPDEST PUSH0 PUSH2 0x47D6 DUP7 DUP3 DUP8 ADD PUSH2 0x3EA7 JUMP JUMPDEST SWAP4 POP POP PUSH1 0x20 PUSH2 0x47E7 DUP7 DUP3 DUP8 ADD PUSH2 0x3EA7 JUMP JUMPDEST SWAP3 POP POP PUSH1 0x40 PUSH2 0x47F8 DUP7 DUP3 DUP8 ADD PUSH2 0x3F01 JUMP JUMPDEST SWAP2 POP POP SWAP3 POP SWAP3 POP SWAP3 JUMP JUMPDEST PUSH0 PUSH0 PUSH0 PUSH0 PUSH1 0x80 DUP6 DUP8 SUB SLT ISZERO PUSH2 0x481A JUMPI PUSH2 0x4819 PUSH2 0x3DCD JUMP JUMPDEST JUMPDEST PUSH0 PUSH2 0x4827 DUP8 DUP3 DUP9 ADD PUSH2 0x4370 JUMP JUMPDEST SWAP5 POP POP PUSH1 0x20 PUSH2 0x4838 DUP8 DUP3 DUP9 ADD PUSH2 0x3EA7 JUMP JUMPDEST SWAP4 POP POP PUSH1 0x40 PUSH2 0x4849 DUP8 DUP3 DUP9 ADD PUSH2 0x3EA7 JUMP JUMPDEST SWAP3 POP POP PUSH1 0x60 PUSH2 0x485A DUP8 DUP3 DUP9 ADD PUSH2 0x3F01 JUMP JUMPDEST SWAP2 POP POP SWAP3 SWAP6 SWAP2 SWAP5 POP SWAP3 POP JUMP JUMPDEST PUSH0 PUSH0 PUSH0 PUSH1 0x60 DUP5 DUP7 SUB SLT ISZERO PUSH2 0x487D JUMPI PUSH2 0x487C PUSH2 0x3DCD JUMP JUMPDEST JUMPDEST PUSH0 PUSH2 0x488A DUP7 DUP3 DUP8 ADD PUSH2 0x3F01 JUMP JUMPDEST SWAP4 POP POP PUSH1 0x20 PUSH2 0x489B DUP7 DUP3 DUP8 ADD PUSH2 0x3F01 JUMP JUMPDEST SWAP3 POP POP PUSH1 0x40 PUSH2 0x48AC DUP7 DUP3 DUP8 ADD PUSH2 0x3F01 JUMP JUMPDEST SWAP2 POP POP SWAP3 POP SWAP3 POP SWAP3 JUMP JUMPDEST PUSH0 PUSH0 PUSH0 PUSH0 PUSH0 PUSH1 0xA0 DUP7 DUP9 SUB SLT ISZERO PUSH2 0x48CF JUMPI PUSH2 0x48CE PUSH2 0x3DCD JUMP JUMPDEST JUMPDEST PUSH0 PUSH2 0x48DC DUP9 DUP3 DUP10 ADD PUSH2 0x3EA7 JUMP JUMPDEST SWAP6 POP POP PUSH1 0x20 PUSH2 0x48ED DUP9 DUP3 DUP10 ADD PUSH2 0x3EA7 JUMP JUMPDEST SWAP5 POP POP PUSH1 0x40 PUSH2 0x48FE DUP9 DUP3 DUP10 ADD PUSH2 0x3F01 JUMP JUMPDEST SWAP4 POP POP PUSH1 0x60 PUSH2 0x490F DUP9 DUP3 DUP10 ADD PUSH2 0x3EA7 JUMP JUMPDEST SWAP3 POP POP PUSH1 0x80 PUSH2 0x4920 DUP9 DUP3 DUP10 ADD PUSH2 0x3F01 JUMP JUMPDEST SWAP2 POP POP SWAP3 SWAP6 POP SWAP3 SWAP6 SWAP1 SWAP4 POP JUMP JUMPDEST PUSH2 0x4936 DUP2 PUSH2 0x3E88 JUMP JUMPDEST DUP3 MSTORE POP POP JUMP JUMPDEST PUSH2 0x4945 DUP2 PUSH2 0x3EDA JUMP JUMPDEST DUP3 MSTORE POP POP JUMP JUMPDEST PUSH2 0x4954 DUP2 PUSH2 0x46F9 JUMP JUMPDEST DUP3 MSTORE POP POP JUMP JUMPDEST DUP1 DUP3 MSTORE POP POP JUMP JUMPDEST PUSH0 PUSH1 0xE0 DUP3 ADD SWAP1 POP PUSH2 0x4974 PUSH0 DUP4 ADD DUP11 PUSH2 0x492D JUMP JUMPDEST PUSH2 0x4981 PUSH1 0x20 DUP4 ADD DUP10 PUSH2 0x493C JUMP JUMPDEST PUSH2 0x498E PUSH1 0x40 DUP4 ADD DUP9 PUSH2 0x494B JUMP JUMPDEST PUSH2 0x499B PUSH1 0x60 DUP4 ADD DUP8 PUSH2 0x495A JUMP JUMPDEST PUSH2 0x49A8 PUSH1 0x80 DUP4 ADD DUP7 PUSH2 0x492D JUMP JUMPDEST PUSH2 0x49B5 PUSH1 0xA0 DUP4 ADD DUP6 PUSH2 0x492D JUMP JUMPDEST PUSH2 0x49C2 PUSH1 0xC0 DUP4 ADD DUP5 PUSH2 0x492D JUMP JUMPDEST SWAP9 SWAP8 POP POP POP POP POP POP POP POP JUMP JUMPDEST PUSH0 DUP2 MLOAD SWAP1 POP PUSH2 0x49DC DUP2 PUSH2 0x3E91 JUMP JUMPDEST SWAP3 SWAP2 POP POP JUMP JUMPDEST PUSH0 PUSH1 0x20 DUP3 DUP5 SUB SLT ISZERO PUSH2 0x49F7 JUMPI PUSH2 0x49F6 PUSH2 0x3DCD JUMP JUMPDEST JUMPDEST PUSH0 PUSH2 0x4A04 DUP5 DUP3 DUP6 ADD PUSH2 0x49CE JUMP JUMPDEST SWAP2 POP POP SWAP3 SWAP2 POP POP JUMP JUMPDEST PUSH32 0x496E76616C6964206665652072616E6765000000000000000000000000000000 PUSH0 DUP3 ADD MSTORE POP JUMP JUMPDEST PUSH0 PUSH2 0x4A41 PUSH1 0x11 DUP4 PUSH2 0x473C JUMP JUMPDEST SWAP2 POP PUSH2 0x4A4C DUP3 PUSH2 0x4A0D JUMP JUMPDEST PUSH1 0x20 DUP3 ADD SWAP1 POP SWAP2 SWAP1 POP JUMP JUMPDEST PUSH0 PUSH1 0x20 DUP3 ADD SWAP1 POP DUP2 DUP2 SUB PUSH0 DUP4 ADD MSTORE PUSH2 0x4A6E DUP2 PUSH2 0x4A35 JUMP JUMPDEST SWAP1 POP SWAP2 SWAP1 POP JUMP JUMPDEST PUSH32 0x4D61782066656520746F6F206869676800000000000000000000000000000000 PUSH0 DUP3 ADD MSTORE POP JUMP JUMPDEST PUSH0 PUSH2 0x4AA9 PUSH1 0x10 DUP4 PUSH2 0x473C JUMP JUMPDEST SWAP2 POP PUSH2 0x4AB4 DUP3 PUSH2 0x4A75 JUMP JUMPDEST PUSH1 0x20 DUP3 ADD SWAP1 POP SWAP2 SWAP1 POP JUMP JUMPDEST PUSH0 PUSH1 0x20 DUP3 ADD SWAP1 POP DUP2 DUP2 SUB PUSH0 DUP4 ADD MSTORE PUSH2 0x4AD6 DUP2 PUSH2 0x4A9D JUMP JUMPDEST SWAP1 POP SWAP2 SWAP1 POP JUMP JUMPDEST PUSH32 0x4F6E6C79204343495020726F757465722063616E2063616C6C00000000000000 PUSH0 DUP3 ADD MSTORE POP JUMP JUMPDEST PUSH0 PUSH2 0x4B11 PUSH1 0x19 DUP4 PUSH2 0x473C JUMP JUMPDEST SWAP2 POP PUSH2 0x4B1C DUP3 PUSH2 0x4ADD JUMP JUMPDEST PUSH1 0x20 DUP3 ADD SWAP1 POP SWAP2 SWAP1 POP JUMP JUMPDEST PUSH0 PUSH1 0x20 DUP3 ADD SWAP1 POP DUP2 DUP2 SUB PUSH0 DUP4 ADD MSTORE PUSH2 0x4B3E DUP2 PUSH2 0x4B05 JUMP JUMPDEST SWAP1 POP SWAP2 SWAP1 POP JUMP JUMPDEST PUSH0 PUSH1 0x60 DUP3 ADD SWAP1 POP PUSH2 0x4B58 PUSH0 DUP4 ADD DUP7 PUSH2 0x428F JUMP JUMPDEST PUSH2 0x4B65 PUSH1 0x20 DUP4 ADD DUP6 PUSH2 0x428F JUMP JUMPDEST PUSH2 0x4B72 PUSH1 0x40 DUP4 ADD DUP5 PUSH2 0x3F53 JUMP JUMPDEST SWAP5 SWAP4 POP POP POP POP JUMP JUMPDEST PUSH0 PUSH1 0x40 DUP3 ADD SWAP1 POP PUSH2 0x4B8D PUSH0 DUP4 ADD DUP6 PUSH2 0x428F JUMP JUMPDEST PUSH2 0x4B9A PUSH1 0x20 DUP4 ADD DUP5 PUSH2 0x3F53 JUMP JUMPDEST SWAP4 SWAP3 POP POP POP JUMP JUMPDEST PUSH0 DUP2 MLOAD SWAP1 POP PUSH2 0x4BAF DUP2 PUSH2 0x4384 JUMP JUMPDEST SWAP3 SWAP2 POP POP JUMP JUMPDEST PUSH0 PUSH1 0x20 DUP3 DUP5 SUB SLT ISZERO PUSH2 0x4BCA JUMPI PUSH2 0x4BC9 PUSH2 0x3DCD JUMP JUMPDEST JUMPDEST PUSH0 PUSH2 0x4BD7 DUP5 DUP3 DUP6 ADD PUSH2 0x4BA1 JUMP JUMPDEST SWAP2 POP POP SWAP3 SWAP2 POP POP JUMP JUMPDEST DUP1 DUP3 MSTORE POP POP JUMP JUMPDEST PUSH0 PUSH1 0xE0 DUP3 ADD SWAP1 POP PUSH2 0x4BFA PUSH0 DUP4 ADD DUP11 PUSH2 0x492D JUMP JUMPDEST PUSH2 0x4C07 PUSH1 0x20 DUP4 ADD DUP10 PUSH2 0x492D JUMP JUMPDEST PUSH2 0x4C14 PUSH1 0x40 DUP4 ADD DUP9 PUSH2 0x493C JUMP JUMPDEST PUSH2 0x4C21 PUSH1 0x60 DUP4 ADD DUP8 PUSH2 0x4BE0 JUMP JUMPDEST PUSH2 0x4C2E PUSH1 0x80 DUP4 ADD DUP7 PUSH2 0x494B JUMP JUMPDEST PUSH2 0x4C3B PUSH1 0xA0 DUP4 ADD DUP6 PUSH2 0x495A JUMP JUMPDEST PUSH2 0x4C48 PUSH1 0xC0 DUP4 ADD DUP5 PUSH2 0x493C JUMP JUMPDEST SWAP9 SWAP8 POP POP POP POP POP POP POP POP JUMP JUMPDEST PUSH32 0x4E487B7100000000000000000000000000000000000000000000000000000000 PUSH0 MSTORE PUSH1 0x11 PUSH1 0x4 MSTORE PUSH1 0x24 PUSH0 REVERT JUMPDEST PUSH0 PUSH2 0x4C8B DUP3 PUSH2 0x3E88 JUMP JUMPDEST SWAP2 POP PUSH2 0x4C96 DUP4 PUSH2 0x3E88 JUMP JUMPDEST SWAP3 POP DUP3 DUP3 ADD SWAP1 POP DUP1 DUP3 GT ISZERO PUSH2 0x4CAE JUMPI PUSH2 0x4CAD PUSH2 0x4C54 JUMP JUMPDEST JUMPDEST SWAP3 SWAP2 POP POP JUMP JUMPDEST PUSH32 0x4E6F7420617574686F72697A6564206F722061756374696F6E206E6F74206578 PUSH0 DUP3 ADD MSTORE PUSH32 0x7069726564000000000000000000000000000000000000000000000000000000 PUSH1 0x20 DUP3 ADD MSTORE POP JUMP JUMPDEST PUSH0 PUSH2 0x4D0E PUSH1 0x25 DUP4 PUSH2 0x473C JUMP JUMPDEST SWAP2 POP PUSH2 0x4D19 DUP3 PUSH2 0x4CB4 JUMP JUMPDEST PUSH1 0x40 DUP3 ADD SWAP1 POP SWAP2 SWAP1 POP JUMP JUMPDEST PUSH0 PUSH1 0x20 DUP3 ADD SWAP1 POP DUP2 DUP2 SUB PUSH0 DUP4 ADD MSTORE PUSH2 0x4D3B DUP2 PUSH2 0x4D02 JUMP JUMPDEST SWAP1 POP SWAP2 SWAP1 POP JUMP JUMPDEST PUSH0 PUSH1 0x80 DUP3 ADD SWAP1 POP PUSH2 0x4D55 PUSH0 DUP4 ADD DUP8 PUSH2 0x492D JUMP JUMPDEST PUSH2 0x4D62 PUSH1 0x20 DUP4 ADD DUP7 PUSH2 0x4BE0 JUMP JUMPDEST PUSH2 0x4D6F PUSH1 0x40 DUP4 ADD DUP6 PUSH2 0x493C JUMP JUMPDEST PUSH2 0x4D7C PUSH1 0x60 DUP4 ADD DUP5 PUSH2 0x493C JUMP JUMPDEST SWAP6 SWAP5 POP POP POP POP POP JUMP JUMPDEST PUSH0 DUP2 SWAP1 POP SWAP2 SWAP1 POP JUMP JUMPDEST PUSH0 PUSH2 0x4DA8 PUSH2 0x4DA3 PUSH2 0x4D9E DUP5 PUSH2 0x4D85 JUMP JUMPDEST PUSH2 0x46BE JUMP JUMPDEST PUSH2 0x4347 JUMP JUMPDEST SWAP1 POP SWAP2 SWAP1 POP JUMP JUMPDEST PUSH2 0x4DB8 DUP2 PUSH2 0x4D8E JUMP JUMPDEST DUP3 MSTORE POP POP JUMP JUMPDEST PUSH0 PUSH1 0x20 DUP3 ADD SWAP1 POP PUSH2 0x4DD1 PUSH0 DUP4 ADD DUP5 PUSH2 0x4DAF JUMP JUMPDEST SWAP3 SWAP2 POP POP JUMP JUMPDEST PUSH32 0x41756374696F6E206475726174696F6E206E6565647320746F20626520617420 PUSH0 DUP3 ADD MSTORE PUSH32 0x6C65617374203130307300000000000000000000000000000000000000000000 PUSH1 0x20 DUP3 ADD MSTORE POP JUMP JUMPDEST PUSH0 PUSH2 0x4E31 PUSH1 0x2A DUP4 PUSH2 0x473C JUMP JUMPDEST SWAP2 POP PUSH2 0x4E3C DUP3 PUSH2 0x4DD7 JUMP JUMPDEST PUSH1 0x40 DUP3 ADD SWAP1 POP SWAP2 SWAP1 POP JUMP JUMPDEST PUSH0 PUSH1 0x20 DUP3 ADD SWAP1 POP DUP2 DUP2 SUB PUSH0 DUP4 ADD MSTORE PUSH2 0x4E5E DUP2 PUSH2 0x4E25 JUMP JUMPDEST SWAP1 POP SWAP2 SWAP1 POP JUMP JUMPDEST PUSH32 0x5374617274207072696365206D7573742062652067726561746572207468616E PUSH0 DUP3 ADD MSTORE PUSH32 0x2030000000000000000000000000000000000000000000000000000000000000 PUSH1 0x20 DUP3 ADD MSTORE POP JUMP JUMPDEST PUSH0 PUSH2 0x4EBF PUSH1 0x22 DUP4 PUSH2 0x473C JUMP JUMPDEST SWAP2 POP PUSH2 0x4ECA DUP3 PUSH2 0x4E65 JUMP JUMPDEST PUSH1 0x40 DUP3 ADD SWAP1 POP SWAP2 SWAP1 POP JUMP JUMPDEST PUSH0 PUSH1 0x20 DUP3 ADD SWAP1 POP DUP2 DUP2 SUB PUSH0 DUP4 ADD MSTORE PUSH2 0x4EEC DUP2 PUSH2 0x4EB3 JUMP JUMPDEST SWAP1 POP SWAP2 SWAP1 POP JUMP JUMPDEST PUSH32 0x546F6B656E2070726963652066656564206E6F7420636F6E6669677572656400 PUSH0 DUP3 ADD MSTORE POP JUMP JUMPDEST PUSH0 PUSH2 0x4F27 PUSH1 0x1F DUP4 PUSH2 0x473C JUMP JUMPDEST SWAP2 POP PUSH2 0x4F32 DUP3 PUSH2 0x4EF3 JUMP JUMPDEST PUSH1 0x20 DUP3 ADD SWAP1 POP SWAP2 SWAP1 POP JUMP JUMPDEST PUSH0 PUSH1 0x20 DUP3 ADD SWAP1 POP DUP2 DUP2 SUB PUSH0 DUP4 ADD MSTORE PUSH2 0x4F54 DUP2 PUSH2 0x4F1B JUMP JUMPDEST SWAP1 POP SWAP2 SWAP1 POP JUMP JUMPDEST PUSH0 DUP2 MLOAD SWAP1 POP PUSH2 0x4F69 DUP2 PUSH2 0x3EEB JUMP JUMPDEST SWAP3 SWAP2 POP POP JUMP JUMPDEST PUSH0 PUSH1 0x20 DUP3 DUP5 SUB SLT ISZERO PUSH2 0x4F84 JUMPI PUSH2 0x4F83 PUSH2 0x3DCD JUMP JUMPDEST JUMPDEST PUSH0 PUSH2 0x4F91 DUP5 DUP3 DUP6 ADD PUSH2 0x4F5B JUMP JUMPDEST SWAP2 POP POP SWAP3 SWAP2 POP POP JUMP JUMPDEST PUSH32 0x4E4654206E6F74206F776E6564206279207468652073656E6465720000000000 PUSH0 DUP3 ADD MSTORE POP JUMP JUMPDEST PUSH0 PUSH2 0x4FCE PUSH1 0x1B DUP4 PUSH2 0x473C JUMP JUMPDEST SWAP2 POP PUSH2 0x4FD9 DUP3 PUSH2 0x4F9A JUMP JUMPDEST PUSH1 0x20 DUP3 ADD SWAP1 POP SWAP2 SWAP1 POP JUMP JUMPDEST PUSH0 PUSH1 0x20 DUP3 ADD SWAP1 POP DUP2 DUP2 SUB PUSH0 DUP4 ADD MSTORE PUSH2 0x4FFB DUP2 PUSH2 0x4FC2 JUMP JUMPDEST SWAP1 POP SWAP2 SWAP1 POP JUMP JUMPDEST PUSH0 PUSH1 0x40 DUP3 ADD SWAP1 POP PUSH2 0x5015 PUSH0 DUP4 ADD DUP6 PUSH2 0x428F JUMP JUMPDEST PUSH2 0x5022 PUSH1 0x20 DUP4 ADD DUP5 PUSH2 0x428F JUMP JUMPDEST SWAP4 SWAP3 POP POP POP JUMP JUMPDEST PUSH32 0x4E4654206E6F7420617070726F76656420666F722061756374696F6E00000000 PUSH0 DUP3 ADD MSTORE POP JUMP JUMPDEST PUSH0 PUSH2 0x505D PUSH1 0x1C DUP4 PUSH2 0x473C JUMP JUMPDEST SWAP2 POP PUSH2 0x5068 DUP3 PUSH2 0x5029 JUMP JUMPDEST PUSH1 0x20 DUP3 ADD SWAP1 POP SWAP2 SWAP1 POP JUMP JUMPDEST PUSH0 PUSH1 0x20 DUP3 ADD SWAP1 POP DUP2 DUP2 SUB PUSH0 DUP4 ADD MSTORE PUSH2 0x508A DUP2 PUSH2 0x5051 JUMP JUMPDEST SWAP1 POP SWAP2 SWAP1 POP JUMP JUMPDEST PUSH0 PUSH2 0x509B DUP3 PUSH2 0x3E88 JUMP JUMPDEST SWAP2 POP PUSH32 0xFFFFFFFFFFFFFFFFFFFFFFFFFFFFFFFFFFFFFFFFFFFFFFFFFFFFFFFFFFFFFFFF DUP3 SUB PUSH2 0x50CD JUMPI PUSH2 0x50CC PUSH2 0x4C54 JUMP JUMPDEST JUMPDEST PUSH1 0x1 DUP3 ADD SWAP1 POP SWAP2 SWAP1 POP JUMP JUMPDEST PUSH0 DUP2 MLOAD SWAP1 POP PUSH2 0x50E6 DUP2 PUSH2 0x3F84 JUMP JUMPDEST SWAP3 SWAP2 POP POP JUMP JUMPDEST PUSH0 PUSH1 0x20 DUP3 DUP5 SUB SLT ISZERO PUSH2 0x5101 JUMPI PUSH2 0x5100 PUSH2 0x3DCD JUMP JUMPDEST JUMPDEST PUSH0 PUSH2 0x510E DUP5 DUP3 DUP6 ADD PUSH2 0x50D8 JUMP JUMPDEST SWAP2 POP POP SWAP3 SWAP2 POP POP JUMP JUMPDEST PUSH32 0x42696420616C7265616479206578656375746564000000000000000000000000 PUSH0 DUP3 ADD MSTORE POP JUMP JUMPDEST PUSH0 PUSH2 0x514B PUSH1 0x14 DUP4 PUSH2 0x473C JUMP JUMPDEST SWAP2 POP PUSH2 0x5156 DUP3 PUSH2 0x5117 JUMP JUMPDEST PUSH1 0x20 DUP3 ADD SWAP1 POP SWAP2 SWAP1 POP JUMP JUMPDEST PUSH0 PUSH1 0x20 DUP3 ADD SWAP1 POP DUP2 DUP2 SUB PUSH0 DUP4 ADD MSTORE PUSH2 0x5178 DUP2 PUSH2 0x513F JUMP JUMPDEST SWAP1 POP SWAP2 SWAP1 POP JUMP JUMPDEST PUSH0 PUSH1 0x60 DUP3 ADD SWAP1 POP PUSH2 0x5192 PUSH0 DUP4 ADD DUP7 PUSH2 0x428F JUMP JUMPDEST PUSH2 0x519F PUSH1 0x20 DUP4 ADD DUP6 PUSH2 0x3F53 JUMP JUMPDEST PUSH2 0x51AC PUSH1 0x40 DUP4 ADD DUP5 PUSH2 0x428F JUMP JUMPDEST SWAP5 SWAP4 POP POP POP POP JUMP JUMPDEST PUSH32 0x496E76616C696420736F7572636520636861696E000000000000000000000000 PUSH0 DUP3 ADD MSTORE POP JUMP JUMPDEST PUSH0 PUSH2 0x51E8 PUSH1 0x14 DUP4 PUSH2 0x473C JUMP JUMPDEST SWAP2 POP PUSH2 0x51F3 DUP3 PUSH2 0x51B4 JUMP JUMPDEST PUSH1 0x20 DUP3 ADD SWAP1 POP SWAP2 SWAP1 POP JUMP JUMPDEST PUSH0 PUSH1 0x20 DUP3 ADD SWAP1 POP DUP2 DUP2 SUB PUSH0 DUP4 ADD MSTORE PUSH2 0x5215 DUP2 PUSH2 0x51DC JUMP JUMPDEST SWAP1 POP SWAP2 SWAP1 POP JUMP JUMPDEST PUSH0 PUSH2 0x5226 DUP3 PUSH2 0x3EBB JUMP JUMPDEST SWAP1 POP SWAP2 SWAP1 POP JUMP JUMPDEST PUSH2 0x5236 DUP2 PUSH2 0x521C JUMP JUMPDEST DUP2 EQ PUSH2 0x5240 JUMPI PUSH0 PUSH0 REVERT JUMPDEST POP JUMP JUMPDEST PUSH0 DUP2 MLOAD SWAP1 POP PUSH2 0x5251 DUP2 PUSH2 0x522D JUMP JUMPDEST SWAP3 SWAP2 POP POP JUMP JUMPDEST PUSH0 PUSH0 PUSH0 PUSH0 PUSH1 0x80 DUP6 DUP8 SUB SLT ISZERO PUSH2 0x526F JUMPI PUSH2 0x526E PUSH2 0x3DCD JUMP JUMPDEST JUMPDEST PUSH0 PUSH2 0x527C DUP8 DUP3 DUP9 ADD PUSH2 0x5243 JUMP JUMPDEST SWAP5 POP POP PUSH1 0x20 PUSH2 0x528D DUP8 DUP3 DUP9 ADD PUSH2 0x49CE JUMP JUMPDEST SWAP4 POP POP PUSH1 0x40 PUSH2 0x529E DUP8 DUP3 DUP9 ADD PUSH2 0x49CE JUMP JUMPDEST SWAP3 POP POP PUSH1 0x60 PUSH2 0x52AF DUP8 DUP3 DUP9 ADD PUSH2 0x5243 JUMP JUMPDEST SWAP2 POP POP SWAP3 SWAP6 SWAP2 SWAP5 POP SWAP3 POP JUMP JUMPDEST PUSH2 0x52C4 DUP2 PUSH2 0x4347 JUMP JUMPDEST DUP3 MSTORE POP POP JUMP JUMPDEST PUSH0 PUSH1 0x60 DUP3 ADD SWAP1 POP PUSH2 0x52DD PUSH0 DUP4 ADD DUP7 PUSH2 0x52BB JUMP JUMPDEST PUSH2 0x52EA PUSH1 0x20 DUP4 ADD DUP6 PUSH2 0x428F JUMP JUMPDEST PUSH2 0x52F7 PUSH1 0x40 DUP4 ADD DUP5 PUSH2 0x3F53 JUMP JUMPDEST SWAP5 SWAP4 POP POP POP POP JUMP JUMPDEST PUSH32 0x43434950206E6F7420636F6E6669677572656400000000000000000000000000 PUSH0 DUP3 ADD MSTORE POP JUMP JUMPDEST PUSH0 PUSH2 0x5333 PUSH1 0x13 DUP4 PUSH2 0x473C JUMP JUMPDEST SWAP2 POP PUSH2 0x533E DUP3 PUSH2 0x52FF JUMP JUMPDEST PUSH1 0x20 DUP3 ADD SWAP1 POP SWAP2 SWAP1 POP JUMP JUMPDEST PUSH0 PUSH1 0x20 DUP3 ADD SWAP1 POP DUP2 DUP2 SUB PUSH0 DUP4 ADD MSTORE PUSH2 0x5360 DUP2 PUSH2 0x5327 JUMP JUMPDEST SWAP1 POP SWAP2 SWAP1 POP JUMP JUMPDEST PUSH32 0x496E73756666696369656E742045544820666F72206269640000000000000000 PUSH0 DUP3 ADD MSTORE POP JUMP JUMPDEST PUSH0 PUSH2 0x539B PUSH1 0x18 DUP4 PUSH2 0x473C JUMP JUMPDEST SWAP2 POP PUSH2 0x53A6 DUP3 PUSH2 0x5367 JUMP JUMPDEST PUSH1 0x20 DUP3 ADD SWAP1 POP SWAP2 SWAP1 POP JUMP JUMPDEST PUSH0 PUSH1 0x20 DUP3 ADD SWAP1 POP DUP2 DUP2 SUB PUSH0 DUP4 ADD MSTORE PUSH2 0x53C8 DUP2 PUSH2 0x538F JUMP JUMPDEST SWAP1 POP SWAP2 SWAP1 POP JUMP JUMPDEST PUSH0 PUSH1 0x80 DUP3 ADD SWAP1 POP PUSH2 0x53E2 PUSH0 DUP4 ADD DUP8 PUSH2 0x428F JUMP JUMPDEST PUSH2 0x53EF PUSH1 0x20 DUP4 ADD DUP7 PUSH2 0x3F53 JUMP JUMPDEST PUSH2 0x53FC PUSH1 0x40 DUP4 ADD DUP6 PUSH2 0x3F53 JUMP JUMPDEST PUSH2 0x5409 PUSH1 0x60 DUP4 ADD DUP5 PUSH2 0x428F JUMP JUMPDEST SWAP6 SWAP5 POP POP POP POP POP JUMP JUMPDEST PUSH0 DUP2 MLOAD SWAP1 POP SWAP2 SWAP1 POP JUMP JUMPDEST PUSH0 DUP3 DUP3 MSTORE PUSH1 0x20 DUP3 ADD SWAP1 POP SWAP3 SWAP2 POP POP JUMP JUMPDEST PUSH0 PUSH2 0x5436 DUP3 PUSH2 0x5412 JUMP JUMPDEST PUSH2 0x5440 DUP2 DUP6 PUSH2 0x541C JUMP JUMPDEST SWAP4 POP PUSH2 0x5450 DUP2 DUP6 PUSH1 0x20 DUP7 ADD PUSH2 0x474C JUMP JUMPDEST PUSH2 0x5459 DUP2 PUSH2 0x40D6 JUMP JUMPDEST DUP5 ADD SWAP2 POP POP SWAP3 SWAP2 POP POP JUMP JUMPDEST PUSH0 DUP2 MLOAD SWAP1 POP SWAP2 SWAP1 POP JUMP JUMPDEST PUSH0 DUP3 DUP3 MSTORE PUSH1 0x20 DUP3 ADD SWAP1 POP SWAP3 SWAP2 POP POP JUMP JUMPDEST PUSH0 DUP2 SWAP1 POP PUSH1 0x20 DUP3 ADD SWAP1 POP SWAP2 SWAP1 POP JUMP JUMPDEST PUSH2 0x5496 DUP2 PUSH2 0x3EDA JUMP JUMPDEST DUP3 MSTORE POP POP JUMP JUMPDEST PUSH2 0x54A5 DUP2 PUSH2 0x3E88 JUMP JUMPDEST DUP3 MSTORE POP POP JUMP JUMPDEST PUSH1 0x40 DUP3 ADD PUSH0 DUP3 ADD MLOAD PUSH2 0x54BF PUSH0 DUP6 ADD DUP3 PUSH2 0x548D JUMP JUMPDEST POP PUSH1 0x20 DUP3 ADD MLOAD PUSH2 0x54D2 PUSH1 0x20 DUP6 ADD DUP3 PUSH2 0x549C JUMP JUMPDEST POP POP POP POP JUMP JUMPDEST PUSH0 PUSH2 0x54E3 DUP4 DUP4 PUSH2 0x54AB JUMP JUMPDEST PUSH1 0x40 DUP4 ADD SWAP1 POP SWAP3 SWAP2 POP POP JUMP JUMPDEST PUSH0 PUSH1 0x20 DUP3 ADD SWAP1 POP SWAP2 SWAP1 POP JUMP JUMPDEST PUSH0 PUSH2 0x5505 DUP3 PUSH2 0x5464 JUMP JUMPDEST PUSH2 0x550F DUP2 DUP6 PUSH2 0x546E JUMP JUMPDEST SWAP4 POP PUSH2 0x551A DUP4 PUSH2 0x547E JUMP JUMPDEST DUP1 PUSH0 JUMPDEST DUP4 DUP2 LT ISZERO PUSH2 0x554A JUMPI DUP2 MLOAD PUSH2 0x5531 DUP9 DUP3 PUSH2 0x54D8 JUMP JUMPDEST SWAP8 POP PUSH2 0x553C DUP4 PUSH2 0x54EF JUMP JUMPDEST SWAP3 POP POP PUSH1 0x1 DUP2 ADD SWAP1 POP PUSH2 0x551D JUMP JUMPDEST POP DUP6 SWAP4 POP POP POP POP SWAP3 SWAP2 POP POP JUMP JUMPDEST PUSH0 PUSH1 0xA0 DUP4 ADD PUSH0 DUP4 ADD MLOAD DUP5 DUP3 SUB PUSH0 DUP7 ADD MSTORE PUSH2 0x5571 DUP3 DUP3 PUSH2 0x542C JUMP JUMPDEST SWAP2 POP POP PUSH1 0x20 DUP4 ADD MLOAD DUP5 DUP3 SUB PUSH1 0x20 DUP7 ADD MSTORE PUSH2 0x558B DUP3 DUP3 PUSH2 0x542C JUMP JUMPDEST SWAP2 POP POP PUSH1 0x40 DUP4 ADD MLOAD DUP5 DUP3 SUB PUSH1 0x40 DUP7 ADD MSTORE PUSH2 0x55A5 DUP3 DUP3 PUSH2 0x54FB JUMP JUMPDEST SWAP2 POP POP PUSH1 0x60 DUP4 ADD MLOAD PUSH2 0x55BA PUSH1 0x60 DUP7 ADD DUP3 PUSH2 0x548D JUMP JUMPDEST POP PUSH1 0x80 DUP4 ADD MLOAD DUP5 DUP3 SUB PUSH1 0x80 DUP7 ADD MSTORE PUSH2 0x55D2 DUP3 DUP3 PUSH2 0x542C JUMP JUMPDEST SWAP2 POP POP DUP1 SWAP2 POP POP SWAP3 SWAP2 POP POP JUMP JUMPDEST PUSH0 PUSH1 0x40 DUP3 ADD SWAP1 POP PUSH2 0x55F2 PUSH0 DUP4 ADD DUP6 PUSH2 0x52BB JUMP JUMPDEST DUP2 DUP2 SUB PUSH1 0x20 DUP4 ADD MSTORE PUSH2 0x5604 DUP2 DUP5 PUSH2 0x5557 JUMP JUMPDEST SWAP1 POP SWAP4 SWAP3 POP POP POP JUMP JUMPDEST PUSH32 0x496E73756666696369656E742045544820666F722062696420616E6420434349 PUSH0 DUP3 ADD MSTORE PUSH32 0x5020666565000000000000000000000000000000000000000000000000000000 PUSH1 0x20 DUP3 ADD MSTORE POP JUMP JUMPDEST PUSH0 PUSH2 0x5667 PUSH1 0x25 DUP4 PUSH2 0x473C JUMP JUMPDEST SWAP2 POP PUSH2 0x5672 DUP3 PUSH2 0x560D JUMP JUMPDEST PUSH1 0x40 DUP3 ADD SWAP1 POP SWAP2 SWAP1 POP JUMP JUMPDEST PUSH0 PUSH1 0x20 DUP3 ADD SWAP1 POP DUP2 DUP2 SUB PUSH0 DUP4 ADD MSTORE PUSH2 0x5694 DUP2 PUSH2 0x565B JUMP JUMPDEST SWAP1 POP SWAP2 SWAP1 POP JUMP JUMPDEST PUSH32 0x496E73756666696369656E742045544820666F72204343495020666565000000 PUSH0 DUP3 ADD MSTORE POP JUMP JUMPDEST PUSH0 PUSH2 0x56CF PUSH1 0x1D DUP4 PUSH2 0x473C JUMP JUMPDEST SWAP2 POP PUSH2 0x56DA DUP3 PUSH2 0x569B JUMP JUMPDEST PUSH1 0x20 DUP3 ADD SWAP1 POP SWAP2 SWAP1 POP JUMP JUMPDEST PUSH0 PUSH1 0x20 DUP3 ADD SWAP1 POP DUP2 DUP2 SUB PUSH0 DUP4 ADD MSTORE PUSH2 0x56FC DUP2 PUSH2 0x56C3 JUMP JUMPDEST SWAP1 POP SWAP2 SWAP1 POP JUMP JUMPDEST PUSH0 PUSH1 0x40 DUP3 ADD SWAP1 POP PUSH2 0x5716 PUSH0 DUP4 ADD DUP6 PUSH2 0x428F JUMP JUMPDEST PUSH2 0x5723 PUSH1 0x20 DUP4 ADD DUP5 PUSH2 0x3FD9 JUMP JUMPDEST SWAP4 SWAP3 POP POP POP JUMP JUMPDEST PUSH0 PUSH10 0xFFFFFFFFFFFFFFFFFFFF DUP3 AND SWAP1 POP SWAP2 SWAP1 POP JUMP JUMPDEST PUSH2 0x5748 DUP2 PUSH2 0x572A JUMP JUMPDEST DUP2 EQ PUSH2 0x5752 JUMPI PUSH0 PUSH0 REVERT JUMPDEST POP JUMP JUMPDEST PUSH0 DUP2 MLOAD SWAP1 POP PUSH2 0x5763 DUP2 PUSH2 0x573F JUMP JUMPDEST SWAP3 SWAP2 POP POP JUMP JUMPDEST PUSH0 DUP2 SWAP1 POP SWAP2 SWAP1 POP JUMP JUMPDEST PUSH2 0x577B DUP2 PUSH2 0x5769 JUMP JUMPDEST DUP2 EQ PUSH2 0x5785 JUMPI PUSH0 PUSH0 REVERT JUMPDEST POP JUMP JUMPDEST PUSH0 DUP2 MLOAD SWAP1 POP PUSH2 0x5796 DUP2 PUSH2 0x5772 JUMP JUMPDEST SWAP3 SWAP2 POP POP JUMP JUMPDEST PUSH0 PUSH0 PUSH0 PUSH0 PUSH0 PUSH1 0xA0 DUP7 DUP9 SUB SLT ISZERO PUSH2 0x57B5 JUMPI PUSH2 0x57B4 PUSH2 0x3DCD JUMP JUMPDEST JUMPDEST PUSH0 PUSH2 0x57C2 DUP9 DUP3 DUP10 ADD PUSH2 0x5755 JUMP JUMPDEST SWAP6 POP POP PUSH1 0x20 PUSH2 0x57D3 DUP9 DUP3 DUP10 ADD PUSH2 0x5788 JUMP JUMPDEST SWAP5 POP POP PUSH1 0x40 PUSH2 0x57E4 DUP9 DUP3 DUP10 ADD PUSH2 0x49CE JUMP JUMPDEST SWAP4 POP POP PUSH1 0x60 PUSH2 0x57F5 DUP9 DUP3 DUP10 ADD PUSH2 0x49CE JUMP JUMPDEST SWAP3 POP POP PUSH1 0x80 PUSH2 0x5806 DUP9 DUP3 DUP10 ADD PUSH2 0x5755 JUMP JUMPDEST SWAP2 POP POP SWAP3 SWAP6 POP SWAP3 SWAP6 SWAP1 SWAP4 POP JUMP JUMPDEST PUSH32 0x496E76616C696420707269636500000000000000000000000000000000000000 PUSH0 DUP3 ADD MSTORE POP JUMP JUMPDEST PUSH0 PUSH2 0x5847 PUSH1 0xD DUP4 PUSH2 0x473C JUMP JUMPDEST SWAP2 POP PUSH2 0x5852 DUP3 PUSH2 0x5813 JUMP JUMPDEST PUSH1 0x20 DUP3 ADD SWAP1 POP SWAP2 SWAP1 POP JUMP JUMPDEST PUSH0 PUSH1 0x20 DUP3 ADD SWAP1 POP DUP2 DUP2 SUB PUSH0 DUP4 ADD MSTORE PUSH2 0x5874 DUP2 PUSH2 0x583B JUMP JUMPDEST SWAP1 POP SWAP2 SWAP1 POP JUMP JUMPDEST PUSH0 PUSH1 0xFF DUP3 AND SWAP1 POP SWAP2 SWAP1 POP JUMP JUMPDEST PUSH2 0x5890 DUP2 PUSH2 0x587B JUMP JUMPDEST DUP2 EQ PUSH2 0x589A JUMPI PUSH0 PUSH0 REVERT JUMPDEST POP JUMP JUMPDEST PUSH0 DUP2 MLOAD SWAP1 POP PUSH2 0x58AB DUP2 PUSH2 0x5887 JUMP JUMPDEST SWAP3 SWAP2 POP POP JUMP JUMPDEST PUSH0 PUSH1 0x20 DUP3 DUP5 SUB SLT ISZERO PUSH2 0x58C6 JUMPI PUSH2 0x58C5 PUSH2 0x3DCD JUMP JUMPDEST JUMPDEST PUSH0 PUSH2 0x58D3 DUP5 DUP3 DUP6 ADD PUSH2 0x589D JUMP JUMPDEST SWAP2 POP POP SWAP3 SWAP2 POP POP JUMP JUMPDEST PUSH0 DUP2 PUSH1 0x1 SHR SWAP1 POP SWAP2 SWAP1 POP JUMP JUMPDEST PUSH0 PUSH0 DUP3 SWAP2 POP DUP4 SWAP1 POP JUMPDEST PUSH1 0x1 DUP6 GT ISZERO PUSH2 0x5931 JUMPI DUP1 DUP7 DIV DUP2 GT ISZERO PUSH2 0x590D JUMPI PUSH2 0x590C PUSH2 0x4C54 JUMP JUMPDEST JUMPDEST PUSH1 0x1 DUP6 AND ISZERO PUSH2 0x591C JUMPI DUP1 DUP3 MUL SWAP2 POP JUMPDEST DUP1 DUP2 MUL SWAP1 POP PUSH2 0x592A DUP6 PUSH2 0x58DC JUMP JUMPDEST SWAP5 POP PUSH2 0x58F1 JUMP JUMPDEST SWAP5 POP SWAP5 SWAP3 POP POP POP JUMP JUMPDEST PUSH0 DUP3 PUSH2 0x5949 JUMPI PUSH1 0x1 SWAP1 POP PUSH2 0x5A04 JUMP JUMPDEST DUP2 PUSH2 0x5956 JUMPI PUSH0 SWAP1 POP PUSH2 0x5A04 JUMP JUMPDEST DUP2 PUSH1 0x1 DUP2 EQ PUSH2 0x596C JUMPI PUSH1 0x2 DUP2 EQ PUSH2 0x5976 JUMPI PUSH2 0x59A5 JUMP JUMPDEST PUSH1 0x1 SWAP2 POP POP PUSH2 0x5A04 JUMP JUMPDEST PUSH1 0xFF DUP5 GT ISZERO PUSH2 0x5988 JUMPI PUSH2 0x5987 PUSH2 0x4C54 JUMP JUMPDEST JUMPDEST DUP4 PUSH1 0x2 EXP SWAP2 POP DUP5 DUP3 GT ISZERO PUSH2 0x599F JUMPI PUSH2 0x599E PUSH2 0x4C54 JUMP JUMPDEST JUMPDEST POP PUSH2 0x5A04 JUMP JUMPDEST POP PUSH1 0x20 DUP4 LT PUSH2 0x133 DUP4 LT AND PUSH1 0x4E DUP5 LT PUSH1 0xB DUP5 LT AND OR ISZERO PUSH2 0x59DA JUMPI DUP3 DUP3 EXP SWAP1 POP DUP4 DUP2 GT ISZERO PUSH2 0x59D5 JUMPI PUSH2 0x59D4 PUSH2 0x4C54 JUMP JUMPDEST JUMPDEST PUSH2 0x5A04 JUMP JUMPDEST PUSH2 0x59E7 DUP5 DUP5 DUP5 PUSH1 0x1 PUSH2 0x58E8 JUMP JUMPDEST SWAP3 POP SWAP1 POP DUP2 DUP5 DIV DUP2 GT ISZERO PUSH2 0x59FE JUMPI PUSH2 0x59FD PUSH2 0x4C54 JUMP JUMPDEST JUMPDEST DUP2 DUP2 MUL SWAP1 POP JUMPDEST SWAP4 SWAP3 POP POP POP JUMP JUMPDEST PUSH0 PUSH2 0x5A15 DUP3 PUSH2 0x3E88 JUMP JUMPDEST SWAP2 POP PUSH2 0x5A20 DUP4 PUSH2 0x587B JUMP JUMPDEST SWAP3 POP PUSH2 0x5A4D PUSH32 0xFFFFFFFFFFFFFFFFFFFFFFFFFFFFFFFFFFFFFFFFFFFFFFFFFFFFFFFFFFFFFFFF DUP5 DUP5 PUSH2 0x593A JUMP JUMPDEST SWAP1 POP SWAP3 SWAP2 POP POP JUMP JUMPDEST PUSH0 PUSH2 0x5A5F DUP3 PUSH2 0x3E88 JUMP JUMPDEST SWAP2 POP PUSH2 0x5A6A DUP4 PUSH2 0x3E88 JUMP JUMPDEST SWAP3 POP DUP3 DUP3 MUL PUSH2 0x5A78 DUP2 PUSH2 0x3E88 JUMP JUMPDEST SWAP2 POP DUP3 DUP3 DIV DUP5 EQ DUP4 ISZERO OR PUSH2 0x5A8F JUMPI PUSH2 0x5A8E PUSH2 0x4C54 JUMP JUMPDEST JUMPDEST POP SWAP3 SWAP2 POP POP JUMP JUMPDEST PUSH32 0x4E487B7100000000000000000000000000000000000000000000000000000000 PUSH0 MSTORE PUSH1 0x12 PUSH1 0x4 MSTORE PUSH1 0x24 PUSH0 REVERT JUMPDEST PUSH0 PUSH2 0x5ACD DUP3 PUSH2 0x3E88 JUMP JUMPDEST SWAP2 POP PUSH2 0x5AD8 DUP4 PUSH2 0x3E88 JUMP JUMPDEST SWAP3 POP DUP3 PUSH2 0x5AE8 JUMPI PUSH2 0x5AE7 PUSH2 0x5A96 JUMP JUMPDEST JUMPDEST DUP3 DUP3 DIV SWAP1 POP SWAP3 SWAP2 POP POP JUMP JUMPDEST PUSH1 0x20 DUP3 ADD PUSH0 DUP3 ADD MLOAD PUSH2 0x5B07 PUSH0 DUP6 ADD DUP3 PUSH2 0x549C JUMP JUMPDEST POP POP POP POP JUMP JUMPDEST PUSH0 PUSH1 0x20 DUP3 ADD SWAP1 POP PUSH2 0x5B20 PUSH0 DUP4 ADD DUP5 PUSH2 0x5AF3 JUMP JUMPDEST SWAP3 SWAP2 POP POP JUMP JUMPDEST PUSH0 DUP2 SWAP1 POP SWAP3 SWAP2 POP POP JUMP JUMPDEST PUSH0 PUSH2 0x5B3A DUP3 PUSH2 0x5412 JUMP JUMPDEST PUSH2 0x5B44 DUP2 DUP6 PUSH2 0x5B26 JUMP JUMPDEST SWAP4 POP PUSH2 0x5B54 DUP2 DUP6 PUSH1 0x20 DUP7 ADD PUSH2 0x474C JUMP JUMPDEST DUP1 DUP5 ADD SWAP2 POP POP SWAP3 SWAP2 POP POP JUMP JUMPDEST PUSH0 PUSH2 0x5B6B DUP3 DUP5 PUSH2 0x5B30 JUMP JUMPDEST SWAP2 POP DUP2 SWAP1 POP SWAP3 SWAP2 POP POP JUMP INVALID LOG2 PUSH5 0x6970667358 0x22 SLT KECCAK256 0xCE PUSH12 0x4F313555D25D578636C9DD65 0xB7 0xBD PUSH8 0xBEC5373F401B643B CODECOPY CALLF 0x3AE5 MULMOD 0x27 0xDE PUSH5 0x736F6C6343 STOP ADDMOD 0x1E STOP CALLER "
		},
		"gasEstimates": {
			"creation": {
				"codeDepositCost": "4693600",
				"executionCost": "infinite",
				"totalCost": "infinite"
			},
			"external": {
				"": "219",
				"ADMIN_ROLE()": "370",
				"DEFAULT_ADMIN_ROLE()": "418",
				"UPGRADER_ROLE()": "435",
				"UPGRADE_INTERFACE_VERSION()": "infinite",
				"auctions(uint256)": "infinite",
				"baseFeePercentage()": "2558",
				"calculateDynamicFee(uint256,address)": "infinite",
				"ccipReceive((bytes32,uint64,bytes,bytes,(address,uint256)[]))": "infinite",
				"ccipRouterAddress()": "2597",
				"createAuction(uint256,uint256,address,uint256,address)": "infinite",
				"emergencyWithdraw(address,uint256)": "infinite",
				"emergencyWithdrawNFT(address,uint256)": "infinite",
				"endAuction(uint256)": "infinite",
				"ethPriceFeed()": "infinite",
				"executeCrossChainBid(bytes32)": "infinite",
				"feeCollector()": "2574",
				"getRoleAdmin(bytes32)": "infinite",
				"grantRole(bytes32,address)": "infinite",
				"hasRole(bytes32,address)": "3262",
				"initialize(address,address,address)": "infinite",
				"maxFeePercentage()": "2536",
				"minFeePercentage()": "2538",
				"nextAuctionId()": "2557",
				"pause()": "infinite",
				"paused()": "2636",
				"placeBid(uint256,uint256,address)": "infinite",
				"priceFeeds(address)": "infinite",
				"proxiableUUID()": "infinite",
				"renounceRole(bytes32,address)": "infinite",
				"revokeRole(bytes32,address)": "infinite",
				"sendCrossChainBid(uint64,uint256,uint256,address)": "infinite",
				"setAllowedSourceChain(uint64,bool)": "infinite",
				"setCCIPRouter(address)": "infinite",
				"setFeeParamters(uint256,uint256,uint256,address)": "infinite",
				"setPriceFeed(address,address)": "infinite",
				"supportsInterface(bytes4)": "764",
				"unpause()": "infinite",
				"upgradeToAndCall(address,bytes)": "infinite"
			},
			"internal": {
				"_authorizeUpgrade(address)": "infinite"
			}
		},
		"methodIdentifiers": {
			"ADMIN_ROLE()": "75b238fc",
			"DEFAULT_ADMIN_ROLE()": "a217fddf",
			"UPGRADER_ROLE()": "f72c0d8b",
			"UPGRADE_INTERFACE_VERSION()": "ad3cb1cc",
			"auctions(uint256)": "571a26a0",
			"baseFeePercentage()": "8375bb39",
			"calculateDynamicFee(uint256,address)": "236fc47b",
			"ccipReceive((bytes32,uint64,bytes,bytes,(address,uint256)[]))": "85572ffb",
			"ccipRouterAddress()": "77698771",
			"createAuction(uint256,uint256,address,uint256,address)": "c217d4d6",
			"emergencyWithdraw(address,uint256)": "95ccea67",
			"emergencyWithdrawNFT(address,uint256)": "922b8079",
			"endAuction(uint256)": "b9a2de3a",
			"ethPriceFeed()": "af7665ce",
			"executeCrossChainBid(bytes32)": "7bc9412b",
			"feeCollector()": "c415b95c",
			"getRoleAdmin(bytes32)": "248a9ca3",
			"grantRole(bytes32,address)": "2f2ff15d",
			"hasRole(bytes32,address)": "91d14854",
			"initialize(address,address,address)": "c0c53b8b",
			"maxFeePercentage()": "bf654aac",
			"minFeePercentage()": "2a0b17ee",
			"nextAuctionId()": "fc528482",
			"pause()": "8456cb59",
			"paused()": "5c975abb",
			"placeBid(uint256,uint256,address)": "ad6561ec",
			"priceFeeds(address)": "9dcb511a",
			"proxiableUUID()": "52d1902d",
			"renounceRole(bytes32,address)": "36568abe",
			"revokeRole(bytes32,address)": "d547741f",
			"sendCrossChainBid(uint64,uint256,uint256,address)": "b2703dc6",
			"setAllowedSourceChain(uint64,bool)": "5d9a2c48",
			"setCCIPRouter(address)": "31c1e16a",
			"setFeeParamters(uint256,uint256,uint256,address)": "49eec932",
			"setPriceFeed(address,address)": "76e11286",
			"supportsInterface(bytes4)": "01ffc9a7",
			"unpause()": "3f4ba83a",
			"upgradeToAndCall(address,bytes)": "4f1ef286"
		}
	},
	"abi": [
		{
			"inputs": [],
			"name": "AccessControlBadConfirmation",
			"type": "error"
		},
		{
			"inputs": [
				{
					"internalType": "address",
					"name": "account",
					"type": "address"
				},
				{
					"internalType": "bytes32",
					"name": "neededRole",
					"type": "bytes32"
				}
			],
			"name": "AccessControlUnauthorizedAccount",
			"type": "error"
		},
		{
			"inputs": [
				{
					"internalType": "address",
					"name": "target",
					"type": "address"
				}
			],
			"name": "AddressEmptyCode",
			"type": "error"
		},
		{
			"inputs": [
				{
					"internalType": "address",
					"name": "implementation",
					"type": "address"
				}
			],
			"name": "ERC1967InvalidImplementation",
			"type": "error"
		},
		{
			"inputs": [],
			"name": "ERC1967NonPayable",
			"type": "error"
		},
		{
			"inputs": [],
			"name": "EnforcedPause",
			"type": "error"
		},
		{
			"inputs": [],
			"name": "ExpectedPause",
			"type": "error"
		},
		{
			"inputs": [],
			"name": "FailedCall",
			"type": "error"
		},
		{
			"inputs": [],
			"name": "InvalidInitialization",
			"type": "error"
		},
		{
			"inputs": [],
			"name": "NotInitializing",
			"type": "error"
		},
		{
			"inputs": [],
			"name": "ReentrancyGuardReentrantCall",
			"type": "error"
		},
		{
			"inputs": [],
			"name": "UUPSUnauthorizedCallContext",
			"type": "error"
		},
		{
			"inputs": [
				{
					"internalType": "bytes32",
					"name": "slot",
					"type": "bytes32"
				}
			],
			"name": "UUPSUnsupportedProxiableUUID",
			"type": "error"
		},
		{
			"anonymous": false,
			"inputs": [
				{
					"indexed": true,
					"internalType": "uint256",
					"name": "auctionId",
					"type": "uint256"
				},
				{
					"indexed": true,
					"internalType": "address",
					"name": "seller",
					"type": "address"
				},
				{
					"indexed": false,
					"internalType": "address",
					"name": "nftAddress",
					"type": "address"
				},
				{
					"indexed": false,
					"internalType": "uint256",
					"name": "nftId",
					"type": "uint256"
				}
			],
			"name": "AuctionCreated",
			"type": "event"
		},
		{
			"anonymous": false,
			"inputs": [
				{
					"indexed": true,
					"internalType": "uint256",
					"name": "auctionId",
					"type": "uint256"
				},
				{
					"indexed": false,
					"internalType": "address",
					"name": "bidder",
					"type": "address"
				},
				{
					"indexed": false,
					"internalType": "uint256",
					"name": "amount",
					"type": "uint256"
				},
				{
					"indexed": false,
					"internalType": "address",
					"name": "tokenAddress",
					"type": "address"
				}
			],
			"name": "BidPlaced",
			"type": "event"
		},
		{
			"anonymous": false,
			"inputs": [
				{
					"indexed": true,
					"internalType": "bytes32",
					"name": "messageId",
					"type": "bytes32"
				},
				{
					"indexed": false,
					"internalType": "uint256",
					"name": "auctionId",
					"type": "uint256"
				}
			],
			"name": "CrossChainBidExecuted",
			"type": "event"
		},
		{
			"anonymous": false,
			"inputs": [
				{
					"indexed": true,
					"internalType": "bytes32",
					"name": "messageId",
					"type": "bytes32"
				},
				{
					"indexed": false,
					"internalType": "uint64",
					"name": "sourceChainId",
					"type": "uint64"
				},
				{
					"indexed": false,
					"internalType": "address",
					"name": "bidder",
					"type": "address"
				},
				{
					"indexed": false,
					"internalType": "uint256",
					"name": "amount",
					"type": "uint256"
				}
			],
			"name": "CrossChainBidReceived",
			"type": "event"
		},
		{
			"anonymous": false,
			"inputs": [
				{
					"indexed": false,
					"internalType": "uint64",
					"name": "version",
					"type": "uint64"
				}
			],
			"name": "Initialized",
			"type": "event"
		},
		{
			"anonymous": false,
			"inputs": [
				{
					"indexed": false,
					"internalType": "address",
					"name": "account",
					"type": "address"
				}
			],
			"name": "Paused",
			"type": "event"
		},
		{
			"anonymous": false,
			"inputs": [
				{
					"indexed": true,
					"internalType": "bytes32",
					"name": "role",
					"type": "bytes32"
				},
				{
					"indexed": true,
					"internalType": "bytes32",
					"name": "previousAdminRole",
					"type": "bytes32"
				},
				{
					"indexed": true,
					"internalType": "bytes32",
					"name": "newAdminRole",
					"type": "bytes32"
				}
			],
			"name": "RoleAdminChanged",
			"type": "event"
		},
		{
			"anonymous": false,
			"inputs": [
				{
					"indexed": true,
					"internalType": "bytes32",
					"name": "role",
					"type": "bytes32"
				},
				{
					"indexed": true,
					"internalType": "address",
					"name": "account",
					"type": "address"
				},
				{
					"indexed": true,
					"internalType": "address",
					"name": "sender",
					"type": "address"
				}
			],
			"name": "RoleGranted",
			"type": "event"
		},
		{
			"anonymous": false,
			"inputs": [
				{
					"indexed": true,
					"internalType": "bytes32",
					"name": "role",
					"type": "bytes32"
				},
				{
					"indexed": true,
					"internalType": "address",
					"name": "account",
					"type": "address"
				},
				{
					"indexed": true,
					"internalType": "address",
					"name": "sender",
					"type": "address"
				}
			],
			"name": "RoleRevoked",
			"type": "event"
		},
		{
			"anonymous": false,
			"inputs": [
				{
					"indexed": false,
					"internalType": "address",
					"name": "account",
					"type": "address"
				}
			],
			"name": "Unpaused",
			"type": "event"
		},
		{
			"anonymous": false,
			"inputs": [
				{
					"indexed": true,
					"internalType": "address",
					"name": "implementation",
					"type": "address"
				}
			],
			"name": "Upgraded",
			"type": "event"
		},
		{
			"stateMutability": "payable",
			"type": "fallback"
		},
		{
			"inputs": [],
			"name": "ADMIN_ROLE",
			"outputs": [
				{
					"internalType": "bytes32",
					"name": "",
					"type": "bytes32"
				}
			],
			"stateMutability": "view",
			"type": "function"
		},
		{
			"inputs": [],
			"name": "DEFAULT_ADMIN_ROLE",
			"outputs": [
				{
					"internalType": "bytes32",
					"name": "",
					"type": "bytes32"
				}
			],
			"stateMutability": "view",
			"type": "function"
		},
		{
			"inputs": [],
			"name": "UPGRADER_ROLE",
			"outputs": [
				{
					"internalType": "bytes32",
					"name": "",
					"type": "bytes32"
				}
			],
			"stateMutability": "view",
			"type": "function"
		},
		{
			"inputs": [],
			"name": "UPGRADE_INTERFACE_VERSION",
			"outputs": [
				{
					"internalType": "string",
					"name": "",
					"type": "string"
				}
			],
			"stateMutability": "view",
			"type": "function"
		},
		{
			"inputs": [
				{
					"internalType": "uint256",
					"name": "",
					"type": "uint256"
				}
			],
			"name": "auctions",
			"outputs": [
				{
					"internalType": "address",
					"name": "seller",
					"type": "address"
				},
				{
					"internalType": "uint256",
					"name": "startPrice",
					"type": "uint256"
				},
				{
					"internalType": "uint256",
					"name": "startTime",
					"type": "uint256"
				},
				{
					"internalType": "uint256",
					"name": "duration",
					"type": "uint256"
				},
				{
					"internalType": "bool",
					"name": "isended",
					"type": "bool"
				},
				{
					"internalType": "uint256",
					"name": "highestBid",
					"type": "uint256"
				},
				{
					"internalType": "address",
					"name": "highestBidder",
					"type": "address"
				},
				{
					"internalType": "address",
					"name": "nftAddress",
					"type": "address"
				},
				{
					"internalType": "uint256",
					"name": "nftId",
					"type": "uint256"
				},
				{
					"internalType": "address",
					"name": "tokenAddress",
					"type": "address"
				},
				{
					"internalType": "uint256",
					"name": "feePercentage",
					"type": "uint256"
				}
			],
			"stateMutability": "view",
			"type": "function"
		},
		{
			"inputs": [],
			"name": "baseFeePercentage",
			"outputs": [
				{
					"internalType": "uint256",
					"name": "",
					"type": "uint256"
				}
			],
			"stateMutability": "view",
			"type": "function"
		},
		{
			"inputs": [
				{
					"internalType": "uint256",
					"name": "amount",
					"type": "uint256"
				},
				{
					"internalType": "address",
					"name": "tokenAddress",
					"type": "address"
				}
			],
			"name": "calculateDynamicFee",
			"outputs": [
				{
					"internalType": "uint256",
					"name": "",
					"type": "uint256"
				}
			],
			"stateMutability": "view",
			"type": "function"
		},
		{
			"inputs": [
				{
					"components": [
						{
							"internalType": "bytes32",
							"name": "messageId",
							"type": "bytes32"
						},
						{
							"internalType": "uint64",
							"name": "sourceChainSelector",
							"type": "uint64"
						},
						{
							"internalType": "bytes",
							"name": "sender",
							"type": "bytes"
						},
						{
							"internalType": "bytes",
							"name": "data",
							"type": "bytes"
						},
						{
							"components": [
								{
									"internalType": "address",
									"name": "token",
									"type": "address"
								},
								{
									"internalType": "uint256",
									"name": "amount",
									"type": "uint256"
								}
							],
							"internalType": "struct Client.EVMTokenAmount[]",
							"name": "destTokenAmounts",
							"type": "tuple[]"
						}
					],
					"internalType": "struct Client.Any2EVMMessage",
					"name": "message",
					"type": "tuple"
				}
			],
			"name": "ccipReceive",
			"outputs": [],
			"stateMutability": "nonpayable",
			"type": "function"
		},
		{
			"inputs": [],
			"name": "ccipRouterAddress",
			"outputs": [
				{
					"internalType": "address",
					"name": "",
					"type": "address"
				}
			],
			"stateMutability": "view",
			"type": "function"
		},
		{
			"inputs": [
				{
					"internalType": "uint256",
					"name": "_duration",
					"type": "uint256"
				},
				{
					"internalType": "uint256",
					"name": "_startPrice",
					"type": "uint256"
				},
				{
					"internalType": "address",
					"name": "_nftAddress",
					"type": "address"
				},
				{
					"internalType": "uint256",
					"name": "_nftId",
					"type": "uint256"
				},
				{
					"internalType": "address",
					"name": "_tokenAddress",
					"type": "address"
				}
			],
			"name": "createAuction",
			"outputs": [],
			"stateMutability": "nonpayable",
			"type": "function"
		},
		{
			"inputs": [
				{
					"internalType": "address",
					"name": "tokenAddress",
					"type": "address"
				},
				{
					"internalType": "uint256",
					"name": "amount",
					"type": "uint256"
				}
			],
			"name": "emergencyWithdraw",
			"outputs": [],
			"stateMutability": "nonpayable",
			"type": "function"
		},
		{
			"inputs": [
				{
					"internalType": "address",
					"name": "nftAddress",
					"type": "address"
				},
				{
					"internalType": "uint256",
					"name": "nftId",
					"type": "uint256"
				}
			],
			"name": "emergencyWithdrawNFT",
			"outputs": [],
			"stateMutability": "nonpayable",
			"type": "function"
		},
		{
			"inputs": [
				{
					"internalType": "uint256",
					"name": "_auctionId",
					"type": "uint256"
				}
			],
			"name": "endAuction",
			"outputs": [],
			"stateMutability": "nonpayable",
			"type": "function"
		},
		{
			"inputs": [],
			"name": "ethPriceFeed",
			"outputs": [
				{
					"internalType": "contract AggregatorV3Interface",
					"name": "",
					"type": "address"
				}
			],
			"stateMutability": "view",
			"type": "function"
		},
		{
			"inputs": [
				{
					"internalType": "bytes32",
					"name": "messageId",
					"type": "bytes32"
				}
			],
			"name": "executeCrossChainBid",
			"outputs": [],
			"stateMutability": "nonpayable",
			"type": "function"
		},
		{
			"inputs": [],
			"name": "feeCollector",
			"outputs": [
				{
					"internalType": "address",
					"name": "",
					"type": "address"
				}
			],
			"stateMutability": "view",
			"type": "function"
		},
		{
			"inputs": [
				{
					"internalType": "bytes32",
					"name": "role",
					"type": "bytes32"
				}
			],
			"name": "getRoleAdmin",
			"outputs": [
				{
					"internalType": "bytes32",
					"name": "",
					"type": "bytes32"
				}
			],
			"stateMutability": "view",
			"type": "function"
		},
		{
			"inputs": [
				{
					"internalType": "bytes32",
					"name": "role",
					"type": "bytes32"
				},
				{
					"internalType": "address",
					"name": "account",
					"type": "address"
				}
			],
			"name": "grantRole",
			"outputs": [],
			"stateMutability": "nonpayable",
			"type": "function"
		},
		{
			"inputs": [
				{
					"internalType": "bytes32",
					"name": "role",
					"type": "bytes32"
				},
				{
					"internalType": "address",
					"name": "account",
					"type": "address"
				}
			],
			"name": "hasRole",
			"outputs": [
				{
					"internalType": "bool",
					"name": "",
					"type": "bool"
				}
			],
			"stateMutability": "view",
			"type": "function"
		},
		{
			"inputs": [
				{
					"internalType": "address",
					"name": "_ccipRouter",
					"type": "address"
				},
				{
					"internalType": "address",
					"name": "_ethPriceFeed",
					"type": "address"
				},
				{
					"internalType": "address",
					"name": "admin",
					"type": "address"
				}
			],
			"name": "initialize",
			"outputs": [],
			"stateMutability": "nonpayable",
			"type": "function"
		},
		{
			"inputs": [],
			"name": "maxFeePercentage",
			"outputs": [
				{
					"internalType": "uint256",
					"name": "",
					"type": "uint256"
				}
			],
			"stateMutability": "view",
			"type": "function"
		},
		{
			"inputs": [],
			"name": "minFeePercentage",
			"outputs": [
				{
					"internalType": "uint256",
					"name": "",
					"type": "uint256"
				}
			],
			"stateMutability": "view",
			"type": "function"
		},
		{
			"inputs": [],
			"name": "nextAuctionId",
			"outputs": [
				{
					"internalType": "uint256",
					"name": "",
					"type": "uint256"
				}
			],
			"stateMutability": "view",
			"type": "function"
		},
		{
			"inputs": [],
			"name": "pause",
			"outputs": [],
			"stateMutability": "nonpayable",
			"type": "function"
		},
		{
			"inputs": [],
			"name": "paused",
			"outputs": [
				{
					"internalType": "bool",
					"name": "",
					"type": "bool"
				}
			],
			"stateMutability": "view",
			"type": "function"
		},
		{
			"inputs": [
				{
					"internalType": "uint256",
					"name": "_auctionId",
					"type": "uint256"
				},
				{
					"internalType": "uint256",
					"name": "_amount",
					"type": "uint256"
				},
				{
					"internalType": "address",
					"name": "_tokenAddress",
					"type": "address"
				}
			],
			"name": "placeBid",
			"outputs": [],
			"stateMutability": "payable",
			"type": "function"
		},
		{
			"inputs": [
				{
					"internalType": "address",
					"name": "",
					"type": "address"
				}
			],
			"name": "priceFeeds",
			"outputs": [
				{
					"internalType": "contract AggregatorV3Interface",
					"name": "",
					"type": "address"
				}
			],
			"stateMutability": "view",
			"type": "function"
		},
		{
			"inputs": [],
			"name": "proxiableUUID",
			"outputs": [
				{
					"internalType": "bytes32",
					"name": "",
					"type": "bytes32"
				}
			],
			"stateMutability": "view",
			"type": "function"
		},
		{
			"inputs": [
				{
					"internalType": "bytes32",
					"name": "role",
					"type": "bytes32"
				},
				{
					"internalType": "address",
					"name": "callerConfirmation",
					"type": "address"
				}
			],
			"name": "renounceRole",
			"outputs": [],
			"stateMutability": "nonpayable",
			"type": "function"
		},
		{
			"inputs": [
				{
					"internalType": "bytes32",
					"name": "role",
					"type": "bytes32"
				},
				{
					"internalType": "address",
					"name": "account",
					"type": "address"
				}
			],
			"name": "revokeRole",
			"outputs": [],
			"stateMutability": "nonpayable",
			"type": "function"
		},
		{
			"inputs": [
				{
					"internalType": "uint64",
					"name": "_destinationChainId",
					"type": "uint64"
				},
				{
					"internalType": "uint256",
					"name": "_auctionId",
					"type": "uint256"
				},
				{
					"internalType": "uint256",
					"name": "_amount",
					"type": "uint256"
				},
				{
					"internalType": "address",
					"name": "_tokenAddress",
					"type": "address"
				}
			],
			"name": "sendCrossChainBid",
			"outputs": [],
			"stateMutability": "payable",
			"type": "function"
		},
		{
			"inputs": [
				{
					"internalType": "uint64",
					"name": "chainId",
					"type": "uint64"
				},
				{
					"internalType": "bool",
					"name": "allowed",
					"type": "bool"
				}
			],
			"name": "setAllowedSourceChain",
			"outputs": [],
			"stateMutability": "nonpayable",
			"type": "function"
		},
		{
			"inputs": [
				{
					"internalType": "address",
					"name": "_ccipRouter",
					"type": "address"
				}
			],
			"name": "setCCIPRouter",
			"outputs": [],
			"stateMutability": "nonpayable",
			"type": "function"
		},
		{
			"inputs": [
				{
					"internalType": "uint256",
					"name": "_baseFeePercentage",
					"type": "uint256"
				},
				{
					"internalType": "uint256",
					"name": "_minFeePercentage",
					"type": "uint256"
				},
				{
					"internalType": "uint256",
					"name": "_maxFeePercentage",
					"type": "uint256"
				},
				{
					"internalType": "address",
					"name": "_feeCollector",
					"type": "address"
				}
			],
			"name": "setFeeParamters",
			"outputs": [],
			"stateMutability": "nonpayable",
			"type": "function"
		},
		{
			"inputs": [
				{
					"internalType": "address",
					"name": "_priceFeedAddress",
					"type": "address"
				},
				{
					"internalType": "address",
					"name": "tokenAddress",
					"type": "address"
				}
			],
			"name": "setPriceFeed",
			"outputs": [],
			"stateMutability": "nonpayable",
			"type": "function"
		},
		{
			"inputs": [
				{
					"internalType": "bytes4",
					"name": "interfaceId",
					"type": "bytes4"
				}
			],
			"name": "supportsInterface",
			"outputs": [
				{
					"internalType": "bool",
					"name": "",
					"type": "bool"
				}
			],
			"stateMutability": "view",
			"type": "function"
		},
		{
			"inputs": [],
			"name": "unpause",
			"outputs": [],
			"stateMutability": "nonpayable",
			"type": "function"
		},
		{
			"inputs": [
				{
					"internalType": "address",
					"name": "newImplementation",
					"type": "address"
				},
				{
					"internalType": "bytes",
					"name": "data",
					"type": "bytes"
				}
			],
			"name": "upgradeToAndCall",
			"outputs": [],
			"stateMutability": "payable",
			"type": "function"
		},
		{
			"stateMutability": "payable",
			"type": "receive"
		}
	]
}