{
	"Task_1/RomanToInt/RomanToInt.sol": {
		"RomanToInt": {
			"abi": [
				{
					"inputs": [],
					"stateMutability": "nonpayable",
					"type": "constructor"
				},
				{
					"inputs": [
						{
							"internalType": "string",
							"name": "s",
							"type": "string"
						}
					],
					"name": "romanToInt",
					"outputs": [
						{
							"internalType": "int256",
							"name": "",
							"type": "int256"
						}
					],
					"stateMutability": "view",
					"type": "function"
				}
			],
			"devdoc": {
				"kind": "dev",
				"methods": {},
				"version": 1
			},
			"evm": {
				"assembly": "    /* \"Task_1/RomanToInt/RomanToInt.sol\":60:729  contract RomanToInt {... */\n  mstore(0x40, 0x80)\n    /* \"Task_1/RomanToInt/RomanToInt.sol\":139:351  constructor(){... */\n  callvalue\n  dup1\n  iszero\n  tag_1\n  jumpi\n  revert(0x00, 0x00)\ntag_1:\n  pop\n    /* \"Task_1/RomanToInt/RomanToInt.sol\":177:178  1 */\n  0x01\n    /* \"Task_1/RomanToInt/RomanToInt.sol\":163:171  romanMap */\n  0x00\n    /* \"Task_1/RomanToInt/RomanToInt.sol\":163:176  romanMap[\"I\"] */\n  0x00\n  and(not(0xffffffffffffffffffffffffffffffffffffffffffffffffffffffffffffff), 0x4900000000000000000000000000000000000000000000000000000000000000)\n  dup2\n  mstore\n  0x20\n  add\n  swap1\n  dup2\n  mstore\n  0x20\n  add\n  0x00\n  keccak256\n    /* \"Task_1/RomanToInt/RomanToInt.sol\":163:178  romanMap[\"I\"]=1 */\n  dup2\n  swap1\n  sstore\n  pop\n    /* \"Task_1/RomanToInt/RomanToInt.sol\":203:204  5 */\n  0x05\n    /* \"Task_1/RomanToInt/RomanToInt.sol\":189:197  romanMap */\n  0x00\n    /* \"Task_1/RomanToInt/RomanToInt.sol\":189:202  romanMap[\"V\"] */\n  0x00\n  and(not(0xffffffffffffffffffffffffffffffffffffffffffffffffffffffffffffff), 0x5600000000000000000000000000000000000000000000000000000000000000)\n  dup2\n  mstore\n  0x20\n  add\n  swap1\n  dup2\n  mstore\n  0x20\n  add\n  0x00\n  keccak256\n    /* \"Task_1/RomanToInt/RomanToInt.sol\":189:204  romanMap[\"V\"]=5 */\n  dup2\n  swap1\n  sstore\n  pop\n    /* \"Task_1/RomanToInt/RomanToInt.sol\":229:231  10 */\n  0x0a\n    /* \"Task_1/RomanToInt/RomanToInt.sol\":215:223  romanMap */\n  0x00\n    /* \"Task_1/RomanToInt/RomanToInt.sol\":215:228  romanMap[\"X\"] */\n  0x00\n  and(not(0xffffffffffffffffffffffffffffffffffffffffffffffffffffffffffffff), 0x5800000000000000000000000000000000000000000000000000000000000000)\n  dup2\n  mstore\n  0x20\n  add\n  swap1\n  dup2\n  mstore\n  0x20\n  add\n  0x00\n  keccak256\n    /* \"Task_1/RomanToInt/RomanToInt.sol\":215:231  romanMap[\"X\"]=10 */\n  dup2\n  swap1\n  sstore\n  pop\n    /* \"Task_1/RomanToInt/RomanToInt.sol\":256:258  50 */\n  0x32\n    /* \"Task_1/RomanToInt/RomanToInt.sol\":242:250  romanMap */\n  0x00\n    /* \"Task_1/RomanToInt/RomanToInt.sol\":242:255  romanMap[\"L\"] */\n  0x00\n  and(not(0xffffffffffffffffffffffffffffffffffffffffffffffffffffffffffffff), 0x4c00000000000000000000000000000000000000000000000000000000000000)\n  dup2\n  mstore\n  0x20\n  add\n  swap1\n  dup2\n  mstore\n  0x20\n  add\n  0x00\n  keccak256\n    /* \"Task_1/RomanToInt/RomanToInt.sol\":242:258  romanMap[\"L\"]=50 */\n  dup2\n  swap1\n  sstore\n  pop\n    /* \"Task_1/RomanToInt/RomanToInt.sol\":283:286  100 */\n  0x64\n    /* \"Task_1/RomanToInt/RomanToInt.sol\":269:277  romanMap */\n  0x00\n    /* \"Task_1/RomanToInt/RomanToInt.sol\":269:282  romanMap[\"C\"] */\n  0x00\n  and(not(0xffffffffffffffffffffffffffffffffffffffffffffffffffffffffffffff), 0x4300000000000000000000000000000000000000000000000000000000000000)\n  dup2\n  mstore\n  0x20\n  add\n  swap1\n  dup2\n  mstore\n  0x20\n  add\n  0x00\n  keccak256\n    /* \"Task_1/RomanToInt/RomanToInt.sol\":269:286  romanMap[\"C\"]=100 */\n  dup2\n  swap1\n  sstore\n  pop\n    /* \"Task_1/RomanToInt/RomanToInt.sol\":311:314  500 */\n  0x01f4\n    /* \"Task_1/RomanToInt/RomanToInt.sol\":297:305  romanMap */\n  0x00\n    /* \"Task_1/RomanToInt/RomanToInt.sol\":297:310  romanMap[\"D\"] */\n  0x00\n  and(not(0xffffffffffffffffffffffffffffffffffffffffffffffffffffffffffffff), 0x4400000000000000000000000000000000000000000000000000000000000000)\n  dup2\n  mstore\n  0x20\n  add\n  swap1\n  dup2\n  mstore\n  0x20\n  add\n  0x00\n  keccak256\n    /* \"Task_1/RomanToInt/RomanToInt.sol\":297:314  romanMap[\"D\"]=500 */\n  dup2\n  swap1\n  sstore\n  pop\n    /* \"Task_1/RomanToInt/RomanToInt.sol\":339:343  1000 */\n  0x03e8\n    /* \"Task_1/RomanToInt/RomanToInt.sol\":325:333  romanMap */\n  0x00\n    /* \"Task_1/RomanToInt/RomanToInt.sol\":325:338  romanMap[\"M\"] */\n  0x00\n  and(not(0xffffffffffffffffffffffffffffffffffffffffffffffffffffffffffffff), 0x4d00000000000000000000000000000000000000000000000000000000000000)\n  dup2\n  mstore\n  0x20\n  add\n  swap1\n  dup2\n  mstore\n  0x20\n  add\n  0x00\n  keccak256\n    /* \"Task_1/RomanToInt/RomanToInt.sol\":325:343  romanMap[\"M\"]=1000 */\n  dup2\n  swap1\n  sstore\n  pop\n    /* \"Task_1/RomanToInt/RomanToInt.sol\":60:729  contract RomanToInt {... */\n  dataSize(sub_0)\n  dup1\n  dataOffset(sub_0)\n  0x00\n  codecopy\n  0x00\n  return\nstop\n\nsub_0: assembly {\n        /* \"Task_1/RomanToInt/RomanToInt.sol\":60:729  contract RomanToInt {... */\n      mstore(0x40, 0x80)\n      callvalue\n      dup1\n      iszero\n      tag_1\n      jumpi\n      revert(0x00, 0x00)\n    tag_1:\n      pop\n      jumpi(tag_2, lt(calldatasize, 0x04))\n      shr(0xe0, calldataload(0x00))\n      dup1\n      0xcb159dfe\n      eq\n      tag_3\n      jumpi\n    tag_2:\n      revert(0x00, 0x00)\n        /* \"Task_1/RomanToInt/RomanToInt.sol\":357:726  function romanToInt(string memory s) public view returns (int256) {... */\n    tag_3:\n      tag_4\n      0x04\n      dup1\n      calldatasize\n      sub\n      dup2\n      add\n      swap1\n      tag_5\n      swap2\n      swap1\n      tag_6\n      jump\t// in\n    tag_5:\n      tag_7\n      jump\t// in\n    tag_4:\n      mload(0x40)\n      tag_8\n      swap2\n      swap1\n      tag_9\n      jump\t// in\n    tag_8:\n      mload(0x40)\n      dup1\n      swap2\n      sub\n      swap1\n      return\n    tag_7:\n        /* \"Task_1/RomanToInt/RomanToInt.sol\":415:421  int256 */\n      0x00\n        /* \"Task_1/RomanToInt/RomanToInt.sol\":434:452  bytes memory roman */\n      0x00\n        /* \"Task_1/RomanToInt/RomanToInt.sol\":460:461  s */\n      dup3\n        /* \"Task_1/RomanToInt/RomanToInt.sol\":434:462  bytes memory roman =bytes(s) */\n      swap1\n      pop\n        /* \"Task_1/RomanToInt/RomanToInt.sol\":473:487  int256  result */\n      0x00\n        /* \"Task_1/RomanToInt/RomanToInt.sol\":488:489  0 */\n      0x00\n        /* \"Task_1/RomanToInt/RomanToInt.sol\":473:489  int256  result=0 */\n      swap1\n      pop\n        /* \"Task_1/RomanToInt/RomanToInt.sol\":505:511  uint i */\n      0x00\n        /* \"Task_1/RomanToInt/RomanToInt.sol\":512:513  0 */\n      0x00\n        /* \"Task_1/RomanToInt/RomanToInt.sol\":505:513  uint i=0 */\n      swap1\n      pop\n        /* \"Task_1/RomanToInt/RomanToInt.sol\":500:695  for (uint i=0;i<roman.length;i++){... */\n    tag_11:\n        /* \"Task_1/RomanToInt/RomanToInt.sol\":516:521  roman */\n      dup3\n        /* \"Task_1/RomanToInt/RomanToInt.sol\":516:528  roman.length */\n      mload\n        /* \"Task_1/RomanToInt/RomanToInt.sol\":514:515  i */\n      dup2\n        /* \"Task_1/RomanToInt/RomanToInt.sol\":514:528  i<roman.length */\n      lt\n        /* \"Task_1/RomanToInt/RomanToInt.sol\":500:695  for (uint i=0;i<roman.length;i++){... */\n      iszero\n      tag_12\n      jumpi\n        /* \"Task_1/RomanToInt/RomanToInt.sol\":566:567  1 */\n      0x01\n        /* \"Task_1/RomanToInt/RomanToInt.sol\":553:558  roman */\n      dup4\n        /* \"Task_1/RomanToInt/RomanToInt.sol\":553:565  roman.length */\n      mload\n        /* \"Task_1/RomanToInt/RomanToInt.sol\":553:567  roman.length-1 */\n      tag_14\n      swap2\n      swap1\n      tag_15\n      jump\t// in\n    tag_14:\n        /* \"Task_1/RomanToInt/RomanToInt.sol\":551:552  i */\n      dup2\n        /* \"Task_1/RomanToInt/RomanToInt.sol\":551:567  i<roman.length-1 */\n      lt\n        /* \"Task_1/RomanToInt/RomanToInt.sol\":551:610  i<roman.length-1 && romanMap[roman[i]]<romanMap[roman[i+1]] */\n      dup1\n      iszero\n      tag_16\n      jumpi\n      pop\n        /* \"Task_1/RomanToInt/RomanToInt.sol\":590:598  romanMap */\n      0x00\n        /* \"Task_1/RomanToInt/RomanToInt.sol\":590:610  romanMap[roman[i+1]] */\n      0x00\n        /* \"Task_1/RomanToInt/RomanToInt.sol\":599:604  roman */\n      dup5\n        /* \"Task_1/RomanToInt/RomanToInt.sol\":607:608  1 */\n      0x01\n        /* \"Task_1/RomanToInt/RomanToInt.sol\":605:606  i */\n      dup5\n        /* \"Task_1/RomanToInt/RomanToInt.sol\":605:608  i+1 */\n      tag_17\n      swap2\n      swap1\n      tag_18\n      jump\t// in\n    tag_17:\n        /* \"Task_1/RomanToInt/RomanToInt.sol\":599:609  roman[i+1] */\n      dup2\n      mload\n      dup2\n      lt\n      tag_19\n      jumpi\n      tag_20\n      tag_21\n      jump\t// in\n    tag_20:\n    tag_19:\n      0x20\n      add\n      add\n      mload\n      0xf8\n      shr\n      0xf8\n      shl\n        /* \"Task_1/RomanToInt/RomanToInt.sol\":590:610  romanMap[roman[i+1]] */\n      not(0xffffffffffffffffffffffffffffffffffffffffffffffffffffffffffffff)\n      and\n      not(0xffffffffffffffffffffffffffffffffffffffffffffffffffffffffffffff)\n      and\n      dup2\n      mstore\n      0x20\n      add\n      swap1\n      dup2\n      mstore\n      0x20\n      add\n      0x00\n      keccak256\n      sload\n        /* \"Task_1/RomanToInt/RomanToInt.sol\":571:579  romanMap */\n      0x00\n        /* \"Task_1/RomanToInt/RomanToInt.sol\":571:589  romanMap[roman[i]] */\n      0x00\n        /* \"Task_1/RomanToInt/RomanToInt.sol\":580:585  roman */\n      dup6\n        /* \"Task_1/RomanToInt/RomanToInt.sol\":586:587  i */\n      dup5\n        /* \"Task_1/RomanToInt/RomanToInt.sol\":580:588  roman[i] */\n      dup2\n      mload\n      dup2\n      lt\n      tag_22\n      jumpi\n      tag_23\n      tag_21\n      jump\t// in\n    tag_23:\n    tag_22:\n      0x20\n      add\n      add\n      mload\n      0xf8\n      shr\n      0xf8\n      shl\n        /* \"Task_1/RomanToInt/RomanToInt.sol\":571:589  romanMap[roman[i]] */\n      not(0xffffffffffffffffffffffffffffffffffffffffffffffffffffffffffffff)\n      and\n      not(0xffffffffffffffffffffffffffffffffffffffffffffffffffffffffffffff)\n      and\n      dup2\n      mstore\n      0x20\n      add\n      swap1\n      dup2\n      mstore\n      0x20\n      add\n      0x00\n      keccak256\n      sload\n        /* \"Task_1/RomanToInt/RomanToInt.sol\":571:610  romanMap[roman[i]]<romanMap[roman[i+1]] */\n      slt\n        /* \"Task_1/RomanToInt/RomanToInt.sol\":551:610  i<roman.length-1 && romanMap[roman[i]]<romanMap[roman[i+1]] */\n    tag_16:\n        /* \"Task_1/RomanToInt/RomanToInt.sol\":548:683  if(i<roman.length-1 && romanMap[roman[i]]<romanMap[roman[i+1]])result-=romanMap[roman[i]];... */\n      iszero\n      tag_24\n      jumpi\n        /* \"Task_1/RomanToInt/RomanToInt.sol\":619:627  romanMap */\n      0x00\n        /* \"Task_1/RomanToInt/RomanToInt.sol\":619:637  romanMap[roman[i]] */\n      0x00\n        /* \"Task_1/RomanToInt/RomanToInt.sol\":628:633  roman */\n      dup5\n        /* \"Task_1/RomanToInt/RomanToInt.sol\":634:635  i */\n      dup4\n        /* \"Task_1/RomanToInt/RomanToInt.sol\":628:636  roman[i] */\n      dup2\n      mload\n      dup2\n      lt\n      tag_25\n      jumpi\n      tag_26\n      tag_21\n      jump\t// in\n    tag_26:\n    tag_25:\n      0x20\n      add\n      add\n      mload\n      0xf8\n      shr\n      0xf8\n      shl\n        /* \"Task_1/RomanToInt/RomanToInt.sol\":619:637  romanMap[roman[i]] */\n      not(0xffffffffffffffffffffffffffffffffffffffffffffffffffffffffffffff)\n      and\n      not(0xffffffffffffffffffffffffffffffffffffffffffffffffffffffffffffff)\n      and\n      dup2\n      mstore\n      0x20\n      add\n      swap1\n      dup2\n      mstore\n      0x20\n      add\n      0x00\n      keccak256\n      sload\n        /* \"Task_1/RomanToInt/RomanToInt.sol\":611:637  result-=romanMap[roman[i]] */\n      dup3\n      tag_27\n      swap2\n      swap1\n      tag_28\n      jump\t// in\n    tag_27:\n      swap2\n      pop\n        /* \"Task_1/RomanToInt/RomanToInt.sol\":548:683  if(i<roman.length-1 && romanMap[roman[i]]<romanMap[roman[i+1]])result-=romanMap[roman[i]];... */\n      jump(tag_29)\n    tag_24:\n        /* \"Task_1/RomanToInt/RomanToInt.sol\":665:673  romanMap */\n      0x00\n        /* \"Task_1/RomanToInt/RomanToInt.sol\":665:683  romanMap[roman[i]] */\n      0x00\n        /* \"Task_1/RomanToInt/RomanToInt.sol\":674:679  roman */\n      dup5\n        /* \"Task_1/RomanToInt/RomanToInt.sol\":680:681  i */\n      dup4\n        /* \"Task_1/RomanToInt/RomanToInt.sol\":674:682  roman[i] */\n      dup2\n      mload\n      dup2\n      lt\n      tag_30\n      jumpi\n      tag_31\n      tag_21\n      jump\t// in\n    tag_31:\n    tag_30:\n      0x20\n      add\n      add\n      mload\n      0xf8\n      shr\n      0xf8\n      shl\n        /* \"Task_1/RomanToInt/RomanToInt.sol\":665:683  romanMap[roman[i]] */\n      not(0xffffffffffffffffffffffffffffffffffffffffffffffffffffffffffffff)\n      and\n      not(0xffffffffffffffffffffffffffffffffffffffffffffffffffffffffffffff)\n      and\n      dup2\n      mstore\n      0x20\n      add\n      swap1\n      dup2\n      mstore\n      0x20\n      add\n      0x00\n      keccak256\n      sload\n        /* \"Task_1/RomanToInt/RomanToInt.sol\":657:683  result+=romanMap[roman[i]] */\n      dup3\n      tag_32\n      swap2\n      swap1\n      tag_33\n      jump\t// in\n    tag_32:\n      swap2\n      pop\n        /* \"Task_1/RomanToInt/RomanToInt.sol\":548:683  if(i<roman.length-1 && romanMap[roman[i]]<romanMap[roman[i+1]])result-=romanMap[roman[i]];... */\n    tag_29:\n        /* \"Task_1/RomanToInt/RomanToInt.sol\":529:532  i++ */\n      dup1\n      dup1\n      0x01\n      add\n      swap2\n      pop\n      pop\n        /* \"Task_1/RomanToInt/RomanToInt.sol\":500:695  for (uint i=0;i<roman.length;i++){... */\n      jump(tag_11)\n    tag_12:\n      pop\n        /* \"Task_1/RomanToInt/RomanToInt.sol\":712:718  result */\n      dup1\n        /* \"Task_1/RomanToInt/RomanToInt.sol\":705:718  return result */\n      swap3\n      pop\n      pop\n      pop\n        /* \"Task_1/RomanToInt/RomanToInt.sol\":357:726  function romanToInt(string memory s) public view returns (int256) {... */\n      swap2\n      swap1\n      pop\n      jump\t// out\n        /* \"#utility.yul\":7:82   */\n    tag_34:\n        /* \"#utility.yul\":40:46   */\n      0x00\n        /* \"#utility.yul\":73:75   */\n      0x40\n        /* \"#utility.yul\":67:76   */\n      mload\n        /* \"#utility.yul\":57:76   */\n      swap1\n      pop\n        /* \"#utility.yul\":7:82   */\n      swap1\n      jump\t// out\n        /* \"#utility.yul\":88:205   */\n    tag_35:\n        /* \"#utility.yul\":197:198   */\n      0x00\n        /* \"#utility.yul\":194:195   */\n      0x00\n        /* \"#utility.yul\":187:199   */\n      revert\n        /* \"#utility.yul\":211:328   */\n    tag_36:\n        /* \"#utility.yul\":320:321   */\n      0x00\n        /* \"#utility.yul\":317:318   */\n      0x00\n        /* \"#utility.yul\":310:322   */\n      revert\n        /* \"#utility.yul\":334:451   */\n    tag_37:\n        /* \"#utility.yul\":443:444   */\n      0x00\n        /* \"#utility.yul\":440:441   */\n      0x00\n        /* \"#utility.yul\":433:445   */\n      revert\n        /* \"#utility.yul\":457:574   */\n    tag_38:\n        /* \"#utility.yul\":566:567   */\n      0x00\n        /* \"#utility.yul\":563:564   */\n      0x00\n        /* \"#utility.yul\":556:568   */\n      revert\n        /* \"#utility.yul\":580:682   */\n    tag_39:\n        /* \"#utility.yul\":621:627   */\n      0x00\n        /* \"#utility.yul\":672:674   */\n      0x1f\n        /* \"#utility.yul\":668:675   */\n      not\n        /* \"#utility.yul\":663:665   */\n      0x1f\n        /* \"#utility.yul\":656:661   */\n      dup4\n        /* \"#utility.yul\":652:666   */\n      add\n        /* \"#utility.yul\":648:676   */\n      and\n        /* \"#utility.yul\":638:676   */\n      swap1\n      pop\n        /* \"#utility.yul\":580:682   */\n      swap2\n      swap1\n      pop\n      jump\t// out\n        /* \"#utility.yul\":688:868   */\n    tag_40:\n        /* \"#utility.yul\":736:813   */\n      0x4e487b7100000000000000000000000000000000000000000000000000000000\n        /* \"#utility.yul\":733:734   */\n      0x00\n        /* \"#utility.yul\":726:814   */\n      mstore\n        /* \"#utility.yul\":833:837   */\n      0x41\n        /* \"#utility.yul\":830:831   */\n      0x04\n        /* \"#utility.yul\":823:838   */\n      mstore\n        /* \"#utility.yul\":857:861   */\n      0x24\n        /* \"#utility.yul\":854:855   */\n      0x00\n        /* \"#utility.yul\":847:862   */\n      revert\n        /* \"#utility.yul\":874:1155   */\n    tag_41:\n        /* \"#utility.yul\":957:984   */\n      tag_60\n        /* \"#utility.yul\":979:983   */\n      dup3\n        /* \"#utility.yul\":957:984   */\n      tag_39\n      jump\t// in\n    tag_60:\n        /* \"#utility.yul\":949:955   */\n      dup2\n        /* \"#utility.yul\":945:985   */\n      add\n        /* \"#utility.yul\":1087:1093   */\n      dup2\n        /* \"#utility.yul\":1075:1085   */\n      dup2\n        /* \"#utility.yul\":1072:1094   */\n      lt\n        /* \"#utility.yul\":1051:1069   */\n      0xffffffffffffffff\n        /* \"#utility.yul\":1039:1049   */\n      dup3\n        /* \"#utility.yul\":1036:1070   */\n      gt\n        /* \"#utility.yul\":1033:1095   */\n      or\n        /* \"#utility.yul\":1030:1118   */\n      iszero\n      tag_61\n      jumpi\n        /* \"#utility.yul\":1098:1116   */\n      tag_62\n      tag_40\n      jump\t// in\n    tag_62:\n        /* \"#utility.yul\":1030:1118   */\n    tag_61:\n        /* \"#utility.yul\":1138:1148   */\n      dup1\n        /* \"#utility.yul\":1134:1136   */\n      0x40\n        /* \"#utility.yul\":1127:1149   */\n      mstore\n        /* \"#utility.yul\":917:1155   */\n      pop\n        /* \"#utility.yul\":874:1155   */\n      pop\n      pop\n      jump\t// out\n        /* \"#utility.yul\":1161:1290   */\n    tag_42:\n        /* \"#utility.yul\":1195:1201   */\n      0x00\n        /* \"#utility.yul\":1222:1242   */\n      tag_64\n      tag_34\n      jump\t// in\n    tag_64:\n        /* \"#utility.yul\":1212:1242   */\n      swap1\n      pop\n        /* \"#utility.yul\":1251:1284   */\n      tag_65\n        /* \"#utility.yul\":1279:1283   */\n      dup3\n        /* \"#utility.yul\":1271:1277   */\n      dup3\n        /* \"#utility.yul\":1251:1284   */\n      tag_41\n      jump\t// in\n    tag_65:\n        /* \"#utility.yul\":1161:1290   */\n      swap2\n      swap1\n      pop\n      jump\t// out\n        /* \"#utility.yul\":1296:1604   */\n    tag_43:\n        /* \"#utility.yul\":1358:1362   */\n      0x00\n        /* \"#utility.yul\":1448:1466   */\n      0xffffffffffffffff\n        /* \"#utility.yul\":1440:1446   */\n      dup3\n        /* \"#utility.yul\":1437:1467   */\n      gt\n        /* \"#utility.yul\":1434:1490   */\n      iszero\n      tag_67\n      jumpi\n        /* \"#utility.yul\":1470:1488   */\n      tag_68\n      tag_40\n      jump\t// in\n    tag_68:\n        /* \"#utility.yul\":1434:1490   */\n    tag_67:\n        /* \"#utility.yul\":1508:1537   */\n      tag_69\n        /* \"#utility.yul\":1530:1536   */\n      dup3\n        /* \"#utility.yul\":1508:1537   */\n      tag_39\n      jump\t// in\n    tag_69:\n        /* \"#utility.yul\":1500:1537   */\n      swap1\n      pop\n        /* \"#utility.yul\":1592:1596   */\n      0x20\n        /* \"#utility.yul\":1586:1590   */\n      dup2\n        /* \"#utility.yul\":1582:1597   */\n      add\n        /* \"#utility.yul\":1574:1597   */\n      swap1\n      pop\n        /* \"#utility.yul\":1296:1604   */\n      swap2\n      swap1\n      pop\n      jump\t// out\n        /* \"#utility.yul\":1610:1758   */\n    tag_44:\n        /* \"#utility.yul\":1708:1714   */\n      dup3\n        /* \"#utility.yul\":1703:1706   */\n      dup2\n        /* \"#utility.yul\":1698:1701   */\n      dup4\n        /* \"#utility.yul\":1685:1715   */\n      calldatacopy\n        /* \"#utility.yul\":1749:1750   */\n      0x00\n        /* \"#utility.yul\":1740:1746   */\n      dup4\n        /* \"#utility.yul\":1735:1738   */\n      dup4\n        /* \"#utility.yul\":1731:1747   */\n      add\n        /* \"#utility.yul\":1724:1751   */\n      mstore\n        /* \"#utility.yul\":1610:1758   */\n      pop\n      pop\n      pop\n      jump\t// out\n        /* \"#utility.yul\":1764:2189   */\n    tag_45:\n        /* \"#utility.yul\":1842:1847   */\n      0x00\n        /* \"#utility.yul\":1867:1933   */\n      tag_72\n        /* \"#utility.yul\":1883:1932   */\n      tag_73\n        /* \"#utility.yul\":1925:1931   */\n      dup5\n        /* \"#utility.yul\":1883:1932   */\n      tag_43\n      jump\t// in\n    tag_73:\n        /* \"#utility.yul\":1867:1933   */\n      tag_42\n      jump\t// in\n    tag_72:\n        /* \"#utility.yul\":1858:1933   */\n      swap1\n      pop\n        /* \"#utility.yul\":1956:1962   */\n      dup3\n        /* \"#utility.yul\":1949:1954   */\n      dup2\n        /* \"#utility.yul\":1942:1963   */\n      mstore\n        /* \"#utility.yul\":1994:1998   */\n      0x20\n        /* \"#utility.yul\":1987:1992   */\n      dup2\n        /* \"#utility.yul\":1983:1999   */\n      add\n        /* \"#utility.yul\":2032:2035   */\n      dup5\n        /* \"#utility.yul\":2023:2029   */\n      dup5\n        /* \"#utility.yul\":2018:2021   */\n      dup5\n        /* \"#utility.yul\":2014:2030   */\n      add\n        /* \"#utility.yul\":2011:2036   */\n      gt\n        /* \"#utility.yul\":2008:2120   */\n      iszero\n      tag_74\n      jumpi\n        /* \"#utility.yul\":2039:2118   */\n      tag_75\n      tag_38\n      jump\t// in\n    tag_75:\n        /* \"#utility.yul\":2008:2120   */\n    tag_74:\n        /* \"#utility.yul\":2129:2183   */\n      tag_76\n        /* \"#utility.yul\":2176:2182   */\n      dup5\n        /* \"#utility.yul\":2171:2174   */\n      dup3\n        /* \"#utility.yul\":2166:2169   */\n      dup6\n        /* \"#utility.yul\":2129:2183   */\n      tag_44\n      jump\t// in\n    tag_76:\n        /* \"#utility.yul\":1848:2189   */\n      pop\n        /* \"#utility.yul\":1764:2189   */\n      swap4\n      swap3\n      pop\n      pop\n      pop\n      jump\t// out\n        /* \"#utility.yul\":2209:2549   */\n    tag_46:\n        /* \"#utility.yul\":2265:2270   */\n      0x00\n        /* \"#utility.yul\":2314:2317   */\n      dup3\n        /* \"#utility.yul\":2307:2311   */\n      0x1f\n        /* \"#utility.yul\":2299:2305   */\n      dup4\n        /* \"#utility.yul\":2295:2312   */\n      add\n        /* \"#utility.yul\":2291:2318   */\n      slt\n        /* \"#utility.yul\":2281:2403   */\n      tag_78\n      jumpi\n        /* \"#utility.yul\":2322:2401   */\n      tag_79\n      tag_37\n      jump\t// in\n    tag_79:\n        /* \"#utility.yul\":2281:2403   */\n    tag_78:\n        /* \"#utility.yul\":2439:2445   */\n      dup2\n        /* \"#utility.yul\":2426:2446   */\n      calldataload\n        /* \"#utility.yul\":2464:2543   */\n      tag_80\n        /* \"#utility.yul\":2539:2542   */\n      dup5\n        /* \"#utility.yul\":2531:2537   */\n      dup3\n        /* \"#utility.yul\":2524:2528   */\n      0x20\n        /* \"#utility.yul\":2516:2522   */\n      dup7\n        /* \"#utility.yul\":2512:2529   */\n      add\n        /* \"#utility.yul\":2464:2543   */\n      tag_45\n      jump\t// in\n    tag_80:\n        /* \"#utility.yul\":2455:2543   */\n      swap2\n      pop\n        /* \"#utility.yul\":2271:2549   */\n      pop\n        /* \"#utility.yul\":2209:2549   */\n      swap3\n      swap2\n      pop\n      pop\n      jump\t// out\n        /* \"#utility.yul\":2555:3064   */\n    tag_6:\n        /* \"#utility.yul\":2624:2630   */\n      0x00\n        /* \"#utility.yul\":2673:2675   */\n      0x20\n        /* \"#utility.yul\":2661:2670   */\n      dup3\n        /* \"#utility.yul\":2652:2659   */\n      dup5\n        /* \"#utility.yul\":2648:2671   */\n      sub\n        /* \"#utility.yul\":2644:2676   */\n      slt\n        /* \"#utility.yul\":2641:2760   */\n      iszero\n      tag_82\n      jumpi\n        /* \"#utility.yul\":2679:2758   */\n      tag_83\n      tag_35\n      jump\t// in\n    tag_83:\n        /* \"#utility.yul\":2641:2760   */\n    tag_82:\n        /* \"#utility.yul\":2827:2828   */\n      0x00\n        /* \"#utility.yul\":2816:2825   */\n      dup3\n        /* \"#utility.yul\":2812:2829   */\n      add\n        /* \"#utility.yul\":2799:2830   */\n      calldataload\n        /* \"#utility.yul\":2857:2875   */\n      0xffffffffffffffff\n        /* \"#utility.yul\":2849:2855   */\n      dup2\n        /* \"#utility.yul\":2846:2876   */\n      gt\n        /* \"#utility.yul\":2843:2960   */\n      iszero\n      tag_84\n      jumpi\n        /* \"#utility.yul\":2879:2958   */\n      tag_85\n      tag_36\n      jump\t// in\n    tag_85:\n        /* \"#utility.yul\":2843:2960   */\n    tag_84:\n        /* \"#utility.yul\":2984:3047   */\n      tag_86\n        /* \"#utility.yul\":3039:3046   */\n      dup5\n        /* \"#utility.yul\":3030:3036   */\n      dup3\n        /* \"#utility.yul\":3019:3028   */\n      dup6\n        /* \"#utility.yul\":3015:3037   */\n      add\n        /* \"#utility.yul\":2984:3047   */\n      tag_46\n      jump\t// in\n    tag_86:\n        /* \"#utility.yul\":2974:3047   */\n      swap2\n      pop\n        /* \"#utility.yul\":2770:3057   */\n      pop\n        /* \"#utility.yul\":2555:3064   */\n      swap3\n      swap2\n      pop\n      pop\n      jump\t// out\n        /* \"#utility.yul\":3070:3146   */\n    tag_47:\n        /* \"#utility.yul\":3106:3113   */\n      0x00\n        /* \"#utility.yul\":3135:3140   */\n      dup2\n        /* \"#utility.yul\":3124:3140   */\n      swap1\n      pop\n        /* \"#utility.yul\":3070:3146   */\n      swap2\n      swap1\n      pop\n      jump\t// out\n        /* \"#utility.yul\":3152:3267   */\n    tag_48:\n        /* \"#utility.yul\":3237:3260   */\n      tag_89\n        /* \"#utility.yul\":3254:3259   */\n      dup2\n        /* \"#utility.yul\":3237:3260   */\n      tag_47\n      jump\t// in\n    tag_89:\n        /* \"#utility.yul\":3232:3235   */\n      dup3\n        /* \"#utility.yul\":3225:3261   */\n      mstore\n        /* \"#utility.yul\":3152:3267   */\n      pop\n      pop\n      jump\t// out\n        /* \"#utility.yul\":3273:3491   */\n    tag_9:\n        /* \"#utility.yul\":3364:3368   */\n      0x00\n        /* \"#utility.yul\":3402:3404   */\n      0x20\n        /* \"#utility.yul\":3391:3400   */\n      dup3\n        /* \"#utility.yul\":3387:3405   */\n      add\n        /* \"#utility.yul\":3379:3405   */\n      swap1\n      pop\n        /* \"#utility.yul\":3415:3484   */\n      tag_91\n        /* \"#utility.yul\":3481:3482   */\n      0x00\n        /* \"#utility.yul\":3470:3479   */\n      dup4\n        /* \"#utility.yul\":3466:3483   */\n      add\n        /* \"#utility.yul\":3457:3463   */\n      dup5\n        /* \"#utility.yul\":3415:3484   */\n      tag_48\n      jump\t// in\n    tag_91:\n        /* \"#utility.yul\":3273:3491   */\n      swap3\n      swap2\n      pop\n      pop\n      jump\t// out\n        /* \"#utility.yul\":3497:3574   */\n    tag_49:\n        /* \"#utility.yul\":3534:3541   */\n      0x00\n        /* \"#utility.yul\":3563:3568   */\n      dup2\n        /* \"#utility.yul\":3552:3568   */\n      swap1\n      pop\n        /* \"#utility.yul\":3497:3574   */\n      swap2\n      swap1\n      pop\n      jump\t// out\n        /* \"#utility.yul\":3580:3760   */\n    tag_50:\n        /* \"#utility.yul\":3628:3705   */\n      0x4e487b7100000000000000000000000000000000000000000000000000000000\n        /* \"#utility.yul\":3625:3626   */\n      0x00\n        /* \"#utility.yul\":3618:3706   */\n      mstore\n        /* \"#utility.yul\":3725:3729   */\n      0x11\n        /* \"#utility.yul\":3722:3723   */\n      0x04\n        /* \"#utility.yul\":3715:3730   */\n      mstore\n        /* \"#utility.yul\":3749:3753   */\n      0x24\n        /* \"#utility.yul\":3746:3747   */\n      0x00\n        /* \"#utility.yul\":3739:3754   */\n      revert\n        /* \"#utility.yul\":3766:3960   */\n    tag_15:\n        /* \"#utility.yul\":3806:3810   */\n      0x00\n        /* \"#utility.yul\":3826:3846   */\n      tag_95\n        /* \"#utility.yul\":3844:3845   */\n      dup3\n        /* \"#utility.yul\":3826:3846   */\n      tag_49\n      jump\t// in\n    tag_95:\n        /* \"#utility.yul\":3821:3846   */\n      swap2\n      pop\n        /* \"#utility.yul\":3860:3880   */\n      tag_96\n        /* \"#utility.yul\":3878:3879   */\n      dup4\n        /* \"#utility.yul\":3860:3880   */\n      tag_49\n      jump\t// in\n    tag_96:\n        /* \"#utility.yul\":3855:3880   */\n      swap3\n      pop\n        /* \"#utility.yul\":3904:3905   */\n      dup3\n        /* \"#utility.yul\":3901:3902   */\n      dup3\n        /* \"#utility.yul\":3897:3906   */\n      sub\n        /* \"#utility.yul\":3889:3906   */\n      swap1\n      pop\n        /* \"#utility.yul\":3928:3929   */\n      dup2\n        /* \"#utility.yul\":3922:3926   */\n      dup2\n        /* \"#utility.yul\":3919:3930   */\n      gt\n        /* \"#utility.yul\":3916:3953   */\n      iszero\n      tag_97\n      jumpi\n        /* \"#utility.yul\":3933:3951   */\n      tag_98\n      tag_50\n      jump\t// in\n    tag_98:\n        /* \"#utility.yul\":3916:3953   */\n    tag_97:\n        /* \"#utility.yul\":3766:3960   */\n      swap3\n      swap2\n      pop\n      pop\n      jump\t// out\n        /* \"#utility.yul\":3966:4157   */\n    tag_18:\n        /* \"#utility.yul\":4006:4009   */\n      0x00\n        /* \"#utility.yul\":4025:4045   */\n      tag_100\n        /* \"#utility.yul\":4043:4044   */\n      dup3\n        /* \"#utility.yul\":4025:4045   */\n      tag_49\n      jump\t// in\n    tag_100:\n        /* \"#utility.yul\":4020:4045   */\n      swap2\n      pop\n        /* \"#utility.yul\":4059:4079   */\n      tag_101\n        /* \"#utility.yul\":4077:4078   */\n      dup4\n        /* \"#utility.yul\":4059:4079   */\n      tag_49\n      jump\t// in\n    tag_101:\n        /* \"#utility.yul\":4054:4079   */\n      swap3\n      pop\n        /* \"#utility.yul\":4102:4103   */\n      dup3\n        /* \"#utility.yul\":4099:4100   */\n      dup3\n        /* \"#utility.yul\":4095:4104   */\n      add\n        /* \"#utility.yul\":4088:4104   */\n      swap1\n      pop\n        /* \"#utility.yul\":4123:4126   */\n      dup1\n        /* \"#utility.yul\":4120:4121   */\n      dup3\n        /* \"#utility.yul\":4117:4127   */\n      gt\n        /* \"#utility.yul\":4114:4150   */\n      iszero\n      tag_102\n      jumpi\n        /* \"#utility.yul\":4130:4148   */\n      tag_103\n      tag_50\n      jump\t// in\n    tag_103:\n        /* \"#utility.yul\":4114:4150   */\n    tag_102:\n        /* \"#utility.yul\":3966:4157   */\n      swap3\n      swap2\n      pop\n      pop\n      jump\t// out\n        /* \"#utility.yul\":4163:4343   */\n    tag_21:\n        /* \"#utility.yul\":4211:4288   */\n      0x4e487b7100000000000000000000000000000000000000000000000000000000\n        /* \"#utility.yul\":4208:4209   */\n      0x00\n        /* \"#utility.yul\":4201:4289   */\n      mstore\n        /* \"#utility.yul\":4308:4312   */\n      0x32\n        /* \"#utility.yul\":4305:4306   */\n      0x04\n        /* \"#utility.yul\":4298:4313   */\n      mstore\n        /* \"#utility.yul\":4332:4336   */\n      0x24\n        /* \"#utility.yul\":4329:4330   */\n      0x00\n        /* \"#utility.yul\":4322:4337   */\n      revert\n        /* \"#utility.yul\":4349:4721   */\n    tag_28:\n        /* \"#utility.yul\":4388:4392   */\n      0x00\n        /* \"#utility.yul\":4408:4427   */\n      tag_106\n        /* \"#utility.yul\":4425:4426   */\n      dup3\n        /* \"#utility.yul\":4408:4427   */\n      tag_47\n      jump\t// in\n    tag_106:\n        /* \"#utility.yul\":4403:4427   */\n      swap2\n      pop\n        /* \"#utility.yul\":4441:4460   */\n      tag_107\n        /* \"#utility.yul\":4458:4459   */\n      dup4\n        /* \"#utility.yul\":4441:4460   */\n      tag_47\n      jump\t// in\n    tag_107:\n        /* \"#utility.yul\":4436:4460   */\n      swap3\n      pop\n        /* \"#utility.yul\":4484:4485   */\n      dup3\n        /* \"#utility.yul\":4481:4482   */\n      dup3\n        /* \"#utility.yul\":4477:4486   */\n      sub\n        /* \"#utility.yul\":4469:4486   */\n      swap1\n      pop\n        /* \"#utility.yul\":4678:4679   */\n      dup2\n        /* \"#utility.yul\":4672:4676   */\n      dup2\n        /* \"#utility.yul\":4668:4680   */\n      slt\n        /* \"#utility.yul\":4664:4665   */\n      0x00\n        /* \"#utility.yul\":4661:4662   */\n      dup5\n        /* \"#utility.yul\":4657:4666   */\n      slt\n        /* \"#utility.yul\":4653:4681   */\n      and\n        /* \"#utility.yul\":4636:4637   */\n      dup3\n        /* \"#utility.yul\":4630:4634   */\n      dup3\n        /* \"#utility.yul\":4626:4638   */\n      sgt\n        /* \"#utility.yul\":4621:4622   */\n      0x00\n        /* \"#utility.yul\":4618:4619   */\n      dup6\n        /* \"#utility.yul\":4614:4623   */\n      slt\n        /* \"#utility.yul\":4607:4624   */\n      iszero\n        /* \"#utility.yul\":4603:4639   */\n      and\n        /* \"#utility.yul\":4587:4691   */\n      or\n        /* \"#utility.yul\":4584:4714   */\n      iszero\n      tag_108\n      jumpi\n        /* \"#utility.yul\":4694:4712   */\n      tag_109\n      tag_50\n      jump\t// in\n    tag_109:\n        /* \"#utility.yul\":4584:4714   */\n    tag_108:\n        /* \"#utility.yul\":4349:4721   */\n      swap3\n      swap2\n      pop\n      pop\n      jump\t// out\n        /* \"#utility.yul\":4727:5102   */\n    tag_33:\n        /* \"#utility.yul\":4766:4769   */\n      0x00\n        /* \"#utility.yul\":4785:4804   */\n      tag_111\n        /* \"#utility.yul\":4802:4803   */\n      dup3\n        /* \"#utility.yul\":4785:4804   */\n      tag_47\n      jump\t// in\n    tag_111:\n        /* \"#utility.yul\":4780:4804   */\n      swap2\n      pop\n        /* \"#utility.yul\":4818:4837   */\n      tag_112\n        /* \"#utility.yul\":4835:4836   */\n      dup4\n        /* \"#utility.yul\":4818:4837   */\n      tag_47\n      jump\t// in\n    tag_112:\n        /* \"#utility.yul\":4813:4837   */\n      swap3\n      pop\n        /* \"#utility.yul\":4860:4861   */\n      dup3\n        /* \"#utility.yul\":4857:4858   */\n      dup3\n        /* \"#utility.yul\":4853:4862   */\n      add\n        /* \"#utility.yul\":4846:4862   */\n      swap1\n      pop\n        /* \"#utility.yul\":5058:5059   */\n      dup3\n        /* \"#utility.yul\":5053:5056   */\n      dup2\n        /* \"#utility.yul\":5049:5060   */\n      slt\n        /* \"#utility.yul\":5042:5061   */\n      iszero\n        /* \"#utility.yul\":5038:5039   */\n      0x00\n        /* \"#utility.yul\":5035:5036   */\n      dup4\n        /* \"#utility.yul\":5031:5040   */\n      slt\n        /* \"#utility.yul\":5027:5062   */\n      and\n        /* \"#utility.yul\":5010:5011   */\n      dup4\n        /* \"#utility.yul\":5005:5008   */\n      dup3\n        /* \"#utility.yul\":5001:5012   */\n      slt\n        /* \"#utility.yul\":4996:4997   */\n      0x00\n        /* \"#utility.yul\":4993:4994   */\n      dup5\n        /* \"#utility.yul\":4989:4998   */\n      slt\n        /* \"#utility.yul\":4982:4999   */\n      iszero\n        /* \"#utility.yul\":4978:5013   */\n      and\n        /* \"#utility.yul\":4962:5072   */\n      or\n        /* \"#utility.yul\":4959:5095   */\n      iszero\n      tag_113\n      jumpi\n        /* \"#utility.yul\":5075:5093   */\n      tag_114\n      tag_50\n      jump\t// in\n    tag_114:\n        /* \"#utility.yul\":4959:5095   */\n    tag_113:\n        /* \"#utility.yul\":4727:5102   */\n      swap3\n      swap2\n      pop\n      pop\n      jump\t// out\n\n    auxdata: 0xa264697066735822122053da7ff1e38eec7ec09dbe11997c0ea9b1dd7c2a8a1027e4a8e8bb50459f588964736f6c634300081e0033\n}\n",
				"bytecode": {
					"linkReferences": {},
					"object": "608060405234801561000f575f5ffd5b5060015f5f7f49000000000000000000000000000000000000000000000000000000000000007effffffffffffffffffffffffffffffffffffffffffffffffffffffffffffff191681526020019081526020015f208190555060055f5f7f56000000000000000000000000000000000000000000000000000000000000007effffffffffffffffffffffffffffffffffffffffffffffffffffffffffffff191681526020019081526020015f2081905550600a5f5f7f58000000000000000000000000000000000000000000000000000000000000007effffffffffffffffffffffffffffffffffffffffffffffffffffffffffffff191681526020019081526020015f208190555060325f5f7f4c000000000000000000000000000000000000000000000000000000000000007effffffffffffffffffffffffffffffffffffffffffffffffffffffffffffff191681526020019081526020015f208190555060645f5f7f43000000000000000000000000000000000000000000000000000000000000007effffffffffffffffffffffffffffffffffffffffffffffffffffffffffffff191681526020019081526020015f20819055506101f45f5f7f44000000000000000000000000000000000000000000000000000000000000007effffffffffffffffffffffffffffffffffffffffffffffffffffffffffffff191681526020019081526020015f20819055506103e85f5f7f4d000000000000000000000000000000000000000000000000000000000000007effffffffffffffffffffffffffffffffffffffffffffffffffffffffffffff191681526020019081526020015f20819055506105e3806102875f395ff3fe608060405234801561000f575f5ffd5b5060043610610029575f3560e01c8063cb159dfe1461002d575b5f5ffd5b610047600480360381019061004291906103eb565b61005d565b604051610054919061044a565b60405180910390f35b5f5f8290505f5f90505f5f90505b825181101561029357600183516100829190610499565b8110801561017d57505f5f8460018461009b91906104cc565b815181106100ac576100ab6104ff565b5b602001015160f81c60f81b7effffffffffffffffffffffffffffffffffffffffffffffffffffffffffffff19167effffffffffffffffffffffffffffffffffffffffffffffffffffffffffffff191681526020019081526020015f20545f5f85848151811061011e5761011d6104ff565b5b602001015160f81c60f81b7effffffffffffffffffffffffffffffffffffffffffffffffffffffffffffff19167effffffffffffffffffffffffffffffffffffffffffffffffffffffffffffff191681526020019081526020015f2054125b15610206575f5f848381518110610197576101966104ff565b5b602001015160f81c60f81b7effffffffffffffffffffffffffffffffffffffffffffffffffffffffffffff19167effffffffffffffffffffffffffffffffffffffffffffffffffffffffffffff191681526020019081526020015f2054826101ff919061052c565b9150610286565b5f5f84838151811061021b5761021a6104ff565b5b602001015160f81c60f81b7effffffffffffffffffffffffffffffffffffffffffffffffffffffffffffff19167effffffffffffffffffffffffffffffffffffffffffffffffffffffffffffff191681526020019081526020015f205482610283919061056c565b91505b808060010191505061006b565b508092505050919050565b5f604051905090565b5f5ffd5b5f5ffd5b5f5ffd5b5f5ffd5b5f601f19601f8301169050919050565b7f4e487b71000000000000000000000000000000000000000000000000000000005f52604160045260245ffd5b6102fd826102b7565b810181811067ffffffffffffffff8211171561031c5761031b6102c7565b5b80604052505050565b5f61032e61029e565b905061033a82826102f4565b919050565b5f67ffffffffffffffff821115610359576103586102c7565b5b610362826102b7565b9050602081019050919050565b828183375f83830152505050565b5f61038f61038a8461033f565b610325565b9050828152602081018484840111156103ab576103aa6102b3565b5b6103b684828561036f565b509392505050565b5f82601f8301126103d2576103d16102af565b5b81356103e284826020860161037d565b91505092915050565b5f60208284031215610400576103ff6102a7565b5b5f82013567ffffffffffffffff81111561041d5761041c6102ab565b5b610429848285016103be565b91505092915050565b5f819050919050565b61044481610432565b82525050565b5f60208201905061045d5f83018461043b565b92915050565b5f819050919050565b7f4e487b71000000000000000000000000000000000000000000000000000000005f52601160045260245ffd5b5f6104a382610463565b91506104ae83610463565b92508282039050818111156104c6576104c561046c565b5b92915050565b5f6104d682610463565b91506104e183610463565b92508282019050808211156104f9576104f861046c565b5b92915050565b7f4e487b71000000000000000000000000000000000000000000000000000000005f52603260045260245ffd5b5f61053682610432565b915061054183610432565b925082820390508181125f8412168282135f8512151617156105665761056561046c565b5b92915050565b5f61057682610432565b915061058183610432565b92508282019050828112155f8312168382125f8412151617156105a7576105a661046c565b5b9291505056fea264697066735822122053da7ff1e38eec7ec09dbe11997c0ea9b1dd7c2a8a1027e4a8e8bb50459f588964736f6c634300081e0033",
					"opcodes": "PUSH1 0x80 PUSH1 0x40 MSTORE CALLVALUE DUP1 ISZERO PUSH2 0xF JUMPI PUSH0 PUSH0 REVERT JUMPDEST POP PUSH1 0x1 PUSH0 PUSH0 PUSH32 0x4900000000000000000000000000000000000000000000000000000000000000 PUSH31 0xFFFFFFFFFFFFFFFFFFFFFFFFFFFFFFFFFFFFFFFFFFFFFFFFFFFFFFFFFFFFFF NOT AND DUP2 MSTORE PUSH1 0x20 ADD SWAP1 DUP2 MSTORE PUSH1 0x20 ADD PUSH0 KECCAK256 DUP2 SWAP1 SSTORE POP PUSH1 0x5 PUSH0 PUSH0 PUSH32 0x5600000000000000000000000000000000000000000000000000000000000000 PUSH31 0xFFFFFFFFFFFFFFFFFFFFFFFFFFFFFFFFFFFFFFFFFFFFFFFFFFFFFFFFFFFFFF NOT AND DUP2 MSTORE PUSH1 0x20 ADD SWAP1 DUP2 MSTORE PUSH1 0x20 ADD PUSH0 KECCAK256 DUP2 SWAP1 SSTORE POP PUSH1 0xA PUSH0 PUSH0 PUSH32 0x5800000000000000000000000000000000000000000000000000000000000000 PUSH31 0xFFFFFFFFFFFFFFFFFFFFFFFFFFFFFFFFFFFFFFFFFFFFFFFFFFFFFFFFFFFFFF NOT AND DUP2 MSTORE PUSH1 0x20 ADD SWAP1 DUP2 MSTORE PUSH1 0x20 ADD PUSH0 KECCAK256 DUP2 SWAP1 SSTORE POP PUSH1 0x32 PUSH0 PUSH0 PUSH32 0x4C00000000000000000000000000000000000000000000000000000000000000 PUSH31 0xFFFFFFFFFFFFFFFFFFFFFFFFFFFFFFFFFFFFFFFFFFFFFFFFFFFFFFFFFFFFFF NOT AND DUP2 MSTORE PUSH1 0x20 ADD SWAP1 DUP2 MSTORE PUSH1 0x20 ADD PUSH0 KECCAK256 DUP2 SWAP1 SSTORE POP PUSH1 0x64 PUSH0 PUSH0 PUSH32 0x4300000000000000000000000000000000000000000000000000000000000000 PUSH31 0xFFFFFFFFFFFFFFFFFFFFFFFFFFFFFFFFFFFFFFFFFFFFFFFFFFFFFFFFFFFFFF NOT AND DUP2 MSTORE PUSH1 0x20 ADD SWAP1 DUP2 MSTORE PUSH1 0x20 ADD PUSH0 KECCAK256 DUP2 SWAP1 SSTORE POP PUSH2 0x1F4 PUSH0 PUSH0 PUSH32 0x4400000000000000000000000000000000000000000000000000000000000000 PUSH31 0xFFFFFFFFFFFFFFFFFFFFFFFFFFFFFFFFFFFFFFFFFFFFFFFFFFFFFFFFFFFFFF NOT AND DUP2 MSTORE PUSH1 0x20 ADD SWAP1 DUP2 MSTORE PUSH1 0x20 ADD PUSH0 KECCAK256 DUP2 SWAP1 SSTORE POP PUSH2 0x3E8 PUSH0 PUSH0 PUSH32 0x4D00000000000000000000000000000000000000000000000000000000000000 PUSH31 0xFFFFFFFFFFFFFFFFFFFFFFFFFFFFFFFFFFFFFFFFFFFFFFFFFFFFFFFFFFFFFF NOT AND DUP2 MSTORE PUSH1 0x20 ADD SWAP1 DUP2 MSTORE PUSH1 0x20 ADD PUSH0 KECCAK256 DUP2 SWAP1 SSTORE POP PUSH2 0x5E3 DUP1 PUSH2 0x287 PUSH0 CODECOPY PUSH0 RETURN INVALID PUSH1 0x80 PUSH1 0x40 MSTORE CALLVALUE DUP1 ISZERO PUSH2 0xF JUMPI PUSH0 PUSH0 REVERT JUMPDEST POP PUSH1 0x4 CALLDATASIZE LT PUSH2 0x29 JUMPI PUSH0 CALLDATALOAD PUSH1 0xE0 SHR DUP1 PUSH4 0xCB159DFE EQ PUSH2 0x2D JUMPI JUMPDEST PUSH0 PUSH0 REVERT JUMPDEST PUSH2 0x47 PUSH1 0x4 DUP1 CALLDATASIZE SUB DUP2 ADD SWAP1 PUSH2 0x42 SWAP2 SWAP1 PUSH2 0x3EB JUMP JUMPDEST PUSH2 0x5D JUMP JUMPDEST PUSH1 0x40 MLOAD PUSH2 0x54 SWAP2 SWAP1 PUSH2 0x44A JUMP JUMPDEST PUSH1 0x40 MLOAD DUP1 SWAP2 SUB SWAP1 RETURN JUMPDEST PUSH0 PUSH0 DUP3 SWAP1 POP PUSH0 PUSH0 SWAP1 POP PUSH0 PUSH0 SWAP1 POP JUMPDEST DUP3 MLOAD DUP2 LT ISZERO PUSH2 0x293 JUMPI PUSH1 0x1 DUP4 MLOAD PUSH2 0x82 SWAP2 SWAP1 PUSH2 0x499 JUMP JUMPDEST DUP2 LT DUP1 ISZERO PUSH2 0x17D JUMPI POP PUSH0 PUSH0 DUP5 PUSH1 0x1 DUP5 PUSH2 0x9B SWAP2 SWAP1 PUSH2 0x4CC JUMP JUMPDEST DUP2 MLOAD DUP2 LT PUSH2 0xAC JUMPI PUSH2 0xAB PUSH2 0x4FF JUMP JUMPDEST JUMPDEST PUSH1 0x20 ADD ADD MLOAD PUSH1 0xF8 SHR PUSH1 0xF8 SHL PUSH31 0xFFFFFFFFFFFFFFFFFFFFFFFFFFFFFFFFFFFFFFFFFFFFFFFFFFFFFFFFFFFFFF NOT AND PUSH31 0xFFFFFFFFFFFFFFFFFFFFFFFFFFFFFFFFFFFFFFFFFFFFFFFFFFFFFFFFFFFFFF NOT AND DUP2 MSTORE PUSH1 0x20 ADD SWAP1 DUP2 MSTORE PUSH1 0x20 ADD PUSH0 KECCAK256 SLOAD PUSH0 PUSH0 DUP6 DUP5 DUP2 MLOAD DUP2 LT PUSH2 0x11E JUMPI PUSH2 0x11D PUSH2 0x4FF JUMP JUMPDEST JUMPDEST PUSH1 0x20 ADD ADD MLOAD PUSH1 0xF8 SHR PUSH1 0xF8 SHL PUSH31 0xFFFFFFFFFFFFFFFFFFFFFFFFFFFFFFFFFFFFFFFFFFFFFFFFFFFFFFFFFFFFFF NOT AND PUSH31 0xFFFFFFFFFFFFFFFFFFFFFFFFFFFFFFFFFFFFFFFFFFFFFFFFFFFFFFFFFFFFFF NOT AND DUP2 MSTORE PUSH1 0x20 ADD SWAP1 DUP2 MSTORE PUSH1 0x20 ADD PUSH0 KECCAK256 SLOAD SLT JUMPDEST ISZERO PUSH2 0x206 JUMPI PUSH0 PUSH0 DUP5 DUP4 DUP2 MLOAD DUP2 LT PUSH2 0x197 JUMPI PUSH2 0x196 PUSH2 0x4FF JUMP JUMPDEST JUMPDEST PUSH1 0x20 ADD ADD MLOAD PUSH1 0xF8 SHR PUSH1 0xF8 SHL PUSH31 0xFFFFFFFFFFFFFFFFFFFFFFFFFFFFFFFFFFFFFFFFFFFFFFFFFFFFFFFFFFFFFF NOT AND PUSH31 0xFFFFFFFFFFFFFFFFFFFFFFFFFFFFFFFFFFFFFFFFFFFFFFFFFFFFFFFFFFFFFF NOT AND DUP2 MSTORE PUSH1 0x20 ADD SWAP1 DUP2 MSTORE PUSH1 0x20 ADD PUSH0 KECCAK256 SLOAD DUP3 PUSH2 0x1FF SWAP2 SWAP1 PUSH2 0x52C JUMP JUMPDEST SWAP2 POP PUSH2 0x286 JUMP JUMPDEST PUSH0 PUSH0 DUP5 DUP4 DUP2 MLOAD DUP2 LT PUSH2 0x21B JUMPI PUSH2 0x21A PUSH2 0x4FF JUMP JUMPDEST JUMPDEST PUSH1 0x20 ADD ADD MLOAD PUSH1 0xF8 SHR PUSH1 0xF8 SHL PUSH31 0xFFFFFFFFFFFFFFFFFFFFFFFFFFFFFFFFFFFFFFFFFFFFFFFFFFFFFFFFFFFFFF NOT AND PUSH31 0xFFFFFFFFFFFFFFFFFFFFFFFFFFFFFFFFFFFFFFFFFFFFFFFFFFFFFFFFFFFFFF NOT AND DUP2 MSTORE PUSH1 0x20 ADD SWAP1 DUP2 MSTORE PUSH1 0x20 ADD PUSH0 KECCAK256 SLOAD DUP3 PUSH2 0x283 SWAP2 SWAP1 PUSH2 0x56C JUMP JUMPDEST SWAP2 POP JUMPDEST DUP1 DUP1 PUSH1 0x1 ADD SWAP2 POP POP PUSH2 0x6B JUMP JUMPDEST POP DUP1 SWAP3 POP POP POP SWAP2 SWAP1 POP JUMP JUMPDEST PUSH0 PUSH1 0x40 MLOAD SWAP1 POP SWAP1 JUMP JUMPDEST PUSH0 PUSH0 REVERT JUMPDEST PUSH0 PUSH0 REVERT JUMPDEST PUSH0 PUSH0 REVERT JUMPDEST PUSH0 PUSH0 REVERT JUMPDEST PUSH0 PUSH1 0x1F NOT PUSH1 0x1F DUP4 ADD AND SWAP1 POP SWAP2 SWAP1 POP JUMP JUMPDEST PUSH32 0x4E487B7100000000000000000000000000000000000000000000000000000000 PUSH0 MSTORE PUSH1 0x41 PUSH1 0x4 MSTORE PUSH1 0x24 PUSH0 REVERT JUMPDEST PUSH2 0x2FD DUP3 PUSH2 0x2B7 JUMP JUMPDEST DUP2 ADD DUP2 DUP2 LT PUSH8 0xFFFFFFFFFFFFFFFF DUP3 GT OR ISZERO PUSH2 0x31C JUMPI PUSH2 0x31B PUSH2 0x2C7 JUMP JUMPDEST JUMPDEST DUP1 PUSH1 0x40 MSTORE POP POP POP JUMP JUMPDEST PUSH0 PUSH2 0x32E PUSH2 0x29E JUMP JUMPDEST SWAP1 POP PUSH2 0x33A DUP3 DUP3 PUSH2 0x2F4 JUMP JUMPDEST SWAP2 SWAP1 POP JUMP JUMPDEST PUSH0 PUSH8 0xFFFFFFFFFFFFFFFF DUP3 GT ISZERO PUSH2 0x359 JUMPI PUSH2 0x358 PUSH2 0x2C7 JUMP JUMPDEST JUMPDEST PUSH2 0x362 DUP3 PUSH2 0x2B7 JUMP JUMPDEST SWAP1 POP PUSH1 0x20 DUP2 ADD SWAP1 POP SWAP2 SWAP1 POP JUMP JUMPDEST DUP3 DUP2 DUP4 CALLDATACOPY PUSH0 DUP4 DUP4 ADD MSTORE POP POP POP JUMP JUMPDEST PUSH0 PUSH2 0x38F PUSH2 0x38A DUP5 PUSH2 0x33F JUMP JUMPDEST PUSH2 0x325 JUMP JUMPDEST SWAP1 POP DUP3 DUP2 MSTORE PUSH1 0x20 DUP2 ADD DUP5 DUP5 DUP5 ADD GT ISZERO PUSH2 0x3AB JUMPI PUSH2 0x3AA PUSH2 0x2B3 JUMP JUMPDEST JUMPDEST PUSH2 0x3B6 DUP5 DUP3 DUP6 PUSH2 0x36F JUMP JUMPDEST POP SWAP4 SWAP3 POP POP POP JUMP JUMPDEST PUSH0 DUP3 PUSH1 0x1F DUP4 ADD SLT PUSH2 0x3D2 JUMPI PUSH2 0x3D1 PUSH2 0x2AF JUMP JUMPDEST JUMPDEST DUP2 CALLDATALOAD PUSH2 0x3E2 DUP5 DUP3 PUSH1 0x20 DUP7 ADD PUSH2 0x37D JUMP JUMPDEST SWAP2 POP POP SWAP3 SWAP2 POP POP JUMP JUMPDEST PUSH0 PUSH1 0x20 DUP3 DUP5 SUB SLT ISZERO PUSH2 0x400 JUMPI PUSH2 0x3FF PUSH2 0x2A7 JUMP JUMPDEST JUMPDEST PUSH0 DUP3 ADD CALLDATALOAD PUSH8 0xFFFFFFFFFFFFFFFF DUP2 GT ISZERO PUSH2 0x41D JUMPI PUSH2 0x41C PUSH2 0x2AB JUMP JUMPDEST JUMPDEST PUSH2 0x429 DUP5 DUP3 DUP6 ADD PUSH2 0x3BE JUMP JUMPDEST SWAP2 POP POP SWAP3 SWAP2 POP POP JUMP JUMPDEST PUSH0 DUP2 SWAP1 POP SWAP2 SWAP1 POP JUMP JUMPDEST PUSH2 0x444 DUP2 PUSH2 0x432 JUMP JUMPDEST DUP3 MSTORE POP POP JUMP JUMPDEST PUSH0 PUSH1 0x20 DUP3 ADD SWAP1 POP PUSH2 0x45D PUSH0 DUP4 ADD DUP5 PUSH2 0x43B JUMP JUMPDEST SWAP3 SWAP2 POP POP JUMP JUMPDEST PUSH0 DUP2 SWAP1 POP SWAP2 SWAP1 POP JUMP JUMPDEST PUSH32 0x4E487B7100000000000000000000000000000000000000000000000000000000 PUSH0 MSTORE PUSH1 0x11 PUSH1 0x4 MSTORE PUSH1 0x24 PUSH0 REVERT JUMPDEST PUSH0 PUSH2 0x4A3 DUP3 PUSH2 0x463 JUMP JUMPDEST SWAP2 POP PUSH2 0x4AE DUP4 PUSH2 0x463 JUMP JUMPDEST SWAP3 POP DUP3 DUP3 SUB SWAP1 POP DUP2 DUP2 GT ISZERO PUSH2 0x4C6 JUMPI PUSH2 0x4C5 PUSH2 0x46C JUMP JUMPDEST JUMPDEST SWAP3 SWAP2 POP POP JUMP JUMPDEST PUSH0 PUSH2 0x4D6 DUP3 PUSH2 0x463 JUMP JUMPDEST SWAP2 POP PUSH2 0x4E1 DUP4 PUSH2 0x463 JUMP JUMPDEST SWAP3 POP DUP3 DUP3 ADD SWAP1 POP DUP1 DUP3 GT ISZERO PUSH2 0x4F9 JUMPI PUSH2 0x4F8 PUSH2 0x46C JUMP JUMPDEST JUMPDEST SWAP3 SWAP2 POP POP JUMP JUMPDEST PUSH32 0x4E487B7100000000000000000000000000000000000000000000000000000000 PUSH0 MSTORE PUSH1 0x32 PUSH1 0x4 MSTORE PUSH1 0x24 PUSH0 REVERT JUMPDEST PUSH0 PUSH2 0x536 DUP3 PUSH2 0x432 JUMP JUMPDEST SWAP2 POP PUSH2 0x541 DUP4 PUSH2 0x432 JUMP JUMPDEST SWAP3 POP DUP3 DUP3 SUB SWAP1 POP DUP2 DUP2 SLT PUSH0 DUP5 SLT AND DUP3 DUP3 SGT PUSH0 DUP6 SLT ISZERO AND OR ISZERO PUSH2 0x566 JUMPI PUSH2 0x565 PUSH2 0x46C JUMP JUMPDEST JUMPDEST SWAP3 SWAP2 POP POP JUMP JUMPDEST PUSH0 PUSH2 0x576 DUP3 PUSH2 0x432 JUMP JUMPDEST SWAP2 POP PUSH2 0x581 DUP4 PUSH2 0x432 JUMP JUMPDEST SWAP3 POP DUP3 DUP3 ADD SWAP1 POP DUP3 DUP2 SLT ISZERO PUSH0 DUP4 SLT AND DUP4 DUP3 SLT PUSH0 DUP5 SLT ISZERO AND OR ISZERO PUSH2 0x5A7 JUMPI PUSH2 0x5A6 PUSH2 0x46C JUMP JUMPDEST JUMPDEST SWAP3 SWAP2 POP POP JUMP INVALID LOG2 PUSH5 0x6970667358 0x22 SLT KECCAK256 MSTORE8 0xDA PUSH32 0xF1E38EEC7EC09DBE11997C0EA9B1DD7C2A8A1027E4A8E8BB50459F588964736F PUSH13 0x634300081E0033000000000000 "
				},
				"gasEstimates": {
					"creation": {
						"codeDepositCost": "301400",
						"executionCost": "155727",
						"totalCost": "457127"
					},
					"external": {
						"romanToInt(string)": "infinite"
					}
				},
				"methodIdentifiers": {
					"romanToInt(string)": "cb159dfe"
				}
			},
			"storageLayout": {
				"storage": [
					{
						"astId": 5,
						"contract": "Task_1/RomanToInt/RomanToInt.sol:RomanToInt",
						"label": "romanMap",
						"offset": 0,
						"slot": "0",
						"type": "t_mapping(t_bytes1,t_int256)"
					}
				],
				"types": {
					"t_bytes1": {
						"encoding": "inplace",
						"label": "bytes1",
						"numberOfBytes": "1"
					},
					"t_int256": {
						"encoding": "inplace",
						"label": "int256",
						"numberOfBytes": "32"
					},
					"t_mapping(t_bytes1,t_int256)": {
						"encoding": "mapping",
						"key": "t_bytes1",
						"label": "mapping(bytes1 => int256)",
						"numberOfBytes": "32",
						"value": "t_int256"
					}
				}
			},
			"userdoc": {
				"kind": "user",
				"methods": {},
				"version": 1
			}
		}
	}
}