{
	"Task_1/MergeSortedArray/MergeSortedArray.sol": {
		"MergeSortedArray": {
			"abi": [
				{
					"inputs": [
						{
							"internalType": "int256[]",
							"name": "arr1",
							"type": "int256[]"
						},
						{
							"internalType": "int256[]",
							"name": "arr2",
							"type": "int256[]"
						}
					],
					"name": "mergeSortedArray",
					"outputs": [
						{
							"internalType": "int256[]",
							"name": "",
							"type": "int256[]"
						}
					],
					"stateMutability": "pure",
					"type": "function"
				}
			],
			"devdoc": {
				"kind": "dev",
				"methods": {},
				"version": 1
			},
			"evm": {
				"assembly": "    /* \"Task_1/MergeSortedArray/MergeSortedArray.sol\":183:1068  contract MergeSortedArray {... */\n  mstore(0x40, 0x80)\n  callvalue\n  dup1\n  iszero\n  tag_1\n  jumpi\n  revert(0x00, 0x00)\ntag_1:\n  pop\n  dataSize(sub_0)\n  dup1\n  dataOffset(sub_0)\n  0x00\n  codecopy\n  0x00\n  return\nstop\n\nsub_0: assembly {\n        /* \"Task_1/MergeSortedArray/MergeSortedArray.sol\":183:1068  contract MergeSortedArray {... */\n      mstore(0x40, 0x80)\n      callvalue\n      dup1\n      iszero\n      tag_1\n      jumpi\n      revert(0x00, 0x00)\n    tag_1:\n      pop\n      jumpi(tag_2, lt(calldatasize, 0x04))\n      shr(0xe0, calldataload(0x00))\n      dup1\n      0xf0322198\n      eq\n      tag_3\n      jumpi\n    tag_2:\n      revert(0x00, 0x00)\n        /* \"Task_1/MergeSortedArray/MergeSortedArray.sol\":216:1065  function mergeSortedArray(int256[] memory arr1,int256[] memory arr2)public pure returns(int256[] memory){... */\n    tag_3:\n      tag_4\n      0x04\n      dup1\n      calldatasize\n      sub\n      dup2\n      add\n      swap1\n      tag_5\n      swap2\n      swap1\n      tag_6\n      jump\t// in\n    tag_5:\n      tag_7\n      jump\t// in\n    tag_4:\n      mload(0x40)\n      tag_8\n      swap2\n      swap1\n      tag_9\n      jump\t// in\n    tag_8:\n      mload(0x40)\n      dup1\n      swap2\n      sub\n      swap1\n      return\n    tag_7:\n        /* \"Task_1/MergeSortedArray/MergeSortedArray.sol\":304:319  int256[] memory */\n      0x60\n        /* \"Task_1/MergeSortedArray/MergeSortedArray.sol\":331:339  uint len */\n      0x00\n        /* \"Task_1/MergeSortedArray/MergeSortedArray.sol\":356:360  arr2 */\n      dup3\n        /* \"Task_1/MergeSortedArray/MergeSortedArray.sol\":356:367  arr2.length */\n      mload\n        /* \"Task_1/MergeSortedArray/MergeSortedArray.sol\":342:346  arr1 */\n      dup5\n        /* \"Task_1/MergeSortedArray/MergeSortedArray.sol\":342:353  arr1.length */\n      mload\n        /* \"Task_1/MergeSortedArray/MergeSortedArray.sol\":342:367  arr1.length + arr2.length */\n      tag_11\n      swap2\n      swap1\n      tag_12\n      jump\t// in\n    tag_11:\n        /* \"Task_1/MergeSortedArray/MergeSortedArray.sol\":331:367  uint len = arr1.length + arr2.length */\n      swap1\n      pop\n        /* \"Task_1/MergeSortedArray/MergeSortedArray.sol\":378:397  int256[] memory res */\n      0x00\n        /* \"Task_1/MergeSortedArray/MergeSortedArray.sol\":411:414  len */\n      dup2\n        /* \"Task_1/MergeSortedArray/MergeSortedArray.sol\":398:415  new int256[](len) */\n      0xffffffffffffffff\n      dup2\n      gt\n      iszero\n      tag_13\n      jumpi\n      tag_14\n      tag_15\n      jump\t// in\n    tag_14:\n    tag_13:\n      mload(0x40)\n      swap1\n      dup1\n      dup3\n      mstore\n      dup1\n      0x20\n      mul\n      0x20\n      add\n      dup3\n      add\n      0x40\n      mstore\n      dup1\n      iszero\n      tag_16\n      jumpi\n      dup2\n      0x20\n      add\n      0x20\n      dup3\n      mul\n      dup1\n      calldatasize\n      dup4\n      calldatacopy\n      dup1\n      dup3\n      add\n      swap2\n      pop\n      pop\n      swap1\n      pop\n    tag_16:\n      pop\n        /* \"Task_1/MergeSortedArray/MergeSortedArray.sol\":378:415  int256[] memory res=new int256[](len) */\n      swap1\n      pop\n        /* \"Task_1/MergeSortedArray/MergeSortedArray.sol\":426:435  uint idx1 */\n      0x00\n        /* \"Task_1/MergeSortedArray/MergeSortedArray.sol\":436:437  0 */\n      0x00\n        /* \"Task_1/MergeSortedArray/MergeSortedArray.sol\":426:437  uint idx1=0 */\n      swap1\n      pop\n        /* \"Task_1/MergeSortedArray/MergeSortedArray.sol\":449:458  uint idx2 */\n      0x00\n        /* \"Task_1/MergeSortedArray/MergeSortedArray.sol\":459:460  0 */\n      0x00\n        /* \"Task_1/MergeSortedArray/MergeSortedArray.sol\":449:460  uint idx2=0 */\n      swap1\n      pop\n        /* \"Task_1/MergeSortedArray/MergeSortedArray.sol\":471:479  uint idx */\n      0x00\n        /* \"Task_1/MergeSortedArray/MergeSortedArray.sol\":481:482  0 */\n      0x00\n        /* \"Task_1/MergeSortedArray/MergeSortedArray.sol\":471:482  uint idx =0 */\n      swap1\n      pop\n        /* \"Task_1/MergeSortedArray/MergeSortedArray.sol\":493:797  while (idx1<arr1.length&&idx2<arr2.length){... */\n    tag_17:\n        /* \"Task_1/MergeSortedArray/MergeSortedArray.sol\":505:509  arr1 */\n      dup8\n        /* \"Task_1/MergeSortedArray/MergeSortedArray.sol\":505:516  arr1.length */\n      mload\n        /* \"Task_1/MergeSortedArray/MergeSortedArray.sol\":500:504  idx1 */\n      dup4\n        /* \"Task_1/MergeSortedArray/MergeSortedArray.sol\":500:516  idx1<arr1.length */\n      lt\n        /* \"Task_1/MergeSortedArray/MergeSortedArray.sol\":500:534  idx1<arr1.length&&idx2<arr2.length */\n      dup1\n      iszero\n      tag_19\n      jumpi\n      pop\n        /* \"Task_1/MergeSortedArray/MergeSortedArray.sol\":523:527  arr2 */\n      dup7\n        /* \"Task_1/MergeSortedArray/MergeSortedArray.sol\":523:534  arr2.length */\n      mload\n        /* \"Task_1/MergeSortedArray/MergeSortedArray.sol\":518:522  idx2 */\n      dup3\n        /* \"Task_1/MergeSortedArray/MergeSortedArray.sol\":518:534  idx2<arr2.length */\n      lt\n        /* \"Task_1/MergeSortedArray/MergeSortedArray.sol\":500:534  idx1<arr1.length&&idx2<arr2.length */\n    tag_19:\n        /* \"Task_1/MergeSortedArray/MergeSortedArray.sol\":493:797  while (idx1<arr1.length&&idx2<arr2.length){... */\n      iszero\n      tag_18\n      jumpi\n        /* \"Task_1/MergeSortedArray/MergeSortedArray.sol\":565:569  arr2 */\n      dup7\n        /* \"Task_1/MergeSortedArray/MergeSortedArray.sol\":570:574  idx2 */\n      dup3\n        /* \"Task_1/MergeSortedArray/MergeSortedArray.sol\":565:575  arr2[idx2] */\n      dup2\n      mload\n      dup2\n      lt\n      tag_20\n      jumpi\n      tag_21\n      tag_22\n      jump\t// in\n    tag_21:\n    tag_20:\n      0x20\n      mul\n      0x20\n      add\n      add\n      mload\n        /* \"Task_1/MergeSortedArray/MergeSortedArray.sol\":553:557  arr1 */\n      dup9\n        /* \"Task_1/MergeSortedArray/MergeSortedArray.sol\":558:562  idx1 */\n      dup5\n        /* \"Task_1/MergeSortedArray/MergeSortedArray.sol\":553:563  arr1[idx1] */\n      dup2\n      mload\n      dup2\n      lt\n      tag_23\n      jumpi\n      tag_24\n      tag_22\n      jump\t// in\n    tag_24:\n    tag_23:\n      0x20\n      mul\n      0x20\n      add\n      add\n      mload\n        /* \"Task_1/MergeSortedArray/MergeSortedArray.sol\":553:575  arr1[idx1]<=arr2[idx2] */\n      sgt\n        /* \"Task_1/MergeSortedArray/MergeSortedArray.sol\":550:786  if(arr1[idx1]<=arr2[idx2]){... */\n      tag_25\n      jumpi\n        /* \"Task_1/MergeSortedArray/MergeSortedArray.sol\":604:608  arr1 */\n      dup8\n        /* \"Task_1/MergeSortedArray/MergeSortedArray.sol\":609:613  idx1 */\n      dup4\n        /* \"Task_1/MergeSortedArray/MergeSortedArray.sol\":604:614  arr1[idx1] */\n      dup2\n      mload\n      dup2\n      lt\n      tag_26\n      jumpi\n      tag_27\n      tag_22\n      jump\t// in\n    tag_27:\n    tag_26:\n      0x20\n      mul\n      0x20\n      add\n      add\n      mload\n        /* \"Task_1/MergeSortedArray/MergeSortedArray.sol\":595:598  res */\n      dup5\n        /* \"Task_1/MergeSortedArray/MergeSortedArray.sol\":599:602  idx */\n      dup3\n        /* \"Task_1/MergeSortedArray/MergeSortedArray.sol\":595:603  res[idx] */\n      dup2\n      mload\n      dup2\n      lt\n      tag_28\n      jumpi\n      tag_29\n      tag_22\n      jump\t// in\n    tag_29:\n    tag_28:\n      0x20\n      mul\n      0x20\n      add\n      add\n        /* \"Task_1/MergeSortedArray/MergeSortedArray.sol\":595:614  res[idx]=arr1[idx1] */\n      dup2\n      dup2\n      mstore\n      pop\n      pop\n        /* \"Task_1/MergeSortedArray/MergeSortedArray.sol\":633:638  idx++ */\n      dup1\n      dup1\n      tag_30\n      swap1\n      tag_31\n      jump\t// in\n    tag_30:\n      swap2\n      pop\n      pop\n        /* \"Task_1/MergeSortedArray/MergeSortedArray.sol\":657:663  idx1++ */\n      dup3\n      dup1\n      tag_32\n      swap1\n      tag_31\n      jump\t// in\n    tag_32:\n      swap4\n      pop\n      pop\n        /* \"Task_1/MergeSortedArray/MergeSortedArray.sol\":550:786  if(arr1[idx1]<=arr2[idx2]){... */\n      jump(tag_33)\n    tag_25:\n        /* \"Task_1/MergeSortedArray/MergeSortedArray.sol\":711:715  arr2 */\n      dup7\n        /* \"Task_1/MergeSortedArray/MergeSortedArray.sol\":716:720  idx2 */\n      dup3\n        /* \"Task_1/MergeSortedArray/MergeSortedArray.sol\":711:721  arr2[idx2] */\n      dup2\n      mload\n      dup2\n      lt\n      tag_34\n      jumpi\n      tag_35\n      tag_22\n      jump\t// in\n    tag_35:\n    tag_34:\n      0x20\n      mul\n      0x20\n      add\n      add\n      mload\n        /* \"Task_1/MergeSortedArray/MergeSortedArray.sol\":702:705  res */\n      dup5\n        /* \"Task_1/MergeSortedArray/MergeSortedArray.sol\":706:709  idx */\n      dup3\n        /* \"Task_1/MergeSortedArray/MergeSortedArray.sol\":702:710  res[idx] */\n      dup2\n      mload\n      dup2\n      lt\n      tag_36\n      jumpi\n      tag_37\n      tag_22\n      jump\t// in\n    tag_37:\n    tag_36:\n      0x20\n      mul\n      0x20\n      add\n      add\n        /* \"Task_1/MergeSortedArray/MergeSortedArray.sol\":702:721  res[idx]=arr2[idx2] */\n      dup2\n      dup2\n      mstore\n      pop\n      pop\n        /* \"Task_1/MergeSortedArray/MergeSortedArray.sol\":740:745  idx++ */\n      dup1\n      dup1\n      tag_38\n      swap1\n      tag_31\n      jump\t// in\n    tag_38:\n      swap2\n      pop\n      pop\n        /* \"Task_1/MergeSortedArray/MergeSortedArray.sol\":764:770  idx1++ */\n      dup3\n      dup1\n      tag_39\n      swap1\n      tag_31\n      jump\t// in\n    tag_39:\n      swap4\n      pop\n      pop\n        /* \"Task_1/MergeSortedArray/MergeSortedArray.sol\":550:786  if(arr1[idx1]<=arr2[idx2]){... */\n    tag_33:\n        /* \"Task_1/MergeSortedArray/MergeSortedArray.sol\":493:797  while (idx1<arr1.length&&idx2<arr2.length){... */\n      jump(tag_17)\n    tag_18:\n        /* \"Task_1/MergeSortedArray/MergeSortedArray.sol\":811:817  uint i */\n      0x00\n        /* \"Task_1/MergeSortedArray/MergeSortedArray.sol\":818:821  idx */\n      dup2\n        /* \"Task_1/MergeSortedArray/MergeSortedArray.sol\":811:821  uint i=idx */\n      swap1\n      pop\n        /* \"Task_1/MergeSortedArray/MergeSortedArray.sol\":807:1037  for(uint i=idx;i<len;i++){... */\n    tag_40:\n        /* \"Task_1/MergeSortedArray/MergeSortedArray.sol\":824:827  len */\n      dup6\n        /* \"Task_1/MergeSortedArray/MergeSortedArray.sol\":822:823  i */\n      dup2\n        /* \"Task_1/MergeSortedArray/MergeSortedArray.sol\":822:827  i<len */\n      lt\n        /* \"Task_1/MergeSortedArray/MergeSortedArray.sol\":807:1037  for(uint i=idx;i<len;i++){... */\n      iszero\n      tag_41\n      jumpi\n        /* \"Task_1/MergeSortedArray/MergeSortedArray.sol\":856:860  arr1 */\n      dup9\n        /* \"Task_1/MergeSortedArray/MergeSortedArray.sol\":856:867  arr1.length */\n      mload\n        /* \"Task_1/MergeSortedArray/MergeSortedArray.sol\":850:854  idx1 */\n      dup5\n        /* \"Task_1/MergeSortedArray/MergeSortedArray.sol\":850:867  idx1==arr1.length */\n      sub\n        /* \"Task_1/MergeSortedArray/MergeSortedArray.sol\":847:1026  if(idx1==arr1.length){... */\n      tag_43\n      jumpi\n        /* \"Task_1/MergeSortedArray/MergeSortedArray.sol\":894:898  arr2 */\n      dup8\n        /* \"Task_1/MergeSortedArray/MergeSortedArray.sol\":899:903  idx2 */\n      dup4\n        /* \"Task_1/MergeSortedArray/MergeSortedArray.sol\":894:904  arr2[idx2] */\n      dup2\n      mload\n      dup2\n      lt\n      tag_44\n      jumpi\n      tag_45\n      tag_22\n      jump\t// in\n    tag_45:\n    tag_44:\n      0x20\n      mul\n      0x20\n      add\n      add\n      mload\n        /* \"Task_1/MergeSortedArray/MergeSortedArray.sol\":887:890  res */\n      dup6\n        /* \"Task_1/MergeSortedArray/MergeSortedArray.sol\":891:892  i */\n      dup3\n        /* \"Task_1/MergeSortedArray/MergeSortedArray.sol\":887:893  res[i] */\n      dup2\n      mload\n      dup2\n      lt\n      tag_46\n      jumpi\n      tag_47\n      tag_22\n      jump\t// in\n    tag_47:\n    tag_46:\n      0x20\n      mul\n      0x20\n      add\n      add\n        /* \"Task_1/MergeSortedArray/MergeSortedArray.sol\":887:904  res[i]=arr2[idx2] */\n      dup2\n      dup2\n      mstore\n      pop\n      pop\n        /* \"Task_1/MergeSortedArray/MergeSortedArray.sol\":923:929  idx2++ */\n      dup3\n      dup1\n      tag_48\n      swap1\n      tag_31\n      jump\t// in\n    tag_48:\n      swap4\n      pop\n      pop\n        /* \"Task_1/MergeSortedArray/MergeSortedArray.sol\":847:1026  if(idx1==arr1.length){... */\n      jump(tag_49)\n    tag_43:\n        /* \"Task_1/MergeSortedArray/MergeSortedArray.sol\":975:979  arr1 */\n      dup9\n        /* \"Task_1/MergeSortedArray/MergeSortedArray.sol\":980:984  idx1 */\n      dup5\n        /* \"Task_1/MergeSortedArray/MergeSortedArray.sol\":975:985  arr1[idx1] */\n      dup2\n      mload\n      dup2\n      lt\n      tag_50\n      jumpi\n      tag_51\n      tag_22\n      jump\t// in\n    tag_51:\n    tag_50:\n      0x20\n      mul\n      0x20\n      add\n      add\n      mload\n        /* \"Task_1/MergeSortedArray/MergeSortedArray.sol\":968:971  res */\n      dup6\n        /* \"Task_1/MergeSortedArray/MergeSortedArray.sol\":972:973  i */\n      dup3\n        /* \"Task_1/MergeSortedArray/MergeSortedArray.sol\":968:974  res[i] */\n      dup2\n      mload\n      dup2\n      lt\n      tag_52\n      jumpi\n      tag_53\n      tag_22\n      jump\t// in\n    tag_53:\n    tag_52:\n      0x20\n      mul\n      0x20\n      add\n      add\n        /* \"Task_1/MergeSortedArray/MergeSortedArray.sol\":968:985  res[i]=arr1[idx1] */\n      dup2\n      dup2\n      mstore\n      pop\n      pop\n        /* \"Task_1/MergeSortedArray/MergeSortedArray.sol\":1004:1010  idx1++ */\n      dup4\n      dup1\n      tag_54\n      swap1\n      tag_31\n      jump\t// in\n    tag_54:\n      swap5\n      pop\n      pop\n        /* \"Task_1/MergeSortedArray/MergeSortedArray.sol\":847:1026  if(idx1==arr1.length){... */\n    tag_49:\n        /* \"Task_1/MergeSortedArray/MergeSortedArray.sol\":828:831  i++ */\n      dup1\n      dup1\n      0x01\n      add\n      swap2\n      pop\n      pop\n        /* \"Task_1/MergeSortedArray/MergeSortedArray.sol\":807:1037  for(uint i=idx;i<len;i++){... */\n      jump(tag_40)\n    tag_41:\n      pop\n        /* \"Task_1/MergeSortedArray/MergeSortedArray.sol\":1054:1057  res */\n      dup4\n        /* \"Task_1/MergeSortedArray/MergeSortedArray.sol\":1047:1057  return res */\n      swap6\n      pop\n      pop\n      pop\n      pop\n      pop\n      pop\n        /* \"Task_1/MergeSortedArray/MergeSortedArray.sol\":216:1065  function mergeSortedArray(int256[] memory arr1,int256[] memory arr2)public pure returns(int256[] memory){... */\n      swap3\n      swap2\n      pop\n      pop\n      jump\t// out\n        /* \"#utility.yul\":7:82   */\n    tag_55:\n        /* \"#utility.yul\":40:46   */\n      0x00\n        /* \"#utility.yul\":73:75   */\n      0x40\n        /* \"#utility.yul\":67:76   */\n      mload\n        /* \"#utility.yul\":57:76   */\n      swap1\n      pop\n        /* \"#utility.yul\":7:82   */\n      swap1\n      jump\t// out\n        /* \"#utility.yul\":88:205   */\n    tag_56:\n        /* \"#utility.yul\":197:198   */\n      0x00\n        /* \"#utility.yul\":194:195   */\n      0x00\n        /* \"#utility.yul\":187:199   */\n      revert\n        /* \"#utility.yul\":211:328   */\n    tag_57:\n        /* \"#utility.yul\":320:321   */\n      0x00\n        /* \"#utility.yul\":317:318   */\n      0x00\n        /* \"#utility.yul\":310:322   */\n      revert\n        /* \"#utility.yul\":334:451   */\n    tag_58:\n        /* \"#utility.yul\":443:444   */\n      0x00\n        /* \"#utility.yul\":440:441   */\n      0x00\n        /* \"#utility.yul\":433:445   */\n      revert\n        /* \"#utility.yul\":457:559   */\n    tag_59:\n        /* \"#utility.yul\":498:504   */\n      0x00\n        /* \"#utility.yul\":549:551   */\n      0x1f\n        /* \"#utility.yul\":545:552   */\n      not\n        /* \"#utility.yul\":540:542   */\n      0x1f\n        /* \"#utility.yul\":533:538   */\n      dup4\n        /* \"#utility.yul\":529:543   */\n      add\n        /* \"#utility.yul\":525:553   */\n      and\n        /* \"#utility.yul\":515:553   */\n      swap1\n      pop\n        /* \"#utility.yul\":457:559   */\n      swap2\n      swap1\n      pop\n      jump\t// out\n        /* \"#utility.yul\":565:745   */\n    tag_15:\n        /* \"#utility.yul\":613:690   */\n      0x4e487b7100000000000000000000000000000000000000000000000000000000\n        /* \"#utility.yul\":610:611   */\n      0x00\n        /* \"#utility.yul\":603:691   */\n      mstore\n        /* \"#utility.yul\":710:714   */\n      0x41\n        /* \"#utility.yul\":707:708   */\n      0x04\n        /* \"#utility.yul\":700:715   */\n      mstore\n        /* \"#utility.yul\":734:738   */\n      0x24\n        /* \"#utility.yul\":731:732   */\n      0x00\n        /* \"#utility.yul\":724:739   */\n      revert\n        /* \"#utility.yul\":751:1032   */\n    tag_60:\n        /* \"#utility.yul\":834:861   */\n      tag_86\n        /* \"#utility.yul\":856:860   */\n      dup3\n        /* \"#utility.yul\":834:861   */\n      tag_59\n      jump\t// in\n    tag_86:\n        /* \"#utility.yul\":826:832   */\n      dup2\n        /* \"#utility.yul\":822:862   */\n      add\n        /* \"#utility.yul\":964:970   */\n      dup2\n        /* \"#utility.yul\":952:962   */\n      dup2\n        /* \"#utility.yul\":949:971   */\n      lt\n        /* \"#utility.yul\":928:946   */\n      0xffffffffffffffff\n        /* \"#utility.yul\":916:926   */\n      dup3\n        /* \"#utility.yul\":913:947   */\n      gt\n        /* \"#utility.yul\":910:972   */\n      or\n        /* \"#utility.yul\":907:995   */\n      iszero\n      tag_87\n      jumpi\n        /* \"#utility.yul\":975:993   */\n      tag_88\n      tag_15\n      jump\t// in\n    tag_88:\n        /* \"#utility.yul\":907:995   */\n    tag_87:\n        /* \"#utility.yul\":1015:1025   */\n      dup1\n        /* \"#utility.yul\":1011:1013   */\n      0x40\n        /* \"#utility.yul\":1004:1026   */\n      mstore\n        /* \"#utility.yul\":794:1032   */\n      pop\n        /* \"#utility.yul\":751:1032   */\n      pop\n      pop\n      jump\t// out\n        /* \"#utility.yul\":1038:1167   */\n    tag_61:\n        /* \"#utility.yul\":1072:1078   */\n      0x00\n        /* \"#utility.yul\":1099:1119   */\n      tag_90\n      tag_55\n      jump\t// in\n    tag_90:\n        /* \"#utility.yul\":1089:1119   */\n      swap1\n      pop\n        /* \"#utility.yul\":1128:1161   */\n      tag_91\n        /* \"#utility.yul\":1156:1160   */\n      dup3\n        /* \"#utility.yul\":1148:1154   */\n      dup3\n        /* \"#utility.yul\":1128:1161   */\n      tag_60\n      jump\t// in\n    tag_91:\n        /* \"#utility.yul\":1038:1167   */\n      swap2\n      swap1\n      pop\n      jump\t// out\n        /* \"#utility.yul\":1173:1483   */\n    tag_62:\n        /* \"#utility.yul\":1249:1253   */\n      0x00\n        /* \"#utility.yul\":1339:1357   */\n      0xffffffffffffffff\n        /* \"#utility.yul\":1331:1337   */\n      dup3\n        /* \"#utility.yul\":1328:1358   */\n      gt\n        /* \"#utility.yul\":1325:1381   */\n      iszero\n      tag_93\n      jumpi\n        /* \"#utility.yul\":1361:1379   */\n      tag_94\n      tag_15\n      jump\t// in\n    tag_94:\n        /* \"#utility.yul\":1325:1381   */\n    tag_93:\n        /* \"#utility.yul\":1411:1415   */\n      0x20\n        /* \"#utility.yul\":1403:1409   */\n      dup3\n        /* \"#utility.yul\":1399:1416   */\n      mul\n        /* \"#utility.yul\":1391:1416   */\n      swap1\n      pop\n        /* \"#utility.yul\":1471:1475   */\n      0x20\n        /* \"#utility.yul\":1465:1469   */\n      dup2\n        /* \"#utility.yul\":1461:1476   */\n      add\n        /* \"#utility.yul\":1453:1476   */\n      swap1\n      pop\n        /* \"#utility.yul\":1173:1483   */\n      swap2\n      swap1\n      pop\n      jump\t// out\n        /* \"#utility.yul\":1489:1606   */\n    tag_63:\n        /* \"#utility.yul\":1598:1599   */\n      0x00\n        /* \"#utility.yul\":1595:1596   */\n      0x00\n        /* \"#utility.yul\":1588:1600   */\n      revert\n        /* \"#utility.yul\":1612:1688   */\n    tag_64:\n        /* \"#utility.yul\":1648:1655   */\n      0x00\n        /* \"#utility.yul\":1677:1682   */\n      dup2\n        /* \"#utility.yul\":1666:1682   */\n      swap1\n      pop\n        /* \"#utility.yul\":1612:1688   */\n      swap2\n      swap1\n      pop\n      jump\t// out\n        /* \"#utility.yul\":1694:1814   */\n    tag_65:\n        /* \"#utility.yul\":1766:1789   */\n      tag_98\n        /* \"#utility.yul\":1783:1788   */\n      dup2\n        /* \"#utility.yul\":1766:1789   */\n      tag_64\n      jump\t// in\n    tag_98:\n        /* \"#utility.yul\":1759:1764   */\n      dup2\n        /* \"#utility.yul\":1756:1790   */\n      eq\n        /* \"#utility.yul\":1746:1808   */\n      tag_99\n      jumpi\n        /* \"#utility.yul\":1804:1805   */\n      0x00\n        /* \"#utility.yul\":1801:1802   */\n      0x00\n        /* \"#utility.yul\":1794:1806   */\n      revert\n        /* \"#utility.yul\":1746:1808   */\n    tag_99:\n        /* \"#utility.yul\":1694:1814   */\n      pop\n      jump\t// out\n        /* \"#utility.yul\":1820:1957   */\n    tag_66:\n        /* \"#utility.yul\":1865:1870   */\n      0x00\n        /* \"#utility.yul\":1903:1909   */\n      dup2\n        /* \"#utility.yul\":1890:1910   */\n      calldataload\n        /* \"#utility.yul\":1881:1910   */\n      swap1\n      pop\n        /* \"#utility.yul\":1919:1951   */\n      tag_101\n        /* \"#utility.yul\":1945:1950   */\n      dup2\n        /* \"#utility.yul\":1919:1951   */\n      tag_65\n      jump\t// in\n    tag_101:\n        /* \"#utility.yul\":1820:1957   */\n      swap3\n      swap2\n      pop\n      pop\n      jump\t// out\n        /* \"#utility.yul\":1979:2686   */\n    tag_67:\n        /* \"#utility.yul\":2074:2079   */\n      0x00\n        /* \"#utility.yul\":2099:2179   */\n      tag_103\n        /* \"#utility.yul\":2115:2178   */\n      tag_104\n        /* \"#utility.yul\":2171:2177   */\n      dup5\n        /* \"#utility.yul\":2115:2178   */\n      tag_62\n      jump\t// in\n    tag_104:\n        /* \"#utility.yul\":2099:2179   */\n      tag_61\n      jump\t// in\n    tag_103:\n        /* \"#utility.yul\":2090:2179   */\n      swap1\n      pop\n        /* \"#utility.yul\":2199:2204   */\n      dup1\n        /* \"#utility.yul\":2228:2234   */\n      dup4\n        /* \"#utility.yul\":2221:2226   */\n      dup3\n        /* \"#utility.yul\":2214:2235   */\n      mstore\n        /* \"#utility.yul\":2262:2266   */\n      0x20\n        /* \"#utility.yul\":2255:2260   */\n      dup3\n        /* \"#utility.yul\":2251:2267   */\n      add\n        /* \"#utility.yul\":2244:2267   */\n      swap1\n      pop\n        /* \"#utility.yul\":2315:2319   */\n      0x20\n        /* \"#utility.yul\":2307:2313   */\n      dup5\n        /* \"#utility.yul\":2303:2320   */\n      mul\n        /* \"#utility.yul\":2295:2301   */\n      dup4\n        /* \"#utility.yul\":2291:2321   */\n      add\n        /* \"#utility.yul\":2344:2347   */\n      dup6\n        /* \"#utility.yul\":2336:2342   */\n      dup2\n        /* \"#utility.yul\":2333:2348   */\n      gt\n        /* \"#utility.yul\":2330:2452   */\n      iszero\n      tag_105\n      jumpi\n        /* \"#utility.yul\":2363:2442   */\n      tag_106\n      tag_63\n      jump\t// in\n    tag_106:\n        /* \"#utility.yul\":2330:2452   */\n    tag_105:\n        /* \"#utility.yul\":2478:2484   */\n      dup4\n        /* \"#utility.yul\":2461:2680   */\n    tag_107:\n        /* \"#utility.yul\":2495:2501   */\n      dup2\n        /* \"#utility.yul\":2490:2493   */\n      dup2\n        /* \"#utility.yul\":2487:2502   */\n      lt\n        /* \"#utility.yul\":2461:2680   */\n      iszero\n      tag_109\n      jumpi\n        /* \"#utility.yul\":2570:2573   */\n      dup1\n        /* \"#utility.yul\":2599:2635   */\n      tag_110\n        /* \"#utility.yul\":2631:2634   */\n      dup9\n        /* \"#utility.yul\":2619:2629   */\n      dup3\n        /* \"#utility.yul\":2599:2635   */\n      tag_66\n      jump\t// in\n    tag_110:\n        /* \"#utility.yul\":2594:2597   */\n      dup5\n        /* \"#utility.yul\":2587:2636   */\n      mstore\n        /* \"#utility.yul\":2665:2669   */\n      0x20\n        /* \"#utility.yul\":2660:2663   */\n      dup5\n        /* \"#utility.yul\":2656:2670   */\n      add\n        /* \"#utility.yul\":2649:2670   */\n      swap4\n      pop\n        /* \"#utility.yul\":2537:2680   */\n      pop\n        /* \"#utility.yul\":2521:2525   */\n      0x20\n        /* \"#utility.yul\":2516:2519   */\n      dup2\n        /* \"#utility.yul\":2512:2526   */\n      add\n        /* \"#utility.yul\":2505:2526   */\n      swap1\n      pop\n        /* \"#utility.yul\":2461:2680   */\n      jump(tag_107)\n    tag_109:\n        /* \"#utility.yul\":2465:2486   */\n      pop\n        /* \"#utility.yul\":2080:2686   */\n      pop\n      pop\n        /* \"#utility.yul\":1979:2686   */\n      swap4\n      swap3\n      pop\n      pop\n      pop\n      jump\t// out\n        /* \"#utility.yul\":2708:3076   */\n    tag_68:\n        /* \"#utility.yul\":2778:2783   */\n      0x00\n        /* \"#utility.yul\":2827:2830   */\n      dup3\n        /* \"#utility.yul\":2820:2824   */\n      0x1f\n        /* \"#utility.yul\":2812:2818   */\n      dup4\n        /* \"#utility.yul\":2808:2825   */\n      add\n        /* \"#utility.yul\":2804:2831   */\n      slt\n        /* \"#utility.yul\":2794:2916   */\n      tag_112\n      jumpi\n        /* \"#utility.yul\":2835:2914   */\n      tag_113\n      tag_58\n      jump\t// in\n    tag_113:\n        /* \"#utility.yul\":2794:2916   */\n    tag_112:\n        /* \"#utility.yul\":2952:2958   */\n      dup2\n        /* \"#utility.yul\":2939:2959   */\n      calldataload\n        /* \"#utility.yul\":2977:3070   */\n      tag_114\n        /* \"#utility.yul\":3066:3069   */\n      dup5\n        /* \"#utility.yul\":3058:3064   */\n      dup3\n        /* \"#utility.yul\":3051:3055   */\n      0x20\n        /* \"#utility.yul\":3043:3049   */\n      dup7\n        /* \"#utility.yul\":3039:3056   */\n      add\n        /* \"#utility.yul\":2977:3070   */\n      tag_67\n      jump\t// in\n    tag_114:\n        /* \"#utility.yul\":2968:3070   */\n      swap2\n      pop\n        /* \"#utility.yul\":2784:3076   */\n      pop\n        /* \"#utility.yul\":2708:3076   */\n      swap3\n      swap2\n      pop\n      pop\n      jump\t// out\n        /* \"#utility.yul\":3082:3972   */\n    tag_6:\n        /* \"#utility.yul\":3198:3204   */\n      0x00\n        /* \"#utility.yul\":3206:3212   */\n      0x00\n        /* \"#utility.yul\":3255:3257   */\n      0x40\n        /* \"#utility.yul\":3243:3252   */\n      dup4\n        /* \"#utility.yul\":3234:3241   */\n      dup6\n        /* \"#utility.yul\":3230:3253   */\n      sub\n        /* \"#utility.yul\":3226:3258   */\n      slt\n        /* \"#utility.yul\":3223:3342   */\n      iszero\n      tag_116\n      jumpi\n        /* \"#utility.yul\":3261:3340   */\n      tag_117\n      tag_56\n      jump\t// in\n    tag_117:\n        /* \"#utility.yul\":3223:3342   */\n    tag_116:\n        /* \"#utility.yul\":3409:3410   */\n      0x00\n        /* \"#utility.yul\":3398:3407   */\n      dup4\n        /* \"#utility.yul\":3394:3411   */\n      add\n        /* \"#utility.yul\":3381:3412   */\n      calldataload\n        /* \"#utility.yul\":3439:3457   */\n      0xffffffffffffffff\n        /* \"#utility.yul\":3431:3437   */\n      dup2\n        /* \"#utility.yul\":3428:3458   */\n      gt\n        /* \"#utility.yul\":3425:3542   */\n      iszero\n      tag_118\n      jumpi\n        /* \"#utility.yul\":3461:3540   */\n      tag_119\n      tag_57\n      jump\t// in\n    tag_119:\n        /* \"#utility.yul\":3425:3542   */\n    tag_118:\n        /* \"#utility.yul\":3566:3643   */\n      tag_120\n        /* \"#utility.yul\":3635:3642   */\n      dup6\n        /* \"#utility.yul\":3626:3632   */\n      dup3\n        /* \"#utility.yul\":3615:3624   */\n      dup7\n        /* \"#utility.yul\":3611:3633   */\n      add\n        /* \"#utility.yul\":3566:3643   */\n      tag_68\n      jump\t// in\n    tag_120:\n        /* \"#utility.yul\":3556:3643   */\n      swap3\n      pop\n        /* \"#utility.yul\":3352:3653   */\n      pop\n        /* \"#utility.yul\":3720:3722   */\n      0x20\n        /* \"#utility.yul\":3709:3718   */\n      dup4\n        /* \"#utility.yul\":3705:3723   */\n      add\n        /* \"#utility.yul\":3692:3724   */\n      calldataload\n        /* \"#utility.yul\":3751:3769   */\n      0xffffffffffffffff\n        /* \"#utility.yul\":3743:3749   */\n      dup2\n        /* \"#utility.yul\":3740:3770   */\n      gt\n        /* \"#utility.yul\":3737:3854   */\n      iszero\n      tag_121\n      jumpi\n        /* \"#utility.yul\":3773:3852   */\n      tag_122\n      tag_57\n      jump\t// in\n    tag_122:\n        /* \"#utility.yul\":3737:3854   */\n    tag_121:\n        /* \"#utility.yul\":3878:3955   */\n      tag_123\n        /* \"#utility.yul\":3947:3954   */\n      dup6\n        /* \"#utility.yul\":3938:3944   */\n      dup3\n        /* \"#utility.yul\":3927:3936   */\n      dup7\n        /* \"#utility.yul\":3923:3945   */\n      add\n        /* \"#utility.yul\":3878:3955   */\n      tag_68\n      jump\t// in\n    tag_123:\n        /* \"#utility.yul\":3868:3955   */\n      swap2\n      pop\n        /* \"#utility.yul\":3663:3965   */\n      pop\n        /* \"#utility.yul\":3082:3972   */\n      swap3\n      pop\n      swap3\n      swap1\n      pop\n      jump\t// out\n        /* \"#utility.yul\":3978:4091   */\n    tag_69:\n        /* \"#utility.yul\":4044:4050   */\n      0x00\n        /* \"#utility.yul\":4078:4083   */\n      dup2\n        /* \"#utility.yul\":4072:4084   */\n      mload\n        /* \"#utility.yul\":4062:4084   */\n      swap1\n      pop\n        /* \"#utility.yul\":3978:4091   */\n      swap2\n      swap1\n      pop\n      jump\t// out\n        /* \"#utility.yul\":4097:4280   */\n    tag_70:\n        /* \"#utility.yul\":4195:4206   */\n      0x00\n        /* \"#utility.yul\":4229:4235   */\n      dup3\n        /* \"#utility.yul\":4224:4227   */\n      dup3\n        /* \"#utility.yul\":4217:4236   */\n      mstore\n        /* \"#utility.yul\":4269:4273   */\n      0x20\n        /* \"#utility.yul\":4264:4267   */\n      dup3\n        /* \"#utility.yul\":4260:4274   */\n      add\n        /* \"#utility.yul\":4245:4274   */\n      swap1\n      pop\n        /* \"#utility.yul\":4097:4280   */\n      swap3\n      swap2\n      pop\n      pop\n      jump\t// out\n        /* \"#utility.yul\":4286:4417   */\n    tag_71:\n        /* \"#utility.yul\":4352:4356   */\n      0x00\n        /* \"#utility.yul\":4375:4378   */\n      dup2\n        /* \"#utility.yul\":4367:4378   */\n      swap1\n      pop\n        /* \"#utility.yul\":4405:4409   */\n      0x20\n        /* \"#utility.yul\":4400:4403   */\n      dup3\n        /* \"#utility.yul\":4396:4410   */\n      add\n        /* \"#utility.yul\":4388:4410   */\n      swap1\n      pop\n        /* \"#utility.yul\":4286:4417   */\n      swap2\n      swap1\n      pop\n      jump\t// out\n        /* \"#utility.yul\":4423:4528   */\n    tag_72:\n        /* \"#utility.yul\":4498:4521   */\n      tag_128\n        /* \"#utility.yul\":4515:4520   */\n      dup2\n        /* \"#utility.yul\":4498:4521   */\n      tag_64\n      jump\t// in\n    tag_128:\n        /* \"#utility.yul\":4493:4496   */\n      dup3\n        /* \"#utility.yul\":4486:4522   */\n      mstore\n        /* \"#utility.yul\":4423:4528   */\n      pop\n      pop\n      jump\t// out\n        /* \"#utility.yul\":4534:4709   */\n    tag_73:\n        /* \"#utility.yul\":4601:4611   */\n      0x00\n        /* \"#utility.yul\":4622:4666   */\n      tag_130\n        /* \"#utility.yul\":4662:4665   */\n      dup4\n        /* \"#utility.yul\":4654:4660   */\n      dup4\n        /* \"#utility.yul\":4622:4666   */\n      tag_72\n      jump\t// in\n    tag_130:\n        /* \"#utility.yul\":4698:4702   */\n      0x20\n        /* \"#utility.yul\":4693:4696   */\n      dup4\n        /* \"#utility.yul\":4689:4703   */\n      add\n        /* \"#utility.yul\":4675:4703   */\n      swap1\n      pop\n        /* \"#utility.yul\":4534:4709   */\n      swap3\n      swap2\n      pop\n      pop\n      jump\t// out\n        /* \"#utility.yul\":4715:4827   */\n    tag_74:\n        /* \"#utility.yul\":4784:4788   */\n      0x00\n        /* \"#utility.yul\":4816:4820   */\n      0x20\n        /* \"#utility.yul\":4811:4814   */\n      dup3\n        /* \"#utility.yul\":4807:4821   */\n      add\n        /* \"#utility.yul\":4799:4821   */\n      swap1\n      pop\n        /* \"#utility.yul\":4715:4827   */\n      swap2\n      swap1\n      pop\n      jump\t// out\n        /* \"#utility.yul\":4861:5585   */\n    tag_75:\n        /* \"#utility.yul\":4978:4981   */\n      0x00\n        /* \"#utility.yul\":5007:5060   */\n      tag_133\n        /* \"#utility.yul\":5054:5059   */\n      dup3\n        /* \"#utility.yul\":5007:5060   */\n      tag_69\n      jump\t// in\n    tag_133:\n        /* \"#utility.yul\":5076:5161   */\n      tag_134\n        /* \"#utility.yul\":5154:5160   */\n      dup2\n        /* \"#utility.yul\":5149:5152   */\n      dup6\n        /* \"#utility.yul\":5076:5161   */\n      tag_70\n      jump\t// in\n    tag_134:\n        /* \"#utility.yul\":5069:5161   */\n      swap4\n      pop\n        /* \"#utility.yul\":5185:5240   */\n      tag_135\n        /* \"#utility.yul\":5234:5239   */\n      dup4\n        /* \"#utility.yul\":5185:5240   */\n      tag_71\n      jump\t// in\n    tag_135:\n        /* \"#utility.yul\":5263:5270   */\n      dup1\n        /* \"#utility.yul\":5294:5295   */\n      0x00\n        /* \"#utility.yul\":5279:5560   */\n    tag_136:\n        /* \"#utility.yul\":5304:5310   */\n      dup4\n        /* \"#utility.yul\":5301:5302   */\n      dup2\n        /* \"#utility.yul\":5298:5311   */\n      lt\n        /* \"#utility.yul\":5279:5560   */\n      iszero\n      tag_138\n      jumpi\n        /* \"#utility.yul\":5380:5386   */\n      dup2\n        /* \"#utility.yul\":5374:5387   */\n      mload\n        /* \"#utility.yul\":5407:5468   */\n      tag_139\n        /* \"#utility.yul\":5464:5467   */\n      dup9\n        /* \"#utility.yul\":5449:5462   */\n      dup3\n        /* \"#utility.yul\":5407:5468   */\n      tag_73\n      jump\t// in\n    tag_139:\n        /* \"#utility.yul\":5400:5468   */\n      swap8\n      pop\n        /* \"#utility.yul\":5491:5550   */\n      tag_140\n        /* \"#utility.yul\":5543:5549   */\n      dup4\n        /* \"#utility.yul\":5491:5550   */\n      tag_74\n      jump\t// in\n    tag_140:\n        /* \"#utility.yul\":5481:5550   */\n      swap3\n      pop\n        /* \"#utility.yul\":5339:5560   */\n      pop\n        /* \"#utility.yul\":5326:5327   */\n      0x01\n        /* \"#utility.yul\":5323:5324   */\n      dup2\n        /* \"#utility.yul\":5319:5328   */\n      add\n        /* \"#utility.yul\":5314:5328   */\n      swap1\n      pop\n        /* \"#utility.yul\":5279:5560   */\n      jump(tag_136)\n    tag_138:\n        /* \"#utility.yul\":5283:5297   */\n      pop\n        /* \"#utility.yul\":5576:5579   */\n      dup6\n        /* \"#utility.yul\":5569:5579   */\n      swap4\n      pop\n        /* \"#utility.yul\":4983:5585   */\n      pop\n      pop\n      pop\n        /* \"#utility.yul\":4861:5585   */\n      swap3\n      swap2\n      pop\n      pop\n      jump\t// out\n        /* \"#utility.yul\":5591:5960   */\n    tag_9:\n        /* \"#utility.yul\":5732:5736   */\n      0x00\n        /* \"#utility.yul\":5770:5772   */\n      0x20\n        /* \"#utility.yul\":5759:5768   */\n      dup3\n        /* \"#utility.yul\":5755:5773   */\n      add\n        /* \"#utility.yul\":5747:5773   */\n      swap1\n      pop\n        /* \"#utility.yul\":5819:5828   */\n      dup2\n        /* \"#utility.yul\":5813:5817   */\n      dup2\n        /* \"#utility.yul\":5809:5829   */\n      sub\n        /* \"#utility.yul\":5805:5806   */\n      0x00\n        /* \"#utility.yul\":5794:5803   */\n      dup4\n        /* \"#utility.yul\":5790:5807   */\n      add\n        /* \"#utility.yul\":5783:5830   */\n      mstore\n        /* \"#utility.yul\":5847:5953   */\n      tag_142\n        /* \"#utility.yul\":5948:5952   */\n      dup2\n        /* \"#utility.yul\":5939:5945   */\n      dup5\n        /* \"#utility.yul\":5847:5953   */\n      tag_75\n      jump\t// in\n    tag_142:\n        /* \"#utility.yul\":5839:5953   */\n      swap1\n      pop\n        /* \"#utility.yul\":5591:5960   */\n      swap3\n      swap2\n      pop\n      pop\n      jump\t// out\n        /* \"#utility.yul\":5966:6043   */\n    tag_76:\n        /* \"#utility.yul\":6003:6010   */\n      0x00\n        /* \"#utility.yul\":6032:6037   */\n      dup2\n        /* \"#utility.yul\":6021:6037   */\n      swap1\n      pop\n        /* \"#utility.yul\":5966:6043   */\n      swap2\n      swap1\n      pop\n      jump\t// out\n        /* \"#utility.yul\":6049:6229   */\n    tag_77:\n        /* \"#utility.yul\":6097:6174   */\n      0x4e487b7100000000000000000000000000000000000000000000000000000000\n        /* \"#utility.yul\":6094:6095   */\n      0x00\n        /* \"#utility.yul\":6087:6175   */\n      mstore\n        /* \"#utility.yul\":6194:6198   */\n      0x11\n        /* \"#utility.yul\":6191:6192   */\n      0x04\n        /* \"#utility.yul\":6184:6199   */\n      mstore\n        /* \"#utility.yul\":6218:6222   */\n      0x24\n        /* \"#utility.yul\":6215:6216   */\n      0x00\n        /* \"#utility.yul\":6208:6223   */\n      revert\n        /* \"#utility.yul\":6235:6426   */\n    tag_12:\n        /* \"#utility.yul\":6275:6278   */\n      0x00\n        /* \"#utility.yul\":6294:6314   */\n      tag_146\n        /* \"#utility.yul\":6312:6313   */\n      dup3\n        /* \"#utility.yul\":6294:6314   */\n      tag_76\n      jump\t// in\n    tag_146:\n        /* \"#utility.yul\":6289:6314   */\n      swap2\n      pop\n        /* \"#utility.yul\":6328:6348   */\n      tag_147\n        /* \"#utility.yul\":6346:6347   */\n      dup4\n        /* \"#utility.yul\":6328:6348   */\n      tag_76\n      jump\t// in\n    tag_147:\n        /* \"#utility.yul\":6323:6348   */\n      swap3\n      pop\n        /* \"#utility.yul\":6371:6372   */\n      dup3\n        /* \"#utility.yul\":6368:6369   */\n      dup3\n        /* \"#utility.yul\":6364:6373   */\n      add\n        /* \"#utility.yul\":6357:6373   */\n      swap1\n      pop\n        /* \"#utility.yul\":6392:6395   */\n      dup1\n        /* \"#utility.yul\":6389:6390   */\n      dup3\n        /* \"#utility.yul\":6386:6396   */\n      gt\n        /* \"#utility.yul\":6383:6419   */\n      iszero\n      tag_148\n      jumpi\n        /* \"#utility.yul\":6399:6417   */\n      tag_149\n      tag_77\n      jump\t// in\n    tag_149:\n        /* \"#utility.yul\":6383:6419   */\n    tag_148:\n        /* \"#utility.yul\":6235:6426   */\n      swap3\n      swap2\n      pop\n      pop\n      jump\t// out\n        /* \"#utility.yul\":6432:6612   */\n    tag_22:\n        /* \"#utility.yul\":6480:6557   */\n      0x4e487b7100000000000000000000000000000000000000000000000000000000\n        /* \"#utility.yul\":6477:6478   */\n      0x00\n        /* \"#utility.yul\":6470:6558   */\n      mstore\n        /* \"#utility.yul\":6577:6581   */\n      0x32\n        /* \"#utility.yul\":6574:6575   */\n      0x04\n        /* \"#utility.yul\":6567:6582   */\n      mstore\n        /* \"#utility.yul\":6601:6605   */\n      0x24\n        /* \"#utility.yul\":6598:6599   */\n      0x00\n        /* \"#utility.yul\":6591:6606   */\n      revert\n        /* \"#utility.yul\":6618:6851   */\n    tag_31:\n        /* \"#utility.yul\":6657:6660   */\n      0x00\n        /* \"#utility.yul\":6680:6704   */\n      tag_152\n        /* \"#utility.yul\":6698:6703   */\n      dup3\n        /* \"#utility.yul\":6680:6704   */\n      tag_76\n      jump\t// in\n    tag_152:\n        /* \"#utility.yul\":6671:6704   */\n      swap2\n      pop\n        /* \"#utility.yul\":6726:6792   */\n      0xffffffffffffffffffffffffffffffffffffffffffffffffffffffffffffffff\n        /* \"#utility.yul\":6719:6724   */\n      dup3\n        /* \"#utility.yul\":6716:6793   */\n      sub\n        /* \"#utility.yul\":6713:6816   */\n      tag_153\n      jumpi\n        /* \"#utility.yul\":6796:6814   */\n      tag_154\n      tag_77\n      jump\t// in\n    tag_154:\n        /* \"#utility.yul\":6713:6816   */\n    tag_153:\n        /* \"#utility.yul\":6843:6844   */\n      0x01\n        /* \"#utility.yul\":6836:6841   */\n      dup3\n        /* \"#utility.yul\":6832:6845   */\n      add\n        /* \"#utility.yul\":6825:6845   */\n      swap1\n      pop\n        /* \"#utility.yul\":6618:6851   */\n      swap2\n      swap1\n      pop\n      jump\t// out\n\n    auxdata: 0xa264697066735822122090f7ac0d859f68185af3664afb170510bcf3ebf81388bb9271ac722127267bb564736f6c634300081e0033\n}\n",
				"bytecode": {
					"linkReferences": {},
					"object": "6080604052348015600e575f5ffd5b5061068b8061001c5f395ff3fe608060405234801561000f575f5ffd5b5060043610610029575f3560e01c8063f03221981461002d575b5f5ffd5b6100476004803603810190610042919061042b565b61005d565b6040516100549190610558565b60405180910390f35b60605f8251845161006e91906105ae565b90505f8167ffffffffffffffff81111561008b5761008a6102bc565b5b6040519080825280602002602001820160405280156100b95781602001602082028036833780820191505090505b5090505f5f90505f5f90505f5f90505b8751831080156100d95750865182105b156101d0578682815181106100f1576100f06105e1565b5b602002602001015188848151811061010c5761010b6105e1565b5b6020026020010151136101745787838151811061012c5761012b6105e1565b5b6020026020010151848281518110610147576101466105e1565b5b602002602001018181525050808061015e9061060e565b915050828061016c9061060e565b9350506101cb565b868281518110610187576101866105e1565b5b60200260200101518482815181106101a2576101a16105e1565b5b60200260200101818152505080806101b99061060e565b91505082806101c79061060e565b9350505b6100c9565b5f8190505b858110156102885788518403610232578783815181106101f8576101f76105e1565b5b6020026020010151858281518110610213576102126105e1565b5b602002602001018181525050828061022a9061060e565b93505061027b565b888481518110610245576102446105e1565b5b60200260200101518582815181106102605761025f6105e1565b5b60200260200101818152505083806102779061060e565b9450505b80806001019150506101d5565b50839550505050505092915050565b5f604051905090565b5f5ffd5b5f5ffd5b5f5ffd5b5f601f19601f8301169050919050565b7f4e487b71000000000000000000000000000000000000000000000000000000005f52604160045260245ffd5b6102f2826102ac565b810181811067ffffffffffffffff82111715610311576103106102bc565b5b80604052505050565b5f610323610297565b905061032f82826102e9565b919050565b5f67ffffffffffffffff82111561034e5761034d6102bc565b5b602082029050602081019050919050565b5f5ffd5b5f819050919050565b61037581610363565b811461037f575f5ffd5b50565b5f813590506103908161036c565b92915050565b5f6103a86103a384610334565b61031a565b905080838252602082019050602084028301858111156103cb576103ca61035f565b5b835b818110156103f457806103e08882610382565b8452602084019350506020810190506103cd565b5050509392505050565b5f82601f830112610412576104116102a8565b5b8135610422848260208601610396565b91505092915050565b5f5f60408385031215610441576104406102a0565b5b5f83013567ffffffffffffffff81111561045e5761045d6102a4565b5b61046a858286016103fe565b925050602083013567ffffffffffffffff81111561048b5761048a6102a4565b5b610497858286016103fe565b9150509250929050565b5f81519050919050565b5f82825260208201905092915050565b5f819050602082019050919050565b6104d381610363565b82525050565b5f6104e483836104ca565b60208301905092915050565b5f602082019050919050565b5f610506826104a1565b61051081856104ab565b935061051b836104bb565b805f5b8381101561054b57815161053288826104d9565b975061053d836104f0565b92505060018101905061051e565b5085935050505092915050565b5f6020820190508181035f83015261057081846104fc565b905092915050565b5f819050919050565b7f4e487b71000000000000000000000000000000000000000000000000000000005f52601160045260245ffd5b5f6105b882610578565b91506105c383610578565b92508282019050808211156105db576105da610581565b5b92915050565b7f4e487b71000000000000000000000000000000000000000000000000000000005f52603260045260245ffd5b5f61061882610578565b91507fffffffffffffffffffffffffffffffffffffffffffffffffffffffffffffffff820361064a57610649610581565b5b60018201905091905056fea264697066735822122090f7ac0d859f68185af3664afb170510bcf3ebf81388bb9271ac722127267bb564736f6c634300081e0033",
					"opcodes": "PUSH1 0x80 PUSH1 0x40 MSTORE CALLVALUE DUP1 ISZERO PUSH1 0xE JUMPI PUSH0 PUSH0 REVERT JUMPDEST POP PUSH2 0x68B DUP1 PUSH2 0x1C PUSH0 CODECOPY PUSH0 RETURN INVALID PUSH1 0x80 PUSH1 0x40 MSTORE CALLVALUE DUP1 ISZERO PUSH2 0xF JUMPI PUSH0 PUSH0 REVERT JUMPDEST POP PUSH1 0x4 CALLDATASIZE LT PUSH2 0x29 JUMPI PUSH0 CALLDATALOAD PUSH1 0xE0 SHR DUP1 PUSH4 0xF0322198 EQ PUSH2 0x2D JUMPI JUMPDEST PUSH0 PUSH0 REVERT JUMPDEST PUSH2 0x47 PUSH1 0x4 DUP1 CALLDATASIZE SUB DUP2 ADD SWAP1 PUSH2 0x42 SWAP2 SWAP1 PUSH2 0x42B JUMP JUMPDEST PUSH2 0x5D JUMP JUMPDEST PUSH1 0x40 MLOAD PUSH2 0x54 SWAP2 SWAP1 PUSH2 0x558 JUMP JUMPDEST PUSH1 0x40 MLOAD DUP1 SWAP2 SUB SWAP1 RETURN JUMPDEST PUSH1 0x60 PUSH0 DUP3 MLOAD DUP5 MLOAD PUSH2 0x6E SWAP2 SWAP1 PUSH2 0x5AE JUMP JUMPDEST SWAP1 POP PUSH0 DUP2 PUSH8 0xFFFFFFFFFFFFFFFF DUP2 GT ISZERO PUSH2 0x8B JUMPI PUSH2 0x8A PUSH2 0x2BC JUMP JUMPDEST JUMPDEST PUSH1 0x40 MLOAD SWAP1 DUP1 DUP3 MSTORE DUP1 PUSH1 0x20 MUL PUSH1 0x20 ADD DUP3 ADD PUSH1 0x40 MSTORE DUP1 ISZERO PUSH2 0xB9 JUMPI DUP2 PUSH1 0x20 ADD PUSH1 0x20 DUP3 MUL DUP1 CALLDATASIZE DUP4 CALLDATACOPY DUP1 DUP3 ADD SWAP2 POP POP SWAP1 POP JUMPDEST POP SWAP1 POP PUSH0 PUSH0 SWAP1 POP PUSH0 PUSH0 SWAP1 POP PUSH0 PUSH0 SWAP1 POP JUMPDEST DUP8 MLOAD DUP4 LT DUP1 ISZERO PUSH2 0xD9 JUMPI POP DUP7 MLOAD DUP3 LT JUMPDEST ISZERO PUSH2 0x1D0 JUMPI DUP7 DUP3 DUP2 MLOAD DUP2 LT PUSH2 0xF1 JUMPI PUSH2 0xF0 PUSH2 0x5E1 JUMP JUMPDEST JUMPDEST PUSH1 0x20 MUL PUSH1 0x20 ADD ADD MLOAD DUP9 DUP5 DUP2 MLOAD DUP2 LT PUSH2 0x10C JUMPI PUSH2 0x10B PUSH2 0x5E1 JUMP JUMPDEST JUMPDEST PUSH1 0x20 MUL PUSH1 0x20 ADD ADD MLOAD SGT PUSH2 0x174 JUMPI DUP8 DUP4 DUP2 MLOAD DUP2 LT PUSH2 0x12C JUMPI PUSH2 0x12B PUSH2 0x5E1 JUMP JUMPDEST JUMPDEST PUSH1 0x20 MUL PUSH1 0x20 ADD ADD MLOAD DUP5 DUP3 DUP2 MLOAD DUP2 LT PUSH2 0x147 JUMPI PUSH2 0x146 PUSH2 0x5E1 JUMP JUMPDEST JUMPDEST PUSH1 0x20 MUL PUSH1 0x20 ADD ADD DUP2 DUP2 MSTORE POP POP DUP1 DUP1 PUSH2 0x15E SWAP1 PUSH2 0x60E JUMP JUMPDEST SWAP2 POP POP DUP3 DUP1 PUSH2 0x16C SWAP1 PUSH2 0x60E JUMP JUMPDEST SWAP4 POP POP PUSH2 0x1CB JUMP JUMPDEST DUP7 DUP3 DUP2 MLOAD DUP2 LT PUSH2 0x187 JUMPI PUSH2 0x186 PUSH2 0x5E1 JUMP JUMPDEST JUMPDEST PUSH1 0x20 MUL PUSH1 0x20 ADD ADD MLOAD DUP5 DUP3 DUP2 MLOAD DUP2 LT PUSH2 0x1A2 JUMPI PUSH2 0x1A1 PUSH2 0x5E1 JUMP JUMPDEST JUMPDEST PUSH1 0x20 MUL PUSH1 0x20 ADD ADD DUP2 DUP2 MSTORE POP POP DUP1 DUP1 PUSH2 0x1B9 SWAP1 PUSH2 0x60E JUMP JUMPDEST SWAP2 POP POP DUP3 DUP1 PUSH2 0x1C7 SWAP1 PUSH2 0x60E JUMP JUMPDEST SWAP4 POP POP JUMPDEST PUSH2 0xC9 JUMP JUMPDEST PUSH0 DUP2 SWAP1 POP JUMPDEST DUP6 DUP2 LT ISZERO PUSH2 0x288 JUMPI DUP9 MLOAD DUP5 SUB PUSH2 0x232 JUMPI DUP8 DUP4 DUP2 MLOAD DUP2 LT PUSH2 0x1F8 JUMPI PUSH2 0x1F7 PUSH2 0x5E1 JUMP JUMPDEST JUMPDEST PUSH1 0x20 MUL PUSH1 0x20 ADD ADD MLOAD DUP6 DUP3 DUP2 MLOAD DUP2 LT PUSH2 0x213 JUMPI PUSH2 0x212 PUSH2 0x5E1 JUMP JUMPDEST JUMPDEST PUSH1 0x20 MUL PUSH1 0x20 ADD ADD DUP2 DUP2 MSTORE POP POP DUP3 DUP1 PUSH2 0x22A SWAP1 PUSH2 0x60E JUMP JUMPDEST SWAP4 POP POP PUSH2 0x27B JUMP JUMPDEST DUP9 DUP5 DUP2 MLOAD DUP2 LT PUSH2 0x245 JUMPI PUSH2 0x244 PUSH2 0x5E1 JUMP JUMPDEST JUMPDEST PUSH1 0x20 MUL PUSH1 0x20 ADD ADD MLOAD DUP6 DUP3 DUP2 MLOAD DUP2 LT PUSH2 0x260 JUMPI PUSH2 0x25F PUSH2 0x5E1 JUMP JUMPDEST JUMPDEST PUSH1 0x20 MUL PUSH1 0x20 ADD ADD DUP2 DUP2 MSTORE POP POP DUP4 DUP1 PUSH2 0x277 SWAP1 PUSH2 0x60E JUMP JUMPDEST SWAP5 POP POP JUMPDEST DUP1 DUP1 PUSH1 0x1 ADD SWAP2 POP POP PUSH2 0x1D5 JUMP JUMPDEST POP DUP4 SWAP6 POP POP POP POP POP POP SWAP3 SWAP2 POP POP JUMP JUMPDEST PUSH0 PUSH1 0x40 MLOAD SWAP1 POP SWAP1 JUMP JUMPDEST PUSH0 PUSH0 REVERT JUMPDEST PUSH0 PUSH0 REVERT JUMPDEST PUSH0 PUSH0 REVERT JUMPDEST PUSH0 PUSH1 0x1F NOT PUSH1 0x1F DUP4 ADD AND SWAP1 POP SWAP2 SWAP1 POP JUMP JUMPDEST PUSH32 0x4E487B7100000000000000000000000000000000000000000000000000000000 PUSH0 MSTORE PUSH1 0x41 PUSH1 0x4 MSTORE PUSH1 0x24 PUSH0 REVERT JUMPDEST PUSH2 0x2F2 DUP3 PUSH2 0x2AC JUMP JUMPDEST DUP2 ADD DUP2 DUP2 LT PUSH8 0xFFFFFFFFFFFFFFFF DUP3 GT OR ISZERO PUSH2 0x311 JUMPI PUSH2 0x310 PUSH2 0x2BC JUMP JUMPDEST JUMPDEST DUP1 PUSH1 0x40 MSTORE POP POP POP JUMP JUMPDEST PUSH0 PUSH2 0x323 PUSH2 0x297 JUMP JUMPDEST SWAP1 POP PUSH2 0x32F DUP3 DUP3 PUSH2 0x2E9 JUMP JUMPDEST SWAP2 SWAP1 POP JUMP JUMPDEST PUSH0 PUSH8 0xFFFFFFFFFFFFFFFF DUP3 GT ISZERO PUSH2 0x34E JUMPI PUSH2 0x34D PUSH2 0x2BC JUMP JUMPDEST JUMPDEST PUSH1 0x20 DUP3 MUL SWAP1 POP PUSH1 0x20 DUP2 ADD SWAP1 POP SWAP2 SWAP1 POP JUMP JUMPDEST PUSH0 PUSH0 REVERT JUMPDEST PUSH0 DUP2 SWAP1 POP SWAP2 SWAP1 POP JUMP JUMPDEST PUSH2 0x375 DUP2 PUSH2 0x363 JUMP JUMPDEST DUP2 EQ PUSH2 0x37F JUMPI PUSH0 PUSH0 REVERT JUMPDEST POP JUMP JUMPDEST PUSH0 DUP2 CALLDATALOAD SWAP1 POP PUSH2 0x390 DUP2 PUSH2 0x36C JUMP JUMPDEST SWAP3 SWAP2 POP POP JUMP JUMPDEST PUSH0 PUSH2 0x3A8 PUSH2 0x3A3 DUP5 PUSH2 0x334 JUMP JUMPDEST PUSH2 0x31A JUMP JUMPDEST SWAP1 POP DUP1 DUP4 DUP3 MSTORE PUSH1 0x20 DUP3 ADD SWAP1 POP PUSH1 0x20 DUP5 MUL DUP4 ADD DUP6 DUP2 GT ISZERO PUSH2 0x3CB JUMPI PUSH2 0x3CA PUSH2 0x35F JUMP JUMPDEST JUMPDEST DUP4 JUMPDEST DUP2 DUP2 LT ISZERO PUSH2 0x3F4 JUMPI DUP1 PUSH2 0x3E0 DUP9 DUP3 PUSH2 0x382 JUMP JUMPDEST DUP5 MSTORE PUSH1 0x20 DUP5 ADD SWAP4 POP POP PUSH1 0x20 DUP2 ADD SWAP1 POP PUSH2 0x3CD JUMP JUMPDEST POP POP POP SWAP4 SWAP3 POP POP POP JUMP JUMPDEST PUSH0 DUP3 PUSH1 0x1F DUP4 ADD SLT PUSH2 0x412 JUMPI PUSH2 0x411 PUSH2 0x2A8 JUMP JUMPDEST JUMPDEST DUP2 CALLDATALOAD PUSH2 0x422 DUP5 DUP3 PUSH1 0x20 DUP7 ADD PUSH2 0x396 JUMP JUMPDEST SWAP2 POP POP SWAP3 SWAP2 POP POP JUMP JUMPDEST PUSH0 PUSH0 PUSH1 0x40 DUP4 DUP6 SUB SLT ISZERO PUSH2 0x441 JUMPI PUSH2 0x440 PUSH2 0x2A0 JUMP JUMPDEST JUMPDEST PUSH0 DUP4 ADD CALLDATALOAD PUSH8 0xFFFFFFFFFFFFFFFF DUP2 GT ISZERO PUSH2 0x45E JUMPI PUSH2 0x45D PUSH2 0x2A4 JUMP JUMPDEST JUMPDEST PUSH2 0x46A DUP6 DUP3 DUP7 ADD PUSH2 0x3FE JUMP JUMPDEST SWAP3 POP POP PUSH1 0x20 DUP4 ADD CALLDATALOAD PUSH8 0xFFFFFFFFFFFFFFFF DUP2 GT ISZERO PUSH2 0x48B JUMPI PUSH2 0x48A PUSH2 0x2A4 JUMP JUMPDEST JUMPDEST PUSH2 0x497 DUP6 DUP3 DUP7 ADD PUSH2 0x3FE JUMP JUMPDEST SWAP2 POP POP SWAP3 POP SWAP3 SWAP1 POP JUMP JUMPDEST PUSH0 DUP2 MLOAD SWAP1 POP SWAP2 SWAP1 POP JUMP JUMPDEST PUSH0 DUP3 DUP3 MSTORE PUSH1 0x20 DUP3 ADD SWAP1 POP SWAP3 SWAP2 POP POP JUMP JUMPDEST PUSH0 DUP2 SWAP1 POP PUSH1 0x20 DUP3 ADD SWAP1 POP SWAP2 SWAP1 POP JUMP JUMPDEST PUSH2 0x4D3 DUP2 PUSH2 0x363 JUMP JUMPDEST DUP3 MSTORE POP POP JUMP JUMPDEST PUSH0 PUSH2 0x4E4 DUP4 DUP4 PUSH2 0x4CA JUMP JUMPDEST PUSH1 0x20 DUP4 ADD SWAP1 POP SWAP3 SWAP2 POP POP JUMP JUMPDEST PUSH0 PUSH1 0x20 DUP3 ADD SWAP1 POP SWAP2 SWAP1 POP JUMP JUMPDEST PUSH0 PUSH2 0x506 DUP3 PUSH2 0x4A1 JUMP JUMPDEST PUSH2 0x510 DUP2 DUP6 PUSH2 0x4AB JUMP JUMPDEST SWAP4 POP PUSH2 0x51B DUP4 PUSH2 0x4BB JUMP JUMPDEST DUP1 PUSH0 JUMPDEST DUP4 DUP2 LT ISZERO PUSH2 0x54B JUMPI DUP2 MLOAD PUSH2 0x532 DUP9 DUP3 PUSH2 0x4D9 JUMP JUMPDEST SWAP8 POP PUSH2 0x53D DUP4 PUSH2 0x4F0 JUMP JUMPDEST SWAP3 POP POP PUSH1 0x1 DUP2 ADD SWAP1 POP PUSH2 0x51E JUMP JUMPDEST POP DUP6 SWAP4 POP POP POP POP SWAP3 SWAP2 POP POP JUMP JUMPDEST PUSH0 PUSH1 0x20 DUP3 ADD SWAP1 POP DUP2 DUP2 SUB PUSH0 DUP4 ADD MSTORE PUSH2 0x570 DUP2 DUP5 PUSH2 0x4FC JUMP JUMPDEST SWAP1 POP SWAP3 SWAP2 POP POP JUMP JUMPDEST PUSH0 DUP2 SWAP1 POP SWAP2 SWAP1 POP JUMP JUMPDEST PUSH32 0x4E487B7100000000000000000000000000000000000000000000000000000000 PUSH0 MSTORE PUSH1 0x11 PUSH1 0x4 MSTORE PUSH1 0x24 PUSH0 REVERT JUMPDEST PUSH0 PUSH2 0x5B8 DUP3 PUSH2 0x578 JUMP JUMPDEST SWAP2 POP PUSH2 0x5C3 DUP4 PUSH2 0x578 JUMP JUMPDEST SWAP3 POP DUP3 DUP3 ADD SWAP1 POP DUP1 DUP3 GT ISZERO PUSH2 0x5DB JUMPI PUSH2 0x5DA PUSH2 0x581 JUMP JUMPDEST JUMPDEST SWAP3 SWAP2 POP POP JUMP JUMPDEST PUSH32 0x4E487B7100000000000000000000000000000000000000000000000000000000 PUSH0 MSTORE PUSH1 0x32 PUSH1 0x4 MSTORE PUSH1 0x24 PUSH0 REVERT JUMPDEST PUSH0 PUSH2 0x618 DUP3 PUSH2 0x578 JUMP JUMPDEST SWAP2 POP PUSH32 0xFFFFFFFFFFFFFFFFFFFFFFFFFFFFFFFFFFFFFFFFFFFFFFFFFFFFFFFFFFFFFFFF DUP3 SUB PUSH2 0x64A JUMPI PUSH2 0x649 PUSH2 0x581 JUMP JUMPDEST JUMPDEST PUSH1 0x1 DUP3 ADD SWAP1 POP SWAP2 SWAP1 POP JUMP INVALID LOG2 PUSH5 0x6970667358 0x22 SLT KECCAK256 SWAP1 0xF7 0xAC 0xD DUP6 SWAP16 PUSH9 0x185AF3664AFB170510 0xBC RETURN 0xEB EXTCALL SGT DUP9 0xBB SWAP3 PUSH18 0xAC722127267BB564736F6C634300081E0033 "
				},
				"gasEstimates": {
					"creation": {
						"codeDepositCost": "335000",
						"executionCost": "372",
						"totalCost": "335372"
					},
					"external": {
						"mergeSortedArray(int256[],int256[])": "infinite"
					}
				},
				"methodIdentifiers": {
					"mergeSortedArray(int256[],int256[])": "f0322198"
				}
			},
			"storageLayout": {
				"storage": [],
				"types": null
			},
			"userdoc": {
				"kind": "user",
				"methods": {},
				"version": 1
			}
		}
	}
}