{
	"Task_2/Begging/BeggingContract.sol": {
		"BeggingContract": {
			"abi": [
				{
					"inputs": [],
					"stateMutability": "nonpayable",
					"type": "constructor"
				},
				{
					"anonymous": false,
					"inputs": [
						{
							"indexed": true,
							"internalType": "address",
							"name": "donor",
							"type": "address"
						},
						{
							"indexed": false,
							"internalType": "uint256",
							"name": "amount",
							"type": "uint256"
						}
					],
					"name": "Donation",
					"type": "event"
				},
				{
					"anonymous": false,
					"inputs": [
						{
							"indexed": true,
							"internalType": "address",
							"name": "owner",
							"type": "address"
						},
						{
							"indexed": false,
							"internalType": "uint256",
							"name": "amount",
							"type": "uint256"
						}
					],
					"name": "Withdraw",
					"type": "event"
				},
				{
					"inputs": [],
					"name": "donate",
					"outputs": [],
					"stateMutability": "payable",
					"type": "function"
				},
				{
					"inputs": [],
					"name": "endtime",
					"outputs": [
						{
							"internalType": "uint256",
							"name": "",
							"type": "uint256"
						}
					],
					"stateMutability": "view",
					"type": "function"
				},
				{
					"inputs": [
						{
							"internalType": "address",
							"name": "donor",
							"type": "address"
						}
					],
					"name": "getDonation",
					"outputs": [
						{
							"internalType": "uint256",
							"name": "",
							"type": "uint256"
						}
					],
					"stateMutability": "view",
					"type": "function"
				},
				{
					"inputs": [],
					"name": "getTopDonors",
					"outputs": [
						{
							"components": [
								{
									"internalType": "address",
									"name": "donor",
									"type": "address"
								},
								{
									"internalType": "uint256",
									"name": "amount",
									"type": "uint256"
								}
							],
							"internalType": "struct BeggingContract.Donorctx[3]",
							"name": "",
							"type": "tuple[3]"
						}
					],
					"stateMutability": "view",
					"type": "function"
				},
				{
					"inputs": [],
					"name": "owner",
					"outputs": [
						{
							"internalType": "address",
							"name": "",
							"type": "address"
						}
					],
					"stateMutability": "view",
					"type": "function"
				},
				{
					"inputs": [],
					"name": "starttime",
					"outputs": [
						{
							"internalType": "uint256",
							"name": "",
							"type": "uint256"
						}
					],
					"stateMutability": "view",
					"type": "function"
				},
				{
					"inputs": [],
					"name": "totalDonation",
					"outputs": [
						{
							"internalType": "uint256",
							"name": "",
							"type": "uint256"
						}
					],
					"stateMutability": "view",
					"type": "function"
				},
				{
					"inputs": [],
					"name": "withdraw",
					"outputs": [],
					"stateMutability": "nonpayable",
					"type": "function"
				}
			],
			"devdoc": {
				"kind": "dev",
				"methods": {},
				"version": 1
			},
			"evm": {
				"assembly": "    /* \"Task_2/Begging/BeggingContract.sol\":60:2005  contract BeggingContract {... */\n  mstore(0x40, 0x80)\n    /* \"Task_2/Begging/BeggingContract.sol\":744:849  constructor() {... */\n  callvalue\n  dup1\n  iszero\n  tag_1\n  jumpi\n  revert(0x00, 0x00)\ntag_1:\n  pop\n    /* \"Task_2/Begging/BeggingContract.sol\":775:785  msg.sender */\n  caller\n    /* \"Task_2/Begging/BeggingContract.sol\":769:774  owner */\n  0x01\n  0x00\n    /* \"Task_2/Begging/BeggingContract.sol\":769:785  owner=msg.sender */\n  0x0100\n  exp\n  dup2\n  sload\n  dup2\n  0xffffffffffffffffffffffffffffffffffffffff\n  mul\n  not\n  and\n  swap1\n  dup4\n  0xffffffffffffffffffffffffffffffffffffffff\n  and\n  mul\n  or\n  swap1\n  sstore\n  pop\n    /* \"Task_2/Begging/BeggingContract.sol\":807:813  6*3600 */\n  0x5460\n    /* \"Task_2/Begging/BeggingContract.sol\":796:805  starttime */\n  0x03\n    /* \"Task_2/Begging/BeggingContract.sol\":796:813  starttime= 6*3600 */\n  dup2\n  swap1\n  sstore\n  pop\n    /* \"Task_2/Begging/BeggingContract.sol\":834:841  24*3600 */\n  0x015180\n    /* \"Task_2/Begging/BeggingContract.sol\":824:831  endtime */\n  0x04\n    /* \"Task_2/Begging/BeggingContract.sol\":824:841  endtime = 24*3600 */\n  dup2\n  swap1\n  sstore\n  pop\n    /* \"Task_2/Begging/BeggingContract.sol\":60:2005  contract BeggingContract {... */\n  dataSize(sub_0)\n  dup1\n  dataOffset(sub_0)\n  0x00\n  codecopy\n  0x00\n  return\nstop\n\nsub_0: assembly {\n        /* \"Task_2/Begging/BeggingContract.sol\":60:2005  contract BeggingContract {... */\n      mstore(0x40, 0x80)\n      jumpi(tag_1, lt(calldatasize, 0x04))\n      shr(0xe0, calldataload(0x00))\n      dup1\n      0x8da5cb5b\n      gt\n      tag_10\n      jumpi\n      dup1\n      0x8da5cb5b\n      eq\n      tag_6\n      jumpi\n      dup1\n      0xd6387ed8\n      eq\n      tag_7\n      jumpi\n      dup1\n      0xed88c68e\n      eq\n      tag_8\n      jumpi\n      dup1\n      0xee2ac05f\n      eq\n      tag_9\n      jumpi\n      jump(tag_1)\n    tag_10:\n      dup1\n      0x2ca126f8\n      eq\n      tag_2\n      jumpi\n      dup1\n      0x3ccfd60b\n      eq\n      tag_3\n      jumpi\n      dup1\n      0x410a1d32\n      eq\n      tag_4\n      jumpi\n      dup1\n      0x8da58897\n      eq\n      tag_5\n      jumpi\n    tag_1:\n      revert(0x00, 0x00)\n        /* \"Task_2/Begging/BeggingContract.sol\":241:263  uint256 public endtime */\n    tag_2:\n      callvalue\n      dup1\n      iszero\n      tag_11\n      jumpi\n      revert(0x00, 0x00)\n    tag_11:\n      pop\n      tag_12\n      tag_13\n      jump\t// in\n    tag_12:\n      mload(0x40)\n      tag_14\n      swap2\n      swap1\n      tag_15\n      jump\t// in\n    tag_14:\n      mload(0x40)\n      dup1\n      swap2\n      sub\n      swap1\n      return\n        /* \"Task_2/Begging/BeggingContract.sol\":1556:1779  function withdraw() public onlyOwner{... */\n    tag_3:\n      callvalue\n      dup1\n      iszero\n      tag_16\n      jumpi\n      revert(0x00, 0x00)\n    tag_16:\n      pop\n      tag_17\n      tag_18\n      jump\t// in\n    tag_17:\n      stop\n        /* \"Task_2/Begging/BeggingContract.sol\":1787:1896  function getDonation(address donor) public view returns(uint256){... */\n    tag_4:\n      callvalue\n      dup1\n      iszero\n      tag_19\n      jumpi\n      revert(0x00, 0x00)\n    tag_19:\n      pop\n      tag_20\n      0x04\n      dup1\n      calldatasize\n      sub\n      dup2\n      add\n      swap1\n      tag_21\n      swap2\n      swap1\n      tag_22\n      jump\t// in\n    tag_21:\n      tag_23\n      jump\t// in\n    tag_20:\n      mload(0x40)\n      tag_24\n      swap2\n      swap1\n      tag_15\n      jump\t// in\n    tag_24:\n      mload(0x40)\n      dup1\n      swap2\n      sub\n      swap1\n      return\n        /* \"Task_2/Begging/BeggingContract.sol\":210:234  uint256 public starttime */\n    tag_5:\n      callvalue\n      dup1\n      iszero\n      tag_25\n      jumpi\n      revert(0x00, 0x00)\n    tag_25:\n      pop\n      tag_26\n      tag_27\n      jump\t// in\n    tag_26:\n      mload(0x40)\n      tag_28\n      swap2\n      swap1\n      tag_15\n      jump\t// in\n    tag_28:\n      mload(0x40)\n      dup1\n      swap2\n      sub\n      swap1\n      return\n        /* \"Task_2/Begging/BeggingContract.sol\":148:168  address public owner */\n    tag_6:\n      callvalue\n      dup1\n      iszero\n      tag_29\n      jumpi\n      revert(0x00, 0x00)\n    tag_29:\n      pop\n      tag_30\n      tag_31\n      jump\t// in\n    tag_30:\n      mload(0x40)\n      tag_32\n      swap2\n      swap1\n      tag_33\n      jump\t// in\n    tag_32:\n      mload(0x40)\n      dup1\n      swap2\n      sub\n      swap1\n      return\n        /* \"Task_2/Begging/BeggingContract.sol\":1904:2002  function getTopDonors() public view returns(Donorctx[3] memory){... */\n    tag_7:\n      callvalue\n      dup1\n      iszero\n      tag_34\n      jumpi\n      revert(0x00, 0x00)\n    tag_34:\n      pop\n      tag_35\n      tag_36\n      jump\t// in\n    tag_35:\n      mload(0x40)\n      tag_37\n      swap2\n      swap1\n      tag_38\n      jump\t// in\n    tag_37:\n      mload(0x40)\n      dup1\n      swap2\n      sub\n      swap1\n      return\n        /* \"Task_2/Begging/BeggingContract.sol\":1245:1542  function donate() public payable donationPeriod{... */\n    tag_8:\n      tag_39\n      tag_40\n      jump\t// in\n    tag_39:\n      stop\n        /* \"Task_2/Begging/BeggingContract.sol\":175:203  uint256 public totalDonation */\n    tag_9:\n      callvalue\n      dup1\n      iszero\n      tag_41\n      jumpi\n      revert(0x00, 0x00)\n    tag_41:\n      pop\n      tag_42\n      tag_43\n      jump\t// in\n    tag_42:\n      mload(0x40)\n      tag_44\n      swap2\n      swap1\n      tag_15\n      jump\t// in\n    tag_44:\n      mload(0x40)\n      dup1\n      swap2\n      sub\n      swap1\n      return\n        /* \"Task_2/Begging/BeggingContract.sol\":241:263  uint256 public endtime */\n    tag_13:\n      sload(0x04)\n      dup2\n      jump\t// out\n        /* \"Task_2/Begging/BeggingContract.sol\":1556:1779  function withdraw() public onlyOwner{... */\n    tag_18:\n        /* \"Task_2/Begging/BeggingContract.sol\":448:458  msg.sender */\n      caller\n        /* \"Task_2/Begging/BeggingContract.sol\":441:458  owner==msg.sender */\n      0xffffffffffffffffffffffffffffffffffffffff\n      and\n        /* \"Task_2/Begging/BeggingContract.sol\":441:446  owner */\n      0x01\n      0x00\n      swap1\n      sload\n      swap1\n      0x0100\n      exp\n      swap1\n      div\n      0xffffffffffffffffffffffffffffffffffffffff\n      and\n        /* \"Task_2/Begging/BeggingContract.sol\":441:458  owner==msg.sender */\n      0xffffffffffffffffffffffffffffffffffffffff\n      and\n      eq\n        /* \"Task_2/Begging/BeggingContract.sol\":433:472  require(owner==msg.sender,\"Only owner\") */\n      tag_46\n      jumpi\n      mload(0x40)\n      0x08c379a000000000000000000000000000000000000000000000000000000000\n      dup2\n      mstore\n      0x04\n      add\n      tag_47\n      swap1\n      tag_48\n      jump\t// in\n    tag_47:\n      mload(0x40)\n      dup1\n      swap2\n      sub\n      swap1\n      revert\n    tag_46:\n        /* \"Task_2/Begging/BeggingContract.sol\":1603:1618  uint256 balance */\n      0x00\n        /* \"Task_2/Begging/BeggingContract.sol\":1620:1641  address(this).balance */\n      selfbalance\n        /* \"Task_2/Begging/BeggingContract.sol\":1603:1641  uint256 balance =address(this).balance */\n      swap1\n      pop\n        /* \"Task_2/Begging/BeggingContract.sol\":1668:1669  0 */\n      0x00\n        /* \"Task_2/Begging/BeggingContract.sol\":1660:1667  balance */\n      dup2\n        /* \"Task_2/Begging/BeggingContract.sol\":1660:1669  balance>0 */\n      gt\n        /* \"Task_2/Begging/BeggingContract.sol\":1652:1685  require(balance>0,\"Zero balance\") */\n      tag_50\n      jumpi\n      mload(0x40)\n      0x08c379a000000000000000000000000000000000000000000000000000000000\n      dup2\n      mstore\n      0x04\n      add\n      tag_51\n      swap1\n      tag_52\n      jump\t// in\n    tag_51:\n      mload(0x40)\n      dup1\n      swap2\n      sub\n      swap1\n      revert\n    tag_50:\n        /* \"Task_2/Begging/BeggingContract.sol\":1706:1711  owner */\n      0x01\n      0x00\n      swap1\n      sload\n      swap1\n      0x0100\n      exp\n      swap1\n      div\n      0xffffffffffffffffffffffffffffffffffffffff\n      and\n        /* \"Task_2/Begging/BeggingContract.sol\":1698:1721  payable(owner).transfer */\n      0xffffffffffffffffffffffffffffffffffffffff\n      and\n        /* \"Task_2/Begging/BeggingContract.sol\":1698:1730  payable(owner).transfer(balance) */\n      0x08fc\n        /* \"Task_2/Begging/BeggingContract.sol\":1722:1729  balance */\n      dup3\n        /* \"Task_2/Begging/BeggingContract.sol\":1698:1730  payable(owner).transfer(balance) */\n      swap1\n      dup2\n      iszero\n      mul\n      swap1\n      mload(0x40)\n      0x00\n      mload(0x40)\n      dup1\n      dup4\n      sub\n      dup2\n      dup6\n      dup9\n      dup9\n      call\n      swap4\n      pop\n      pop\n      pop\n      pop\n      iszero\n      dup1\n      iszero\n      tag_54\n      jumpi\n      returndatacopy(0x00, 0x00, returndatasize)\n      revert(0x00, returndatasize)\n    tag_54:\n      pop\n        /* \"Task_2/Begging/BeggingContract.sol\":1755:1760  owner */\n      0x01\n      0x00\n      swap1\n      sload\n      swap1\n      0x0100\n      exp\n      swap1\n      div\n      0xffffffffffffffffffffffffffffffffffffffff\n      and\n        /* \"Task_2/Begging/BeggingContract.sol\":1746:1769  Withdraw(owner,balance) */\n      0xffffffffffffffffffffffffffffffffffffffff\n      and\n      0x884edad9ce6fa2440d8a54cc123490eb96d2768479d49ff9c7366125a9424364\n        /* \"Task_2/Begging/BeggingContract.sol\":1761:1768  balance */\n      dup3\n        /* \"Task_2/Begging/BeggingContract.sol\":1746:1769  Withdraw(owner,balance) */\n      mload(0x40)\n      tag_55\n      swap2\n      swap1\n      tag_15\n      jump\t// in\n    tag_55:\n      mload(0x40)\n      dup1\n      swap2\n      sub\n      swap1\n      log2\n        /* \"Task_2/Begging/BeggingContract.sol\":1592:1779  {... */\n      pop\n        /* \"Task_2/Begging/BeggingContract.sol\":1556:1779  function withdraw() public onlyOwner{... */\n      jump\t// out\n        /* \"Task_2/Begging/BeggingContract.sol\":1787:1896  function getDonation(address donor) public view returns(uint256){... */\n    tag_23:\n        /* \"Task_2/Begging/BeggingContract.sol\":1843:1850  uint256 */\n      0x00\n        /* \"Task_2/Begging/BeggingContract.sol\":1869:1881  donationETHs */\n      0x00\n        /* \"Task_2/Begging/BeggingContract.sol\":1869:1888  donationETHs[donor] */\n      0x00\n        /* \"Task_2/Begging/BeggingContract.sol\":1882:1887  donor */\n      dup4\n        /* \"Task_2/Begging/BeggingContract.sol\":1869:1888  donationETHs[donor] */\n      0xffffffffffffffffffffffffffffffffffffffff\n      and\n      0xffffffffffffffffffffffffffffffffffffffff\n      and\n      dup2\n      mstore\n      0x20\n      add\n      swap1\n      dup2\n      mstore\n      0x20\n      add\n      0x00\n      keccak256\n      sload\n        /* \"Task_2/Begging/BeggingContract.sol\":1862:1888  return donationETHs[donor] */\n      swap1\n      pop\n        /* \"Task_2/Begging/BeggingContract.sol\":1787:1896  function getDonation(address donor) public view returns(uint256){... */\n      swap2\n      swap1\n      pop\n      jump\t// out\n        /* \"Task_2/Begging/BeggingContract.sol\":210:234  uint256 public starttime */\n    tag_27:\n      sload(0x03)\n      dup2\n      jump\t// out\n        /* \"Task_2/Begging/BeggingContract.sol\":148:168  address public owner */\n    tag_31:\n      0x01\n      0x00\n      swap1\n      sload\n      swap1\n      0x0100\n      exp\n      swap1\n      div\n      0xffffffffffffffffffffffffffffffffffffffff\n      and\n      dup2\n      jump\t// out\n        /* \"Task_2/Begging/BeggingContract.sol\":1904:2002  function getTopDonors() public view returns(Donorctx[3] memory){... */\n    tag_36:\n        /* \"Task_2/Begging/BeggingContract.sol\":1948:1966  Donorctx[3] memory */\n      tag_57\n      tag_58\n      jump\t// in\n    tag_57:\n        /* \"Task_2/Begging/BeggingContract.sol\":1985:1994  topDonors */\n      0x05\n        /* \"Task_2/Begging/BeggingContract.sol\":1978:1994  return topDonors */\n      0x03\n      dup1\n      0x20\n      mul\n      mload(0x40)\n      swap1\n      dup2\n      add\n      0x40\n      mstore\n      dup1\n      swap3\n      swap2\n      swap1\n      0x00\n      swap1\n    tag_60:\n      dup3\n      dup3\n      lt\n      iszero\n      tag_61\n      jumpi\n      dup4\n      dup3\n      0x02\n      mul\n      add\n      mload(0x40)\n      dup1\n      0x40\n      add\n      0x40\n      mstore\n      swap1\n      dup2\n      0x00\n      dup3\n      add\n      0x00\n      swap1\n      sload\n      swap1\n      0x0100\n      exp\n      swap1\n      div\n      0xffffffffffffffffffffffffffffffffffffffff\n      and\n      0xffffffffffffffffffffffffffffffffffffffff\n      and\n      0xffffffffffffffffffffffffffffffffffffffff\n      and\n      dup2\n      mstore\n      0x20\n      add\n      0x01\n      dup3\n      add\n      sload\n      dup2\n      mstore\n      pop\n      pop\n      dup2\n      mstore\n      0x20\n      add\n      swap1\n      0x01\n      add\n      swap1\n      jump(tag_60)\n    tag_61:\n      pop\n      pop\n      pop\n      pop\n      swap1\n      pop\n        /* \"Task_2/Begging/BeggingContract.sol\":1904:2002  function getTopDonors() public view returns(Donorctx[3] memory){... */\n      swap1\n      jump\t// out\n        /* \"Task_2/Begging/BeggingContract.sol\":1245:1542  function donate() public payable donationPeriod{... */\n    tag_40:\n        /* \"Task_2/Begging/BeggingContract.sol\":567:576  starttime */\n      sload(0x03)\n        /* \"Task_2/Begging/BeggingContract.sol\":558:565  endtime */\n      sload(0x04)\n        /* \"Task_2/Begging/BeggingContract.sol\":542:557  block.timestamp */\n      timestamp\n        /* \"Task_2/Begging/BeggingContract.sol\":542:565  block.timestamp%endtime */\n      tag_64\n      swap2\n      swap1\n      tag_65\n      jump\t// in\n    tag_64:\n        /* \"Task_2/Begging/BeggingContract.sol\":542:576  block.timestamp%endtime>=starttime */\n      lt\n      iszero\n        /* \"Task_2/Begging/BeggingContract.sol\":534:594  require(block.timestamp%endtime>=starttime,\"Donation close\") */\n      tag_66\n      jumpi\n      mload(0x40)\n      0x08c379a000000000000000000000000000000000000000000000000000000000\n      dup2\n      mstore\n      0x04\n      add\n      tag_67\n      swap1\n      tag_68\n      jump\t// in\n    tag_67:\n      mload(0x40)\n      dup1\n      swap2\n      sub\n      swap1\n      revert\n    tag_66:\n        /* \"Task_2/Begging/BeggingContract.sol\":1321:1322  0 */\n      0x00\n        /* \"Task_2/Begging/BeggingContract.sol\":1311:1320  msg.value */\n      callvalue\n        /* \"Task_2/Begging/BeggingContract.sol\":1311:1322  msg.value>0 */\n      gt\n        /* \"Task_2/Begging/BeggingContract.sol\":1303:1346  require(msg.value>0,\"Donation must be > 0\") */\n      tag_70\n      jumpi\n      mload(0x40)\n      0x08c379a000000000000000000000000000000000000000000000000000000000\n      dup2\n      mstore\n      0x04\n      add\n      tag_71\n      swap1\n      tag_72\n      jump\t// in\n    tag_71:\n      mload(0x40)\n      dup1\n      swap2\n      sub\n      swap1\n      revert\n    tag_70:\n        /* \"Task_2/Begging/BeggingContract.sol\":1385:1394  msg.value */\n      callvalue\n        /* \"Task_2/Begging/BeggingContract.sol\":1359:1371  donationETHs */\n      0x00\n        /* \"Task_2/Begging/BeggingContract.sol\":1359:1383  donationETHs[msg.sender] */\n      0x00\n        /* \"Task_2/Begging/BeggingContract.sol\":1372:1382  msg.sender */\n      caller\n        /* \"Task_2/Begging/BeggingContract.sol\":1359:1383  donationETHs[msg.sender] */\n      0xffffffffffffffffffffffffffffffffffffffff\n      and\n      0xffffffffffffffffffffffffffffffffffffffff\n      and\n      dup2\n      mstore\n      0x20\n      add\n      swap1\n      dup2\n      mstore\n      0x20\n      add\n      0x00\n      keccak256\n      0x00\n        /* \"Task_2/Begging/BeggingContract.sol\":1359:1394  donationETHs[msg.sender]+=msg.value */\n      dup3\n      dup3\n      sload\n      tag_73\n      swap2\n      swap1\n      tag_74\n      jump\t// in\n    tag_73:\n      swap3\n      pop\n      pop\n      dup2\n      swap1\n      sstore\n      pop\n        /* \"Task_2/Begging/BeggingContract.sol\":1420:1429  msg.value */\n      callvalue\n        /* \"Task_2/Begging/BeggingContract.sol\":1405:1418  totalDonation */\n      0x02\n      0x00\n        /* \"Task_2/Begging/BeggingContract.sol\":1405:1429  totalDonation+=msg.value */\n      dup3\n      dup3\n      sload\n      tag_75\n      swap2\n      swap1\n      tag_74\n      jump\t// in\n    tag_75:\n      swap3\n      pop\n      pop\n      dup2\n      swap1\n      sstore\n      pop\n        /* \"Task_2/Begging/BeggingContract.sol\":1450:1488  _updateTopDonors(msg.sender,msg.value) */\n      tag_76\n        /* \"Task_2/Begging/BeggingContract.sol\":1467:1477  msg.sender */\n      caller\n        /* \"Task_2/Begging/BeggingContract.sol\":1478:1487  msg.value */\n      callvalue\n        /* \"Task_2/Begging/BeggingContract.sol\":1450:1466  _updateTopDonors */\n      tag_77\n        /* \"Task_2/Begging/BeggingContract.sol\":1450:1488  _updateTopDonors(msg.sender,msg.value) */\n      jump\t// in\n    tag_76:\n        /* \"Task_2/Begging/BeggingContract.sol\":1513:1523  msg.sender */\n      caller\n        /* \"Task_2/Begging/BeggingContract.sol\":1504:1534  Donation(msg.sender,msg.value) */\n      0xffffffffffffffffffffffffffffffffffffffff\n      and\n      0x5d8bc849764969eb1bcc6d0a2f55999d0167c1ccec240a4f39cf664ca9c4148e\n        /* \"Task_2/Begging/BeggingContract.sol\":1524:1533  msg.value */\n      callvalue\n        /* \"Task_2/Begging/BeggingContract.sol\":1504:1534  Donation(msg.sender,msg.value) */\n      mload(0x40)\n      tag_78\n      swap2\n      swap1\n      tag_15\n      jump\t// in\n    tag_78:\n      mload(0x40)\n      dup1\n      swap2\n      sub\n      swap1\n      log2\n        /* \"Task_2/Begging/BeggingContract.sol\":1245:1542  function donate() public payable donationPeriod{... */\n      jump\t// out\n        /* \"Task_2/Begging/BeggingContract.sol\":175:203  uint256 public totalDonation */\n    tag_43:\n      sload(0x02)\n      dup2\n      jump\t// out\n        /* \"Task_2/Begging/BeggingContract.sol\":857:1237  function _updateTopDonors(address donor,uint256 amount) private {... */\n    tag_77:\n        /* \"Task_2/Begging/BeggingContract.sol\":938:944  uint i */\n      0x00\n        /* \"Task_2/Begging/BeggingContract.sol\":945:946  0 */\n      0x00\n        /* \"Task_2/Begging/BeggingContract.sol\":938:946  uint i=0 */\n      swap1\n      pop\n        /* \"Task_2/Begging/BeggingContract.sol\":934:1230  for(uint i=0;i<3;i++){... */\n    tag_80:\n        /* \"Task_2/Begging/BeggingContract.sol\":949:950  3 */\n      0x03\n        /* \"Task_2/Begging/BeggingContract.sol\":947:948  i */\n      dup2\n        /* \"Task_2/Begging/BeggingContract.sol\":947:950  i<3 */\n      lt\n        /* \"Task_2/Begging/BeggingContract.sol\":934:1230  for(uint i=0;i<3;i++){... */\n      iszero\n      tag_81\n      jumpi\n        /* \"Task_2/Begging/BeggingContract.sol\":982:991  topDonors */\n      0x05\n        /* \"Task_2/Begging/BeggingContract.sol\":992:993  i */\n      dup2\n        /* \"Task_2/Begging/BeggingContract.sol\":982:994  topDonors[i] */\n      0x03\n      dup2\n      lt\n      tag_83\n      jumpi\n      tag_84\n      tag_85\n      jump\t// in\n    tag_84:\n    tag_83:\n      0x02\n      mul\n      add\n        /* \"Task_2/Begging/BeggingContract.sol\":982:1001  topDonors[i].amount */\n      0x01\n      add\n      sload\n        /* \"Task_2/Begging/BeggingContract.sol\":973:979  amount */\n      dup3\n        /* \"Task_2/Begging/BeggingContract.sol\":973:1001  amount > topDonors[i].amount */\n      gt\n        /* \"Task_2/Begging/BeggingContract.sol\":970:1205  if(amount > topDonors[i].amount){... */\n      iszero\n      tag_87\n      jumpi\n        /* \"Task_2/Begging/BeggingContract.sol\":1025:1031  uint j */\n      0x00\n        /* \"Task_2/Begging/BeggingContract.sol\":1032:1033  2 */\n      0x02\n        /* \"Task_2/Begging/BeggingContract.sol\":1025:1033  uint j=2 */\n      swap1\n      pop\n        /* \"Task_2/Begging/BeggingContract.sol\":1021:1112  for(uint j=2;j>i;j--){... */\n    tag_88:\n        /* \"Task_2/Begging/BeggingContract.sol\":1036:1037  i */\n      dup2\n        /* \"Task_2/Begging/BeggingContract.sol\":1034:1035  j */\n      dup2\n        /* \"Task_2/Begging/BeggingContract.sol\":1034:1037  j>i */\n      gt\n        /* \"Task_2/Begging/BeggingContract.sol\":1021:1112  for(uint j=2;j>i;j--){... */\n      iszero\n      tag_89\n      jumpi\n        /* \"Task_2/Begging/BeggingContract.sol\":1078:1087  topDonors */\n      0x05\n        /* \"Task_2/Begging/BeggingContract.sol\":1090:1091  1 */\n      0x01\n        /* \"Task_2/Begging/BeggingContract.sol\":1088:1089  j */\n      dup3\n        /* \"Task_2/Begging/BeggingContract.sol\":1088:1091  j-1 */\n      tag_91\n      swap2\n      swap1\n      tag_92\n      jump\t// in\n    tag_91:\n        /* \"Task_2/Begging/BeggingContract.sol\":1078:1092  topDonors[j-1] */\n      0x03\n      dup2\n      lt\n      tag_93\n      jumpi\n      tag_94\n      tag_85\n      jump\t// in\n    tag_94:\n    tag_93:\n      0x02\n      mul\n      add\n        /* \"Task_2/Begging/BeggingContract.sol\":1065:1074  topDonors */\n      0x05\n        /* \"Task_2/Begging/BeggingContract.sol\":1075:1076  j */\n      dup3\n        /* \"Task_2/Begging/BeggingContract.sol\":1065:1077  topDonors[j] */\n      0x03\n      dup2\n      lt\n      tag_96\n      jumpi\n      tag_97\n      tag_85\n      jump\t// in\n    tag_97:\n    tag_96:\n      0x02\n      mul\n      add\n        /* \"Task_2/Begging/BeggingContract.sol\":1065:1092  topDonors[j]=topDonors[j-1] */\n      0x00\n      dup3\n      add\n      0x00\n      swap1\n      sload\n      swap1\n      0x0100\n      exp\n      swap1\n      div\n      0xffffffffffffffffffffffffffffffffffffffff\n      and\n      dup2\n      0x00\n      add\n      exp(0x0100, 0x00)\n      dup2\n      sload\n      dup2\n      0xffffffffffffffffffffffffffffffffffffffff\n      mul\n      not\n      and\n      swap1\n      dup4\n      0xffffffffffffffffffffffffffffffffffffffff\n      and\n      mul\n      or\n      swap1\n      sstore\n      pop\n      0x01\n      dup3\n      add\n      sload\n      dup2\n      0x01\n      add\n      sstore\n      swap1\n      pop\n      pop\n        /* \"Task_2/Begging/BeggingContract.sol\":1038:1041  j-- */\n      dup1\n      dup1\n      tag_99\n      swap1\n      tag_100\n      jump\t// in\n    tag_99:\n      swap2\n      pop\n      pop\n        /* \"Task_2/Begging/BeggingContract.sol\":1021:1112  for(uint j=2;j>i;j--){... */\n      jump(tag_88)\n    tag_89:\n      pop\n        /* \"Task_2/Begging/BeggingContract.sol\":1143:1165  Donorctx(donor,amount) */\n      mload(0x40)\n      dup1\n      0x40\n      add\n      0x40\n      mstore\n      dup1\n        /* \"Task_2/Begging/BeggingContract.sol\":1152:1157  donor */\n      dup5\n        /* \"Task_2/Begging/BeggingContract.sol\":1143:1165  Donorctx(donor,amount) */\n      0xffffffffffffffffffffffffffffffffffffffff\n      and\n      dup2\n      mstore\n      0x20\n      add\n        /* \"Task_2/Begging/BeggingContract.sol\":1158:1164  amount */\n      dup4\n        /* \"Task_2/Begging/BeggingContract.sol\":1143:1165  Donorctx(donor,amount) */\n      dup2\n      mstore\n      pop\n        /* \"Task_2/Begging/BeggingContract.sol\":1130:1139  topDonors */\n      0x05\n        /* \"Task_2/Begging/BeggingContract.sol\":1140:1141  i */\n      dup3\n        /* \"Task_2/Begging/BeggingContract.sol\":1130:1142  topDonors[i] */\n      0x03\n      dup2\n      lt\n      tag_101\n      jumpi\n      tag_102\n      tag_85\n      jump\t// in\n    tag_102:\n    tag_101:\n      0x02\n      mul\n      add\n        /* \"Task_2/Begging/BeggingContract.sol\":1130:1165  topDonors[i]=Donorctx(donor,amount) */\n      0x00\n      dup3\n      add\n      mload\n      dup2\n      0x00\n      add\n      exp(0x0100, 0x00)\n      dup2\n      sload\n      dup2\n      0xffffffffffffffffffffffffffffffffffffffff\n      mul\n      not\n      and\n      swap1\n      dup4\n      0xffffffffffffffffffffffffffffffffffffffff\n      and\n      mul\n      or\n      swap1\n      sstore\n      pop\n      0x20\n      dup3\n      add\n      mload\n      dup2\n      0x01\n      add\n      sstore\n      swap1\n      pop\n      pop\n        /* \"Task_2/Begging/BeggingContract.sol\":1184:1189  break */\n      jump(tag_81)\n        /* \"Task_2/Begging/BeggingContract.sol\":970:1205  if(amount > topDonors[i].amount){... */\n    tag_87:\n        /* \"Task_2/Begging/BeggingContract.sol\":951:954  i++ */\n      dup1\n      dup1\n      0x01\n      add\n      swap2\n      pop\n      pop\n        /* \"Task_2/Begging/BeggingContract.sol\":934:1230  for(uint i=0;i<3;i++){... */\n      jump(tag_80)\n    tag_81:\n      pop\n        /* \"Task_2/Begging/BeggingContract.sol\":857:1237  function _updateTopDonors(address donor,uint256 amount) private {... */\n      pop\n      pop\n      jump\t// out\n    tag_58:\n      mload(0x40)\n      dup1\n      0x60\n      add\n      0x40\n      mstore\n      dup1\n      0x03\n      swap1\n    tag_104:\n      tag_105\n      tag_106\n      jump\t// in\n    tag_105:\n      dup2\n      mstore\n      0x20\n      add\n      swap1\n      0x01\n      swap1\n      sub\n      swap1\n      dup2\n      tag_104\n      jumpi\n      swap1\n      pop\n      pop\n      swap1\n      jump\t// out\n    tag_106:\n      mload(0x40)\n      dup1\n      0x40\n      add\n      0x40\n      mstore\n      dup1\n      and(0xffffffffffffffffffffffffffffffffffffffff, 0x00)\n      dup2\n      mstore\n      0x20\n      add\n      0x00\n      dup2\n      mstore\n      pop\n      swap1\n      jump\t// out\n        /* \"#utility.yul\":7:84   */\n    tag_107:\n        /* \"#utility.yul\":44:51   */\n      0x00\n        /* \"#utility.yul\":73:78   */\n      dup2\n        /* \"#utility.yul\":62:78   */\n      swap1\n      pop\n        /* \"#utility.yul\":7:84   */\n      swap2\n      swap1\n      pop\n      jump\t// out\n        /* \"#utility.yul\":90:208   */\n    tag_108:\n        /* \"#utility.yul\":177:201   */\n      tag_140\n        /* \"#utility.yul\":195:200   */\n      dup2\n        /* \"#utility.yul\":177:201   */\n      tag_107\n      jump\t// in\n    tag_140:\n        /* \"#utility.yul\":172:175   */\n      dup3\n        /* \"#utility.yul\":165:202   */\n      mstore\n        /* \"#utility.yul\":90:208   */\n      pop\n      pop\n      jump\t// out\n        /* \"#utility.yul\":214:436   */\n    tag_15:\n        /* \"#utility.yul\":307:311   */\n      0x00\n        /* \"#utility.yul\":345:347   */\n      0x20\n        /* \"#utility.yul\":334:343   */\n      dup3\n        /* \"#utility.yul\":330:348   */\n      add\n        /* \"#utility.yul\":322:348   */\n      swap1\n      pop\n        /* \"#utility.yul\":358:429   */\n      tag_142\n        /* \"#utility.yul\":426:427   */\n      0x00\n        /* \"#utility.yul\":415:424   */\n      dup4\n        /* \"#utility.yul\":411:428   */\n      add\n        /* \"#utility.yul\":402:408   */\n      dup5\n        /* \"#utility.yul\":358:429   */\n      tag_108\n      jump\t// in\n    tag_142:\n        /* \"#utility.yul\":214:436   */\n      swap3\n      swap2\n      pop\n      pop\n      jump\t// out\n        /* \"#utility.yul\":523:640   */\n    tag_110:\n        /* \"#utility.yul\":632:633   */\n      0x00\n        /* \"#utility.yul\":629:630   */\n      0x00\n        /* \"#utility.yul\":622:634   */\n      revert\n        /* \"#utility.yul\":769:895   */\n    tag_112:\n        /* \"#utility.yul\":806:813   */\n      0x00\n        /* \"#utility.yul\":846:888   */\n      0xffffffffffffffffffffffffffffffffffffffff\n        /* \"#utility.yul\":839:844   */\n      dup3\n        /* \"#utility.yul\":835:889   */\n      and\n        /* \"#utility.yul\":824:889   */\n      swap1\n      pop\n        /* \"#utility.yul\":769:895   */\n      swap2\n      swap1\n      pop\n      jump\t// out\n        /* \"#utility.yul\":901:997   */\n    tag_113:\n        /* \"#utility.yul\":938:945   */\n      0x00\n        /* \"#utility.yul\":967:991   */\n      tag_148\n        /* \"#utility.yul\":985:990   */\n      dup3\n        /* \"#utility.yul\":967:991   */\n      tag_112\n      jump\t// in\n    tag_148:\n        /* \"#utility.yul\":956:991   */\n      swap1\n      pop\n        /* \"#utility.yul\":901:997   */\n      swap2\n      swap1\n      pop\n      jump\t// out\n        /* \"#utility.yul\":1003:1125   */\n    tag_114:\n        /* \"#utility.yul\":1076:1100   */\n      tag_150\n        /* \"#utility.yul\":1094:1099   */\n      dup2\n        /* \"#utility.yul\":1076:1100   */\n      tag_113\n      jump\t// in\n    tag_150:\n        /* \"#utility.yul\":1069:1074   */\n      dup2\n        /* \"#utility.yul\":1066:1101   */\n      eq\n        /* \"#utility.yul\":1056:1119   */\n      tag_151\n      jumpi\n        /* \"#utility.yul\":1115:1116   */\n      0x00\n        /* \"#utility.yul\":1112:1113   */\n      0x00\n        /* \"#utility.yul\":1105:1117   */\n      revert\n        /* \"#utility.yul\":1056:1119   */\n    tag_151:\n        /* \"#utility.yul\":1003:1125   */\n      pop\n      jump\t// out\n        /* \"#utility.yul\":1131:1270   */\n    tag_115:\n        /* \"#utility.yul\":1177:1182   */\n      0x00\n        /* \"#utility.yul\":1215:1221   */\n      dup2\n        /* \"#utility.yul\":1202:1222   */\n      calldataload\n        /* \"#utility.yul\":1193:1222   */\n      swap1\n      pop\n        /* \"#utility.yul\":1231:1264   */\n      tag_153\n        /* \"#utility.yul\":1258:1263   */\n      dup2\n        /* \"#utility.yul\":1231:1264   */\n      tag_114\n      jump\t// in\n    tag_153:\n        /* \"#utility.yul\":1131:1270   */\n      swap3\n      swap2\n      pop\n      pop\n      jump\t// out\n        /* \"#utility.yul\":1276:1605   */\n    tag_22:\n        /* \"#utility.yul\":1335:1341   */\n      0x00\n        /* \"#utility.yul\":1384:1386   */\n      0x20\n        /* \"#utility.yul\":1372:1381   */\n      dup3\n        /* \"#utility.yul\":1363:1370   */\n      dup5\n        /* \"#utility.yul\":1359:1382   */\n      sub\n        /* \"#utility.yul\":1355:1387   */\n      slt\n        /* \"#utility.yul\":1352:1471   */\n      iszero\n      tag_155\n      jumpi\n        /* \"#utility.yul\":1390:1469   */\n      tag_156\n      tag_110\n      jump\t// in\n    tag_156:\n        /* \"#utility.yul\":1352:1471   */\n    tag_155:\n        /* \"#utility.yul\":1510:1511   */\n      0x00\n        /* \"#utility.yul\":1535:1588   */\n      tag_157\n        /* \"#utility.yul\":1580:1587   */\n      dup5\n        /* \"#utility.yul\":1571:1577   */\n      dup3\n        /* \"#utility.yul\":1560:1569   */\n      dup6\n        /* \"#utility.yul\":1556:1578   */\n      add\n        /* \"#utility.yul\":1535:1588   */\n      tag_115\n      jump\t// in\n    tag_157:\n        /* \"#utility.yul\":1525:1588   */\n      swap2\n      pop\n        /* \"#utility.yul\":1481:1598   */\n      pop\n        /* \"#utility.yul\":1276:1605   */\n      swap3\n      swap2\n      pop\n      pop\n      jump\t// out\n        /* \"#utility.yul\":1611:1729   */\n    tag_116:\n        /* \"#utility.yul\":1698:1722   */\n      tag_159\n        /* \"#utility.yul\":1716:1721   */\n      dup2\n        /* \"#utility.yul\":1698:1722   */\n      tag_113\n      jump\t// in\n    tag_159:\n        /* \"#utility.yul\":1693:1696   */\n      dup3\n        /* \"#utility.yul\":1686:1723   */\n      mstore\n        /* \"#utility.yul\":1611:1729   */\n      pop\n      pop\n      jump\t// out\n        /* \"#utility.yul\":1735:1957   */\n    tag_33:\n        /* \"#utility.yul\":1828:1832   */\n      0x00\n        /* \"#utility.yul\":1866:1868   */\n      0x20\n        /* \"#utility.yul\":1855:1864   */\n      dup3\n        /* \"#utility.yul\":1851:1869   */\n      add\n        /* \"#utility.yul\":1843:1869   */\n      swap1\n      pop\n        /* \"#utility.yul\":1879:1950   */\n      tag_161\n        /* \"#utility.yul\":1947:1948   */\n      0x00\n        /* \"#utility.yul\":1936:1945   */\n      dup4\n        /* \"#utility.yul\":1932:1949   */\n      add\n        /* \"#utility.yul\":1923:1929   */\n      dup5\n        /* \"#utility.yul\":1879:1950   */\n      tag_116\n      jump\t// in\n    tag_161:\n        /* \"#utility.yul\":1735:1957   */\n      swap3\n      swap2\n      pop\n      pop\n      jump\t// out\n        /* \"#utility.yul\":1963:2091   */\n    tag_117:\n        /* \"#utility.yul\":2052:2058   */\n      0x00\n        /* \"#utility.yul\":2080:2084   */\n      0x03\n        /* \"#utility.yul\":2070:2084   */\n      swap1\n      pop\n        /* \"#utility.yul\":1963:2091   */\n      swap2\n      swap1\n      pop\n      jump\t// out\n        /* \"#utility.yul\":2097:2264   */\n    tag_118:\n        /* \"#utility.yul\":2218:2229   */\n      0x00\n        /* \"#utility.yul\":2255:2258   */\n      dup2\n        /* \"#utility.yul\":2240:2258   */\n      swap1\n      pop\n        /* \"#utility.yul\":2097:2264   */\n      swap3\n      swap2\n      pop\n      pop\n      jump\t// out\n        /* \"#utility.yul\":2270:2392   */\n    tag_119:\n        /* \"#utility.yul\":2359:2363   */\n      0x00\n        /* \"#utility.yul\":2382:2385   */\n      dup2\n        /* \"#utility.yul\":2374:2385   */\n      swap1\n      pop\n        /* \"#utility.yul\":2270:2392   */\n      swap2\n      swap1\n      pop\n      jump\t// out\n        /* \"#utility.yul\":2398:2506   */\n    tag_120:\n        /* \"#utility.yul\":2475:2499   */\n      tag_166\n        /* \"#utility.yul\":2493:2498   */\n      dup2\n        /* \"#utility.yul\":2475:2499   */\n      tag_113\n      jump\t// in\n    tag_166:\n        /* \"#utility.yul\":2470:2473   */\n      dup3\n        /* \"#utility.yul\":2463:2500   */\n      mstore\n        /* \"#utility.yul\":2398:2506   */\n      pop\n      pop\n      jump\t// out\n        /* \"#utility.yul\":2512:2620   */\n    tag_121:\n        /* \"#utility.yul\":2589:2613   */\n      tag_168\n        /* \"#utility.yul\":2607:2612   */\n      dup2\n        /* \"#utility.yul\":2589:2613   */\n      tag_107\n      jump\t// in\n    tag_168:\n        /* \"#utility.yul\":2584:2587   */\n      dup3\n        /* \"#utility.yul\":2577:2614   */\n      mstore\n        /* \"#utility.yul\":2512:2620   */\n      pop\n      pop\n      jump\t// out\n        /* \"#utility.yul\":2700:3198   */\n    tag_122:\n        /* \"#utility.yul\":2835:2839   */\n      0x40\n        /* \"#utility.yul\":2830:2833   */\n      dup3\n        /* \"#utility.yul\":2826:2840   */\n      add\n        /* \"#utility.yul\":2923:2927   */\n      0x00\n        /* \"#utility.yul\":2916:2921   */\n      dup3\n        /* \"#utility.yul\":2912:2928   */\n      add\n        /* \"#utility.yul\":2906:2929   */\n      mload\n        /* \"#utility.yul\":2942:3005   */\n      tag_170\n        /* \"#utility.yul\":2999:3003   */\n      0x00\n        /* \"#utility.yul\":2994:2997   */\n      dup6\n        /* \"#utility.yul\":2990:3004   */\n      add\n        /* \"#utility.yul\":2976:2988   */\n      dup3\n        /* \"#utility.yul\":2942:3005   */\n      tag_120\n      jump\t// in\n    tag_170:\n        /* \"#utility.yul\":2850:3015   */\n      pop\n        /* \"#utility.yul\":3099:3103   */\n      0x20\n        /* \"#utility.yul\":3092:3097   */\n      dup3\n        /* \"#utility.yul\":3088:3104   */\n      add\n        /* \"#utility.yul\":3082:3105   */\n      mload\n        /* \"#utility.yul\":3118:3181   */\n      tag_171\n        /* \"#utility.yul\":3175:3179   */\n      0x20\n        /* \"#utility.yul\":3170:3173   */\n      dup6\n        /* \"#utility.yul\":3166:3180   */\n      add\n        /* \"#utility.yul\":3152:3164   */\n      dup3\n        /* \"#utility.yul\":3118:3181   */\n      tag_121\n      jump\t// in\n    tag_171:\n        /* \"#utility.yul\":3025:3191   */\n      pop\n        /* \"#utility.yul\":2804:3198   */\n      pop\n        /* \"#utility.yul\":2700:3198   */\n      pop\n      pop\n      jump\t// out\n        /* \"#utility.yul\":3204:3479   */\n    tag_123:\n        /* \"#utility.yul\":3321:3331   */\n      0x00\n        /* \"#utility.yul\":3342:3436   */\n      tag_173\n        /* \"#utility.yul\":3432:3435   */\n      dup4\n        /* \"#utility.yul\":3424:3430   */\n      dup4\n        /* \"#utility.yul\":3342:3436   */\n      tag_122\n      jump\t// in\n    tag_173:\n        /* \"#utility.yul\":3468:3472   */\n      0x40\n        /* \"#utility.yul\":3463:3466   */\n      dup4\n        /* \"#utility.yul\":3459:3473   */\n      add\n        /* \"#utility.yul\":3445:3473   */\n      swap1\n      pop\n        /* \"#utility.yul\":3204:3479   */\n      swap3\n      swap2\n      pop\n      pop\n      jump\t// out\n        /* \"#utility.yul\":3485:3620   */\n    tag_124:\n        /* \"#utility.yul\":3577:3581   */\n      0x00\n        /* \"#utility.yul\":3609:3613   */\n      0x20\n        /* \"#utility.yul\":3604:3607   */\n      dup3\n        /* \"#utility.yul\":3600:3614   */\n      add\n        /* \"#utility.yul\":3592:3614   */\n      swap1\n      pop\n        /* \"#utility.yul\":3485:3620   */\n      swap2\n      swap1\n      pop\n      jump\t// out\n        /* \"#utility.yul\":3706:4592   */\n    tag_125:\n        /* \"#utility.yul\":3890:3966   */\n      tag_176\n        /* \"#utility.yul\":3960:3965   */\n      dup2\n        /* \"#utility.yul\":3890:3966   */\n      tag_117\n      jump\t// in\n    tag_176:\n        /* \"#utility.yul\":3982:4090   */\n      tag_177\n        /* \"#utility.yul\":4083:4089   */\n      dup2\n        /* \"#utility.yul\":4078:4081   */\n      dup5\n        /* \"#utility.yul\":3982:4090   */\n      tag_118\n      jump\t// in\n    tag_177:\n        /* \"#utility.yul\":3975:4090   */\n      swap3\n      pop\n        /* \"#utility.yul\":4114:4192   */\n      tag_178\n        /* \"#utility.yul\":4186:4191   */\n      dup3\n        /* \"#utility.yul\":4114:4192   */\n      tag_119\n      jump\t// in\n    tag_178:\n        /* \"#utility.yul\":4215:4222   */\n      dup1\n        /* \"#utility.yul\":4246:4247   */\n      0x00\n        /* \"#utility.yul\":4231:4585   */\n    tag_179:\n        /* \"#utility.yul\":4256:4262   */\n      dup4\n        /* \"#utility.yul\":4253:4254   */\n      dup2\n        /* \"#utility.yul\":4250:4263   */\n      lt\n        /* \"#utility.yul\":4231:4585   */\n      iszero\n      tag_181\n      jumpi\n        /* \"#utility.yul\":4332:4338   */\n      dup2\n        /* \"#utility.yul\":4326:4339   */\n      mload\n        /* \"#utility.yul\":4359:4470   */\n      tag_182\n        /* \"#utility.yul\":4466:4469   */\n      dup8\n        /* \"#utility.yul\":4451:4464   */\n      dup3\n        /* \"#utility.yul\":4359:4470   */\n      tag_123\n      jump\t// in\n    tag_182:\n        /* \"#utility.yul\":4352:4470   */\n      swap7\n      pop\n        /* \"#utility.yul\":4493:4575   */\n      tag_183\n        /* \"#utility.yul\":4568:4574   */\n      dup4\n        /* \"#utility.yul\":4493:4575   */\n      tag_124\n      jump\t// in\n    tag_183:\n        /* \"#utility.yul\":4483:4575   */\n      swap3\n      pop\n        /* \"#utility.yul\":4291:4585   */\n      pop\n        /* \"#utility.yul\":4278:4279   */\n      0x01\n        /* \"#utility.yul\":4275:4276   */\n      dup2\n        /* \"#utility.yul\":4271:4280   */\n      add\n        /* \"#utility.yul\":4266:4280   */\n      swap1\n      pop\n        /* \"#utility.yul\":4231:4585   */\n      jump(tag_179)\n    tag_181:\n        /* \"#utility.yul\":4235:4249   */\n      pop\n        /* \"#utility.yul\":3866:4592   */\n      pop\n      pop\n      pop\n        /* \"#utility.yul\":3706:4592   */\n      pop\n      pop\n      jump\t// out\n        /* \"#utility.yul\":4598:5009   */\n    tag_38:\n        /* \"#utility.yul\":4785:4789   */\n      0x00\n        /* \"#utility.yul\":4823:4826   */\n      0xc0\n        /* \"#utility.yul\":4812:4821   */\n      dup3\n        /* \"#utility.yul\":4808:4827   */\n      add\n        /* \"#utility.yul\":4800:4827   */\n      swap1\n      pop\n        /* \"#utility.yul\":4837:5002   */\n      tag_185\n        /* \"#utility.yul\":4999:5000   */\n      0x00\n        /* \"#utility.yul\":4988:4997   */\n      dup4\n        /* \"#utility.yul\":4984:5001   */\n      add\n        /* \"#utility.yul\":4975:4981   */\n      dup5\n        /* \"#utility.yul\":4837:5002   */\n      tag_125\n      jump\t// in\n    tag_185:\n        /* \"#utility.yul\":4598:5009   */\n      swap3\n      swap2\n      pop\n      pop\n      jump\t// out\n        /* \"#utility.yul\":5015:5184   */\n    tag_126:\n        /* \"#utility.yul\":5099:5110   */\n      0x00\n        /* \"#utility.yul\":5133:5139   */\n      dup3\n        /* \"#utility.yul\":5128:5131   */\n      dup3\n        /* \"#utility.yul\":5121:5140   */\n      mstore\n        /* \"#utility.yul\":5173:5177   */\n      0x20\n        /* \"#utility.yul\":5168:5171   */\n      dup3\n        /* \"#utility.yul\":5164:5178   */\n      add\n        /* \"#utility.yul\":5149:5178   */\n      swap1\n      pop\n        /* \"#utility.yul\":5015:5184   */\n      swap3\n      swap2\n      pop\n      pop\n      jump\t// out\n        /* \"#utility.yul\":5190:5350   */\n    tag_127:\n        /* \"#utility.yul\":5330:5342   */\n      0x4f6e6c79206f776e657200000000000000000000000000000000000000000000\n        /* \"#utility.yul\":5326:5327   */\n      0x00\n        /* \"#utility.yul\":5318:5324   */\n      dup3\n        /* \"#utility.yul\":5314:5328   */\n      add\n        /* \"#utility.yul\":5307:5343   */\n      mstore\n        /* \"#utility.yul\":5190:5350   */\n      pop\n      jump\t// out\n        /* \"#utility.yul\":5356:5722   */\n    tag_128:\n        /* \"#utility.yul\":5498:5501   */\n      0x00\n        /* \"#utility.yul\":5519:5586   */\n      tag_189\n        /* \"#utility.yul\":5583:5585   */\n      0x0a\n        /* \"#utility.yul\":5578:5581   */\n      dup4\n        /* \"#utility.yul\":5519:5586   */\n      tag_126\n      jump\t// in\n    tag_189:\n        /* \"#utility.yul\":5512:5586   */\n      swap2\n      pop\n        /* \"#utility.yul\":5595:5688   */\n      tag_190\n        /* \"#utility.yul\":5684:5687   */\n      dup3\n        /* \"#utility.yul\":5595:5688   */\n      tag_127\n      jump\t// in\n    tag_190:\n        /* \"#utility.yul\":5713:5715   */\n      0x20\n        /* \"#utility.yul\":5708:5711   */\n      dup3\n        /* \"#utility.yul\":5704:5716   */\n      add\n        /* \"#utility.yul\":5697:5716   */\n      swap1\n      pop\n        /* \"#utility.yul\":5356:5722   */\n      swap2\n      swap1\n      pop\n      jump\t// out\n        /* \"#utility.yul\":5728:6147   */\n    tag_48:\n        /* \"#utility.yul\":5894:5898   */\n      0x00\n        /* \"#utility.yul\":5932:5934   */\n      0x20\n        /* \"#utility.yul\":5921:5930   */\n      dup3\n        /* \"#utility.yul\":5917:5935   */\n      add\n        /* \"#utility.yul\":5909:5935   */\n      swap1\n      pop\n        /* \"#utility.yul\":5981:5990   */\n      dup2\n        /* \"#utility.yul\":5975:5979   */\n      dup2\n        /* \"#utility.yul\":5971:5991   */\n      sub\n        /* \"#utility.yul\":5967:5968   */\n      0x00\n        /* \"#utility.yul\":5956:5965   */\n      dup4\n        /* \"#utility.yul\":5952:5969   */\n      add\n        /* \"#utility.yul\":5945:5992   */\n      mstore\n        /* \"#utility.yul\":6009:6140   */\n      tag_192\n        /* \"#utility.yul\":6135:6139   */\n      dup2\n        /* \"#utility.yul\":6009:6140   */\n      tag_128\n      jump\t// in\n    tag_192:\n        /* \"#utility.yul\":6001:6140   */\n      swap1\n      pop\n        /* \"#utility.yul\":5728:6147   */\n      swap2\n      swap1\n      pop\n      jump\t// out\n        /* \"#utility.yul\":6153:6315   */\n    tag_129:\n        /* \"#utility.yul\":6293:6307   */\n      0x5a65726f2062616c616e63650000000000000000000000000000000000000000\n        /* \"#utility.yul\":6289:6290   */\n      0x00\n        /* \"#utility.yul\":6281:6287   */\n      dup3\n        /* \"#utility.yul\":6277:6291   */\n      add\n        /* \"#utility.yul\":6270:6308   */\n      mstore\n        /* \"#utility.yul\":6153:6315   */\n      pop\n      jump\t// out\n        /* \"#utility.yul\":6321:6687   */\n    tag_130:\n        /* \"#utility.yul\":6463:6466   */\n      0x00\n        /* \"#utility.yul\":6484:6551   */\n      tag_195\n        /* \"#utility.yul\":6548:6550   */\n      0x0c\n        /* \"#utility.yul\":6543:6546   */\n      dup4\n        /* \"#utility.yul\":6484:6551   */\n      tag_126\n      jump\t// in\n    tag_195:\n        /* \"#utility.yul\":6477:6551   */\n      swap2\n      pop\n        /* \"#utility.yul\":6560:6653   */\n      tag_196\n        /* \"#utility.yul\":6649:6652   */\n      dup3\n        /* \"#utility.yul\":6560:6653   */\n      tag_129\n      jump\t// in\n    tag_196:\n        /* \"#utility.yul\":6678:6680   */\n      0x20\n        /* \"#utility.yul\":6673:6676   */\n      dup3\n        /* \"#utility.yul\":6669:6681   */\n      add\n        /* \"#utility.yul\":6662:6681   */\n      swap1\n      pop\n        /* \"#utility.yul\":6321:6687   */\n      swap2\n      swap1\n      pop\n      jump\t// out\n        /* \"#utility.yul\":6693:7112   */\n    tag_52:\n        /* \"#utility.yul\":6859:6863   */\n      0x00\n        /* \"#utility.yul\":6897:6899   */\n      0x20\n        /* \"#utility.yul\":6886:6895   */\n      dup3\n        /* \"#utility.yul\":6882:6900   */\n      add\n        /* \"#utility.yul\":6874:6900   */\n      swap1\n      pop\n        /* \"#utility.yul\":6946:6955   */\n      dup2\n        /* \"#utility.yul\":6940:6944   */\n      dup2\n        /* \"#utility.yul\":6936:6956   */\n      sub\n        /* \"#utility.yul\":6932:6933   */\n      0x00\n        /* \"#utility.yul\":6921:6930   */\n      dup4\n        /* \"#utility.yul\":6917:6934   */\n      add\n        /* \"#utility.yul\":6910:6957   */\n      mstore\n        /* \"#utility.yul\":6974:7105   */\n      tag_198\n        /* \"#utility.yul\":7100:7104   */\n      dup2\n        /* \"#utility.yul\":6974:7105   */\n      tag_130\n      jump\t// in\n    tag_198:\n        /* \"#utility.yul\":6966:7105   */\n      swap1\n      pop\n        /* \"#utility.yul\":6693:7112   */\n      swap2\n      swap1\n      pop\n      jump\t// out\n        /* \"#utility.yul\":7118:7298   */\n    tag_131:\n        /* \"#utility.yul\":7166:7243   */\n      0x4e487b7100000000000000000000000000000000000000000000000000000000\n        /* \"#utility.yul\":7163:7164   */\n      0x00\n        /* \"#utility.yul\":7156:7244   */\n      mstore\n        /* \"#utility.yul\":7263:7267   */\n      0x12\n        /* \"#utility.yul\":7260:7261   */\n      0x04\n        /* \"#utility.yul\":7253:7268   */\n      mstore\n        /* \"#utility.yul\":7287:7291   */\n      0x24\n        /* \"#utility.yul\":7284:7285   */\n      0x00\n        /* \"#utility.yul\":7277:7292   */\n      revert\n        /* \"#utility.yul\":7304:7480   */\n    tag_65:\n        /* \"#utility.yul\":7336:7337   */\n      0x00\n        /* \"#utility.yul\":7353:7373   */\n      tag_201\n        /* \"#utility.yul\":7371:7372   */\n      dup3\n        /* \"#utility.yul\":7353:7373   */\n      tag_107\n      jump\t// in\n    tag_201:\n        /* \"#utility.yul\":7348:7373   */\n      swap2\n      pop\n        /* \"#utility.yul\":7387:7407   */\n      tag_202\n        /* \"#utility.yul\":7405:7406   */\n      dup4\n        /* \"#utility.yul\":7387:7407   */\n      tag_107\n      jump\t// in\n    tag_202:\n        /* \"#utility.yul\":7382:7407   */\n      swap3\n      pop\n        /* \"#utility.yul\":7426:7427   */\n      dup3\n        /* \"#utility.yul\":7416:7451   */\n      tag_203\n      jumpi\n        /* \"#utility.yul\":7431:7449   */\n      tag_204\n      tag_131\n      jump\t// in\n    tag_204:\n        /* \"#utility.yul\":7416:7451   */\n    tag_203:\n        /* \"#utility.yul\":7472:7473   */\n      dup3\n        /* \"#utility.yul\":7469:7470   */\n      dup3\n        /* \"#utility.yul\":7465:7474   */\n      mod\n        /* \"#utility.yul\":7460:7474   */\n      swap1\n      pop\n        /* \"#utility.yul\":7304:7480   */\n      swap3\n      swap2\n      pop\n      pop\n      jump\t// out\n        /* \"#utility.yul\":7486:7650   */\n    tag_132:\n        /* \"#utility.yul\":7626:7642   */\n      0x446f6e6174696f6e20636c6f7365000000000000000000000000000000000000\n        /* \"#utility.yul\":7622:7623   */\n      0x00\n        /* \"#utility.yul\":7614:7620   */\n      dup3\n        /* \"#utility.yul\":7610:7624   */\n      add\n        /* \"#utility.yul\":7603:7643   */\n      mstore\n        /* \"#utility.yul\":7486:7650   */\n      pop\n      jump\t// out\n        /* \"#utility.yul\":7656:8022   */\n    tag_133:\n        /* \"#utility.yul\":7798:7801   */\n      0x00\n        /* \"#utility.yul\":7819:7886   */\n      tag_207\n        /* \"#utility.yul\":7883:7885   */\n      0x0e\n        /* \"#utility.yul\":7878:7881   */\n      dup4\n        /* \"#utility.yul\":7819:7886   */\n      tag_126\n      jump\t// in\n    tag_207:\n        /* \"#utility.yul\":7812:7886   */\n      swap2\n      pop\n        /* \"#utility.yul\":7895:7988   */\n      tag_208\n        /* \"#utility.yul\":7984:7987   */\n      dup3\n        /* \"#utility.yul\":7895:7988   */\n      tag_132\n      jump\t// in\n    tag_208:\n        /* \"#utility.yul\":8013:8015   */\n      0x20\n        /* \"#utility.yul\":8008:8011   */\n      dup3\n        /* \"#utility.yul\":8004:8016   */\n      add\n        /* \"#utility.yul\":7997:8016   */\n      swap1\n      pop\n        /* \"#utility.yul\":7656:8022   */\n      swap2\n      swap1\n      pop\n      jump\t// out\n        /* \"#utility.yul\":8028:8447   */\n    tag_68:\n        /* \"#utility.yul\":8194:8198   */\n      0x00\n        /* \"#utility.yul\":8232:8234   */\n      0x20\n        /* \"#utility.yul\":8221:8230   */\n      dup3\n        /* \"#utility.yul\":8217:8235   */\n      add\n        /* \"#utility.yul\":8209:8235   */\n      swap1\n      pop\n        /* \"#utility.yul\":8281:8290   */\n      dup2\n        /* \"#utility.yul\":8275:8279   */\n      dup2\n        /* \"#utility.yul\":8271:8291   */\n      sub\n        /* \"#utility.yul\":8267:8268   */\n      0x00\n        /* \"#utility.yul\":8256:8265   */\n      dup4\n        /* \"#utility.yul\":8252:8269   */\n      add\n        /* \"#utility.yul\":8245:8292   */\n      mstore\n        /* \"#utility.yul\":8309:8440   */\n      tag_210\n        /* \"#utility.yul\":8435:8439   */\n      dup2\n        /* \"#utility.yul\":8309:8440   */\n      tag_133\n      jump\t// in\n    tag_210:\n        /* \"#utility.yul\":8301:8440   */\n      swap1\n      pop\n        /* \"#utility.yul\":8028:8447   */\n      swap2\n      swap1\n      pop\n      jump\t// out\n        /* \"#utility.yul\":8453:8623   */\n    tag_134:\n        /* \"#utility.yul\":8593:8615   */\n      0x446f6e6174696f6e206d757374206265203e2030000000000000000000000000\n        /* \"#utility.yul\":8589:8590   */\n      0x00\n        /* \"#utility.yul\":8581:8587   */\n      dup3\n        /* \"#utility.yul\":8577:8591   */\n      add\n        /* \"#utility.yul\":8570:8616   */\n      mstore\n        /* \"#utility.yul\":8453:8623   */\n      pop\n      jump\t// out\n        /* \"#utility.yul\":8629:8995   */\n    tag_135:\n        /* \"#utility.yul\":8771:8774   */\n      0x00\n        /* \"#utility.yul\":8792:8859   */\n      tag_213\n        /* \"#utility.yul\":8856:8858   */\n      0x14\n        /* \"#utility.yul\":8851:8854   */\n      dup4\n        /* \"#utility.yul\":8792:8859   */\n      tag_126\n      jump\t// in\n    tag_213:\n        /* \"#utility.yul\":8785:8859   */\n      swap2\n      pop\n        /* \"#utility.yul\":8868:8961   */\n      tag_214\n        /* \"#utility.yul\":8957:8960   */\n      dup3\n        /* \"#utility.yul\":8868:8961   */\n      tag_134\n      jump\t// in\n    tag_214:\n        /* \"#utility.yul\":8986:8988   */\n      0x20\n        /* \"#utility.yul\":8981:8984   */\n      dup3\n        /* \"#utility.yul\":8977:8989   */\n      add\n        /* \"#utility.yul\":8970:8989   */\n      swap1\n      pop\n        /* \"#utility.yul\":8629:8995   */\n      swap2\n      swap1\n      pop\n      jump\t// out\n        /* \"#utility.yul\":9001:9420   */\n    tag_72:\n        /* \"#utility.yul\":9167:9171   */\n      0x00\n        /* \"#utility.yul\":9205:9207   */\n      0x20\n        /* \"#utility.yul\":9194:9203   */\n      dup3\n        /* \"#utility.yul\":9190:9208   */\n      add\n        /* \"#utility.yul\":9182:9208   */\n      swap1\n      pop\n        /* \"#utility.yul\":9254:9263   */\n      dup2\n        /* \"#utility.yul\":9248:9252   */\n      dup2\n        /* \"#utility.yul\":9244:9264   */\n      sub\n        /* \"#utility.yul\":9240:9241   */\n      0x00\n        /* \"#utility.yul\":9229:9238   */\n      dup4\n        /* \"#utility.yul\":9225:9242   */\n      add\n        /* \"#utility.yul\":9218:9265   */\n      mstore\n        /* \"#utility.yul\":9282:9413   */\n      tag_216\n        /* \"#utility.yul\":9408:9412   */\n      dup2\n        /* \"#utility.yul\":9282:9413   */\n      tag_135\n      jump\t// in\n    tag_216:\n        /* \"#utility.yul\":9274:9413   */\n      swap1\n      pop\n        /* \"#utility.yul\":9001:9420   */\n      swap2\n      swap1\n      pop\n      jump\t// out\n        /* \"#utility.yul\":9426:9606   */\n    tag_136:\n        /* \"#utility.yul\":9474:9551   */\n      0x4e487b7100000000000000000000000000000000000000000000000000000000\n        /* \"#utility.yul\":9471:9472   */\n      0x00\n        /* \"#utility.yul\":9464:9552   */\n      mstore\n        /* \"#utility.yul\":9571:9575   */\n      0x11\n        /* \"#utility.yul\":9568:9569   */\n      0x04\n        /* \"#utility.yul\":9561:9576   */\n      mstore\n        /* \"#utility.yul\":9595:9599   */\n      0x24\n        /* \"#utility.yul\":9592:9593   */\n      0x00\n        /* \"#utility.yul\":9585:9600   */\n      revert\n        /* \"#utility.yul\":9612:9803   */\n    tag_74:\n        /* \"#utility.yul\":9652:9655   */\n      0x00\n        /* \"#utility.yul\":9671:9691   */\n      tag_219\n        /* \"#utility.yul\":9689:9690   */\n      dup3\n        /* \"#utility.yul\":9671:9691   */\n      tag_107\n      jump\t// in\n    tag_219:\n        /* \"#utility.yul\":9666:9691   */\n      swap2\n      pop\n        /* \"#utility.yul\":9705:9725   */\n      tag_220\n        /* \"#utility.yul\":9723:9724   */\n      dup4\n        /* \"#utility.yul\":9705:9725   */\n      tag_107\n      jump\t// in\n    tag_220:\n        /* \"#utility.yul\":9700:9725   */\n      swap3\n      pop\n        /* \"#utility.yul\":9748:9749   */\n      dup3\n        /* \"#utility.yul\":9745:9746   */\n      dup3\n        /* \"#utility.yul\":9741:9750   */\n      add\n        /* \"#utility.yul\":9734:9750   */\n      swap1\n      pop\n        /* \"#utility.yul\":9769:9772   */\n      dup1\n        /* \"#utility.yul\":9766:9767   */\n      dup3\n        /* \"#utility.yul\":9763:9773   */\n      gt\n        /* \"#utility.yul\":9760:9796   */\n      iszero\n      tag_221\n      jumpi\n        /* \"#utility.yul\":9776:9794   */\n      tag_222\n      tag_136\n      jump\t// in\n    tag_222:\n        /* \"#utility.yul\":9760:9796   */\n    tag_221:\n        /* \"#utility.yul\":9612:9803   */\n      swap3\n      swap2\n      pop\n      pop\n      jump\t// out\n        /* \"#utility.yul\":9809:9989   */\n    tag_85:\n        /* \"#utility.yul\":9857:9934   */\n      0x4e487b7100000000000000000000000000000000000000000000000000000000\n        /* \"#utility.yul\":9854:9855   */\n      0x00\n        /* \"#utility.yul\":9847:9935   */\n      mstore\n        /* \"#utility.yul\":9954:9958   */\n      0x32\n        /* \"#utility.yul\":9951:9952   */\n      0x04\n        /* \"#utility.yul\":9944:9959   */\n      mstore\n        /* \"#utility.yul\":9978:9982   */\n      0x24\n        /* \"#utility.yul\":9975:9976   */\n      0x00\n        /* \"#utility.yul\":9968:9983   */\n      revert\n        /* \"#utility.yul\":9995:10189   */\n    tag_92:\n        /* \"#utility.yul\":10035:10039   */\n      0x00\n        /* \"#utility.yul\":10055:10075   */\n      tag_225\n        /* \"#utility.yul\":10073:10074   */\n      dup3\n        /* \"#utility.yul\":10055:10075   */\n      tag_107\n      jump\t// in\n    tag_225:\n        /* \"#utility.yul\":10050:10075   */\n      swap2\n      pop\n        /* \"#utility.yul\":10089:10109   */\n      tag_226\n        /* \"#utility.yul\":10107:10108   */\n      dup4\n        /* \"#utility.yul\":10089:10109   */\n      tag_107\n      jump\t// in\n    tag_226:\n        /* \"#utility.yul\":10084:10109   */\n      swap3\n      pop\n        /* \"#utility.yul\":10133:10134   */\n      dup3\n        /* \"#utility.yul\":10130:10131   */\n      dup3\n        /* \"#utility.yul\":10126:10135   */\n      sub\n        /* \"#utility.yul\":10118:10135   */\n      swap1\n      pop\n        /* \"#utility.yul\":10157:10158   */\n      dup2\n        /* \"#utility.yul\":10151:10155   */\n      dup2\n        /* \"#utility.yul\":10148:10159   */\n      gt\n        /* \"#utility.yul\":10145:10182   */\n      iszero\n      tag_227\n      jumpi\n        /* \"#utility.yul\":10162:10180   */\n      tag_228\n      tag_136\n      jump\t// in\n    tag_228:\n        /* \"#utility.yul\":10145:10182   */\n    tag_227:\n        /* \"#utility.yul\":9995:10189   */\n      swap3\n      swap2\n      pop\n      pop\n      jump\t// out\n        /* \"#utility.yul\":10195:10366   */\n    tag_100:\n        /* \"#utility.yul\":10234:10237   */\n      0x00\n        /* \"#utility.yul\":10257:10281   */\n      tag_230\n        /* \"#utility.yul\":10275:10280   */\n      dup3\n        /* \"#utility.yul\":10257:10281   */\n      tag_107\n      jump\t// in\n    tag_230:\n        /* \"#utility.yul\":10248:10281   */\n      swap2\n      pop\n        /* \"#utility.yul\":10303:10307   */\n      0x00\n        /* \"#utility.yul\":10296:10301   */\n      dup3\n        /* \"#utility.yul\":10293:10308   */\n      sub\n        /* \"#utility.yul\":10290:10331   */\n      tag_231\n      jumpi\n        /* \"#utility.yul\":10311:10329   */\n      tag_232\n      tag_136\n      jump\t// in\n    tag_232:\n        /* \"#utility.yul\":10290:10331   */\n    tag_231:\n        /* \"#utility.yul\":10358:10359   */\n      0x01\n        /* \"#utility.yul\":10351:10356   */\n      dup3\n        /* \"#utility.yul\":10347:10360   */\n      sub\n        /* \"#utility.yul\":10340:10360   */\n      swap1\n      pop\n        /* \"#utility.yul\":10195:10366   */\n      swap2\n      swap1\n      pop\n      jump\t// out\n\n    auxdata: 0xa2646970667358221220f2004094d3e70631acf3217522d25f2ced06f4404c6088cb7395a41ac1a3201964736f6c634300081e0033\n}\n",
				"bytecode": {
					"linkReferences": {},
					"object": "6080604052348015600e575f5ffd5b503360015f6101000a81548173ffffffffffffffffffffffffffffffffffffffff021916908373ffffffffffffffffffffffffffffffffffffffff16021790555061546060038190555062015180600481905550610ce68061006f5f395ff3fe60806040526004361061007a575f3560e01c80638da5cb5b1161004d5780638da5cb5b14610124578063d6387ed81461014e578063ed88c68e14610178578063ee2ac05f146101825761007a565b80632ca126f81461007e5780633ccfd60b146100a8578063410a1d32146100be5780638da58897146100fa575b5f5ffd5b348015610089575f5ffd5b506100926101ac565b60405161009f91906107f8565b60405180910390f35b3480156100b3575f5ffd5b506100bc6101b2565b005b3480156100c9575f5ffd5b506100e460048036038101906100df919061086f565b61035e565b6040516100f191906107f8565b60405180910390f35b348015610105575f5ffd5b5061010e6103a3565b60405161011b91906107f8565b60405180910390f35b34801561012f575f5ffd5b506101386103a9565b60405161014591906108a9565b60405180910390f35b348015610159575f5ffd5b506101626103ce565b60405161016f91906109a3565b60405180910390f35b61018061047d565b005b34801561018d575f5ffd5b506101966105d5565b6040516101a391906107f8565b60405180910390f35b60045481565b3373ffffffffffffffffffffffffffffffffffffffff1660015f9054906101000a900473ffffffffffffffffffffffffffffffffffffffff1673ffffffffffffffffffffffffffffffffffffffff1614610241576040517f08c379a000000000000000000000000000000000000000000000000000000000815260040161023890610a16565b60405180910390fd5b5f4790505f8111610287576040517f08c379a000000000000000000000000000000000000000000000000000000000815260040161027e90610a7e565b60405180910390fd5b60015f9054906101000a900473ffffffffffffffffffffffffffffffffffffffff1673ffffffffffffffffffffffffffffffffffffffff166108fc8290811502906040515f60405180830381858888f193505050501580156102eb573d5f5f3e3d5ffd5b5060015f9054906101000a900473ffffffffffffffffffffffffffffffffffffffff1673ffffffffffffffffffffffffffffffffffffffff167f884edad9ce6fa2440d8a54cc123490eb96d2768479d49ff9c7366125a94243648260405161035391906107f8565b60405180910390a250565b5f5f5f8373ffffffffffffffffffffffffffffffffffffffff1673ffffffffffffffffffffffffffffffffffffffff1681526020019081526020015f20549050919050565b60035481565b60015f9054906101000a900473ffffffffffffffffffffffffffffffffffffffff1681565b6103d6610785565b6005600380602002604051908101604052809291905f905b82821015610474578382600202016040518060400160405290815f82015f9054906101000a900473ffffffffffffffffffffffffffffffffffffffff1673ffffffffffffffffffffffffffffffffffffffff1673ffffffffffffffffffffffffffffffffffffffff168152602001600182015481525050815260200190600101906103ee565b50505050905090565b6003546004544261048e9190610ac9565b10156104cf576040517f08c379a00000000000000000000000000000000000000000000000000000000081526004016104c690610b43565b60405180910390fd5b5f3411610511576040517f08c379a000000000000000000000000000000000000000000000000000000000815260040161050890610bab565b60405180910390fd5b345f5f3373ffffffffffffffffffffffffffffffffffffffff1673ffffffffffffffffffffffffffffffffffffffff1681526020019081526020015f205f82825461055c9190610bf6565b925050819055503460025f8282546105749190610bf6565b9250508190555061058533346105db565b3373ffffffffffffffffffffffffffffffffffffffff167f5d8bc849764969eb1bcc6d0a2f55999d0167c1ccec240a4f39cf664ca9c4148e346040516105cb91906107f8565b60405180910390a2565b60025481565b5f5f90505b600381101561078057600581600381106105fd576105fc610c29565b5b6002020160010154821115610773575f600290505b818111156106d95760056001826106299190610c56565b6003811061063a57610639610c29565b5b600202016005826003811061065257610651610c29565b5b600202015f82015f9054906101000a900473ffffffffffffffffffffffffffffffffffffffff16815f015f6101000a81548173ffffffffffffffffffffffffffffffffffffffff021916908373ffffffffffffffffffffffffffffffffffffffff1602179055506001820154816001015590505080806106d190610c89565b915050610612565b5060405180604001604052808473ffffffffffffffffffffffffffffffffffffffff168152602001838152506005826003811061071957610718610c29565b5b600202015f820151815f015f6101000a81548173ffffffffffffffffffffffffffffffffffffffff021916908373ffffffffffffffffffffffffffffffffffffffff16021790555060208201518160010155905050610780565b80806001019150506105e0565b505050565b60405180606001604052806003905b61079c6107b2565b8152602001906001900390816107945790505090565b60405180604001604052805f73ffffffffffffffffffffffffffffffffffffffff1681526020015f81525090565b5f819050919050565b6107f2816107e0565b82525050565b5f60208201905061080b5f8301846107e9565b92915050565b5f5ffd5b5f73ffffffffffffffffffffffffffffffffffffffff82169050919050565b5f61083e82610815565b9050919050565b61084e81610834565b8114610858575f5ffd5b50565b5f8135905061086981610845565b92915050565b5f6020828403121561088457610883610811565b5b5f6108918482850161085b565b91505092915050565b6108a381610834565b82525050565b5f6020820190506108bc5f83018461089a565b92915050565b5f60039050919050565b5f81905092915050565b5f819050919050565b6108e881610834565b82525050565b6108f7816107e0565b82525050565b604082015f8201516109115f8501826108df565b50602082015161092460208501826108ee565b50505050565b5f61093583836108fd565b60408301905092915050565b5f602082019050919050565b610956816108c2565b61096081846108cc565b925061096b826108d6565b805f5b8381101561099b578151610982878261092a565b965061098d83610941565b92505060018101905061096e565b505050505050565b5f60c0820190506109b65f83018461094d565b92915050565b5f82825260208201905092915050565b7f4f6e6c79206f776e6572000000000000000000000000000000000000000000005f82015250565b5f610a00600a836109bc565b9150610a0b826109cc565b602082019050919050565b5f6020820190508181035f830152610a2d816109f4565b9050919050565b7f5a65726f2062616c616e636500000000000000000000000000000000000000005f82015250565b5f610a68600c836109bc565b9150610a7382610a34565b602082019050919050565b5f6020820190508181035f830152610a9581610a5c565b9050919050565b7f4e487b71000000000000000000000000000000000000000000000000000000005f52601260045260245ffd5b5f610ad3826107e0565b9150610ade836107e0565b925082610aee57610aed610a9c565b5b828206905092915050565b7f446f6e6174696f6e20636c6f73650000000000000000000000000000000000005f82015250565b5f610b2d600e836109bc565b9150610b3882610af9565b602082019050919050565b5f6020820190508181035f830152610b5a81610b21565b9050919050565b7f446f6e6174696f6e206d757374206265203e20300000000000000000000000005f82015250565b5f610b956014836109bc565b9150610ba082610b61565b602082019050919050565b5f6020820190508181035f830152610bc281610b89565b9050919050565b7f4e487b71000000000000000000000000000000000000000000000000000000005f52601160045260245ffd5b5f610c00826107e0565b9150610c0b836107e0565b9250828201905080821115610c2357610c22610bc9565b5b92915050565b7f4e487b71000000000000000000000000000000000000000000000000000000005f52603260045260245ffd5b5f610c60826107e0565b9150610c6b836107e0565b9250828203905081811115610c8357610c82610bc9565b5b92915050565b5f610c93826107e0565b91505f8203610ca557610ca4610bc9565b5b60018203905091905056fea2646970667358221220f2004094d3e70631acf3217522d25f2ced06f4404c6088cb7395a41ac1a3201964736f6c634300081e0033",
					"opcodes": "PUSH1 0x80 PUSH1 0x40 MSTORE CALLVALUE DUP1 ISZERO PUSH1 0xE JUMPI PUSH0 PUSH0 REVERT JUMPDEST POP CALLER PUSH1 0x1 PUSH0 PUSH2 0x100 EXP DUP2 SLOAD DUP2 PUSH20 0xFFFFFFFFFFFFFFFFFFFFFFFFFFFFFFFFFFFFFFFF MUL NOT AND SWAP1 DUP4 PUSH20 0xFFFFFFFFFFFFFFFFFFFFFFFFFFFFFFFFFFFFFFFF AND MUL OR SWAP1 SSTORE POP PUSH2 0x5460 PUSH1 0x3 DUP2 SWAP1 SSTORE POP PUSH3 0x15180 PUSH1 0x4 DUP2 SWAP1 SSTORE POP PUSH2 0xCE6 DUP1 PUSH2 0x6F PUSH0 CODECOPY PUSH0 RETURN INVALID PUSH1 0x80 PUSH1 0x40 MSTORE PUSH1 0x4 CALLDATASIZE LT PUSH2 0x7A JUMPI PUSH0 CALLDATALOAD PUSH1 0xE0 SHR DUP1 PUSH4 0x8DA5CB5B GT PUSH2 0x4D JUMPI DUP1 PUSH4 0x8DA5CB5B EQ PUSH2 0x124 JUMPI DUP1 PUSH4 0xD6387ED8 EQ PUSH2 0x14E JUMPI DUP1 PUSH4 0xED88C68E EQ PUSH2 0x178 JUMPI DUP1 PUSH4 0xEE2AC05F EQ PUSH2 0x182 JUMPI PUSH2 0x7A JUMP JUMPDEST DUP1 PUSH4 0x2CA126F8 EQ PUSH2 0x7E JUMPI DUP1 PUSH4 0x3CCFD60B EQ PUSH2 0xA8 JUMPI DUP1 PUSH4 0x410A1D32 EQ PUSH2 0xBE JUMPI DUP1 PUSH4 0x8DA58897 EQ PUSH2 0xFA JUMPI JUMPDEST PUSH0 PUSH0 REVERT JUMPDEST CALLVALUE DUP1 ISZERO PUSH2 0x89 JUMPI PUSH0 PUSH0 REVERT JUMPDEST POP PUSH2 0x92 PUSH2 0x1AC JUMP JUMPDEST PUSH1 0x40 MLOAD PUSH2 0x9F SWAP2 SWAP1 PUSH2 0x7F8 JUMP JUMPDEST PUSH1 0x40 MLOAD DUP1 SWAP2 SUB SWAP1 RETURN JUMPDEST CALLVALUE DUP1 ISZERO PUSH2 0xB3 JUMPI PUSH0 PUSH0 REVERT JUMPDEST POP PUSH2 0xBC PUSH2 0x1B2 JUMP JUMPDEST STOP JUMPDEST CALLVALUE DUP1 ISZERO PUSH2 0xC9 JUMPI PUSH0 PUSH0 REVERT JUMPDEST POP PUSH2 0xE4 PUSH1 0x4 DUP1 CALLDATASIZE SUB DUP2 ADD SWAP1 PUSH2 0xDF SWAP2 SWAP1 PUSH2 0x86F JUMP JUMPDEST PUSH2 0x35E JUMP JUMPDEST PUSH1 0x40 MLOAD PUSH2 0xF1 SWAP2 SWAP1 PUSH2 0x7F8 JUMP JUMPDEST PUSH1 0x40 MLOAD DUP1 SWAP2 SUB SWAP1 RETURN JUMPDEST CALLVALUE DUP1 ISZERO PUSH2 0x105 JUMPI PUSH0 PUSH0 REVERT JUMPDEST POP PUSH2 0x10E PUSH2 0x3A3 JUMP JUMPDEST PUSH1 0x40 MLOAD PUSH2 0x11B SWAP2 SWAP1 PUSH2 0x7F8 JUMP JUMPDEST PUSH1 0x40 MLOAD DUP1 SWAP2 SUB SWAP1 RETURN JUMPDEST CALLVALUE DUP1 ISZERO PUSH2 0x12F JUMPI PUSH0 PUSH0 REVERT JUMPDEST POP PUSH2 0x138 PUSH2 0x3A9 JUMP JUMPDEST PUSH1 0x40 MLOAD PUSH2 0x145 SWAP2 SWAP1 PUSH2 0x8A9 JUMP JUMPDEST PUSH1 0x40 MLOAD DUP1 SWAP2 SUB SWAP1 RETURN JUMPDEST CALLVALUE DUP1 ISZERO PUSH2 0x159 JUMPI PUSH0 PUSH0 REVERT JUMPDEST POP PUSH2 0x162 PUSH2 0x3CE JUMP JUMPDEST PUSH1 0x40 MLOAD PUSH2 0x16F SWAP2 SWAP1 PUSH2 0x9A3 JUMP JUMPDEST PUSH1 0x40 MLOAD DUP1 SWAP2 SUB SWAP1 RETURN JUMPDEST PUSH2 0x180 PUSH2 0x47D JUMP JUMPDEST STOP JUMPDEST CALLVALUE DUP1 ISZERO PUSH2 0x18D JUMPI PUSH0 PUSH0 REVERT JUMPDEST POP PUSH2 0x196 PUSH2 0x5D5 JUMP JUMPDEST PUSH1 0x40 MLOAD PUSH2 0x1A3 SWAP2 SWAP1 PUSH2 0x7F8 JUMP JUMPDEST PUSH1 0x40 MLOAD DUP1 SWAP2 SUB SWAP1 RETURN JUMPDEST PUSH1 0x4 SLOAD DUP2 JUMP JUMPDEST CALLER PUSH20 0xFFFFFFFFFFFFFFFFFFFFFFFFFFFFFFFFFFFFFFFF AND PUSH1 0x1 PUSH0 SWAP1 SLOAD SWAP1 PUSH2 0x100 EXP SWAP1 DIV PUSH20 0xFFFFFFFFFFFFFFFFFFFFFFFFFFFFFFFFFFFFFFFF AND PUSH20 0xFFFFFFFFFFFFFFFFFFFFFFFFFFFFFFFFFFFFFFFF AND EQ PUSH2 0x241 JUMPI PUSH1 0x40 MLOAD PUSH32 0x8C379A000000000000000000000000000000000000000000000000000000000 DUP2 MSTORE PUSH1 0x4 ADD PUSH2 0x238 SWAP1 PUSH2 0xA16 JUMP JUMPDEST PUSH1 0x40 MLOAD DUP1 SWAP2 SUB SWAP1 REVERT JUMPDEST PUSH0 SELFBALANCE SWAP1 POP PUSH0 DUP2 GT PUSH2 0x287 JUMPI PUSH1 0x40 MLOAD PUSH32 0x8C379A000000000000000000000000000000000000000000000000000000000 DUP2 MSTORE PUSH1 0x4 ADD PUSH2 0x27E SWAP1 PUSH2 0xA7E JUMP JUMPDEST PUSH1 0x40 MLOAD DUP1 SWAP2 SUB SWAP1 REVERT JUMPDEST PUSH1 0x1 PUSH0 SWAP1 SLOAD SWAP1 PUSH2 0x100 EXP SWAP1 DIV PUSH20 0xFFFFFFFFFFFFFFFFFFFFFFFFFFFFFFFFFFFFFFFF AND PUSH20 0xFFFFFFFFFFFFFFFFFFFFFFFFFFFFFFFFFFFFFFFF AND PUSH2 0x8FC DUP3 SWAP1 DUP2 ISZERO MUL SWAP1 PUSH1 0x40 MLOAD PUSH0 PUSH1 0x40 MLOAD DUP1 DUP4 SUB DUP2 DUP6 DUP9 DUP9 CALL SWAP4 POP POP POP POP ISZERO DUP1 ISZERO PUSH2 0x2EB JUMPI RETURNDATASIZE PUSH0 PUSH0 RETURNDATACOPY RETURNDATASIZE PUSH0 REVERT JUMPDEST POP PUSH1 0x1 PUSH0 SWAP1 SLOAD SWAP1 PUSH2 0x100 EXP SWAP1 DIV PUSH20 0xFFFFFFFFFFFFFFFFFFFFFFFFFFFFFFFFFFFFFFFF AND PUSH20 0xFFFFFFFFFFFFFFFFFFFFFFFFFFFFFFFFFFFFFFFF AND PUSH32 0x884EDAD9CE6FA2440D8A54CC123490EB96D2768479D49FF9C7366125A9424364 DUP3 PUSH1 0x40 MLOAD PUSH2 0x353 SWAP2 SWAP1 PUSH2 0x7F8 JUMP JUMPDEST PUSH1 0x40 MLOAD DUP1 SWAP2 SUB SWAP1 LOG2 POP JUMP JUMPDEST PUSH0 PUSH0 PUSH0 DUP4 PUSH20 0xFFFFFFFFFFFFFFFFFFFFFFFFFFFFFFFFFFFFFFFF AND PUSH20 0xFFFFFFFFFFFFFFFFFFFFFFFFFFFFFFFFFFFFFFFF AND DUP2 MSTORE PUSH1 0x20 ADD SWAP1 DUP2 MSTORE PUSH1 0x20 ADD PUSH0 KECCAK256 SLOAD SWAP1 POP SWAP2 SWAP1 POP JUMP JUMPDEST PUSH1 0x3 SLOAD DUP2 JUMP JUMPDEST PUSH1 0x1 PUSH0 SWAP1 SLOAD SWAP1 PUSH2 0x100 EXP SWAP1 DIV PUSH20 0xFFFFFFFFFFFFFFFFFFFFFFFFFFFFFFFFFFFFFFFF AND DUP2 JUMP JUMPDEST PUSH2 0x3D6 PUSH2 0x785 JUMP JUMPDEST PUSH1 0x5 PUSH1 0x3 DUP1 PUSH1 0x20 MUL PUSH1 0x40 MLOAD SWAP1 DUP2 ADD PUSH1 0x40 MSTORE DUP1 SWAP3 SWAP2 SWAP1 PUSH0 SWAP1 JUMPDEST DUP3 DUP3 LT ISZERO PUSH2 0x474 JUMPI DUP4 DUP3 PUSH1 0x2 MUL ADD PUSH1 0x40 MLOAD DUP1 PUSH1 0x40 ADD PUSH1 0x40 MSTORE SWAP1 DUP2 PUSH0 DUP3 ADD PUSH0 SWAP1 SLOAD SWAP1 PUSH2 0x100 EXP SWAP1 DIV PUSH20 0xFFFFFFFFFFFFFFFFFFFFFFFFFFFFFFFFFFFFFFFF AND PUSH20 0xFFFFFFFFFFFFFFFFFFFFFFFFFFFFFFFFFFFFFFFF AND PUSH20 0xFFFFFFFFFFFFFFFFFFFFFFFFFFFFFFFFFFFFFFFF AND DUP2 MSTORE PUSH1 0x20 ADD PUSH1 0x1 DUP3 ADD SLOAD DUP2 MSTORE POP POP DUP2 MSTORE PUSH1 0x20 ADD SWAP1 PUSH1 0x1 ADD SWAP1 PUSH2 0x3EE JUMP JUMPDEST POP POP POP POP SWAP1 POP SWAP1 JUMP JUMPDEST PUSH1 0x3 SLOAD PUSH1 0x4 SLOAD TIMESTAMP PUSH2 0x48E SWAP2 SWAP1 PUSH2 0xAC9 JUMP JUMPDEST LT ISZERO PUSH2 0x4CF JUMPI PUSH1 0x40 MLOAD PUSH32 0x8C379A000000000000000000000000000000000000000000000000000000000 DUP2 MSTORE PUSH1 0x4 ADD PUSH2 0x4C6 SWAP1 PUSH2 0xB43 JUMP JUMPDEST PUSH1 0x40 MLOAD DUP1 SWAP2 SUB SWAP1 REVERT JUMPDEST PUSH0 CALLVALUE GT PUSH2 0x511 JUMPI PUSH1 0x40 MLOAD PUSH32 0x8C379A000000000000000000000000000000000000000000000000000000000 DUP2 MSTORE PUSH1 0x4 ADD PUSH2 0x508 SWAP1 PUSH2 0xBAB JUMP JUMPDEST PUSH1 0x40 MLOAD DUP1 SWAP2 SUB SWAP1 REVERT JUMPDEST CALLVALUE PUSH0 PUSH0 CALLER PUSH20 0xFFFFFFFFFFFFFFFFFFFFFFFFFFFFFFFFFFFFFFFF AND PUSH20 0xFFFFFFFFFFFFFFFFFFFFFFFFFFFFFFFFFFFFFFFF AND DUP2 MSTORE PUSH1 0x20 ADD SWAP1 DUP2 MSTORE PUSH1 0x20 ADD PUSH0 KECCAK256 PUSH0 DUP3 DUP3 SLOAD PUSH2 0x55C SWAP2 SWAP1 PUSH2 0xBF6 JUMP JUMPDEST SWAP3 POP POP DUP2 SWAP1 SSTORE POP CALLVALUE PUSH1 0x2 PUSH0 DUP3 DUP3 SLOAD PUSH2 0x574 SWAP2 SWAP1 PUSH2 0xBF6 JUMP JUMPDEST SWAP3 POP POP DUP2 SWAP1 SSTORE POP PUSH2 0x585 CALLER CALLVALUE PUSH2 0x5DB JUMP JUMPDEST CALLER PUSH20 0xFFFFFFFFFFFFFFFFFFFFFFFFFFFFFFFFFFFFFFFF AND PUSH32 0x5D8BC849764969EB1BCC6D0A2F55999D0167C1CCEC240A4F39CF664CA9C4148E CALLVALUE PUSH1 0x40 MLOAD PUSH2 0x5CB SWAP2 SWAP1 PUSH2 0x7F8 JUMP JUMPDEST PUSH1 0x40 MLOAD DUP1 SWAP2 SUB SWAP1 LOG2 JUMP JUMPDEST PUSH1 0x2 SLOAD DUP2 JUMP JUMPDEST PUSH0 PUSH0 SWAP1 POP JUMPDEST PUSH1 0x3 DUP2 LT ISZERO PUSH2 0x780 JUMPI PUSH1 0x5 DUP2 PUSH1 0x3 DUP2 LT PUSH2 0x5FD JUMPI PUSH2 0x5FC PUSH2 0xC29 JUMP JUMPDEST JUMPDEST PUSH1 0x2 MUL ADD PUSH1 0x1 ADD SLOAD DUP3 GT ISZERO PUSH2 0x773 JUMPI PUSH0 PUSH1 0x2 SWAP1 POP JUMPDEST DUP2 DUP2 GT ISZERO PUSH2 0x6D9 JUMPI PUSH1 0x5 PUSH1 0x1 DUP3 PUSH2 0x629 SWAP2 SWAP1 PUSH2 0xC56 JUMP JUMPDEST PUSH1 0x3 DUP2 LT PUSH2 0x63A JUMPI PUSH2 0x639 PUSH2 0xC29 JUMP JUMPDEST JUMPDEST PUSH1 0x2 MUL ADD PUSH1 0x5 DUP3 PUSH1 0x3 DUP2 LT PUSH2 0x652 JUMPI PUSH2 0x651 PUSH2 0xC29 JUMP JUMPDEST JUMPDEST PUSH1 0x2 MUL ADD PUSH0 DUP3 ADD PUSH0 SWAP1 SLOAD SWAP1 PUSH2 0x100 EXP SWAP1 DIV PUSH20 0xFFFFFFFFFFFFFFFFFFFFFFFFFFFFFFFFFFFFFFFF AND DUP2 PUSH0 ADD PUSH0 PUSH2 0x100 EXP DUP2 SLOAD DUP2 PUSH20 0xFFFFFFFFFFFFFFFFFFFFFFFFFFFFFFFFFFFFFFFF MUL NOT AND SWAP1 DUP4 PUSH20 0xFFFFFFFFFFFFFFFFFFFFFFFFFFFFFFFFFFFFFFFF AND MUL OR SWAP1 SSTORE POP PUSH1 0x1 DUP3 ADD SLOAD DUP2 PUSH1 0x1 ADD SSTORE SWAP1 POP POP DUP1 DUP1 PUSH2 0x6D1 SWAP1 PUSH2 0xC89 JUMP JUMPDEST SWAP2 POP POP PUSH2 0x612 JUMP JUMPDEST POP PUSH1 0x40 MLOAD DUP1 PUSH1 0x40 ADD PUSH1 0x40 MSTORE DUP1 DUP5 PUSH20 0xFFFFFFFFFFFFFFFFFFFFFFFFFFFFFFFFFFFFFFFF AND DUP2 MSTORE PUSH1 0x20 ADD DUP4 DUP2 MSTORE POP PUSH1 0x5 DUP3 PUSH1 0x3 DUP2 LT PUSH2 0x719 JUMPI PUSH2 0x718 PUSH2 0xC29 JUMP JUMPDEST JUMPDEST PUSH1 0x2 MUL ADD PUSH0 DUP3 ADD MLOAD DUP2 PUSH0 ADD PUSH0 PUSH2 0x100 EXP DUP2 SLOAD DUP2 PUSH20 0xFFFFFFFFFFFFFFFFFFFFFFFFFFFFFFFFFFFFFFFF MUL NOT AND SWAP1 DUP4 PUSH20 0xFFFFFFFFFFFFFFFFFFFFFFFFFFFFFFFFFFFFFFFF AND MUL OR SWAP1 SSTORE POP PUSH1 0x20 DUP3 ADD MLOAD DUP2 PUSH1 0x1 ADD SSTORE SWAP1 POP POP PUSH2 0x780 JUMP JUMPDEST DUP1 DUP1 PUSH1 0x1 ADD SWAP2 POP POP PUSH2 0x5E0 JUMP JUMPDEST POP POP POP JUMP JUMPDEST PUSH1 0x40 MLOAD DUP1 PUSH1 0x60 ADD PUSH1 0x40 MSTORE DUP1 PUSH1 0x3 SWAP1 JUMPDEST PUSH2 0x79C PUSH2 0x7B2 JUMP JUMPDEST DUP2 MSTORE PUSH1 0x20 ADD SWAP1 PUSH1 0x1 SWAP1 SUB SWAP1 DUP2 PUSH2 0x794 JUMPI SWAP1 POP POP SWAP1 JUMP JUMPDEST PUSH1 0x40 MLOAD DUP1 PUSH1 0x40 ADD PUSH1 0x40 MSTORE DUP1 PUSH0 PUSH20 0xFFFFFFFFFFFFFFFFFFFFFFFFFFFFFFFFFFFFFFFF AND DUP2 MSTORE PUSH1 0x20 ADD PUSH0 DUP2 MSTORE POP SWAP1 JUMP JUMPDEST PUSH0 DUP2 SWAP1 POP SWAP2 SWAP1 POP JUMP JUMPDEST PUSH2 0x7F2 DUP2 PUSH2 0x7E0 JUMP JUMPDEST DUP3 MSTORE POP POP JUMP JUMPDEST PUSH0 PUSH1 0x20 DUP3 ADD SWAP1 POP PUSH2 0x80B PUSH0 DUP4 ADD DUP5 PUSH2 0x7E9 JUMP JUMPDEST SWAP3 SWAP2 POP POP JUMP JUMPDEST PUSH0 PUSH0 REVERT JUMPDEST PUSH0 PUSH20 0xFFFFFFFFFFFFFFFFFFFFFFFFFFFFFFFFFFFFFFFF DUP3 AND SWAP1 POP SWAP2 SWAP1 POP JUMP JUMPDEST PUSH0 PUSH2 0x83E DUP3 PUSH2 0x815 JUMP JUMPDEST SWAP1 POP SWAP2 SWAP1 POP JUMP JUMPDEST PUSH2 0x84E DUP2 PUSH2 0x834 JUMP JUMPDEST DUP2 EQ PUSH2 0x858 JUMPI PUSH0 PUSH0 REVERT JUMPDEST POP JUMP JUMPDEST PUSH0 DUP2 CALLDATALOAD SWAP1 POP PUSH2 0x869 DUP2 PUSH2 0x845 JUMP JUMPDEST SWAP3 SWAP2 POP POP JUMP JUMPDEST PUSH0 PUSH1 0x20 DUP3 DUP5 SUB SLT ISZERO PUSH2 0x884 JUMPI PUSH2 0x883 PUSH2 0x811 JUMP JUMPDEST JUMPDEST PUSH0 PUSH2 0x891 DUP5 DUP3 DUP6 ADD PUSH2 0x85B JUMP JUMPDEST SWAP2 POP POP SWAP3 SWAP2 POP POP JUMP JUMPDEST PUSH2 0x8A3 DUP2 PUSH2 0x834 JUMP JUMPDEST DUP3 MSTORE POP POP JUMP JUMPDEST PUSH0 PUSH1 0x20 DUP3 ADD SWAP1 POP PUSH2 0x8BC PUSH0 DUP4 ADD DUP5 PUSH2 0x89A JUMP JUMPDEST SWAP3 SWAP2 POP POP JUMP JUMPDEST PUSH0 PUSH1 0x3 SWAP1 POP SWAP2 SWAP1 POP JUMP JUMPDEST PUSH0 DUP2 SWAP1 POP SWAP3 SWAP2 POP POP JUMP JUMPDEST PUSH0 DUP2 SWAP1 POP SWAP2 SWAP1 POP JUMP JUMPDEST PUSH2 0x8E8 DUP2 PUSH2 0x834 JUMP JUMPDEST DUP3 MSTORE POP POP JUMP JUMPDEST PUSH2 0x8F7 DUP2 PUSH2 0x7E0 JUMP JUMPDEST DUP3 MSTORE POP POP JUMP JUMPDEST PUSH1 0x40 DUP3 ADD PUSH0 DUP3 ADD MLOAD PUSH2 0x911 PUSH0 DUP6 ADD DUP3 PUSH2 0x8DF JUMP JUMPDEST POP PUSH1 0x20 DUP3 ADD MLOAD PUSH2 0x924 PUSH1 0x20 DUP6 ADD DUP3 PUSH2 0x8EE JUMP JUMPDEST POP POP POP POP JUMP JUMPDEST PUSH0 PUSH2 0x935 DUP4 DUP4 PUSH2 0x8FD JUMP JUMPDEST PUSH1 0x40 DUP4 ADD SWAP1 POP SWAP3 SWAP2 POP POP JUMP JUMPDEST PUSH0 PUSH1 0x20 DUP3 ADD SWAP1 POP SWAP2 SWAP1 POP JUMP JUMPDEST PUSH2 0x956 DUP2 PUSH2 0x8C2 JUMP JUMPDEST PUSH2 0x960 DUP2 DUP5 PUSH2 0x8CC JUMP JUMPDEST SWAP3 POP PUSH2 0x96B DUP3 PUSH2 0x8D6 JUMP JUMPDEST DUP1 PUSH0 JUMPDEST DUP4 DUP2 LT ISZERO PUSH2 0x99B JUMPI DUP2 MLOAD PUSH2 0x982 DUP8 DUP3 PUSH2 0x92A JUMP JUMPDEST SWAP7 POP PUSH2 0x98D DUP4 PUSH2 0x941 JUMP JUMPDEST SWAP3 POP POP PUSH1 0x1 DUP2 ADD SWAP1 POP PUSH2 0x96E JUMP JUMPDEST POP POP POP POP POP POP JUMP JUMPDEST PUSH0 PUSH1 0xC0 DUP3 ADD SWAP1 POP PUSH2 0x9B6 PUSH0 DUP4 ADD DUP5 PUSH2 0x94D JUMP JUMPDEST SWAP3 SWAP2 POP POP JUMP JUMPDEST PUSH0 DUP3 DUP3 MSTORE PUSH1 0x20 DUP3 ADD SWAP1 POP SWAP3 SWAP2 POP POP JUMP JUMPDEST PUSH32 0x4F6E6C79206F776E657200000000000000000000000000000000000000000000 PUSH0 DUP3 ADD MSTORE POP JUMP JUMPDEST PUSH0 PUSH2 0xA00 PUSH1 0xA DUP4 PUSH2 0x9BC JUMP JUMPDEST SWAP2 POP PUSH2 0xA0B DUP3 PUSH2 0x9CC JUMP JUMPDEST PUSH1 0x20 DUP3 ADD SWAP1 POP SWAP2 SWAP1 POP JUMP JUMPDEST PUSH0 PUSH1 0x20 DUP3 ADD SWAP1 POP DUP2 DUP2 SUB PUSH0 DUP4 ADD MSTORE PUSH2 0xA2D DUP2 PUSH2 0x9F4 JUMP JUMPDEST SWAP1 POP SWAP2 SWAP1 POP JUMP JUMPDEST PUSH32 0x5A65726F2062616C616E63650000000000000000000000000000000000000000 PUSH0 DUP3 ADD MSTORE POP JUMP JUMPDEST PUSH0 PUSH2 0xA68 PUSH1 0xC DUP4 PUSH2 0x9BC JUMP JUMPDEST SWAP2 POP PUSH2 0xA73 DUP3 PUSH2 0xA34 JUMP JUMPDEST PUSH1 0x20 DUP3 ADD SWAP1 POP SWAP2 SWAP1 POP JUMP JUMPDEST PUSH0 PUSH1 0x20 DUP3 ADD SWAP1 POP DUP2 DUP2 SUB PUSH0 DUP4 ADD MSTORE PUSH2 0xA95 DUP2 PUSH2 0xA5C JUMP JUMPDEST SWAP1 POP SWAP2 SWAP1 POP JUMP JUMPDEST PUSH32 0x4E487B7100000000000000000000000000000000000000000000000000000000 PUSH0 MSTORE PUSH1 0x12 PUSH1 0x4 MSTORE PUSH1 0x24 PUSH0 REVERT JUMPDEST PUSH0 PUSH2 0xAD3 DUP3 PUSH2 0x7E0 JUMP JUMPDEST SWAP2 POP PUSH2 0xADE DUP4 PUSH2 0x7E0 JUMP JUMPDEST SWAP3 POP DUP3 PUSH2 0xAEE JUMPI PUSH2 0xAED PUSH2 0xA9C JUMP JUMPDEST JUMPDEST DUP3 DUP3 MOD SWAP1 POP SWAP3 SWAP2 POP POP JUMP JUMPDEST PUSH32 0x446F6E6174696F6E20636C6F7365000000000000000000000000000000000000 PUSH0 DUP3 ADD MSTORE POP JUMP JUMPDEST PUSH0 PUSH2 0xB2D PUSH1 0xE DUP4 PUSH2 0x9BC JUMP JUMPDEST SWAP2 POP PUSH2 0xB38 DUP3 PUSH2 0xAF9 JUMP JUMPDEST PUSH1 0x20 DUP3 ADD SWAP1 POP SWAP2 SWAP1 POP JUMP JUMPDEST PUSH0 PUSH1 0x20 DUP3 ADD SWAP1 POP DUP2 DUP2 SUB PUSH0 DUP4 ADD MSTORE PUSH2 0xB5A DUP2 PUSH2 0xB21 JUMP JUMPDEST SWAP1 POP SWAP2 SWAP1 POP JUMP JUMPDEST PUSH32 0x446F6E6174696F6E206D757374206265203E2030000000000000000000000000 PUSH0 DUP3 ADD MSTORE POP JUMP JUMPDEST PUSH0 PUSH2 0xB95 PUSH1 0x14 DUP4 PUSH2 0x9BC JUMP JUMPDEST SWAP2 POP PUSH2 0xBA0 DUP3 PUSH2 0xB61 JUMP JUMPDEST PUSH1 0x20 DUP3 ADD SWAP1 POP SWAP2 SWAP1 POP JUMP JUMPDEST PUSH0 PUSH1 0x20 DUP3 ADD SWAP1 POP DUP2 DUP2 SUB PUSH0 DUP4 ADD MSTORE PUSH2 0xBC2 DUP2 PUSH2 0xB89 JUMP JUMPDEST SWAP1 POP SWAP2 SWAP1 POP JUMP JUMPDEST PUSH32 0x4E487B7100000000000000000000000000000000000000000000000000000000 PUSH0 MSTORE PUSH1 0x11 PUSH1 0x4 MSTORE PUSH1 0x24 PUSH0 REVERT JUMPDEST PUSH0 PUSH2 0xC00 DUP3 PUSH2 0x7E0 JUMP JUMPDEST SWAP2 POP PUSH2 0xC0B DUP4 PUSH2 0x7E0 JUMP JUMPDEST SWAP3 POP DUP3 DUP3 ADD SWAP1 POP DUP1 DUP3 GT ISZERO PUSH2 0xC23 JUMPI PUSH2 0xC22 PUSH2 0xBC9 JUMP JUMPDEST JUMPDEST SWAP3 SWAP2 POP POP JUMP JUMPDEST PUSH32 0x4E487B7100000000000000000000000000000000000000000000000000000000 PUSH0 MSTORE PUSH1 0x32 PUSH1 0x4 MSTORE PUSH1 0x24 PUSH0 REVERT JUMPDEST PUSH0 PUSH2 0xC60 DUP3 PUSH2 0x7E0 JUMP JUMPDEST SWAP2 POP PUSH2 0xC6B DUP4 PUSH2 0x7E0 JUMP JUMPDEST SWAP3 POP DUP3 DUP3 SUB SWAP1 POP DUP2 DUP2 GT ISZERO PUSH2 0xC83 JUMPI PUSH2 0xC82 PUSH2 0xBC9 JUMP JUMPDEST JUMPDEST SWAP3 SWAP2 POP POP JUMP JUMPDEST PUSH0 PUSH2 0xC93 DUP3 PUSH2 0x7E0 JUMP JUMPDEST SWAP2 POP PUSH0 DUP3 SUB PUSH2 0xCA5 JUMPI PUSH2 0xCA4 PUSH2 0xBC9 JUMP JUMPDEST JUMPDEST PUSH1 0x1 DUP3 SUB SWAP1 POP SWAP2 SWAP1 POP JUMP INVALID LOG2 PUSH5 0x6970667358 0x22 SLT KECCAK256 CALLCODE STOP BLOCKHASH SWAP5 0xD3 SWAPN 0x6 BALANCE 0xAC RETURN 0x21 PUSH22 0x22D25F2CED06F4404C6088CB7395A41AC1A320196473 PUSH16 0x6C634300081E00330000000000000000 "
				},
				"gasEstimates": {
					"creation": {
						"codeDepositCost": "660400",
						"executionCost": "69187",
						"totalCost": "729587"
					},
					"external": {
						"donate()": "infinite",
						"endtime()": "2426",
						"getDonation(address)": "2873",
						"getTopDonors()": "infinite",
						"owner()": "2508",
						"starttime()": "2492",
						"totalDonation()": "2491",
						"withdraw()": "infinite"
					},
					"internal": {
						"_updateTopDonors(address,uint256)": "infinite"
					}
				},
				"methodIdentifiers": {
					"donate()": "ed88c68e",
					"endtime()": "2ca126f8",
					"getDonation(address)": "410a1d32",
					"getTopDonors()": "d6387ed8",
					"owner()": "8da5cb5b",
					"starttime()": "8da58897",
					"totalDonation()": "ee2ac05f",
					"withdraw()": "3ccfd60b"
				}
			},
			"storageLayout": {
				"storage": [
					{
						"astId": 5,
						"contract": "Task_2/Begging/BeggingContract.sol:BeggingContract",
						"label": "donationETHs",
						"offset": 0,
						"slot": "0",
						"type": "t_mapping(t_address,t_uint256)"
					},
					{
						"astId": 7,
						"contract": "Task_2/Begging/BeggingContract.sol:BeggingContract",
						"label": "owner",
						"offset": 0,
						"slot": "1",
						"type": "t_address"
					},
					{
						"astId": 9,
						"contract": "Task_2/Begging/BeggingContract.sol:BeggingContract",
						"label": "totalDonation",
						"offset": 0,
						"slot": "2",
						"type": "t_uint256"
					},
					{
						"astId": 11,
						"contract": "Task_2/Begging/BeggingContract.sol:BeggingContract",
						"label": "starttime",
						"offset": 0,
						"slot": "3",
						"type": "t_uint256"
					},
					{
						"astId": 13,
						"contract": "Task_2/Begging/BeggingContract.sol:BeggingContract",
						"label": "endtime",
						"offset": 0,
						"slot": "4",
						"type": "t_uint256"
					},
					{
						"astId": 23,
						"contract": "Task_2/Begging/BeggingContract.sol:BeggingContract",
						"label": "topDonors",
						"offset": 0,
						"slot": "5",
						"type": "t_array(t_struct(Donorctx)18_storage)3_storage"
					}
				],
				"types": {
					"t_address": {
						"encoding": "inplace",
						"label": "address",
						"numberOfBytes": "20"
					},
					"t_array(t_struct(Donorctx)18_storage)3_storage": {
						"base": "t_struct(Donorctx)18_storage",
						"encoding": "inplace",
						"label": "struct BeggingContract.Donorctx[3]",
						"numberOfBytes": "192"
					},
					"t_mapping(t_address,t_uint256)": {
						"encoding": "mapping",
						"key": "t_address",
						"label": "mapping(address => uint256)",
						"numberOfBytes": "32",
						"value": "t_uint256"
					},
					"t_struct(Donorctx)18_storage": {
						"encoding": "inplace",
						"label": "struct BeggingContract.Donorctx",
						"members": [
							{
								"astId": 15,
								"contract": "Task_2/Begging/BeggingContract.sol:BeggingContract",
								"label": "donor",
								"offset": 0,
								"slot": "0",
								"type": "t_address"
							},
							{
								"astId": 17,
								"contract": "Task_2/Begging/BeggingContract.sol:BeggingContract",
								"label": "amount",
								"offset": 0,
								"slot": "1",
								"type": "t_uint256"
							}
						],
						"numberOfBytes": "64"
					},
					"t_uint256": {
						"encoding": "inplace",
						"label": "uint256",
						"numberOfBytes": "32"
					}
				}
			},
			"userdoc": {
				"kind": "user",
				"methods": {},
				"version": 1
			}
		}
	}
}