{
	"data": {
		"bytecode": {
			"linkReferences": {},
			"object": "6080604052348015600e575f5ffd5b506108528061001c5f395ff3fe608060405260043610610028575f3560e01c806320487ded1461002c57806396f4e9f914610068575b5f5ffd5b348015610037575f5ffd5b50610052600480360381019061004d9190610543565b610098565b60405161005f91906105ac565b60405180910390f35b610082600480360381019061007d9190610543565b6100a9565b60405161008f91906105dd565b60405180910390f35b5f662386f26fc10000905092915050565b5f5f8383426040516020016100c0939291906107e0565b6040516020818303038152906040528051906020012090508367ffffffffffffffff16817f3d268d705c99ec99e84748365f374dea1d745080faad9ddfa8c2715d20b50cb060405160405180910390a38091505092915050565b5f604051905090565b5f5ffd5b5f5ffd5b5f67ffffffffffffffff82169050919050565b6101478161012b565b8114610151575f5ffd5b50565b5f813590506101628161013e565b92915050565b5f5ffd5b5f601f19601f8301169050919050565b7f4e487b71000000000000000000000000000000000000000000000000000000005f52604160045260245ffd5b6101b28261016c565b810181811067ffffffffffffffff821117156101d1576101d061017c565b5b80604052505050565b5f6101e361011a565b90506101ef82826101a9565b919050565b5f5ffd5b5f5ffd5b5f5ffd5b5f67ffffffffffffffff82111561021a5761021961017c565b5b6102238261016c565b9050602081019050919050565b828183375f83830152505050565b5f61025061024b84610200565b6101da565b90508281526020810184848401111561026c5761026b6101fc565b5b610277848285610230565b509392505050565b5f82601f830112610293576102926101f8565b5b81356102a384826020860161023e565b91505092915050565b5f67ffffffffffffffff8211156102c6576102c561017c565b5b602082029050602081019050919050565b5f5ffd5b5f73ffffffffffffffffffffffffffffffffffffffff82169050919050565b5f610304826102db565b9050919050565b610314816102fa565b811461031e575f5ffd5b50565b5f8135905061032f8161030b565b92915050565b5f819050919050565b61034781610335565b8114610351575f5ffd5b50565b5f813590506103628161033e565b92915050565b5f6040828403121561037d5761037c610168565b5b61038760406101da565b90505f61039684828501610321565b5f8301525060206103a984828501610354565b60208301525092915050565b5f6103c76103c2846102ac565b6101da565b905080838252602082019050604084028301858111156103ea576103e96102d7565b5b835b8181101561041357806103ff8882610368565b8452602084019350506040810190506103ec565b5050509392505050565b5f82601f830112610431576104306101f8565b5b81356104418482602086016103b5565b91505092915050565b5f60a0828403121561045f5761045e610168565b5b61046960a06101da565b90505f82013567ffffffffffffffff811115610488576104876101f4565b5b6104948482850161027f565b5f83015250602082013567ffffffffffffffff8111156104b7576104b66101f4565b5b6104c38482850161027f565b602083015250604082013567ffffffffffffffff8111156104e7576104e66101f4565b5b6104f38482850161041d565b604083015250606061050784828501610321565b606083015250608082013567ffffffffffffffff81111561052b5761052a6101f4565b5b6105378482850161027f565b60808301525092915050565b5f5f6040838503121561055957610558610123565b5b5f61056685828601610154565b925050602083013567ffffffffffffffff81111561058757610586610127565b5b6105938582860161044a565b9150509250929050565b6105a681610335565b82525050565b5f6020820190506105bf5f83018461059d565b92915050565b5f819050919050565b6105d7816105c5565b82525050565b5f6020820190506105f05f8301846105ce565b92915050565b6105ff8161012b565b82525050565b5f81519050919050565b5f82825260208201905092915050565b8281835e5f83830152505050565b5f61063782610605565b610641818561060f565b935061065181856020860161061f565b61065a8161016c565b840191505092915050565b5f81519050919050565b5f82825260208201905092915050565b5f819050602082019050919050565b610697816102fa565b82525050565b6106a681610335565b82525050565b604082015f8201516106c05f85018261068e565b5060208201516106d3602085018261069d565b50505050565b5f6106e483836106ac565b60408301905092915050565b5f602082019050919050565b5f61070682610665565b610710818561066f565b935061071b8361067f565b805f5b8381101561074b57815161073288826106d9565b975061073d836106f0565b92505060018101905061071e565b5085935050505092915050565b5f60a083015f8301518482035f860152610772828261062d565b9150506020830151848203602086015261078c828261062d565b915050604083015184820360408601526107a682826106fc565b91505060608301516107bb606086018261068e565b50608083015184820360808601526107d3828261062d565b9150508091505092915050565b5f6060820190506107f35f8301866105f6565b81810360208301526108058185610758565b9050610814604083018461059d565b94935050505056fea264697066735822122031f222f920d55796a6c9d567d0139ee10c004063bec733b195b10c0babbc017864736f6c634300081e0033",
			"opcodes": "PUSH1 0x80 PUSH1 0x40 MSTORE CALLVALUE DUP1 ISZERO PUSH1 0xE JUMPI PUSH0 PUSH0 REVERT JUMPDEST POP PUSH2 0x852 DUP1 PUSH2 0x1C PUSH0 CODECOPY PUSH0 RETURN INVALID PUSH1 0x80 PUSH1 0x40 MSTORE PUSH1 0x4 CALLDATASIZE LT PUSH2 0x28 JUMPI PUSH0 CALLDATALOAD PUSH1 0xE0 SHR DUP1 PUSH4 0x20487DED EQ PUSH2 0x2C JUMPI DUP1 PUSH4 0x96F4E9F9 EQ PUSH2 0x68 JUMPI JUMPDEST PUSH0 PUSH0 REVERT JUMPDEST CALLVALUE DUP1 ISZERO PUSH2 0x37 JUMPI PUSH0 PUSH0 REVERT JUMPDEST POP PUSH2 0x52 PUSH1 0x4 DUP1 CALLDATASIZE SUB DUP2 ADD SWAP1 PUSH2 0x4D SWAP2 SWAP1 PUSH2 0x543 JUMP JUMPDEST PUSH2 0x98 JUMP JUMPDEST PUSH1 0x40 MLOAD PUSH2 0x5F SWAP2 SWAP1 PUSH2 0x5AC JUMP JUMPDEST PUSH1 0x40 MLOAD DUP1 SWAP2 SUB SWAP1 RETURN JUMPDEST PUSH2 0x82 PUSH1 0x4 DUP1 CALLDATASIZE SUB DUP2 ADD SWAP1 PUSH2 0x7D SWAP2 SWAP1 PUSH2 0x543 JUMP JUMPDEST PUSH2 0xA9 JUMP JUMPDEST PUSH1 0x40 MLOAD PUSH2 0x8F SWAP2 SWAP1 PUSH2 0x5DD JUMP JUMPDEST PUSH1 0x40 MLOAD DUP1 SWAP2 SUB SWAP1 RETURN JUMPDEST PUSH0 PUSH7 0x2386F26FC10000 SWAP1 POP SWAP3 SWAP2 POP POP JUMP JUMPDEST PUSH0 PUSH0 DUP4 DUP4 TIMESTAMP PUSH1 0x40 MLOAD PUSH1 0x20 ADD PUSH2 0xC0 SWAP4 SWAP3 SWAP2 SWAP1 PUSH2 0x7E0 JUMP JUMPDEST PUSH1 0x40 MLOAD PUSH1 0x20 DUP2 DUP4 SUB SUB DUP2 MSTORE SWAP1 PUSH1 0x40 MSTORE DUP1 MLOAD SWAP1 PUSH1 0x20 ADD KECCAK256 SWAP1 POP DUP4 PUSH8 0xFFFFFFFFFFFFFFFF AND DUP2 PUSH32 0x3D268D705C99EC99E84748365F374DEA1D745080FAAD9DDFA8C2715D20B50CB0 PUSH1 0x40 MLOAD PUSH1 0x40 MLOAD DUP1 SWAP2 SUB SWAP1 LOG3 DUP1 SWAP2 POP POP SWAP3 SWAP2 POP POP JUMP JUMPDEST PUSH0 PUSH1 0x40 MLOAD SWAP1 POP SWAP1 JUMP JUMPDEST PUSH0 PUSH0 REVERT JUMPDEST PUSH0 PUSH0 REVERT JUMPDEST PUSH0 PUSH8 0xFFFFFFFFFFFFFFFF DUP3 AND SWAP1 POP SWAP2 SWAP1 POP JUMP JUMPDEST PUSH2 0x147 DUP2 PUSH2 0x12B JUMP JUMPDEST DUP2 EQ PUSH2 0x151 JUMPI PUSH0 PUSH0 REVERT JUMPDEST POP JUMP JUMPDEST PUSH0 DUP2 CALLDATALOAD SWAP1 POP PUSH2 0x162 DUP2 PUSH2 0x13E JUMP JUMPDEST SWAP3 SWAP2 POP POP JUMP JUMPDEST PUSH0 PUSH0 REVERT JUMPDEST PUSH0 PUSH1 0x1F NOT PUSH1 0x1F DUP4 ADD AND SWAP1 POP SWAP2 SWAP1 POP JUMP JUMPDEST PUSH32 0x4E487B7100000000000000000000000000000000000000000000000000000000 PUSH0 MSTORE PUSH1 0x41 PUSH1 0x4 MSTORE PUSH1 0x24 PUSH0 REVERT JUMPDEST PUSH2 0x1B2 DUP3 PUSH2 0x16C JUMP JUMPDEST DUP2 ADD DUP2 DUP2 LT PUSH8 0xFFFFFFFFFFFFFFFF DUP3 GT OR ISZERO PUSH2 0x1D1 JUMPI PUSH2 0x1D0 PUSH2 0x17C JUMP JUMPDEST JUMPDEST DUP1 PUSH1 0x40 MSTORE POP POP POP JUMP JUMPDEST PUSH0 PUSH2 0x1E3 PUSH2 0x11A JUMP JUMPDEST SWAP1 POP PUSH2 0x1EF DUP3 DUP3 PUSH2 0x1A9 JUMP JUMPDEST SWAP2 SWAP1 POP JUMP JUMPDEST PUSH0 PUSH0 REVERT JUMPDEST PUSH0 PUSH0 REVERT JUMPDEST PUSH0 PUSH0 REVERT JUMPDEST PUSH0 PUSH8 0xFFFFFFFFFFFFFFFF DUP3 GT ISZERO PUSH2 0x21A JUMPI PUSH2 0x219 PUSH2 0x17C JUMP JUMPDEST JUMPDEST PUSH2 0x223 DUP3 PUSH2 0x16C JUMP JUMPDEST SWAP1 POP PUSH1 0x20 DUP2 ADD SWAP1 POP SWAP2 SWAP1 POP JUMP JUMPDEST DUP3 DUP2 DUP4 CALLDATACOPY PUSH0 DUP4 DUP4 ADD MSTORE POP POP POP JUMP JUMPDEST PUSH0 PUSH2 0x250 PUSH2 0x24B DUP5 PUSH2 0x200 JUMP JUMPDEST PUSH2 0x1DA JUMP JUMPDEST SWAP1 POP DUP3 DUP2 MSTORE PUSH1 0x20 DUP2 ADD DUP5 DUP5 DUP5 ADD GT ISZERO PUSH2 0x26C JUMPI PUSH2 0x26B PUSH2 0x1FC JUMP JUMPDEST JUMPDEST PUSH2 0x277 DUP5 DUP3 DUP6 PUSH2 0x230 JUMP JUMPDEST POP SWAP4 SWAP3 POP POP POP JUMP JUMPDEST PUSH0 DUP3 PUSH1 0x1F DUP4 ADD SLT PUSH2 0x293 JUMPI PUSH2 0x292 PUSH2 0x1F8 JUMP JUMPDEST JUMPDEST DUP2 CALLDATALOAD PUSH2 0x2A3 DUP5 DUP3 PUSH1 0x20 DUP7 ADD PUSH2 0x23E JUMP JUMPDEST SWAP2 POP POP SWAP3 SWAP2 POP POP JUMP JUMPDEST PUSH0 PUSH8 0xFFFFFFFFFFFFFFFF DUP3 GT ISZERO PUSH2 0x2C6 JUMPI PUSH2 0x2C5 PUSH2 0x17C JUMP JUMPDEST JUMPDEST PUSH1 0x20 DUP3 MUL SWAP1 POP PUSH1 0x20 DUP2 ADD SWAP1 POP SWAP2 SWAP1 POP JUMP JUMPDEST PUSH0 PUSH0 REVERT JUMPDEST PUSH0 PUSH20 0xFFFFFFFFFFFFFFFFFFFFFFFFFFFFFFFFFFFFFFFF DUP3 AND SWAP1 POP SWAP2 SWAP1 POP JUMP JUMPDEST PUSH0 PUSH2 0x304 DUP3 PUSH2 0x2DB JUMP JUMPDEST SWAP1 POP SWAP2 SWAP1 POP JUMP JUMPDEST PUSH2 0x314 DUP2 PUSH2 0x2FA JUMP JUMPDEST DUP2 EQ PUSH2 0x31E JUMPI PUSH0 PUSH0 REVERT JUMPDEST POP JUMP JUMPDEST PUSH0 DUP2 CALLDATALOAD SWAP1 POP PUSH2 0x32F DUP2 PUSH2 0x30B JUMP JUMPDEST SWAP3 SWAP2 POP POP JUMP JUMPDEST PUSH0 DUP2 SWAP1 POP SWAP2 SWAP1 POP JUMP JUMPDEST PUSH2 0x347 DUP2 PUSH2 0x335 JUMP JUMPDEST DUP2 EQ PUSH2 0x351 JUMPI PUSH0 PUSH0 REVERT JUMPDEST POP JUMP JUMPDEST PUSH0 DUP2 CALLDATALOAD SWAP1 POP PUSH2 0x362 DUP2 PUSH2 0x33E JUMP JUMPDEST SWAP3 SWAP2 POP POP JUMP JUMPDEST PUSH0 PUSH1 0x40 DUP3 DUP5 SUB SLT ISZERO PUSH2 0x37D JUMPI PUSH2 0x37C PUSH2 0x168 JUMP JUMPDEST JUMPDEST PUSH2 0x387 PUSH1 0x40 PUSH2 0x1DA JUMP JUMPDEST SWAP1 POP PUSH0 PUSH2 0x396 DUP5 DUP3 DUP6 ADD PUSH2 0x321 JUMP JUMPDEST PUSH0 DUP4 ADD MSTORE POP PUSH1 0x20 PUSH2 0x3A9 DUP5 DUP3 DUP6 ADD PUSH2 0x354 JUMP JUMPDEST PUSH1 0x20 DUP4 ADD MSTORE POP SWAP3 SWAP2 POP POP JUMP JUMPDEST PUSH0 PUSH2 0x3C7 PUSH2 0x3C2 DUP5 PUSH2 0x2AC JUMP JUMPDEST PUSH2 0x1DA JUMP JUMPDEST SWAP1 POP DUP1 DUP4 DUP3 MSTORE PUSH1 0x20 DUP3 ADD SWAP1 POP PUSH1 0x40 DUP5 MUL DUP4 ADD DUP6 DUP2 GT ISZERO PUSH2 0x3EA JUMPI PUSH2 0x3E9 PUSH2 0x2D7 JUMP JUMPDEST JUMPDEST DUP4 JUMPDEST DUP2 DUP2 LT ISZERO PUSH2 0x413 JUMPI DUP1 PUSH2 0x3FF DUP9 DUP3 PUSH2 0x368 JUMP JUMPDEST DUP5 MSTORE PUSH1 0x20 DUP5 ADD SWAP4 POP POP PUSH1 0x40 DUP2 ADD SWAP1 POP PUSH2 0x3EC JUMP JUMPDEST POP POP POP SWAP4 SWAP3 POP POP POP JUMP JUMPDEST PUSH0 DUP3 PUSH1 0x1F DUP4 ADD SLT PUSH2 0x431 JUMPI PUSH2 0x430 PUSH2 0x1F8 JUMP JUMPDEST JUMPDEST DUP2 CALLDATALOAD PUSH2 0x441 DUP5 DUP3 PUSH1 0x20 DUP7 ADD PUSH2 0x3B5 JUMP JUMPDEST SWAP2 POP POP SWAP3 SWAP2 POP POP JUMP JUMPDEST PUSH0 PUSH1 0xA0 DUP3 DUP5 SUB SLT ISZERO PUSH2 0x45F JUMPI PUSH2 0x45E PUSH2 0x168 JUMP JUMPDEST JUMPDEST PUSH2 0x469 PUSH1 0xA0 PUSH2 0x1DA JUMP JUMPDEST SWAP1 POP PUSH0 DUP3 ADD CALLDATALOAD PUSH8 0xFFFFFFFFFFFFFFFF DUP2 GT ISZERO PUSH2 0x488 JUMPI PUSH2 0x487 PUSH2 0x1F4 JUMP JUMPDEST JUMPDEST PUSH2 0x494 DUP5 DUP3 DUP6 ADD PUSH2 0x27F JUMP JUMPDEST PUSH0 DUP4 ADD MSTORE POP PUSH1 0x20 DUP3 ADD CALLDATALOAD PUSH8 0xFFFFFFFFFFFFFFFF DUP2 GT ISZERO PUSH2 0x4B7 JUMPI PUSH2 0x4B6 PUSH2 0x1F4 JUMP JUMPDEST JUMPDEST PUSH2 0x4C3 DUP5 DUP3 DUP6 ADD PUSH2 0x27F JUMP JUMPDEST PUSH1 0x20 DUP4 ADD MSTORE POP PUSH1 0x40 DUP3 ADD CALLDATALOAD PUSH8 0xFFFFFFFFFFFFFFFF DUP2 GT ISZERO PUSH2 0x4E7 JUMPI PUSH2 0x4E6 PUSH2 0x1F4 JUMP JUMPDEST JUMPDEST PUSH2 0x4F3 DUP5 DUP3 DUP6 ADD PUSH2 0x41D JUMP JUMPDEST PUSH1 0x40 DUP4 ADD MSTORE POP PUSH1 0x60 PUSH2 0x507 DUP5 DUP3 DUP6 ADD PUSH2 0x321 JUMP JUMPDEST PUSH1 0x60 DUP4 ADD MSTORE POP PUSH1 0x80 DUP3 ADD CALLDATALOAD PUSH8 0xFFFFFFFFFFFFFFFF DUP2 GT ISZERO PUSH2 0x52B JUMPI PUSH2 0x52A PUSH2 0x1F4 JUMP JUMPDEST JUMPDEST PUSH2 0x537 DUP5 DUP3 DUP6 ADD PUSH2 0x27F JUMP JUMPDEST PUSH1 0x80 DUP4 ADD MSTORE POP SWAP3 SWAP2 POP POP JUMP JUMPDEST PUSH0 PUSH0 PUSH1 0x40 DUP4 DUP6 SUB SLT ISZERO PUSH2 0x559 JUMPI PUSH2 0x558 PUSH2 0x123 JUMP JUMPDEST JUMPDEST PUSH0 PUSH2 0x566 DUP6 DUP3 DUP7 ADD PUSH2 0x154 JUMP JUMPDEST SWAP3 POP POP PUSH1 0x20 DUP4 ADD CALLDATALOAD PUSH8 0xFFFFFFFFFFFFFFFF DUP2 GT ISZERO PUSH2 0x587 JUMPI PUSH2 0x586 PUSH2 0x127 JUMP JUMPDEST JUMPDEST PUSH2 0x593 DUP6 DUP3 DUP7 ADD PUSH2 0x44A JUMP JUMPDEST SWAP2 POP POP SWAP3 POP SWAP3 SWAP1 POP JUMP JUMPDEST PUSH2 0x5A6 DUP2 PUSH2 0x335 JUMP JUMPDEST DUP3 MSTORE POP POP JUMP JUMPDEST PUSH0 PUSH1 0x20 DUP3 ADD SWAP1 POP PUSH2 0x5BF PUSH0 DUP4 ADD DUP5 PUSH2 0x59D JUMP JUMPDEST SWAP3 SWAP2 POP POP JUMP JUMPDEST PUSH0 DUP2 SWAP1 POP SWAP2 SWAP1 POP JUMP JUMPDEST PUSH2 0x5D7 DUP2 PUSH2 0x5C5 JUMP JUMPDEST DUP3 MSTORE POP POP JUMP JUMPDEST PUSH0 PUSH1 0x20 DUP3 ADD SWAP1 POP PUSH2 0x5F0 PUSH0 DUP4 ADD DUP5 PUSH2 0x5CE JUMP JUMPDEST SWAP3 SWAP2 POP POP JUMP JUMPDEST PUSH2 0x5FF DUP2 PUSH2 0x12B JUMP JUMPDEST DUP3 MSTORE POP POP JUMP JUMPDEST PUSH0 DUP2 MLOAD SWAP1 POP SWAP2 SWAP1 POP JUMP JUMPDEST PUSH0 DUP3 DUP3 MSTORE PUSH1 0x20 DUP3 ADD SWAP1 POP SWAP3 SWAP2 POP POP JUMP JUMPDEST DUP3 DUP2 DUP4 MCOPY PUSH0 DUP4 DUP4 ADD MSTORE POP POP POP JUMP JUMPDEST PUSH0 PUSH2 0x637 DUP3 PUSH2 0x605 JUMP JUMPDEST PUSH2 0x641 DUP2 DUP6 PUSH2 0x60F JUMP JUMPDEST SWAP4 POP PUSH2 0x651 DUP2 DUP6 PUSH1 0x20 DUP7 ADD PUSH2 0x61F JUMP JUMPDEST PUSH2 0x65A DUP2 PUSH2 0x16C JUMP JUMPDEST DUP5 ADD SWAP2 POP POP SWAP3 SWAP2 POP POP JUMP JUMPDEST PUSH0 DUP2 MLOAD SWAP1 POP SWAP2 SWAP1 POP JUMP JUMPDEST PUSH0 DUP3 DUP3 MSTORE PUSH1 0x20 DUP3 ADD SWAP1 POP SWAP3 SWAP2 POP POP JUMP JUMPDEST PUSH0 DUP2 SWAP1 POP PUSH1 0x20 DUP3 ADD SWAP1 POP SWAP2 SWAP1 POP JUMP JUMPDEST PUSH2 0x697 DUP2 PUSH2 0x2FA JUMP JUMPDEST DUP3 MSTORE POP POP JUMP JUMPDEST PUSH2 0x6A6 DUP2 PUSH2 0x335 JUMP JUMPDEST DUP3 MSTORE POP POP JUMP JUMPDEST PUSH1 0x40 DUP3 ADD PUSH0 DUP3 ADD MLOAD PUSH2 0x6C0 PUSH0 DUP6 ADD DUP3 PUSH2 0x68E JUMP JUMPDEST POP PUSH1 0x20 DUP3 ADD MLOAD PUSH2 0x6D3 PUSH1 0x20 DUP6 ADD DUP3 PUSH2 0x69D JUMP JUMPDEST POP POP POP POP JUMP JUMPDEST PUSH0 PUSH2 0x6E4 DUP4 DUP4 PUSH2 0x6AC JUMP JUMPDEST PUSH1 0x40 DUP4 ADD SWAP1 POP SWAP3 SWAP2 POP POP JUMP JUMPDEST PUSH0 PUSH1 0x20 DUP3 ADD SWAP1 POP SWAP2 SWAP1 POP JUMP JUMPDEST PUSH0 PUSH2 0x706 DUP3 PUSH2 0x665 JUMP JUMPDEST PUSH2 0x710 DUP2 DUP6 PUSH2 0x66F JUMP JUMPDEST SWAP4 POP PUSH2 0x71B DUP4 PUSH2 0x67F JUMP JUMPDEST DUP1 PUSH0 JUMPDEST DUP4 DUP2 LT ISZERO PUSH2 0x74B JUMPI DUP2 MLOAD PUSH2 0x732 DUP9 DUP3 PUSH2 0x6D9 JUMP JUMPDEST SWAP8 POP PUSH2 0x73D DUP4 PUSH2 0x6F0 JUMP JUMPDEST SWAP3 POP POP PUSH1 0x1 DUP2 ADD SWAP1 POP PUSH2 0x71E JUMP JUMPDEST POP DUP6 SWAP4 POP POP POP POP SWAP3 SWAP2 POP POP JUMP JUMPDEST PUSH0 PUSH1 0xA0 DUP4 ADD PUSH0 DUP4 ADD MLOAD DUP5 DUP3 SUB PUSH0 DUP7 ADD MSTORE PUSH2 0x772 DUP3 DUP3 PUSH2 0x62D JUMP JUMPDEST SWAP2 POP POP PUSH1 0x20 DUP4 ADD MLOAD DUP5 DUP3 SUB PUSH1 0x20 DUP7 ADD MSTORE PUSH2 0x78C DUP3 DUP3 PUSH2 0x62D JUMP JUMPDEST SWAP2 POP POP PUSH1 0x40 DUP4 ADD MLOAD DUP5 DUP3 SUB PUSH1 0x40 DUP7 ADD MSTORE PUSH2 0x7A6 DUP3 DUP3 PUSH2 0x6FC JUMP JUMPDEST SWAP2 POP POP PUSH1 0x60 DUP4 ADD MLOAD PUSH2 0x7BB PUSH1 0x60 DUP7 ADD DUP3 PUSH2 0x68E JUMP JUMPDEST POP PUSH1 0x80 DUP4 ADD MLOAD DUP5 DUP3 SUB PUSH1 0x80 DUP7 ADD MSTORE PUSH2 0x7D3 DUP3 DUP3 PUSH2 0x62D JUMP JUMPDEST SWAP2 POP POP DUP1 SWAP2 POP POP SWAP3 SWAP2 POP POP JUMP JUMPDEST PUSH0 PUSH1 0x60 DUP3 ADD SWAP1 POP PUSH2 0x7F3 PUSH0 DUP4 ADD DUP7 PUSH2 0x5F6 JUMP JUMPDEST DUP2 DUP2 SUB PUSH1 0x20 DUP4 ADD MSTORE PUSH2 0x805 DUP2 DUP6 PUSH2 0x758 JUMP JUMPDEST SWAP1 POP PUSH2 0x814 PUSH1 0x40 DUP4 ADD DUP5 PUSH2 0x59D JUMP JUMPDEST SWAP5 SWAP4 POP POP POP POP JUMP INVALID LOG2 PUSH5 0x6970667358 0x22 SLT KECCAK256 BALANCE CALLCODE 0x22 EXTDELEGATECALL KECCAK256 0xD5 JUMPI SWAP7 0xA6 0xC9 0xD5 PUSH8 0xD0139EE10C004063 0xBE 0xC7 CALLER 0xB1 SWAP6 0xB1 0xC SIGNEXTEND 0xAB 0xBC ADD PUSH25 0x64736F6C634300081E00330000000000000000000000000000 "
		},
		"gasEstimates": {
			"creation": {
				"codeDepositCost": "426000",
				"executionCost": "459",
				"totalCost": "426459"
			},
			"external": {
				"ccipSend(uint64,(bytes,bytes,(address,uint256)[],address,bytes))": "infinite",
				"getFee(uint64,(bytes,bytes,(address,uint256)[],address,bytes))": "infinite"
			}
		},
		"methodIdentifiers": {
			"ccipSend(uint64,(bytes,bytes,(address,uint256)[],address,bytes))": "96f4e9f9",
			"getFee(uint64,(bytes,bytes,(address,uint256)[],address,bytes))": "20487ded"
		}
	},
	"abi": [
		{
			"anonymous": false,
			"inputs": [
				{
					"indexed": true,
					"internalType": "bytes32",
					"name": "messageId",
					"type": "bytes32"
				},
				{
					"indexed": true,
					"internalType": "uint64",
					"name": "destinationChainSelector",
					"type": "uint64"
				}
			],
			"name": "MessageSent",
			"type": "event"
		},
		{
			"inputs": [
				{
					"internalType": "uint64",
					"name": "destinationChainSelector",
					"type": "uint64"
				},
				{
					"components": [
						{
							"internalType": "bytes",
							"name": "receiver",
							"type": "bytes"
						},
						{
							"internalType": "bytes",
							"name": "data",
							"type": "bytes"
						},
						{
							"components": [
								{
									"internalType": "address",
									"name": "token",
									"type": "address"
								},
								{
									"internalType": "uint256",
									"name": "amount",
									"type": "uint256"
								}
							],
							"internalType": "struct Client.EVMTokenAmount[]",
							"name": "tokenAmounts",
							"type": "tuple[]"
						},
						{
							"internalType": "address",
							"name": "feeToken",
							"type": "address"
						},
						{
							"internalType": "bytes",
							"name": "extraArgs",
							"type": "bytes"
						}
					],
					"internalType": "struct Client.EVM2AnyMessage",
					"name": "message",
					"type": "tuple"
				}
			],
			"name": "ccipSend",
			"outputs": [
				{
					"internalType": "bytes32",
					"name": "",
					"type": "bytes32"
				}
			],
			"stateMutability": "payable",
			"type": "function"
		},
		{
			"inputs": [
				{
					"internalType": "uint64",
					"name": "",
					"type": "uint64"
				},
				{
					"components": [
						{
							"internalType": "bytes",
							"name": "receiver",
							"type": "bytes"
						},
						{
							"internalType": "bytes",
							"name": "data",
							"type": "bytes"
						},
						{
							"components": [
								{
									"internalType": "address",
									"name": "token",
									"type": "address"
								},
								{
									"internalType": "uint256",
									"name": "amount",
									"type": "uint256"
								}
							],
							"internalType": "struct Client.EVMTokenAmount[]",
							"name": "tokenAmounts",
							"type": "tuple[]"
						},
						{
							"internalType": "address",
							"name": "feeToken",
							"type": "address"
						},
						{
							"internalType": "bytes",
							"name": "extraArgs",
							"type": "bytes"
						}
					],
					"internalType": "struct Client.EVM2AnyMessage",
					"name": "",
					"type": "tuple"
				}
			],
			"name": "getFee",
			"outputs": [
				{
					"internalType": "uint256",
					"name": "",
					"type": "uint256"
				}
			],
			"stateMutability": "pure",
			"type": "function"
		}
	]
}