{
	"data": {
		"bytecode": {
			"linkReferences": {},
			"object": "6080604052348015600e575f5ffd5b506104b38061001c5f395ff3fe608060405234801561000f575f5ffd5b5060043610610029575f3560e01c8063f43537061461002d575b5f5ffd5b610047600480360381019061004291906102d5565b61005d565b604051610054919061033e565b60405180910390f35b5f5f5f90505f60018551610071919061038d565b90505b80821015610115575f6002838361008b91906103c0565b6100959190610420565b90508581815181106100aa576100a9610450565b5b60200260200101518512156100cd576001816100c6919061038d565b915061010f565b8581815181106100e0576100df610450565b5b6020026020010151851315610103576001816100fc91906103c0565b925061010e565b80935050505061013b565b5b50610074565b7fffffffffffffffffffffffffffffffffffffffffffffffffffffffffffffffff925050505b92915050565b5f604051905090565b5f5ffd5b5f5ffd5b5f5ffd5b5f601f19601f8301169050919050565b7f4e487b71000000000000000000000000000000000000000000000000000000005f52604160045260245ffd5b61019c82610156565b810181811067ffffffffffffffff821117156101bb576101ba610166565b5b80604052505050565b5f6101cd610141565b90506101d98282610193565b919050565b5f67ffffffffffffffff8211156101f8576101f7610166565b5b602082029050602081019050919050565b5f5ffd5b5f819050919050565b61021f8161020d565b8114610229575f5ffd5b50565b5f8135905061023a81610216565b92915050565b5f61025261024d846101de565b6101c4565b9050808382526020820190506020840283018581111561027557610274610209565b5b835b8181101561029e578061028a888261022c565b845260208401935050602081019050610277565b5050509392505050565b5f82601f8301126102bc576102bb610152565b5b81356102cc848260208601610240565b91505092915050565b5f5f604083850312156102eb576102ea61014a565b5b5f83013567ffffffffffffffff8111156103085761030761014e565b5b610314858286016102a8565b92505060206103258582860161022c565b9150509250929050565b6103388161020d565b82525050565b5f6020820190506103515f83018461032f565b92915050565b5f819050919050565b7f4e487b71000000000000000000000000000000000000000000000000000000005f52601160045260245ffd5b5f61039782610357565b91506103a283610357565b92508282039050818111156103ba576103b9610360565b5b92915050565b5f6103ca82610357565b91506103d583610357565b92508282019050808211156103ed576103ec610360565b5b92915050565b7f4e487b71000000000000000000000000000000000000000000000000000000005f52601260045260245ffd5b5f61042a82610357565b915061043583610357565b925082610445576104446103f3565b5b828204905092915050565b7f4e487b71000000000000000000000000000000000000000000000000000000005f52603260045260245ffdfea2646970667358221220fb06c3e7d2c084304d4bf4fb28c00340ab19e887c085e9d1230396f33021868764736f6c634300081e0033",
			"opcodes": "PUSH1 0x80 PUSH1 0x40 MSTORE CALLVALUE DUP1 ISZERO PUSH1 0xE JUMPI PUSH0 PUSH0 REVERT JUMPDEST POP PUSH2 0x4B3 DUP1 PUSH2 0x1C PUSH0 CODECOPY PUSH0 RETURN INVALID PUSH1 0x80 PUSH1 0x40 MSTORE CALLVALUE DUP1 ISZERO PUSH2 0xF JUMPI PUSH0 PUSH0 REVERT JUMPDEST POP PUSH1 0x4 CALLDATASIZE LT PUSH2 0x29 JUMPI PUSH0 CALLDATALOAD PUSH1 0xE0 SHR DUP1 PUSH4 0xF4353706 EQ PUSH2 0x2D JUMPI JUMPDEST PUSH0 PUSH0 REVERT JUMPDEST PUSH2 0x47 PUSH1 0x4 DUP1 CALLDATASIZE SUB DUP2 ADD SWAP1 PUSH2 0x42 SWAP2 SWAP1 PUSH2 0x2D5 JUMP JUMPDEST PUSH2 0x5D JUMP JUMPDEST PUSH1 0x40 MLOAD PUSH2 0x54 SWAP2 SWAP1 PUSH2 0x33E JUMP JUMPDEST PUSH1 0x40 MLOAD DUP1 SWAP2 SUB SWAP1 RETURN JUMPDEST PUSH0 PUSH0 PUSH0 SWAP1 POP PUSH0 PUSH1 0x1 DUP6 MLOAD PUSH2 0x71 SWAP2 SWAP1 PUSH2 0x38D JUMP JUMPDEST SWAP1 POP JUMPDEST DUP1 DUP3 LT ISZERO PUSH2 0x115 JUMPI PUSH0 PUSH1 0x2 DUP4 DUP4 PUSH2 0x8B SWAP2 SWAP1 PUSH2 0x3C0 JUMP JUMPDEST PUSH2 0x95 SWAP2 SWAP1 PUSH2 0x420 JUMP JUMPDEST SWAP1 POP DUP6 DUP2 DUP2 MLOAD DUP2 LT PUSH2 0xAA JUMPI PUSH2 0xA9 PUSH2 0x450 JUMP JUMPDEST JUMPDEST PUSH1 0x20 MUL PUSH1 0x20 ADD ADD MLOAD DUP6 SLT ISZERO PUSH2 0xCD JUMPI PUSH1 0x1 DUP2 PUSH2 0xC6 SWAP2 SWAP1 PUSH2 0x38D JUMP JUMPDEST SWAP2 POP PUSH2 0x10F JUMP JUMPDEST DUP6 DUP2 DUP2 MLOAD DUP2 LT PUSH2 0xE0 JUMPI PUSH2 0xDF PUSH2 0x450 JUMP JUMPDEST JUMPDEST PUSH1 0x20 MUL PUSH1 0x20 ADD ADD MLOAD DUP6 SGT ISZERO PUSH2 0x103 JUMPI PUSH1 0x1 DUP2 PUSH2 0xFC SWAP2 SWAP1 PUSH2 0x3C0 JUMP JUMPDEST SWAP3 POP PUSH2 0x10E JUMP JUMPDEST DUP1 SWAP4 POP POP POP POP PUSH2 0x13B JUMP JUMPDEST JUMPDEST POP PUSH2 0x74 JUMP JUMPDEST PUSH32 0xFFFFFFFFFFFFFFFFFFFFFFFFFFFFFFFFFFFFFFFFFFFFFFFFFFFFFFFFFFFFFFFF SWAP3 POP POP POP JUMPDEST SWAP3 SWAP2 POP POP JUMP JUMPDEST PUSH0 PUSH1 0x40 MLOAD SWAP1 POP SWAP1 JUMP JUMPDEST PUSH0 PUSH0 REVERT JUMPDEST PUSH0 PUSH0 REVERT JUMPDEST PUSH0 PUSH0 REVERT JUMPDEST PUSH0 PUSH1 0x1F NOT PUSH1 0x1F DUP4 ADD AND SWAP1 POP SWAP2 SWAP1 POP JUMP JUMPDEST PUSH32 0x4E487B7100000000000000000000000000000000000000000000000000000000 PUSH0 MSTORE PUSH1 0x41 PUSH1 0x4 MSTORE PUSH1 0x24 PUSH0 REVERT JUMPDEST PUSH2 0x19C DUP3 PUSH2 0x156 JUMP JUMPDEST DUP2 ADD DUP2 DUP2 LT PUSH8 0xFFFFFFFFFFFFFFFF DUP3 GT OR ISZERO PUSH2 0x1BB JUMPI PUSH2 0x1BA PUSH2 0x166 JUMP JUMPDEST JUMPDEST DUP1 PUSH1 0x40 MSTORE POP POP POP JUMP JUMPDEST PUSH0 PUSH2 0x1CD PUSH2 0x141 JUMP JUMPDEST SWAP1 POP PUSH2 0x1D9 DUP3 DUP3 PUSH2 0x193 JUMP JUMPDEST SWAP2 SWAP1 POP JUMP JUMPDEST PUSH0 PUSH8 0xFFFFFFFFFFFFFFFF DUP3 GT ISZERO PUSH2 0x1F8 JUMPI PUSH2 0x1F7 PUSH2 0x166 JUMP JUMPDEST JUMPDEST PUSH1 0x20 DUP3 MUL SWAP1 POP PUSH1 0x20 DUP2 ADD SWAP1 POP SWAP2 SWAP1 POP JUMP JUMPDEST PUSH0 PUSH0 REVERT JUMPDEST PUSH0 DUP2 SWAP1 POP SWAP2 SWAP1 POP JUMP JUMPDEST PUSH2 0x21F DUP2 PUSH2 0x20D JUMP JUMPDEST DUP2 EQ PUSH2 0x229 JUMPI PUSH0 PUSH0 REVERT JUMPDEST POP JUMP JUMPDEST PUSH0 DUP2 CALLDATALOAD SWAP1 POP PUSH2 0x23A DUP2 PUSH2 0x216 JUMP JUMPDEST SWAP3 SWAP2 POP POP JUMP JUMPDEST PUSH0 PUSH2 0x252 PUSH2 0x24D DUP5 PUSH2 0x1DE JUMP JUMPDEST PUSH2 0x1C4 JUMP JUMPDEST SWAP1 POP DUP1 DUP4 DUP3 MSTORE PUSH1 0x20 DUP3 ADD SWAP1 POP PUSH1 0x20 DUP5 MUL DUP4 ADD DUP6 DUP2 GT ISZERO PUSH2 0x275 JUMPI PUSH2 0x274 PUSH2 0x209 JUMP JUMPDEST JUMPDEST DUP4 JUMPDEST DUP2 DUP2 LT ISZERO PUSH2 0x29E JUMPI DUP1 PUSH2 0x28A DUP9 DUP3 PUSH2 0x22C JUMP JUMPDEST DUP5 MSTORE PUSH1 0x20 DUP5 ADD SWAP4 POP POP PUSH1 0x20 DUP2 ADD SWAP1 POP PUSH2 0x277 JUMP JUMPDEST POP POP POP SWAP4 SWAP3 POP POP POP JUMP JUMPDEST PUSH0 DUP3 PUSH1 0x1F DUP4 ADD SLT PUSH2 0x2BC JUMPI PUSH2 0x2BB PUSH2 0x152 JUMP JUMPDEST JUMPDEST DUP2 CALLDATALOAD PUSH2 0x2CC DUP5 DUP3 PUSH1 0x20 DUP7 ADD PUSH2 0x240 JUMP JUMPDEST SWAP2 POP POP SWAP3 SWAP2 POP POP JUMP JUMPDEST PUSH0 PUSH0 PUSH1 0x40 DUP4 DUP6 SUB SLT ISZERO PUSH2 0x2EB JUMPI PUSH2 0x2EA PUSH2 0x14A JUMP JUMPDEST JUMPDEST PUSH0 DUP4 ADD CALLDATALOAD PUSH8 0xFFFFFFFFFFFFFFFF DUP2 GT ISZERO PUSH2 0x308 JUMPI PUSH2 0x307 PUSH2 0x14E JUMP JUMPDEST JUMPDEST PUSH2 0x314 DUP6 DUP3 DUP7 ADD PUSH2 0x2A8 JUMP JUMPDEST SWAP3 POP POP PUSH1 0x20 PUSH2 0x325 DUP6 DUP3 DUP7 ADD PUSH2 0x22C JUMP JUMPDEST SWAP2 POP POP SWAP3 POP SWAP3 SWAP1 POP JUMP JUMPDEST PUSH2 0x338 DUP2 PUSH2 0x20D JUMP JUMPDEST DUP3 MSTORE POP POP JUMP JUMPDEST PUSH0 PUSH1 0x20 DUP3 ADD SWAP1 POP PUSH2 0x351 PUSH0 DUP4 ADD DUP5 PUSH2 0x32F JUMP JUMPDEST SWAP3 SWAP2 POP POP JUMP JUMPDEST PUSH0 DUP2 SWAP1 POP SWAP2 SWAP1 POP JUMP JUMPDEST PUSH32 0x4E487B7100000000000000000000000000000000000000000000000000000000 PUSH0 MSTORE PUSH1 0x11 PUSH1 0x4 MSTORE PUSH1 0x24 PUSH0 REVERT JUMPDEST PUSH0 PUSH2 0x397 DUP3 PUSH2 0x357 JUMP JUMPDEST SWAP2 POP PUSH2 0x3A2 DUP4 PUSH2 0x357 JUMP JUMPDEST SWAP3 POP DUP3 DUP3 SUB SWAP1 POP DUP2 DUP2 GT ISZERO PUSH2 0x3BA JUMPI PUSH2 0x3B9 PUSH2 0x360 JUMP JUMPDEST JUMPDEST SWAP3 SWAP2 POP POP JUMP JUMPDEST PUSH0 PUSH2 0x3CA DUP3 PUSH2 0x357 JUMP JUMPDEST SWAP2 POP PUSH2 0x3D5 DUP4 PUSH2 0x357 JUMP JUMPDEST SWAP3 POP DUP3 DUP3 ADD SWAP1 POP DUP1 DUP3 GT ISZERO PUSH2 0x3ED JUMPI PUSH2 0x3EC PUSH2 0x360 JUMP JUMPDEST JUMPDEST SWAP3 SWAP2 POP POP JUMP JUMPDEST PUSH32 0x4E487B7100000000000000000000000000000000000000000000000000000000 PUSH0 MSTORE PUSH1 0x12 PUSH1 0x4 MSTORE PUSH1 0x24 PUSH0 REVERT JUMPDEST PUSH0 PUSH2 0x42A DUP3 PUSH2 0x357 JUMP JUMPDEST SWAP2 POP PUSH2 0x435 DUP4 PUSH2 0x357 JUMP JUMPDEST SWAP3 POP DUP3 PUSH2 0x445 JUMPI PUSH2 0x444 PUSH2 0x3F3 JUMP JUMPDEST JUMPDEST DUP3 DUP3 DIV SWAP1 POP SWAP3 SWAP2 POP POP JUMP JUMPDEST PUSH32 0x4E487B7100000000000000000000000000000000000000000000000000000000 PUSH0 MSTORE PUSH1 0x32 PUSH1 0x4 MSTORE PUSH1 0x24 PUSH0 REVERT INVALID LOG2 PUSH5 0x6970667358 0x22 SLT KECCAK256 EXTSTATICCALL MOD 0xC3 SWAPN 0xD2 0xC0 DUP5 ADDRESS 0x4D 0x4B DELEGATECALL EXTSTATICCALL 0x28 0xC0 SUB BLOCKHASH 0xAB NOT 0xE8 DUP8 0xC0 DUP6 0xE9 DATALOADN 0x2303 SWAP7 RETURN ADDRESS 0x21 DUP7 DUP8 PUSH5 0x736F6C6343 STOP ADDMOD 0x1E STOP CALLER "
		},
		"gasEstimates": {
			"creation": {
				"codeDepositCost": "240600",
				"executionCost": "279",
				"totalCost": "240879"
			},
			"external": {
				"binarySearch(int256[],int256)": "infinite"
			}
		},
		"methodIdentifiers": {
			"binarySearch(int256[],int256)": "f4353706"
		}
	},
	"abi": [
		{
			"inputs": [
				{
					"internalType": "int256[]",
					"name": "arr",
					"type": "int256[]"
				},
				{
					"internalType": "int256",
					"name": "num",
					"type": "int256"
				}
			],
			"name": "binarySearch",
			"outputs": [
				{
					"internalType": "int256",
					"name": "",
					"type": "int256"
				}
			],
			"stateMutability": "pure",
			"type": "function"
		}
	]
}