{
	"contracts/NFTAuction.sol": {
		"NFTAuction": {
			"abi": [
				{
					"anonymous": false,
					"inputs": [
						{
							"indexed": false,
							"internalType": "address",
							"name": "previousAdmin",
							"type": "address"
						},
						{
							"indexed": false,
							"internalType": "address",
							"name": "newAdmin",
							"type": "address"
						}
					],
					"name": "AdminChanged",
					"type": "event"
				},
				{
					"anonymous": false,
					"inputs": [
						{
							"indexed": true,
							"internalType": "uint256",
							"name": "auctionId",
							"type": "uint256"
						},
						{
							"indexed": true,
							"internalType": "address",
							"name": "seller",
							"type": "address"
						}
					],
					"name": "AuctionCreated",
					"type": "event"
				},
				{
					"anonymous": false,
					"inputs": [
						{
							"indexed": true,
							"internalType": "uint256",
							"name": "auctionId",
							"type": "uint256"
						},
						{
							"indexed": false,
							"internalType": "address",
							"name": "winner",
							"type": "address"
						},
						{
							"indexed": false,
							"internalType": "uint256",
							"name": "amount",
							"type": "uint256"
						}
					],
					"name": "AuctionEnded",
					"type": "event"
				},
				{
					"anonymous": false,
					"inputs": [
						{
							"indexed": true,
							"internalType": "address",
							"name": "beacon",
							"type": "address"
						}
					],
					"name": "BeaconUpgraded",
					"type": "event"
				},
				{
					"anonymous": false,
					"inputs": [
						{
							"indexed": true,
							"internalType": "uint256",
							"name": "auctionId",
							"type": "uint256"
						},
						{
							"indexed": false,
							"internalType": "address",
							"name": "bidder",
							"type": "address"
						},
						{
							"indexed": false,
							"internalType": "uint256",
							"name": "amount",
							"type": "uint256"
						}
					],
					"name": "BidPlaced",
					"type": "event"
				},
				{
					"anonymous": false,
					"inputs": [
						{
							"indexed": false,
							"internalType": "uint8",
							"name": "version",
							"type": "uint8"
						}
					],
					"name": "Initialized",
					"type": "event"
				},
				{
					"anonymous": false,
					"inputs": [
						{
							"indexed": true,
							"internalType": "address",
							"name": "implementation",
							"type": "address"
						}
					],
					"name": "Upgraded",
					"type": "event"
				},
				{
					"inputs": [
						{
							"internalType": "uint256",
							"name": "",
							"type": "uint256"
						}
					],
					"name": "Auctions",
					"outputs": [
						{
							"internalType": "address",
							"name": "seller",
							"type": "address"
						},
						{
							"internalType": "uint256",
							"name": "startPrice",
							"type": "uint256"
						},
						{
							"internalType": "uint256",
							"name": "startTime",
							"type": "uint256"
						},
						{
							"internalType": "uint256",
							"name": "duration",
							"type": "uint256"
						},
						{
							"internalType": "bool",
							"name": "isended",
							"type": "bool"
						},
						{
							"internalType": "uint256",
							"name": "highestBid",
							"type": "uint256"
						},
						{
							"internalType": "address",
							"name": "highestBidder",
							"type": "address"
						},
						{
							"internalType": "address",
							"name": "nftAddress",
							"type": "address"
						},
						{
							"internalType": "uint256",
							"name": "nftId",
							"type": "uint256"
						},
						{
							"internalType": "address",
							"name": "tokenAddress",
							"type": "address"
						}
					],
					"stateMutability": "view",
					"type": "function"
				},
				{
					"inputs": [],
					"name": "admin",
					"outputs": [
						{
							"internalType": "address",
							"name": "",
							"type": "address"
						}
					],
					"stateMutability": "view",
					"type": "function"
				},
				{
					"inputs": [],
					"name": "ccipRouter",
					"outputs": [
						{
							"internalType": "contract IRouterClient",
							"name": "",
							"type": "address"
						}
					],
					"stateMutability": "view",
					"type": "function"
				},
				{
					"inputs": [
						{
							"internalType": "uint256",
							"name": "_duration",
							"type": "uint256"
						},
						{
							"internalType": "uint256",
							"name": "_startPrice",
							"type": "uint256"
						},
						{
							"internalType": "address",
							"name": "_nftAddress",
							"type": "address"
						},
						{
							"internalType": "uint256",
							"name": "_nftId",
							"type": "uint256"
						}
					],
					"name": "createAuction",
					"outputs": [],
					"stateMutability": "nonpayable",
					"type": "function"
				},
				{
					"inputs": [
						{
							"internalType": "uint256",
							"name": "_auctionId",
							"type": "uint256"
						}
					],
					"name": "endAuction",
					"outputs": [],
					"stateMutability": "nonpayable",
					"type": "function"
				},
				{
					"inputs": [],
					"name": "ethPriceFeed",
					"outputs": [
						{
							"internalType": "contract AggregatorV3Interface",
							"name": "",
							"type": "address"
						}
					],
					"stateMutability": "view",
					"type": "function"
				},
				{
					"inputs": [
						{
							"internalType": "address",
							"name": "_ccipRouter",
							"type": "address"
						},
						{
							"internalType": "address",
							"name": "_ethPriceFeed",
							"type": "address"
						}
					],
					"name": "initialize",
					"outputs": [],
					"stateMutability": "nonpayable",
					"type": "function"
				},
				{
					"inputs": [],
					"name": "nextAuctionId",
					"outputs": [
						{
							"internalType": "uint256",
							"name": "",
							"type": "uint256"
						}
					],
					"stateMutability": "view",
					"type": "function"
				},
				{
					"inputs": [
						{
							"internalType": "uint256",
							"name": "_auctionId",
							"type": "uint256"
						},
						{
							"internalType": "uint256",
							"name": "_amount",
							"type": "uint256"
						},
						{
							"internalType": "address",
							"name": "_tokenAddress",
							"type": "address"
						}
					],
					"name": "placeBid",
					"outputs": [],
					"stateMutability": "payable",
					"type": "function"
				},
				{
					"inputs": [
						{
							"internalType": "address",
							"name": "",
							"type": "address"
						}
					],
					"name": "priceFeeds",
					"outputs": [
						{
							"internalType": "contract AggregatorV3Interface",
							"name": "",
							"type": "address"
						}
					],
					"stateMutability": "view",
					"type": "function"
				},
				{
					"inputs": [],
					"name": "proxiableUUID",
					"outputs": [
						{
							"internalType": "bytes32",
							"name": "",
							"type": "bytes32"
						}
					],
					"stateMutability": "view",
					"type": "function"
				},
				{
					"inputs": [
						{
							"internalType": "uint64",
							"name": "_destinationChainId",
							"type": "uint64"
						},
						{
							"internalType": "uint256",
							"name": "_auctionId",
							"type": "uint256"
						},
						{
							"internalType": "uint256",
							"name": "_amount",
							"type": "uint256"
						},
						{
							"internalType": "address",
							"name": "_tokenAddress",
							"type": "address"
						}
					],
					"name": "sendCrossChainBid",
					"outputs": [],
					"stateMutability": "payable",
					"type": "function"
				},
				{
					"inputs": [
						{
							"internalType": "address",
							"name": "_priceETHFeed",
							"type": "address"
						},
						{
							"internalType": "address",
							"name": "tokenAddress",
							"type": "address"
						}
					],
					"name": "setPriceETHFeed",
					"outputs": [],
					"stateMutability": "nonpayable",
					"type": "function"
				},
				{
					"inputs": [
						{
							"internalType": "address",
							"name": "newImplementation",
							"type": "address"
						}
					],
					"name": "upgradeTo",
					"outputs": [],
					"stateMutability": "nonpayable",
					"type": "function"
				},
				{
					"inputs": [
						{
							"internalType": "address",
							"name": "newImplementation",
							"type": "address"
						},
						{
							"internalType": "bytes",
							"name": "data",
							"type": "bytes"
						}
					],
					"name": "upgradeToAndCall",
					"outputs": [],
					"stateMutability": "payable",
					"type": "function"
				}
			],
			"devdoc": {
				"events": {
					"AdminChanged(address,address)": {
						"details": "Emitted when the admin account has changed."
					},
					"BeaconUpgraded(address)": {
						"details": "Emitted when the beacon is changed."
					},
					"Initialized(uint8)": {
						"details": "Triggered when the contract has been initialized or reinitialized."
					},
					"Upgraded(address)": {
						"details": "Emitted when the implementation is upgraded."
					}
				},
				"kind": "dev",
				"methods": {
					"proxiableUUID()": {
						"details": "Implementation of the ERC1822 {proxiableUUID} function. This returns the storage slot used by the implementation. It is used to validate the implementation's compatibility when performing an upgrade. IMPORTANT: A proxy pointing at a proxiable contract should not be considered proxiable itself, because this risks bricking a proxy that upgrades to it, by delegating to itself until out of gas. Thus it is critical that this function revert if invoked through a proxy. This is guaranteed by the `notDelegated` modifier."
					},
					"upgradeTo(address)": {
						"custom:oz-upgrades-unsafe-allow-reachable": "delegatecall",
						"details": "Upgrade the implementation of the proxy to `newImplementation`. Calls {_authorizeUpgrade}. Emits an {Upgraded} event."
					},
					"upgradeToAndCall(address,bytes)": {
						"custom:oz-upgrades-unsafe-allow-reachable": "delegatecall",
						"details": "Upgrade the implementation of the proxy to `newImplementation`, and subsequently execute the function call encoded in `data`. Calls {_authorizeUpgrade}. Emits an {Upgraded} event."
					}
				},
				"version": 1
			},
			"evm": {
				"assembly": "    /* \"contracts/NFTAuction.sol\":448:6206  contract NFTAuction is UUPSUpgradeable {... */\n  mstore(0x40, 0xa0)\n    /* \"@openzeppelin/contracts-upgradeable/proxy/utils/UUPSUpgradeable.sol\":1332:1336  this */\n  address\n    /* \"@openzeppelin/contracts-upgradeable/proxy/utils/UUPSUpgradeable.sol\":1289:1337  address private immutable __self = address(this) */\n  0xffffffffffffffffffffffffffffffffffffffff\n  and\n  0x80\n  swap1\n  0xffffffffffffffffffffffffffffffffffffffff\n  and\n  dup2\n  mstore\n  pop\n    /* \"contracts/NFTAuction.sol\":448:6206  contract NFTAuction is UUPSUpgradeable {... */\n  callvalue\n  dup1\n  iszero\n  tag_1\n  jumpi\n  revert(0x00, 0x00)\ntag_1:\n  pop\n  mload(0x80)\n  codecopy(0x00, dataOffset(sub_0), dataSize(sub_0))\n  0x00\n  assignImmutable(\"0x475386c12a355a2be633f36e14616f54fb4cdf6186740c1004169f5796b9cf16\")\n  return(0x00, dataSize(sub_0))\nstop\n\nsub_0: assembly {\n        /* \"contracts/NFTAuction.sol\":448:6206  contract NFTAuction is UUPSUpgradeable {... */\n      mstore(0x40, 0x80)\n      jumpi(tag_1, lt(calldatasize, 0x04))\n      shr(0xe0, calldataload(0x00))\n      dup1\n      0xad6561ec\n      gt\n      tag_17\n      jumpi\n      dup1\n      0xb9a2de3a\n      gt\n      tag_18\n      jumpi\n      dup1\n      0xb9a2de3a\n      eq\n      tag_13\n      jumpi\n      dup1\n      0xe8cd181f\n      eq\n      tag_14\n      jumpi\n      dup1\n      0xf851a440\n      eq\n      tag_15\n      jumpi\n      dup1\n      0xfc528482\n      eq\n      tag_16\n      jumpi\n      jump(tag_1)\n    tag_18:\n      dup1\n      0xad6561ec\n      eq\n      tag_9\n      jumpi\n      dup1\n      0xaf7665ce\n      eq\n      tag_10\n      jumpi\n      dup1\n      0xb1cb48ef\n      eq\n      tag_11\n      jumpi\n      dup1\n      0xb2703dc6\n      eq\n      tag_12\n      jumpi\n      jump(tag_1)\n    tag_17:\n      dup1\n      0x4f1ef286\n      gt\n      tag_19\n      jumpi\n      dup1\n      0x4f1ef286\n      eq\n      tag_5\n      jumpi\n      dup1\n      0x52d1902d\n      eq\n      tag_6\n      jumpi\n      dup1\n      0x9dcb511a\n      eq\n      tag_7\n      jumpi\n      dup1\n      0xa48e3815\n      eq\n      tag_8\n      jumpi\n      jump(tag_1)\n    tag_19:\n      dup1\n      0x0de22984\n      eq\n      tag_2\n      jumpi\n      dup1\n      0x3659cfe6\n      eq\n      tag_3\n      jumpi\n      dup1\n      0x485cc955\n      eq\n      tag_4\n      jumpi\n    tag_1:\n      revert(0x00, 0x00)\n        /* \"contracts/NFTAuction.sol\":1038:1069  IRouterClient public ccipRouter */\n    tag_2:\n      callvalue\n      dup1\n      iszero\n      tag_20\n      jumpi\n      revert(0x00, 0x00)\n    tag_20:\n      pop\n      tag_21\n      tag_22\n      jump\t// in\n    tag_21:\n      mload(0x40)\n      tag_23\n      swap2\n      swap1\n      tag_24\n      jump\t// in\n    tag_23:\n      mload(0x40)\n      dup1\n      swap2\n      sub\n      swap1\n      return\n        /* \"@openzeppelin/contracts-upgradeable/proxy/utils/UUPSUpgradeable.sol\":3387:3582  function upgradeTo(address newImplementation) public virtual onlyProxy {... */\n    tag_3:\n      callvalue\n      dup1\n      iszero\n      tag_25\n      jumpi\n      revert(0x00, 0x00)\n    tag_25:\n      pop\n      tag_26\n      0x04\n      dup1\n      calldatasize\n      sub\n      dup2\n      add\n      swap1\n      tag_27\n      swap2\n      swap1\n      tag_28\n      jump\t// in\n    tag_27:\n      tag_29\n      jump\t// in\n    tag_26:\n      stop\n        /* \"contracts/NFTAuction.sol\":1331:1594  function initialize(address _ccipRouter,address _ethPriceFeed) public initializer{... */\n    tag_4:\n      callvalue\n      dup1\n      iszero\n      tag_30\n      jumpi\n      revert(0x00, 0x00)\n    tag_30:\n      pop\n      tag_31\n      0x04\n      dup1\n      calldatasize\n      sub\n      dup2\n      add\n      swap1\n      tag_32\n      swap2\n      swap1\n      tag_33\n      jump\t// in\n    tag_32:\n      tag_34\n      jump\t// in\n    tag_31:\n      stop\n        /* \"@openzeppelin/contracts-upgradeable/proxy/utils/UUPSUpgradeable.sol\":3901:4121  function upgradeToAndCall(address newImplementation, bytes memory data) public payable virtual onlyProxy {... */\n    tag_5:\n      tag_35\n      0x04\n      dup1\n      calldatasize\n      sub\n      dup2\n      add\n      swap1\n      tag_36\n      swap2\n      swap1\n      tag_37\n      jump\t// in\n    tag_36:\n      tag_38\n      jump\t// in\n    tag_35:\n      stop\n        /* \"@openzeppelin/contracts-upgradeable/proxy/utils/UUPSUpgradeable.sol\":3006:3137  function proxiableUUID() external view virtual override notDelegated returns (bytes32) {... */\n    tag_6:\n      callvalue\n      dup1\n      iszero\n      tag_39\n      jumpi\n      revert(0x00, 0x00)\n    tag_39:\n      pop\n      tag_40\n      tag_41\n      jump\t// in\n    tag_40:\n      mload(0x40)\n      tag_42\n      swap2\n      swap1\n      tag_43\n      jump\t// in\n    tag_42:\n      mload(0x40)\n      dup1\n      swap2\n      sub\n      swap1\n      return\n        /* \"contracts/NFTAuction.sol\":973:1031  mapping (address=>AggregatorV3Interface) public priceFeeds */\n    tag_7:\n      callvalue\n      dup1\n      iszero\n      tag_44\n      jumpi\n      revert(0x00, 0x00)\n    tag_44:\n      pop\n      tag_45\n      0x04\n      dup1\n      calldatasize\n      sub\n      dup2\n      add\n      swap1\n      tag_46\n      swap2\n      swap1\n      tag_28\n      jump\t// in\n    tag_46:\n      tag_47\n      jump\t// in\n    tag_45:\n      mload(0x40)\n      tag_48\n      swap2\n      swap1\n      tag_49\n      jump\t// in\n    tag_48:\n      mload(0x40)\n      dup1\n      swap2\n      sub\n      swap1\n      return\n        /* \"contracts/NFTAuction.sol\":1602:1759  function setPriceETHFeed(address _priceETHFeed, address tokenAddress) public {... */\n    tag_8:\n      callvalue\n      dup1\n      iszero\n      tag_50\n      jumpi\n      revert(0x00, 0x00)\n    tag_50:\n      pop\n      tag_51\n      0x04\n      dup1\n      calldatasize\n      sub\n      dup2\n      add\n      swap1\n      tag_52\n      swap2\n      swap1\n      tag_33\n      jump\t// in\n    tag_52:\n      tag_53\n      jump\t// in\n    tag_51:\n      stop\n        /* \"contracts/NFTAuction.sol\":2690:4052  function placeBid(uint256 _auctionId, uint256 _amount,address _tokenAddress) external payable {... */\n    tag_9:\n      tag_54\n      0x04\n      dup1\n      calldatasize\n      sub\n      dup2\n      add\n      swap1\n      tag_55\n      swap2\n      swap1\n      tag_56\n      jump\t// in\n    tag_55:\n      tag_57\n      jump\t// in\n    tag_54:\n      stop\n        /* \"contracts/NFTAuction.sol\":925:966  AggregatorV3Interface public ethPriceFeed */\n    tag_10:\n      callvalue\n      dup1\n      iszero\n      tag_58\n      jumpi\n      revert(0x00, 0x00)\n    tag_58:\n      pop\n      tag_59\n      tag_60\n      jump\t// in\n    tag_59:\n      mload(0x40)\n      tag_61\n      swap2\n      swap1\n      tag_49\n      jump\t// in\n    tag_61:\n      mload(0x40)\n      dup1\n      swap2\n      sub\n      swap1\n      return\n        /* \"contracts/NFTAuction.sol\":1771:2682  function createAuction (uint256 _duration, uint256 _startPrice, address _nftAddress, uint256 _nftId) public {... */\n    tag_11:\n      callvalue\n      dup1\n      iszero\n      tag_62\n      jumpi\n      revert(0x00, 0x00)\n    tag_62:\n      pop\n      tag_63\n      0x04\n      dup1\n      calldatasize\n      sub\n      dup2\n      add\n      swap1\n      tag_64\n      swap2\n      swap1\n      tag_65\n      jump\t// in\n    tag_64:\n      tag_66\n      jump\t// in\n    tag_63:\n      stop\n        /* \"contracts/NFTAuction.sol\":4877:5746  function sendCrossChainBid(uint64 _destinationChainId, uint256 _auctionId, uint256 _amount,address _tokenAddress) external payable {... */\n    tag_12:\n      tag_67\n      0x04\n      dup1\n      calldatasize\n      sub\n      dup2\n      add\n      swap1\n      tag_68\n      swap2\n      swap1\n      tag_69\n      jump\t// in\n    tag_68:\n      tag_70\n      jump\t// in\n    tag_67:\n      stop\n        /* \"contracts/NFTAuction.sol\":4060:4869  function endAuction(uint256 _auctionId) external{... */\n    tag_13:\n      callvalue\n      dup1\n      iszero\n      tag_71\n      jumpi\n      revert(0x00, 0x00)\n    tag_71:\n      pop\n      tag_72\n      0x04\n      dup1\n      calldatasize\n      sub\n      dup2\n      add\n      swap1\n      tag_73\n      swap2\n      swap1\n      tag_74\n      jump\t// in\n    tag_73:\n      tag_75\n      jump\t// in\n    tag_72:\n      stop\n        /* \"contracts/NFTAuction.sol\":814:856  mapping (uint256=>Auction) public Auctions */\n    tag_14:\n      callvalue\n      dup1\n      iszero\n      tag_76\n      jumpi\n      revert(0x00, 0x00)\n    tag_76:\n      pop\n      tag_77\n      0x04\n      dup1\n      calldatasize\n      sub\n      dup2\n      add\n      swap1\n      tag_78\n      swap2\n      swap1\n      tag_74\n      jump\t// in\n    tag_78:\n      tag_79\n      jump\t// in\n    tag_77:\n      mload(0x40)\n      tag_80\n      swap11\n      swap10\n      swap9\n      swap8\n      swap7\n      swap6\n      swap5\n      swap4\n      swap3\n      swap2\n      swap1\n      tag_81\n      jump\t// in\n    tag_80:\n      mload(0x40)\n      dup1\n      swap2\n      sub\n      swap1\n      return\n        /* \"contracts/NFTAuction.sol\":863:883  address public admin */\n    tag_15:\n      callvalue\n      dup1\n      iszero\n      tag_82\n      jumpi\n      revert(0x00, 0x00)\n    tag_82:\n      pop\n      tag_83\n      tag_84\n      jump\t// in\n    tag_83:\n      mload(0x40)\n      tag_85\n      swap2\n      swap1\n      tag_86\n      jump\t// in\n    tag_85:\n      mload(0x40)\n      dup1\n      swap2\n      sub\n      swap1\n      return\n        /* \"contracts/NFTAuction.sol\":890:918  uint256 public nextAuctionId */\n    tag_16:\n      callvalue\n      dup1\n      iszero\n      tag_87\n      jumpi\n      revert(0x00, 0x00)\n    tag_87:\n      pop\n      tag_88\n      tag_89\n      jump\t// in\n    tag_88:\n      mload(0x40)\n      tag_90\n      swap2\n      swap1\n      tag_91\n      jump\t// in\n    tag_90:\n      mload(0x40)\n      dup1\n      swap2\n      sub\n      swap1\n      return\n        /* \"contracts/NFTAuction.sol\":1038:1069  IRouterClient public ccipRouter */\n    tag_22:\n      0x6a\n      0x00\n      swap1\n      sload\n      swap1\n      0x0100\n      exp\n      swap1\n      div\n      0xffffffffffffffffffffffffffffffffffffffff\n      and\n      dup2\n      jump\t// out\n        /* \"@openzeppelin/contracts-upgradeable/proxy/utils/UUPSUpgradeable.sol\":3387:3582  function upgradeTo(address newImplementation) public virtual onlyProxy {... */\n    tag_29:\n        /* \"@openzeppelin/contracts-upgradeable/proxy/utils/UUPSUpgradeable.sol\":1898:1904  __self */\n      immutable(\"0x475386c12a355a2be633f36e14616f54fb4cdf6186740c1004169f5796b9cf16\")\n        /* \"@openzeppelin/contracts-upgradeable/proxy/utils/UUPSUpgradeable.sol\":1881:1904  address(this) != __self */\n      0xffffffffffffffffffffffffffffffffffffffff\n      and\n        /* \"@openzeppelin/contracts-upgradeable/proxy/utils/UUPSUpgradeable.sol\":1889:1893  this */\n      address\n        /* \"@openzeppelin/contracts-upgradeable/proxy/utils/UUPSUpgradeable.sol\":1881:1904  address(this) != __self */\n      0xffffffffffffffffffffffffffffffffffffffff\n      and\n      sub\n        /* \"@openzeppelin/contracts-upgradeable/proxy/utils/UUPSUpgradeable.sol\":1873:1953  require(address(this) != __self, \"Function must be called through delegatecall\") */\n      tag_93\n      jumpi\n      mload(0x40)\n      0x08c379a000000000000000000000000000000000000000000000000000000000\n      dup2\n      mstore\n      0x04\n      add\n      tag_94\n      swap1\n      tag_95\n      jump\t// in\n    tag_94:\n      mload(0x40)\n      dup1\n      swap2\n      sub\n      swap1\n      revert\n    tag_93:\n        /* \"@openzeppelin/contracts-upgradeable/proxy/utils/UUPSUpgradeable.sol\":1995:2001  __self */\n      immutable(\"0x475386c12a355a2be633f36e14616f54fb4cdf6186740c1004169f5796b9cf16\")\n        /* \"@openzeppelin/contracts-upgradeable/proxy/utils/UUPSUpgradeable.sol\":1971:2001  _getImplementation() == __self */\n      0xffffffffffffffffffffffffffffffffffffffff\n      and\n        /* \"@openzeppelin/contracts-upgradeable/proxy/utils/UUPSUpgradeable.sol\":1971:1991  _getImplementation() */\n      tag_96\n        /* \"@openzeppelin/contracts-upgradeable/proxy/utils/UUPSUpgradeable.sol\":1971:1989  _getImplementation */\n      tag_97\n        /* \"@openzeppelin/contracts-upgradeable/proxy/utils/UUPSUpgradeable.sol\":1971:1991  _getImplementation() */\n      jump\t// in\n    tag_96:\n        /* \"@openzeppelin/contracts-upgradeable/proxy/utils/UUPSUpgradeable.sol\":1971:2001  _getImplementation() == __self */\n      0xffffffffffffffffffffffffffffffffffffffff\n      and\n      eq\n        /* \"@openzeppelin/contracts-upgradeable/proxy/utils/UUPSUpgradeable.sol\":1963:2050  require(_getImplementation() == __self, \"Function must be called through active proxy\") */\n      tag_98\n      jumpi\n      mload(0x40)\n      0x08c379a000000000000000000000000000000000000000000000000000000000\n      dup2\n      mstore\n      0x04\n      add\n      tag_99\n      swap1\n      tag_100\n      jump\t// in\n    tag_99:\n      mload(0x40)\n      dup1\n      swap2\n      sub\n      swap1\n      revert\n    tag_98:\n        /* \"@openzeppelin/contracts-upgradeable/proxy/utils/UUPSUpgradeable.sol\":3468:3504  _authorizeUpgrade(newImplementation) */\n      tag_102\n        /* \"@openzeppelin/contracts-upgradeable/proxy/utils/UUPSUpgradeable.sol\":3486:3503  newImplementation */\n      dup2\n        /* \"@openzeppelin/contracts-upgradeable/proxy/utils/UUPSUpgradeable.sol\":3468:3485  _authorizeUpgrade */\n      tag_103\n        /* \"@openzeppelin/contracts-upgradeable/proxy/utils/UUPSUpgradeable.sol\":3468:3504  _authorizeUpgrade(newImplementation) */\n      jump\t// in\n    tag_102:\n        /* \"@openzeppelin/contracts-upgradeable/proxy/utils/UUPSUpgradeable.sol\":3514:3575  _upgradeToAndCallUUPS(newImplementation, new bytes(0), false) */\n      tag_104\n        /* \"@openzeppelin/contracts-upgradeable/proxy/utils/UUPSUpgradeable.sol\":3536:3553  newImplementation */\n      dup2\n        /* \"@openzeppelin/contracts-upgradeable/proxy/utils/UUPSUpgradeable.sol\":3565:3566  0 */\n      0x00\n        /* \"@openzeppelin/contracts-upgradeable/proxy/utils/UUPSUpgradeable.sol\":3555:3567  new bytes(0) */\n      0xffffffffffffffff\n      dup2\n      gt\n      iszero\n      tag_105\n      jumpi\n      tag_106\n      tag_107\n      jump\t// in\n    tag_106:\n    tag_105:\n      mload(0x40)\n      swap1\n      dup1\n      dup3\n      mstore\n      dup1\n      0x1f\n      add\n      not(0x1f)\n      and\n      0x20\n      add\n      dup3\n      add\n      0x40\n      mstore\n      dup1\n      iszero\n      tag_108\n      jumpi\n      dup2\n      0x20\n      add\n      0x01\n      dup3\n      mul\n      dup1\n      calldatasize\n      dup4\n      calldatacopy\n      dup1\n      dup3\n      add\n      swap2\n      pop\n      pop\n      swap1\n      pop\n    tag_108:\n      pop\n        /* \"@openzeppelin/contracts-upgradeable/proxy/utils/UUPSUpgradeable.sol\":3569:3574  false */\n      0x00\n        /* \"@openzeppelin/contracts-upgradeable/proxy/utils/UUPSUpgradeable.sol\":3514:3535  _upgradeToAndCallUUPS */\n      tag_109\n        /* \"@openzeppelin/contracts-upgradeable/proxy/utils/UUPSUpgradeable.sol\":3514:3575  _upgradeToAndCallUUPS(newImplementation, new bytes(0), false) */\n      jump\t// in\n    tag_104:\n        /* \"@openzeppelin/contracts-upgradeable/proxy/utils/UUPSUpgradeable.sol\":3387:3582  function upgradeTo(address newImplementation) public virtual onlyProxy {... */\n      pop\n      jump\t// out\n        /* \"contracts/NFTAuction.sol\":1331:1594  function initialize(address _ccipRouter,address _ethPriceFeed) public initializer{... */\n    tag_34:\n        /* \"@openzeppelin/contracts-upgradeable/proxy/utils/Initializable.sol\":3279:3298  bool isTopLevelCall */\n      0x00\n        /* \"@openzeppelin/contracts-upgradeable/proxy/utils/Initializable.sol\":3302:3315  _initializing */\n      0x00\n      0x01\n      swap1\n      sload\n      swap1\n      0x0100\n      exp\n      swap1\n      div\n      0xff\n      and\n        /* \"@openzeppelin/contracts-upgradeable/proxy/utils/Initializable.sol\":3301:3315  !_initializing */\n      iszero\n        /* \"@openzeppelin/contracts-upgradeable/proxy/utils/Initializable.sol\":3279:3315  bool isTopLevelCall = !_initializing */\n      swap1\n      pop\n        /* \"@openzeppelin/contracts-upgradeable/proxy/utils/Initializable.sol\":3347:3361  isTopLevelCall */\n      dup1\n        /* \"@openzeppelin/contracts-upgradeable/proxy/utils/Initializable.sol\":3347:3381  isTopLevelCall && _initialized < 1 */\n      dup1\n      iszero\n      tag_111\n      jumpi\n      pop\n        /* \"@openzeppelin/contracts-upgradeable/proxy/utils/Initializable.sol\":3380:3381  1 */\n      0x01\n        /* \"@openzeppelin/contracts-upgradeable/proxy/utils/Initializable.sol\":3365:3377  _initialized */\n      0x00\n      0x00\n      swap1\n      sload\n      swap1\n      0x0100\n      exp\n      swap1\n      div\n      0xff\n      and\n        /* \"@openzeppelin/contracts-upgradeable/proxy/utils/Initializable.sol\":3365:3381  _initialized < 1 */\n      0xff\n      and\n      lt\n        /* \"@openzeppelin/contracts-upgradeable/proxy/utils/Initializable.sol\":3347:3381  isTopLevelCall && _initialized < 1 */\n    tag_111:\n        /* \"@openzeppelin/contracts-upgradeable/proxy/utils/Initializable.sol\":3346:3454  (isTopLevelCall && _initialized < 1) || (!AddressUpgradeable.isContract(address(this)) && _initialized == 1) */\n      dup1\n      tag_112\n      jumpi\n      pop\n        /* \"@openzeppelin/contracts-upgradeable/proxy/utils/Initializable.sol\":3388:3432  AddressUpgradeable.isContract(address(this)) */\n      tag_113\n        /* \"@openzeppelin/contracts-upgradeable/proxy/utils/Initializable.sol\":3426:3430  this */\n      address\n        /* \"@openzeppelin/contracts-upgradeable/proxy/utils/Initializable.sol\":3388:3417  AddressUpgradeable.isContract */\n      tag_114\n        /* \"@openzeppelin/contracts-upgradeable/proxy/utils/Initializable.sol\":3388:3432  AddressUpgradeable.isContract(address(this)) */\n      jump\t// in\n    tag_113:\n        /* \"@openzeppelin/contracts-upgradeable/proxy/utils/Initializable.sol\":3387:3432  !AddressUpgradeable.isContract(address(this)) */\n      iszero\n        /* \"@openzeppelin/contracts-upgradeable/proxy/utils/Initializable.sol\":3387:3453  !AddressUpgradeable.isContract(address(this)) && _initialized == 1 */\n      dup1\n      iszero\n      tag_115\n      jumpi\n      pop\n        /* \"@openzeppelin/contracts-upgradeable/proxy/utils/Initializable.sol\":3452:3453  1 */\n      0x01\n        /* \"@openzeppelin/contracts-upgradeable/proxy/utils/Initializable.sol\":3436:3448  _initialized */\n      0x00\n      0x00\n      swap1\n      sload\n      swap1\n      0x0100\n      exp\n      swap1\n      div\n      0xff\n      and\n        /* \"@openzeppelin/contracts-upgradeable/proxy/utils/Initializable.sol\":3436:3453  _initialized == 1 */\n      0xff\n      and\n      eq\n        /* \"@openzeppelin/contracts-upgradeable/proxy/utils/Initializable.sol\":3387:3453  !AddressUpgradeable.isContract(address(this)) && _initialized == 1 */\n    tag_115:\n        /* \"@openzeppelin/contracts-upgradeable/proxy/utils/Initializable.sol\":3346:3454  (isTopLevelCall && _initialized < 1) || (!AddressUpgradeable.isContract(address(this)) && _initialized == 1) */\n    tag_112:\n        /* \"@openzeppelin/contracts-upgradeable/proxy/utils/Initializable.sol\":3325:3526  require(... */\n      tag_116\n      jumpi\n      mload(0x40)\n      0x08c379a000000000000000000000000000000000000000000000000000000000\n      dup2\n      mstore\n      0x04\n      add\n      tag_117\n      swap1\n      tag_118\n      jump\t// in\n    tag_117:\n      mload(0x40)\n      dup1\n      swap2\n      sub\n      swap1\n      revert\n    tag_116:\n        /* \"@openzeppelin/contracts-upgradeable/proxy/utils/Initializable.sol\":3551:3552  1 */\n      0x01\n        /* \"@openzeppelin/contracts-upgradeable/proxy/utils/Initializable.sol\":3536:3548  _initialized */\n      0x00\n      0x00\n        /* \"@openzeppelin/contracts-upgradeable/proxy/utils/Initializable.sol\":3536:3552  _initialized = 1 */\n      0x0100\n      exp\n      dup2\n      sload\n      dup2\n      0xff\n      mul\n      not\n      and\n      swap1\n      dup4\n      0xff\n      and\n      mul\n      or\n      swap1\n      sstore\n      pop\n        /* \"@openzeppelin/contracts-upgradeable/proxy/utils/Initializable.sol\":3566:3580  isTopLevelCall */\n      dup1\n        /* \"@openzeppelin/contracts-upgradeable/proxy/utils/Initializable.sol\":3562:3627  if (isTopLevelCall) {... */\n      iszero\n      tag_119\n      jumpi\n        /* \"@openzeppelin/contracts-upgradeable/proxy/utils/Initializable.sol\":3612:3616  true */\n      0x01\n        /* \"@openzeppelin/contracts-upgradeable/proxy/utils/Initializable.sol\":3596:3609  _initializing */\n      0x00\n      0x01\n        /* \"@openzeppelin/contracts-upgradeable/proxy/utils/Initializable.sol\":3596:3616  _initializing = true */\n      0x0100\n      exp\n      dup2\n      sload\n      dup2\n      0xff\n      mul\n      not\n      and\n      swap1\n      dup4\n      iszero\n      iszero\n      mul\n      or\n      swap1\n      sstore\n      pop\n        /* \"@openzeppelin/contracts-upgradeable/proxy/utils/Initializable.sol\":3562:3627  if (isTopLevelCall) {... */\n    tag_119:\n        /* \"contracts/NFTAuction.sol\":1423:1447  __UUPSUpgradeable_init() */\n      tag_121\n        /* \"contracts/NFTAuction.sol\":1423:1445  __UUPSUpgradeable_init */\n      tag_122\n        /* \"contracts/NFTAuction.sol\":1423:1447  __UUPSUpgradeable_init() */\n      jump\t// in\n    tag_121:\n        /* \"contracts/NFTAuction.sol\":1466:1476  msg.sender */\n      caller\n        /* \"contracts/NFTAuction.sol\":1458:1463  admin */\n      0x66\n      0x00\n        /* \"contracts/NFTAuction.sol\":1458:1476  admin = msg.sender */\n      0x0100\n      exp\n      dup2\n      sload\n      dup2\n      0xffffffffffffffffffffffffffffffffffffffff\n      mul\n      not\n      and\n      swap1\n      dup4\n      0xffffffffffffffffffffffffffffffffffffffff\n      and\n      mul\n      or\n      swap1\n      sstore\n      pop\n        /* \"contracts/NFTAuction.sol\":1522:1535  _ethPriceFeed */\n      dup2\n        /* \"contracts/NFTAuction.sol\":1487:1499  ethPriceFeed */\n      0x68\n      0x00\n        /* \"contracts/NFTAuction.sol\":1487:1536  ethPriceFeed=AggregatorV3Interface(_ethPriceFeed) */\n      0x0100\n      exp\n      dup2\n      sload\n      dup2\n      0xffffffffffffffffffffffffffffffffffffffff\n      mul\n      not\n      and\n      swap1\n      dup4\n      0xffffffffffffffffffffffffffffffffffffffff\n      and\n      mul\n      or\n      swap1\n      sstore\n      pop\n        /* \"contracts/NFTAuction.sol\":1574:1585  _ccipRouter */\n      dup3\n        /* \"contracts/NFTAuction.sol\":1547:1557  ccipRouter */\n      0x6a\n      0x00\n        /* \"contracts/NFTAuction.sol\":1547:1586  ccipRouter = IRouterClient(_ccipRouter) */\n      0x0100\n      exp\n      dup2\n      sload\n      dup2\n      0xffffffffffffffffffffffffffffffffffffffff\n      mul\n      not\n      and\n      swap1\n      dup4\n      0xffffffffffffffffffffffffffffffffffffffff\n      and\n      mul\n      or\n      swap1\n      sstore\n      pop\n        /* \"@openzeppelin/contracts-upgradeable/proxy/utils/Initializable.sol\":3651:3665  isTopLevelCall */\n      dup1\n        /* \"@openzeppelin/contracts-upgradeable/proxy/utils/Initializable.sol\":3647:3746  if (isTopLevelCall) {... */\n      iszero\n      tag_123\n      jumpi\n        /* \"@openzeppelin/contracts-upgradeable/proxy/utils/Initializable.sol\":3697:3702  false */\n      0x00\n        /* \"@openzeppelin/contracts-upgradeable/proxy/utils/Initializable.sol\":3681:3694  _initializing */\n      0x00\n      0x01\n        /* \"@openzeppelin/contracts-upgradeable/proxy/utils/Initializable.sol\":3681:3702  _initializing = false */\n      0x0100\n      exp\n      dup2\n      sload\n      dup2\n      0xff\n      mul\n      not\n      and\n      swap1\n      dup4\n      iszero\n      iszero\n      mul\n      or\n      swap1\n      sstore\n      pop\n        /* \"@openzeppelin/contracts-upgradeable/proxy/utils/Initializable.sol\":3721:3735  Initialized(1) */\n      0x7f26b83ff96e1f2b6a682f133852f6798a09c465da95921460cefb3847402498\n        /* \"@openzeppelin/contracts-upgradeable/proxy/utils/Initializable.sol\":3733:3734  1 */\n      0x01\n        /* \"@openzeppelin/contracts-upgradeable/proxy/utils/Initializable.sol\":3721:3735  Initialized(1) */\n      mload(0x40)\n      tag_124\n      swap2\n      swap1\n      tag_125\n      jump\t// in\n    tag_124:\n      mload(0x40)\n      dup1\n      swap2\n      sub\n      swap1\n      log1\n        /* \"@openzeppelin/contracts-upgradeable/proxy/utils/Initializable.sol\":3647:3746  if (isTopLevelCall) {... */\n    tag_123:\n        /* \"@openzeppelin/contracts-upgradeable/proxy/utils/Initializable.sol\":3269:3752  {... */\n      pop\n        /* \"contracts/NFTAuction.sol\":1331:1594  function initialize(address _ccipRouter,address _ethPriceFeed) public initializer{... */\n      pop\n      pop\n      jump\t// out\n        /* \"@openzeppelin/contracts-upgradeable/proxy/utils/UUPSUpgradeable.sol\":3901:4121  function upgradeToAndCall(address newImplementation, bytes memory data) public payable virtual onlyProxy {... */\n    tag_38:\n        /* \"@openzeppelin/contracts-upgradeable/proxy/utils/UUPSUpgradeable.sol\":1898:1904  __self */\n      immutable(\"0x475386c12a355a2be633f36e14616f54fb4cdf6186740c1004169f5796b9cf16\")\n        /* \"@openzeppelin/contracts-upgradeable/proxy/utils/UUPSUpgradeable.sol\":1881:1904  address(this) != __self */\n      0xffffffffffffffffffffffffffffffffffffffff\n      and\n        /* \"@openzeppelin/contracts-upgradeable/proxy/utils/UUPSUpgradeable.sol\":1889:1893  this */\n      address\n        /* \"@openzeppelin/contracts-upgradeable/proxy/utils/UUPSUpgradeable.sol\":1881:1904  address(this) != __self */\n      0xffffffffffffffffffffffffffffffffffffffff\n      and\n      sub\n        /* \"@openzeppelin/contracts-upgradeable/proxy/utils/UUPSUpgradeable.sol\":1873:1953  require(address(this) != __self, \"Function must be called through delegatecall\") */\n      tag_127\n      jumpi\n      mload(0x40)\n      0x08c379a000000000000000000000000000000000000000000000000000000000\n      dup2\n      mstore\n      0x04\n      add\n      tag_128\n      swap1\n      tag_95\n      jump\t// in\n    tag_128:\n      mload(0x40)\n      dup1\n      swap2\n      sub\n      swap1\n      revert\n    tag_127:\n        /* \"@openzeppelin/contracts-upgradeable/proxy/utils/UUPSUpgradeable.sol\":1995:2001  __self */\n      immutable(\"0x475386c12a355a2be633f36e14616f54fb4cdf6186740c1004169f5796b9cf16\")\n        /* \"@openzeppelin/contracts-upgradeable/proxy/utils/UUPSUpgradeable.sol\":1971:2001  _getImplementation() == __self */\n      0xffffffffffffffffffffffffffffffffffffffff\n      and\n        /* \"@openzeppelin/contracts-upgradeable/proxy/utils/UUPSUpgradeable.sol\":1971:1991  _getImplementation() */\n      tag_129\n        /* \"@openzeppelin/contracts-upgradeable/proxy/utils/UUPSUpgradeable.sol\":1971:1989  _getImplementation */\n      tag_97\n        /* \"@openzeppelin/contracts-upgradeable/proxy/utils/UUPSUpgradeable.sol\":1971:1991  _getImplementation() */\n      jump\t// in\n    tag_129:\n        /* \"@openzeppelin/contracts-upgradeable/proxy/utils/UUPSUpgradeable.sol\":1971:2001  _getImplementation() == __self */\n      0xffffffffffffffffffffffffffffffffffffffff\n      and\n      eq\n        /* \"@openzeppelin/contracts-upgradeable/proxy/utils/UUPSUpgradeable.sol\":1963:2050  require(_getImplementation() == __self, \"Function must be called through active proxy\") */\n      tag_130\n      jumpi\n      mload(0x40)\n      0x08c379a000000000000000000000000000000000000000000000000000000000\n      dup2\n      mstore\n      0x04\n      add\n      tag_131\n      swap1\n      tag_100\n      jump\t// in\n    tag_131:\n      mload(0x40)\n      dup1\n      swap2\n      sub\n      swap1\n      revert\n    tag_130:\n        /* \"@openzeppelin/contracts-upgradeable/proxy/utils/UUPSUpgradeable.sol\":4016:4052  _authorizeUpgrade(newImplementation) */\n      tag_133\n        /* \"@openzeppelin/contracts-upgradeable/proxy/utils/UUPSUpgradeable.sol\":4034:4051  newImplementation */\n      dup3\n        /* \"@openzeppelin/contracts-upgradeable/proxy/utils/UUPSUpgradeable.sol\":4016:4033  _authorizeUpgrade */\n      tag_103\n        /* \"@openzeppelin/contracts-upgradeable/proxy/utils/UUPSUpgradeable.sol\":4016:4052  _authorizeUpgrade(newImplementation) */\n      jump\t// in\n    tag_133:\n        /* \"@openzeppelin/contracts-upgradeable/proxy/utils/UUPSUpgradeable.sol\":4062:4114  _upgradeToAndCallUUPS(newImplementation, data, true) */\n      tag_134\n        /* \"@openzeppelin/contracts-upgradeable/proxy/utils/UUPSUpgradeable.sol\":4084:4101  newImplementation */\n      dup3\n        /* \"@openzeppelin/contracts-upgradeable/proxy/utils/UUPSUpgradeable.sol\":4103:4107  data */\n      dup3\n        /* \"@openzeppelin/contracts-upgradeable/proxy/utils/UUPSUpgradeable.sol\":4109:4113  true */\n      0x01\n        /* \"@openzeppelin/contracts-upgradeable/proxy/utils/UUPSUpgradeable.sol\":4062:4083  _upgradeToAndCallUUPS */\n      tag_109\n        /* \"@openzeppelin/contracts-upgradeable/proxy/utils/UUPSUpgradeable.sol\":4062:4114  _upgradeToAndCallUUPS(newImplementation, data, true) */\n      jump\t// in\n    tag_134:\n        /* \"@openzeppelin/contracts-upgradeable/proxy/utils/UUPSUpgradeable.sol\":3901:4121  function upgradeToAndCall(address newImplementation, bytes memory data) public payable virtual onlyProxy {... */\n      pop\n      pop\n      jump\t// out\n        /* \"@openzeppelin/contracts-upgradeable/proxy/utils/UUPSUpgradeable.sol\":3006:3137  function proxiableUUID() external view virtual override notDelegated returns (bytes32) {... */\n    tag_41:\n        /* \"@openzeppelin/contracts-upgradeable/proxy/utils/UUPSUpgradeable.sol\":3084:3091  bytes32 */\n      0x00\n        /* \"@openzeppelin/contracts-upgradeable/proxy/utils/UUPSUpgradeable.sol\":2333:2339  __self */\n      immutable(\"0x475386c12a355a2be633f36e14616f54fb4cdf6186740c1004169f5796b9cf16\")\n        /* \"@openzeppelin/contracts-upgradeable/proxy/utils/UUPSUpgradeable.sol\":2316:2339  address(this) == __self */\n      0xffffffffffffffffffffffffffffffffffffffff\n      and\n        /* \"@openzeppelin/contracts-upgradeable/proxy/utils/UUPSUpgradeable.sol\":2324:2328  this */\n      address\n        /* \"@openzeppelin/contracts-upgradeable/proxy/utils/UUPSUpgradeable.sol\":2316:2339  address(this) == __self */\n      0xffffffffffffffffffffffffffffffffffffffff\n      and\n      eq\n        /* \"@openzeppelin/contracts-upgradeable/proxy/utils/UUPSUpgradeable.sol\":2308:2400  require(address(this) == __self, \"UUPSUpgradeable: must not be called through delegatecall\") */\n      tag_136\n      jumpi\n      mload(0x40)\n      0x08c379a000000000000000000000000000000000000000000000000000000000\n      dup2\n      mstore\n      0x04\n      add\n      tag_137\n      swap1\n      tag_138\n      jump\t// in\n    tag_137:\n      mload(0x40)\n      dup1\n      swap2\n      sub\n      swap1\n      revert\n    tag_136:\n        /* \"@openzeppelin/contracts-upgradeable/proxy/ERC1967/ERC1967UpgradeUpgradeable.sol\":1312:1378  0x360894a13ba1a3210667c828492db98dca3e2076cc3735a920a3ca505d382bbc */\n      0x360894a13ba1a3210667c828492db98dca3e2076cc3735a920a3ca505d382bbc\n        /* \"@openzeppelin/contracts-upgradeable/proxy/utils/UUPSUpgradeable.sol\":3110:3130  _IMPLEMENTATION_SLOT */\n      0x00\n      shl\n        /* \"@openzeppelin/contracts-upgradeable/proxy/utils/UUPSUpgradeable.sol\":3103:3130  return _IMPLEMENTATION_SLOT */\n      swap1\n      pop\n        /* \"@openzeppelin/contracts-upgradeable/proxy/utils/UUPSUpgradeable.sol\":3006:3137  function proxiableUUID() external view virtual override notDelegated returns (bytes32) {... */\n      swap1\n      jump\t// out\n        /* \"contracts/NFTAuction.sol\":973:1031  mapping (address=>AggregatorV3Interface) public priceFeeds */\n    tag_47:\n      mstore(0x20, 0x69)\n      dup1\n      0x00\n      mstore\n      keccak256(0x00, 0x40)\n      0x00\n      swap2\n      pop\n      sload\n      swap1\n      0x0100\n      exp\n      swap1\n      div\n      0xffffffffffffffffffffffffffffffffffffffff\n      and\n      dup2\n      jump\t// out\n        /* \"contracts/NFTAuction.sol\":1602:1759  function setPriceETHFeed(address _priceETHFeed, address tokenAddress) public {... */\n    tag_53:\n        /* \"contracts/NFTAuction.sol\":1737:1750  _priceETHFeed */\n      dup2\n        /* \"contracts/NFTAuction.sol\":1690:1700  priceFeeds */\n      0x69\n        /* \"contracts/NFTAuction.sol\":1690:1714  priceFeeds[tokenAddress] */\n      0x00\n        /* \"contracts/NFTAuction.sol\":1701:1713  tokenAddress */\n      dup4\n        /* \"contracts/NFTAuction.sol\":1690:1714  priceFeeds[tokenAddress] */\n      0xffffffffffffffffffffffffffffffffffffffff\n      and\n      0xffffffffffffffffffffffffffffffffffffffff\n      and\n      dup2\n      mstore\n      0x20\n      add\n      swap1\n      dup2\n      mstore\n      0x20\n      add\n      0x00\n      keccak256\n      0x00\n        /* \"contracts/NFTAuction.sol\":1690:1751  priceFeeds[tokenAddress]=AggregatorV3Interface(_priceETHFeed) */\n      0x0100\n      exp\n      dup2\n      sload\n      dup2\n      0xffffffffffffffffffffffffffffffffffffffff\n      mul\n      not\n      and\n      swap1\n      dup4\n      0xffffffffffffffffffffffffffffffffffffffff\n      and\n      mul\n      or\n      swap1\n      sstore\n      pop\n        /* \"contracts/NFTAuction.sol\":1602:1759  function setPriceETHFeed(address _priceETHFeed, address tokenAddress) public {... */\n      pop\n      pop\n      jump\t// out\n        /* \"contracts/NFTAuction.sol\":2690:4052  function placeBid(uint256 _auctionId, uint256 _amount,address _tokenAddress) external payable {... */\n    tag_57:\n        /* \"contracts/NFTAuction.sol\":2795:2818  Auction storage auction */\n      0x00\n        /* \"contracts/NFTAuction.sol\":2821:2829  Auctions */\n      0x65\n        /* \"contracts/NFTAuction.sol\":2821:2841  Auctions[_auctionId] */\n      0x00\n        /* \"contracts/NFTAuction.sol\":2830:2840  _auctionId */\n      dup6\n        /* \"contracts/NFTAuction.sol\":2821:2841  Auctions[_auctionId] */\n      dup2\n      mstore\n      0x20\n      add\n      swap1\n      dup2\n      mstore\n      0x20\n      add\n      0x00\n      keccak256\n        /* \"contracts/NFTAuction.sol\":2795:2841  Auction storage auction = Auctions[_auctionId] */\n      swap1\n      pop\n        /* \"contracts/NFTAuction.sol\":2861:2868  auction */\n      dup1\n        /* \"contracts/NFTAuction.sol\":2861:2876  auction.isended */\n      0x04\n      add\n      0x00\n      swap1\n      sload\n      swap1\n      0x0100\n      exp\n      swap1\n      div\n      0xff\n      and\n        /* \"contracts/NFTAuction.sol\":2860:2876  !auction.isended */\n      iszero\n        /* \"contracts/NFTAuction.sol\":2860:2929  !auction.isended&&block.timestamp>=auction.startTime+auction.duration */\n      dup1\n      iszero\n      tag_142\n      jumpi\n      pop\n        /* \"contracts/NFTAuction.sol\":2913:2920  auction */\n      dup1\n        /* \"contracts/NFTAuction.sol\":2913:2929  auction.duration */\n      0x03\n      add\n      sload\n        /* \"contracts/NFTAuction.sol\":2895:2902  auction */\n      dup2\n        /* \"contracts/NFTAuction.sol\":2895:2912  auction.startTime */\n      0x02\n      add\n      sload\n        /* \"contracts/NFTAuction.sol\":2895:2929  auction.startTime+auction.duration */\n      tag_143\n      swap2\n      swap1\n      tag_144\n      jump\t// in\n    tag_143:\n        /* \"contracts/NFTAuction.sol\":2878:2893  block.timestamp */\n      timestamp\n        /* \"contracts/NFTAuction.sol\":2878:2929  block.timestamp>=auction.startTime+auction.duration */\n      lt\n      iszero\n        /* \"contracts/NFTAuction.sol\":2860:2929  !auction.isended&&block.timestamp>=auction.startTime+auction.duration */\n    tag_142:\n        /* \"contracts/NFTAuction.sol\":2852:2958  require(!auction.isended&&block.timestamp>=auction.startTime+auction.duration,\"Auction has already ended\") */\n      tag_145\n      jumpi\n      mload(0x40)\n      0x08c379a000000000000000000000000000000000000000000000000000000000\n      dup2\n      mstore\n      0x04\n      add\n      tag_146\n      swap1\n      tag_147\n      jump\t// in\n    tag_146:\n      mload(0x40)\n      dup1\n      swap2\n      sub\n      swap1\n      revert\n    tag_145:\n        /* \"contracts/NFTAuction.sol\":2979:2995  uint256 payValue */\n      0x00\n        /* \"contracts/NFTAuction.sol\":2998:3034  _convertToUSD(_amount,_tokenAddress) */\n      tag_148\n        /* \"contracts/NFTAuction.sol\":3012:3019  _amount */\n      dup5\n        /* \"contracts/NFTAuction.sol\":3020:3033  _tokenAddress */\n      dup5\n        /* \"contracts/NFTAuction.sol\":2998:3011  _convertToUSD */\n      tag_149\n        /* \"contracts/NFTAuction.sol\":2998:3034  _convertToUSD(_amount,_tokenAddress) */\n      jump\t// in\n    tag_148:\n        /* \"contracts/NFTAuction.sol\":2979:3034  uint256 payValue = _convertToUSD(_amount,_tokenAddress) */\n      swap1\n      pop\n        /* \"contracts/NFTAuction.sol\":3045:3068  uint256 startPriceValue */\n      0x00\n        /* \"contracts/NFTAuction.sol\":3071:3125  _convertToUSD(auction.startPrice,auction.tokenAddress) */\n      tag_150\n        /* \"contracts/NFTAuction.sol\":3085:3092  auction */\n      dup4\n        /* \"contracts/NFTAuction.sol\":3085:3103  auction.startPrice */\n      0x01\n      add\n      sload\n        /* \"contracts/NFTAuction.sol\":3104:3111  auction */\n      dup5\n        /* \"contracts/NFTAuction.sol\":3104:3124  auction.tokenAddress */\n      0x09\n      add\n      0x00\n      swap1\n      sload\n      swap1\n      0x0100\n      exp\n      swap1\n      div\n      0xffffffffffffffffffffffffffffffffffffffff\n      and\n        /* \"contracts/NFTAuction.sol\":3071:3084  _convertToUSD */\n      tag_149\n        /* \"contracts/NFTAuction.sol\":3071:3125  _convertToUSD(auction.startPrice,auction.tokenAddress) */\n      jump\t// in\n    tag_150:\n        /* \"contracts/NFTAuction.sol\":3045:3125  uint256 startPriceValue = _convertToUSD(auction.startPrice,auction.tokenAddress) */\n      swap1\n      pop\n        /* \"contracts/NFTAuction.sol\":3136:3159  uint256 highestBidValue */\n      0x00\n        /* \"contracts/NFTAuction.sol\":3162:3216  _convertToUSD(auction.highestBid,auction.tokenAddress) */\n      tag_151\n        /* \"contracts/NFTAuction.sol\":3176:3183  auction */\n      dup5\n        /* \"contracts/NFTAuction.sol\":3176:3194  auction.highestBid */\n      0x05\n      add\n      sload\n        /* \"contracts/NFTAuction.sol\":3195:3202  auction */\n      dup6\n        /* \"contracts/NFTAuction.sol\":3195:3215  auction.tokenAddress */\n      0x09\n      add\n      0x00\n      swap1\n      sload\n      swap1\n      0x0100\n      exp\n      swap1\n      div\n      0xffffffffffffffffffffffffffffffffffffffff\n      and\n        /* \"contracts/NFTAuction.sol\":3162:3175  _convertToUSD */\n      tag_149\n        /* \"contracts/NFTAuction.sol\":3162:3216  _convertToUSD(auction.highestBid,auction.tokenAddress) */\n      jump\t// in\n    tag_151:\n        /* \"contracts/NFTAuction.sol\":3136:3216  uint256 highestBidValue = _convertToUSD(auction.highestBid,auction.tokenAddress) */\n      swap1\n      pop\n        /* \"contracts/NFTAuction.sol\":3247:3262  startPriceValue */\n      dup2\n        /* \"contracts/NFTAuction.sol\":3237:3245  payValue */\n      dup4\n        /* \"contracts/NFTAuction.sol\":3237:3262  payValue>=startPriceValue */\n      lt\n      iszero\n        /* \"contracts/NFTAuction.sol\":3237:3288  payValue>=startPriceValue&&payValue>highestBidValue */\n      dup1\n      iszero\n      tag_152\n      jumpi\n      pop\n        /* \"contracts/NFTAuction.sol\":3273:3288  highestBidValue */\n      dup1\n        /* \"contracts/NFTAuction.sol\":3264:3272  payValue */\n      dup4\n        /* \"contracts/NFTAuction.sol\":3264:3288  payValue>highestBidValue */\n      gt\n        /* \"contracts/NFTAuction.sol\":3237:3288  payValue>=startPriceValue&&payValue>highestBidValue */\n    tag_152:\n        /* \"contracts/NFTAuction.sol\":3229:3303  require(payValue>=startPriceValue&&payValue>highestBidValue,\"Bid too low\") */\n      tag_153\n      jumpi\n      mload(0x40)\n      0x08c379a000000000000000000000000000000000000000000000000000000000\n      dup2\n      mstore\n      0x04\n      add\n      tag_154\n      swap1\n      tag_155\n      jump\t// in\n    tag_154:\n      mload(0x40)\n      dup1\n      swap2\n      sub\n      swap1\n      revert\n    tag_153:\n        /* \"contracts/NFTAuction.sol\":3342:3343  0 */\n      0x00\n        /* \"contracts/NFTAuction.sol\":3319:3344  _tokenAddress==address(0) */\n      0xffffffffffffffffffffffffffffffffffffffff\n      and\n        /* \"contracts/NFTAuction.sol\":3319:3332  _tokenAddress */\n      dup6\n        /* \"contracts/NFTAuction.sol\":3319:3344  _tokenAddress==address(0) */\n      0xffffffffffffffffffffffffffffffffffffffff\n      and\n      sub\n        /* \"contracts/NFTAuction.sol\":3316:3523  if(_tokenAddress==address(0)){... */\n      tag_156\n      jumpi\n        /* \"contracts/NFTAuction.sol\":3379:3386  _amount */\n      dup6\n        /* \"contracts/NFTAuction.sol\":3368:3377  msg.value */\n      callvalue\n        /* \"contracts/NFTAuction.sol\":3368:3386  msg.value==_amount */\n      eq\n        /* \"contracts/NFTAuction.sol\":3360:3409  require(msg.value==_amount,\"ETH amount mismatch\") */\n      tag_157\n      jumpi\n      mload(0x40)\n      0x08c379a000000000000000000000000000000000000000000000000000000000\n      dup2\n      mstore\n      0x04\n      add\n      tag_158\n      swap1\n      tag_159\n      jump\t// in\n    tag_158:\n      mload(0x40)\n      dup1\n      swap2\n      sub\n      swap1\n      revert\n    tag_157:\n        /* \"contracts/NFTAuction.sol\":3316:3523  if(_tokenAddress==address(0)){... */\n      jump(tag_160)\n    tag_156:\n        /* \"contracts/NFTAuction.sol\":3450:3463  _tokenAddress */\n      dup5\n        /* \"contracts/NFTAuction.sol\":3443:3477  IERC20(_tokenAddress).transferFrom */\n      0xffffffffffffffffffffffffffffffffffffffff\n      and\n      0x23b872dd\n        /* \"contracts/NFTAuction.sol\":3478:3488  msg.sender */\n      caller\n        /* \"contracts/NFTAuction.sol\":3497:3501  this */\n      address\n        /* \"contracts/NFTAuction.sol\":3503:3510  _amount */\n      dup10\n        /* \"contracts/NFTAuction.sol\":3443:3511  IERC20(_tokenAddress).transferFrom(msg.sender,address(this),_amount) */\n      mload(0x40)\n      dup5\n      0xffffffff\n      and\n      0xe0\n      shl\n      dup2\n      mstore\n      0x04\n      add\n      tag_161\n      swap4\n      swap3\n      swap2\n      swap1\n      tag_162\n      jump\t// in\n    tag_161:\n      0x20\n      mload(0x40)\n      dup1\n      dup4\n      sub\n      dup2\n      0x00\n      dup8\n      gas\n      call\n      iszero\n      dup1\n      iszero\n      tag_164\n      jumpi\n      returndatacopy(0x00, 0x00, returndatasize)\n      revert(0x00, returndatasize)\n    tag_164:\n      pop\n      pop\n      pop\n      pop\n      mload(0x40)\n      returndatasize\n      not(0x1f)\n      0x1f\n      dup3\n      add\n      and\n      dup3\n      add\n      dup1\n      0x40\n      mstore\n      pop\n      dup2\n      add\n      swap1\n      tag_165\n      swap2\n      swap1\n      tag_166\n      jump\t// in\n    tag_165:\n      pop\n        /* \"contracts/NFTAuction.sol\":3316:3523  if(_tokenAddress==address(0)){... */\n    tag_160:\n        /* \"contracts/NFTAuction.sol\":3569:3570  0 */\n      0x00\n        /* \"contracts/NFTAuction.sol\":3538:3571  auction.highestBidder!=address(0) */\n      0xffffffffffffffffffffffffffffffffffffffff\n      and\n        /* \"contracts/NFTAuction.sol\":3538:3545  auction */\n      dup5\n        /* \"contracts/NFTAuction.sol\":3538:3559  auction.highestBidder */\n      0x06\n      add\n      0x00\n      swap1\n      sload\n      swap1\n      0x0100\n      exp\n      swap1\n      div\n      0xffffffffffffffffffffffffffffffffffffffff\n      and\n        /* \"contracts/NFTAuction.sol\":3538:3571  auction.highestBidder!=address(0) */\n      0xffffffffffffffffffffffffffffffffffffffff\n      and\n      eq\n        /* \"contracts/NFTAuction.sol\":3535:3849  if(auction.highestBidder!=address(0)){... */\n      tag_167\n      jumpi\n        /* \"contracts/NFTAuction.sol\":3622:3623  0 */\n      0x00\n        /* \"contracts/NFTAuction.sol\":3590:3624  auction.tokenAddress == address(0) */\n      0xffffffffffffffffffffffffffffffffffffffff\n      and\n        /* \"contracts/NFTAuction.sol\":3590:3597  auction */\n      dup5\n        /* \"contracts/NFTAuction.sol\":3590:3610  auction.tokenAddress */\n      0x09\n      add\n      0x00\n      swap1\n      sload\n      swap1\n      0x0100\n      exp\n      swap1\n      div\n      0xffffffffffffffffffffffffffffffffffffffff\n      and\n        /* \"contracts/NFTAuction.sol\":3590:3624  auction.tokenAddress == address(0) */\n      0xffffffffffffffffffffffffffffffffffffffff\n      and\n      sub\n        /* \"contracts/NFTAuction.sol\":3587:3838  if(auction.tokenAddress == address(0)){... */\n      tag_168\n      jumpi\n        /* \"contracts/NFTAuction.sol\":3653:3660  auction */\n      dup4\n        /* \"contracts/NFTAuction.sol\":3653:3674  auction.highestBidder */\n      0x06\n      add\n      0x00\n      swap1\n      sload\n      swap1\n      0x0100\n      exp\n      swap1\n      div\n      0xffffffffffffffffffffffffffffffffffffffff\n      and\n        /* \"contracts/NFTAuction.sol\":3644:3684  payable (auction.highestBidder).transfer */\n      0xffffffffffffffffffffffffffffffffffffffff\n      and\n        /* \"contracts/NFTAuction.sol\":3644:3704  payable (auction.highestBidder).transfer(auction.highestBid) */\n      0x08fc\n        /* \"contracts/NFTAuction.sol\":3685:3692  auction */\n      dup6\n        /* \"contracts/NFTAuction.sol\":3685:3703  auction.highestBid */\n      0x05\n      add\n      sload\n        /* \"contracts/NFTAuction.sol\":3644:3704  payable (auction.highestBidder).transfer(auction.highestBid) */\n      swap1\n      dup2\n      iszero\n      mul\n      swap1\n      mload(0x40)\n      0x00\n      mload(0x40)\n      dup1\n      dup4\n      sub\n      dup2\n      dup6\n      dup9\n      dup9\n      call\n      swap4\n      pop\n      pop\n      pop\n      pop\n      iszero\n      dup1\n      iszero\n      tag_170\n      jumpi\n      returndatacopy(0x00, 0x00, returndatasize)\n      revert(0x00, returndatasize)\n    tag_170:\n      pop\n        /* \"contracts/NFTAuction.sol\":3587:3838  if(auction.tokenAddress == address(0)){... */\n      jump(tag_171)\n    tag_168:\n        /* \"contracts/NFTAuction.sol\":3750:3757  auction */\n      dup4\n        /* \"contracts/NFTAuction.sol\":3750:3770  auction.tokenAddress */\n      0x09\n      add\n      0x00\n      swap1\n      sload\n      swap1\n      0x0100\n      exp\n      swap1\n      div\n      0xffffffffffffffffffffffffffffffffffffffff\n      and\n        /* \"contracts/NFTAuction.sol\":3743:3780  IERC20(auction.tokenAddress).transfer */\n      0xffffffffffffffffffffffffffffffffffffffff\n      and\n      0xa9059cbb\n        /* \"contracts/NFTAuction.sol\":3781:3788  auction */\n      dup6\n        /* \"contracts/NFTAuction.sol\":3781:3802  auction.highestBidder */\n      0x06\n      add\n      0x00\n      swap1\n      sload\n      swap1\n      0x0100\n      exp\n      swap1\n      div\n      0xffffffffffffffffffffffffffffffffffffffff\n      and\n        /* \"contracts/NFTAuction.sol\":3803:3810  auction */\n      dup7\n        /* \"contracts/NFTAuction.sol\":3803:3821  auction.highestBid */\n      0x05\n      add\n      sload\n        /* \"contracts/NFTAuction.sol\":3743:3822  IERC20(auction.tokenAddress).transfer(auction.highestBidder,auction.highestBid) */\n      mload(0x40)\n      dup4\n      0xffffffff\n      and\n      0xe0\n      shl\n      dup2\n      mstore\n      0x04\n      add\n      tag_172\n      swap3\n      swap2\n      swap1\n      tag_173\n      jump\t// in\n    tag_172:\n      0x20\n      mload(0x40)\n      dup1\n      dup4\n      sub\n      dup2\n      0x00\n      dup8\n      gas\n      call\n      iszero\n      dup1\n      iszero\n      tag_175\n      jumpi\n      returndatacopy(0x00, 0x00, returndatasize)\n      revert(0x00, returndatasize)\n    tag_175:\n      pop\n      pop\n      pop\n      pop\n      mload(0x40)\n      returndatasize\n      not(0x1f)\n      0x1f\n      dup3\n      add\n      and\n      dup3\n      add\n      dup1\n      0x40\n      mstore\n      pop\n      dup2\n      add\n      swap1\n      tag_176\n      swap2\n      swap1\n      tag_166\n      jump\t// in\n    tag_176:\n      pop\n        /* \"contracts/NFTAuction.sol\":3587:3838  if(auction.tokenAddress == address(0)){... */\n    tag_171:\n        /* \"contracts/NFTAuction.sol\":3535:3849  if(auction.highestBidder!=address(0)){... */\n    tag_167:\n        /* \"contracts/NFTAuction.sol\":3883:3893  msg.sender */\n      caller\n        /* \"contracts/NFTAuction.sol\":3861:3868  auction */\n      dup5\n        /* \"contracts/NFTAuction.sol\":3861:3882  auction.highestBidder */\n      0x06\n      add\n      0x00\n        /* \"contracts/NFTAuction.sol\":3861:3893  auction.highestBidder=msg.sender */\n      0x0100\n      exp\n      dup2\n      sload\n      dup2\n      0xffffffffffffffffffffffffffffffffffffffff\n      mul\n      not\n      and\n      swap1\n      dup4\n      0xffffffffffffffffffffffffffffffffffffffff\n      and\n      mul\n      or\n      swap1\n      sstore\n      pop\n        /* \"contracts/NFTAuction.sol\":3923:3930  _amount */\n      dup6\n        /* \"contracts/NFTAuction.sol\":3904:3911  auction */\n      dup5\n        /* \"contracts/NFTAuction.sol\":3904:3922  auction.highestBid */\n      0x05\n      add\n        /* \"contracts/NFTAuction.sol\":3904:3930  auction.highestBid=_amount */\n      dup2\n      swap1\n      sstore\n      pop\n        /* \"contracts/NFTAuction.sol\":3962:3975  _tokenAddress */\n      dup5\n        /* \"contracts/NFTAuction.sol\":3941:3948  auction */\n      dup5\n        /* \"contracts/NFTAuction.sol\":3941:3961  auction.tokenAddress */\n      0x09\n      add\n      0x00\n        /* \"contracts/NFTAuction.sol\":3941:3975  auction.tokenAddress=_tokenAddress */\n      0x0100\n      exp\n      dup2\n      sload\n      dup2\n      0xffffffffffffffffffffffffffffffffffffffff\n      mul\n      not\n      and\n      swap1\n      dup4\n      0xffffffffffffffffffffffffffffffffffffffff\n      and\n      mul\n      or\n      swap1\n      sstore\n      pop\n        /* \"contracts/NFTAuction.sol\":4003:4013  _auctionId */\n      dup7\n        /* \"contracts/NFTAuction.sol\":3993:4034  BidPlaced(_auctionId,msg.sender, _amount) */\n      0x0e54eff26401bf69b81b26f60bd85ef47f5d85275c1d268d84f68d6897431c47\n        /* \"contracts/NFTAuction.sol\":4014:4024  msg.sender */\n      caller\n        /* \"contracts/NFTAuction.sol\":4026:4033  _amount */\n      dup9\n        /* \"contracts/NFTAuction.sol\":3993:4034  BidPlaced(_auctionId,msg.sender, _amount) */\n      mload(0x40)\n      tag_177\n      swap3\n      swap2\n      swap1\n      tag_173\n      jump\t// in\n    tag_177:\n      mload(0x40)\n      dup1\n      swap2\n      sub\n      swap1\n      log2\n        /* \"contracts/NFTAuction.sol\":2784:4052  {... */\n      pop\n      pop\n      pop\n      pop\n        /* \"contracts/NFTAuction.sol\":2690:4052  function placeBid(uint256 _auctionId, uint256 _amount,address _tokenAddress) external payable {... */\n      pop\n      pop\n      pop\n      jump\t// out\n        /* \"contracts/NFTAuction.sol\":925:966  AggregatorV3Interface public ethPriceFeed */\n    tag_60:\n      0x68\n      0x00\n      swap1\n      sload\n      swap1\n      0x0100\n      exp\n      swap1\n      div\n      0xffffffffffffffffffffffffffffffffffffffff\n      and\n      dup2\n      jump\t// out\n        /* \"contracts/NFTAuction.sol\":1771:2682  function createAuction (uint256 _duration, uint256 _startPrice, address _nftAddress, uint256 _nftId) public {... */\n    tag_66:\n        /* \"contracts/NFTAuction.sol\":1909:1912  100 */\n      0x64\n        /* \"contracts/NFTAuction.sol\":1898:1907  _duration */\n      dup5\n        /* \"contracts/NFTAuction.sol\":1898:1912  _duration>=100 */\n      lt\n      iszero\n        /* \"contracts/NFTAuction.sol\":1890:1958  require(_duration>=100,\"Auction duration needs to be at least 100s\") */\n      tag_179\n      jumpi\n      mload(0x40)\n      0x08c379a000000000000000000000000000000000000000000000000000000000\n      dup2\n      mstore\n      0x04\n      add\n      tag_180\n      swap1\n      tag_181\n      jump\t// in\n    tag_180:\n      mload(0x40)\n      dup1\n      swap2\n      sub\n      swap1\n      revert\n    tag_179:\n        /* \"contracts/NFTAuction.sol\":1989:1990  0 */\n      0x00\n        /* \"contracts/NFTAuction.sol\":1977:1988  _startPrice */\n      dup4\n        /* \"contracts/NFTAuction.sol\":1977:1990  _startPrice>0 */\n      gt\n        /* \"contracts/NFTAuction.sol\":1969:2028  require(_startPrice>0,\"Start price must be greater than 0\") */\n      tag_182\n      jumpi\n      mload(0x40)\n      0x08c379a000000000000000000000000000000000000000000000000000000000\n      dup2\n      mstore\n      0x04\n      add\n      tag_183\n      swap1\n      tag_184\n      jump\t// in\n    tag_183:\n      mload(0x40)\n      dup1\n      swap2\n      sub\n      swap1\n      revert\n    tag_182:\n        /* \"contracts/NFTAuction.sol\":2049:2060  _nftAddress */\n      dup2\n        /* \"contracts/NFTAuction.sol\":2041:2069  IERC721(_nftAddress).approve */\n      0xffffffffffffffffffffffffffffffffffffffff\n      and\n      0x095ea7b3\n        /* \"contracts/NFTAuction.sol\":2078:2082  this */\n      address\n        /* \"contracts/NFTAuction.sol\":2084:2090  _nftId */\n      dup4\n        /* \"contracts/NFTAuction.sol\":2041:2091  IERC721(_nftAddress).approve(address(this),_nftId) */\n      mload(0x40)\n      dup4\n      0xffffffff\n      and\n      0xe0\n      shl\n      dup2\n      mstore\n      0x04\n      add\n      tag_185\n      swap3\n      swap2\n      swap1\n      tag_173\n      jump\t// in\n    tag_185:\n      0x00\n      mload(0x40)\n      dup1\n      dup4\n      sub\n      dup2\n      0x00\n      dup8\n      dup1\n      extcodesize\n      iszero\n      dup1\n      iszero\n      tag_186\n      jumpi\n      revert(0x00, 0x00)\n    tag_186:\n      pop\n      gas\n      call\n      iszero\n      dup1\n      iszero\n      tag_188\n      jumpi\n      returndatacopy(0x00, 0x00, returndatasize)\n      revert(0x00, returndatasize)\n    tag_188:\n      pop\n      pop\n      pop\n      pop\n        /* \"contracts/NFTAuction.sol\":2128:2582  Auction(... */\n      mload(0x40)\n      dup1\n      0x0140\n      add\n      0x40\n      mstore\n      dup1\n        /* \"contracts/NFTAuction.sol\":2176:2186  msg.sender */\n      caller\n        /* \"contracts/NFTAuction.sol\":2128:2582  Auction(... */\n      0xffffffffffffffffffffffffffffffffffffffff\n      and\n      dup2\n      mstore\n      0x20\n      add\n        /* \"contracts/NFTAuction.sol\":2216:2227  _startPrice */\n      dup5\n        /* \"contracts/NFTAuction.sol\":2128:2582  Auction(... */\n      dup2\n      mstore\n      0x20\n      add\n        /* \"contracts/NFTAuction.sol\":2256:2271  block.timestamp */\n      timestamp\n        /* \"contracts/NFTAuction.sol\":2128:2582  Auction(... */\n      dup2\n      mstore\n      0x20\n      add\n        /* \"contracts/NFTAuction.sol\":2299:2308  _duration */\n      dup6\n        /* \"contracts/NFTAuction.sol\":2128:2582  Auction(... */\n      dup2\n      mstore\n      0x20\n      add\n        /* \"contracts/NFTAuction.sol\":2345:2350  false */\n      0x00\n        /* \"contracts/NFTAuction.sol\":2128:2582  Auction(... */\n      iszero\n      iszero\n      dup2\n      mstore\n      0x20\n      add\n        /* \"contracts/NFTAuction.sol\":2380:2381  0 */\n      0x00\n        /* \"contracts/NFTAuction.sol\":2128:2582  Auction(... */\n      dup2\n      mstore\n      0x20\n      add\n        /* \"contracts/NFTAuction.sol\":2422:2423  0 */\n      0x00\n        /* \"contracts/NFTAuction.sol\":2128:2582  Auction(... */\n      0xffffffffffffffffffffffffffffffffffffffff\n      and\n      dup2\n      mstore\n      0x20\n      add\n        /* \"contracts/NFTAuction.sol\":2472:2483  _nftAddress */\n      dup4\n        /* \"contracts/NFTAuction.sol\":2128:2582  Auction(... */\n      0xffffffffffffffffffffffffffffffffffffffff\n      and\n      dup2\n      mstore\n      0x20\n      add\n        /* \"contracts/NFTAuction.sol\":2508:2514  _nftId */\n      dup3\n        /* \"contracts/NFTAuction.sol\":2128:2582  Auction(... */\n      dup2\n      mstore\n      0x20\n      add\n        /* \"contracts/NFTAuction.sol\":2554:2555  0 */\n      0x00\n        /* \"contracts/NFTAuction.sol\":2128:2582  Auction(... */\n      0xffffffffffffffffffffffffffffffffffffffff\n      and\n      dup2\n      mstore\n      pop\n        /* \"contracts/NFTAuction.sol\":2104:2112  Auctions */\n      0x65\n        /* \"contracts/NFTAuction.sol\":2104:2127  Auctions[nextAuctionId] */\n      0x00\n        /* \"contracts/NFTAuction.sol\":2113:2126  nextAuctionId */\n      sload(0x67)\n        /* \"contracts/NFTAuction.sol\":2104:2127  Auctions[nextAuctionId] */\n      dup2\n      mstore\n      0x20\n      add\n      swap1\n      dup2\n      mstore\n      0x20\n      add\n      0x00\n      keccak256\n        /* \"contracts/NFTAuction.sol\":2104:2582  Auctions[nextAuctionId]=Auction(... */\n      0x00\n      dup3\n      add\n      mload\n      dup2\n      0x00\n      add\n      exp(0x0100, 0x00)\n      dup2\n      sload\n      dup2\n      0xffffffffffffffffffffffffffffffffffffffff\n      mul\n      not\n      and\n      swap1\n      dup4\n      0xffffffffffffffffffffffffffffffffffffffff\n      and\n      mul\n      or\n      swap1\n      sstore\n      pop\n      0x20\n      dup3\n      add\n      mload\n      dup2\n      0x01\n      add\n      sstore\n      0x40\n      dup3\n      add\n      mload\n      dup2\n      0x02\n      add\n      sstore\n      0x60\n      dup3\n      add\n      mload\n      dup2\n      0x03\n      add\n      sstore\n      0x80\n      dup3\n      add\n      mload\n      dup2\n      0x04\n      add\n      exp(0x0100, 0x00)\n      dup2\n      sload\n      dup2\n      0xff\n      mul\n      not\n      and\n      swap1\n      dup4\n      iszero\n      iszero\n      mul\n      or\n      swap1\n      sstore\n      pop\n      0xa0\n      dup3\n      add\n      mload\n      dup2\n      0x05\n      add\n      sstore\n      0xc0\n      dup3\n      add\n      mload\n      dup2\n      0x06\n      add\n      exp(0x0100, 0x00)\n      dup2\n      sload\n      dup2\n      0xffffffffffffffffffffffffffffffffffffffff\n      mul\n      not\n      and\n      swap1\n      dup4\n      0xffffffffffffffffffffffffffffffffffffffff\n      and\n      mul\n      or\n      swap1\n      sstore\n      pop\n      0xe0\n      dup3\n      add\n      mload\n      dup2\n      0x07\n      add\n      exp(0x0100, 0x00)\n      dup2\n      sload\n      dup2\n      0xffffffffffffffffffffffffffffffffffffffff\n      mul\n      not\n      and\n      swap1\n      dup4\n      0xffffffffffffffffffffffffffffffffffffffff\n      and\n      mul\n      or\n      swap1\n      sstore\n      pop\n      0x0100\n      dup3\n      add\n      mload\n      dup2\n      0x08\n      add\n      sstore\n      0x0120\n      dup3\n      add\n      mload\n      dup2\n      0x09\n      add\n      exp(0x0100, 0x00)\n      dup2\n      sload\n      dup2\n      0xffffffffffffffffffffffffffffffffffffffff\n      mul\n      not\n      and\n      swap1\n      dup4\n      0xffffffffffffffffffffffffffffffffffffffff\n      and\n      mul\n      or\n      swap1\n      sstore\n      pop\n      swap1\n      pop\n      pop\n        /* \"contracts/NFTAuction.sol\":2627:2637  msg.sender */\n      caller\n        /* \"contracts/NFTAuction.sol\":2598:2638  AuctionCreated(nextAuctionId,msg.sender) */\n      0xffffffffffffffffffffffffffffffffffffffff\n      and\n        /* \"contracts/NFTAuction.sol\":2613:2626  nextAuctionId */\n      sload(0x67)\n        /* \"contracts/NFTAuction.sol\":2598:2638  AuctionCreated(nextAuctionId,msg.sender) */\n      0x5d551e2a2cc977fd8c530317059b4f2d9f504fb82f7dfad736f8d56679bcdfd0\n      mload(0x40)\n      mload(0x40)\n      dup1\n      swap2\n      sub\n      swap1\n      log3\n        /* \"contracts/NFTAuction.sol\":2649:2662  nextAuctionId */\n      0x67\n      0x00\n        /* \"contracts/NFTAuction.sol\":2649:2664  nextAuctionId++ */\n      dup2\n      sload\n      dup1\n      swap3\n      swap2\n      swap1\n      tag_189\n      swap1\n      tag_190\n      jump\t// in\n    tag_189:\n      swap2\n      swap1\n      pop\n      sstore\n      pop\n        /* \"contracts/NFTAuction.sol\":1771:2682  function createAuction (uint256 _duration, uint256 _startPrice, address _nftAddress, uint256 _nftId) public {... */\n      pop\n      pop\n      pop\n      pop\n      jump\t// out\n        /* \"contracts/NFTAuction.sol\":4877:5746  function sendCrossChainBid(uint64 _destinationChainId, uint256 _auctionId, uint256 _amount,address _tokenAddress) external payable {... */\n    tag_70:\n        /* \"contracts/NFTAuction.sol\":5056:5057  0 */\n      0x00\n        /* \"contracts/NFTAuction.sol\":5027:5058  address(ccipRouter)!=address(0) */\n      0xffffffffffffffffffffffffffffffffffffffff\n      and\n        /* \"contracts/NFTAuction.sol\":5035:5045  ccipRouter */\n      0x6a\n      0x00\n      swap1\n      sload\n      swap1\n      0x0100\n      exp\n      swap1\n      div\n      0xffffffffffffffffffffffffffffffffffffffff\n      and\n        /* \"contracts/NFTAuction.sol\":5027:5058  address(ccipRouter)!=address(0) */\n      0xffffffffffffffffffffffffffffffffffffffff\n      and\n      sub\n        /* \"contracts/NFTAuction.sol\":5019:5081  require(address(ccipRouter)!=address(0),\"CCIP not configured\") */\n      tag_192\n      jumpi\n      mload(0x40)\n      0x08c379a000000000000000000000000000000000000000000000000000000000\n      dup2\n      mstore\n      0x04\n      add\n      tag_193\n      swap1\n      tag_194\n      jump\t// in\n    tag_193:\n      mload(0x40)\n      dup1\n      swap2\n      sub\n      swap1\n      revert\n    tag_192:\n        /* \"contracts/NFTAuction.sol\":5102:5138  Client.EVM2AnyMessage memory message */\n      0x00\n        /* \"contracts/NFTAuction.sol\":5141:5660  Client.EVM2AnyMessage(... */\n      mload(0x40)\n      dup1\n      0xa0\n      add\n      0x40\n      mstore\n      dup1\n        /* \"contracts/NFTAuction.sol\":5225:5229  this */\n      address\n        /* \"contracts/NFTAuction.sol\":5206:5231  abi.encode(address(this)) */\n      add(0x20, mload(0x40))\n      tag_195\n      swap2\n      swap1\n      tag_86\n      jump\t// in\n    tag_195:\n      mload(0x40)\n      0x20\n      dup2\n      dup4\n      sub\n      sub\n      dup2\n      mstore\n      swap1\n      0x40\n      mstore\n        /* \"contracts/NFTAuction.sol\":5141:5660  Client.EVM2AnyMessage(... */\n      dup2\n      mstore\n      0x20\n      add\n        /* \"contracts/NFTAuction.sol\":5316:5326  _auctionId */\n      dup6\n        /* \"contracts/NFTAuction.sol\":5327:5334  _amount */\n      dup6\n        /* \"contracts/NFTAuction.sol\":5335:5348  _tokenAddress */\n      dup6\n        /* \"contracts/NFTAuction.sol\":5255:5349  abi.encodeWithSignature(\"placeBid(uint256,uint256,address)\", _auctionId,_amount,_tokenAddress) */\n      add(0x24, mload(0x40))\n      tag_196\n      swap4\n      swap3\n      swap2\n      swap1\n      tag_197\n      jump\t// in\n    tag_196:\n      mload(0x40)\n      0x20\n      dup2\n      dup4\n      sub\n      sub\n      dup2\n      mstore\n      swap1\n      0x40\n      mstore\n      and(not(0xffffffffffffffffffffffffffffffffffffffffffffffffffffffff), 0xad6561ec00000000000000000000000000000000000000000000000000000000)\n      0x20\n      dup3\n      add\n      dup1\n      mload\n      0xffffffffffffffffffffffffffffffffffffffffffffffffffffffff\n      dup4\n      dup2\n      dup4\n      and\n      or\n      dup4\n      mstore\n      pop\n      pop\n      pop\n      pop\n        /* \"contracts/NFTAuction.sol\":5141:5660  Client.EVM2AnyMessage(... */\n      dup2\n      mstore\n      0x20\n      add\n        /* \"contracts/NFTAuction.sol\":5410:5411  0 */\n      0x00\n        /* \"contracts/NFTAuction.sol\":5382:5412  new Client.EVMTokenAmount[](0) */\n      0xffffffffffffffff\n      dup2\n      gt\n      iszero\n      tag_198\n      jumpi\n      tag_199\n      tag_107\n      jump\t// in\n    tag_199:\n    tag_198:\n      mload(0x40)\n      swap1\n      dup1\n      dup3\n      mstore\n      dup1\n      0x20\n      mul\n      0x20\n      add\n      dup3\n      add\n      0x40\n      mstore\n      dup1\n      iszero\n      tag_200\n      jumpi\n      dup2\n      0x20\n      add\n    tag_201:\n      tag_202\n      tag_203\n      jump\t// in\n    tag_202:\n      dup2\n      mstore\n      0x20\n      add\n      swap1\n      0x01\n      swap1\n      sub\n      swap1\n      dup2\n      tag_201\n      jumpi\n      swap1\n      pop\n    tag_200:\n      pop\n        /* \"contracts/NFTAuction.sol\":5141:5660  Client.EVM2AnyMessage(... */\n      dup2\n      mstore\n      0x20\n      add\n        /* \"contracts/NFTAuction.sol\":5441:5454  _tokenAddress */\n      dup4\n        /* \"contracts/NFTAuction.sol\":5141:5660  Client.EVM2AnyMessage(... */\n      0xffffffffffffffffffffffffffffffffffffffff\n      and\n      dup2\n      mstore\n      0x20\n      add\n        /* \"contracts/NFTAuction.sol\":5484:5634  Client._argsToBytes(Client.EVMExtraArgsV1(... */\n      tag_204\n        /* \"contracts/NFTAuction.sol\":5504:5633  Client.EVMExtraArgsV1(... */\n      mload(0x40)\n      dup1\n      0x20\n      add\n      0x40\n      mstore\n      dup1\n        /* \"contracts/NFTAuction.sol\":5585:5591  200000 */\n      0x030d40\n        /* \"contracts/NFTAuction.sol\":5504:5633  Client.EVMExtraArgsV1(... */\n      dup2\n      mstore\n      pop\n        /* \"contracts/NFTAuction.sol\":5484:5503  Client._argsToBytes */\n      tag_205\n        /* \"contracts/NFTAuction.sol\":5484:5634  Client._argsToBytes(Client.EVMExtraArgsV1(... */\n      jump\t// in\n    tag_204:\n        /* \"contracts/NFTAuction.sol\":5141:5660  Client.EVM2AnyMessage(... */\n      dup2\n      mstore\n      pop\n        /* \"contracts/NFTAuction.sol\":5102:5660  Client.EVM2AnyMessage memory message = Client.EVM2AnyMessage(... */\n      swap1\n      pop\n        /* \"contracts/NFTAuction.sol\":5673:5683  ccipRouter */\n      0x6a\n      0x00\n      swap1\n      sload\n      swap1\n      0x0100\n      exp\n      swap1\n      div\n      0xffffffffffffffffffffffffffffffffffffffff\n      and\n        /* \"contracts/NFTAuction.sol\":5673:5692  ccipRouter.ccipSend */\n      0xffffffffffffffffffffffffffffffffffffffff\n      and\n      0x96f4e9f9\n        /* \"contracts/NFTAuction.sol\":5699:5708  msg.value */\n      callvalue\n        /* \"contracts/NFTAuction.sol\":5710:5729  _destinationChainId */\n      dup8\n        /* \"contracts/NFTAuction.sol\":5730:5737  message */\n      dup5\n        /* \"contracts/NFTAuction.sol\":5673:5738  ccipRouter.ccipSend{value:msg.value}(_destinationChainId,message) */\n      mload(0x40)\n      dup5\n      0xffffffff\n      and\n      0xe0\n      shl\n      dup2\n      mstore\n      0x04\n      add\n      tag_206\n      swap3\n      swap2\n      swap1\n      tag_207\n      jump\t// in\n    tag_206:\n      0x20\n      mload(0x40)\n      dup1\n      dup4\n      sub\n      dup2\n      dup6\n      dup9\n      gas\n      call\n      iszero\n      dup1\n      iszero\n      tag_209\n      jumpi\n      returndatacopy(0x00, 0x00, returndatasize)\n      revert(0x00, returndatasize)\n    tag_209:\n      pop\n      pop\n      pop\n      pop\n      pop\n      mload(0x40)\n      returndatasize\n      not(0x1f)\n      0x1f\n      dup3\n      add\n      and\n      dup3\n      add\n      dup1\n      0x40\n      mstore\n      pop\n      dup2\n      add\n      swap1\n      tag_210\n      swap2\n      swap1\n      tag_211\n      jump\t// in\n    tag_210:\n      pop\n        /* \"contracts/NFTAuction.sol\":5008:5746  {... */\n      pop\n        /* \"contracts/NFTAuction.sol\":4877:5746  function sendCrossChainBid(uint64 _destinationChainId, uint256 _auctionId, uint256 _amount,address _tokenAddress) external payable {... */\n      pop\n      pop\n      pop\n      pop\n      jump\t// out\n        /* \"contracts/NFTAuction.sol\":4060:4869  function endAuction(uint256 _auctionId) external{... */\n    tag_75:\n        /* \"contracts/NFTAuction.sol\":4119:4142  Auction storage auction */\n      0x00\n        /* \"contracts/NFTAuction.sol\":4145:4153  Auctions */\n      0x65\n        /* \"contracts/NFTAuction.sol\":4145:4165  Auctions[_auctionId] */\n      0x00\n        /* \"contracts/NFTAuction.sol\":4154:4164  _auctionId */\n      dup4\n        /* \"contracts/NFTAuction.sol\":4145:4165  Auctions[_auctionId] */\n      dup2\n      mstore\n      0x20\n      add\n      swap1\n      dup2\n      mstore\n      0x20\n      add\n      0x00\n      keccak256\n        /* \"contracts/NFTAuction.sol\":4119:4165  Auction storage auction = Auctions[_auctionId] */\n      swap1\n      pop\n        /* \"contracts/NFTAuction.sol\":4198:4205  auction */\n      dup1\n        /* \"contracts/NFTAuction.sol\":4198:4212  auction.seller */\n      0x00\n      add\n      0x00\n      swap1\n      sload\n      swap1\n      0x0100\n      exp\n      swap1\n      div\n      0xffffffffffffffffffffffffffffffffffffffff\n      and\n        /* \"contracts/NFTAuction.sol\":4184:4212  msg.sender == auction.seller */\n      0xffffffffffffffffffffffffffffffffffffffff\n      and\n        /* \"contracts/NFTAuction.sol\":4184:4194  msg.sender */\n      caller\n        /* \"contracts/NFTAuction.sol\":4184:4212  msg.sender == auction.seller */\n      0xffffffffffffffffffffffffffffffffffffffff\n      and\n      eq\n        /* \"contracts/NFTAuction.sol\":4176:4241  require(msg.sender == auction.seller,\"Only seller owner can end\") */\n      tag_213\n      jumpi\n      mload(0x40)\n      0x08c379a000000000000000000000000000000000000000000000000000000000\n      dup2\n      mstore\n      0x04\n      add\n      tag_214\n      swap1\n      tag_215\n      jump\t// in\n    tag_214:\n      mload(0x40)\n      dup1\n      swap2\n      sub\n      swap1\n      revert\n    tag_213:\n        /* \"contracts/NFTAuction.sol\":4298:4305  auction */\n      dup1\n        /* \"contracts/NFTAuction.sol\":4298:4314  auction.duration */\n      0x03\n      add\n      sload\n        /* \"contracts/NFTAuction.sol\":4278:4285  auction */\n      dup2\n        /* \"contracts/NFTAuction.sol\":4278:4295  auction.startTime */\n      0x02\n      add\n      sload\n        /* \"contracts/NFTAuction.sol\":4278:4314  auction.startTime + auction.duration */\n      tag_216\n      swap2\n      swap1\n      tag_144\n      jump\t// in\n    tag_216:\n        /* \"contracts/NFTAuction.sol\":4260:4275  block.timestamp */\n      timestamp\n        /* \"contracts/NFTAuction.sol\":4260:4314  block.timestamp > auction.startTime + auction.duration */\n      gt\n        /* \"contracts/NFTAuction.sol\":4252:4343  require(block.timestamp > auction.startTime + auction.duration,\"Auction has not ended yet\") */\n      tag_217\n      jumpi\n      mload(0x40)\n      0x08c379a000000000000000000000000000000000000000000000000000000000\n      dup2\n      mstore\n      0x04\n      add\n      tag_218\n      swap1\n      tag_219\n      jump\t// in\n    tag_218:\n      mload(0x40)\n      dup1\n      swap2\n      sub\n      swap1\n      revert\n    tag_217:\n        /* \"contracts/NFTAuction.sol\":4363:4370  auction */\n      dup1\n        /* \"contracts/NFTAuction.sol\":4363:4378  auction.isended */\n      0x04\n      add\n      0x00\n      swap1\n      sload\n      swap1\n      0x0100\n      exp\n      swap1\n      div\n      0xff\n      and\n        /* \"contracts/NFTAuction.sol\":4362:4378  !auction.isended */\n      iszero\n        /* \"contracts/NFTAuction.sol\":4354:4403  require(!auction.isended,\"Auction already ended\") */\n      tag_220\n      jumpi\n      mload(0x40)\n      0x08c379a000000000000000000000000000000000000000000000000000000000\n      dup2\n      mstore\n      0x04\n      add\n      tag_221\n      swap1\n      tag_222\n      jump\t// in\n    tag_221:\n      mload(0x40)\n      dup1\n      swap2\n      sub\n      swap1\n      revert\n    tag_220:\n        /* \"contracts/NFTAuction.sol\":4433:4437  true */\n      0x01\n        /* \"contracts/NFTAuction.sol\":4416:4423  auction */\n      dup2\n        /* \"contracts/NFTAuction.sol\":4416:4431  auction.isended */\n      0x04\n      add\n      0x00\n        /* \"contracts/NFTAuction.sol\":4416:4437  auction.isended =true */\n      0x0100\n      exp\n      dup2\n      sload\n      dup2\n      0xff\n      mul\n      not\n      and\n      swap1\n      dup4\n      iszero\n      iszero\n      mul\n      or\n      swap1\n      sstore\n      pop\n        /* \"contracts/NFTAuction.sol\":4458:4465  auction */\n      dup1\n        /* \"contracts/NFTAuction.sol\":4458:4476  auction.nftAddress */\n      0x07\n      add\n      0x00\n      swap1\n      sload\n      swap1\n      0x0100\n      exp\n      swap1\n      div\n      0xffffffffffffffffffffffffffffffffffffffff\n      and\n        /* \"contracts/NFTAuction.sol\":4450:4490  IERC721(auction.nftAddress).transferFrom */\n      0xffffffffffffffffffffffffffffffffffffffff\n      and\n      0x23b872dd\n        /* \"contracts/NFTAuction.sol\":4491:4498  auction */\n      dup3\n        /* \"contracts/NFTAuction.sol\":4491:4505  auction.seller */\n      0x00\n      add\n      0x00\n      swap1\n      sload\n      swap1\n      0x0100\n      exp\n      swap1\n      div\n      0xffffffffffffffffffffffffffffffffffffffff\n      and\n        /* \"contracts/NFTAuction.sol\":4507:4514  auction */\n      dup4\n        /* \"contracts/NFTAuction.sol\":4507:4528  auction.highestBidder */\n      0x06\n      add\n      0x00\n      swap1\n      sload\n      swap1\n      0x0100\n      exp\n      swap1\n      div\n      0xffffffffffffffffffffffffffffffffffffffff\n      and\n        /* \"contracts/NFTAuction.sol\":4529:4536  auction */\n      dup5\n        /* \"contracts/NFTAuction.sol\":4529:4542  auction.nftId */\n      0x08\n      add\n      sload\n        /* \"contracts/NFTAuction.sol\":4450:4543  IERC721(auction.nftAddress).transferFrom(auction.seller, auction.highestBidder,auction.nftId) */\n      mload(0x40)\n      dup5\n      0xffffffff\n      and\n      0xe0\n      shl\n      dup2\n      mstore\n      0x04\n      add\n      tag_223\n      swap4\n      swap3\n      swap2\n      swap1\n      tag_162\n      jump\t// in\n    tag_223:\n      0x00\n      mload(0x40)\n      dup1\n      dup4\n      sub\n      dup2\n      0x00\n      dup8\n      dup1\n      extcodesize\n      iszero\n      dup1\n      iszero\n      tag_224\n      jumpi\n      revert(0x00, 0x00)\n    tag_224:\n      pop\n      gas\n      call\n      iszero\n      dup1\n      iszero\n      tag_226\n      jumpi\n      returndatacopy(0x00, 0x00, returndatasize)\n      revert(0x00, returndatasize)\n    tag_226:\n      pop\n      pop\n      pop\n      pop\n        /* \"contracts/NFTAuction.sol\":4589:4590  0 */\n      0x00\n        /* \"contracts/NFTAuction.sol\":4559:4591  auction.tokenAddress==address(0) */\n      0xffffffffffffffffffffffffffffffffffffffff\n      and\n        /* \"contracts/NFTAuction.sol\":4559:4566  auction */\n      dup2\n        /* \"contracts/NFTAuction.sol\":4559:4579  auction.tokenAddress */\n      0x09\n      add\n      0x00\n      swap1\n      sload\n      swap1\n      0x0100\n      exp\n      swap1\n      div\n      0xffffffffffffffffffffffffffffffffffffffff\n      and\n        /* \"contracts/NFTAuction.sol\":4559:4591  auction.tokenAddress==address(0) */\n      0xffffffffffffffffffffffffffffffffffffffff\n      and\n      sub\n        /* \"contracts/NFTAuction.sol\":4556:4775  if(auction.tokenAddress==address(0)){... */\n      tag_227\n      jumpi\n        /* \"contracts/NFTAuction.sol\":4616:4623  auction */\n      dup1\n        /* \"contracts/NFTAuction.sol\":4616:4630  auction.seller */\n      0x00\n      add\n      0x00\n      swap1\n      sload\n      swap1\n      0x0100\n      exp\n      swap1\n      div\n      0xffffffffffffffffffffffffffffffffffffffff\n      and\n        /* \"contracts/NFTAuction.sol\":4607:4640  payable (auction.seller).transfer */\n      0xffffffffffffffffffffffffffffffffffffffff\n      and\n        /* \"contracts/NFTAuction.sol\":4607:4660  payable (auction.seller).transfer(auction.highestBid) */\n      0x08fc\n        /* \"contracts/NFTAuction.sol\":4641:4648  auction */\n      dup3\n        /* \"contracts/NFTAuction.sol\":4641:4659  auction.highestBid */\n      0x05\n      add\n      sload\n        /* \"contracts/NFTAuction.sol\":4607:4660  payable (auction.seller).transfer(auction.highestBid) */\n      swap1\n      dup2\n      iszero\n      mul\n      swap1\n      mload(0x40)\n      0x00\n      mload(0x40)\n      dup1\n      dup4\n      sub\n      dup2\n      dup6\n      dup9\n      dup9\n      call\n      swap4\n      pop\n      pop\n      pop\n      pop\n      iszero\n      dup1\n      iszero\n      tag_229\n      jumpi\n      returndatacopy(0x00, 0x00, returndatasize)\n      revert(0x00, returndatasize)\n    tag_229:\n      pop\n        /* \"contracts/NFTAuction.sol\":4556:4775  if(auction.tokenAddress==address(0)){... */\n      jump(tag_230)\n    tag_227:\n        /* \"contracts/NFTAuction.sol\":4698:4705  auction */\n      dup1\n        /* \"contracts/NFTAuction.sol\":4698:4718  auction.tokenAddress */\n      0x09\n      add\n      0x00\n      swap1\n      sload\n      swap1\n      0x0100\n      exp\n      swap1\n      div\n      0xffffffffffffffffffffffffffffffffffffffff\n      and\n        /* \"contracts/NFTAuction.sol\":4691:4728  IERC20(auction.tokenAddress).transfer */\n      0xffffffffffffffffffffffffffffffffffffffff\n      and\n      0xa9059cbb\n        /* \"contracts/NFTAuction.sol\":4729:4736  auction */\n      dup3\n        /* \"contracts/NFTAuction.sol\":4729:4743  auction.seller */\n      0x00\n      add\n      0x00\n      swap1\n      sload\n      swap1\n      0x0100\n      exp\n      swap1\n      div\n      0xffffffffffffffffffffffffffffffffffffffff\n      and\n        /* \"contracts/NFTAuction.sol\":4744:4751  auction */\n      dup4\n        /* \"contracts/NFTAuction.sol\":4744:4762  auction.highestBid */\n      0x05\n      add\n      sload\n        /* \"contracts/NFTAuction.sol\":4691:4763  IERC20(auction.tokenAddress).transfer(auction.seller,auction.highestBid) */\n      mload(0x40)\n      dup4\n      0xffffffff\n      and\n      0xe0\n      shl\n      dup2\n      mstore\n      0x04\n      add\n      tag_231\n      swap3\n      swap2\n      swap1\n      tag_173\n      jump\t// in\n    tag_231:\n      0x20\n      mload(0x40)\n      dup1\n      dup4\n      sub\n      dup2\n      0x00\n      dup8\n      gas\n      call\n      iszero\n      dup1\n      iszero\n      tag_233\n      jumpi\n      returndatacopy(0x00, 0x00, returndatasize)\n      revert(0x00, returndatasize)\n    tag_233:\n      pop\n      pop\n      pop\n      pop\n      mload(0x40)\n      returndatasize\n      not(0x1f)\n      0x1f\n      dup3\n      add\n      and\n      dup3\n      add\n      dup1\n      0x40\n      mstore\n      pop\n      dup2\n      add\n      swap1\n      tag_234\n      swap2\n      swap1\n      tag_166\n      jump\t// in\n    tag_234:\n      pop\n        /* \"contracts/NFTAuction.sol\":4556:4775  if(auction.tokenAddress==address(0)){... */\n    tag_230:\n        /* \"contracts/NFTAuction.sol\":4807:4817  _auctionId */\n      dup2\n        /* \"contracts/NFTAuction.sol\":4794:4861  AuctionEnded(_auctionId, auction.highestBidder, auction.highestBid) */\n      0xd2aa34a4fdbbc6dff6a3e56f46e0f3ae2a31d7785ff3487aa5c95c642acea501\n        /* \"contracts/NFTAuction.sol\":4819:4826  auction */\n      dup3\n        /* \"contracts/NFTAuction.sol\":4819:4840  auction.highestBidder */\n      0x06\n      add\n      0x00\n      swap1\n      sload\n      swap1\n      0x0100\n      exp\n      swap1\n      div\n      0xffffffffffffffffffffffffffffffffffffffff\n      and\n        /* \"contracts/NFTAuction.sol\":4842:4849  auction */\n      dup4\n        /* \"contracts/NFTAuction.sol\":4842:4860  auction.highestBid */\n      0x05\n      add\n      sload\n        /* \"contracts/NFTAuction.sol\":4794:4861  AuctionEnded(_auctionId, auction.highestBidder, auction.highestBid) */\n      mload(0x40)\n      tag_235\n      swap3\n      swap2\n      swap1\n      tag_173\n      jump\t// in\n    tag_235:\n      mload(0x40)\n      dup1\n      swap2\n      sub\n      swap1\n      log2\n        /* \"contracts/NFTAuction.sol\":4108:4869  {... */\n      pop\n        /* \"contracts/NFTAuction.sol\":4060:4869  function endAuction(uint256 _auctionId) external{... */\n      pop\n      jump\t// out\n        /* \"contracts/NFTAuction.sol\":814:856  mapping (uint256=>Auction) public Auctions */\n    tag_79:\n      mstore(0x20, 0x65)\n      dup1\n      0x00\n      mstore\n      keccak256(0x00, 0x40)\n      0x00\n      swap2\n      pop\n      swap1\n      pop\n      dup1\n      0x00\n      add\n      0x00\n      swap1\n      sload\n      swap1\n      0x0100\n      exp\n      swap1\n      div\n      0xffffffffffffffffffffffffffffffffffffffff\n      and\n      swap1\n      dup1\n      0x01\n      add\n      sload\n      swap1\n      dup1\n      0x02\n      add\n      sload\n      swap1\n      dup1\n      0x03\n      add\n      sload\n      swap1\n      dup1\n      0x04\n      add\n      0x00\n      swap1\n      sload\n      swap1\n      0x0100\n      exp\n      swap1\n      div\n      0xff\n      and\n      swap1\n      dup1\n      0x05\n      add\n      sload\n      swap1\n      dup1\n      0x06\n      add\n      0x00\n      swap1\n      sload\n      swap1\n      0x0100\n      exp\n      swap1\n      div\n      0xffffffffffffffffffffffffffffffffffffffff\n      and\n      swap1\n      dup1\n      0x07\n      add\n      0x00\n      swap1\n      sload\n      swap1\n      0x0100\n      exp\n      swap1\n      div\n      0xffffffffffffffffffffffffffffffffffffffff\n      and\n      swap1\n      dup1\n      0x08\n      add\n      sload\n      swap1\n      dup1\n      0x09\n      add\n      0x00\n      swap1\n      sload\n      swap1\n      0x0100\n      exp\n      swap1\n      div\n      0xffffffffffffffffffffffffffffffffffffffff\n      and\n      swap1\n      pop\n      dup11\n      jump\t// out\n        /* \"contracts/NFTAuction.sol\":863:883  address public admin */\n    tag_84:\n      0x66\n      0x00\n      swap1\n      sload\n      swap1\n      0x0100\n      exp\n      swap1\n      div\n      0xffffffffffffffffffffffffffffffffffffffff\n      and\n      dup2\n      jump\t// out\n        /* \"contracts/NFTAuction.sol\":890:918  uint256 public nextAuctionId */\n    tag_89:\n      sload(0x67)\n      dup2\n      jump\t// out\n        /* \"@openzeppelin/contracts-upgradeable/proxy/ERC1967/ERC1967UpgradeUpgradeable.sol\":1457:1608  function _getImplementation() internal view returns (address) {... */\n    tag_97:\n        /* \"@openzeppelin/contracts-upgradeable/proxy/ERC1967/ERC1967UpgradeUpgradeable.sol\":1510:1517  address */\n      0x00\n        /* \"@openzeppelin/contracts-upgradeable/proxy/ERC1967/ERC1967UpgradeUpgradeable.sol\":1536:1595  StorageSlotUpgradeable.getAddressSlot(_IMPLEMENTATION_SLOT) */\n      tag_237\n        /* \"@openzeppelin/contracts-upgradeable/proxy/ERC1967/ERC1967UpgradeUpgradeable.sol\":1312:1378  0x360894a13ba1a3210667c828492db98dca3e2076cc3735a920a3ca505d382bbc */\n      0x360894a13ba1a3210667c828492db98dca3e2076cc3735a920a3ca505d382bbc\n        /* \"@openzeppelin/contracts-upgradeable/proxy/ERC1967/ERC1967UpgradeUpgradeable.sol\":1574:1594  _IMPLEMENTATION_SLOT */\n      0x00\n      shl\n        /* \"@openzeppelin/contracts-upgradeable/proxy/ERC1967/ERC1967UpgradeUpgradeable.sol\":1536:1573  StorageSlotUpgradeable.getAddressSlot */\n      tag_238\n        /* \"@openzeppelin/contracts-upgradeable/proxy/ERC1967/ERC1967UpgradeUpgradeable.sol\":1536:1595  StorageSlotUpgradeable.getAddressSlot(_IMPLEMENTATION_SLOT) */\n      jump\t// in\n    tag_237:\n        /* \"@openzeppelin/contracts-upgradeable/proxy/ERC1967/ERC1967UpgradeUpgradeable.sol\":1536:1601  StorageSlotUpgradeable.getAddressSlot(_IMPLEMENTATION_SLOT).value */\n      0x00\n      add\n      0x00\n      swap1\n      sload\n      swap1\n      0x0100\n      exp\n      swap1\n      div\n      0xffffffffffffffffffffffffffffffffffffffff\n      and\n        /* \"@openzeppelin/contracts-upgradeable/proxy/ERC1967/ERC1967UpgradeUpgradeable.sol\":1529:1601  return StorageSlotUpgradeable.getAddressSlot(_IMPLEMENTATION_SLOT).value */\n      swap1\n      pop\n        /* \"@openzeppelin/contracts-upgradeable/proxy/ERC1967/ERC1967UpgradeUpgradeable.sol\":1457:1608  function _getImplementation() internal view returns (address) {... */\n      swap1\n      jump\t// out\n        /* \"contracts/NFTAuction.sol\":6141:6203  function _authorizeUpgrade(address) internal override view  {} */\n    tag_103:\n      pop\n      jump\t// out\n        /* \"@openzeppelin/contracts-upgradeable/proxy/ERC1967/ERC1967UpgradeUpgradeable.sol\":2820:3764  function _upgradeToAndCallUUPS(address newImplementation, bytes memory data, bool forceCall) internal {... */\n    tag_109:\n        /* \"@openzeppelin/contracts-upgradeable/proxy/ERC1967/ERC1967UpgradeUpgradeable.sol\":3236:3289  StorageSlotUpgradeable.getBooleanSlot(_ROLLBACK_SLOT) */\n      tag_241\n        /* \"@openzeppelin/contracts-upgradeable/proxy/ERC1967/ERC1967UpgradeUpgradeable.sol\":971:1037  0x4910fdfa16fed3260ed0e7147f7cc6da11a60208b5b9406d12a635614ffd9143 */\n      0x4910fdfa16fed3260ed0e7147f7cc6da11a60208b5b9406d12a635614ffd9143\n        /* \"@openzeppelin/contracts-upgradeable/proxy/ERC1967/ERC1967UpgradeUpgradeable.sol\":3274:3288  _ROLLBACK_SLOT */\n      0x00\n      shl\n        /* \"@openzeppelin/contracts-upgradeable/proxy/ERC1967/ERC1967UpgradeUpgradeable.sol\":3236:3273  StorageSlotUpgradeable.getBooleanSlot */\n      tag_242\n        /* \"@openzeppelin/contracts-upgradeable/proxy/ERC1967/ERC1967UpgradeUpgradeable.sol\":3236:3289  StorageSlotUpgradeable.getBooleanSlot(_ROLLBACK_SLOT) */\n      jump\t// in\n    tag_241:\n        /* \"@openzeppelin/contracts-upgradeable/proxy/ERC1967/ERC1967UpgradeUpgradeable.sol\":3236:3295  StorageSlotUpgradeable.getBooleanSlot(_ROLLBACK_SLOT).value */\n      0x00\n      add\n      0x00\n      swap1\n      sload\n      swap1\n      0x0100\n      exp\n      swap1\n      div\n      0xff\n      and\n        /* \"@openzeppelin/contracts-upgradeable/proxy/ERC1967/ERC1967UpgradeUpgradeable.sol\":3232:3758  if (StorageSlotUpgradeable.getBooleanSlot(_ROLLBACK_SLOT).value) {... */\n      iszero\n      tag_243\n      jumpi\n        /* \"@openzeppelin/contracts-upgradeable/proxy/ERC1967/ERC1967UpgradeUpgradeable.sol\":3311:3348  _setImplementation(newImplementation) */\n      tag_244\n        /* \"@openzeppelin/contracts-upgradeable/proxy/ERC1967/ERC1967UpgradeUpgradeable.sol\":3330:3347  newImplementation */\n      dup4\n        /* \"@openzeppelin/contracts-upgradeable/proxy/ERC1967/ERC1967UpgradeUpgradeable.sol\":3311:3329  _setImplementation */\n      tag_245\n        /* \"@openzeppelin/contracts-upgradeable/proxy/ERC1967/ERC1967UpgradeUpgradeable.sol\":3311:3348  _setImplementation(newImplementation) */\n      jump\t// in\n    tag_244:\n        /* \"@openzeppelin/contracts-upgradeable/proxy/ERC1967/ERC1967UpgradeUpgradeable.sol\":3232:3758  if (StorageSlotUpgradeable.getBooleanSlot(_ROLLBACK_SLOT).value) {... */\n      jump(tag_246)\n    tag_243:\n        /* \"@openzeppelin/contracts-upgradeable/proxy/ERC1967/ERC1967UpgradeUpgradeable.sol\":3412:3429  newImplementation */\n      dup3\n        /* \"@openzeppelin/contracts-upgradeable/proxy/ERC1967/ERC1967UpgradeUpgradeable.sol\":3383:3444  IERC1822ProxiableUpgradeable(newImplementation).proxiableUUID */\n      0xffffffffffffffffffffffffffffffffffffffff\n      and\n      0x52d1902d\n        /* \"@openzeppelin/contracts-upgradeable/proxy/ERC1967/ERC1967UpgradeUpgradeable.sol\":3383:3446  IERC1822ProxiableUpgradeable(newImplementation).proxiableUUID() */\n      mload(0x40)\n      dup2\n      0xffffffff\n      and\n      0xe0\n      shl\n      dup2\n      mstore\n      0x04\n      add\n      0x20\n      mload(0x40)\n      dup1\n      dup4\n      sub\n      dup2\n      dup7\n      gas\n      staticcall\n      swap3\n      pop\n      pop\n      pop\n      dup1\n      iszero\n      tag_247\n      jumpi\n      pop\n      mload(0x40)\n      returndatasize\n      not(0x1f)\n      0x1f\n      dup3\n      add\n      and\n      dup3\n      add\n      dup1\n      0x40\n      mstore\n      pop\n      dup2\n      add\n      swap1\n      tag_248\n      swap2\n      swap1\n      tag_211\n      jump\t// in\n    tag_248:\n      0x01\n    tag_247:\n        /* \"@openzeppelin/contracts-upgradeable/proxy/ERC1967/ERC1967UpgradeUpgradeable.sol\":3379:3681  try IERC1822ProxiableUpgradeable(newImplementation).proxiableUUID() returns (bytes32 slot) {... */\n      tag_249\n      jumpi\n        /* \"@openzeppelin/contracts-upgradeable/proxy/ERC1967/ERC1967UpgradeUpgradeable.sol\":3610:3666  revert(\"ERC1967Upgrade: new implementation is not UUPS\") */\n      mload(0x40)\n      0x08c379a000000000000000000000000000000000000000000000000000000000\n      dup2\n      mstore\n      0x04\n      add\n      tag_253\n      swap1\n      tag_254\n      jump\t// in\n    tag_253:\n      mload(0x40)\n      dup1\n      swap2\n      sub\n      swap1\n      revert\n        /* \"@openzeppelin/contracts-upgradeable/proxy/ERC1967/ERC1967UpgradeUpgradeable.sol\":3379:3681  try IERC1822ProxiableUpgradeable(newImplementation).proxiableUUID() returns (bytes32 slot) {... */\n    tag_249:\n        /* \"@openzeppelin/contracts-upgradeable/proxy/ERC1967/ERC1967UpgradeUpgradeable.sol\":1312:1378  0x360894a13ba1a3210667c828492db98dca3e2076cc3735a920a3ca505d382bbc */\n      0x360894a13ba1a3210667c828492db98dca3e2076cc3735a920a3ca505d382bbc\n        /* \"@openzeppelin/contracts-upgradeable/proxy/ERC1967/ERC1967UpgradeUpgradeable.sol\":3504:3524  _IMPLEMENTATION_SLOT */\n      0x00\n      shl\n        /* \"@openzeppelin/contracts-upgradeable/proxy/ERC1967/ERC1967UpgradeUpgradeable.sol\":3496:3500  slot */\n      dup2\n        /* \"@openzeppelin/contracts-upgradeable/proxy/ERC1967/ERC1967UpgradeUpgradeable.sol\":3496:3524  slot == _IMPLEMENTATION_SLOT */\n      eq\n        /* \"@openzeppelin/contracts-upgradeable/proxy/ERC1967/ERC1967UpgradeUpgradeable.sol\":3488:3570  require(slot == _IMPLEMENTATION_SLOT, \"ERC1967Upgrade: unsupported proxiableUUID\") */\n      tag_256\n      jumpi\n      mload(0x40)\n      0x08c379a000000000000000000000000000000000000000000000000000000000\n      dup2\n      mstore\n      0x04\n      add\n      tag_257\n      swap1\n      tag_258\n      jump\t// in\n    tag_257:\n      mload(0x40)\n      dup1\n      swap2\n      sub\n      swap1\n      revert\n    tag_256:\n        /* \"@openzeppelin/contracts-upgradeable/proxy/ERC1967/ERC1967UpgradeUpgradeable.sol\":3447:3585  returns (bytes32 slot) {... */\n      pop\n        /* \"@openzeppelin/contracts-upgradeable/proxy/ERC1967/ERC1967UpgradeUpgradeable.sol\":3694:3747  _upgradeToAndCall(newImplementation, data, forceCall) */\n      tag_259\n        /* \"@openzeppelin/contracts-upgradeable/proxy/ERC1967/ERC1967UpgradeUpgradeable.sol\":3712:3729  newImplementation */\n      dup4\n        /* \"@openzeppelin/contracts-upgradeable/proxy/ERC1967/ERC1967UpgradeUpgradeable.sol\":3731:3735  data */\n      dup4\n        /* \"@openzeppelin/contracts-upgradeable/proxy/ERC1967/ERC1967UpgradeUpgradeable.sol\":3737:3746  forceCall */\n      dup4\n        /* \"@openzeppelin/contracts-upgradeable/proxy/ERC1967/ERC1967UpgradeUpgradeable.sol\":3694:3711  _upgradeToAndCall */\n      tag_260\n        /* \"@openzeppelin/contracts-upgradeable/proxy/ERC1967/ERC1967UpgradeUpgradeable.sol\":3694:3747  _upgradeToAndCall(newImplementation, data, forceCall) */\n      jump\t// in\n    tag_259:\n        /* \"@openzeppelin/contracts-upgradeable/proxy/ERC1967/ERC1967UpgradeUpgradeable.sol\":3232:3758  if (StorageSlotUpgradeable.getBooleanSlot(_ROLLBACK_SLOT).value) {... */\n    tag_246:\n        /* \"@openzeppelin/contracts-upgradeable/proxy/ERC1967/ERC1967UpgradeUpgradeable.sol\":2820:3764  function _upgradeToAndCallUUPS(address newImplementation, bytes memory data, bool forceCall) internal {... */\n      pop\n      pop\n      pop\n      jump\t// out\n        /* \"@openzeppelin/contracts-upgradeable/utils/AddressUpgradeable.sol\":1423:1743  function isContract(address account) internal view returns (bool) {... */\n    tag_114:\n        /* \"@openzeppelin/contracts-upgradeable/utils/AddressUpgradeable.sol\":1483:1487  bool */\n      0x00\n        /* \"@openzeppelin/contracts-upgradeable/utils/AddressUpgradeable.sol\":1735:1736  0 */\n      0x00\n        /* \"@openzeppelin/contracts-upgradeable/utils/AddressUpgradeable.sol\":1713:1720  account */\n      dup3\n        /* \"@openzeppelin/contracts-upgradeable/utils/AddressUpgradeable.sol\":1713:1732  account.code.length */\n      0xffffffffffffffffffffffffffffffffffffffff\n      and\n      extcodesize\n        /* \"@openzeppelin/contracts-upgradeable/utils/AddressUpgradeable.sol\":1713:1736  account.code.length > 0 */\n      gt\n        /* \"@openzeppelin/contracts-upgradeable/utils/AddressUpgradeable.sol\":1706:1736  return account.code.length > 0 */\n      swap1\n      pop\n        /* \"@openzeppelin/contracts-upgradeable/utils/AddressUpgradeable.sol\":1423:1743  function isContract(address account) internal view returns (bool) {... */\n      swap2\n      swap1\n      pop\n      jump\t// out\n        /* \"@openzeppelin/contracts-upgradeable/proxy/utils/UUPSUpgradeable.sol\":1042:1109  function __UUPSUpgradeable_init() internal onlyInitializing {... */\n    tag_122:\n        /* \"@openzeppelin/contracts-upgradeable/proxy/utils/Initializable.sol\":5374:5387  _initializing */\n      0x00\n      0x01\n      swap1\n      sload\n      swap1\n      0x0100\n      exp\n      swap1\n      div\n      0xff\n      and\n        /* \"@openzeppelin/contracts-upgradeable/proxy/utils/Initializable.sol\":5366:5435  require(_initializing, \"Initializable: contract is not initializing\") */\n      tag_263\n      jumpi\n      mload(0x40)\n      0x08c379a000000000000000000000000000000000000000000000000000000000\n      dup2\n      mstore\n      0x04\n      add\n      tag_264\n      swap1\n      tag_265\n      jump\t// in\n    tag_264:\n      mload(0x40)\n      dup1\n      swap2\n      sub\n      swap1\n      revert\n    tag_263:\n        /* \"@openzeppelin/contracts-upgradeable/proxy/utils/UUPSUpgradeable.sol\":1042:1109  function __UUPSUpgradeable_init() internal onlyInitializing {... */\n      jump\t// out\n        /* \"contracts/NFTAuction.sol\":5754:6133  function _convertToUSD(uint256 _amount, address _tokenAddress) internal view returns (uint256){... */\n    tag_149:\n        /* \"contracts/NFTAuction.sol\":5840:5847  uint256 */\n      0x00\n        /* \"contracts/NFTAuction.sol\":5859:5890  AggregatorV3Interface priceFeed */\n      0x00\n        /* \"contracts/NFTAuction.sol\":5916:5917  0 */\n      0x00\n        /* \"contracts/NFTAuction.sol\":5893:5918  _tokenAddress==address(0) */\n      0xffffffffffffffffffffffffffffffffffffffff\n      and\n        /* \"contracts/NFTAuction.sol\":5893:5906  _tokenAddress */\n      dup4\n        /* \"contracts/NFTAuction.sol\":5893:5918  _tokenAddress==address(0) */\n      0xffffffffffffffffffffffffffffffffffffffff\n      and\n      eq\n        /* \"contracts/NFTAuction.sol\":5893:5957  _tokenAddress==address(0)?ethPriceFeed:priceFeeds[_tokenAddress] */\n      tag_268\n      jumpi\n        /* \"contracts/NFTAuction.sol\":5932:5942  priceFeeds */\n      0x69\n        /* \"contracts/NFTAuction.sol\":5932:5957  priceFeeds[_tokenAddress] */\n      0x00\n        /* \"contracts/NFTAuction.sol\":5943:5956  _tokenAddress */\n      dup5\n        /* \"contracts/NFTAuction.sol\":5932:5957  priceFeeds[_tokenAddress] */\n      0xffffffffffffffffffffffffffffffffffffffff\n      and\n      0xffffffffffffffffffffffffffffffffffffffff\n      and\n      dup2\n      mstore\n      0x20\n      add\n      swap1\n      dup2\n      mstore\n      0x20\n      add\n      0x00\n      keccak256\n      0x00\n      swap1\n      sload\n      swap1\n      0x0100\n      exp\n      swap1\n      div\n      0xffffffffffffffffffffffffffffffffffffffff\n      and\n        /* \"contracts/NFTAuction.sol\":5893:5957  _tokenAddress==address(0)?ethPriceFeed:priceFeeds[_tokenAddress] */\n      jump(tag_269)\n    tag_268:\n        /* \"contracts/NFTAuction.sol\":5919:5931  ethPriceFeed */\n      0x68\n      0x00\n      swap1\n      sload\n      swap1\n      0x0100\n      exp\n      swap1\n      div\n      0xffffffffffffffffffffffffffffffffffffffff\n      and\n        /* \"contracts/NFTAuction.sol\":5893:5957  _tokenAddress==address(0)?ethPriceFeed:priceFeeds[_tokenAddress] */\n    tag_269:\n        /* \"contracts/NFTAuction.sol\":5859:5957  AggregatorV3Interface priceFeed = _tokenAddress==address(0)?ethPriceFeed:priceFeeds[_tokenAddress] */\n      swap1\n      pop\n        /* \"contracts/NFTAuction.sol\":5973:5982  int price */\n      0x00\n        /* \"contracts/NFTAuction.sol\":5989:5998  priceFeed */\n      dup2\n        /* \"contracts/NFTAuction.sol\":5989:6014  priceFeed.latestRoundData */\n      0xffffffffffffffffffffffffffffffffffffffff\n      and\n      0xfeaf968c\n        /* \"contracts/NFTAuction.sol\":5989:6016  priceFeed.latestRoundData() */\n      mload(0x40)\n      dup2\n      0xffffffff\n      and\n      0xe0\n      shl\n      dup2\n      mstore\n      0x04\n      add\n      0xa0\n      mload(0x40)\n      dup1\n      dup4\n      sub\n      dup2\n      dup7\n      gas\n      staticcall\n      iszero\n      dup1\n      iszero\n      tag_271\n      jumpi\n      returndatacopy(0x00, 0x00, returndatasize)\n      revert(0x00, returndatasize)\n    tag_271:\n      pop\n      pop\n      pop\n      pop\n      mload(0x40)\n      returndatasize\n      not(0x1f)\n      0x1f\n      dup3\n      add\n      and\n      dup3\n      add\n      dup1\n      0x40\n      mstore\n      pop\n      dup2\n      add\n      swap1\n      tag_272\n      swap2\n      swap1\n      tag_273\n      jump\t// in\n    tag_272:\n        /* \"contracts/NFTAuction.sol\":5970:6016  (, int price,,,) = priceFeed.latestRoundData() */\n      pop\n      pop\n      pop\n      swap2\n      pop\n      pop\n        /* \"contracts/NFTAuction.sol\":6027:6041  uint8 decimals */\n      0x00\n        /* \"contracts/NFTAuction.sol\":6044:6053  priceFeed */\n      dup3\n        /* \"contracts/NFTAuction.sol\":6044:6062  priceFeed.decimals */\n      0xffffffffffffffffffffffffffffffffffffffff\n      and\n      0x313ce567\n        /* \"contracts/NFTAuction.sol\":6044:6064  priceFeed.decimals() */\n      mload(0x40)\n      dup2\n      0xffffffff\n      and\n      0xe0\n      shl\n      dup2\n      mstore\n      0x04\n      add\n      0x20\n      mload(0x40)\n      dup1\n      dup4\n      sub\n      dup2\n      dup7\n      gas\n      staticcall\n      iszero\n      dup1\n      iszero\n      tag_275\n      jumpi\n      returndatacopy(0x00, 0x00, returndatasize)\n      revert(0x00, returndatasize)\n    tag_275:\n      pop\n      pop\n      pop\n      pop\n      mload(0x40)\n      returndatasize\n      not(0x1f)\n      0x1f\n      dup3\n      add\n      and\n      dup3\n      add\n      dup1\n      0x40\n      mstore\n      pop\n      dup2\n      add\n      swap1\n      tag_276\n      swap2\n      swap1\n      tag_277\n      jump\t// in\n    tag_276:\n        /* \"contracts/NFTAuction.sol\":6027:6064  uint8 decimals = priceFeed.decimals() */\n      swap1\n      pop\n        /* \"contracts/NFTAuction.sol\":6116:6124  decimals */\n      dup1\n        /* \"contracts/NFTAuction.sol\":6112:6114  10 */\n      0x0a\n        /* \"contracts/NFTAuction.sol\":6112:6124  10**decimals */\n      tag_278\n      swap2\n      swap1\n      tag_279\n      jump\t// in\n    tag_278:\n        /* \"contracts/NFTAuction.sol\":6103:6108  price */\n      dup3\n        /* \"contracts/NFTAuction.sol\":6085:6092  _amount */\n      dup8\n        /* \"contracts/NFTAuction.sol\":6085:6109  _amount * uint256(price) */\n      tag_280\n      swap2\n      swap1\n      tag_281\n      jump\t// in\n    tag_280:\n        /* \"contracts/NFTAuction.sol\":6084:6125  (_amount * uint256(price))/(10**decimals) */\n      tag_282\n      swap2\n      swap1\n      tag_283\n      jump\t// in\n    tag_282:\n        /* \"contracts/NFTAuction.sol\":6077:6125  return (_amount * uint256(price))/(10**decimals) */\n      swap4\n      pop\n      pop\n      pop\n      pop\n        /* \"contracts/NFTAuction.sol\":5754:6133  function _convertToUSD(uint256 _amount, address _tokenAddress) internal view returns (uint256){... */\n      swap3\n      swap2\n      pop\n      pop\n      jump\t// out\n        /* \"@chainlink/contracts/src/v0.8/ccip/libraries/Client.sol\":1286:1464  function _argsToBytes(... */\n    tag_205:\n        /* \"@chainlink/contracts/src/v0.8/ccip/libraries/Client.sol\":1372:1388  bytes memory bts */\n      0x60\n        /* \"@chainlink/contracts/src/v0.8/ccip/libraries/Client.sol\":1218:1228  0x97a657c9 */\n      0x97a657c9\n        /* \"@chainlink/contracts/src/v0.8/ccip/libraries/Client.sol\":1426:1447  EVM_EXTRA_ARGS_V1_TAG */\n      0xe0\n      shl\n        /* \"@chainlink/contracts/src/v0.8/ccip/libraries/Client.sol\":1449:1458  extraArgs */\n      dup3\n        /* \"@chainlink/contracts/src/v0.8/ccip/libraries/Client.sol\":1403:1459  abi.encodeWithSelector(EVM_EXTRA_ARGS_V1_TAG, extraArgs) */\n      add(0x24, mload(0x40))\n      tag_285\n      swap2\n      swap1\n      tag_286\n      jump\t// in\n    tag_285:\n      mload(0x40)\n      0x20\n      dup2\n      dup4\n      sub\n      sub\n      dup2\n      mstore\n      swap1\n      0x40\n      mstore\n      swap1\n      not(0xffffffffffffffffffffffffffffffffffffffffffffffffffffffff)\n      and\n      0x20\n      dup3\n      add\n      dup1\n      mload\n      0xffffffffffffffffffffffffffffffffffffffffffffffffffffffff\n      dup4\n      dup2\n      dup4\n      and\n      or\n      dup4\n      mstore\n      pop\n      pop\n      pop\n      pop\n        /* \"@chainlink/contracts/src/v0.8/ccip/libraries/Client.sol\":1396:1459  return abi.encodeWithSelector(EVM_EXTRA_ARGS_V1_TAG, extraArgs) */\n      swap1\n      pop\n        /* \"@chainlink/contracts/src/v0.8/ccip/libraries/Client.sol\":1286:1464  function _argsToBytes(... */\n      swap2\n      swap1\n      pop\n      jump\t// out\n        /* \"@openzeppelin/contracts-upgradeable/utils/StorageSlotUpgradeable.sol\":1870:2060  function getAddressSlot(bytes32 slot) internal pure returns (AddressSlot storage r) {... */\n    tag_238:\n        /* \"@openzeppelin/contracts-upgradeable/utils/StorageSlotUpgradeable.sol\":1931:1952  AddressSlot storage r */\n      0x00\n        /* \"@openzeppelin/contracts-upgradeable/utils/StorageSlotUpgradeable.sol\":2040:2044  slot */\n      dup2\n        /* \"@openzeppelin/contracts-upgradeable/utils/StorageSlotUpgradeable.sol\":2030:2044  r.slot := slot */\n      swap1\n      pop\n        /* \"@openzeppelin/contracts-upgradeable/utils/StorageSlotUpgradeable.sol\":1870:2060  function getAddressSlot(bytes32 slot) internal pure returns (AddressSlot storage r) {... */\n      swap2\n      swap1\n      pop\n      jump\t// out\n        /* \"@openzeppelin/contracts-upgradeable/utils/StorageSlotUpgradeable.sol\":2158:2348  function getBooleanSlot(bytes32 slot) internal pure returns (BooleanSlot storage r) {... */\n    tag_242:\n        /* \"@openzeppelin/contracts-upgradeable/utils/StorageSlotUpgradeable.sol\":2219:2240  BooleanSlot storage r */\n      0x00\n        /* \"@openzeppelin/contracts-upgradeable/utils/StorageSlotUpgradeable.sol\":2328:2332  slot */\n      dup2\n        /* \"@openzeppelin/contracts-upgradeable/utils/StorageSlotUpgradeable.sol\":2318:2332  r.slot := slot */\n      swap1\n      pop\n        /* \"@openzeppelin/contracts-upgradeable/utils/StorageSlotUpgradeable.sol\":2158:2348  function getBooleanSlot(bytes32 slot) internal pure returns (BooleanSlot storage r) {... */\n      swap2\n      swap1\n      pop\n      jump\t// out\n        /* \"@openzeppelin/contracts-upgradeable/proxy/ERC1967/ERC1967UpgradeUpgradeable.sol\":1699:1980  function _setImplementation(address newImplementation) private {... */\n    tag_245:\n        /* \"@openzeppelin/contracts-upgradeable/proxy/ERC1967/ERC1967UpgradeUpgradeable.sol\":1780:1828  AddressUpgradeable.isContract(newImplementation) */\n      tag_290\n        /* \"@openzeppelin/contracts-upgradeable/proxy/ERC1967/ERC1967UpgradeUpgradeable.sol\":1810:1827  newImplementation */\n      dup2\n        /* \"@openzeppelin/contracts-upgradeable/proxy/ERC1967/ERC1967UpgradeUpgradeable.sol\":1780:1809  AddressUpgradeable.isContract */\n      tag_114\n        /* \"@openzeppelin/contracts-upgradeable/proxy/ERC1967/ERC1967UpgradeUpgradeable.sol\":1780:1828  AddressUpgradeable.isContract(newImplementation) */\n      jump\t// in\n    tag_290:\n        /* \"@openzeppelin/contracts-upgradeable/proxy/ERC1967/ERC1967UpgradeUpgradeable.sol\":1772:1878  require(AddressUpgradeable.isContract(newImplementation), \"ERC1967: new implementation is not a contract\") */\n      tag_291\n      jumpi\n      mload(0x40)\n      0x08c379a000000000000000000000000000000000000000000000000000000000\n      dup2\n      mstore\n      0x04\n      add\n      tag_292\n      swap1\n      tag_293\n      jump\t// in\n    tag_292:\n      mload(0x40)\n      dup1\n      swap2\n      sub\n      swap1\n      revert\n    tag_291:\n        /* \"@openzeppelin/contracts-upgradeable/proxy/ERC1967/ERC1967UpgradeUpgradeable.sol\":1956:1973  newImplementation */\n      dup1\n        /* \"@openzeppelin/contracts-upgradeable/proxy/ERC1967/ERC1967UpgradeUpgradeable.sol\":1888:1947  StorageSlotUpgradeable.getAddressSlot(_IMPLEMENTATION_SLOT) */\n      tag_294\n        /* \"@openzeppelin/contracts-upgradeable/proxy/ERC1967/ERC1967UpgradeUpgradeable.sol\":1312:1378  0x360894a13ba1a3210667c828492db98dca3e2076cc3735a920a3ca505d382bbc */\n      0x360894a13ba1a3210667c828492db98dca3e2076cc3735a920a3ca505d382bbc\n        /* \"@openzeppelin/contracts-upgradeable/proxy/ERC1967/ERC1967UpgradeUpgradeable.sol\":1926:1946  _IMPLEMENTATION_SLOT */\n      0x00\n      shl\n        /* \"@openzeppelin/contracts-upgradeable/proxy/ERC1967/ERC1967UpgradeUpgradeable.sol\":1888:1925  StorageSlotUpgradeable.getAddressSlot */\n      tag_238\n        /* \"@openzeppelin/contracts-upgradeable/proxy/ERC1967/ERC1967UpgradeUpgradeable.sol\":1888:1947  StorageSlotUpgradeable.getAddressSlot(_IMPLEMENTATION_SLOT) */\n      jump\t// in\n    tag_294:\n        /* \"@openzeppelin/contracts-upgradeable/proxy/ERC1967/ERC1967UpgradeUpgradeable.sol\":1888:1953  StorageSlotUpgradeable.getAddressSlot(_IMPLEMENTATION_SLOT).value */\n      0x00\n      add\n      0x00\n        /* \"@openzeppelin/contracts-upgradeable/proxy/ERC1967/ERC1967UpgradeUpgradeable.sol\":1888:1973  StorageSlotUpgradeable.getAddressSlot(_IMPLEMENTATION_SLOT).value = newImplementation */\n      0x0100\n      exp\n      dup2\n      sload\n      dup2\n      0xffffffffffffffffffffffffffffffffffffffff\n      mul\n      not\n      and\n      swap1\n      dup4\n      0xffffffffffffffffffffffffffffffffffffffff\n      and\n      mul\n      or\n      swap1\n      sstore\n      pop\n        /* \"@openzeppelin/contracts-upgradeable/proxy/ERC1967/ERC1967UpgradeUpgradeable.sol\":1699:1980  function _setImplementation(address newImplementation) private {... */\n      pop\n      jump\t// out\n        /* \"@openzeppelin/contracts-upgradeable/proxy/ERC1967/ERC1967UpgradeUpgradeable.sol\":2372:2648  function _upgradeToAndCall(address newImplementation, bytes memory data, bool forceCall) internal {... */\n    tag_260:\n        /* \"@openzeppelin/contracts-upgradeable/proxy/ERC1967/ERC1967UpgradeUpgradeable.sol\":2480:2509  _upgradeTo(newImplementation) */\n      tag_296\n        /* \"@openzeppelin/contracts-upgradeable/proxy/ERC1967/ERC1967UpgradeUpgradeable.sol\":2491:2508  newImplementation */\n      dup4\n        /* \"@openzeppelin/contracts-upgradeable/proxy/ERC1967/ERC1967UpgradeUpgradeable.sol\":2480:2490  _upgradeTo */\n      tag_297\n        /* \"@openzeppelin/contracts-upgradeable/proxy/ERC1967/ERC1967UpgradeUpgradeable.sol\":2480:2509  _upgradeTo(newImplementation) */\n      jump\t// in\n    tag_296:\n        /* \"@openzeppelin/contracts-upgradeable/proxy/ERC1967/ERC1967UpgradeUpgradeable.sol\":2537:2538  0 */\n      0x00\n        /* \"@openzeppelin/contracts-upgradeable/proxy/ERC1967/ERC1967UpgradeUpgradeable.sol\":2523:2527  data */\n      dup3\n        /* \"@openzeppelin/contracts-upgradeable/proxy/ERC1967/ERC1967UpgradeUpgradeable.sol\":2523:2534  data.length */\n      mload\n        /* \"@openzeppelin/contracts-upgradeable/proxy/ERC1967/ERC1967UpgradeUpgradeable.sol\":2523:2538  data.length > 0 */\n      gt\n        /* \"@openzeppelin/contracts-upgradeable/proxy/ERC1967/ERC1967UpgradeUpgradeable.sol\":2523:2551  data.length > 0 || forceCall */\n      dup1\n      tag_298\n      jumpi\n      pop\n        /* \"@openzeppelin/contracts-upgradeable/proxy/ERC1967/ERC1967UpgradeUpgradeable.sol\":2542:2551  forceCall */\n      dup1\n        /* \"@openzeppelin/contracts-upgradeable/proxy/ERC1967/ERC1967UpgradeUpgradeable.sol\":2523:2551  data.length > 0 || forceCall */\n    tag_298:\n        /* \"@openzeppelin/contracts-upgradeable/proxy/ERC1967/ERC1967UpgradeUpgradeable.sol\":2519:2642  if (data.length > 0 || forceCall) {... */\n      iszero\n      tag_299\n      jumpi\n        /* \"@openzeppelin/contracts-upgradeable/proxy/ERC1967/ERC1967UpgradeUpgradeable.sol\":2567:2631  AddressUpgradeable.functionDelegateCall(newImplementation, data) */\n      tag_300\n        /* \"@openzeppelin/contracts-upgradeable/proxy/ERC1967/ERC1967UpgradeUpgradeable.sol\":2607:2624  newImplementation */\n      dup4\n        /* \"@openzeppelin/contracts-upgradeable/proxy/ERC1967/ERC1967UpgradeUpgradeable.sol\":2626:2630  data */\n      dup4\n        /* \"@openzeppelin/contracts-upgradeable/proxy/ERC1967/ERC1967UpgradeUpgradeable.sol\":2567:2606  AddressUpgradeable.functionDelegateCall */\n      tag_301\n        /* \"@openzeppelin/contracts-upgradeable/proxy/ERC1967/ERC1967UpgradeUpgradeable.sol\":2567:2631  AddressUpgradeable.functionDelegateCall(newImplementation, data) */\n      jump\t// in\n    tag_300:\n      pop\n        /* \"@openzeppelin/contracts-upgradeable/proxy/ERC1967/ERC1967UpgradeUpgradeable.sol\":2519:2642  if (data.length > 0 || forceCall) {... */\n    tag_299:\n        /* \"@openzeppelin/contracts-upgradeable/proxy/ERC1967/ERC1967UpgradeUpgradeable.sol\":2372:2648  function _upgradeToAndCall(address newImplementation, bytes memory data, bool forceCall) internal {... */\n      pop\n      pop\n      pop\n      jump\t// out\n        /* \"@openzeppelin/contracts-upgradeable/proxy/ERC1967/ERC1967UpgradeUpgradeable.sol\":2086:2238  function _upgradeTo(address newImplementation) internal {... */\n    tag_297:\n        /* \"@openzeppelin/contracts-upgradeable/proxy/ERC1967/ERC1967UpgradeUpgradeable.sol\":2152:2189  _setImplementation(newImplementation) */\n      tag_303\n        /* \"@openzeppelin/contracts-upgradeable/proxy/ERC1967/ERC1967UpgradeUpgradeable.sol\":2171:2188  newImplementation */\n      dup2\n        /* \"@openzeppelin/contracts-upgradeable/proxy/ERC1967/ERC1967UpgradeUpgradeable.sol\":2152:2170  _setImplementation */\n      tag_245\n        /* \"@openzeppelin/contracts-upgradeable/proxy/ERC1967/ERC1967UpgradeUpgradeable.sol\":2152:2189  _setImplementation(newImplementation) */\n      jump\t// in\n    tag_303:\n        /* \"@openzeppelin/contracts-upgradeable/proxy/ERC1967/ERC1967UpgradeUpgradeable.sol\":2213:2230  newImplementation */\n      dup1\n        /* \"@openzeppelin/contracts-upgradeable/proxy/ERC1967/ERC1967UpgradeUpgradeable.sol\":2204:2231  Upgraded(newImplementation) */\n      0xffffffffffffffffffffffffffffffffffffffff\n      and\n      0xbc7cd75a20ee27fd9adebab32041f755214dbc6bffa90cc0225b39da2e5c2d3b\n      mload(0x40)\n      mload(0x40)\n      dup1\n      swap2\n      sub\n      swap1\n      log2\n        /* \"@openzeppelin/contracts-upgradeable/proxy/ERC1967/ERC1967UpgradeUpgradeable.sol\":2086:2238  function _upgradeTo(address newImplementation) internal {... */\n      pop\n      jump\t// out\n        /* \"@openzeppelin/contracts-upgradeable/utils/AddressUpgradeable.sol\":6685:6883  function functionDelegateCall(address target, bytes memory data) internal returns (bytes memory) {... */\n    tag_301:\n        /* \"@openzeppelin/contracts-upgradeable/utils/AddressUpgradeable.sol\":6768:6780  bytes memory */\n      0x60\n        /* \"@openzeppelin/contracts-upgradeable/utils/AddressUpgradeable.sol\":6799:6876  functionDelegateCall(target, data, \"Address: low-level delegate call failed\") */\n      tag_305\n        /* \"@openzeppelin/contracts-upgradeable/utils/AddressUpgradeable.sol\":6820:6826  target */\n      dup4\n        /* \"@openzeppelin/contracts-upgradeable/utils/AddressUpgradeable.sol\":6828:6832  data */\n      dup4\n        /* \"@openzeppelin/contracts-upgradeable/utils/AddressUpgradeable.sol\":6799:6876  functionDelegateCall(target, data, \"Address: low-level delegate call failed\") */\n      mload(0x40)\n      dup1\n      0x60\n      add\n      0x40\n      mstore\n      dup1\n      0x27\n      dup2\n      mstore\n      0x20\n      add\n      data_9fdcd12e4b726339b32a442b0a448365d5d85c96b2d2cff917b4f66c63110398\n      0x27\n      swap2\n      codecopy\n        /* \"@openzeppelin/contracts-upgradeable/utils/AddressUpgradeable.sol\":6799:6819  functionDelegateCall */\n      tag_306\n        /* \"@openzeppelin/contracts-upgradeable/utils/AddressUpgradeable.sol\":6799:6876  functionDelegateCall(target, data, \"Address: low-level delegate call failed\") */\n      jump\t// in\n    tag_305:\n        /* \"@openzeppelin/contracts-upgradeable/utils/AddressUpgradeable.sol\":6792:6876  return functionDelegateCall(target, data, \"Address: low-level delegate call failed\") */\n      swap1\n      pop\n        /* \"@openzeppelin/contracts-upgradeable/utils/AddressUpgradeable.sol\":6685:6883  function functionDelegateCall(address target, bytes memory data) internal returns (bytes memory) {... */\n      swap3\n      swap2\n      pop\n      pop\n      jump\t// out\n        /* \"@openzeppelin/contracts-upgradeable/utils/AddressUpgradeable.sol\":7069:7394  function functionDelegateCall(... */\n    tag_306:\n        /* \"@openzeppelin/contracts-upgradeable/utils/AddressUpgradeable.sol\":7210:7222  bytes memory */\n      0x60\n        /* \"@openzeppelin/contracts-upgradeable/utils/AddressUpgradeable.sol\":7235:7247  bool success */\n      0x00\n        /* \"@openzeppelin/contracts-upgradeable/utils/AddressUpgradeable.sol\":7249:7272  bytes memory returndata */\n      0x00\n        /* \"@openzeppelin/contracts-upgradeable/utils/AddressUpgradeable.sol\":7276:7282  target */\n      dup6\n        /* \"@openzeppelin/contracts-upgradeable/utils/AddressUpgradeable.sol\":7276:7295  target.delegatecall */\n      0xffffffffffffffffffffffffffffffffffffffff\n      and\n        /* \"@openzeppelin/contracts-upgradeable/utils/AddressUpgradeable.sol\":7296:7300  data */\n      dup6\n        /* \"@openzeppelin/contracts-upgradeable/utils/AddressUpgradeable.sol\":7276:7301  target.delegatecall(data) */\n      mload(0x40)\n      tag_308\n      swap2\n      swap1\n      tag_309\n      jump\t// in\n    tag_308:\n      0x00\n      mload(0x40)\n      dup1\n      dup4\n      sub\n      dup2\n      dup6\n      gas\n      delegatecall\n      swap2\n      pop\n      pop\n      returndatasize\n      dup1\n      0x00\n      dup2\n      eq\n      tag_312\n      jumpi\n      mload(0x40)\n      swap2\n      pop\n      and(add(returndatasize, 0x3f), not(0x1f))\n      dup3\n      add\n      0x40\n      mstore\n      returndatasize\n      dup3\n      mstore\n      returndatasize\n      0x00\n      0x20\n      dup5\n      add\n      returndatacopy\n      jump(tag_311)\n    tag_312:\n      0x60\n      swap2\n      pop\n    tag_311:\n      pop\n        /* \"@openzeppelin/contracts-upgradeable/utils/AddressUpgradeable.sol\":7234:7301  (bool success, bytes memory returndata) = target.delegatecall(data) */\n      swap2\n      pop\n      swap2\n      pop\n        /* \"@openzeppelin/contracts-upgradeable/utils/AddressUpgradeable.sol\":7318:7387  verifyCallResultFromTarget(target, success, returndata, errorMessage) */\n      tag_313\n        /* \"@openzeppelin/contracts-upgradeable/utils/AddressUpgradeable.sol\":7345:7351  target */\n      dup7\n        /* \"@openzeppelin/contracts-upgradeable/utils/AddressUpgradeable.sol\":7353:7360  success */\n      dup4\n        /* \"@openzeppelin/contracts-upgradeable/utils/AddressUpgradeable.sol\":7362:7372  returndata */\n      dup4\n        /* \"@openzeppelin/contracts-upgradeable/utils/AddressUpgradeable.sol\":7374:7386  errorMessage */\n      dup8\n        /* \"@openzeppelin/contracts-upgradeable/utils/AddressUpgradeable.sol\":7318:7344  verifyCallResultFromTarget */\n      tag_314\n        /* \"@openzeppelin/contracts-upgradeable/utils/AddressUpgradeable.sol\":7318:7387  verifyCallResultFromTarget(target, success, returndata, errorMessage) */\n      jump\t// in\n    tag_313:\n        /* \"@openzeppelin/contracts-upgradeable/utils/AddressUpgradeable.sol\":7311:7387  return verifyCallResultFromTarget(target, success, returndata, errorMessage) */\n      swap3\n      pop\n      pop\n      pop\n        /* \"@openzeppelin/contracts-upgradeable/utils/AddressUpgradeable.sol\":7069:7394  function functionDelegateCall(... */\n      swap4\n      swap3\n      pop\n      pop\n      pop\n      jump\t// out\n        /* \"@openzeppelin/contracts-upgradeable/utils/AddressUpgradeable.sol\":7682:8310  function verifyCallResultFromTarget(... */\n    tag_314:\n        /* \"@openzeppelin/contracts-upgradeable/utils/AddressUpgradeable.sol\":7862:7874  bytes memory */\n      0x60\n        /* \"@openzeppelin/contracts-upgradeable/utils/AddressUpgradeable.sol\":7890:7897  success */\n      dup4\n        /* \"@openzeppelin/contracts-upgradeable/utils/AddressUpgradeable.sol\":7886:8304  if (success) {... */\n      iszero\n      tag_316\n      jumpi\n        /* \"@openzeppelin/contracts-upgradeable/utils/AddressUpgradeable.sol\":7938:7939  0 */\n      0x00\n        /* \"@openzeppelin/contracts-upgradeable/utils/AddressUpgradeable.sol\":7917:7927  returndata */\n      dup4\n        /* \"@openzeppelin/contracts-upgradeable/utils/AddressUpgradeable.sol\":7917:7934  returndata.length */\n      mload\n        /* \"@openzeppelin/contracts-upgradeable/utils/AddressUpgradeable.sol\":7917:7939  returndata.length == 0 */\n      sub\n        /* \"@openzeppelin/contracts-upgradeable/utils/AddressUpgradeable.sol\":7913:8199  if (returndata.length == 0) {... */\n      tag_317\n      jumpi\n        /* \"@openzeppelin/contracts-upgradeable/utils/AddressUpgradeable.sol\":8132:8150  isContract(target) */\n      tag_318\n        /* \"@openzeppelin/contracts-upgradeable/utils/AddressUpgradeable.sol\":8143:8149  target */\n      dup6\n        /* \"@openzeppelin/contracts-upgradeable/utils/AddressUpgradeable.sol\":8132:8142  isContract */\n      tag_114\n        /* \"@openzeppelin/contracts-upgradeable/utils/AddressUpgradeable.sol\":8132:8150  isContract(target) */\n      jump\t// in\n    tag_318:\n        /* \"@openzeppelin/contracts-upgradeable/utils/AddressUpgradeable.sol\":8124:8184  require(isContract(target), \"Address: call to non-contract\") */\n      tag_319\n      jumpi\n      mload(0x40)\n      0x08c379a000000000000000000000000000000000000000000000000000000000\n      dup2\n      mstore\n      0x04\n      add\n      tag_320\n      swap1\n      tag_321\n      jump\t// in\n    tag_320:\n      mload(0x40)\n      dup1\n      swap2\n      sub\n      swap1\n      revert\n    tag_319:\n        /* \"@openzeppelin/contracts-upgradeable/utils/AddressUpgradeable.sol\":7913:8199  if (returndata.length == 0) {... */\n    tag_317:\n        /* \"@openzeppelin/contracts-upgradeable/utils/AddressUpgradeable.sol\":8219:8229  returndata */\n      dup3\n        /* \"@openzeppelin/contracts-upgradeable/utils/AddressUpgradeable.sol\":8212:8229  return returndata */\n      swap1\n      pop\n      jump(tag_315)\n        /* \"@openzeppelin/contracts-upgradeable/utils/AddressUpgradeable.sol\":7886:8304  if (success) {... */\n    tag_316:\n        /* \"@openzeppelin/contracts-upgradeable/utils/AddressUpgradeable.sol\":8260:8293  _revert(returndata, errorMessage) */\n      tag_323\n        /* \"@openzeppelin/contracts-upgradeable/utils/AddressUpgradeable.sol\":8268:8278  returndata */\n      dup4\n        /* \"@openzeppelin/contracts-upgradeable/utils/AddressUpgradeable.sol\":8280:8292  errorMessage */\n      dup4\n        /* \"@openzeppelin/contracts-upgradeable/utils/AddressUpgradeable.sol\":8260:8267  _revert */\n      tag_324\n        /* \"@openzeppelin/contracts-upgradeable/utils/AddressUpgradeable.sol\":8260:8293  _revert(returndata, errorMessage) */\n      jump\t// in\n    tag_323:\n        /* \"@openzeppelin/contracts-upgradeable/utils/AddressUpgradeable.sol\":7682:8310  function verifyCallResultFromTarget(... */\n    tag_315:\n      swap5\n      swap4\n      pop\n      pop\n      pop\n      pop\n      jump\t// out\n        /* \"@openzeppelin/contracts-upgradeable/utils/AddressUpgradeable.sol\":8832:9372  function _revert(bytes memory returndata, string memory errorMessage) private pure {... */\n    tag_324:\n        /* \"@openzeppelin/contracts-upgradeable/utils/AddressUpgradeable.sol\":9011:9012  0 */\n      0x00\n        /* \"@openzeppelin/contracts-upgradeable/utils/AddressUpgradeable.sol\":8991:9001  returndata */\n      dup3\n        /* \"@openzeppelin/contracts-upgradeable/utils/AddressUpgradeable.sol\":8991:9008  returndata.length */\n      mload\n        /* \"@openzeppelin/contracts-upgradeable/utils/AddressUpgradeable.sol\":8991:9012  returndata.length > 0 */\n      gt\n        /* \"@openzeppelin/contracts-upgradeable/utils/AddressUpgradeable.sol\":8987:9366  if (returndata.length > 0) {... */\n      iszero\n      tag_326\n      jumpi\n        /* \"@openzeppelin/contracts-upgradeable/utils/AddressUpgradeable.sol\":9219:9229  returndata */\n      dup2\n        /* \"@openzeppelin/contracts-upgradeable/utils/AddressUpgradeable.sol\":9213:9230  mload(returndata) */\n      mload\n        /* \"@openzeppelin/contracts-upgradeable/utils/AddressUpgradeable.sol\":9275:9290  returndata_size */\n      dup1\n        /* \"@openzeppelin/contracts-upgradeable/utils/AddressUpgradeable.sol\":9262:9272  returndata */\n      dup4\n        /* \"@openzeppelin/contracts-upgradeable/utils/AddressUpgradeable.sol\":9258:9260  32 */\n      0x20\n        /* \"@openzeppelin/contracts-upgradeable/utils/AddressUpgradeable.sol\":9254:9273  add(32, returndata) */\n      add\n        /* \"@openzeppelin/contracts-upgradeable/utils/AddressUpgradeable.sol\":9247:9291  revert(add(32, returndata), returndata_size) */\n      revert\n        /* \"@openzeppelin/contracts-upgradeable/utils/AddressUpgradeable.sol\":8987:9366  if (returndata.length > 0) {... */\n    tag_326:\n        /* \"@openzeppelin/contracts-upgradeable/utils/AddressUpgradeable.sol\":9342:9354  errorMessage */\n      dup1\n        /* \"@openzeppelin/contracts-upgradeable/utils/AddressUpgradeable.sol\":9335:9355  revert(errorMessage) */\n      mload(0x40)\n      0x08c379a000000000000000000000000000000000000000000000000000000000\n      dup2\n      mstore\n      0x04\n      add\n      tag_328\n      swap2\n      swap1\n      tag_329\n      jump\t// in\n    tag_328:\n      mload(0x40)\n      dup1\n      swap2\n      sub\n      swap1\n      revert\n    tag_203:\n      mload(0x40)\n      dup1\n      0x40\n      add\n      0x40\n      mstore\n      dup1\n      and(0xffffffffffffffffffffffffffffffffffffffff, 0x00)\n      dup2\n      mstore\n      0x20\n      add\n      0x00\n      dup2\n      mstore\n      pop\n      swap1\n      jump\t// out\n        /* \"#utility.yul\":7:133   */\n    tag_330:\n        /* \"#utility.yul\":44:51   */\n      0x00\n        /* \"#utility.yul\":84:126   */\n      0xffffffffffffffffffffffffffffffffffffffff\n        /* \"#utility.yul\":77:82   */\n      dup3\n        /* \"#utility.yul\":73:127   */\n      and\n        /* \"#utility.yul\":62:127   */\n      swap1\n      pop\n        /* \"#utility.yul\":7:133   */\n      swap2\n      swap1\n      pop\n      jump\t// out\n        /* \"#utility.yul\":139:199   */\n    tag_331:\n        /* \"#utility.yul\":167:170   */\n      0x00\n        /* \"#utility.yul\":188:193   */\n      dup2\n        /* \"#utility.yul\":181:193   */\n      swap1\n      pop\n        /* \"#utility.yul\":139:199   */\n      swap2\n      swap1\n      pop\n      jump\t// out\n        /* \"#utility.yul\":205:347   */\n    tag_332:\n        /* \"#utility.yul\":255:264   */\n      0x00\n        /* \"#utility.yul\":288:341   */\n      tag_448\n        /* \"#utility.yul\":306:340   */\n      tag_449\n        /* \"#utility.yul\":315:339   */\n      tag_450\n        /* \"#utility.yul\":333:338   */\n      dup5\n        /* \"#utility.yul\":315:339   */\n      tag_330\n      jump\t// in\n    tag_450:\n        /* \"#utility.yul\":306:340   */\n      tag_331\n      jump\t// in\n    tag_449:\n        /* \"#utility.yul\":288:341   */\n      tag_330\n      jump\t// in\n    tag_448:\n        /* \"#utility.yul\":275:341   */\n      swap1\n      pop\n        /* \"#utility.yul\":205:347   */\n      swap2\n      swap1\n      pop\n      jump\t// out\n        /* \"#utility.yul\":353:479   */\n    tag_333:\n        /* \"#utility.yul\":403:412   */\n      0x00\n        /* \"#utility.yul\":436:473   */\n      tag_452\n        /* \"#utility.yul\":467:472   */\n      dup3\n        /* \"#utility.yul\":436:473   */\n      tag_332\n      jump\t// in\n    tag_452:\n        /* \"#utility.yul\":423:473   */\n      swap1\n      pop\n        /* \"#utility.yul\":353:479   */\n      swap2\n      swap1\n      pop\n      jump\t// out\n        /* \"#utility.yul\":485:631   */\n    tag_334:\n        /* \"#utility.yul\":555:564   */\n      0x00\n        /* \"#utility.yul\":588:625   */\n      tag_454\n        /* \"#utility.yul\":619:624   */\n      dup3\n        /* \"#utility.yul\":588:625   */\n      tag_333\n      jump\t// in\n    tag_454:\n        /* \"#utility.yul\":575:625   */\n      swap1\n      pop\n        /* \"#utility.yul\":485:631   */\n      swap2\n      swap1\n      pop\n      jump\t// out\n        /* \"#utility.yul\":637:808   */\n    tag_335:\n        /* \"#utility.yul\":744:801   */\n      tag_456\n        /* \"#utility.yul\":795:800   */\n      dup2\n        /* \"#utility.yul\":744:801   */\n      tag_334\n      jump\t// in\n    tag_456:\n        /* \"#utility.yul\":739:742   */\n      dup3\n        /* \"#utility.yul\":732:802   */\n      mstore\n        /* \"#utility.yul\":637:808   */\n      pop\n      pop\n      jump\t// out\n        /* \"#utility.yul\":814:1076   */\n    tag_24:\n        /* \"#utility.yul\":927:931   */\n      0x00\n        /* \"#utility.yul\":965:967   */\n      0x20\n        /* \"#utility.yul\":954:963   */\n      dup3\n        /* \"#utility.yul\":950:968   */\n      add\n        /* \"#utility.yul\":942:968   */\n      swap1\n      pop\n        /* \"#utility.yul\":978:1069   */\n      tag_458\n        /* \"#utility.yul\":1066:1067   */\n      0x00\n        /* \"#utility.yul\":1055:1064   */\n      dup4\n        /* \"#utility.yul\":1051:1068   */\n      add\n        /* \"#utility.yul\":1042:1048   */\n      dup5\n        /* \"#utility.yul\":978:1069   */\n      tag_335\n      jump\t// in\n    tag_458:\n        /* \"#utility.yul\":814:1076   */\n      swap3\n      swap2\n      pop\n      pop\n      jump\t// out\n        /* \"#utility.yul\":1082:1157   */\n    tag_336:\n        /* \"#utility.yul\":1115:1121   */\n      0x00\n        /* \"#utility.yul\":1148:1150   */\n      0x40\n        /* \"#utility.yul\":1142:1151   */\n      mload\n        /* \"#utility.yul\":1132:1151   */\n      swap1\n      pop\n        /* \"#utility.yul\":1082:1157   */\n      swap1\n      jump\t// out\n        /* \"#utility.yul\":1163:1280   */\n    tag_337:\n        /* \"#utility.yul\":1272:1273   */\n      0x00\n        /* \"#utility.yul\":1269:1270   */\n      0x00\n        /* \"#utility.yul\":1262:1274   */\n      revert\n        /* \"#utility.yul\":1286:1403   */\n    tag_338:\n        /* \"#utility.yul\":1395:1396   */\n      0x00\n        /* \"#utility.yul\":1392:1393   */\n      0x00\n        /* \"#utility.yul\":1385:1397   */\n      revert\n        /* \"#utility.yul\":1409:1505   */\n    tag_339:\n        /* \"#utility.yul\":1446:1453   */\n      0x00\n        /* \"#utility.yul\":1475:1499   */\n      tag_463\n        /* \"#utility.yul\":1493:1498   */\n      dup3\n        /* \"#utility.yul\":1475:1499   */\n      tag_330\n      jump\t// in\n    tag_463:\n        /* \"#utility.yul\":1464:1499   */\n      swap1\n      pop\n        /* \"#utility.yul\":1409:1505   */\n      swap2\n      swap1\n      pop\n      jump\t// out\n        /* \"#utility.yul\":1511:1633   */\n    tag_340:\n        /* \"#utility.yul\":1584:1608   */\n      tag_465\n        /* \"#utility.yul\":1602:1607   */\n      dup2\n        /* \"#utility.yul\":1584:1608   */\n      tag_339\n      jump\t// in\n    tag_465:\n        /* \"#utility.yul\":1577:1582   */\n      dup2\n        /* \"#utility.yul\":1574:1609   */\n      eq\n        /* \"#utility.yul\":1564:1627   */\n      tag_466\n      jumpi\n        /* \"#utility.yul\":1623:1624   */\n      0x00\n        /* \"#utility.yul\":1620:1621   */\n      0x00\n        /* \"#utility.yul\":1613:1625   */\n      revert\n        /* \"#utility.yul\":1564:1627   */\n    tag_466:\n        /* \"#utility.yul\":1511:1633   */\n      pop\n      jump\t// out\n        /* \"#utility.yul\":1639:1778   */\n    tag_341:\n        /* \"#utility.yul\":1685:1690   */\n      0x00\n        /* \"#utility.yul\":1723:1729   */\n      dup2\n        /* \"#utility.yul\":1710:1730   */\n      calldataload\n        /* \"#utility.yul\":1701:1730   */\n      swap1\n      pop\n        /* \"#utility.yul\":1739:1772   */\n      tag_468\n        /* \"#utility.yul\":1766:1771   */\n      dup2\n        /* \"#utility.yul\":1739:1772   */\n      tag_340\n      jump\t// in\n    tag_468:\n        /* \"#utility.yul\":1639:1778   */\n      swap3\n      swap2\n      pop\n      pop\n      jump\t// out\n        /* \"#utility.yul\":1784:2113   */\n    tag_28:\n        /* \"#utility.yul\":1843:1849   */\n      0x00\n        /* \"#utility.yul\":1892:1894   */\n      0x20\n        /* \"#utility.yul\":1880:1889   */\n      dup3\n        /* \"#utility.yul\":1871:1878   */\n      dup5\n        /* \"#utility.yul\":1867:1890   */\n      sub\n        /* \"#utility.yul\":1863:1895   */\n      slt\n        /* \"#utility.yul\":1860:1979   */\n      iszero\n      tag_470\n      jumpi\n        /* \"#utility.yul\":1898:1977   */\n      tag_471\n      tag_337\n      jump\t// in\n    tag_471:\n        /* \"#utility.yul\":1860:1979   */\n    tag_470:\n        /* \"#utility.yul\":2018:2019   */\n      0x00\n        /* \"#utility.yul\":2043:2096   */\n      tag_472\n        /* \"#utility.yul\":2088:2095   */\n      dup5\n        /* \"#utility.yul\":2079:2085   */\n      dup3\n        /* \"#utility.yul\":2068:2077   */\n      dup6\n        /* \"#utility.yul\":2064:2086   */\n      add\n        /* \"#utility.yul\":2043:2096   */\n      tag_341\n      jump\t// in\n    tag_472:\n        /* \"#utility.yul\":2033:2096   */\n      swap2\n      pop\n        /* \"#utility.yul\":1989:2106   */\n      pop\n        /* \"#utility.yul\":1784:2113   */\n      swap3\n      swap2\n      pop\n      pop\n      jump\t// out\n        /* \"#utility.yul\":2119:2593   */\n    tag_33:\n        /* \"#utility.yul\":2187:2193   */\n      0x00\n        /* \"#utility.yul\":2195:2201   */\n      0x00\n        /* \"#utility.yul\":2244:2246   */\n      0x40\n        /* \"#utility.yul\":2232:2241   */\n      dup4\n        /* \"#utility.yul\":2223:2230   */\n      dup6\n        /* \"#utility.yul\":2219:2242   */\n      sub\n        /* \"#utility.yul\":2215:2247   */\n      slt\n        /* \"#utility.yul\":2212:2331   */\n      iszero\n      tag_474\n      jumpi\n        /* \"#utility.yul\":2250:2329   */\n      tag_475\n      tag_337\n      jump\t// in\n    tag_475:\n        /* \"#utility.yul\":2212:2331   */\n    tag_474:\n        /* \"#utility.yul\":2370:2371   */\n      0x00\n        /* \"#utility.yul\":2395:2448   */\n      tag_476\n        /* \"#utility.yul\":2440:2447   */\n      dup6\n        /* \"#utility.yul\":2431:2437   */\n      dup3\n        /* \"#utility.yul\":2420:2429   */\n      dup7\n        /* \"#utility.yul\":2416:2438   */\n      add\n        /* \"#utility.yul\":2395:2448   */\n      tag_341\n      jump\t// in\n    tag_476:\n        /* \"#utility.yul\":2385:2448   */\n      swap3\n      pop\n        /* \"#utility.yul\":2341:2458   */\n      pop\n        /* \"#utility.yul\":2497:2499   */\n      0x20\n        /* \"#utility.yul\":2523:2576   */\n      tag_477\n        /* \"#utility.yul\":2568:2575   */\n      dup6\n        /* \"#utility.yul\":2559:2565   */\n      dup3\n        /* \"#utility.yul\":2548:2557   */\n      dup7\n        /* \"#utility.yul\":2544:2566   */\n      add\n        /* \"#utility.yul\":2523:2576   */\n      tag_341\n      jump\t// in\n    tag_477:\n        /* \"#utility.yul\":2513:2576   */\n      swap2\n      pop\n        /* \"#utility.yul\":2468:2586   */\n      pop\n        /* \"#utility.yul\":2119:2593   */\n      swap3\n      pop\n      swap3\n      swap1\n      pop\n      jump\t// out\n        /* \"#utility.yul\":2599:2716   */\n    tag_342:\n        /* \"#utility.yul\":2708:2709   */\n      0x00\n        /* \"#utility.yul\":2705:2706   */\n      0x00\n        /* \"#utility.yul\":2698:2710   */\n      revert\n        /* \"#utility.yul\":2722:2839   */\n    tag_343:\n        /* \"#utility.yul\":2831:2832   */\n      0x00\n        /* \"#utility.yul\":2828:2829   */\n      0x00\n        /* \"#utility.yul\":2821:2833   */\n      revert\n        /* \"#utility.yul\":2845:2947   */\n    tag_344:\n        /* \"#utility.yul\":2886:2892   */\n      0x00\n        /* \"#utility.yul\":2937:2939   */\n      0x1f\n        /* \"#utility.yul\":2933:2940   */\n      not\n        /* \"#utility.yul\":2928:2930   */\n      0x1f\n        /* \"#utility.yul\":2921:2926   */\n      dup4\n        /* \"#utility.yul\":2917:2931   */\n      add\n        /* \"#utility.yul\":2913:2941   */\n      and\n        /* \"#utility.yul\":2903:2941   */\n      swap1\n      pop\n        /* \"#utility.yul\":2845:2947   */\n      swap2\n      swap1\n      pop\n      jump\t// out\n        /* \"#utility.yul\":2953:3133   */\n    tag_107:\n        /* \"#utility.yul\":3001:3078   */\n      0x4e487b7100000000000000000000000000000000000000000000000000000000\n        /* \"#utility.yul\":2998:2999   */\n      0x00\n        /* \"#utility.yul\":2991:3079   */\n      mstore\n        /* \"#utility.yul\":3098:3102   */\n      0x41\n        /* \"#utility.yul\":3095:3096   */\n      0x04\n        /* \"#utility.yul\":3088:3103   */\n      mstore\n        /* \"#utility.yul\":3122:3126   */\n      0x24\n        /* \"#utility.yul\":3119:3120   */\n      0x00\n        /* \"#utility.yul\":3112:3127   */\n      revert\n        /* \"#utility.yul\":3139:3420   */\n    tag_345:\n        /* \"#utility.yul\":3222:3249   */\n      tag_483\n        /* \"#utility.yul\":3244:3248   */\n      dup3\n        /* \"#utility.yul\":3222:3249   */\n      tag_344\n      jump\t// in\n    tag_483:\n        /* \"#utility.yul\":3214:3220   */\n      dup2\n        /* \"#utility.yul\":3210:3250   */\n      add\n        /* \"#utility.yul\":3352:3358   */\n      dup2\n        /* \"#utility.yul\":3340:3350   */\n      dup2\n        /* \"#utility.yul\":3337:3359   */\n      lt\n        /* \"#utility.yul\":3316:3334   */\n      0xffffffffffffffff\n        /* \"#utility.yul\":3304:3314   */\n      dup3\n        /* \"#utility.yul\":3301:3335   */\n      gt\n        /* \"#utility.yul\":3298:3360   */\n      or\n        /* \"#utility.yul\":3295:3383   */\n      iszero\n      tag_484\n      jumpi\n        /* \"#utility.yul\":3363:3381   */\n      tag_485\n      tag_107\n      jump\t// in\n    tag_485:\n        /* \"#utility.yul\":3295:3383   */\n    tag_484:\n        /* \"#utility.yul\":3403:3413   */\n      dup1\n        /* \"#utility.yul\":3399:3401   */\n      0x40\n        /* \"#utility.yul\":3392:3414   */\n      mstore\n        /* \"#utility.yul\":3182:3420   */\n      pop\n        /* \"#utility.yul\":3139:3420   */\n      pop\n      pop\n      jump\t// out\n        /* \"#utility.yul\":3426:3555   */\n    tag_346:\n        /* \"#utility.yul\":3460:3466   */\n      0x00\n        /* \"#utility.yul\":3487:3507   */\n      tag_487\n      tag_336\n      jump\t// in\n    tag_487:\n        /* \"#utility.yul\":3477:3507   */\n      swap1\n      pop\n        /* \"#utility.yul\":3516:3549   */\n      tag_488\n        /* \"#utility.yul\":3544:3548   */\n      dup3\n        /* \"#utility.yul\":3536:3542   */\n      dup3\n        /* \"#utility.yul\":3516:3549   */\n      tag_345\n      jump\t// in\n    tag_488:\n        /* \"#utility.yul\":3426:3555   */\n      swap2\n      swap1\n      pop\n      jump\t// out\n        /* \"#utility.yul\":3561:3868   */\n    tag_347:\n        /* \"#utility.yul\":3622:3626   */\n      0x00\n        /* \"#utility.yul\":3712:3730   */\n      0xffffffffffffffff\n        /* \"#utility.yul\":3704:3710   */\n      dup3\n        /* \"#utility.yul\":3701:3731   */\n      gt\n        /* \"#utility.yul\":3698:3754   */\n      iszero\n      tag_490\n      jumpi\n        /* \"#utility.yul\":3734:3752   */\n      tag_491\n      tag_107\n      jump\t// in\n    tag_491:\n        /* \"#utility.yul\":3698:3754   */\n    tag_490:\n        /* \"#utility.yul\":3772:3801   */\n      tag_492\n        /* \"#utility.yul\":3794:3800   */\n      dup3\n        /* \"#utility.yul\":3772:3801   */\n      tag_344\n      jump\t// in\n    tag_492:\n        /* \"#utility.yul\":3764:3801   */\n      swap1\n      pop\n        /* \"#utility.yul\":3856:3860   */\n      0x20\n        /* \"#utility.yul\":3850:3854   */\n      dup2\n        /* \"#utility.yul\":3846:3861   */\n      add\n        /* \"#utility.yul\":3838:3861   */\n      swap1\n      pop\n        /* \"#utility.yul\":3561:3868   */\n      swap2\n      swap1\n      pop\n      jump\t// out\n        /* \"#utility.yul\":3874:4022   */\n    tag_348:\n        /* \"#utility.yul\":3972:3978   */\n      dup3\n        /* \"#utility.yul\":3967:3970   */\n      dup2\n        /* \"#utility.yul\":3962:3965   */\n      dup4\n        /* \"#utility.yul\":3949:3979   */\n      calldatacopy\n        /* \"#utility.yul\":4013:4014   */\n      0x00\n        /* \"#utility.yul\":4004:4010   */\n      dup4\n        /* \"#utility.yul\":3999:4002   */\n      dup4\n        /* \"#utility.yul\":3995:4011   */\n      add\n        /* \"#utility.yul\":3988:4015   */\n      mstore\n        /* \"#utility.yul\":3874:4022   */\n      pop\n      pop\n      pop\n      jump\t// out\n        /* \"#utility.yul\":4028:4451   */\n    tag_349:\n        /* \"#utility.yul\":4105:4110   */\n      0x00\n        /* \"#utility.yul\":4130:4195   */\n      tag_495\n        /* \"#utility.yul\":4146:4194   */\n      tag_496\n        /* \"#utility.yul\":4187:4193   */\n      dup5\n        /* \"#utility.yul\":4146:4194   */\n      tag_347\n      jump\t// in\n    tag_496:\n        /* \"#utility.yul\":4130:4195   */\n      tag_346\n      jump\t// in\n    tag_495:\n        /* \"#utility.yul\":4121:4195   */\n      swap1\n      pop\n        /* \"#utility.yul\":4218:4224   */\n      dup3\n        /* \"#utility.yul\":4211:4216   */\n      dup2\n        /* \"#utility.yul\":4204:4225   */\n      mstore\n        /* \"#utility.yul\":4256:4260   */\n      0x20\n        /* \"#utility.yul\":4249:4254   */\n      dup2\n        /* \"#utility.yul\":4245:4261   */\n      add\n        /* \"#utility.yul\":4294:4297   */\n      dup5\n        /* \"#utility.yul\":4285:4291   */\n      dup5\n        /* \"#utility.yul\":4280:4283   */\n      dup5\n        /* \"#utility.yul\":4276:4292   */\n      add\n        /* \"#utility.yul\":4273:4298   */\n      gt\n        /* \"#utility.yul\":4270:4382   */\n      iszero\n      tag_497\n      jumpi\n        /* \"#utility.yul\":4301:4380   */\n      tag_498\n      tag_343\n      jump\t// in\n    tag_498:\n        /* \"#utility.yul\":4270:4382   */\n    tag_497:\n        /* \"#utility.yul\":4391:4445   */\n      tag_499\n        /* \"#utility.yul\":4438:4444   */\n      dup5\n        /* \"#utility.yul\":4433:4436   */\n      dup3\n        /* \"#utility.yul\":4428:4431   */\n      dup6\n        /* \"#utility.yul\":4391:4445   */\n      tag_348\n      jump\t// in\n    tag_499:\n        /* \"#utility.yul\":4111:4451   */\n      pop\n        /* \"#utility.yul\":4028:4451   */\n      swap4\n      swap3\n      pop\n      pop\n      pop\n      jump\t// out\n        /* \"#utility.yul\":4470:4808   */\n    tag_350:\n        /* \"#utility.yul\":4525:4530   */\n      0x00\n        /* \"#utility.yul\":4574:4577   */\n      dup3\n        /* \"#utility.yul\":4567:4571   */\n      0x1f\n        /* \"#utility.yul\":4559:4565   */\n      dup4\n        /* \"#utility.yul\":4555:4572   */\n      add\n        /* \"#utility.yul\":4551:4578   */\n      slt\n        /* \"#utility.yul\":4541:4663   */\n      tag_501\n      jumpi\n        /* \"#utility.yul\":4582:4661   */\n      tag_502\n      tag_342\n      jump\t// in\n    tag_502:\n        /* \"#utility.yul\":4541:4663   */\n    tag_501:\n        /* \"#utility.yul\":4699:4705   */\n      dup2\n        /* \"#utility.yul\":4686:4706   */\n      calldataload\n        /* \"#utility.yul\":4724:4802   */\n      tag_503\n        /* \"#utility.yul\":4798:4801   */\n      dup5\n        /* \"#utility.yul\":4790:4796   */\n      dup3\n        /* \"#utility.yul\":4783:4787   */\n      0x20\n        /* \"#utility.yul\":4775:4781   */\n      dup7\n        /* \"#utility.yul\":4771:4788   */\n      add\n        /* \"#utility.yul\":4724:4802   */\n      tag_349\n      jump\t// in\n    tag_503:\n        /* \"#utility.yul\":4715:4802   */\n      swap2\n      pop\n        /* \"#utility.yul\":4531:4808   */\n      pop\n        /* \"#utility.yul\":4470:4808   */\n      swap3\n      swap2\n      pop\n      pop\n      jump\t// out\n        /* \"#utility.yul\":4814:5466   */\n    tag_37:\n        /* \"#utility.yul\":4891:4897   */\n      0x00\n        /* \"#utility.yul\":4899:4905   */\n      0x00\n        /* \"#utility.yul\":4948:4950   */\n      0x40\n        /* \"#utility.yul\":4936:4945   */\n      dup4\n        /* \"#utility.yul\":4927:4934   */\n      dup6\n        /* \"#utility.yul\":4923:4946   */\n      sub\n        /* \"#utility.yul\":4919:4951   */\n      slt\n        /* \"#utility.yul\":4916:5035   */\n      iszero\n      tag_505\n      jumpi\n        /* \"#utility.yul\":4954:5033   */\n      tag_506\n      tag_337\n      jump\t// in\n    tag_506:\n        /* \"#utility.yul\":4916:5035   */\n    tag_505:\n        /* \"#utility.yul\":5074:5075   */\n      0x00\n        /* \"#utility.yul\":5099:5152   */\n      tag_507\n        /* \"#utility.yul\":5144:5151   */\n      dup6\n        /* \"#utility.yul\":5135:5141   */\n      dup3\n        /* \"#utility.yul\":5124:5133   */\n      dup7\n        /* \"#utility.yul\":5120:5142   */\n      add\n        /* \"#utility.yul\":5099:5152   */\n      tag_341\n      jump\t// in\n    tag_507:\n        /* \"#utility.yul\":5089:5152   */\n      swap3\n      pop\n        /* \"#utility.yul\":5045:5162   */\n      pop\n        /* \"#utility.yul\":5229:5231   */\n      0x20\n        /* \"#utility.yul\":5218:5227   */\n      dup4\n        /* \"#utility.yul\":5214:5232   */\n      add\n        /* \"#utility.yul\":5201:5233   */\n      calldataload\n        /* \"#utility.yul\":5260:5278   */\n      0xffffffffffffffff\n        /* \"#utility.yul\":5252:5258   */\n      dup2\n        /* \"#utility.yul\":5249:5279   */\n      gt\n        /* \"#utility.yul\":5246:5363   */\n      iszero\n      tag_508\n      jumpi\n        /* \"#utility.yul\":5282:5361   */\n      tag_509\n      tag_338\n      jump\t// in\n    tag_509:\n        /* \"#utility.yul\":5246:5363   */\n    tag_508:\n        /* \"#utility.yul\":5387:5449   */\n      tag_510\n        /* \"#utility.yul\":5441:5448   */\n      dup6\n        /* \"#utility.yul\":5432:5438   */\n      dup3\n        /* \"#utility.yul\":5421:5430   */\n      dup7\n        /* \"#utility.yul\":5417:5439   */\n      add\n        /* \"#utility.yul\":5387:5449   */\n      tag_350\n      jump\t// in\n    tag_510:\n        /* \"#utility.yul\":5377:5449   */\n      swap2\n      pop\n        /* \"#utility.yul\":5172:5459   */\n      pop\n        /* \"#utility.yul\":4814:5466   */\n      swap3\n      pop\n      swap3\n      swap1\n      pop\n      jump\t// out\n        /* \"#utility.yul\":5472:5549   */\n    tag_351:\n        /* \"#utility.yul\":5509:5516   */\n      0x00\n        /* \"#utility.yul\":5538:5543   */\n      dup2\n        /* \"#utility.yul\":5527:5543   */\n      swap1\n      pop\n        /* \"#utility.yul\":5472:5549   */\n      swap2\n      swap1\n      pop\n      jump\t// out\n        /* \"#utility.yul\":5555:5673   */\n    tag_352:\n        /* \"#utility.yul\":5642:5666   */\n      tag_513\n        /* \"#utility.yul\":5660:5665   */\n      dup2\n        /* \"#utility.yul\":5642:5666   */\n      tag_351\n      jump\t// in\n    tag_513:\n        /* \"#utility.yul\":5637:5640   */\n      dup3\n        /* \"#utility.yul\":5630:5667   */\n      mstore\n        /* \"#utility.yul\":5555:5673   */\n      pop\n      pop\n      jump\t// out\n        /* \"#utility.yul\":5679:5901   */\n    tag_43:\n        /* \"#utility.yul\":5772:5776   */\n      0x00\n        /* \"#utility.yul\":5810:5812   */\n      0x20\n        /* \"#utility.yul\":5799:5808   */\n      dup3\n        /* \"#utility.yul\":5795:5813   */\n      add\n        /* \"#utility.yul\":5787:5813   */\n      swap1\n      pop\n        /* \"#utility.yul\":5823:5894   */\n      tag_515\n        /* \"#utility.yul\":5891:5892   */\n      0x00\n        /* \"#utility.yul\":5880:5889   */\n      dup4\n        /* \"#utility.yul\":5876:5893   */\n      add\n        /* \"#utility.yul\":5867:5873   */\n      dup5\n        /* \"#utility.yul\":5823:5894   */\n      tag_352\n      jump\t// in\n    tag_515:\n        /* \"#utility.yul\":5679:5901   */\n      swap3\n      swap2\n      pop\n      pop\n      jump\t// out\n        /* \"#utility.yul\":5907:6062   */\n    tag_353:\n        /* \"#utility.yul\":5986:5995   */\n      0x00\n        /* \"#utility.yul\":6019:6056   */\n      tag_517\n        /* \"#utility.yul\":6050:6055   */\n      dup3\n        /* \"#utility.yul\":6019:6056   */\n      tag_333\n      jump\t// in\n    tag_517:\n        /* \"#utility.yul\":6006:6056   */\n      swap1\n      pop\n        /* \"#utility.yul\":5907:6062   */\n      swap2\n      swap1\n      pop\n      jump\t// out\n        /* \"#utility.yul\":6068:6257   */\n    tag_354:\n        /* \"#utility.yul\":6184:6250   */\n      tag_519\n        /* \"#utility.yul\":6244:6249   */\n      dup2\n        /* \"#utility.yul\":6184:6250   */\n      tag_353\n      jump\t// in\n    tag_519:\n        /* \"#utility.yul\":6179:6182   */\n      dup3\n        /* \"#utility.yul\":6172:6251   */\n      mstore\n        /* \"#utility.yul\":6068:6257   */\n      pop\n      pop\n      jump\t// out\n        /* \"#utility.yul\":6263:6543   */\n    tag_49:\n        /* \"#utility.yul\":6385:6389   */\n      0x00\n        /* \"#utility.yul\":6423:6425   */\n      0x20\n        /* \"#utility.yul\":6412:6421   */\n      dup3\n        /* \"#utility.yul\":6408:6426   */\n      add\n        /* \"#utility.yul\":6400:6426   */\n      swap1\n      pop\n        /* \"#utility.yul\":6436:6536   */\n      tag_521\n        /* \"#utility.yul\":6533:6534   */\n      0x00\n        /* \"#utility.yul\":6522:6531   */\n      dup4\n        /* \"#utility.yul\":6518:6535   */\n      add\n        /* \"#utility.yul\":6509:6515   */\n      dup5\n        /* \"#utility.yul\":6436:6536   */\n      tag_354\n      jump\t// in\n    tag_521:\n        /* \"#utility.yul\":6263:6543   */\n      swap3\n      swap2\n      pop\n      pop\n      jump\t// out\n        /* \"#utility.yul\":6549:6626   */\n    tag_355:\n        /* \"#utility.yul\":6586:6593   */\n      0x00\n        /* \"#utility.yul\":6615:6620   */\n      dup2\n        /* \"#utility.yul\":6604:6620   */\n      swap1\n      pop\n        /* \"#utility.yul\":6549:6626   */\n      swap2\n      swap1\n      pop\n      jump\t// out\n        /* \"#utility.yul\":6632:6754   */\n    tag_356:\n        /* \"#utility.yul\":6705:6729   */\n      tag_524\n        /* \"#utility.yul\":6723:6728   */\n      dup2\n        /* \"#utility.yul\":6705:6729   */\n      tag_355\n      jump\t// in\n    tag_524:\n        /* \"#utility.yul\":6698:6703   */\n      dup2\n        /* \"#utility.yul\":6695:6730   */\n      eq\n        /* \"#utility.yul\":6685:6748   */\n      tag_525\n      jumpi\n        /* \"#utility.yul\":6744:6745   */\n      0x00\n        /* \"#utility.yul\":6741:6742   */\n      0x00\n        /* \"#utility.yul\":6734:6746   */\n      revert\n        /* \"#utility.yul\":6685:6748   */\n    tag_525:\n        /* \"#utility.yul\":6632:6754   */\n      pop\n      jump\t// out\n        /* \"#utility.yul\":6760:6899   */\n    tag_357:\n        /* \"#utility.yul\":6806:6811   */\n      0x00\n        /* \"#utility.yul\":6844:6850   */\n      dup2\n        /* \"#utility.yul\":6831:6851   */\n      calldataload\n        /* \"#utility.yul\":6822:6851   */\n      swap1\n      pop\n        /* \"#utility.yul\":6860:6893   */\n      tag_527\n        /* \"#utility.yul\":6887:6892   */\n      dup2\n        /* \"#utility.yul\":6860:6893   */\n      tag_356\n      jump\t// in\n    tag_527:\n        /* \"#utility.yul\":6760:6899   */\n      swap3\n      swap2\n      pop\n      pop\n      jump\t// out\n        /* \"#utility.yul\":6905:7524   */\n    tag_56:\n        /* \"#utility.yul\":6982:6988   */\n      0x00\n        /* \"#utility.yul\":6990:6996   */\n      0x00\n        /* \"#utility.yul\":6998:7004   */\n      0x00\n        /* \"#utility.yul\":7047:7049   */\n      0x60\n        /* \"#utility.yul\":7035:7044   */\n      dup5\n        /* \"#utility.yul\":7026:7033   */\n      dup7\n        /* \"#utility.yul\":7022:7045   */\n      sub\n        /* \"#utility.yul\":7018:7050   */\n      slt\n        /* \"#utility.yul\":7015:7134   */\n      iszero\n      tag_529\n      jumpi\n        /* \"#utility.yul\":7053:7132   */\n      tag_530\n      tag_337\n      jump\t// in\n    tag_530:\n        /* \"#utility.yul\":7015:7134   */\n    tag_529:\n        /* \"#utility.yul\":7173:7174   */\n      0x00\n        /* \"#utility.yul\":7198:7251   */\n      tag_531\n        /* \"#utility.yul\":7243:7250   */\n      dup7\n        /* \"#utility.yul\":7234:7240   */\n      dup3\n        /* \"#utility.yul\":7223:7232   */\n      dup8\n        /* \"#utility.yul\":7219:7241   */\n      add\n        /* \"#utility.yul\":7198:7251   */\n      tag_357\n      jump\t// in\n    tag_531:\n        /* \"#utility.yul\":7188:7251   */\n      swap4\n      pop\n        /* \"#utility.yul\":7144:7261   */\n      pop\n        /* \"#utility.yul\":7300:7302   */\n      0x20\n        /* \"#utility.yul\":7326:7379   */\n      tag_532\n        /* \"#utility.yul\":7371:7378   */\n      dup7\n        /* \"#utility.yul\":7362:7368   */\n      dup3\n        /* \"#utility.yul\":7351:7360   */\n      dup8\n        /* \"#utility.yul\":7347:7369   */\n      add\n        /* \"#utility.yul\":7326:7379   */\n      tag_357\n      jump\t// in\n    tag_532:\n        /* \"#utility.yul\":7316:7379   */\n      swap3\n      pop\n        /* \"#utility.yul\":7271:7389   */\n      pop\n        /* \"#utility.yul\":7428:7430   */\n      0x40\n        /* \"#utility.yul\":7454:7507   */\n      tag_533\n        /* \"#utility.yul\":7499:7506   */\n      dup7\n        /* \"#utility.yul\":7490:7496   */\n      dup3\n        /* \"#utility.yul\":7479:7488   */\n      dup8\n        /* \"#utility.yul\":7475:7497   */\n      add\n        /* \"#utility.yul\":7454:7507   */\n      tag_341\n      jump\t// in\n    tag_533:\n        /* \"#utility.yul\":7444:7507   */\n      swap2\n      pop\n        /* \"#utility.yul\":7399:7517   */\n      pop\n        /* \"#utility.yul\":6905:7524   */\n      swap3\n      pop\n      swap3\n      pop\n      swap3\n      jump\t// out\n        /* \"#utility.yul\":7530:8295   */\n    tag_65:\n        /* \"#utility.yul\":7616:7622   */\n      0x00\n        /* \"#utility.yul\":7624:7630   */\n      0x00\n        /* \"#utility.yul\":7632:7638   */\n      0x00\n        /* \"#utility.yul\":7640:7646   */\n      0x00\n        /* \"#utility.yul\":7689:7692   */\n      0x80\n        /* \"#utility.yul\":7677:7686   */\n      dup6\n        /* \"#utility.yul\":7668:7675   */\n      dup8\n        /* \"#utility.yul\":7664:7687   */\n      sub\n        /* \"#utility.yul\":7660:7693   */\n      slt\n        /* \"#utility.yul\":7657:7777   */\n      iszero\n      tag_535\n      jumpi\n        /* \"#utility.yul\":7696:7775   */\n      tag_536\n      tag_337\n      jump\t// in\n    tag_536:\n        /* \"#utility.yul\":7657:7777   */\n    tag_535:\n        /* \"#utility.yul\":7816:7817   */\n      0x00\n        /* \"#utility.yul\":7841:7894   */\n      tag_537\n        /* \"#utility.yul\":7886:7893   */\n      dup8\n        /* \"#utility.yul\":7877:7883   */\n      dup3\n        /* \"#utility.yul\":7866:7875   */\n      dup9\n        /* \"#utility.yul\":7862:7884   */\n      add\n        /* \"#utility.yul\":7841:7894   */\n      tag_357\n      jump\t// in\n    tag_537:\n        /* \"#utility.yul\":7831:7894   */\n      swap5\n      pop\n        /* \"#utility.yul\":7787:7904   */\n      pop\n        /* \"#utility.yul\":7943:7945   */\n      0x20\n        /* \"#utility.yul\":7969:8022   */\n      tag_538\n        /* \"#utility.yul\":8014:8021   */\n      dup8\n        /* \"#utility.yul\":8005:8011   */\n      dup3\n        /* \"#utility.yul\":7994:8003   */\n      dup9\n        /* \"#utility.yul\":7990:8012   */\n      add\n        /* \"#utility.yul\":7969:8022   */\n      tag_357\n      jump\t// in\n    tag_538:\n        /* \"#utility.yul\":7959:8022   */\n      swap4\n      pop\n        /* \"#utility.yul\":7914:8032   */\n      pop\n        /* \"#utility.yul\":8071:8073   */\n      0x40\n        /* \"#utility.yul\":8097:8150   */\n      tag_539\n        /* \"#utility.yul\":8142:8149   */\n      dup8\n        /* \"#utility.yul\":8133:8139   */\n      dup3\n        /* \"#utility.yul\":8122:8131   */\n      dup9\n        /* \"#utility.yul\":8118:8140   */\n      add\n        /* \"#utility.yul\":8097:8150   */\n      tag_341\n      jump\t// in\n    tag_539:\n        /* \"#utility.yul\":8087:8150   */\n      swap3\n      pop\n        /* \"#utility.yul\":8042:8160   */\n      pop\n        /* \"#utility.yul\":8199:8201   */\n      0x60\n        /* \"#utility.yul\":8225:8278   */\n      tag_540\n        /* \"#utility.yul\":8270:8277   */\n      dup8\n        /* \"#utility.yul\":8261:8267   */\n      dup3\n        /* \"#utility.yul\":8250:8259   */\n      dup9\n        /* \"#utility.yul\":8246:8268   */\n      add\n        /* \"#utility.yul\":8225:8278   */\n      tag_357\n      jump\t// in\n    tag_540:\n        /* \"#utility.yul\":8215:8278   */\n      swap2\n      pop\n        /* \"#utility.yul\":8170:8288   */\n      pop\n        /* \"#utility.yul\":7530:8295   */\n      swap3\n      swap6\n      swap2\n      swap5\n      pop\n      swap3\n      pop\n      jump\t// out\n        /* \"#utility.yul\":8301:8402   */\n    tag_358:\n        /* \"#utility.yul\":8337:8344   */\n      0x00\n        /* \"#utility.yul\":8377:8395   */\n      0xffffffffffffffff\n        /* \"#utility.yul\":8370:8375   */\n      dup3\n        /* \"#utility.yul\":8366:8396   */\n      and\n        /* \"#utility.yul\":8355:8396   */\n      swap1\n      pop\n        /* \"#utility.yul\":8301:8402   */\n      swap2\n      swap1\n      pop\n      jump\t// out\n        /* \"#utility.yul\":8408:8528   */\n    tag_359:\n        /* \"#utility.yul\":8480:8503   */\n      tag_543\n        /* \"#utility.yul\":8497:8502   */\n      dup2\n        /* \"#utility.yul\":8480:8503   */\n      tag_358\n      jump\t// in\n    tag_543:\n        /* \"#utility.yul\":8473:8478   */\n      dup2\n        /* \"#utility.yul\":8470:8504   */\n      eq\n        /* \"#utility.yul\":8460:8522   */\n      tag_544\n      jumpi\n        /* \"#utility.yul\":8518:8519   */\n      0x00\n        /* \"#utility.yul\":8515:8516   */\n      0x00\n        /* \"#utility.yul\":8508:8520   */\n      revert\n        /* \"#utility.yul\":8460:8522   */\n    tag_544:\n        /* \"#utility.yul\":8408:8528   */\n      pop\n      jump\t// out\n        /* \"#utility.yul\":8534:8671   */\n    tag_360:\n        /* \"#utility.yul\":8579:8584   */\n      0x00\n        /* \"#utility.yul\":8617:8623   */\n      dup2\n        /* \"#utility.yul\":8604:8624   */\n      calldataload\n        /* \"#utility.yul\":8595:8624   */\n      swap1\n      pop\n        /* \"#utility.yul\":8633:8665   */\n      tag_546\n        /* \"#utility.yul\":8659:8664   */\n      dup2\n        /* \"#utility.yul\":8633:8665   */\n      tag_359\n      jump\t// in\n    tag_546:\n        /* \"#utility.yul\":8534:8671   */\n      swap3\n      swap2\n      pop\n      pop\n      jump\t// out\n        /* \"#utility.yul\":8677:9440   */\n    tag_69:\n        /* \"#utility.yul\":8762:8768   */\n      0x00\n        /* \"#utility.yul\":8770:8776   */\n      0x00\n        /* \"#utility.yul\":8778:8784   */\n      0x00\n        /* \"#utility.yul\":8786:8792   */\n      0x00\n        /* \"#utility.yul\":8835:8838   */\n      0x80\n        /* \"#utility.yul\":8823:8832   */\n      dup6\n        /* \"#utility.yul\":8814:8821   */\n      dup8\n        /* \"#utility.yul\":8810:8833   */\n      sub\n        /* \"#utility.yul\":8806:8839   */\n      slt\n        /* \"#utility.yul\":8803:8923   */\n      iszero\n      tag_548\n      jumpi\n        /* \"#utility.yul\":8842:8921   */\n      tag_549\n      tag_337\n      jump\t// in\n    tag_549:\n        /* \"#utility.yul\":8803:8923   */\n    tag_548:\n        /* \"#utility.yul\":8962:8963   */\n      0x00\n        /* \"#utility.yul\":8987:9039   */\n      tag_550\n        /* \"#utility.yul\":9031:9038   */\n      dup8\n        /* \"#utility.yul\":9022:9028   */\n      dup3\n        /* \"#utility.yul\":9011:9020   */\n      dup9\n        /* \"#utility.yul\":9007:9029   */\n      add\n        /* \"#utility.yul\":8987:9039   */\n      tag_360\n      jump\t// in\n    tag_550:\n        /* \"#utility.yul\":8977:9039   */\n      swap5\n      pop\n        /* \"#utility.yul\":8933:9049   */\n      pop\n        /* \"#utility.yul\":9088:9090   */\n      0x20\n        /* \"#utility.yul\":9114:9167   */\n      tag_551\n        /* \"#utility.yul\":9159:9166   */\n      dup8\n        /* \"#utility.yul\":9150:9156   */\n      dup3\n        /* \"#utility.yul\":9139:9148   */\n      dup9\n        /* \"#utility.yul\":9135:9157   */\n      add\n        /* \"#utility.yul\":9114:9167   */\n      tag_357\n      jump\t// in\n    tag_551:\n        /* \"#utility.yul\":9104:9167   */\n      swap4\n      pop\n        /* \"#utility.yul\":9059:9177   */\n      pop\n        /* \"#utility.yul\":9216:9218   */\n      0x40\n        /* \"#utility.yul\":9242:9295   */\n      tag_552\n        /* \"#utility.yul\":9287:9294   */\n      dup8\n        /* \"#utility.yul\":9278:9284   */\n      dup3\n        /* \"#utility.yul\":9267:9276   */\n      dup9\n        /* \"#utility.yul\":9263:9285   */\n      add\n        /* \"#utility.yul\":9242:9295   */\n      tag_357\n      jump\t// in\n    tag_552:\n        /* \"#utility.yul\":9232:9295   */\n      swap3\n      pop\n        /* \"#utility.yul\":9187:9305   */\n      pop\n        /* \"#utility.yul\":9344:9346   */\n      0x60\n        /* \"#utility.yul\":9370:9423   */\n      tag_553\n        /* \"#utility.yul\":9415:9422   */\n      dup8\n        /* \"#utility.yul\":9406:9412   */\n      dup3\n        /* \"#utility.yul\":9395:9404   */\n      dup9\n        /* \"#utility.yul\":9391:9413   */\n      add\n        /* \"#utility.yul\":9370:9423   */\n      tag_341\n      jump\t// in\n    tag_553:\n        /* \"#utility.yul\":9360:9423   */\n      swap2\n      pop\n        /* \"#utility.yul\":9315:9433   */\n      pop\n        /* \"#utility.yul\":8677:9440   */\n      swap3\n      swap6\n      swap2\n      swap5\n      pop\n      swap3\n      pop\n      jump\t// out\n        /* \"#utility.yul\":9446:9775   */\n    tag_74:\n        /* \"#utility.yul\":9505:9511   */\n      0x00\n        /* \"#utility.yul\":9554:9556   */\n      0x20\n        /* \"#utility.yul\":9542:9551   */\n      dup3\n        /* \"#utility.yul\":9533:9540   */\n      dup5\n        /* \"#utility.yul\":9529:9552   */\n      sub\n        /* \"#utility.yul\":9525:9557   */\n      slt\n        /* \"#utility.yul\":9522:9641   */\n      iszero\n      tag_555\n      jumpi\n        /* \"#utility.yul\":9560:9639   */\n      tag_556\n      tag_337\n      jump\t// in\n    tag_556:\n        /* \"#utility.yul\":9522:9641   */\n    tag_555:\n        /* \"#utility.yul\":9680:9681   */\n      0x00\n        /* \"#utility.yul\":9705:9758   */\n      tag_557\n        /* \"#utility.yul\":9750:9757   */\n      dup5\n        /* \"#utility.yul\":9741:9747   */\n      dup3\n        /* \"#utility.yul\":9730:9739   */\n      dup6\n        /* \"#utility.yul\":9726:9748   */\n      add\n        /* \"#utility.yul\":9705:9758   */\n      tag_357\n      jump\t// in\n    tag_557:\n        /* \"#utility.yul\":9695:9758   */\n      swap2\n      pop\n        /* \"#utility.yul\":9651:9768   */\n      pop\n        /* \"#utility.yul\":9446:9775   */\n      swap3\n      swap2\n      pop\n      pop\n      jump\t// out\n        /* \"#utility.yul\":9781:9899   */\n    tag_361:\n        /* \"#utility.yul\":9868:9892   */\n      tag_559\n        /* \"#utility.yul\":9886:9891   */\n      dup2\n        /* \"#utility.yul\":9868:9892   */\n      tag_339\n      jump\t// in\n    tag_559:\n        /* \"#utility.yul\":9863:9866   */\n      dup3\n        /* \"#utility.yul\":9856:9893   */\n      mstore\n        /* \"#utility.yul\":9781:9899   */\n      pop\n      pop\n      jump\t// out\n        /* \"#utility.yul\":9905:10023   */\n    tag_362:\n        /* \"#utility.yul\":9992:10016   */\n      tag_561\n        /* \"#utility.yul\":10010:10015   */\n      dup2\n        /* \"#utility.yul\":9992:10016   */\n      tag_355\n      jump\t// in\n    tag_561:\n        /* \"#utility.yul\":9987:9990   */\n      dup3\n        /* \"#utility.yul\":9980:10017   */\n      mstore\n        /* \"#utility.yul\":9905:10023   */\n      pop\n      pop\n      jump\t// out\n        /* \"#utility.yul\":10029:10119   */\n    tag_363:\n        /* \"#utility.yul\":10063:10070   */\n      0x00\n        /* \"#utility.yul\":10106:10111   */\n      dup2\n        /* \"#utility.yul\":10099:10112   */\n      iszero\n        /* \"#utility.yul\":10092:10113   */\n      iszero\n        /* \"#utility.yul\":10081:10113   */\n      swap1\n      pop\n        /* \"#utility.yul\":10029:10119   */\n      swap2\n      swap1\n      pop\n      jump\t// out\n        /* \"#utility.yul\":10125:10234   */\n    tag_364:\n        /* \"#utility.yul\":10206:10227   */\n      tag_564\n        /* \"#utility.yul\":10221:10226   */\n      dup2\n        /* \"#utility.yul\":10206:10227   */\n      tag_363\n      jump\t// in\n    tag_564:\n        /* \"#utility.yul\":10201:10204   */\n      dup3\n        /* \"#utility.yul\":10194:10228   */\n      mstore\n        /* \"#utility.yul\":10125:10234   */\n      pop\n      pop\n      jump\t// out\n        /* \"#utility.yul\":10240:11447   */\n    tag_81:\n        /* \"#utility.yul\":10579:10583   */\n      0x00\n        /* \"#utility.yul\":10617:10620   */\n      0x0140\n        /* \"#utility.yul\":10606:10615   */\n      dup3\n        /* \"#utility.yul\":10602:10621   */\n      add\n        /* \"#utility.yul\":10594:10621   */\n      swap1\n      pop\n        /* \"#utility.yul\":10631:10702   */\n      tag_566\n        /* \"#utility.yul\":10699:10700   */\n      0x00\n        /* \"#utility.yul\":10688:10697   */\n      dup4\n        /* \"#utility.yul\":10684:10701   */\n      add\n        /* \"#utility.yul\":10675:10681   */\n      dup14\n        /* \"#utility.yul\":10631:10702   */\n      tag_361\n      jump\t// in\n    tag_566:\n        /* \"#utility.yul\":10712:10784   */\n      tag_567\n        /* \"#utility.yul\":10780:10782   */\n      0x20\n        /* \"#utility.yul\":10769:10778   */\n      dup4\n        /* \"#utility.yul\":10765:10783   */\n      add\n        /* \"#utility.yul\":10756:10762   */\n      dup13\n        /* \"#utility.yul\":10712:10784   */\n      tag_362\n      jump\t// in\n    tag_567:\n        /* \"#utility.yul\":10794:10866   */\n      tag_568\n        /* \"#utility.yul\":10862:10864   */\n      0x40\n        /* \"#utility.yul\":10851:10860   */\n      dup4\n        /* \"#utility.yul\":10847:10865   */\n      add\n        /* \"#utility.yul\":10838:10844   */\n      dup12\n        /* \"#utility.yul\":10794:10866   */\n      tag_362\n      jump\t// in\n    tag_568:\n        /* \"#utility.yul\":10876:10948   */\n      tag_569\n        /* \"#utility.yul\":10944:10946   */\n      0x60\n        /* \"#utility.yul\":10933:10942   */\n      dup4\n        /* \"#utility.yul\":10929:10947   */\n      add\n        /* \"#utility.yul\":10920:10926   */\n      dup11\n        /* \"#utility.yul\":10876:10948   */\n      tag_362\n      jump\t// in\n    tag_569:\n        /* \"#utility.yul\":10958:11025   */\n      tag_570\n        /* \"#utility.yul\":11020:11023   */\n      0x80\n        /* \"#utility.yul\":11009:11018   */\n      dup4\n        /* \"#utility.yul\":11005:11024   */\n      add\n        /* \"#utility.yul\":10996:11002   */\n      dup10\n        /* \"#utility.yul\":10958:11025   */\n      tag_364\n      jump\t// in\n    tag_570:\n        /* \"#utility.yul\":11035:11108   */\n      tag_571\n        /* \"#utility.yul\":11103:11106   */\n      0xa0\n        /* \"#utility.yul\":11092:11101   */\n      dup4\n        /* \"#utility.yul\":11088:11107   */\n      add\n        /* \"#utility.yul\":11079:11085   */\n      dup9\n        /* \"#utility.yul\":11035:11108   */\n      tag_362\n      jump\t// in\n    tag_571:\n        /* \"#utility.yul\":11118:11191   */\n      tag_572\n        /* \"#utility.yul\":11186:11189   */\n      0xc0\n        /* \"#utility.yul\":11175:11184   */\n      dup4\n        /* \"#utility.yul\":11171:11190   */\n      add\n        /* \"#utility.yul\":11162:11168   */\n      dup8\n        /* \"#utility.yul\":11118:11191   */\n      tag_361\n      jump\t// in\n    tag_572:\n        /* \"#utility.yul\":11201:11274   */\n      tag_573\n        /* \"#utility.yul\":11269:11272   */\n      0xe0\n        /* \"#utility.yul\":11258:11267   */\n      dup4\n        /* \"#utility.yul\":11254:11273   */\n      add\n        /* \"#utility.yul\":11245:11251   */\n      dup7\n        /* \"#utility.yul\":11201:11274   */\n      tag_361\n      jump\t// in\n    tag_573:\n        /* \"#utility.yul\":11284:11357   */\n      tag_574\n        /* \"#utility.yul\":11352:11355   */\n      0x0100\n        /* \"#utility.yul\":11341:11350   */\n      dup4\n        /* \"#utility.yul\":11337:11356   */\n      add\n        /* \"#utility.yul\":11328:11334   */\n      dup6\n        /* \"#utility.yul\":11284:11357   */\n      tag_362\n      jump\t// in\n    tag_574:\n        /* \"#utility.yul\":11367:11440   */\n      tag_575\n        /* \"#utility.yul\":11435:11438   */\n      0x0120\n        /* \"#utility.yul\":11424:11433   */\n      dup4\n        /* \"#utility.yul\":11420:11439   */\n      add\n        /* \"#utility.yul\":11411:11417   */\n      dup5\n        /* \"#utility.yul\":11367:11440   */\n      tag_361\n      jump\t// in\n    tag_575:\n        /* \"#utility.yul\":10240:11447   */\n      swap12\n      swap11\n      pop\n      pop\n      pop\n      pop\n      pop\n      pop\n      pop\n      pop\n      pop\n      pop\n      pop\n      jump\t// out\n        /* \"#utility.yul\":11453:11675   */\n    tag_86:\n        /* \"#utility.yul\":11546:11550   */\n      0x00\n        /* \"#utility.yul\":11584:11586   */\n      0x20\n        /* \"#utility.yul\":11573:11582   */\n      dup3\n        /* \"#utility.yul\":11569:11587   */\n      add\n        /* \"#utility.yul\":11561:11587   */\n      swap1\n      pop\n        /* \"#utility.yul\":11597:11668   */\n      tag_577\n        /* \"#utility.yul\":11665:11666   */\n      0x00\n        /* \"#utility.yul\":11654:11663   */\n      dup4\n        /* \"#utility.yul\":11650:11667   */\n      add\n        /* \"#utility.yul\":11641:11647   */\n      dup5\n        /* \"#utility.yul\":11597:11668   */\n      tag_361\n      jump\t// in\n    tag_577:\n        /* \"#utility.yul\":11453:11675   */\n      swap3\n      swap2\n      pop\n      pop\n      jump\t// out\n        /* \"#utility.yul\":11681:11903   */\n    tag_91:\n        /* \"#utility.yul\":11774:11778   */\n      0x00\n        /* \"#utility.yul\":11812:11814   */\n      0x20\n        /* \"#utility.yul\":11801:11810   */\n      dup3\n        /* \"#utility.yul\":11797:11815   */\n      add\n        /* \"#utility.yul\":11789:11815   */\n      swap1\n      pop\n        /* \"#utility.yul\":11825:11896   */\n      tag_579\n        /* \"#utility.yul\":11893:11894   */\n      0x00\n        /* \"#utility.yul\":11882:11891   */\n      dup4\n        /* \"#utility.yul\":11878:11895   */\n      add\n        /* \"#utility.yul\":11869:11875   */\n      dup5\n        /* \"#utility.yul\":11825:11896   */\n      tag_362\n      jump\t// in\n    tag_579:\n        /* \"#utility.yul\":11681:11903   */\n      swap3\n      swap2\n      pop\n      pop\n      jump\t// out\n        /* \"#utility.yul\":11909:12078   */\n    tag_365:\n        /* \"#utility.yul\":11993:12004   */\n      0x00\n        /* \"#utility.yul\":12027:12033   */\n      dup3\n        /* \"#utility.yul\":12022:12025   */\n      dup3\n        /* \"#utility.yul\":12015:12034   */\n      mstore\n        /* \"#utility.yul\":12067:12071   */\n      0x20\n        /* \"#utility.yul\":12062:12065   */\n      dup3\n        /* \"#utility.yul\":12058:12072   */\n      add\n        /* \"#utility.yul\":12043:12072   */\n      swap1\n      pop\n        /* \"#utility.yul\":11909:12078   */\n      swap3\n      swap2\n      pop\n      pop\n      jump\t// out\n        /* \"#utility.yul\":12084:12315   */\n    tag_366:\n        /* \"#utility.yul\":12224:12258   */\n      0x46756e6374696f6e206d7573742062652063616c6c6564207468726f75676820\n        /* \"#utility.yul\":12220:12221   */\n      0x00\n        /* \"#utility.yul\":12212:12218   */\n      dup3\n        /* \"#utility.yul\":12208:12222   */\n      add\n        /* \"#utility.yul\":12201:12259   */\n      mstore\n        /* \"#utility.yul\":12293:12307   */\n      0x64656c656761746563616c6c0000000000000000000000000000000000000000\n        /* \"#utility.yul\":12288:12290   */\n      0x20\n        /* \"#utility.yul\":12280:12286   */\n      dup3\n        /* \"#utility.yul\":12276:12291   */\n      add\n        /* \"#utility.yul\":12269:12308   */\n      mstore\n        /* \"#utility.yul\":12084:12315   */\n      pop\n      jump\t// out\n        /* \"#utility.yul\":12321:12687   */\n    tag_367:\n        /* \"#utility.yul\":12463:12466   */\n      0x00\n        /* \"#utility.yul\":12484:12551   */\n      tag_583\n        /* \"#utility.yul\":12548:12550   */\n      0x2c\n        /* \"#utility.yul\":12543:12546   */\n      dup4\n        /* \"#utility.yul\":12484:12551   */\n      tag_365\n      jump\t// in\n    tag_583:\n        /* \"#utility.yul\":12477:12551   */\n      swap2\n      pop\n        /* \"#utility.yul\":12560:12653   */\n      tag_584\n        /* \"#utility.yul\":12649:12652   */\n      dup3\n        /* \"#utility.yul\":12560:12653   */\n      tag_366\n      jump\t// in\n    tag_584:\n        /* \"#utility.yul\":12678:12680   */\n      0x40\n        /* \"#utility.yul\":12673:12676   */\n      dup3\n        /* \"#utility.yul\":12669:12681   */\n      add\n        /* \"#utility.yul\":12662:12681   */\n      swap1\n      pop\n        /* \"#utility.yul\":12321:12687   */\n      swap2\n      swap1\n      pop\n      jump\t// out\n        /* \"#utility.yul\":12693:13112   */\n    tag_95:\n        /* \"#utility.yul\":12859:12863   */\n      0x00\n        /* \"#utility.yul\":12897:12899   */\n      0x20\n        /* \"#utility.yul\":12886:12895   */\n      dup3\n        /* \"#utility.yul\":12882:12900   */\n      add\n        /* \"#utility.yul\":12874:12900   */\n      swap1\n      pop\n        /* \"#utility.yul\":12946:12955   */\n      dup2\n        /* \"#utility.yul\":12940:12944   */\n      dup2\n        /* \"#utility.yul\":12936:12956   */\n      sub\n        /* \"#utility.yul\":12932:12933   */\n      0x00\n        /* \"#utility.yul\":12921:12930   */\n      dup4\n        /* \"#utility.yul\":12917:12934   */\n      add\n        /* \"#utility.yul\":12910:12957   */\n      mstore\n        /* \"#utility.yul\":12974:13105   */\n      tag_586\n        /* \"#utility.yul\":13100:13104   */\n      dup2\n        /* \"#utility.yul\":12974:13105   */\n      tag_367\n      jump\t// in\n    tag_586:\n        /* \"#utility.yul\":12966:13105   */\n      swap1\n      pop\n        /* \"#utility.yul\":12693:13112   */\n      swap2\n      swap1\n      pop\n      jump\t// out\n        /* \"#utility.yul\":13118:13349   */\n    tag_368:\n        /* \"#utility.yul\":13258:13292   */\n      0x46756e6374696f6e206d7573742062652063616c6c6564207468726f75676820\n        /* \"#utility.yul\":13254:13255   */\n      0x00\n        /* \"#utility.yul\":13246:13252   */\n      dup3\n        /* \"#utility.yul\":13242:13256   */\n      add\n        /* \"#utility.yul\":13235:13293   */\n      mstore\n        /* \"#utility.yul\":13327:13341   */\n      0x6163746976652070726f78790000000000000000000000000000000000000000\n        /* \"#utility.yul\":13322:13324   */\n      0x20\n        /* \"#utility.yul\":13314:13320   */\n      dup3\n        /* \"#utility.yul\":13310:13325   */\n      add\n        /* \"#utility.yul\":13303:13342   */\n      mstore\n        /* \"#utility.yul\":13118:13349   */\n      pop\n      jump\t// out\n        /* \"#utility.yul\":13355:13721   */\n    tag_369:\n        /* \"#utility.yul\":13497:13500   */\n      0x00\n        /* \"#utility.yul\":13518:13585   */\n      tag_589\n        /* \"#utility.yul\":13582:13584   */\n      0x2c\n        /* \"#utility.yul\":13577:13580   */\n      dup4\n        /* \"#utility.yul\":13518:13585   */\n      tag_365\n      jump\t// in\n    tag_589:\n        /* \"#utility.yul\":13511:13585   */\n      swap2\n      pop\n        /* \"#utility.yul\":13594:13687   */\n      tag_590\n        /* \"#utility.yul\":13683:13686   */\n      dup3\n        /* \"#utility.yul\":13594:13687   */\n      tag_368\n      jump\t// in\n    tag_590:\n        /* \"#utility.yul\":13712:13714   */\n      0x40\n        /* \"#utility.yul\":13707:13710   */\n      dup3\n        /* \"#utility.yul\":13703:13715   */\n      add\n        /* \"#utility.yul\":13696:13715   */\n      swap1\n      pop\n        /* \"#utility.yul\":13355:13721   */\n      swap2\n      swap1\n      pop\n      jump\t// out\n        /* \"#utility.yul\":13727:14146   */\n    tag_100:\n        /* \"#utility.yul\":13893:13897   */\n      0x00\n        /* \"#utility.yul\":13931:13933   */\n      0x20\n        /* \"#utility.yul\":13920:13929   */\n      dup3\n        /* \"#utility.yul\":13916:13934   */\n      add\n        /* \"#utility.yul\":13908:13934   */\n      swap1\n      pop\n        /* \"#utility.yul\":13980:13989   */\n      dup2\n        /* \"#utility.yul\":13974:13978   */\n      dup2\n        /* \"#utility.yul\":13970:13990   */\n      sub\n        /* \"#utility.yul\":13966:13967   */\n      0x00\n        /* \"#utility.yul\":13955:13964   */\n      dup4\n        /* \"#utility.yul\":13951:13968   */\n      add\n        /* \"#utility.yul\":13944:13991   */\n      mstore\n        /* \"#utility.yul\":14008:14139   */\n      tag_592\n        /* \"#utility.yul\":14134:14138   */\n      dup2\n        /* \"#utility.yul\":14008:14139   */\n      tag_369\n      jump\t// in\n    tag_592:\n        /* \"#utility.yul\":14000:14139   */\n      swap1\n      pop\n        /* \"#utility.yul\":13727:14146   */\n      swap2\n      swap1\n      pop\n      jump\t// out\n        /* \"#utility.yul\":14152:14385   */\n    tag_370:\n        /* \"#utility.yul\":14292:14326   */\n      0x496e697469616c697a61626c653a20636f6e747261637420697320616c726561\n        /* \"#utility.yul\":14288:14289   */\n      0x00\n        /* \"#utility.yul\":14280:14286   */\n      dup3\n        /* \"#utility.yul\":14276:14290   */\n      add\n        /* \"#utility.yul\":14269:14327   */\n      mstore\n        /* \"#utility.yul\":14361:14377   */\n      0x647920696e697469616c697a6564000000000000000000000000000000000000\n        /* \"#utility.yul\":14356:14358   */\n      0x20\n        /* \"#utility.yul\":14348:14354   */\n      dup3\n        /* \"#utility.yul\":14344:14359   */\n      add\n        /* \"#utility.yul\":14337:14378   */\n      mstore\n        /* \"#utility.yul\":14152:14385   */\n      pop\n      jump\t// out\n        /* \"#utility.yul\":14391:14757   */\n    tag_371:\n        /* \"#utility.yul\":14533:14536   */\n      0x00\n        /* \"#utility.yul\":14554:14621   */\n      tag_595\n        /* \"#utility.yul\":14618:14620   */\n      0x2e\n        /* \"#utility.yul\":14613:14616   */\n      dup4\n        /* \"#utility.yul\":14554:14621   */\n      tag_365\n      jump\t// in\n    tag_595:\n        /* \"#utility.yul\":14547:14621   */\n      swap2\n      pop\n        /* \"#utility.yul\":14630:14723   */\n      tag_596\n        /* \"#utility.yul\":14719:14722   */\n      dup3\n        /* \"#utility.yul\":14630:14723   */\n      tag_370\n      jump\t// in\n    tag_596:\n        /* \"#utility.yul\":14748:14750   */\n      0x40\n        /* \"#utility.yul\":14743:14746   */\n      dup3\n        /* \"#utility.yul\":14739:14751   */\n      add\n        /* \"#utility.yul\":14732:14751   */\n      swap1\n      pop\n        /* \"#utility.yul\":14391:14757   */\n      swap2\n      swap1\n      pop\n      jump\t// out\n        /* \"#utility.yul\":14763:15182   */\n    tag_118:\n        /* \"#utility.yul\":14929:14933   */\n      0x00\n        /* \"#utility.yul\":14967:14969   */\n      0x20\n        /* \"#utility.yul\":14956:14965   */\n      dup3\n        /* \"#utility.yul\":14952:14970   */\n      add\n        /* \"#utility.yul\":14944:14970   */\n      swap1\n      pop\n        /* \"#utility.yul\":15016:15025   */\n      dup2\n        /* \"#utility.yul\":15010:15014   */\n      dup2\n        /* \"#utility.yul\":15006:15026   */\n      sub\n        /* \"#utility.yul\":15002:15003   */\n      0x00\n        /* \"#utility.yul\":14991:15000   */\n      dup4\n        /* \"#utility.yul\":14987:15004   */\n      add\n        /* \"#utility.yul\":14980:15027   */\n      mstore\n        /* \"#utility.yul\":15044:15175   */\n      tag_598\n        /* \"#utility.yul\":15170:15174   */\n      dup2\n        /* \"#utility.yul\":15044:15175   */\n      tag_371\n      jump\t// in\n    tag_598:\n        /* \"#utility.yul\":15036:15175   */\n      swap1\n      pop\n        /* \"#utility.yul\":14763:15182   */\n      swap2\n      swap1\n      pop\n      jump\t// out\n        /* \"#utility.yul\":15188:15273   */\n    tag_372:\n        /* \"#utility.yul\":15233:15240   */\n      0x00\n        /* \"#utility.yul\":15262:15267   */\n      dup2\n        /* \"#utility.yul\":15251:15267   */\n      swap1\n      pop\n        /* \"#utility.yul\":15188:15273   */\n      swap2\n      swap1\n      pop\n      jump\t// out\n        /* \"#utility.yul\":15279:15365   */\n    tag_373:\n        /* \"#utility.yul\":15314:15321   */\n      0x00\n        /* \"#utility.yul\":15354:15358   */\n      0xff\n        /* \"#utility.yul\":15347:15352   */\n      dup3\n        /* \"#utility.yul\":15343:15359   */\n      and\n        /* \"#utility.yul\":15332:15359   */\n      swap1\n      pop\n        /* \"#utility.yul\":15279:15365   */\n      swap2\n      swap1\n      pop\n      jump\t// out\n        /* \"#utility.yul\":15371:15525   */\n    tag_374:\n        /* \"#utility.yul\":15427:15436   */\n      0x00\n        /* \"#utility.yul\":15460:15519   */\n      tag_602\n        /* \"#utility.yul\":15476:15518   */\n      tag_603\n        /* \"#utility.yul\":15485:15517   */\n      tag_604\n        /* \"#utility.yul\":15511:15516   */\n      dup5\n        /* \"#utility.yul\":15485:15517   */\n      tag_372\n      jump\t// in\n    tag_604:\n        /* \"#utility.yul\":15476:15518   */\n      tag_331\n      jump\t// in\n    tag_603:\n        /* \"#utility.yul\":15460:15519   */\n      tag_373\n      jump\t// in\n    tag_602:\n        /* \"#utility.yul\":15447:15519   */\n      swap1\n      pop\n        /* \"#utility.yul\":15371:15525   */\n      swap2\n      swap1\n      pop\n      jump\t// out\n        /* \"#utility.yul\":15531:15674   */\n    tag_375:\n        /* \"#utility.yul\":15624:15667   */\n      tag_606\n        /* \"#utility.yul\":15661:15666   */\n      dup2\n        /* \"#utility.yul\":15624:15667   */\n      tag_374\n      jump\t// in\n    tag_606:\n        /* \"#utility.yul\":15619:15622   */\n      dup3\n        /* \"#utility.yul\":15612:15668   */\n      mstore\n        /* \"#utility.yul\":15531:15674   */\n      pop\n      pop\n      jump\t// out\n        /* \"#utility.yul\":15680:15914   */\n    tag_125:\n        /* \"#utility.yul\":15779:15783   */\n      0x00\n        /* \"#utility.yul\":15817:15819   */\n      0x20\n        /* \"#utility.yul\":15806:15815   */\n      dup3\n        /* \"#utility.yul\":15802:15820   */\n      add\n        /* \"#utility.yul\":15794:15820   */\n      swap1\n      pop\n        /* \"#utility.yul\":15830:15907   */\n      tag_608\n        /* \"#utility.yul\":15904:15905   */\n      0x00\n        /* \"#utility.yul\":15893:15902   */\n      dup4\n        /* \"#utility.yul\":15889:15906   */\n      add\n        /* \"#utility.yul\":15880:15886   */\n      dup5\n        /* \"#utility.yul\":15830:15907   */\n      tag_375\n      jump\t// in\n    tag_608:\n        /* \"#utility.yul\":15680:15914   */\n      swap3\n      swap2\n      pop\n      pop\n      jump\t// out\n        /* \"#utility.yul\":15920:16163   */\n    tag_376:\n        /* \"#utility.yul\":16060:16094   */\n      0x555550535570677261646561626c653a206d757374206e6f742062652063616c\n        /* \"#utility.yul\":16056:16057   */\n      0x00\n        /* \"#utility.yul\":16048:16054   */\n      dup3\n        /* \"#utility.yul\":16044:16058   */\n      add\n        /* \"#utility.yul\":16037:16095   */\n      mstore\n        /* \"#utility.yul\":16129:16155   */\n      0x6c6564207468726f7567682064656c656761746563616c6c0000000000000000\n        /* \"#utility.yul\":16124:16126   */\n      0x20\n        /* \"#utility.yul\":16116:16122   */\n      dup3\n        /* \"#utility.yul\":16112:16127   */\n      add\n        /* \"#utility.yul\":16105:16156   */\n      mstore\n        /* \"#utility.yul\":15920:16163   */\n      pop\n      jump\t// out\n        /* \"#utility.yul\":16169:16535   */\n    tag_377:\n        /* \"#utility.yul\":16311:16314   */\n      0x00\n        /* \"#utility.yul\":16332:16399   */\n      tag_611\n        /* \"#utility.yul\":16396:16398   */\n      0x38\n        /* \"#utility.yul\":16391:16394   */\n      dup4\n        /* \"#utility.yul\":16332:16399   */\n      tag_365\n      jump\t// in\n    tag_611:\n        /* \"#utility.yul\":16325:16399   */\n      swap2\n      pop\n        /* \"#utility.yul\":16408:16501   */\n      tag_612\n        /* \"#utility.yul\":16497:16500   */\n      dup3\n        /* \"#utility.yul\":16408:16501   */\n      tag_376\n      jump\t// in\n    tag_612:\n        /* \"#utility.yul\":16526:16528   */\n      0x40\n        /* \"#utility.yul\":16521:16524   */\n      dup3\n        /* \"#utility.yul\":16517:16529   */\n      add\n        /* \"#utility.yul\":16510:16529   */\n      swap1\n      pop\n        /* \"#utility.yul\":16169:16535   */\n      swap2\n      swap1\n      pop\n      jump\t// out\n        /* \"#utility.yul\":16541:16960   */\n    tag_138:\n        /* \"#utility.yul\":16707:16711   */\n      0x00\n        /* \"#utility.yul\":16745:16747   */\n      0x20\n        /* \"#utility.yul\":16734:16743   */\n      dup3\n        /* \"#utility.yul\":16730:16748   */\n      add\n        /* \"#utility.yul\":16722:16748   */\n      swap1\n      pop\n        /* \"#utility.yul\":16794:16803   */\n      dup2\n        /* \"#utility.yul\":16788:16792   */\n      dup2\n        /* \"#utility.yul\":16784:16804   */\n      sub\n        /* \"#utility.yul\":16780:16781   */\n      0x00\n        /* \"#utility.yul\":16769:16778   */\n      dup4\n        /* \"#utility.yul\":16765:16782   */\n      add\n        /* \"#utility.yul\":16758:16805   */\n      mstore\n        /* \"#utility.yul\":16822:16953   */\n      tag_614\n        /* \"#utility.yul\":16948:16952   */\n      dup2\n        /* \"#utility.yul\":16822:16953   */\n      tag_377\n      jump\t// in\n    tag_614:\n        /* \"#utility.yul\":16814:16953   */\n      swap1\n      pop\n        /* \"#utility.yul\":16541:16960   */\n      swap2\n      swap1\n      pop\n      jump\t// out\n        /* \"#utility.yul\":16966:17146   */\n    tag_378:\n        /* \"#utility.yul\":17014:17091   */\n      0x4e487b7100000000000000000000000000000000000000000000000000000000\n        /* \"#utility.yul\":17011:17012   */\n      0x00\n        /* \"#utility.yul\":17004:17092   */\n      mstore\n        /* \"#utility.yul\":17111:17115   */\n      0x11\n        /* \"#utility.yul\":17108:17109   */\n      0x04\n        /* \"#utility.yul\":17101:17116   */\n      mstore\n        /* \"#utility.yul\":17135:17139   */\n      0x24\n        /* \"#utility.yul\":17132:17133   */\n      0x00\n        /* \"#utility.yul\":17125:17140   */\n      revert\n        /* \"#utility.yul\":17152:17343   */\n    tag_144:\n        /* \"#utility.yul\":17192:17195   */\n      0x00\n        /* \"#utility.yul\":17211:17231   */\n      tag_617\n        /* \"#utility.yul\":17229:17230   */\n      dup3\n        /* \"#utility.yul\":17211:17231   */\n      tag_355\n      jump\t// in\n    tag_617:\n        /* \"#utility.yul\":17206:17231   */\n      swap2\n      pop\n        /* \"#utility.yul\":17245:17265   */\n      tag_618\n        /* \"#utility.yul\":17263:17264   */\n      dup4\n        /* \"#utility.yul\":17245:17265   */\n      tag_355\n      jump\t// in\n    tag_618:\n        /* \"#utility.yul\":17240:17265   */\n      swap3\n      pop\n        /* \"#utility.yul\":17288:17289   */\n      dup3\n        /* \"#utility.yul\":17285:17286   */\n      dup3\n        /* \"#utility.yul\":17281:17290   */\n      add\n        /* \"#utility.yul\":17274:17290   */\n      swap1\n      pop\n        /* \"#utility.yul\":17309:17312   */\n      dup1\n        /* \"#utility.yul\":17306:17307   */\n      dup3\n        /* \"#utility.yul\":17303:17313   */\n      gt\n        /* \"#utility.yul\":17300:17336   */\n      iszero\n      tag_619\n      jumpi\n        /* \"#utility.yul\":17316:17334   */\n      tag_620\n      tag_378\n      jump\t// in\n    tag_620:\n        /* \"#utility.yul\":17300:17336   */\n    tag_619:\n        /* \"#utility.yul\":17152:17343   */\n      swap3\n      swap2\n      pop\n      pop\n      jump\t// out\n        /* \"#utility.yul\":17349:17524   */\n    tag_379:\n        /* \"#utility.yul\":17489:17516   */\n      0x41756374696f6e2068617320616c726561647920656e64656400000000000000\n        /* \"#utility.yul\":17485:17486   */\n      0x00\n        /* \"#utility.yul\":17477:17483   */\n      dup3\n        /* \"#utility.yul\":17473:17487   */\n      add\n        /* \"#utility.yul\":17466:17517   */\n      mstore\n        /* \"#utility.yul\":17349:17524   */\n      pop\n      jump\t// out\n        /* \"#utility.yul\":17530:17896   */\n    tag_380:\n        /* \"#utility.yul\":17672:17675   */\n      0x00\n        /* \"#utility.yul\":17693:17760   */\n      tag_623\n        /* \"#utility.yul\":17757:17759   */\n      0x19\n        /* \"#utility.yul\":17752:17755   */\n      dup4\n        /* \"#utility.yul\":17693:17760   */\n      tag_365\n      jump\t// in\n    tag_623:\n        /* \"#utility.yul\":17686:17760   */\n      swap2\n      pop\n        /* \"#utility.yul\":17769:17862   */\n      tag_624\n        /* \"#utility.yul\":17858:17861   */\n      dup3\n        /* \"#utility.yul\":17769:17862   */\n      tag_379\n      jump\t// in\n    tag_624:\n        /* \"#utility.yul\":17887:17889   */\n      0x20\n        /* \"#utility.yul\":17882:17885   */\n      dup3\n        /* \"#utility.yul\":17878:17890   */\n      add\n        /* \"#utility.yul\":17871:17890   */\n      swap1\n      pop\n        /* \"#utility.yul\":17530:17896   */\n      swap2\n      swap1\n      pop\n      jump\t// out\n        /* \"#utility.yul\":17902:18321   */\n    tag_147:\n        /* \"#utility.yul\":18068:18072   */\n      0x00\n        /* \"#utility.yul\":18106:18108   */\n      0x20\n        /* \"#utility.yul\":18095:18104   */\n      dup3\n        /* \"#utility.yul\":18091:18109   */\n      add\n        /* \"#utility.yul\":18083:18109   */\n      swap1\n      pop\n        /* \"#utility.yul\":18155:18164   */\n      dup2\n        /* \"#utility.yul\":18149:18153   */\n      dup2\n        /* \"#utility.yul\":18145:18165   */\n      sub\n        /* \"#utility.yul\":18141:18142   */\n      0x00\n        /* \"#utility.yul\":18130:18139   */\n      dup4\n        /* \"#utility.yul\":18126:18143   */\n      add\n        /* \"#utility.yul\":18119:18166   */\n      mstore\n        /* \"#utility.yul\":18183:18314   */\n      tag_626\n        /* \"#utility.yul\":18309:18313   */\n      dup2\n        /* \"#utility.yul\":18183:18314   */\n      tag_380\n      jump\t// in\n    tag_626:\n        /* \"#utility.yul\":18175:18314   */\n      swap1\n      pop\n        /* \"#utility.yul\":17902:18321   */\n      swap2\n      swap1\n      pop\n      jump\t// out\n        /* \"#utility.yul\":18327:18488   */\n    tag_381:\n        /* \"#utility.yul\":18467:18480   */\n      0x42696420746f6f206c6f77000000000000000000000000000000000000000000\n        /* \"#utility.yul\":18463:18464   */\n      0x00\n        /* \"#utility.yul\":18455:18461   */\n      dup3\n        /* \"#utility.yul\":18451:18465   */\n      add\n        /* \"#utility.yul\":18444:18481   */\n      mstore\n        /* \"#utility.yul\":18327:18488   */\n      pop\n      jump\t// out\n        /* \"#utility.yul\":18494:18860   */\n    tag_382:\n        /* \"#utility.yul\":18636:18639   */\n      0x00\n        /* \"#utility.yul\":18657:18724   */\n      tag_629\n        /* \"#utility.yul\":18721:18723   */\n      0x0b\n        /* \"#utility.yul\":18716:18719   */\n      dup4\n        /* \"#utility.yul\":18657:18724   */\n      tag_365\n      jump\t// in\n    tag_629:\n        /* \"#utility.yul\":18650:18724   */\n      swap2\n      pop\n        /* \"#utility.yul\":18733:18826   */\n      tag_630\n        /* \"#utility.yul\":18822:18825   */\n      dup3\n        /* \"#utility.yul\":18733:18826   */\n      tag_381\n      jump\t// in\n    tag_630:\n        /* \"#utility.yul\":18851:18853   */\n      0x20\n        /* \"#utility.yul\":18846:18849   */\n      dup3\n        /* \"#utility.yul\":18842:18854   */\n      add\n        /* \"#utility.yul\":18835:18854   */\n      swap1\n      pop\n        /* \"#utility.yul\":18494:18860   */\n      swap2\n      swap1\n      pop\n      jump\t// out\n        /* \"#utility.yul\":18866:19285   */\n    tag_155:\n        /* \"#utility.yul\":19032:19036   */\n      0x00\n        /* \"#utility.yul\":19070:19072   */\n      0x20\n        /* \"#utility.yul\":19059:19068   */\n      dup3\n        /* \"#utility.yul\":19055:19073   */\n      add\n        /* \"#utility.yul\":19047:19073   */\n      swap1\n      pop\n        /* \"#utility.yul\":19119:19128   */\n      dup2\n        /* \"#utility.yul\":19113:19117   */\n      dup2\n        /* \"#utility.yul\":19109:19129   */\n      sub\n        /* \"#utility.yul\":19105:19106   */\n      0x00\n        /* \"#utility.yul\":19094:19103   */\n      dup4\n        /* \"#utility.yul\":19090:19107   */\n      add\n        /* \"#utility.yul\":19083:19130   */\n      mstore\n        /* \"#utility.yul\":19147:19278   */\n      tag_632\n        /* \"#utility.yul\":19273:19277   */\n      dup2\n        /* \"#utility.yul\":19147:19278   */\n      tag_382\n      jump\t// in\n    tag_632:\n        /* \"#utility.yul\":19139:19278   */\n      swap1\n      pop\n        /* \"#utility.yul\":18866:19285   */\n      swap2\n      swap1\n      pop\n      jump\t// out\n        /* \"#utility.yul\":19291:19460   */\n    tag_383:\n        /* \"#utility.yul\":19431:19452   */\n      0x45544820616d6f756e74206d69736d6174636800000000000000000000000000\n        /* \"#utility.yul\":19427:19428   */\n      0x00\n        /* \"#utility.yul\":19419:19425   */\n      dup3\n        /* \"#utility.yul\":19415:19429   */\n      add\n        /* \"#utility.yul\":19408:19453   */\n      mstore\n        /* \"#utility.yul\":19291:19460   */\n      pop\n      jump\t// out\n        /* \"#utility.yul\":19466:19832   */\n    tag_384:\n        /* \"#utility.yul\":19608:19611   */\n      0x00\n        /* \"#utility.yul\":19629:19696   */\n      tag_635\n        /* \"#utility.yul\":19693:19695   */\n      0x13\n        /* \"#utility.yul\":19688:19691   */\n      dup4\n        /* \"#utility.yul\":19629:19696   */\n      tag_365\n      jump\t// in\n    tag_635:\n        /* \"#utility.yul\":19622:19696   */\n      swap2\n      pop\n        /* \"#utility.yul\":19705:19798   */\n      tag_636\n        /* \"#utility.yul\":19794:19797   */\n      dup3\n        /* \"#utility.yul\":19705:19798   */\n      tag_383\n      jump\t// in\n    tag_636:\n        /* \"#utility.yul\":19823:19825   */\n      0x20\n        /* \"#utility.yul\":19818:19821   */\n      dup3\n        /* \"#utility.yul\":19814:19826   */\n      add\n        /* \"#utility.yul\":19807:19826   */\n      swap1\n      pop\n        /* \"#utility.yul\":19466:19832   */\n      swap2\n      swap1\n      pop\n      jump\t// out\n        /* \"#utility.yul\":19838:20257   */\n    tag_159:\n        /* \"#utility.yul\":20004:20008   */\n      0x00\n        /* \"#utility.yul\":20042:20044   */\n      0x20\n        /* \"#utility.yul\":20031:20040   */\n      dup3\n        /* \"#utility.yul\":20027:20045   */\n      add\n        /* \"#utility.yul\":20019:20045   */\n      swap1\n      pop\n        /* \"#utility.yul\":20091:20100   */\n      dup2\n        /* \"#utility.yul\":20085:20089   */\n      dup2\n        /* \"#utility.yul\":20081:20101   */\n      sub\n        /* \"#utility.yul\":20077:20078   */\n      0x00\n        /* \"#utility.yul\":20066:20075   */\n      dup4\n        /* \"#utility.yul\":20062:20079   */\n      add\n        /* \"#utility.yul\":20055:20102   */\n      mstore\n        /* \"#utility.yul\":20119:20250   */\n      tag_638\n        /* \"#utility.yul\":20245:20249   */\n      dup2\n        /* \"#utility.yul\":20119:20250   */\n      tag_384\n      jump\t// in\n    tag_638:\n        /* \"#utility.yul\":20111:20250   */\n      swap1\n      pop\n        /* \"#utility.yul\":19838:20257   */\n      swap2\n      swap1\n      pop\n      jump\t// out\n        /* \"#utility.yul\":20263:20705   */\n    tag_162:\n        /* \"#utility.yul\":20412:20416   */\n      0x00\n        /* \"#utility.yul\":20450:20452   */\n      0x60\n        /* \"#utility.yul\":20439:20448   */\n      dup3\n        /* \"#utility.yul\":20435:20453   */\n      add\n        /* \"#utility.yul\":20427:20453   */\n      swap1\n      pop\n        /* \"#utility.yul\":20463:20534   */\n      tag_640\n        /* \"#utility.yul\":20531:20532   */\n      0x00\n        /* \"#utility.yul\":20520:20529   */\n      dup4\n        /* \"#utility.yul\":20516:20533   */\n      add\n        /* \"#utility.yul\":20507:20513   */\n      dup7\n        /* \"#utility.yul\":20463:20534   */\n      tag_361\n      jump\t// in\n    tag_640:\n        /* \"#utility.yul\":20544:20616   */\n      tag_641\n        /* \"#utility.yul\":20612:20614   */\n      0x20\n        /* \"#utility.yul\":20601:20610   */\n      dup4\n        /* \"#utility.yul\":20597:20615   */\n      add\n        /* \"#utility.yul\":20588:20594   */\n      dup6\n        /* \"#utility.yul\":20544:20616   */\n      tag_361\n      jump\t// in\n    tag_641:\n        /* \"#utility.yul\":20626:20698   */\n      tag_642\n        /* \"#utility.yul\":20694:20696   */\n      0x40\n        /* \"#utility.yul\":20683:20692   */\n      dup4\n        /* \"#utility.yul\":20679:20697   */\n      add\n        /* \"#utility.yul\":20670:20676   */\n      dup5\n        /* \"#utility.yul\":20626:20698   */\n      tag_362\n      jump\t// in\n    tag_642:\n        /* \"#utility.yul\":20263:20705   */\n      swap5\n      swap4\n      pop\n      pop\n      pop\n      pop\n      jump\t// out\n        /* \"#utility.yul\":20711:20827   */\n    tag_385:\n        /* \"#utility.yul\":20781:20802   */\n      tag_644\n        /* \"#utility.yul\":20796:20801   */\n      dup2\n        /* \"#utility.yul\":20781:20802   */\n      tag_363\n      jump\t// in\n    tag_644:\n        /* \"#utility.yul\":20774:20779   */\n      dup2\n        /* \"#utility.yul\":20771:20803   */\n      eq\n        /* \"#utility.yul\":20761:20821   */\n      tag_645\n      jumpi\n        /* \"#utility.yul\":20817:20818   */\n      0x00\n        /* \"#utility.yul\":20814:20815   */\n      0x00\n        /* \"#utility.yul\":20807:20819   */\n      revert\n        /* \"#utility.yul\":20761:20821   */\n    tag_645:\n        /* \"#utility.yul\":20711:20827   */\n      pop\n      jump\t// out\n        /* \"#utility.yul\":20833:20970   */\n    tag_386:\n        /* \"#utility.yul\":20887:20892   */\n      0x00\n        /* \"#utility.yul\":20918:20924   */\n      dup2\n        /* \"#utility.yul\":20912:20925   */\n      mload\n        /* \"#utility.yul\":20903:20925   */\n      swap1\n      pop\n        /* \"#utility.yul\":20934:20964   */\n      tag_647\n        /* \"#utility.yul\":20958:20963   */\n      dup2\n        /* \"#utility.yul\":20934:20964   */\n      tag_385\n      jump\t// in\n    tag_647:\n        /* \"#utility.yul\":20833:20970   */\n      swap3\n      swap2\n      pop\n      pop\n      jump\t// out\n        /* \"#utility.yul\":20976:21321   */\n    tag_166:\n        /* \"#utility.yul\":21043:21049   */\n      0x00\n        /* \"#utility.yul\":21092:21094   */\n      0x20\n        /* \"#utility.yul\":21080:21089   */\n      dup3\n        /* \"#utility.yul\":21071:21078   */\n      dup5\n        /* \"#utility.yul\":21067:21090   */\n      sub\n        /* \"#utility.yul\":21063:21095   */\n      slt\n        /* \"#utility.yul\":21060:21179   */\n      iszero\n      tag_649\n      jumpi\n        /* \"#utility.yul\":21098:21177   */\n      tag_650\n      tag_337\n      jump\t// in\n    tag_650:\n        /* \"#utility.yul\":21060:21179   */\n    tag_649:\n        /* \"#utility.yul\":21218:21219   */\n      0x00\n        /* \"#utility.yul\":21243:21304   */\n      tag_651\n        /* \"#utility.yul\":21296:21303   */\n      dup5\n        /* \"#utility.yul\":21287:21293   */\n      dup3\n        /* \"#utility.yul\":21276:21285   */\n      dup6\n        /* \"#utility.yul\":21272:21294   */\n      add\n        /* \"#utility.yul\":21243:21304   */\n      tag_386\n      jump\t// in\n    tag_651:\n        /* \"#utility.yul\":21233:21304   */\n      swap2\n      pop\n        /* \"#utility.yul\":21189:21314   */\n      pop\n        /* \"#utility.yul\":20976:21321   */\n      swap3\n      swap2\n      pop\n      pop\n      jump\t// out\n        /* \"#utility.yul\":21327:21659   */\n    tag_173:\n        /* \"#utility.yul\":21448:21452   */\n      0x00\n        /* \"#utility.yul\":21486:21488   */\n      0x40\n        /* \"#utility.yul\":21475:21484   */\n      dup3\n        /* \"#utility.yul\":21471:21489   */\n      add\n        /* \"#utility.yul\":21463:21489   */\n      swap1\n      pop\n        /* \"#utility.yul\":21499:21570   */\n      tag_653\n        /* \"#utility.yul\":21567:21568   */\n      0x00\n        /* \"#utility.yul\":21556:21565   */\n      dup4\n        /* \"#utility.yul\":21552:21569   */\n      add\n        /* \"#utility.yul\":21543:21549   */\n      dup6\n        /* \"#utility.yul\":21499:21570   */\n      tag_361\n      jump\t// in\n    tag_653:\n        /* \"#utility.yul\":21580:21652   */\n      tag_654\n        /* \"#utility.yul\":21648:21650   */\n      0x20\n        /* \"#utility.yul\":21637:21646   */\n      dup4\n        /* \"#utility.yul\":21633:21651   */\n      add\n        /* \"#utility.yul\":21624:21630   */\n      dup5\n        /* \"#utility.yul\":21580:21652   */\n      tag_362\n      jump\t// in\n    tag_654:\n        /* \"#utility.yul\":21327:21659   */\n      swap4\n      swap3\n      pop\n      pop\n      pop\n      jump\t// out\n        /* \"#utility.yul\":21665:21894   */\n    tag_387:\n        /* \"#utility.yul\":21805:21839   */\n      0x41756374696f6e206475726174696f6e206e6565647320746f20626520617420\n        /* \"#utility.yul\":21801:21802   */\n      0x00\n        /* \"#utility.yul\":21793:21799   */\n      dup3\n        /* \"#utility.yul\":21789:21803   */\n      add\n        /* \"#utility.yul\":21782:21840   */\n      mstore\n        /* \"#utility.yul\":21874:21886   */\n      0x6c65617374203130307300000000000000000000000000000000000000000000\n        /* \"#utility.yul\":21869:21871   */\n      0x20\n        /* \"#utility.yul\":21861:21867   */\n      dup3\n        /* \"#utility.yul\":21857:21872   */\n      add\n        /* \"#utility.yul\":21850:21887   */\n      mstore\n        /* \"#utility.yul\":21665:21894   */\n      pop\n      jump\t// out\n        /* \"#utility.yul\":21900:22266   */\n    tag_388:\n        /* \"#utility.yul\":22042:22045   */\n      0x00\n        /* \"#utility.yul\":22063:22130   */\n      tag_657\n        /* \"#utility.yul\":22127:22129   */\n      0x2a\n        /* \"#utility.yul\":22122:22125   */\n      dup4\n        /* \"#utility.yul\":22063:22130   */\n      tag_365\n      jump\t// in\n    tag_657:\n        /* \"#utility.yul\":22056:22130   */\n      swap2\n      pop\n        /* \"#utility.yul\":22139:22232   */\n      tag_658\n        /* \"#utility.yul\":22228:22231   */\n      dup3\n        /* \"#utility.yul\":22139:22232   */\n      tag_387\n      jump\t// in\n    tag_658:\n        /* \"#utility.yul\":22257:22259   */\n      0x40\n        /* \"#utility.yul\":22252:22255   */\n      dup3\n        /* \"#utility.yul\":22248:22260   */\n      add\n        /* \"#utility.yul\":22241:22260   */\n      swap1\n      pop\n        /* \"#utility.yul\":21900:22266   */\n      swap2\n      swap1\n      pop\n      jump\t// out\n        /* \"#utility.yul\":22272:22691   */\n    tag_181:\n        /* \"#utility.yul\":22438:22442   */\n      0x00\n        /* \"#utility.yul\":22476:22478   */\n      0x20\n        /* \"#utility.yul\":22465:22474   */\n      dup3\n        /* \"#utility.yul\":22461:22479   */\n      add\n        /* \"#utility.yul\":22453:22479   */\n      swap1\n      pop\n        /* \"#utility.yul\":22525:22534   */\n      dup2\n        /* \"#utility.yul\":22519:22523   */\n      dup2\n        /* \"#utility.yul\":22515:22535   */\n      sub\n        /* \"#utility.yul\":22511:22512   */\n      0x00\n        /* \"#utility.yul\":22500:22509   */\n      dup4\n        /* \"#utility.yul\":22496:22513   */\n      add\n        /* \"#utility.yul\":22489:22536   */\n      mstore\n        /* \"#utility.yul\":22553:22684   */\n      tag_660\n        /* \"#utility.yul\":22679:22683   */\n      dup2\n        /* \"#utility.yul\":22553:22684   */\n      tag_388\n      jump\t// in\n    tag_660:\n        /* \"#utility.yul\":22545:22684   */\n      swap1\n      pop\n        /* \"#utility.yul\":22272:22691   */\n      swap2\n      swap1\n      pop\n      jump\t// out\n        /* \"#utility.yul\":22697:22918   */\n    tag_389:\n        /* \"#utility.yul\":22837:22871   */\n      0x5374617274207072696365206d7573742062652067726561746572207468616e\n        /* \"#utility.yul\":22833:22834   */\n      0x00\n        /* \"#utility.yul\":22825:22831   */\n      dup3\n        /* \"#utility.yul\":22821:22835   */\n      add\n        /* \"#utility.yul\":22814:22872   */\n      mstore\n        /* \"#utility.yul\":22906:22910   */\n      0x2030000000000000000000000000000000000000000000000000000000000000\n        /* \"#utility.yul\":22901:22903   */\n      0x20\n        /* \"#utility.yul\":22893:22899   */\n      dup3\n        /* \"#utility.yul\":22889:22904   */\n      add\n        /* \"#utility.yul\":22882:22911   */\n      mstore\n        /* \"#utility.yul\":22697:22918   */\n      pop\n      jump\t// out\n        /* \"#utility.yul\":22924:23290   */\n    tag_390:\n        /* \"#utility.yul\":23066:23069   */\n      0x00\n        /* \"#utility.yul\":23087:23154   */\n      tag_663\n        /* \"#utility.yul\":23151:23153   */\n      0x22\n        /* \"#utility.yul\":23146:23149   */\n      dup4\n        /* \"#utility.yul\":23087:23154   */\n      tag_365\n      jump\t// in\n    tag_663:\n        /* \"#utility.yul\":23080:23154   */\n      swap2\n      pop\n        /* \"#utility.yul\":23163:23256   */\n      tag_664\n        /* \"#utility.yul\":23252:23255   */\n      dup3\n        /* \"#utility.yul\":23163:23256   */\n      tag_389\n      jump\t// in\n    tag_664:\n        /* \"#utility.yul\":23281:23283   */\n      0x40\n        /* \"#utility.yul\":23276:23279   */\n      dup3\n        /* \"#utility.yul\":23272:23284   */\n      add\n        /* \"#utility.yul\":23265:23284   */\n      swap1\n      pop\n        /* \"#utility.yul\":22924:23290   */\n      swap2\n      swap1\n      pop\n      jump\t// out\n        /* \"#utility.yul\":23296:23715   */\n    tag_184:\n        /* \"#utility.yul\":23462:23466   */\n      0x00\n        /* \"#utility.yul\":23500:23502   */\n      0x20\n        /* \"#utility.yul\":23489:23498   */\n      dup3\n        /* \"#utility.yul\":23485:23503   */\n      add\n        /* \"#utility.yul\":23477:23503   */\n      swap1\n      pop\n        /* \"#utility.yul\":23549:23558   */\n      dup2\n        /* \"#utility.yul\":23543:23547   */\n      dup2\n        /* \"#utility.yul\":23539:23559   */\n      sub\n        /* \"#utility.yul\":23535:23536   */\n      0x00\n        /* \"#utility.yul\":23524:23533   */\n      dup4\n        /* \"#utility.yul\":23520:23537   */\n      add\n        /* \"#utility.yul\":23513:23560   */\n      mstore\n        /* \"#utility.yul\":23577:23708   */\n      tag_666\n        /* \"#utility.yul\":23703:23707   */\n      dup2\n        /* \"#utility.yul\":23577:23708   */\n      tag_390\n      jump\t// in\n    tag_666:\n        /* \"#utility.yul\":23569:23708   */\n      swap1\n      pop\n        /* \"#utility.yul\":23296:23715   */\n      swap2\n      swap1\n      pop\n      jump\t// out\n        /* \"#utility.yul\":23721:23954   */\n    tag_190:\n        /* \"#utility.yul\":23760:23763   */\n      0x00\n        /* \"#utility.yul\":23783:23807   */\n      tag_668\n        /* \"#utility.yul\":23801:23806   */\n      dup3\n        /* \"#utility.yul\":23783:23807   */\n      tag_355\n      jump\t// in\n    tag_668:\n        /* \"#utility.yul\":23774:23807   */\n      swap2\n      pop\n        /* \"#utility.yul\":23829:23895   */\n      0xffffffffffffffffffffffffffffffffffffffffffffffffffffffffffffffff\n        /* \"#utility.yul\":23822:23827   */\n      dup3\n        /* \"#utility.yul\":23819:23896   */\n      sub\n        /* \"#utility.yul\":23816:23919   */\n      tag_669\n      jumpi\n        /* \"#utility.yul\":23899:23917   */\n      tag_670\n      tag_378\n      jump\t// in\n    tag_670:\n        /* \"#utility.yul\":23816:23919   */\n    tag_669:\n        /* \"#utility.yul\":23946:23947   */\n      0x01\n        /* \"#utility.yul\":23939:23944   */\n      dup3\n        /* \"#utility.yul\":23935:23948   */\n      add\n        /* \"#utility.yul\":23928:23948   */\n      swap1\n      pop\n        /* \"#utility.yul\":23721:23954   */\n      swap2\n      swap1\n      pop\n      jump\t// out\n        /* \"#utility.yul\":23960:24129   */\n    tag_391:\n        /* \"#utility.yul\":24100:24121   */\n      0x43434950206e6f7420636f6e6669677572656400000000000000000000000000\n        /* \"#utility.yul\":24096:24097   */\n      0x00\n        /* \"#utility.yul\":24088:24094   */\n      dup3\n        /* \"#utility.yul\":24084:24098   */\n      add\n        /* \"#utility.yul\":24077:24122   */\n      mstore\n        /* \"#utility.yul\":23960:24129   */\n      pop\n      jump\t// out\n        /* \"#utility.yul\":24135:24501   */\n    tag_392:\n        /* \"#utility.yul\":24277:24280   */\n      0x00\n        /* \"#utility.yul\":24298:24365   */\n      tag_673\n        /* \"#utility.yul\":24362:24364   */\n      0x13\n        /* \"#utility.yul\":24357:24360   */\n      dup4\n        /* \"#utility.yul\":24298:24365   */\n      tag_365\n      jump\t// in\n    tag_673:\n        /* \"#utility.yul\":24291:24365   */\n      swap2\n      pop\n        /* \"#utility.yul\":24374:24467   */\n      tag_674\n        /* \"#utility.yul\":24463:24466   */\n      dup3\n        /* \"#utility.yul\":24374:24467   */\n      tag_391\n      jump\t// in\n    tag_674:\n        /* \"#utility.yul\":24492:24494   */\n      0x20\n        /* \"#utility.yul\":24487:24490   */\n      dup3\n        /* \"#utility.yul\":24483:24495   */\n      add\n        /* \"#utility.yul\":24476:24495   */\n      swap1\n      pop\n        /* \"#utility.yul\":24135:24501   */\n      swap2\n      swap1\n      pop\n      jump\t// out\n        /* \"#utility.yul\":24507:24926   */\n    tag_194:\n        /* \"#utility.yul\":24673:24677   */\n      0x00\n        /* \"#utility.yul\":24711:24713   */\n      0x20\n        /* \"#utility.yul\":24700:24709   */\n      dup3\n        /* \"#utility.yul\":24696:24714   */\n      add\n        /* \"#utility.yul\":24688:24714   */\n      swap1\n      pop\n        /* \"#utility.yul\":24760:24769   */\n      dup2\n        /* \"#utility.yul\":24754:24758   */\n      dup2\n        /* \"#utility.yul\":24750:24770   */\n      sub\n        /* \"#utility.yul\":24746:24747   */\n      0x00\n        /* \"#utility.yul\":24735:24744   */\n      dup4\n        /* \"#utility.yul\":24731:24748   */\n      add\n        /* \"#utility.yul\":24724:24771   */\n      mstore\n        /* \"#utility.yul\":24788:24919   */\n      tag_676\n        /* \"#utility.yul\":24914:24918   */\n      dup2\n        /* \"#utility.yul\":24788:24919   */\n      tag_392\n      jump\t// in\n    tag_676:\n        /* \"#utility.yul\":24780:24919   */\n      swap1\n      pop\n        /* \"#utility.yul\":24507:24926   */\n      swap2\n      swap1\n      pop\n      jump\t// out\n        /* \"#utility.yul\":24932:25374   */\n    tag_197:\n        /* \"#utility.yul\":25081:25085   */\n      0x00\n        /* \"#utility.yul\":25119:25121   */\n      0x60\n        /* \"#utility.yul\":25108:25117   */\n      dup3\n        /* \"#utility.yul\":25104:25122   */\n      add\n        /* \"#utility.yul\":25096:25122   */\n      swap1\n      pop\n        /* \"#utility.yul\":25132:25203   */\n      tag_678\n        /* \"#utility.yul\":25200:25201   */\n      0x00\n        /* \"#utility.yul\":25189:25198   */\n      dup4\n        /* \"#utility.yul\":25185:25202   */\n      add\n        /* \"#utility.yul\":25176:25182   */\n      dup7\n        /* \"#utility.yul\":25132:25203   */\n      tag_362\n      jump\t// in\n    tag_678:\n        /* \"#utility.yul\":25213:25285   */\n      tag_679\n        /* \"#utility.yul\":25281:25283   */\n      0x20\n        /* \"#utility.yul\":25270:25279   */\n      dup4\n        /* \"#utility.yul\":25266:25284   */\n      add\n        /* \"#utility.yul\":25257:25263   */\n      dup6\n        /* \"#utility.yul\":25213:25285   */\n      tag_362\n      jump\t// in\n    tag_679:\n        /* \"#utility.yul\":25295:25367   */\n      tag_680\n        /* \"#utility.yul\":25363:25365   */\n      0x40\n        /* \"#utility.yul\":25352:25361   */\n      dup4\n        /* \"#utility.yul\":25348:25366   */\n      add\n        /* \"#utility.yul\":25339:25345   */\n      dup5\n        /* \"#utility.yul\":25295:25367   */\n      tag_361\n      jump\t// in\n    tag_680:\n        /* \"#utility.yul\":24932:25374   */\n      swap5\n      swap4\n      pop\n      pop\n      pop\n      pop\n      jump\t// out\n        /* \"#utility.yul\":25380:25495   */\n    tag_393:\n        /* \"#utility.yul\":25465:25488   */\n      tag_682\n        /* \"#utility.yul\":25482:25487   */\n      dup2\n        /* \"#utility.yul\":25465:25488   */\n      tag_358\n      jump\t// in\n    tag_682:\n        /* \"#utility.yul\":25460:25463   */\n      dup3\n        /* \"#utility.yul\":25453:25489   */\n      mstore\n        /* \"#utility.yul\":25380:25495   */\n      pop\n      pop\n      jump\t// out\n        /* \"#utility.yul\":25501:25599   */\n    tag_394:\n        /* \"#utility.yul\":25552:25558   */\n      0x00\n        /* \"#utility.yul\":25586:25591   */\n      dup2\n        /* \"#utility.yul\":25580:25592   */\n      mload\n        /* \"#utility.yul\":25570:25592   */\n      swap1\n      pop\n        /* \"#utility.yul\":25501:25599   */\n      swap2\n      swap1\n      pop\n      jump\t// out\n        /* \"#utility.yul\":25605:25763   */\n    tag_395:\n        /* \"#utility.yul\":25678:25689   */\n      0x00\n        /* \"#utility.yul\":25712:25718   */\n      dup3\n        /* \"#utility.yul\":25707:25710   */\n      dup3\n        /* \"#utility.yul\":25700:25719   */\n      mstore\n        /* \"#utility.yul\":25752:25756   */\n      0x20\n        /* \"#utility.yul\":25747:25750   */\n      dup3\n        /* \"#utility.yul\":25743:25757   */\n      add\n        /* \"#utility.yul\":25728:25757   */\n      swap1\n      pop\n        /* \"#utility.yul\":25605:25763   */\n      swap3\n      swap2\n      pop\n      pop\n      jump\t// out\n        /* \"#utility.yul\":25769:25908   */\n    tag_396:\n        /* \"#utility.yul\":25858:25864   */\n      dup3\n        /* \"#utility.yul\":25853:25856   */\n      dup2\n        /* \"#utility.yul\":25848:25851   */\n      dup4\n        /* \"#utility.yul\":25842:25865   */\n      mcopy\n        /* \"#utility.yul\":25899:25900   */\n      0x00\n        /* \"#utility.yul\":25890:25896   */\n      dup4\n        /* \"#utility.yul\":25885:25888   */\n      dup4\n        /* \"#utility.yul\":25881:25897   */\n      add\n        /* \"#utility.yul\":25874:25901   */\n      mstore\n        /* \"#utility.yul\":25769:25908   */\n      pop\n      pop\n      pop\n      jump\t// out\n        /* \"#utility.yul\":25914:26267   */\n    tag_397:\n        /* \"#utility.yul\":25990:25993   */\n      0x00\n        /* \"#utility.yul\":26018:26056   */\n      tag_687\n        /* \"#utility.yul\":26050:26055   */\n      dup3\n        /* \"#utility.yul\":26018:26056   */\n      tag_394\n      jump\t// in\n    tag_687:\n        /* \"#utility.yul\":26072:26132   */\n      tag_688\n        /* \"#utility.yul\":26125:26131   */\n      dup2\n        /* \"#utility.yul\":26120:26123   */\n      dup6\n        /* \"#utility.yul\":26072:26132   */\n      tag_395\n      jump\t// in\n    tag_688:\n        /* \"#utility.yul\":26065:26132   */\n      swap4\n      pop\n        /* \"#utility.yul\":26141:26206   */\n      tag_689\n        /* \"#utility.yul\":26199:26205   */\n      dup2\n        /* \"#utility.yul\":26194:26197   */\n      dup6\n        /* \"#utility.yul\":26187:26191   */\n      0x20\n        /* \"#utility.yul\":26180:26185   */\n      dup7\n        /* \"#utility.yul\":26176:26192   */\n      add\n        /* \"#utility.yul\":26141:26206   */\n      tag_396\n      jump\t// in\n    tag_689:\n        /* \"#utility.yul\":26231:26260   */\n      tag_690\n        /* \"#utility.yul\":26253:26259   */\n      dup2\n        /* \"#utility.yul\":26231:26260   */\n      tag_344\n      jump\t// in\n    tag_690:\n        /* \"#utility.yul\":26226:26229   */\n      dup5\n        /* \"#utility.yul\":26222:26261   */\n      add\n        /* \"#utility.yul\":26215:26261   */\n      swap2\n      pop\n        /* \"#utility.yul\":25994:26267   */\n      pop\n        /* \"#utility.yul\":25914:26267   */\n      swap3\n      swap2\n      pop\n      pop\n      jump\t// out\n        /* \"#utility.yul\":26273:26417   */\n    tag_398:\n        /* \"#utility.yul\":26370:26376   */\n      0x00\n        /* \"#utility.yul\":26404:26409   */\n      dup2\n        /* \"#utility.yul\":26398:26410   */\n      mload\n        /* \"#utility.yul\":26388:26410   */\n      swap1\n      pop\n        /* \"#utility.yul\":26273:26417   */\n      swap2\n      swap1\n      pop\n      jump\t// out\n        /* \"#utility.yul\":26423:26627   */\n    tag_399:\n        /* \"#utility.yul\":26542:26553   */\n      0x00\n        /* \"#utility.yul\":26576:26582   */\n      dup3\n        /* \"#utility.yul\":26571:26574   */\n      dup3\n        /* \"#utility.yul\":26564:26583   */\n      mstore\n        /* \"#utility.yul\":26616:26620   */\n      0x20\n        /* \"#utility.yul\":26611:26614   */\n      dup3\n        /* \"#utility.yul\":26607:26621   */\n      add\n        /* \"#utility.yul\":26592:26621   */\n      swap1\n      pop\n        /* \"#utility.yul\":26423:26627   */\n      swap3\n      swap2\n      pop\n      pop\n      jump\t// out\n        /* \"#utility.yul\":26633:26795   */\n    tag_400:\n        /* \"#utility.yul\":26730:26734   */\n      0x00\n        /* \"#utility.yul\":26753:26756   */\n      dup2\n        /* \"#utility.yul\":26745:26756   */\n      swap1\n      pop\n        /* \"#utility.yul\":26783:26787   */\n      0x20\n        /* \"#utility.yul\":26778:26781   */\n      dup3\n        /* \"#utility.yul\":26774:26788   */\n      add\n        /* \"#utility.yul\":26766:26788   */\n      swap1\n      pop\n        /* \"#utility.yul\":26633:26795   */\n      swap2\n      swap1\n      pop\n      jump\t// out\n        /* \"#utility.yul\":26801:26909   */\n    tag_401:\n        /* \"#utility.yul\":26878:26902   */\n      tag_695\n        /* \"#utility.yul\":26896:26901   */\n      dup2\n        /* \"#utility.yul\":26878:26902   */\n      tag_339\n      jump\t// in\n    tag_695:\n        /* \"#utility.yul\":26873:26876   */\n      dup3\n        /* \"#utility.yul\":26866:26903   */\n      mstore\n        /* \"#utility.yul\":26801:26909   */\n      pop\n      pop\n      jump\t// out\n        /* \"#utility.yul\":26915:27023   */\n    tag_402:\n        /* \"#utility.yul\":26992:27016   */\n      tag_697\n        /* \"#utility.yul\":27010:27015   */\n      dup2\n        /* \"#utility.yul\":26992:27016   */\n      tag_355\n      jump\t// in\n    tag_697:\n        /* \"#utility.yul\":26987:26990   */\n      dup3\n        /* \"#utility.yul\":26980:27017   */\n      mstore\n        /* \"#utility.yul\":26915:27023   */\n      pop\n      pop\n      jump\t// out\n        /* \"#utility.yul\":27097:27607   */\n    tag_403:\n        /* \"#utility.yul\":27244:27248   */\n      0x40\n        /* \"#utility.yul\":27239:27242   */\n      dup3\n        /* \"#utility.yul\":27235:27249   */\n      add\n        /* \"#utility.yul\":27332:27336   */\n      0x00\n        /* \"#utility.yul\":27325:27330   */\n      dup3\n        /* \"#utility.yul\":27321:27337   */\n      add\n        /* \"#utility.yul\":27315:27338   */\n      mload\n        /* \"#utility.yul\":27351:27414   */\n      tag_699\n        /* \"#utility.yul\":27408:27412   */\n      0x00\n        /* \"#utility.yul\":27403:27406   */\n      dup6\n        /* \"#utility.yul\":27399:27413   */\n      add\n        /* \"#utility.yul\":27385:27397   */\n      dup3\n        /* \"#utility.yul\":27351:27414   */\n      tag_401\n      jump\t// in\n    tag_699:\n        /* \"#utility.yul\":27259:27424   */\n      pop\n        /* \"#utility.yul\":27508:27512   */\n      0x20\n        /* \"#utility.yul\":27501:27506   */\n      dup3\n        /* \"#utility.yul\":27497:27513   */\n      add\n        /* \"#utility.yul\":27491:27514   */\n      mload\n        /* \"#utility.yul\":27527:27590   */\n      tag_700\n        /* \"#utility.yul\":27584:27588   */\n      0x20\n        /* \"#utility.yul\":27579:27582   */\n      dup6\n        /* \"#utility.yul\":27575:27589   */\n      add\n        /* \"#utility.yul\":27561:27573   */\n      dup3\n        /* \"#utility.yul\":27527:27590   */\n      tag_402\n      jump\t// in\n    tag_700:\n        /* \"#utility.yul\":27434:27600   */\n      pop\n        /* \"#utility.yul\":27213:27607   */\n      pop\n        /* \"#utility.yul\":27097:27607   */\n      pop\n      pop\n      jump\t// out\n        /* \"#utility.yul\":27613:27912   */\n    tag_404:\n        /* \"#utility.yul\":27742:27752   */\n      0x00\n        /* \"#utility.yul\":27763:27869   */\n      tag_702\n        /* \"#utility.yul\":27865:27868   */\n      dup4\n        /* \"#utility.yul\":27857:27863   */\n      dup4\n        /* \"#utility.yul\":27763:27869   */\n      tag_403\n      jump\t// in\n    tag_702:\n        /* \"#utility.yul\":27901:27905   */\n      0x40\n        /* \"#utility.yul\":27896:27899   */\n      dup4\n        /* \"#utility.yul\":27892:27906   */\n      add\n        /* \"#utility.yul\":27878:27906   */\n      swap1\n      pop\n        /* \"#utility.yul\":27613:27912   */\n      swap3\n      swap2\n      pop\n      pop\n      jump\t// out\n        /* \"#utility.yul\":27918:28061   */\n    tag_405:\n        /* \"#utility.yul\":28018:28022   */\n      0x00\n        /* \"#utility.yul\":28050:28054   */\n      0x20\n        /* \"#utility.yul\":28045:28048   */\n      dup3\n        /* \"#utility.yul\":28041:28055   */\n      add\n        /* \"#utility.yul\":28033:28055   */\n      swap1\n      pop\n        /* \"#utility.yul\":27918:28061   */\n      swap2\n      swap1\n      pop\n      jump\t// out\n        /* \"#utility.yul\":28139:29091   */\n    tag_406:\n        /* \"#utility.yul\":28308:28311   */\n      0x00\n        /* \"#utility.yul\":28337:28421   */\n      tag_705\n        /* \"#utility.yul\":28415:28420   */\n      dup3\n        /* \"#utility.yul\":28337:28421   */\n      tag_398\n      jump\t// in\n    tag_705:\n        /* \"#utility.yul\":28437:28543   */\n      tag_706\n        /* \"#utility.yul\":28536:28542   */\n      dup2\n        /* \"#utility.yul\":28531:28534   */\n      dup6\n        /* \"#utility.yul\":28437:28543   */\n      tag_399\n      jump\t// in\n    tag_706:\n        /* \"#utility.yul\":28430:28543   */\n      swap4\n      pop\n        /* \"#utility.yul\":28567:28653   */\n      tag_707\n        /* \"#utility.yul\":28647:28652   */\n      dup4\n        /* \"#utility.yul\":28567:28653   */\n      tag_400\n      jump\t// in\n    tag_707:\n        /* \"#utility.yul\":28676:28683   */\n      dup1\n        /* \"#utility.yul\":28707:28708   */\n      0x00\n        /* \"#utility.yul\":28692:29066   */\n    tag_708:\n        /* \"#utility.yul\":28717:28723   */\n      dup4\n        /* \"#utility.yul\":28714:28715   */\n      dup2\n        /* \"#utility.yul\":28711:28724   */\n      lt\n        /* \"#utility.yul\":28692:29066   */\n      iszero\n      tag_710\n      jumpi\n        /* \"#utility.yul\":28793:28799   */\n      dup2\n        /* \"#utility.yul\":28787:28800   */\n      mload\n        /* \"#utility.yul\":28820:28943   */\n      tag_711\n        /* \"#utility.yul\":28939:28942   */\n      dup9\n        /* \"#utility.yul\":28924:28937   */\n      dup3\n        /* \"#utility.yul\":28820:28943   */\n      tag_404\n      jump\t// in\n    tag_711:\n        /* \"#utility.yul\":28813:28943   */\n      swap8\n      pop\n        /* \"#utility.yul\":28966:29056   */\n      tag_712\n        /* \"#utility.yul\":29049:29055   */\n      dup4\n        /* \"#utility.yul\":28966:29056   */\n      tag_405\n      jump\t// in\n    tag_712:\n        /* \"#utility.yul\":28956:29056   */\n      swap3\n      pop\n        /* \"#utility.yul\":28752:29066   */\n      pop\n        /* \"#utility.yul\":28739:28740   */\n      0x01\n        /* \"#utility.yul\":28736:28737   */\n      dup2\n        /* \"#utility.yul\":28732:28741   */\n      add\n        /* \"#utility.yul\":28727:28741   */\n      swap1\n      pop\n        /* \"#utility.yul\":28692:29066   */\n      jump(tag_708)\n    tag_710:\n        /* \"#utility.yul\":28696:28710   */\n      pop\n        /* \"#utility.yul\":29082:29085   */\n      dup6\n        /* \"#utility.yul\":29075:29085   */\n      swap4\n      pop\n        /* \"#utility.yul\":28313:29091   */\n      pop\n      pop\n      pop\n        /* \"#utility.yul\":28139:29091   */\n      swap3\n      swap2\n      pop\n      pop\n      jump\t// out\n        /* \"#utility.yul\":29165:30621   */\n    tag_407:\n        /* \"#utility.yul\":29294:29297   */\n      0x00\n        /* \"#utility.yul\":29330:29334   */\n      0xa0\n        /* \"#utility.yul\":29325:29328   */\n      dup4\n        /* \"#utility.yul\":29321:29335   */\n      add\n        /* \"#utility.yul\":29421:29425   */\n      0x00\n        /* \"#utility.yul\":29414:29419   */\n      dup4\n        /* \"#utility.yul\":29410:29426   */\n      add\n        /* \"#utility.yul\":29404:29427   */\n      mload\n        /* \"#utility.yul\":29474:29477   */\n      dup5\n        /* \"#utility.yul\":29468:29472   */\n      dup3\n        /* \"#utility.yul\":29464:29478   */\n      sub\n        /* \"#utility.yul\":29457:29461   */\n      0x00\n        /* \"#utility.yul\":29452:29455   */\n      dup7\n        /* \"#utility.yul\":29448:29462   */\n      add\n        /* \"#utility.yul\":29441:29479   */\n      mstore\n        /* \"#utility.yul\":29500:29571   */\n      tag_714\n        /* \"#utility.yul\":29566:29570   */\n      dup3\n        /* \"#utility.yul\":29552:29564   */\n      dup3\n        /* \"#utility.yul\":29500:29571   */\n      tag_397\n      jump\t// in\n    tag_714:\n        /* \"#utility.yul\":29492:29571   */\n      swap2\n      pop\n        /* \"#utility.yul\":29345:29582   */\n      pop\n        /* \"#utility.yul\":29664:29668   */\n      0x20\n        /* \"#utility.yul\":29657:29662   */\n      dup4\n        /* \"#utility.yul\":29653:29669   */\n      add\n        /* \"#utility.yul\":29647:29670   */\n      mload\n        /* \"#utility.yul\":29717:29720   */\n      dup5\n        /* \"#utility.yul\":29711:29715   */\n      dup3\n        /* \"#utility.yul\":29707:29721   */\n      sub\n        /* \"#utility.yul\":29700:29704   */\n      0x20\n        /* \"#utility.yul\":29695:29698   */\n      dup7\n        /* \"#utility.yul\":29691:29705   */\n      add\n        /* \"#utility.yul\":29684:29722   */\n      mstore\n        /* \"#utility.yul\":29743:29814   */\n      tag_715\n        /* \"#utility.yul\":29809:29813   */\n      dup3\n        /* \"#utility.yul\":29795:29807   */\n      dup3\n        /* \"#utility.yul\":29743:29814   */\n      tag_397\n      jump\t// in\n    tag_715:\n        /* \"#utility.yul\":29735:29814   */\n      swap2\n      pop\n        /* \"#utility.yul\":29592:29825   */\n      pop\n        /* \"#utility.yul\":29915:29919   */\n      0x40\n        /* \"#utility.yul\":29908:29913   */\n      dup4\n        /* \"#utility.yul\":29904:29920   */\n      add\n        /* \"#utility.yul\":29898:29921   */\n      mload\n        /* \"#utility.yul\":29968:29971   */\n      dup5\n        /* \"#utility.yul\":29962:29966   */\n      dup3\n        /* \"#utility.yul\":29958:29972   */\n      sub\n        /* \"#utility.yul\":29951:29955   */\n      0x40\n        /* \"#utility.yul\":29946:29949   */\n      dup7\n        /* \"#utility.yul\":29942:29956   */\n      add\n        /* \"#utility.yul\":29935:29973   */\n      mstore\n        /* \"#utility.yul\":29994:30157   */\n      tag_716\n        /* \"#utility.yul\":30152:30156   */\n      dup3\n        /* \"#utility.yul\":30138:30150   */\n      dup3\n        /* \"#utility.yul\":29994:30157   */\n      tag_406\n      jump\t// in\n    tag_716:\n        /* \"#utility.yul\":29986:30157   */\n      swap2\n      pop\n        /* \"#utility.yul\":29835:30168   */\n      pop\n        /* \"#utility.yul\":30254:30258   */\n      0x60\n        /* \"#utility.yul\":30247:30252   */\n      dup4\n        /* \"#utility.yul\":30243:30259   */\n      add\n        /* \"#utility.yul\":30237:30260   */\n      mload\n        /* \"#utility.yul\":30273:30336   */\n      tag_717\n        /* \"#utility.yul\":30330:30334   */\n      0x60\n        /* \"#utility.yul\":30325:30328   */\n      dup7\n        /* \"#utility.yul\":30321:30335   */\n      add\n        /* \"#utility.yul\":30307:30319   */\n      dup3\n        /* \"#utility.yul\":30273:30336   */\n      tag_401\n      jump\t// in\n    tag_717:\n        /* \"#utility.yul\":30178:30346   */\n      pop\n        /* \"#utility.yul\":30433:30437   */\n      0x80\n        /* \"#utility.yul\":30426:30431   */\n      dup4\n        /* \"#utility.yul\":30422:30438   */\n      add\n        /* \"#utility.yul\":30416:30439   */\n      mload\n        /* \"#utility.yul\":30486:30489   */\n      dup5\n        /* \"#utility.yul\":30480:30484   */\n      dup3\n        /* \"#utility.yul\":30476:30490   */\n      sub\n        /* \"#utility.yul\":30469:30473   */\n      0x80\n        /* \"#utility.yul\":30464:30467   */\n      dup7\n        /* \"#utility.yul\":30460:30474   */\n      add\n        /* \"#utility.yul\":30453:30491   */\n      mstore\n        /* \"#utility.yul\":30512:30583   */\n      tag_718\n        /* \"#utility.yul\":30578:30582   */\n      dup3\n        /* \"#utility.yul\":30564:30576   */\n      dup3\n        /* \"#utility.yul\":30512:30583   */\n      tag_397\n      jump\t// in\n    tag_718:\n        /* \"#utility.yul\":30504:30583   */\n      swap2\n      pop\n        /* \"#utility.yul\":30356:30594   */\n      pop\n        /* \"#utility.yul\":30611:30615   */\n      dup1\n        /* \"#utility.yul\":30604:30615   */\n      swap2\n      pop\n        /* \"#utility.yul\":29299:30621   */\n      pop\n        /* \"#utility.yul\":29165:30621   */\n      swap3\n      swap2\n      pop\n      pop\n      jump\t// out\n        /* \"#utility.yul\":30627:31126   */\n    tag_207:\n        /* \"#utility.yul\":30806:30810   */\n      0x00\n        /* \"#utility.yul\":30844:30846   */\n      0x40\n        /* \"#utility.yul\":30833:30842   */\n      dup3\n        /* \"#utility.yul\":30829:30847   */\n      add\n        /* \"#utility.yul\":30821:30847   */\n      swap1\n      pop\n        /* \"#utility.yul\":30857:30926   */\n      tag_720\n        /* \"#utility.yul\":30923:30924   */\n      0x00\n        /* \"#utility.yul\":30912:30921   */\n      dup4\n        /* \"#utility.yul\":30908:30925   */\n      add\n        /* \"#utility.yul\":30899:30905   */\n      dup6\n        /* \"#utility.yul\":30857:30926   */\n      tag_393\n      jump\t// in\n    tag_720:\n        /* \"#utility.yul\":30973:30982   */\n      dup2\n        /* \"#utility.yul\":30967:30971   */\n      dup2\n        /* \"#utility.yul\":30963:30983   */\n      sub\n        /* \"#utility.yul\":30958:30960   */\n      0x20\n        /* \"#utility.yul\":30947:30956   */\n      dup4\n        /* \"#utility.yul\":30943:30961   */\n      add\n        /* \"#utility.yul\":30936:30984   */\n      mstore\n        /* \"#utility.yul\":31001:31119   */\n      tag_721\n        /* \"#utility.yul\":31114:31118   */\n      dup2\n        /* \"#utility.yul\":31105:31111   */\n      dup5\n        /* \"#utility.yul\":31001:31119   */\n      tag_407\n      jump\t// in\n    tag_721:\n        /* \"#utility.yul\":30993:31119   */\n      swap1\n      pop\n        /* \"#utility.yul\":30627:31126   */\n      swap4\n      swap3\n      pop\n      pop\n      pop\n      jump\t// out\n        /* \"#utility.yul\":31132:31254   */\n    tag_408:\n        /* \"#utility.yul\":31205:31229   */\n      tag_723\n        /* \"#utility.yul\":31223:31228   */\n      dup2\n        /* \"#utility.yul\":31205:31229   */\n      tag_351\n      jump\t// in\n    tag_723:\n        /* \"#utility.yul\":31198:31203   */\n      dup2\n        /* \"#utility.yul\":31195:31230   */\n      eq\n        /* \"#utility.yul\":31185:31248   */\n      tag_724\n      jumpi\n        /* \"#utility.yul\":31244:31245   */\n      0x00\n        /* \"#utility.yul\":31241:31242   */\n      0x00\n        /* \"#utility.yul\":31234:31246   */\n      revert\n        /* \"#utility.yul\":31185:31248   */\n    tag_724:\n        /* \"#utility.yul\":31132:31254   */\n      pop\n      jump\t// out\n        /* \"#utility.yul\":31260:31403   */\n    tag_409:\n        /* \"#utility.yul\":31317:31322   */\n      0x00\n        /* \"#utility.yul\":31348:31354   */\n      dup2\n        /* \"#utility.yul\":31342:31355   */\n      mload\n        /* \"#utility.yul\":31333:31355   */\n      swap1\n      pop\n        /* \"#utility.yul\":31364:31397   */\n      tag_726\n        /* \"#utility.yul\":31391:31396   */\n      dup2\n        /* \"#utility.yul\":31364:31397   */\n      tag_408\n      jump\t// in\n    tag_726:\n        /* \"#utility.yul\":31260:31403   */\n      swap3\n      swap2\n      pop\n      pop\n      jump\t// out\n        /* \"#utility.yul\":31409:31760   */\n    tag_211:\n        /* \"#utility.yul\":31479:31485   */\n      0x00\n        /* \"#utility.yul\":31528:31530   */\n      0x20\n        /* \"#utility.yul\":31516:31525   */\n      dup3\n        /* \"#utility.yul\":31507:31514   */\n      dup5\n        /* \"#utility.yul\":31503:31526   */\n      sub\n        /* \"#utility.yul\":31499:31531   */\n      slt\n        /* \"#utility.yul\":31496:31615   */\n      iszero\n      tag_728\n      jumpi\n        /* \"#utility.yul\":31534:31613   */\n      tag_729\n      tag_337\n      jump\t// in\n    tag_729:\n        /* \"#utility.yul\":31496:31615   */\n    tag_728:\n        /* \"#utility.yul\":31654:31655   */\n      0x00\n        /* \"#utility.yul\":31679:31743   */\n      tag_730\n        /* \"#utility.yul\":31735:31742   */\n      dup5\n        /* \"#utility.yul\":31726:31732   */\n      dup3\n        /* \"#utility.yul\":31715:31724   */\n      dup6\n        /* \"#utility.yul\":31711:31733   */\n      add\n        /* \"#utility.yul\":31679:31743   */\n      tag_409\n      jump\t// in\n    tag_730:\n        /* \"#utility.yul\":31669:31743   */\n      swap2\n      pop\n        /* \"#utility.yul\":31625:31753   */\n      pop\n        /* \"#utility.yul\":31409:31760   */\n      swap3\n      swap2\n      pop\n      pop\n      jump\t// out\n        /* \"#utility.yul\":31766:31941   */\n    tag_410:\n        /* \"#utility.yul\":31906:31933   */\n      0x4f6e6c792073656c6c6572206f776e65722063616e20656e6400000000000000\n        /* \"#utility.yul\":31902:31903   */\n      0x00\n        /* \"#utility.yul\":31894:31900   */\n      dup3\n        /* \"#utility.yul\":31890:31904   */\n      add\n        /* \"#utility.yul\":31883:31934   */\n      mstore\n        /* \"#utility.yul\":31766:31941   */\n      pop\n      jump\t// out\n        /* \"#utility.yul\":31947:32313   */\n    tag_411:\n        /* \"#utility.yul\":32089:32092   */\n      0x00\n        /* \"#utility.yul\":32110:32177   */\n      tag_733\n        /* \"#utility.yul\":32174:32176   */\n      0x19\n        /* \"#utility.yul\":32169:32172   */\n      dup4\n        /* \"#utility.yul\":32110:32177   */\n      tag_365\n      jump\t// in\n    tag_733:\n        /* \"#utility.yul\":32103:32177   */\n      swap2\n      pop\n        /* \"#utility.yul\":32186:32279   */\n      tag_734\n        /* \"#utility.yul\":32275:32278   */\n      dup3\n        /* \"#utility.yul\":32186:32279   */\n      tag_410\n      jump\t// in\n    tag_734:\n        /* \"#utility.yul\":32304:32306   */\n      0x20\n        /* \"#utility.yul\":32299:32302   */\n      dup3\n        /* \"#utility.yul\":32295:32307   */\n      add\n        /* \"#utility.yul\":32288:32307   */\n      swap1\n      pop\n        /* \"#utility.yul\":31947:32313   */\n      swap2\n      swap1\n      pop\n      jump\t// out\n        /* \"#utility.yul\":32319:32738   */\n    tag_215:\n        /* \"#utility.yul\":32485:32489   */\n      0x00\n        /* \"#utility.yul\":32523:32525   */\n      0x20\n        /* \"#utility.yul\":32512:32521   */\n      dup3\n        /* \"#utility.yul\":32508:32526   */\n      add\n        /* \"#utility.yul\":32500:32526   */\n      swap1\n      pop\n        /* \"#utility.yul\":32572:32581   */\n      dup2\n        /* \"#utility.yul\":32566:32570   */\n      dup2\n        /* \"#utility.yul\":32562:32582   */\n      sub\n        /* \"#utility.yul\":32558:32559   */\n      0x00\n        /* \"#utility.yul\":32547:32556   */\n      dup4\n        /* \"#utility.yul\":32543:32560   */\n      add\n        /* \"#utility.yul\":32536:32583   */\n      mstore\n        /* \"#utility.yul\":32600:32731   */\n      tag_736\n        /* \"#utility.yul\":32726:32730   */\n      dup2\n        /* \"#utility.yul\":32600:32731   */\n      tag_411\n      jump\t// in\n    tag_736:\n        /* \"#utility.yul\":32592:32731   */\n      swap1\n      pop\n        /* \"#utility.yul\":32319:32738   */\n      swap2\n      swap1\n      pop\n      jump\t// out\n        /* \"#utility.yul\":32744:32919   */\n    tag_412:\n        /* \"#utility.yul\":32884:32911   */\n      0x41756374696f6e20686173206e6f7420656e6465642079657400000000000000\n        /* \"#utility.yul\":32880:32881   */\n      0x00\n        /* \"#utility.yul\":32872:32878   */\n      dup3\n        /* \"#utility.yul\":32868:32882   */\n      add\n        /* \"#utility.yul\":32861:32912   */\n      mstore\n        /* \"#utility.yul\":32744:32919   */\n      pop\n      jump\t// out\n        /* \"#utility.yul\":32925:33291   */\n    tag_413:\n        /* \"#utility.yul\":33067:33070   */\n      0x00\n        /* \"#utility.yul\":33088:33155   */\n      tag_739\n        /* \"#utility.yul\":33152:33154   */\n      0x19\n        /* \"#utility.yul\":33147:33150   */\n      dup4\n        /* \"#utility.yul\":33088:33155   */\n      tag_365\n      jump\t// in\n    tag_739:\n        /* \"#utility.yul\":33081:33155   */\n      swap2\n      pop\n        /* \"#utility.yul\":33164:33257   */\n      tag_740\n        /* \"#utility.yul\":33253:33256   */\n      dup3\n        /* \"#utility.yul\":33164:33257   */\n      tag_412\n      jump\t// in\n    tag_740:\n        /* \"#utility.yul\":33282:33284   */\n      0x20\n        /* \"#utility.yul\":33277:33280   */\n      dup3\n        /* \"#utility.yul\":33273:33285   */\n      add\n        /* \"#utility.yul\":33266:33285   */\n      swap1\n      pop\n        /* \"#utility.yul\":32925:33291   */\n      swap2\n      swap1\n      pop\n      jump\t// out\n        /* \"#utility.yul\":33297:33716   */\n    tag_219:\n        /* \"#utility.yul\":33463:33467   */\n      0x00\n        /* \"#utility.yul\":33501:33503   */\n      0x20\n        /* \"#utility.yul\":33490:33499   */\n      dup3\n        /* \"#utility.yul\":33486:33504   */\n      add\n        /* \"#utility.yul\":33478:33504   */\n      swap1\n      pop\n        /* \"#utility.yul\":33550:33559   */\n      dup2\n        /* \"#utility.yul\":33544:33548   */\n      dup2\n        /* \"#utility.yul\":33540:33560   */\n      sub\n        /* \"#utility.yul\":33536:33537   */\n      0x00\n        /* \"#utility.yul\":33525:33534   */\n      dup4\n        /* \"#utility.yul\":33521:33538   */\n      add\n        /* \"#utility.yul\":33514:33561   */\n      mstore\n        /* \"#utility.yul\":33578:33709   */\n      tag_742\n        /* \"#utility.yul\":33704:33708   */\n      dup2\n        /* \"#utility.yul\":33578:33709   */\n      tag_413\n      jump\t// in\n    tag_742:\n        /* \"#utility.yul\":33570:33709   */\n      swap1\n      pop\n        /* \"#utility.yul\":33297:33716   */\n      swap2\n      swap1\n      pop\n      jump\t// out\n        /* \"#utility.yul\":33722:33893   */\n    tag_414:\n        /* \"#utility.yul\":33862:33885   */\n      0x41756374696f6e20616c726561647920656e6465640000000000000000000000\n        /* \"#utility.yul\":33858:33859   */\n      0x00\n        /* \"#utility.yul\":33850:33856   */\n      dup3\n        /* \"#utility.yul\":33846:33860   */\n      add\n        /* \"#utility.yul\":33839:33886   */\n      mstore\n        /* \"#utility.yul\":33722:33893   */\n      pop\n      jump\t// out\n        /* \"#utility.yul\":33899:34265   */\n    tag_415:\n        /* \"#utility.yul\":34041:34044   */\n      0x00\n        /* \"#utility.yul\":34062:34129   */\n      tag_745\n        /* \"#utility.yul\":34126:34128   */\n      0x15\n        /* \"#utility.yul\":34121:34124   */\n      dup4\n        /* \"#utility.yul\":34062:34129   */\n      tag_365\n      jump\t// in\n    tag_745:\n        /* \"#utility.yul\":34055:34129   */\n      swap2\n      pop\n        /* \"#utility.yul\":34138:34231   */\n      tag_746\n        /* \"#utility.yul\":34227:34230   */\n      dup3\n        /* \"#utility.yul\":34138:34231   */\n      tag_414\n      jump\t// in\n    tag_746:\n        /* \"#utility.yul\":34256:34258   */\n      0x20\n        /* \"#utility.yul\":34251:34254   */\n      dup3\n        /* \"#utility.yul\":34247:34259   */\n      add\n        /* \"#utility.yul\":34240:34259   */\n      swap1\n      pop\n        /* \"#utility.yul\":33899:34265   */\n      swap2\n      swap1\n      pop\n      jump\t// out\n        /* \"#utility.yul\":34271:34690   */\n    tag_222:\n        /* \"#utility.yul\":34437:34441   */\n      0x00\n        /* \"#utility.yul\":34475:34477   */\n      0x20\n        /* \"#utility.yul\":34464:34473   */\n      dup3\n        /* \"#utility.yul\":34460:34478   */\n      add\n        /* \"#utility.yul\":34452:34478   */\n      swap1\n      pop\n        /* \"#utility.yul\":34524:34533   */\n      dup2\n        /* \"#utility.yul\":34518:34522   */\n      dup2\n        /* \"#utility.yul\":34514:34534   */\n      sub\n        /* \"#utility.yul\":34510:34511   */\n      0x00\n        /* \"#utility.yul\":34499:34508   */\n      dup4\n        /* \"#utility.yul\":34495:34512   */\n      add\n        /* \"#utility.yul\":34488:34535   */\n      mstore\n        /* \"#utility.yul\":34552:34683   */\n      tag_748\n        /* \"#utility.yul\":34678:34682   */\n      dup2\n        /* \"#utility.yul\":34552:34683   */\n      tag_415\n      jump\t// in\n    tag_748:\n        /* \"#utility.yul\":34544:34683   */\n      swap1\n      pop\n        /* \"#utility.yul\":34271:34690   */\n      swap2\n      swap1\n      pop\n      jump\t// out\n        /* \"#utility.yul\":34696:34929   */\n    tag_416:\n        /* \"#utility.yul\":34836:34870   */\n      0x45524331393637557067726164653a206e657720696d706c656d656e74617469\n        /* \"#utility.yul\":34832:34833   */\n      0x00\n        /* \"#utility.yul\":34824:34830   */\n      dup3\n        /* \"#utility.yul\":34820:34834   */\n      add\n        /* \"#utility.yul\":34813:34871   */\n      mstore\n        /* \"#utility.yul\":34905:34921   */\n      0x6f6e206973206e6f742055555053000000000000000000000000000000000000\n        /* \"#utility.yul\":34900:34902   */\n      0x20\n        /* \"#utility.yul\":34892:34898   */\n      dup3\n        /* \"#utility.yul\":34888:34903   */\n      add\n        /* \"#utility.yul\":34881:34922   */\n      mstore\n        /* \"#utility.yul\":34696:34929   */\n      pop\n      jump\t// out\n        /* \"#utility.yul\":34935:35301   */\n    tag_417:\n        /* \"#utility.yul\":35077:35080   */\n      0x00\n        /* \"#utility.yul\":35098:35165   */\n      tag_751\n        /* \"#utility.yul\":35162:35164   */\n      0x2e\n        /* \"#utility.yul\":35157:35160   */\n      dup4\n        /* \"#utility.yul\":35098:35165   */\n      tag_365\n      jump\t// in\n    tag_751:\n        /* \"#utility.yul\":35091:35165   */\n      swap2\n      pop\n        /* \"#utility.yul\":35174:35267   */\n      tag_752\n        /* \"#utility.yul\":35263:35266   */\n      dup3\n        /* \"#utility.yul\":35174:35267   */\n      tag_416\n      jump\t// in\n    tag_752:\n        /* \"#utility.yul\":35292:35294   */\n      0x40\n        /* \"#utility.yul\":35287:35290   */\n      dup3\n        /* \"#utility.yul\":35283:35295   */\n      add\n        /* \"#utility.yul\":35276:35295   */\n      swap1\n      pop\n        /* \"#utility.yul\":34935:35301   */\n      swap2\n      swap1\n      pop\n      jump\t// out\n        /* \"#utility.yul\":35307:35726   */\n    tag_254:\n        /* \"#utility.yul\":35473:35477   */\n      0x00\n        /* \"#utility.yul\":35511:35513   */\n      0x20\n        /* \"#utility.yul\":35500:35509   */\n      dup3\n        /* \"#utility.yul\":35496:35514   */\n      add\n        /* \"#utility.yul\":35488:35514   */\n      swap1\n      pop\n        /* \"#utility.yul\":35560:35569   */\n      dup2\n        /* \"#utility.yul\":35554:35558   */\n      dup2\n        /* \"#utility.yul\":35550:35570   */\n      sub\n        /* \"#utility.yul\":35546:35547   */\n      0x00\n        /* \"#utility.yul\":35535:35544   */\n      dup4\n        /* \"#utility.yul\":35531:35548   */\n      add\n        /* \"#utility.yul\":35524:35571   */\n      mstore\n        /* \"#utility.yul\":35588:35719   */\n      tag_754\n        /* \"#utility.yul\":35714:35718   */\n      dup2\n        /* \"#utility.yul\":35588:35719   */\n      tag_417\n      jump\t// in\n    tag_754:\n        /* \"#utility.yul\":35580:35719   */\n      swap1\n      pop\n        /* \"#utility.yul\":35307:35726   */\n      swap2\n      swap1\n      pop\n      jump\t// out\n        /* \"#utility.yul\":35732:35960   */\n    tag_418:\n        /* \"#utility.yul\":35872:35906   */\n      0x45524331393637557067726164653a20756e737570706f727465642070726f78\n        /* \"#utility.yul\":35868:35869   */\n      0x00\n        /* \"#utility.yul\":35860:35866   */\n      dup3\n        /* \"#utility.yul\":35856:35870   */\n      add\n        /* \"#utility.yul\":35849:35907   */\n      mstore\n        /* \"#utility.yul\":35941:35952   */\n      0x6961626c65555549440000000000000000000000000000000000000000000000\n        /* \"#utility.yul\":35936:35938   */\n      0x20\n        /* \"#utility.yul\":35928:35934   */\n      dup3\n        /* \"#utility.yul\":35924:35939   */\n      add\n        /* \"#utility.yul\":35917:35953   */\n      mstore\n        /* \"#utility.yul\":35732:35960   */\n      pop\n      jump\t// out\n        /* \"#utility.yul\":35966:36332   */\n    tag_419:\n        /* \"#utility.yul\":36108:36111   */\n      0x00\n        /* \"#utility.yul\":36129:36196   */\n      tag_757\n        /* \"#utility.yul\":36193:36195   */\n      0x29\n        /* \"#utility.yul\":36188:36191   */\n      dup4\n        /* \"#utility.yul\":36129:36196   */\n      tag_365\n      jump\t// in\n    tag_757:\n        /* \"#utility.yul\":36122:36196   */\n      swap2\n      pop\n        /* \"#utility.yul\":36205:36298   */\n      tag_758\n        /* \"#utility.yul\":36294:36297   */\n      dup3\n        /* \"#utility.yul\":36205:36298   */\n      tag_418\n      jump\t// in\n    tag_758:\n        /* \"#utility.yul\":36323:36325   */\n      0x40\n        /* \"#utility.yul\":36318:36321   */\n      dup3\n        /* \"#utility.yul\":36314:36326   */\n      add\n        /* \"#utility.yul\":36307:36326   */\n      swap1\n      pop\n        /* \"#utility.yul\":35966:36332   */\n      swap2\n      swap1\n      pop\n      jump\t// out\n        /* \"#utility.yul\":36338:36757   */\n    tag_258:\n        /* \"#utility.yul\":36504:36508   */\n      0x00\n        /* \"#utility.yul\":36542:36544   */\n      0x20\n        /* \"#utility.yul\":36531:36540   */\n      dup3\n        /* \"#utility.yul\":36527:36545   */\n      add\n        /* \"#utility.yul\":36519:36545   */\n      swap1\n      pop\n        /* \"#utility.yul\":36591:36600   */\n      dup2\n        /* \"#utility.yul\":36585:36589   */\n      dup2\n        /* \"#utility.yul\":36581:36601   */\n      sub\n        /* \"#utility.yul\":36577:36578   */\n      0x00\n        /* \"#utility.yul\":36566:36575   */\n      dup4\n        /* \"#utility.yul\":36562:36579   */\n      add\n        /* \"#utility.yul\":36555:36602   */\n      mstore\n        /* \"#utility.yul\":36619:36750   */\n      tag_760\n        /* \"#utility.yul\":36745:36749   */\n      dup2\n        /* \"#utility.yul\":36619:36750   */\n      tag_419\n      jump\t// in\n    tag_760:\n        /* \"#utility.yul\":36611:36750   */\n      swap1\n      pop\n        /* \"#utility.yul\":36338:36757   */\n      swap2\n      swap1\n      pop\n      jump\t// out\n        /* \"#utility.yul\":36763:36993   */\n    tag_420:\n        /* \"#utility.yul\":36903:36937   */\n      0x496e697469616c697a61626c653a20636f6e7472616374206973206e6f742069\n        /* \"#utility.yul\":36899:36900   */\n      0x00\n        /* \"#utility.yul\":36891:36897   */\n      dup3\n        /* \"#utility.yul\":36887:36901   */\n      add\n        /* \"#utility.yul\":36880:36938   */\n      mstore\n        /* \"#utility.yul\":36972:36985   */\n      0x6e697469616c697a696e67000000000000000000000000000000000000000000\n        /* \"#utility.yul\":36967:36969   */\n      0x20\n        /* \"#utility.yul\":36959:36965   */\n      dup3\n        /* \"#utility.yul\":36955:36970   */\n      add\n        /* \"#utility.yul\":36948:36986   */\n      mstore\n        /* \"#utility.yul\":36763:36993   */\n      pop\n      jump\t// out\n        /* \"#utility.yul\":36999:37365   */\n    tag_421:\n        /* \"#utility.yul\":37141:37144   */\n      0x00\n        /* \"#utility.yul\":37162:37229   */\n      tag_763\n        /* \"#utility.yul\":37226:37228   */\n      0x2b\n        /* \"#utility.yul\":37221:37224   */\n      dup4\n        /* \"#utility.yul\":37162:37229   */\n      tag_365\n      jump\t// in\n    tag_763:\n        /* \"#utility.yul\":37155:37229   */\n      swap2\n      pop\n        /* \"#utility.yul\":37238:37331   */\n      tag_764\n        /* \"#utility.yul\":37327:37330   */\n      dup3\n        /* \"#utility.yul\":37238:37331   */\n      tag_420\n      jump\t// in\n    tag_764:\n        /* \"#utility.yul\":37356:37358   */\n      0x40\n        /* \"#utility.yul\":37351:37354   */\n      dup3\n        /* \"#utility.yul\":37347:37359   */\n      add\n        /* \"#utility.yul\":37340:37359   */\n      swap1\n      pop\n        /* \"#utility.yul\":36999:37365   */\n      swap2\n      swap1\n      pop\n      jump\t// out\n        /* \"#utility.yul\":37371:37790   */\n    tag_265:\n        /* \"#utility.yul\":37537:37541   */\n      0x00\n        /* \"#utility.yul\":37575:37577   */\n      0x20\n        /* \"#utility.yul\":37564:37573   */\n      dup3\n        /* \"#utility.yul\":37560:37578   */\n      add\n        /* \"#utility.yul\":37552:37578   */\n      swap1\n      pop\n        /* \"#utility.yul\":37624:37633   */\n      dup2\n        /* \"#utility.yul\":37618:37622   */\n      dup2\n        /* \"#utility.yul\":37614:37634   */\n      sub\n        /* \"#utility.yul\":37610:37611   */\n      0x00\n        /* \"#utility.yul\":37599:37608   */\n      dup4\n        /* \"#utility.yul\":37595:37612   */\n      add\n        /* \"#utility.yul\":37588:37635   */\n      mstore\n        /* \"#utility.yul\":37652:37783   */\n      tag_766\n        /* \"#utility.yul\":37778:37782   */\n      dup2\n        /* \"#utility.yul\":37652:37783   */\n      tag_421\n      jump\t// in\n    tag_766:\n        /* \"#utility.yul\":37644:37783   */\n      swap1\n      pop\n        /* \"#utility.yul\":37371:37790   */\n      swap2\n      swap1\n      pop\n      jump\t// out\n        /* \"#utility.yul\":37796:37901   */\n    tag_422:\n        /* \"#utility.yul\":37832:37839   */\n      0x00\n        /* \"#utility.yul\":37872:37894   */\n      0xffffffffffffffffffff\n        /* \"#utility.yul\":37865:37870   */\n      dup3\n        /* \"#utility.yul\":37861:37895   */\n      and\n        /* \"#utility.yul\":37850:37895   */\n      swap1\n      pop\n        /* \"#utility.yul\":37796:37901   */\n      swap2\n      swap1\n      pop\n      jump\t// out\n        /* \"#utility.yul\":37907:38027   */\n    tag_423:\n        /* \"#utility.yul\":37979:38002   */\n      tag_769\n        /* \"#utility.yul\":37996:38001   */\n      dup2\n        /* \"#utility.yul\":37979:38002   */\n      tag_422\n      jump\t// in\n    tag_769:\n        /* \"#utility.yul\":37972:37977   */\n      dup2\n        /* \"#utility.yul\":37969:38003   */\n      eq\n        /* \"#utility.yul\":37959:38021   */\n      tag_770\n      jumpi\n        /* \"#utility.yul\":38017:38018   */\n      0x00\n        /* \"#utility.yul\":38014:38015   */\n      0x00\n        /* \"#utility.yul\":38007:38019   */\n      revert\n        /* \"#utility.yul\":37959:38021   */\n    tag_770:\n        /* \"#utility.yul\":37907:38027   */\n      pop\n      jump\t// out\n        /* \"#utility.yul\":38033:38174   */\n    tag_424:\n        /* \"#utility.yul\":38089:38094   */\n      0x00\n        /* \"#utility.yul\":38120:38126   */\n      dup2\n        /* \"#utility.yul\":38114:38127   */\n      mload\n        /* \"#utility.yul\":38105:38127   */\n      swap1\n      pop\n        /* \"#utility.yul\":38136:38168   */\n      tag_772\n        /* \"#utility.yul\":38162:38167   */\n      dup2\n        /* \"#utility.yul\":38136:38168   */\n      tag_423\n      jump\t// in\n    tag_772:\n        /* \"#utility.yul\":38033:38174   */\n      swap3\n      swap2\n      pop\n      pop\n      jump\t// out\n        /* \"#utility.yul\":38180:38256   */\n    tag_425:\n        /* \"#utility.yul\":38216:38223   */\n      0x00\n        /* \"#utility.yul\":38245:38250   */\n      dup2\n        /* \"#utility.yul\":38234:38250   */\n      swap1\n      pop\n        /* \"#utility.yul\":38180:38256   */\n      swap2\n      swap1\n      pop\n      jump\t// out\n        /* \"#utility.yul\":38262:38382   */\n    tag_426:\n        /* \"#utility.yul\":38334:38357   */\n      tag_775\n        /* \"#utility.yul\":38351:38356   */\n      dup2\n        /* \"#utility.yul\":38334:38357   */\n      tag_425\n      jump\t// in\n    tag_775:\n        /* \"#utility.yul\":38327:38332   */\n      dup2\n        /* \"#utility.yul\":38324:38358   */\n      eq\n        /* \"#utility.yul\":38314:38376   */\n      tag_776\n      jumpi\n        /* \"#utility.yul\":38372:38373   */\n      0x00\n        /* \"#utility.yul\":38369:38370   */\n      0x00\n        /* \"#utility.yul\":38362:38374   */\n      revert\n        /* \"#utility.yul\":38314:38376   */\n    tag_776:\n        /* \"#utility.yul\":38262:38382   */\n      pop\n      jump\t// out\n        /* \"#utility.yul\":38388:38529   */\n    tag_427:\n        /* \"#utility.yul\":38444:38449   */\n      0x00\n        /* \"#utility.yul\":38475:38481   */\n      dup2\n        /* \"#utility.yul\":38469:38482   */\n      mload\n        /* \"#utility.yul\":38460:38482   */\n      swap1\n      pop\n        /* \"#utility.yul\":38491:38523   */\n      tag_778\n        /* \"#utility.yul\":38517:38522   */\n      dup2\n        /* \"#utility.yul\":38491:38523   */\n      tag_426\n      jump\t// in\n    tag_778:\n        /* \"#utility.yul\":38388:38529   */\n      swap3\n      swap2\n      pop\n      pop\n      jump\t// out\n        /* \"#utility.yul\":38535:38678   */\n    tag_428:\n        /* \"#utility.yul\":38592:38597   */\n      0x00\n        /* \"#utility.yul\":38623:38629   */\n      dup2\n        /* \"#utility.yul\":38617:38630   */\n      mload\n        /* \"#utility.yul\":38608:38630   */\n      swap1\n      pop\n        /* \"#utility.yul\":38639:38672   */\n      tag_780\n        /* \"#utility.yul\":38666:38671   */\n      dup2\n        /* \"#utility.yul\":38639:38672   */\n      tag_356\n      jump\t// in\n    tag_780:\n        /* \"#utility.yul\":38535:38678   */\n      swap3\n      swap2\n      pop\n      pop\n      jump\t// out\n        /* \"#utility.yul\":38684:39655   */\n    tag_273:\n        /* \"#utility.yul\":38787:38793   */\n      0x00\n        /* \"#utility.yul\":38795:38801   */\n      0x00\n        /* \"#utility.yul\":38803:38809   */\n      0x00\n        /* \"#utility.yul\":38811:38817   */\n      0x00\n        /* \"#utility.yul\":38819:38825   */\n      0x00\n        /* \"#utility.yul\":38868:38871   */\n      0xa0\n        /* \"#utility.yul\":38856:38865   */\n      dup7\n        /* \"#utility.yul\":38847:38854   */\n      dup9\n        /* \"#utility.yul\":38843:38866   */\n      sub\n        /* \"#utility.yul\":38839:38872   */\n      slt\n        /* \"#utility.yul\":38836:38956   */\n      iszero\n      tag_782\n      jumpi\n        /* \"#utility.yul\":38875:38954   */\n      tag_783\n      tag_337\n      jump\t// in\n    tag_783:\n        /* \"#utility.yul\":38836:38956   */\n    tag_782:\n        /* \"#utility.yul\":38995:38996   */\n      0x00\n        /* \"#utility.yul\":39020:39083   */\n      tag_784\n        /* \"#utility.yul\":39075:39082   */\n      dup9\n        /* \"#utility.yul\":39066:39072   */\n      dup3\n        /* \"#utility.yul\":39055:39064   */\n      dup10\n        /* \"#utility.yul\":39051:39073   */\n      add\n        /* \"#utility.yul\":39020:39083   */\n      tag_424\n      jump\t// in\n    tag_784:\n        /* \"#utility.yul\":39010:39083   */\n      swap6\n      pop\n        /* \"#utility.yul\":38966:39093   */\n      pop\n        /* \"#utility.yul\":39132:39134   */\n      0x20\n        /* \"#utility.yul\":39158:39221   */\n      tag_785\n        /* \"#utility.yul\":39213:39220   */\n      dup9\n        /* \"#utility.yul\":39204:39210   */\n      dup3\n        /* \"#utility.yul\":39193:39202   */\n      dup10\n        /* \"#utility.yul\":39189:39211   */\n      add\n        /* \"#utility.yul\":39158:39221   */\n      tag_427\n      jump\t// in\n    tag_785:\n        /* \"#utility.yul\":39148:39221   */\n      swap5\n      pop\n        /* \"#utility.yul\":39103:39231   */\n      pop\n        /* \"#utility.yul\":39270:39272   */\n      0x40\n        /* \"#utility.yul\":39296:39360   */\n      tag_786\n        /* \"#utility.yul\":39352:39359   */\n      dup9\n        /* \"#utility.yul\":39343:39349   */\n      dup3\n        /* \"#utility.yul\":39332:39341   */\n      dup10\n        /* \"#utility.yul\":39328:39350   */\n      add\n        /* \"#utility.yul\":39296:39360   */\n      tag_428\n      jump\t// in\n    tag_786:\n        /* \"#utility.yul\":39286:39360   */\n      swap4\n      pop\n        /* \"#utility.yul\":39241:39370   */\n      pop\n        /* \"#utility.yul\":39409:39411   */\n      0x60\n        /* \"#utility.yul\":39435:39499   */\n      tag_787\n        /* \"#utility.yul\":39491:39498   */\n      dup9\n        /* \"#utility.yul\":39482:39488   */\n      dup3\n        /* \"#utility.yul\":39471:39480   */\n      dup10\n        /* \"#utility.yul\":39467:39489   */\n      add\n        /* \"#utility.yul\":39435:39499   */\n      tag_428\n      jump\t// in\n    tag_787:\n        /* \"#utility.yul\":39425:39499   */\n      swap3\n      pop\n        /* \"#utility.yul\":39380:39509   */\n      pop\n        /* \"#utility.yul\":39548:39551   */\n      0x80\n        /* \"#utility.yul\":39575:39638   */\n      tag_788\n        /* \"#utility.yul\":39630:39637   */\n      dup9\n        /* \"#utility.yul\":39621:39627   */\n      dup3\n        /* \"#utility.yul\":39610:39619   */\n      dup10\n        /* \"#utility.yul\":39606:39628   */\n      add\n        /* \"#utility.yul\":39575:39638   */\n      tag_424\n      jump\t// in\n    tag_788:\n        /* \"#utility.yul\":39565:39638   */\n      swap2\n      pop\n        /* \"#utility.yul\":39519:39648   */\n      pop\n        /* \"#utility.yul\":38684:39655   */\n      swap3\n      swap6\n      pop\n      swap3\n      swap6\n      swap1\n      swap4\n      pop\n      jump\t// out\n        /* \"#utility.yul\":39661:39779   */\n    tag_429:\n        /* \"#utility.yul\":39732:39754   */\n      tag_790\n        /* \"#utility.yul\":39748:39753   */\n      dup2\n        /* \"#utility.yul\":39732:39754   */\n      tag_373\n      jump\t// in\n    tag_790:\n        /* \"#utility.yul\":39725:39730   */\n      dup2\n        /* \"#utility.yul\":39722:39755   */\n      eq\n        /* \"#utility.yul\":39712:39773   */\n      tag_791\n      jumpi\n        /* \"#utility.yul\":39769:39770   */\n      0x00\n        /* \"#utility.yul\":39766:39767   */\n      0x00\n        /* \"#utility.yul\":39759:39771   */\n      revert\n        /* \"#utility.yul\":39712:39773   */\n    tag_791:\n        /* \"#utility.yul\":39661:39779   */\n      pop\n      jump\t// out\n        /* \"#utility.yul\":39785:39924   */\n    tag_430:\n        /* \"#utility.yul\":39840:39845   */\n      0x00\n        /* \"#utility.yul\":39871:39877   */\n      dup2\n        /* \"#utility.yul\":39865:39878   */\n      mload\n        /* \"#utility.yul\":39856:39878   */\n      swap1\n      pop\n        /* \"#utility.yul\":39887:39918   */\n      tag_793\n        /* \"#utility.yul\":39912:39917   */\n      dup2\n        /* \"#utility.yul\":39887:39918   */\n      tag_429\n      jump\t// in\n    tag_793:\n        /* \"#utility.yul\":39785:39924   */\n      swap3\n      swap2\n      pop\n      pop\n      jump\t// out\n        /* \"#utility.yul\":39930:40277   */\n    tag_277:\n        /* \"#utility.yul\":39998:40004   */\n      0x00\n        /* \"#utility.yul\":40047:40049   */\n      0x20\n        /* \"#utility.yul\":40035:40044   */\n      dup3\n        /* \"#utility.yul\":40026:40033   */\n      dup5\n        /* \"#utility.yul\":40022:40045   */\n      sub\n        /* \"#utility.yul\":40018:40050   */\n      slt\n        /* \"#utility.yul\":40015:40134   */\n      iszero\n      tag_795\n      jumpi\n        /* \"#utility.yul\":40053:40132   */\n      tag_796\n      tag_337\n      jump\t// in\n    tag_796:\n        /* \"#utility.yul\":40015:40134   */\n    tag_795:\n        /* \"#utility.yul\":40173:40174   */\n      0x00\n        /* \"#utility.yul\":40198:40260   */\n      tag_797\n        /* \"#utility.yul\":40252:40259   */\n      dup5\n        /* \"#utility.yul\":40243:40249   */\n      dup3\n        /* \"#utility.yul\":40232:40241   */\n      dup6\n        /* \"#utility.yul\":40228:40250   */\n      add\n        /* \"#utility.yul\":40198:40260   */\n      tag_430\n      jump\t// in\n    tag_797:\n        /* \"#utility.yul\":40188:40260   */\n      swap2\n      pop\n        /* \"#utility.yul\":40144:40270   */\n      pop\n        /* \"#utility.yul\":39930:40277   */\n      swap3\n      swap2\n      pop\n      pop\n      jump\t// out\n        /* \"#utility.yul\":40283:40385   */\n    tag_431:\n        /* \"#utility.yul\":40325:40333   */\n      0x00\n        /* \"#utility.yul\":40372:40377   */\n      dup2\n        /* \"#utility.yul\":40369:40370   */\n      0x01\n        /* \"#utility.yul\":40365:40378   */\n      shr\n        /* \"#utility.yul\":40344:40378   */\n      swap1\n      pop\n        /* \"#utility.yul\":40283:40385   */\n      swap2\n      swap1\n      pop\n      jump\t// out\n        /* \"#utility.yul\":40391:41239   */\n    tag_432:\n        /* \"#utility.yul\":40452:40457   */\n      0x00\n        /* \"#utility.yul\":40459:40463   */\n      0x00\n        /* \"#utility.yul\":40483:40489   */\n      dup3\n        /* \"#utility.yul\":40474:40489   */\n      swap2\n      pop\n        /* \"#utility.yul\":40507:40512   */\n      dup4\n        /* \"#utility.yul\":40498:40512   */\n      swap1\n      pop\n        /* \"#utility.yul\":40521:41233   */\n    tag_800:\n        /* \"#utility.yul\":40542:40543   */\n      0x01\n        /* \"#utility.yul\":40532:40540   */\n      dup6\n        /* \"#utility.yul\":40529:40544   */\n      gt\n        /* \"#utility.yul\":40521:41233   */\n      iszero\n      tag_802\n      jumpi\n        /* \"#utility.yul\":40637:40641   */\n      dup1\n        /* \"#utility.yul\":40632:40635   */\n      dup7\n        /* \"#utility.yul\":40628:40642   */\n      div\n        /* \"#utility.yul\":40622:40626   */\n      dup2\n        /* \"#utility.yul\":40619:40643   */\n      gt\n        /* \"#utility.yul\":40616:40666   */\n      iszero\n      tag_803\n      jumpi\n        /* \"#utility.yul\":40646:40664   */\n      tag_804\n      tag_378\n      jump\t// in\n    tag_804:\n        /* \"#utility.yul\":40616:40666   */\n    tag_803:\n        /* \"#utility.yul\":40696:40697   */\n      0x01\n        /* \"#utility.yul\":40686:40694   */\n      dup6\n        /* \"#utility.yul\":40682:40698   */\n      and\n        /* \"#utility.yul\":40679:41130   */\n      iszero\n      tag_805\n      jumpi\n        /* \"#utility.yul\":41111:41115   */\n      dup1\n        /* \"#utility.yul\":41104:41109   */\n      dup3\n        /* \"#utility.yul\":41100:41116   */\n      mul\n        /* \"#utility.yul\":41091:41116   */\n      swap2\n      pop\n        /* \"#utility.yul\":40679:41130   */\n    tag_805:\n        /* \"#utility.yul\":41161:41165   */\n      dup1\n        /* \"#utility.yul\":41155:41159   */\n      dup2\n        /* \"#utility.yul\":41151:41166   */\n      mul\n        /* \"#utility.yul\":41143:41166   */\n      swap1\n      pop\n        /* \"#utility.yul\":41191:41223   */\n      tag_806\n        /* \"#utility.yul\":41214:41222   */\n      dup6\n        /* \"#utility.yul\":41191:41223   */\n      tag_431\n      jump\t// in\n    tag_806:\n        /* \"#utility.yul\":41179:41223   */\n      swap5\n      pop\n        /* \"#utility.yul\":40521:41233   */\n      jump(tag_800)\n    tag_802:\n        /* \"#utility.yul\":40391:41239   */\n      swap5\n      pop\n      swap5\n      swap3\n      pop\n      pop\n      pop\n      jump\t// out\n        /* \"#utility.yul\":41245:42318   */\n    tag_433:\n        /* \"#utility.yul\":41299:41304   */\n      0x00\n        /* \"#utility.yul\":41490:41498   */\n      dup3\n        /* \"#utility.yul\":41480:41520   */\n      tag_808\n      jumpi\n        /* \"#utility.yul\":41511:41512   */\n      0x01\n        /* \"#utility.yul\":41502:41512   */\n      swap1\n      pop\n        /* \"#utility.yul\":41513:41518   */\n      jump(tag_807)\n        /* \"#utility.yul\":41480:41520   */\n    tag_808:\n        /* \"#utility.yul\":41539:41543   */\n      dup2\n        /* \"#utility.yul\":41529:41565   */\n      tag_809\n      jumpi\n        /* \"#utility.yul\":41556:41557   */\n      0x00\n        /* \"#utility.yul\":41547:41557   */\n      swap1\n      pop\n        /* \"#utility.yul\":41558:41563   */\n      jump(tag_807)\n        /* \"#utility.yul\":41529:41565   */\n    tag_809:\n        /* \"#utility.yul\":41625:41629   */\n      dup2\n        /* \"#utility.yul\":41673:41674   */\n      0x01\n        /* \"#utility.yul\":41668:41695   */\n      dup2\n      eq\n      tag_811\n      jumpi\n        /* \"#utility.yul\":41709:41710   */\n      0x02\n        /* \"#utility.yul\":41704:41895   */\n      dup2\n      eq\n      tag_812\n      jumpi\n        /* \"#utility.yul\":41618:41895   */\n      jump(tag_810)\n        /* \"#utility.yul\":41668:41695   */\n    tag_811:\n        /* \"#utility.yul\":41686:41687   */\n      0x01\n        /* \"#utility.yul\":41677:41687   */\n      swap2\n      pop\n        /* \"#utility.yul\":41688:41693   */\n      pop\n      jump(tag_807)\n        /* \"#utility.yul\":41704:41895   */\n    tag_812:\n        /* \"#utility.yul\":41749:41752   */\n      0xff\n        /* \"#utility.yul\":41739:41747   */\n      dup5\n        /* \"#utility.yul\":41736:41753   */\n      gt\n        /* \"#utility.yul\":41733:41776   */\n      iszero\n      tag_813\n      jumpi\n        /* \"#utility.yul\":41756:41774   */\n      tag_814\n      tag_378\n      jump\t// in\n    tag_814:\n        /* \"#utility.yul\":41733:41776   */\n    tag_813:\n        /* \"#utility.yul\":41805:41813   */\n      dup4\n        /* \"#utility.yul\":41802:41803   */\n      0x02\n        /* \"#utility.yul\":41798:41814   */\n      exp\n        /* \"#utility.yul\":41789:41814   */\n      swap2\n      pop\n        /* \"#utility.yul\":41840:41843   */\n      dup5\n        /* \"#utility.yul\":41833:41838   */\n      dup3\n        /* \"#utility.yul\":41830:41844   */\n      gt\n        /* \"#utility.yul\":41827:41867   */\n      iszero\n      tag_815\n      jumpi\n        /* \"#utility.yul\":41847:41865   */\n      tag_816\n      tag_378\n      jump\t// in\n    tag_816:\n        /* \"#utility.yul\":41827:41867   */\n    tag_815:\n        /* \"#utility.yul\":41880:41885   */\n      pop\n      jump(tag_807)\n        /* \"#utility.yul\":41618:41895   */\n    tag_810:\n      pop\n        /* \"#utility.yul\":42004:42006   */\n      0x20\n        /* \"#utility.yul\":41994:42002   */\n      dup4\n        /* \"#utility.yul\":41991:42007   */\n      lt\n        /* \"#utility.yul\":41985:41988   */\n      0x0133\n        /* \"#utility.yul\":41979:41983   */\n      dup4\n        /* \"#utility.yul\":41976:41989   */\n      lt\n        /* \"#utility.yul\":41972:42008   */\n      and\n        /* \"#utility.yul\":41954:41956   */\n      0x4e\n        /* \"#utility.yul\":41944:41952   */\n      dup5\n        /* \"#utility.yul\":41941:41957   */\n      lt\n        /* \"#utility.yul\":41936:41938   */\n      0x0b\n        /* \"#utility.yul\":41930:41934   */\n      dup5\n        /* \"#utility.yul\":41927:41939   */\n      lt\n        /* \"#utility.yul\":41923:41958   */\n      and\n        /* \"#utility.yul\":41907:42018   */\n      or\n        /* \"#utility.yul\":41904:42150   */\n      iszero\n      tag_817\n      jumpi\n        /* \"#utility.yul\":42060:42068   */\n      dup3\n        /* \"#utility.yul\":42054:42058   */\n      dup3\n        /* \"#utility.yul\":42050:42069   */\n      exp\n        /* \"#utility.yul\":42041:42069   */\n      swap1\n      pop\n        /* \"#utility.yul\":42095:42098   */\n      dup4\n        /* \"#utility.yul\":42088:42093   */\n      dup2\n        /* \"#utility.yul\":42085:42099   */\n      gt\n        /* \"#utility.yul\":42082:42122   */\n      iszero\n      tag_818\n      jumpi\n        /* \"#utility.yul\":42102:42120   */\n      tag_819\n      tag_378\n      jump\t// in\n    tag_819:\n        /* \"#utility.yul\":42082:42122   */\n    tag_818:\n        /* \"#utility.yul\":42135:42140   */\n      jump(tag_807)\n        /* \"#utility.yul\":41904:42150   */\n    tag_817:\n        /* \"#utility.yul\":42175:42217   */\n      tag_820\n        /* \"#utility.yul\":42213:42216   */\n      dup5\n        /* \"#utility.yul\":42203:42211   */\n      dup5\n        /* \"#utility.yul\":42197:42201   */\n      dup5\n        /* \"#utility.yul\":42194:42195   */\n      0x01\n        /* \"#utility.yul\":42175:42217   */\n      tag_432\n      jump\t// in\n    tag_820:\n        /* \"#utility.yul\":42160:42217   */\n      swap3\n      pop\n      swap1\n      pop\n        /* \"#utility.yul\":42249:42253   */\n      dup2\n        /* \"#utility.yul\":42244:42247   */\n      dup5\n        /* \"#utility.yul\":42240:42254   */\n      div\n        /* \"#utility.yul\":42233:42238   */\n      dup2\n        /* \"#utility.yul\":42230:42255   */\n      gt\n        /* \"#utility.yul\":42227:42278   */\n      iszero\n      tag_821\n      jumpi\n        /* \"#utility.yul\":42258:42276   */\n      tag_822\n      tag_378\n      jump\t// in\n    tag_822:\n        /* \"#utility.yul\":42227:42278   */\n    tag_821:\n        /* \"#utility.yul\":42307:42311   */\n      dup2\n        /* \"#utility.yul\":42300:42305   */\n      dup2\n        /* \"#utility.yul\":42296:42312   */\n      mul\n        /* \"#utility.yul\":42287:42312   */\n      swap1\n      pop\n        /* \"#utility.yul\":41245:42318   */\n    tag_807:\n      swap4\n      swap3\n      pop\n      pop\n      pop\n      jump\t// out\n        /* \"#utility.yul\":42324:42605   */\n    tag_279:\n        /* \"#utility.yul\":42382:42387   */\n      0x00\n        /* \"#utility.yul\":42406:42429   */\n      tag_824\n        /* \"#utility.yul\":42424:42428   */\n      dup3\n        /* \"#utility.yul\":42406:42429   */\n      tag_355\n      jump\t// in\n    tag_824:\n        /* \"#utility.yul\":42398:42429   */\n      swap2\n      pop\n        /* \"#utility.yul\":42450:42475   */\n      tag_825\n        /* \"#utility.yul\":42466:42474   */\n      dup4\n        /* \"#utility.yul\":42450:42475   */\n      tag_373\n      jump\t// in\n    tag_825:\n        /* \"#utility.yul\":42438:42475   */\n      swap3\n      pop\n        /* \"#utility.yul\":42494:42598   */\n      tag_826\n        /* \"#utility.yul\":42531:42597   */\n      0xffffffffffffffffffffffffffffffffffffffffffffffffffffffffffffffff\n        /* \"#utility.yul\":42521:42529   */\n      dup5\n        /* \"#utility.yul\":42515:42519   */\n      dup5\n        /* \"#utility.yul\":42494:42598   */\n      tag_433\n      jump\t// in\n    tag_826:\n        /* \"#utility.yul\":42485:42598   */\n      swap1\n      pop\n        /* \"#utility.yul\":42324:42605   */\n      swap3\n      swap2\n      pop\n      pop\n      jump\t// out\n        /* \"#utility.yul\":42611:43021   */\n    tag_281:\n        /* \"#utility.yul\":42651:42658   */\n      0x00\n        /* \"#utility.yul\":42674:42694   */\n      tag_828\n        /* \"#utility.yul\":42692:42693   */\n      dup3\n        /* \"#utility.yul\":42674:42694   */\n      tag_355\n      jump\t// in\n    tag_828:\n        /* \"#utility.yul\":42669:42694   */\n      swap2\n      pop\n        /* \"#utility.yul\":42708:42728   */\n      tag_829\n        /* \"#utility.yul\":42726:42727   */\n      dup4\n        /* \"#utility.yul\":42708:42728   */\n      tag_355\n      jump\t// in\n    tag_829:\n        /* \"#utility.yul\":42703:42728   */\n      swap3\n      pop\n        /* \"#utility.yul\":42763:42764   */\n      dup3\n        /* \"#utility.yul\":42760:42761   */\n      dup3\n        /* \"#utility.yul\":42756:42765   */\n      mul\n        /* \"#utility.yul\":42785:42815   */\n      tag_830\n        /* \"#utility.yul\":42803:42814   */\n      dup2\n        /* \"#utility.yul\":42785:42815   */\n      tag_355\n      jump\t// in\n    tag_830:\n        /* \"#utility.yul\":42774:42815   */\n      swap2\n      pop\n        /* \"#utility.yul\":42964:42965   */\n      dup3\n        /* \"#utility.yul\":42955:42962   */\n      dup3\n        /* \"#utility.yul\":42951:42966   */\n      div\n        /* \"#utility.yul\":42948:42949   */\n      dup5\n        /* \"#utility.yul\":42945:42967   */\n      eq\n        /* \"#utility.yul\":42925:42926   */\n      dup4\n        /* \"#utility.yul\":42918:42927   */\n      iszero\n        /* \"#utility.yul\":42898:42981   */\n      or\n        /* \"#utility.yul\":42875:43014   */\n      tag_831\n      jumpi\n        /* \"#utility.yul\":42994:43012   */\n      tag_832\n      tag_378\n      jump\t// in\n    tag_832:\n        /* \"#utility.yul\":42875:43014   */\n    tag_831:\n        /* \"#utility.yul\":42659:43021   */\n      pop\n        /* \"#utility.yul\":42611:43021   */\n      swap3\n      swap2\n      pop\n      pop\n      jump\t// out\n        /* \"#utility.yul\":43027:43207   */\n    tag_434:\n        /* \"#utility.yul\":43075:43152   */\n      0x4e487b7100000000000000000000000000000000000000000000000000000000\n        /* \"#utility.yul\":43072:43073   */\n      0x00\n        /* \"#utility.yul\":43065:43153   */\n      mstore\n        /* \"#utility.yul\":43172:43176   */\n      0x12\n        /* \"#utility.yul\":43169:43170   */\n      0x04\n        /* \"#utility.yul\":43162:43177   */\n      mstore\n        /* \"#utility.yul\":43196:43200   */\n      0x24\n        /* \"#utility.yul\":43193:43194   */\n      0x00\n        /* \"#utility.yul\":43186:43201   */\n      revert\n        /* \"#utility.yul\":43213:43398   */\n    tag_283:\n        /* \"#utility.yul\":43253:43254   */\n      0x00\n        /* \"#utility.yul\":43270:43290   */\n      tag_835\n        /* \"#utility.yul\":43288:43289   */\n      dup3\n        /* \"#utility.yul\":43270:43290   */\n      tag_355\n      jump\t// in\n    tag_835:\n        /* \"#utility.yul\":43265:43290   */\n      swap2\n      pop\n        /* \"#utility.yul\":43304:43324   */\n      tag_836\n        /* \"#utility.yul\":43322:43323   */\n      dup4\n        /* \"#utility.yul\":43304:43324   */\n      tag_355\n      jump\t// in\n    tag_836:\n        /* \"#utility.yul\":43299:43324   */\n      swap3\n      pop\n        /* \"#utility.yul\":43343:43344   */\n      dup3\n        /* \"#utility.yul\":43333:43368   */\n      tag_837\n      jumpi\n        /* \"#utility.yul\":43348:43366   */\n      tag_838\n      tag_434\n      jump\t// in\n    tag_838:\n        /* \"#utility.yul\":43333:43368   */\n    tag_837:\n        /* \"#utility.yul\":43390:43391   */\n      dup3\n        /* \"#utility.yul\":43387:43388   */\n      dup3\n        /* \"#utility.yul\":43383:43392   */\n      div\n        /* \"#utility.yul\":43378:43392   */\n      swap1\n      pop\n        /* \"#utility.yul\":43213:43398   */\n      swap3\n      swap2\n      pop\n      pop\n      jump\t// out\n        /* \"#utility.yul\":43472:43819   */\n    tag_435:\n        /* \"#utility.yul\":43629:43633   */\n      0x20\n        /* \"#utility.yul\":43624:43627   */\n      dup3\n        /* \"#utility.yul\":43620:43634   */\n      add\n        /* \"#utility.yul\":43720:43724   */\n      0x00\n        /* \"#utility.yul\":43713:43718   */\n      dup3\n        /* \"#utility.yul\":43709:43725   */\n      add\n        /* \"#utility.yul\":43703:43726   */\n      mload\n        /* \"#utility.yul\":43739:43802   */\n      tag_840\n        /* \"#utility.yul\":43796:43800   */\n      0x00\n        /* \"#utility.yul\":43791:43794   */\n      dup6\n        /* \"#utility.yul\":43787:43801   */\n      add\n        /* \"#utility.yul\":43773:43785   */\n      dup3\n        /* \"#utility.yul\":43739:43802   */\n      tag_402\n      jump\t// in\n    tag_840:\n        /* \"#utility.yul\":43644:43812   */\n      pop\n        /* \"#utility.yul\":43598:43819   */\n      pop\n        /* \"#utility.yul\":43472:43819   */\n      pop\n      pop\n      jump\t// out\n        /* \"#utility.yul\":43825:44167   */\n    tag_286:\n        /* \"#utility.yul\":43978:43982   */\n      0x00\n        /* \"#utility.yul\":44016:44018   */\n      0x20\n        /* \"#utility.yul\":44005:44014   */\n      dup3\n        /* \"#utility.yul\":44001:44019   */\n      add\n        /* \"#utility.yul\":43993:44019   */\n      swap1\n      pop\n        /* \"#utility.yul\":44029:44160   */\n      tag_842\n        /* \"#utility.yul\":44157:44158   */\n      0x00\n        /* \"#utility.yul\":44146:44155   */\n      dup4\n        /* \"#utility.yul\":44142:44159   */\n      add\n        /* \"#utility.yul\":44133:44139   */\n      dup5\n        /* \"#utility.yul\":44029:44160   */\n      tag_435\n      jump\t// in\n    tag_842:\n        /* \"#utility.yul\":43825:44167   */\n      swap3\n      swap2\n      pop\n      pop\n      jump\t// out\n        /* \"#utility.yul\":44173:44405   */\n    tag_436:\n        /* \"#utility.yul\":44313:44347   */\n      0x455243313936373a206e657720696d706c656d656e746174696f6e206973206e\n        /* \"#utility.yul\":44309:44310   */\n      0x00\n        /* \"#utility.yul\":44301:44307   */\n      dup3\n        /* \"#utility.yul\":44297:44311   */\n      add\n        /* \"#utility.yul\":44290:44348   */\n      mstore\n        /* \"#utility.yul\":44382:44397   */\n      0x6f74206120636f6e747261637400000000000000000000000000000000000000\n        /* \"#utility.yul\":44377:44379   */\n      0x20\n        /* \"#utility.yul\":44369:44375   */\n      dup3\n        /* \"#utility.yul\":44365:44380   */\n      add\n        /* \"#utility.yul\":44358:44398   */\n      mstore\n        /* \"#utility.yul\":44173:44405   */\n      pop\n      jump\t// out\n        /* \"#utility.yul\":44411:44777   */\n    tag_437:\n        /* \"#utility.yul\":44553:44556   */\n      0x00\n        /* \"#utility.yul\":44574:44641   */\n      tag_845\n        /* \"#utility.yul\":44638:44640   */\n      0x2d\n        /* \"#utility.yul\":44633:44636   */\n      dup4\n        /* \"#utility.yul\":44574:44641   */\n      tag_365\n      jump\t// in\n    tag_845:\n        /* \"#utility.yul\":44567:44641   */\n      swap2\n      pop\n        /* \"#utility.yul\":44650:44743   */\n      tag_846\n        /* \"#utility.yul\":44739:44742   */\n      dup3\n        /* \"#utility.yul\":44650:44743   */\n      tag_436\n      jump\t// in\n    tag_846:\n        /* \"#utility.yul\":44768:44770   */\n      0x40\n        /* \"#utility.yul\":44763:44766   */\n      dup3\n        /* \"#utility.yul\":44759:44771   */\n      add\n        /* \"#utility.yul\":44752:44771   */\n      swap1\n      pop\n        /* \"#utility.yul\":44411:44777   */\n      swap2\n      swap1\n      pop\n      jump\t// out\n        /* \"#utility.yul\":44783:45202   */\n    tag_293:\n        /* \"#utility.yul\":44949:44953   */\n      0x00\n        /* \"#utility.yul\":44987:44989   */\n      0x20\n        /* \"#utility.yul\":44976:44985   */\n      dup3\n        /* \"#utility.yul\":44972:44990   */\n      add\n        /* \"#utility.yul\":44964:44990   */\n      swap1\n      pop\n        /* \"#utility.yul\":45036:45045   */\n      dup2\n        /* \"#utility.yul\":45030:45034   */\n      dup2\n        /* \"#utility.yul\":45026:45046   */\n      sub\n        /* \"#utility.yul\":45022:45023   */\n      0x00\n        /* \"#utility.yul\":45011:45020   */\n      dup4\n        /* \"#utility.yul\":45007:45024   */\n      add\n        /* \"#utility.yul\":45000:45047   */\n      mstore\n        /* \"#utility.yul\":45064:45195   */\n      tag_848\n        /* \"#utility.yul\":45190:45194   */\n      dup2\n        /* \"#utility.yul\":45064:45195   */\n      tag_437\n      jump\t// in\n    tag_848:\n        /* \"#utility.yul\":45056:45195   */\n      swap1\n      pop\n        /* \"#utility.yul\":44783:45202   */\n      swap2\n      swap1\n      pop\n      jump\t// out\n        /* \"#utility.yul\":45208:45355   */\n    tag_438:\n        /* \"#utility.yul\":45309:45320   */\n      0x00\n        /* \"#utility.yul\":45346:45349   */\n      dup2\n        /* \"#utility.yul\":45331:45349   */\n      swap1\n      pop\n        /* \"#utility.yul\":45208:45355   */\n      swap3\n      swap2\n      pop\n      pop\n      jump\t// out\n        /* \"#utility.yul\":45361:45747   */\n    tag_439:\n        /* \"#utility.yul\":45465:45468   */\n      0x00\n        /* \"#utility.yul\":45493:45531   */\n      tag_851\n        /* \"#utility.yul\":45525:45530   */\n      dup3\n        /* \"#utility.yul\":45493:45531   */\n      tag_394\n      jump\t// in\n    tag_851:\n        /* \"#utility.yul\":45547:45635   */\n      tag_852\n        /* \"#utility.yul\":45628:45634   */\n      dup2\n        /* \"#utility.yul\":45623:45626   */\n      dup6\n        /* \"#utility.yul\":45547:45635   */\n      tag_438\n      jump\t// in\n    tag_852:\n        /* \"#utility.yul\":45540:45635   */\n      swap4\n      pop\n        /* \"#utility.yul\":45644:45709   */\n      tag_853\n        /* \"#utility.yul\":45702:45708   */\n      dup2\n        /* \"#utility.yul\":45697:45700   */\n      dup6\n        /* \"#utility.yul\":45690:45694   */\n      0x20\n        /* \"#utility.yul\":45683:45688   */\n      dup7\n        /* \"#utility.yul\":45679:45695   */\n      add\n        /* \"#utility.yul\":45644:45709   */\n      tag_396\n      jump\t// in\n    tag_853:\n        /* \"#utility.yul\":45734:45740   */\n      dup1\n        /* \"#utility.yul\":45729:45732   */\n      dup5\n        /* \"#utility.yul\":45725:45741   */\n      add\n        /* \"#utility.yul\":45718:45741   */\n      swap2\n      pop\n        /* \"#utility.yul\":45469:45747   */\n      pop\n        /* \"#utility.yul\":45361:45747   */\n      swap3\n      swap2\n      pop\n      pop\n      jump\t// out\n        /* \"#utility.yul\":45753:46024   */\n    tag_309:\n        /* \"#utility.yul\":45883:45886   */\n      0x00\n        /* \"#utility.yul\":45905:45998   */\n      tag_855\n        /* \"#utility.yul\":45994:45997   */\n      dup3\n        /* \"#utility.yul\":45985:45991   */\n      dup5\n        /* \"#utility.yul\":45905:45998   */\n      tag_439\n      jump\t// in\n    tag_855:\n        /* \"#utility.yul\":45898:45998   */\n      swap2\n      pop\n        /* \"#utility.yul\":46015:46018   */\n      dup2\n        /* \"#utility.yul\":46008:46018   */\n      swap1\n      pop\n        /* \"#utility.yul\":45753:46024   */\n      swap3\n      swap2\n      pop\n      pop\n      jump\t// out\n        /* \"#utility.yul\":46030:46209   */\n    tag_440:\n        /* \"#utility.yul\":46170:46201   */\n      0x416464726573733a2063616c6c20746f206e6f6e2d636f6e7472616374000000\n        /* \"#utility.yul\":46166:46167   */\n      0x00\n        /* \"#utility.yul\":46158:46164   */\n      dup3\n        /* \"#utility.yul\":46154:46168   */\n      add\n        /* \"#utility.yul\":46147:46202   */\n      mstore\n        /* \"#utility.yul\":46030:46209   */\n      pop\n      jump\t// out\n        /* \"#utility.yul\":46215:46581   */\n    tag_441:\n        /* \"#utility.yul\":46357:46360   */\n      0x00\n        /* \"#utility.yul\":46378:46445   */\n      tag_858\n        /* \"#utility.yul\":46442:46444   */\n      0x1d\n        /* \"#utility.yul\":46437:46440   */\n      dup4\n        /* \"#utility.yul\":46378:46445   */\n      tag_365\n      jump\t// in\n    tag_858:\n        /* \"#utility.yul\":46371:46445   */\n      swap2\n      pop\n        /* \"#utility.yul\":46454:46547   */\n      tag_859\n        /* \"#utility.yul\":46543:46546   */\n      dup3\n        /* \"#utility.yul\":46454:46547   */\n      tag_440\n      jump\t// in\n    tag_859:\n        /* \"#utility.yul\":46572:46574   */\n      0x20\n        /* \"#utility.yul\":46567:46570   */\n      dup3\n        /* \"#utility.yul\":46563:46575   */\n      add\n        /* \"#utility.yul\":46556:46575   */\n      swap1\n      pop\n        /* \"#utility.yul\":46215:46581   */\n      swap2\n      swap1\n      pop\n      jump\t// out\n        /* \"#utility.yul\":46587:47006   */\n    tag_321:\n        /* \"#utility.yul\":46753:46757   */\n      0x00\n        /* \"#utility.yul\":46791:46793   */\n      0x20\n        /* \"#utility.yul\":46780:46789   */\n      dup3\n        /* \"#utility.yul\":46776:46794   */\n      add\n        /* \"#utility.yul\":46768:46794   */\n      swap1\n      pop\n        /* \"#utility.yul\":46840:46849   */\n      dup2\n        /* \"#utility.yul\":46834:46838   */\n      dup2\n        /* \"#utility.yul\":46830:46850   */\n      sub\n        /* \"#utility.yul\":46826:46827   */\n      0x00\n        /* \"#utility.yul\":46815:46824   */\n      dup4\n        /* \"#utility.yul\":46811:46828   */\n      add\n        /* \"#utility.yul\":46804:46851   */\n      mstore\n        /* \"#utility.yul\":46868:46999   */\n      tag_861\n        /* \"#utility.yul\":46994:46998   */\n      dup2\n        /* \"#utility.yul\":46868:46999   */\n      tag_441\n      jump\t// in\n    tag_861:\n        /* \"#utility.yul\":46860:46999   */\n      swap1\n      pop\n        /* \"#utility.yul\":46587:47006   */\n      swap2\n      swap1\n      pop\n      jump\t// out\n        /* \"#utility.yul\":47012:47111   */\n    tag_442:\n        /* \"#utility.yul\":47064:47070   */\n      0x00\n        /* \"#utility.yul\":47098:47103   */\n      dup2\n        /* \"#utility.yul\":47092:47104   */\n      mload\n        /* \"#utility.yul\":47082:47104   */\n      swap1\n      pop\n        /* \"#utility.yul\":47012:47111   */\n      swap2\n      swap1\n      pop\n      jump\t// out\n        /* \"#utility.yul\":47117:47494   */\n    tag_443:\n        /* \"#utility.yul\":47205:47208   */\n      0x00\n        /* \"#utility.yul\":47233:47272   */\n      tag_864\n        /* \"#utility.yul\":47266:47271   */\n      dup3\n        /* \"#utility.yul\":47233:47272   */\n      tag_442\n      jump\t// in\n    tag_864:\n        /* \"#utility.yul\":47288:47359   */\n      tag_865\n        /* \"#utility.yul\":47352:47358   */\n      dup2\n        /* \"#utility.yul\":47347:47350   */\n      dup6\n        /* \"#utility.yul\":47288:47359   */\n      tag_365\n      jump\t// in\n    tag_865:\n        /* \"#utility.yul\":47281:47359   */\n      swap4\n      pop\n        /* \"#utility.yul\":47368:47433   */\n      tag_866\n        /* \"#utility.yul\":47426:47432   */\n      dup2\n        /* \"#utility.yul\":47421:47424   */\n      dup6\n        /* \"#utility.yul\":47414:47418   */\n      0x20\n        /* \"#utility.yul\":47407:47412   */\n      dup7\n        /* \"#utility.yul\":47403:47419   */\n      add\n        /* \"#utility.yul\":47368:47433   */\n      tag_396\n      jump\t// in\n    tag_866:\n        /* \"#utility.yul\":47458:47487   */\n      tag_867\n        /* \"#utility.yul\":47480:47486   */\n      dup2\n        /* \"#utility.yul\":47458:47487   */\n      tag_344\n      jump\t// in\n    tag_867:\n        /* \"#utility.yul\":47453:47456   */\n      dup5\n        /* \"#utility.yul\":47449:47488   */\n      add\n        /* \"#utility.yul\":47442:47488   */\n      swap2\n      pop\n        /* \"#utility.yul\":47209:47494   */\n      pop\n        /* \"#utility.yul\":47117:47494   */\n      swap3\n      swap2\n      pop\n      pop\n      jump\t// out\n        /* \"#utility.yul\":47500:47813   */\n    tag_329:\n        /* \"#utility.yul\":47613:47617   */\n      0x00\n        /* \"#utility.yul\":47651:47653   */\n      0x20\n        /* \"#utility.yul\":47640:47649   */\n      dup3\n        /* \"#utility.yul\":47636:47654   */\n      add\n        /* \"#utility.yul\":47628:47654   */\n      swap1\n      pop\n        /* \"#utility.yul\":47700:47709   */\n      dup2\n        /* \"#utility.yul\":47694:47698   */\n      dup2\n        /* \"#utility.yul\":47690:47710   */\n      sub\n        /* \"#utility.yul\":47686:47687   */\n      0x00\n        /* \"#utility.yul\":47675:47684   */\n      dup4\n        /* \"#utility.yul\":47671:47688   */\n      add\n        /* \"#utility.yul\":47664:47711   */\n      mstore\n        /* \"#utility.yul\":47728:47806   */\n      tag_869\n        /* \"#utility.yul\":47801:47805   */\n      dup2\n        /* \"#utility.yul\":47792:47798   */\n      dup5\n        /* \"#utility.yul\":47728:47806   */\n      tag_443\n      jump\t// in\n    tag_869:\n        /* \"#utility.yul\":47720:47806   */\n      swap1\n      pop\n        /* \"#utility.yul\":47500:47813   */\n      swap3\n      swap2\n      pop\n      pop\n      jump\t// out\n    stop\n    data_9fdcd12e4b726339b32a442b0a448365d5d85c96b2d2cff917b4f66c63110398 416464726573733a206c6f772d6c6576656c2064656c65676174652063616c6c206661696c6564\n\n    auxdata: 0xa264697066735822122078d2e1229ae146990ed077ea1372fb3bb75223e3430fb6a5de108a37bf38819a64736f6c634300081e0033\n}\n",
				"bytecode": {
					"linkReferences": {},
					"object": "60a06040523073ffffffffffffffffffffffffffffffffffffffff1660809073ffffffffffffffffffffffffffffffffffffffff16815250348015610042575f5ffd5b5060805161392b6100775f395f81816103810152818161040f01528181610703015281816107910152610840015261392b5ff3fe6080604052600436106100e7575f3560e01c8063ad6561ec11610089578063b9a2de3a11610058578063b9a2de3a14610299578063e8cd181f146102c1578063f851a44014610306578063fc52848214610330576100e7565b8063ad6561ec1461020f578063af7665ce1461022b578063b1cb48ef14610255578063b2703dc61461027d576100e7565b80634f1ef286116100c55780634f1ef2861461016557806352d1902d146101815780639dcb511a146101ab578063a48e3815146101e7576100e7565b80630de22984146100eb5780633659cfe614610115578063485cc9551461013d575b5f5ffd5b3480156100f6575f5ffd5b506100ff61035a565b60405161010c91906121c7565b60405180910390f35b348015610120575f5ffd5b5061013b6004803603810190610136919061222c565b61037f565b005b348015610148575f5ffd5b50610163600480360381019061015e9190612257565b610505565b005b61017f600480360381019061017a91906123d1565b610701565b005b34801561018c575f5ffd5b5061019561083d565b6040516101a29190612443565b60405180910390f35b3480156101b6575f5ffd5b506101d160048036038101906101cc919061222c565b6108f4565b6040516101de919061247c565b60405180910390f35b3480156101f2575f5ffd5b5061020d60048036038101906102089190612257565b610924565b005b610229600480360381019061022491906124c8565b6109a3565b005b348015610236575f5ffd5b5061023f610e97565b60405161024c919061247c565b60405180910390f35b348015610260575f5ffd5b5061027b60048036038101906102769190612518565b610ebc565b005b610297600480360381019061029291906125b9565b61122c565b005b3480156102a4575f5ffd5b506102bf60048036038101906102ba919061261d565b6114bd565b005b3480156102cc575f5ffd5b506102e760048036038101906102e2919061261d565b6118e9565b6040516102fd9a99989796959493929190612680565b60405180910390f35b348015610311575f5ffd5b5061031a6119c1565b604051610327919061271a565b60405180910390f35b34801561033b575f5ffd5b506103446119e6565b6040516103519190612733565b60405180910390f35b606a5f9054906101000a900473ffffffffffffffffffffffffffffffffffffffff1681565b7f000000000000000000000000000000000000000000000000000000000000000073ffffffffffffffffffffffffffffffffffffffff163073ffffffffffffffffffffffffffffffffffffffff160361040d576040517f08c379a0000000000000000000000000000000000000000000000000000000008152600401610404906127cc565b60405180910390fd5b7f000000000000000000000000000000000000000000000000000000000000000073ffffffffffffffffffffffffffffffffffffffff1661044c6119ec565b73ffffffffffffffffffffffffffffffffffffffff16146104a2576040517f08c379a00000000000000000000000000000000000000000000000000000000081526004016104999061285a565b60405180910390fd5b6104ab81611a3f565b610502815f67ffffffffffffffff8111156104c9576104c86122ad565b5b6040519080825280601f01601f1916602001820160405280156104fb5781602001600182028036833780820191505090505b505f611a42565b50565b5f5f60019054906101000a900460ff16159050808015610535575060015f5f9054906101000a900460ff1660ff16105b80610562575061054430611bac565b158015610561575060015f5f9054906101000a900460ff1660ff16145b5b6105a1576040517f08c379a0000000000000000000000000000000000000000000000000000000008152600401610598906128e8565b60405180910390fd5b60015f5f6101000a81548160ff021916908360ff16021790555080156105dc5760015f60016101000a81548160ff0219169083151502179055505b6105e4611bce565b3360665f6101000a81548173ffffffffffffffffffffffffffffffffffffffff021916908373ffffffffffffffffffffffffffffffffffffffff1602179055508160685f6101000a81548173ffffffffffffffffffffffffffffffffffffffff021916908373ffffffffffffffffffffffffffffffffffffffff16021790555082606a5f6101000a81548173ffffffffffffffffffffffffffffffffffffffff021916908373ffffffffffffffffffffffffffffffffffffffff16021790555080156106fc575f5f60016101000a81548160ff0219169083151502179055507f7f26b83ff96e1f2b6a682f133852f6798a09c465da95921460cefb384740249860016040516106f3919061294b565b60405180910390a15b505050565b7f000000000000000000000000000000000000000000000000000000000000000073ffffffffffffffffffffffffffffffffffffffff163073ffffffffffffffffffffffffffffffffffffffff160361078f576040517f08c379a0000000000000000000000000000000000000000000000000000000008152600401610786906127cc565b60405180910390fd5b7f000000000000000000000000000000000000000000000000000000000000000073ffffffffffffffffffffffffffffffffffffffff166107ce6119ec565b73ffffffffffffffffffffffffffffffffffffffff1614610824576040517f08c379a000000000000000000000000000000000000000000000000000000000815260040161081b9061285a565b60405180910390fd5b61082d82611a3f565b61083982826001611a42565b5050565b5f7f000000000000000000000000000000000000000000000000000000000000000073ffffffffffffffffffffffffffffffffffffffff163073ffffffffffffffffffffffffffffffffffffffff16146108cc576040517f08c379a00000000000000000000000000000000000000000000000000000000081526004016108c3906129d4565b60405180910390fd5b7f360894a13ba1a3210667c828492db98dca3e2076cc3735a920a3ca505d382bbc5f1b905090565b6069602052805f5260405f205f915054906101000a900473ffffffffffffffffffffffffffffffffffffffff1681565b8160695f8373ffffffffffffffffffffffffffffffffffffffff1673ffffffffffffffffffffffffffffffffffffffff1681526020019081526020015f205f6101000a81548173ffffffffffffffffffffffffffffffffffffffff021916908373ffffffffffffffffffffffffffffffffffffffff1602179055505050565b5f60655f8581526020019081526020015f209050806004015f9054906101000a900460ff161580156109e85750806003015481600201546109e49190612a1f565b4210155b610a27576040517f08c379a0000000000000000000000000000000000000000000000000000000008152600401610a1e90612a9c565b60405180910390fd5b5f610a328484611c1e565b90505f610a668360010154846009015f9054906101000a900473ffffffffffffffffffffffffffffffffffffffff16611c1e565b90505f610a9a8460050154856009015f9054906101000a900473ffffffffffffffffffffffffffffffffffffffff16611c1e565b9050818310158015610aab57508083115b610aea576040517f08c379a0000000000000000000000000000000000000000000000000000000008152600401610ae190612b04565b60405180910390fd5b5f73ffffffffffffffffffffffffffffffffffffffff168573ffffffffffffffffffffffffffffffffffffffff1603610b6457853414610b5f576040517f08c379a0000000000000000000000000000000000000000000000000000000008152600401610b5690612b6c565b60405180910390fd5b610be3565b8473ffffffffffffffffffffffffffffffffffffffff166323b872dd3330896040518463ffffffff1660e01b8152600401610ba193929190612b8a565b6020604051808303815f875af1158015610bbd573d5f5f3e3d5ffd5b505050506040513d601f19601f82011682018060405250810190610be19190612be9565b505b5f73ffffffffffffffffffffffffffffffffffffffff16846006015f9054906101000a900473ffffffffffffffffffffffffffffffffffffffff1673ffffffffffffffffffffffffffffffffffffffff1614610dc7575f73ffffffffffffffffffffffffffffffffffffffff16846009015f9054906101000a900473ffffffffffffffffffffffffffffffffffffffff1673ffffffffffffffffffffffffffffffffffffffff1603610cff57836006015f9054906101000a900473ffffffffffffffffffffffffffffffffffffffff1673ffffffffffffffffffffffffffffffffffffffff166108fc856005015490811502906040515f60405180830381858888f19350505050158015610cf9573d5f5f3e3d5ffd5b50610dc6565b836009015f9054906101000a900473ffffffffffffffffffffffffffffffffffffffff1673ffffffffffffffffffffffffffffffffffffffff1663a9059cbb856006015f9054906101000a900473ffffffffffffffffffffffffffffffffffffffff1686600501546040518363ffffffff1660e01b8152600401610d84929190612c14565b6020604051808303815f875af1158015610da0573d5f5f3e3d5ffd5b505050506040513d601f19601f82011682018060405250810190610dc49190612be9565b505b5b33846006015f6101000a81548173ffffffffffffffffffffffffffffffffffffffff021916908373ffffffffffffffffffffffffffffffffffffffff16021790555085846005018190555084846009015f6101000a81548173ffffffffffffffffffffffffffffffffffffffff021916908373ffffffffffffffffffffffffffffffffffffffff160217905550867f0e54eff26401bf69b81b26f60bd85ef47f5d85275c1d268d84f68d6897431c473388604051610e86929190612c14565b60405180910390a250505050505050565b60685f9054906101000a900473ffffffffffffffffffffffffffffffffffffffff1681565b6064841015610f00576040517f08c379a0000000000000000000000000000000000000000000000000000000008152600401610ef790612cab565b60405180910390fd5b5f8311610f42576040517f08c379a0000000000000000000000000000000000000000000000000000000008152600401610f3990612d39565b60405180910390fd5b8173ffffffffffffffffffffffffffffffffffffffff1663095ea7b330836040518363ffffffff1660e01b8152600401610f7d929190612c14565b5f604051808303815f87803b158015610f94575f5ffd5b505af1158015610fa6573d5f5f3e3d5ffd5b505050506040518061014001604052803373ffffffffffffffffffffffffffffffffffffffff1681526020018481526020014281526020018581526020015f151581526020015f81526020015f73ffffffffffffffffffffffffffffffffffffffff1681526020018373ffffffffffffffffffffffffffffffffffffffff1681526020018281526020015f73ffffffffffffffffffffffffffffffffffffffff1681525060655f60675481526020019081526020015f205f820151815f015f6101000a81548173ffffffffffffffffffffffffffffffffffffffff021916908373ffffffffffffffffffffffffffffffffffffffff1602179055506020820151816001015560408201518160020155606082015181600301556080820151816004015f6101000a81548160ff02191690831515021790555060a0820151816005015560c0820151816006015f6101000a81548173ffffffffffffffffffffffffffffffffffffffff021916908373ffffffffffffffffffffffffffffffffffffffff16021790555060e0820151816007015f6101000a81548173ffffffffffffffffffffffffffffffffffffffff021916908373ffffffffffffffffffffffffffffffffffffffff1602179055506101008201518160080155610120820151816009015f6101000a81548173ffffffffffffffffffffffffffffffffffffffff021916908373ffffffffffffffffffffffffffffffffffffffff1602179055509050503373ffffffffffffffffffffffffffffffffffffffff166067547f5d551e2a2cc977fd8c530317059b4f2d9f504fb82f7dfad736f8d56679bcdfd060405160405180910390a360675f81548092919061122190612d57565b919050555050505050565b5f73ffffffffffffffffffffffffffffffffffffffff16606a5f9054906101000a900473ffffffffffffffffffffffffffffffffffffffff1673ffffffffffffffffffffffffffffffffffffffff16036112bb576040517f08c379a00000000000000000000000000000000000000000000000000000000081526004016112b290612de8565b60405180910390fd5b5f6040518060a00160405280306040516020016112d8919061271a565b604051602081830303815290604052815260200185858560405160240161130193929190612e06565b6040516020818303038152906040527fad6561ec000000000000000000000000000000000000000000000000000000007bffffffffffffffffffffffffffffffffffffffffffffffffffffffff19166020820180517bffffffffffffffffffffffffffffffffffffffffffffffffffffffff838183161783525050505081526020015f67ffffffffffffffff81111561139d5761139c6122ad565b5b6040519080825280602002602001820160405280156113d657816020015b6113c361211f565b8152602001906001900390816113bb5790505b5081526020018373ffffffffffffffffffffffffffffffffffffffff168152602001611412604051806020016040528062030d40815250611dec565b8152509050606a5f9054906101000a900473ffffffffffffffffffffffffffffffffffffffff1673ffffffffffffffffffffffffffffffffffffffff166396f4e9f93487846040518463ffffffff1660e01b8152600401611474929190613025565b60206040518083038185885af1158015611490573d5f5f3e3d5ffd5b50505050506040513d601f19601f820116820180604052508101906114b5919061307d565b505050505050565b5f60655f8381526020019081526020015f209050805f015f9054906101000a900473ffffffffffffffffffffffffffffffffffffffff1673ffffffffffffffffffffffffffffffffffffffff163373ffffffffffffffffffffffffffffffffffffffff1614611561576040517f08c379a0000000000000000000000000000000000000000000000000000000008152600401611558906130f2565b60405180910390fd5b806003015481600201546115759190612a1f565b42116115b6576040517f08c379a00000000000000000000000000000000000000000000000000000000081526004016115ad9061315a565b60405180910390fd5b806004015f9054906101000a900460ff1615611607576040517f08c379a00000000000000000000000000000000000000000000000000000000081526004016115fe906131c2565b60405180910390fd5b6001816004015f6101000a81548160ff021916908315150217905550806007015f9054906101000a900473ffffffffffffffffffffffffffffffffffffffff1673ffffffffffffffffffffffffffffffffffffffff166323b872dd825f015f9054906101000a900473ffffffffffffffffffffffffffffffffffffffff16836006015f9054906101000a900473ffffffffffffffffffffffffffffffffffffffff1684600801546040518463ffffffff1660e01b81526004016116cc93929190612b8a565b5f604051808303815f87803b1580156116e3575f5ffd5b505af11580156116f5573d5f5f3e3d5ffd5b505050505f73ffffffffffffffffffffffffffffffffffffffff16816009015f9054906101000a900473ffffffffffffffffffffffffffffffffffffffff1673ffffffffffffffffffffffffffffffffffffffff16036117be57805f015f9054906101000a900473ffffffffffffffffffffffffffffffffffffffff1673ffffffffffffffffffffffffffffffffffffffff166108fc826005015490811502906040515f60405180830381858888f193505050501580156117b8573d5f5f3e3d5ffd5b50611884565b806009015f9054906101000a900473ffffffffffffffffffffffffffffffffffffffff1673ffffffffffffffffffffffffffffffffffffffff1663a9059cbb825f015f9054906101000a900473ffffffffffffffffffffffffffffffffffffffff1683600501546040518363ffffffff1660e01b8152600401611842929190612c14565b6020604051808303815f875af115801561185e573d5f5f3e3d5ffd5b505050506040513d601f19601f820116820180604052508101906118829190612be9565b505b817fd2aa34a4fdbbc6dff6a3e56f46e0f3ae2a31d7785ff3487aa5c95c642acea501826006015f9054906101000a900473ffffffffffffffffffffffffffffffffffffffff1683600501546040516118dd929190612c14565b60405180910390a25050565b6065602052805f5260405f205f91509050805f015f9054906101000a900473ffffffffffffffffffffffffffffffffffffffff1690806001015490806002015490806003015490806004015f9054906101000a900460ff1690806005015490806006015f9054906101000a900473ffffffffffffffffffffffffffffffffffffffff1690806007015f9054906101000a900473ffffffffffffffffffffffffffffffffffffffff1690806008015490806009015f9054906101000a900473ffffffffffffffffffffffffffffffffffffffff1690508a565b60665f9054906101000a900473ffffffffffffffffffffffffffffffffffffffff1681565b60675481565b5f611a187f360894a13ba1a3210667c828492db98dca3e2076cc3735a920a3ca505d382bbc5f1b611e6b565b5f015f9054906101000a900473ffffffffffffffffffffffffffffffffffffffff16905090565b50565b611a6d7f4910fdfa16fed3260ed0e7147f7cc6da11a60208b5b9406d12a635614ffd91435f1b611e74565b5f015f9054906101000a900460ff1615611a8f57611a8a83611e7d565b611ba7565b8273ffffffffffffffffffffffffffffffffffffffff166352d1902d6040518163ffffffff1660e01b8152600401602060405180830381865afa925050508015611af757506040513d601f19601f82011682018060405250810190611af4919061307d565b60015b611b36576040517f08c379a0000000000000000000000000000000000000000000000000000000008152600401611b2d90613250565b60405180910390fd5b7f360894a13ba1a3210667c828492db98dca3e2076cc3735a920a3ca505d382bbc5f1b8114611b9a576040517f08c379a0000000000000000000000000000000000000000000000000000000008152600401611b91906132de565b60405180910390fd5b50611ba6838383611f33565b5b505050565b5f5f8273ffffffffffffffffffffffffffffffffffffffff163b119050919050565b5f60019054906101000a900460ff16611c1c576040517f08c379a0000000000000000000000000000000000000000000000000000000008152600401611c139061336c565b60405180910390fd5b565b5f5f5f73ffffffffffffffffffffffffffffffffffffffff168373ffffffffffffffffffffffffffffffffffffffff1614611cb55760695f8473ffffffffffffffffffffffffffffffffffffffff1673ffffffffffffffffffffffffffffffffffffffff1681526020019081526020015f205f9054906101000a900473ffffffffffffffffffffffffffffffffffffffff16611cd8565b60685f9054906101000a900473ffffffffffffffffffffffffffffffffffffffff165b90505f8173ffffffffffffffffffffffffffffffffffffffff1663feaf968c6040518163ffffffff1660e01b815260040160a060405180830381865afa158015611d24573d5f5f3e3d5ffd5b505050506040513d601f19601f82011682018060405250810190611d489190613410565b5050509150505f8273ffffffffffffffffffffffffffffffffffffffff1663313ce5676040518163ffffffff1660e01b8152600401602060405180830381865afa158015611d98573d5f5f3e3d5ffd5b505050506040513d601f19601f82011682018060405250810190611dbc91906134b1565b905080600a611dcb919061360b565b8287611dd79190613655565b611de191906136c3565b935050505092915050565b60606397a657c960e01b82604051602401611e07919061370d565b604051602081830303815290604052907bffffffffffffffffffffffffffffffffffffffffffffffffffffffff19166020820180517bffffffffffffffffffffffffffffffffffffffffffffffffffffffff83818316178352505050509050919050565b5f819050919050565b5f819050919050565b611e8681611bac565b611ec5576040517f08c379a0000000000000000000000000000000000000000000000000000000008152600401611ebc90613796565b60405180910390fd5b80611ef17f360894a13ba1a3210667c828492db98dca3e2076cc3735a920a3ca505d382bbc5f1b611e6b565b5f015f6101000a81548173ffffffffffffffffffffffffffffffffffffffff021916908373ffffffffffffffffffffffffffffffffffffffff16021790555050565b611f3c83611f5e565b5f82511180611f485750805b15611f5957611f578383611fad565b505b505050565b611f6781611e7d565b8073ffffffffffffffffffffffffffffffffffffffff167fbc7cd75a20ee27fd9adebab32041f755214dbc6bffa90cc0225b39da2e5c2d3b60405160405180910390a250565b6060611fd283836040518060600160405280602781526020016138cf60279139611fda565b905092915050565b60605f5f8573ffffffffffffffffffffffffffffffffffffffff168560405161200391906137ee565b5f60405180830381855af49150503d805f811461203b576040519150601f19603f3d011682016040523d82523d5f602084013e612040565b606091505b50915091506120518683838761205c565b925050509392505050565b606083156120bd575f8351036120b55761207585611bac565b6120b4576040517f08c379a00000000000000000000000000000000000000000000000000000000081526004016120ab9061384e565b60405180910390fd5b5b8290506120c8565b6120c783836120d0565b5b949350505050565b5f825111156120e25781518083602001fd5b806040517f08c379a000000000000000000000000000000000000000000000000000000000815260040161211691906138ae565b60405180910390fd5b60405180604001604052805f73ffffffffffffffffffffffffffffffffffffffff1681526020015f81525090565b5f73ffffffffffffffffffffffffffffffffffffffff82169050919050565b5f819050919050565b5f61218f61218a6121858461214d565b61216c565b61214d565b9050919050565b5f6121a082612175565b9050919050565b5f6121b182612196565b9050919050565b6121c1816121a7565b82525050565b5f6020820190506121da5f8301846121b8565b92915050565b5f604051905090565b5f5ffd5b5f5ffd5b5f6121fb8261214d565b9050919050565b61220b816121f1565b8114612215575f5ffd5b50565b5f8135905061222681612202565b92915050565b5f60208284031215612241576122406121e9565b5b5f61224e84828501612218565b91505092915050565b5f5f6040838503121561226d5761226c6121e9565b5b5f61227a85828601612218565b925050602061228b85828601612218565b9150509250929050565b5f5ffd5b5f5ffd5b5f601f19601f8301169050919050565b7f4e487b71000000000000000000000000000000000000000000000000000000005f52604160045260245ffd5b6122e38261229d565b810181811067ffffffffffffffff82111715612302576123016122ad565b5b80604052505050565b5f6123146121e0565b905061232082826122da565b919050565b5f67ffffffffffffffff82111561233f5761233e6122ad565b5b6123488261229d565b9050602081019050919050565b828183375f83830152505050565b5f61237561237084612325565b61230b565b90508281526020810184848401111561239157612390612299565b5b61239c848285612355565b509392505050565b5f82601f8301126123b8576123b7612295565b5b81356123c8848260208601612363565b91505092915050565b5f5f604083850312156123e7576123e66121e9565b5b5f6123f485828601612218565b925050602083013567ffffffffffffffff811115612415576124146121ed565b5b612421858286016123a4565b9150509250929050565b5f819050919050565b61243d8161242b565b82525050565b5f6020820190506124565f830184612434565b92915050565b5f61246682612196565b9050919050565b6124768161245c565b82525050565b5f60208201905061248f5f83018461246d565b92915050565b5f819050919050565b6124a781612495565b81146124b1575f5ffd5b50565b5f813590506124c28161249e565b92915050565b5f5f5f606084860312156124df576124de6121e9565b5b5f6124ec868287016124b4565b93505060206124fd868287016124b4565b925050604061250e86828701612218565b9150509250925092565b5f5f5f5f608085870312156125305761252f6121e9565b5b5f61253d878288016124b4565b945050602061254e878288016124b4565b935050604061255f87828801612218565b9250506060612570878288016124b4565b91505092959194509250565b5f67ffffffffffffffff82169050919050565b6125988161257c565b81146125a2575f5ffd5b50565b5f813590506125b38161258f565b92915050565b5f5f5f5f608085870312156125d1576125d06121e9565b5b5f6125de878288016125a5565b94505060206125ef878288016124b4565b9350506040612600878288016124b4565b925050606061261187828801612218565b91505092959194509250565b5f60208284031215612632576126316121e9565b5b5f61263f848285016124b4565b91505092915050565b612651816121f1565b82525050565b61266081612495565b82525050565b5f8115159050919050565b61267a81612666565b82525050565b5f610140820190506126945f83018d612648565b6126a1602083018c612657565b6126ae604083018b612657565b6126bb606083018a612657565b6126c86080830189612671565b6126d560a0830188612657565b6126e260c0830187612648565b6126ef60e0830186612648565b6126fd610100830185612657565b61270b610120830184612648565b9b9a5050505050505050505050565b5f60208201905061272d5f830184612648565b92915050565b5f6020820190506127465f830184612657565b92915050565b5f82825260208201905092915050565b7f46756e6374696f6e206d7573742062652063616c6c6564207468726f756768205f8201527f64656c656761746563616c6c0000000000000000000000000000000000000000602082015250565b5f6127b6602c8361274c565b91506127c18261275c565b604082019050919050565b5f6020820190508181035f8301526127e3816127aa565b9050919050565b7f46756e6374696f6e206d7573742062652063616c6c6564207468726f756768205f8201527f6163746976652070726f78790000000000000000000000000000000000000000602082015250565b5f612844602c8361274c565b915061284f826127ea565b604082019050919050565b5f6020820190508181035f83015261287181612838565b9050919050565b7f496e697469616c697a61626c653a20636f6e747261637420697320616c7265615f8201527f647920696e697469616c697a6564000000000000000000000000000000000000602082015250565b5f6128d2602e8361274c565b91506128dd82612878565b604082019050919050565b5f6020820190508181035f8301526128ff816128c6565b9050919050565b5f819050919050565b5f60ff82169050919050565b5f61293561293061292b84612906565b61216c565b61290f565b9050919050565b6129458161291b565b82525050565b5f60208201905061295e5f83018461293c565b92915050565b7f555550535570677261646561626c653a206d757374206e6f742062652063616c5f8201527f6c6564207468726f7567682064656c656761746563616c6c0000000000000000602082015250565b5f6129be60388361274c565b91506129c982612964565b604082019050919050565b5f6020820190508181035f8301526129eb816129b2565b9050919050565b7f4e487b71000000000000000000000000000000000000000000000000000000005f52601160045260245ffd5b5f612a2982612495565b9150612a3483612495565b9250828201905080821115612a4c57612a4b6129f2565b5b92915050565b7f41756374696f6e2068617320616c726561647920656e646564000000000000005f82015250565b5f612a8660198361274c565b9150612a9182612a52565b602082019050919050565b5f6020820190508181035f830152612ab381612a7a565b9050919050565b7f42696420746f6f206c6f770000000000000000000000000000000000000000005f82015250565b5f612aee600b8361274c565b9150612af982612aba565b602082019050919050565b5f6020820190508181035f830152612b1b81612ae2565b9050919050565b7f45544820616d6f756e74206d69736d61746368000000000000000000000000005f82015250565b5f612b5660138361274c565b9150612b6182612b22565b602082019050919050565b5f6020820190508181035f830152612b8381612b4a565b9050919050565b5f606082019050612b9d5f830186612648565b612baa6020830185612648565b612bb76040830184612657565b949350505050565b612bc881612666565b8114612bd2575f5ffd5b50565b5f81519050612be381612bbf565b92915050565b5f60208284031215612bfe57612bfd6121e9565b5b5f612c0b84828501612bd5565b91505092915050565b5f604082019050612c275f830185612648565b612c346020830184612657565b9392505050565b7f41756374696f6e206475726174696f6e206e6565647320746f206265206174205f8201527f6c65617374203130307300000000000000000000000000000000000000000000602082015250565b5f612c95602a8361274c565b9150612ca082612c3b565b604082019050919050565b5f6020820190508181035f830152612cc281612c89565b9050919050565b7f5374617274207072696365206d7573742062652067726561746572207468616e5f8201527f2030000000000000000000000000000000000000000000000000000000000000602082015250565b5f612d2360228361274c565b9150612d2e82612cc9565b604082019050919050565b5f6020820190508181035f830152612d5081612d17565b9050919050565b5f612d6182612495565b91507fffffffffffffffffffffffffffffffffffffffffffffffffffffffffffffffff8203612d9357612d926129f2565b5b600182019050919050565b7f43434950206e6f7420636f6e66696775726564000000000000000000000000005f82015250565b5f612dd260138361274c565b9150612ddd82612d9e565b602082019050919050565b5f6020820190508181035f830152612dff81612dc6565b9050919050565b5f606082019050612e195f830186612657565b612e266020830185612657565b612e336040830184612648565b949350505050565b612e448161257c565b82525050565b5f81519050919050565b5f82825260208201905092915050565b8281835e5f83830152505050565b5f612e7c82612e4a565b612e868185612e54565b9350612e96818560208601612e64565b612e9f8161229d565b840191505092915050565b5f81519050919050565b5f82825260208201905092915050565b5f819050602082019050919050565b612edc816121f1565b82525050565b612eeb81612495565b82525050565b604082015f820151612f055f850182612ed3565b506020820151612f186020850182612ee2565b50505050565b5f612f298383612ef1565b60408301905092915050565b5f602082019050919050565b5f612f4b82612eaa565b612f558185612eb4565b9350612f6083612ec4565b805f5b83811015612f90578151612f778882612f1e565b9750612f8283612f35565b925050600181019050612f63565b5085935050505092915050565b5f60a083015f8301518482035f860152612fb78282612e72565b91505060208301518482036020860152612fd18282612e72565b91505060408301518482036040860152612feb8282612f41565b91505060608301516130006060860182612ed3565b50608083015184820360808601526130188282612e72565b9150508091505092915050565b5f6040820190506130385f830185612e3b565b818103602083015261304a8184612f9d565b90509392505050565b61305c8161242b565b8114613066575f5ffd5b50565b5f8151905061307781613053565b92915050565b5f60208284031215613092576130916121e9565b5b5f61309f84828501613069565b91505092915050565b7f4f6e6c792073656c6c6572206f776e65722063616e20656e64000000000000005f82015250565b5f6130dc60198361274c565b91506130e7826130a8565b602082019050919050565b5f6020820190508181035f830152613109816130d0565b9050919050565b7f41756374696f6e20686173206e6f7420656e64656420796574000000000000005f82015250565b5f61314460198361274c565b915061314f82613110565b602082019050919050565b5f6020820190508181035f83015261317181613138565b9050919050565b7f41756374696f6e20616c726561647920656e64656400000000000000000000005f82015250565b5f6131ac60158361274c565b91506131b782613178565b602082019050919050565b5f6020820190508181035f8301526131d9816131a0565b9050919050565b7f45524331393637557067726164653a206e657720696d706c656d656e746174695f8201527f6f6e206973206e6f742055555053000000000000000000000000000000000000602082015250565b5f61323a602e8361274c565b9150613245826131e0565b604082019050919050565b5f6020820190508181035f8301526132678161322e565b9050919050565b7f45524331393637557067726164653a20756e737570706f727465642070726f785f8201527f6961626c65555549440000000000000000000000000000000000000000000000602082015250565b5f6132c860298361274c565b91506132d38261326e565b604082019050919050565b5f6020820190508181035f8301526132f5816132bc565b9050919050565b7f496e697469616c697a61626c653a20636f6e7472616374206973206e6f7420695f8201527f6e697469616c697a696e67000000000000000000000000000000000000000000602082015250565b5f613356602b8361274c565b9150613361826132fc565b604082019050919050565b5f6020820190508181035f8301526133838161334a565b9050919050565b5f69ffffffffffffffffffff82169050919050565b6133a88161338a565b81146133b2575f5ffd5b50565b5f815190506133c38161339f565b92915050565b5f819050919050565b6133db816133c9565b81146133e5575f5ffd5b50565b5f815190506133f6816133d2565b92915050565b5f8151905061340a8161249e565b92915050565b5f5f5f5f5f60a08688031215613429576134286121e9565b5b5f613436888289016133b5565b9550506020613447888289016133e8565b9450506040613458888289016133fc565b9350506060613469888289016133fc565b925050608061347a888289016133b5565b9150509295509295909350565b6134908161290f565b811461349a575f5ffd5b50565b5f815190506134ab81613487565b92915050565b5f602082840312156134c6576134c56121e9565b5b5f6134d38482850161349d565b91505092915050565b5f8160011c9050919050565b5f5f8291508390505b60018511156135315780860481111561350d5761350c6129f2565b5b600185161561351c5780820291505b808102905061352a856134dc565b94506134f1565b94509492505050565b5f826135495760019050613604565b81613556575f9050613604565b816001811461356c5760028114613576576135a5565b6001915050613604565b60ff841115613588576135876129f2565b5b8360020a91508482111561359f5761359e6129f2565b5b50613604565b5060208310610133831016604e8410600b84101617156135da5782820a9050838111156135d5576135d46129f2565b5b613604565b6135e784848460016134e8565b925090508184048111156135fe576135fd6129f2565b5b81810290505b9392505050565b5f61361582612495565b91506136208361290f565b925061364d7fffffffffffffffffffffffffffffffffffffffffffffffffffffffffffffffff848461353a565b905092915050565b5f61365f82612495565b915061366a83612495565b925082820261367881612495565b9150828204841483151761368f5761368e6129f2565b5b5092915050565b7f4e487b71000000000000000000000000000000000000000000000000000000005f52601260045260245ffd5b5f6136cd82612495565b91506136d883612495565b9250826136e8576136e7613696565b5b828204905092915050565b602082015f8201516137075f850182612ee2565b50505050565b5f6020820190506137205f8301846136f3565b92915050565b7f455243313936373a206e657720696d706c656d656e746174696f6e206973206e5f8201527f6f74206120636f6e747261637400000000000000000000000000000000000000602082015250565b5f613780602d8361274c565b915061378b82613726565b604082019050919050565b5f6020820190508181035f8301526137ad81613774565b9050919050565b5f81905092915050565b5f6137c882612e4a565b6137d281856137b4565b93506137e2818560208601612e64565b80840191505092915050565b5f6137f982846137be565b915081905092915050565b7f416464726573733a2063616c6c20746f206e6f6e2d636f6e74726163740000005f82015250565b5f613838601d8361274c565b915061384382613804565b602082019050919050565b5f6020820190508181035f8301526138658161382c565b9050919050565b5f81519050919050565b5f6138808261386c565b61388a818561274c565b935061389a818560208601612e64565b6138a38161229d565b840191505092915050565b5f6020820190508181035f8301526138c68184613876565b90509291505056fe416464726573733a206c6f772d6c6576656c2064656c65676174652063616c6c206661696c6564a264697066735822122078d2e1229ae146990ed077ea1372fb3bb75223e3430fb6a5de108a37bf38819a64736f6c634300081e0033",
					"opcodes": "PUSH1 0xA0 PUSH1 0x40 MSTORE ADDRESS PUSH20 0xFFFFFFFFFFFFFFFFFFFFFFFFFFFFFFFFFFFFFFFF AND PUSH1 0x80 SWAP1 PUSH20 0xFFFFFFFFFFFFFFFFFFFFFFFFFFFFFFFFFFFFFFFF AND DUP2 MSTORE POP CALLVALUE DUP1 ISZERO PUSH2 0x42 JUMPI PUSH0 PUSH0 REVERT JUMPDEST POP PUSH1 0x80 MLOAD PUSH2 0x392B PUSH2 0x77 PUSH0 CODECOPY PUSH0 DUP2 DUP2 PUSH2 0x381 ADD MSTORE DUP2 DUP2 PUSH2 0x40F ADD MSTORE DUP2 DUP2 PUSH2 0x703 ADD MSTORE DUP2 DUP2 PUSH2 0x791 ADD MSTORE PUSH2 0x840 ADD MSTORE PUSH2 0x392B PUSH0 RETURN INVALID PUSH1 0x80 PUSH1 0x40 MSTORE PUSH1 0x4 CALLDATASIZE LT PUSH2 0xE7 JUMPI PUSH0 CALLDATALOAD PUSH1 0xE0 SHR DUP1 PUSH4 0xAD6561EC GT PUSH2 0x89 JUMPI DUP1 PUSH4 0xB9A2DE3A GT PUSH2 0x58 JUMPI DUP1 PUSH4 0xB9A2DE3A EQ PUSH2 0x299 JUMPI DUP1 PUSH4 0xE8CD181F EQ PUSH2 0x2C1 JUMPI DUP1 PUSH4 0xF851A440 EQ PUSH2 0x306 JUMPI DUP1 PUSH4 0xFC528482 EQ PUSH2 0x330 JUMPI PUSH2 0xE7 JUMP JUMPDEST DUP1 PUSH4 0xAD6561EC EQ PUSH2 0x20F JUMPI DUP1 PUSH4 0xAF7665CE EQ PUSH2 0x22B JUMPI DUP1 PUSH4 0xB1CB48EF EQ PUSH2 0x255 JUMPI DUP1 PUSH4 0xB2703DC6 EQ PUSH2 0x27D JUMPI PUSH2 0xE7 JUMP JUMPDEST DUP1 PUSH4 0x4F1EF286 GT PUSH2 0xC5 JUMPI DUP1 PUSH4 0x4F1EF286 EQ PUSH2 0x165 JUMPI DUP1 PUSH4 0x52D1902D EQ PUSH2 0x181 JUMPI DUP1 PUSH4 0x9DCB511A EQ PUSH2 0x1AB JUMPI DUP1 PUSH4 0xA48E3815 EQ PUSH2 0x1E7 JUMPI PUSH2 0xE7 JUMP JUMPDEST DUP1 PUSH4 0xDE22984 EQ PUSH2 0xEB JUMPI DUP1 PUSH4 0x3659CFE6 EQ PUSH2 0x115 JUMPI DUP1 PUSH4 0x485CC955 EQ PUSH2 0x13D JUMPI JUMPDEST PUSH0 PUSH0 REVERT JUMPDEST CALLVALUE DUP1 ISZERO PUSH2 0xF6 JUMPI PUSH0 PUSH0 REVERT JUMPDEST POP PUSH2 0xFF PUSH2 0x35A JUMP JUMPDEST PUSH1 0x40 MLOAD PUSH2 0x10C SWAP2 SWAP1 PUSH2 0x21C7 JUMP JUMPDEST PUSH1 0x40 MLOAD DUP1 SWAP2 SUB SWAP1 RETURN JUMPDEST CALLVALUE DUP1 ISZERO PUSH2 0x120 JUMPI PUSH0 PUSH0 REVERT JUMPDEST POP PUSH2 0x13B PUSH1 0x4 DUP1 CALLDATASIZE SUB DUP2 ADD SWAP1 PUSH2 0x136 SWAP2 SWAP1 PUSH2 0x222C JUMP JUMPDEST PUSH2 0x37F JUMP JUMPDEST STOP JUMPDEST CALLVALUE DUP1 ISZERO PUSH2 0x148 JUMPI PUSH0 PUSH0 REVERT JUMPDEST POP PUSH2 0x163 PUSH1 0x4 DUP1 CALLDATASIZE SUB DUP2 ADD SWAP1 PUSH2 0x15E SWAP2 SWAP1 PUSH2 0x2257 JUMP JUMPDEST PUSH2 0x505 JUMP JUMPDEST STOP JUMPDEST PUSH2 0x17F PUSH1 0x4 DUP1 CALLDATASIZE SUB DUP2 ADD SWAP1 PUSH2 0x17A SWAP2 SWAP1 PUSH2 0x23D1 JUMP JUMPDEST PUSH2 0x701 JUMP JUMPDEST STOP JUMPDEST CALLVALUE DUP1 ISZERO PUSH2 0x18C JUMPI PUSH0 PUSH0 REVERT JUMPDEST POP PUSH2 0x195 PUSH2 0x83D JUMP JUMPDEST PUSH1 0x40 MLOAD PUSH2 0x1A2 SWAP2 SWAP1 PUSH2 0x2443 JUMP JUMPDEST PUSH1 0x40 MLOAD DUP1 SWAP2 SUB SWAP1 RETURN JUMPDEST CALLVALUE DUP1 ISZERO PUSH2 0x1B6 JUMPI PUSH0 PUSH0 REVERT JUMPDEST POP PUSH2 0x1D1 PUSH1 0x4 DUP1 CALLDATASIZE SUB DUP2 ADD SWAP1 PUSH2 0x1CC SWAP2 SWAP1 PUSH2 0x222C JUMP JUMPDEST PUSH2 0x8F4 JUMP JUMPDEST PUSH1 0x40 MLOAD PUSH2 0x1DE SWAP2 SWAP1 PUSH2 0x247C JUMP JUMPDEST PUSH1 0x40 MLOAD DUP1 SWAP2 SUB SWAP1 RETURN JUMPDEST CALLVALUE DUP1 ISZERO PUSH2 0x1F2 JUMPI PUSH0 PUSH0 REVERT JUMPDEST POP PUSH2 0x20D PUSH1 0x4 DUP1 CALLDATASIZE SUB DUP2 ADD SWAP1 PUSH2 0x208 SWAP2 SWAP1 PUSH2 0x2257 JUMP JUMPDEST PUSH2 0x924 JUMP JUMPDEST STOP JUMPDEST PUSH2 0x229 PUSH1 0x4 DUP1 CALLDATASIZE SUB DUP2 ADD SWAP1 PUSH2 0x224 SWAP2 SWAP1 PUSH2 0x24C8 JUMP JUMPDEST PUSH2 0x9A3 JUMP JUMPDEST STOP JUMPDEST CALLVALUE DUP1 ISZERO PUSH2 0x236 JUMPI PUSH0 PUSH0 REVERT JUMPDEST POP PUSH2 0x23F PUSH2 0xE97 JUMP JUMPDEST PUSH1 0x40 MLOAD PUSH2 0x24C SWAP2 SWAP1 PUSH2 0x247C JUMP JUMPDEST PUSH1 0x40 MLOAD DUP1 SWAP2 SUB SWAP1 RETURN JUMPDEST CALLVALUE DUP1 ISZERO PUSH2 0x260 JUMPI PUSH0 PUSH0 REVERT JUMPDEST POP PUSH2 0x27B PUSH1 0x4 DUP1 CALLDATASIZE SUB DUP2 ADD SWAP1 PUSH2 0x276 SWAP2 SWAP1 PUSH2 0x2518 JUMP JUMPDEST PUSH2 0xEBC JUMP JUMPDEST STOP JUMPDEST PUSH2 0x297 PUSH1 0x4 DUP1 CALLDATASIZE SUB DUP2 ADD SWAP1 PUSH2 0x292 SWAP2 SWAP1 PUSH2 0x25B9 JUMP JUMPDEST PUSH2 0x122C JUMP JUMPDEST STOP JUMPDEST CALLVALUE DUP1 ISZERO PUSH2 0x2A4 JUMPI PUSH0 PUSH0 REVERT JUMPDEST POP PUSH2 0x2BF PUSH1 0x4 DUP1 CALLDATASIZE SUB DUP2 ADD SWAP1 PUSH2 0x2BA SWAP2 SWAP1 PUSH2 0x261D JUMP JUMPDEST PUSH2 0x14BD JUMP JUMPDEST STOP JUMPDEST CALLVALUE DUP1 ISZERO PUSH2 0x2CC JUMPI PUSH0 PUSH0 REVERT JUMPDEST POP PUSH2 0x2E7 PUSH1 0x4 DUP1 CALLDATASIZE SUB DUP2 ADD SWAP1 PUSH2 0x2E2 SWAP2 SWAP1 PUSH2 0x261D JUMP JUMPDEST PUSH2 0x18E9 JUMP JUMPDEST PUSH1 0x40 MLOAD PUSH2 0x2FD SWAP11 SWAP10 SWAP9 SWAP8 SWAP7 SWAP6 SWAP5 SWAP4 SWAP3 SWAP2 SWAP1 PUSH2 0x2680 JUMP JUMPDEST PUSH1 0x40 MLOAD DUP1 SWAP2 SUB SWAP1 RETURN JUMPDEST CALLVALUE DUP1 ISZERO PUSH2 0x311 JUMPI PUSH0 PUSH0 REVERT JUMPDEST POP PUSH2 0x31A PUSH2 0x19C1 JUMP JUMPDEST PUSH1 0x40 MLOAD PUSH2 0x327 SWAP2 SWAP1 PUSH2 0x271A JUMP JUMPDEST PUSH1 0x40 MLOAD DUP1 SWAP2 SUB SWAP1 RETURN JUMPDEST CALLVALUE DUP1 ISZERO PUSH2 0x33B JUMPI PUSH0 PUSH0 REVERT JUMPDEST POP PUSH2 0x344 PUSH2 0x19E6 JUMP JUMPDEST PUSH1 0x40 MLOAD PUSH2 0x351 SWAP2 SWAP1 PUSH2 0x2733 JUMP JUMPDEST PUSH1 0x40 MLOAD DUP1 SWAP2 SUB SWAP1 RETURN JUMPDEST PUSH1 0x6A PUSH0 SWAP1 SLOAD SWAP1 PUSH2 0x100 EXP SWAP1 DIV PUSH20 0xFFFFFFFFFFFFFFFFFFFFFFFFFFFFFFFFFFFFFFFF AND DUP2 JUMP JUMPDEST PUSH32 0x0 PUSH20 0xFFFFFFFFFFFFFFFFFFFFFFFFFFFFFFFFFFFFFFFF AND ADDRESS PUSH20 0xFFFFFFFFFFFFFFFFFFFFFFFFFFFFFFFFFFFFFFFF AND SUB PUSH2 0x40D JUMPI PUSH1 0x40 MLOAD PUSH32 0x8C379A000000000000000000000000000000000000000000000000000000000 DUP2 MSTORE PUSH1 0x4 ADD PUSH2 0x404 SWAP1 PUSH2 0x27CC JUMP JUMPDEST PUSH1 0x40 MLOAD DUP1 SWAP2 SUB SWAP1 REVERT JUMPDEST PUSH32 0x0 PUSH20 0xFFFFFFFFFFFFFFFFFFFFFFFFFFFFFFFFFFFFFFFF AND PUSH2 0x44C PUSH2 0x19EC JUMP JUMPDEST PUSH20 0xFFFFFFFFFFFFFFFFFFFFFFFFFFFFFFFFFFFFFFFF AND EQ PUSH2 0x4A2 JUMPI PUSH1 0x40 MLOAD PUSH32 0x8C379A000000000000000000000000000000000000000000000000000000000 DUP2 MSTORE PUSH1 0x4 ADD PUSH2 0x499 SWAP1 PUSH2 0x285A JUMP JUMPDEST PUSH1 0x40 MLOAD DUP1 SWAP2 SUB SWAP1 REVERT JUMPDEST PUSH2 0x4AB DUP2 PUSH2 0x1A3F JUMP JUMPDEST PUSH2 0x502 DUP2 PUSH0 PUSH8 0xFFFFFFFFFFFFFFFF DUP2 GT ISZERO PUSH2 0x4C9 JUMPI PUSH2 0x4C8 PUSH2 0x22AD JUMP JUMPDEST JUMPDEST PUSH1 0x40 MLOAD SWAP1 DUP1 DUP3 MSTORE DUP1 PUSH1 0x1F ADD PUSH1 0x1F NOT AND PUSH1 0x20 ADD DUP3 ADD PUSH1 0x40 MSTORE DUP1 ISZERO PUSH2 0x4FB JUMPI DUP2 PUSH1 0x20 ADD PUSH1 0x1 DUP3 MUL DUP1 CALLDATASIZE DUP4 CALLDATACOPY DUP1 DUP3 ADD SWAP2 POP POP SWAP1 POP JUMPDEST POP PUSH0 PUSH2 0x1A42 JUMP JUMPDEST POP JUMP JUMPDEST PUSH0 PUSH0 PUSH1 0x1 SWAP1 SLOAD SWAP1 PUSH2 0x100 EXP SWAP1 DIV PUSH1 0xFF AND ISZERO SWAP1 POP DUP1 DUP1 ISZERO PUSH2 0x535 JUMPI POP PUSH1 0x1 PUSH0 PUSH0 SWAP1 SLOAD SWAP1 PUSH2 0x100 EXP SWAP1 DIV PUSH1 0xFF AND PUSH1 0xFF AND LT JUMPDEST DUP1 PUSH2 0x562 JUMPI POP PUSH2 0x544 ADDRESS PUSH2 0x1BAC JUMP JUMPDEST ISZERO DUP1 ISZERO PUSH2 0x561 JUMPI POP PUSH1 0x1 PUSH0 PUSH0 SWAP1 SLOAD SWAP1 PUSH2 0x100 EXP SWAP1 DIV PUSH1 0xFF AND PUSH1 0xFF AND EQ JUMPDEST JUMPDEST PUSH2 0x5A1 JUMPI PUSH1 0x40 MLOAD PUSH32 0x8C379A000000000000000000000000000000000000000000000000000000000 DUP2 MSTORE PUSH1 0x4 ADD PUSH2 0x598 SWAP1 PUSH2 0x28E8 JUMP JUMPDEST PUSH1 0x40 MLOAD DUP1 SWAP2 SUB SWAP1 REVERT JUMPDEST PUSH1 0x1 PUSH0 PUSH0 PUSH2 0x100 EXP DUP2 SLOAD DUP2 PUSH1 0xFF MUL NOT AND SWAP1 DUP4 PUSH1 0xFF AND MUL OR SWAP1 SSTORE POP DUP1 ISZERO PUSH2 0x5DC JUMPI PUSH1 0x1 PUSH0 PUSH1 0x1 PUSH2 0x100 EXP DUP2 SLOAD DUP2 PUSH1 0xFF MUL NOT AND SWAP1 DUP4 ISZERO ISZERO MUL OR SWAP1 SSTORE POP JUMPDEST PUSH2 0x5E4 PUSH2 0x1BCE JUMP JUMPDEST CALLER PUSH1 0x66 PUSH0 PUSH2 0x100 EXP DUP2 SLOAD DUP2 PUSH20 0xFFFFFFFFFFFFFFFFFFFFFFFFFFFFFFFFFFFFFFFF MUL NOT AND SWAP1 DUP4 PUSH20 0xFFFFFFFFFFFFFFFFFFFFFFFFFFFFFFFFFFFFFFFF AND MUL OR SWAP1 SSTORE POP DUP2 PUSH1 0x68 PUSH0 PUSH2 0x100 EXP DUP2 SLOAD DUP2 PUSH20 0xFFFFFFFFFFFFFFFFFFFFFFFFFFFFFFFFFFFFFFFF MUL NOT AND SWAP1 DUP4 PUSH20 0xFFFFFFFFFFFFFFFFFFFFFFFFFFFFFFFFFFFFFFFF AND MUL OR SWAP1 SSTORE POP DUP3 PUSH1 0x6A PUSH0 PUSH2 0x100 EXP DUP2 SLOAD DUP2 PUSH20 0xFFFFFFFFFFFFFFFFFFFFFFFFFFFFFFFFFFFFFFFF MUL NOT AND SWAP1 DUP4 PUSH20 0xFFFFFFFFFFFFFFFFFFFFFFFFFFFFFFFFFFFFFFFF AND MUL OR SWAP1 SSTORE POP DUP1 ISZERO PUSH2 0x6FC JUMPI PUSH0 PUSH0 PUSH1 0x1 PUSH2 0x100 EXP DUP2 SLOAD DUP2 PUSH1 0xFF MUL NOT AND SWAP1 DUP4 ISZERO ISZERO MUL OR SWAP1 SSTORE POP PUSH32 0x7F26B83FF96E1F2B6A682F133852F6798A09C465DA95921460CEFB3847402498 PUSH1 0x1 PUSH1 0x40 MLOAD PUSH2 0x6F3 SWAP2 SWAP1 PUSH2 0x294B JUMP JUMPDEST PUSH1 0x40 MLOAD DUP1 SWAP2 SUB SWAP1 LOG1 JUMPDEST POP POP POP JUMP JUMPDEST PUSH32 0x0 PUSH20 0xFFFFFFFFFFFFFFFFFFFFFFFFFFFFFFFFFFFFFFFF AND ADDRESS PUSH20 0xFFFFFFFFFFFFFFFFFFFFFFFFFFFFFFFFFFFFFFFF AND SUB PUSH2 0x78F JUMPI PUSH1 0x40 MLOAD PUSH32 0x8C379A000000000000000000000000000000000000000000000000000000000 DUP2 MSTORE PUSH1 0x4 ADD PUSH2 0x786 SWAP1 PUSH2 0x27CC JUMP JUMPDEST PUSH1 0x40 MLOAD DUP1 SWAP2 SUB SWAP1 REVERT JUMPDEST PUSH32 0x0 PUSH20 0xFFFFFFFFFFFFFFFFFFFFFFFFFFFFFFFFFFFFFFFF AND PUSH2 0x7CE PUSH2 0x19EC JUMP JUMPDEST PUSH20 0xFFFFFFFFFFFFFFFFFFFFFFFFFFFFFFFFFFFFFFFF AND EQ PUSH2 0x824 JUMPI PUSH1 0x40 MLOAD PUSH32 0x8C379A000000000000000000000000000000000000000000000000000000000 DUP2 MSTORE PUSH1 0x4 ADD PUSH2 0x81B SWAP1 PUSH2 0x285A JUMP JUMPDEST PUSH1 0x40 MLOAD DUP1 SWAP2 SUB SWAP1 REVERT JUMPDEST PUSH2 0x82D DUP3 PUSH2 0x1A3F JUMP JUMPDEST PUSH2 0x839 DUP3 DUP3 PUSH1 0x1 PUSH2 0x1A42 JUMP JUMPDEST POP POP JUMP JUMPDEST PUSH0 PUSH32 0x0 PUSH20 0xFFFFFFFFFFFFFFFFFFFFFFFFFFFFFFFFFFFFFFFF AND ADDRESS PUSH20 0xFFFFFFFFFFFFFFFFFFFFFFFFFFFFFFFFFFFFFFFF AND EQ PUSH2 0x8CC JUMPI PUSH1 0x40 MLOAD PUSH32 0x8C379A000000000000000000000000000000000000000000000000000000000 DUP2 MSTORE PUSH1 0x4 ADD PUSH2 0x8C3 SWAP1 PUSH2 0x29D4 JUMP JUMPDEST PUSH1 0x40 MLOAD DUP1 SWAP2 SUB SWAP1 REVERT JUMPDEST PUSH32 0x360894A13BA1A3210667C828492DB98DCA3E2076CC3735A920A3CA505D382BBC PUSH0 SHL SWAP1 POP SWAP1 JUMP JUMPDEST PUSH1 0x69 PUSH1 0x20 MSTORE DUP1 PUSH0 MSTORE PUSH1 0x40 PUSH0 KECCAK256 PUSH0 SWAP2 POP SLOAD SWAP1 PUSH2 0x100 EXP SWAP1 DIV PUSH20 0xFFFFFFFFFFFFFFFFFFFFFFFFFFFFFFFFFFFFFFFF AND DUP2 JUMP JUMPDEST DUP2 PUSH1 0x69 PUSH0 DUP4 PUSH20 0xFFFFFFFFFFFFFFFFFFFFFFFFFFFFFFFFFFFFFFFF AND PUSH20 0xFFFFFFFFFFFFFFFFFFFFFFFFFFFFFFFFFFFFFFFF AND DUP2 MSTORE PUSH1 0x20 ADD SWAP1 DUP2 MSTORE PUSH1 0x20 ADD PUSH0 KECCAK256 PUSH0 PUSH2 0x100 EXP DUP2 SLOAD DUP2 PUSH20 0xFFFFFFFFFFFFFFFFFFFFFFFFFFFFFFFFFFFFFFFF MUL NOT AND SWAP1 DUP4 PUSH20 0xFFFFFFFFFFFFFFFFFFFFFFFFFFFFFFFFFFFFFFFF AND MUL OR SWAP1 SSTORE POP POP POP JUMP JUMPDEST PUSH0 PUSH1 0x65 PUSH0 DUP6 DUP2 MSTORE PUSH1 0x20 ADD SWAP1 DUP2 MSTORE PUSH1 0x20 ADD PUSH0 KECCAK256 SWAP1 POP DUP1 PUSH1 0x4 ADD PUSH0 SWAP1 SLOAD SWAP1 PUSH2 0x100 EXP SWAP1 DIV PUSH1 0xFF AND ISZERO DUP1 ISZERO PUSH2 0x9E8 JUMPI POP DUP1 PUSH1 0x3 ADD SLOAD DUP2 PUSH1 0x2 ADD SLOAD PUSH2 0x9E4 SWAP2 SWAP1 PUSH2 0x2A1F JUMP JUMPDEST TIMESTAMP LT ISZERO JUMPDEST PUSH2 0xA27 JUMPI PUSH1 0x40 MLOAD PUSH32 0x8C379A000000000000000000000000000000000000000000000000000000000 DUP2 MSTORE PUSH1 0x4 ADD PUSH2 0xA1E SWAP1 PUSH2 0x2A9C JUMP JUMPDEST PUSH1 0x40 MLOAD DUP1 SWAP2 SUB SWAP1 REVERT JUMPDEST PUSH0 PUSH2 0xA32 DUP5 DUP5 PUSH2 0x1C1E JUMP JUMPDEST SWAP1 POP PUSH0 PUSH2 0xA66 DUP4 PUSH1 0x1 ADD SLOAD DUP5 PUSH1 0x9 ADD PUSH0 SWAP1 SLOAD SWAP1 PUSH2 0x100 EXP SWAP1 DIV PUSH20 0xFFFFFFFFFFFFFFFFFFFFFFFFFFFFFFFFFFFFFFFF AND PUSH2 0x1C1E JUMP JUMPDEST SWAP1 POP PUSH0 PUSH2 0xA9A DUP5 PUSH1 0x5 ADD SLOAD DUP6 PUSH1 0x9 ADD PUSH0 SWAP1 SLOAD SWAP1 PUSH2 0x100 EXP SWAP1 DIV PUSH20 0xFFFFFFFFFFFFFFFFFFFFFFFFFFFFFFFFFFFFFFFF AND PUSH2 0x1C1E JUMP JUMPDEST SWAP1 POP DUP2 DUP4 LT ISZERO DUP1 ISZERO PUSH2 0xAAB JUMPI POP DUP1 DUP4 GT JUMPDEST PUSH2 0xAEA JUMPI PUSH1 0x40 MLOAD PUSH32 0x8C379A000000000000000000000000000000000000000000000000000000000 DUP2 MSTORE PUSH1 0x4 ADD PUSH2 0xAE1 SWAP1 PUSH2 0x2B04 JUMP JUMPDEST PUSH1 0x40 MLOAD DUP1 SWAP2 SUB SWAP1 REVERT JUMPDEST PUSH0 PUSH20 0xFFFFFFFFFFFFFFFFFFFFFFFFFFFFFFFFFFFFFFFF AND DUP6 PUSH20 0xFFFFFFFFFFFFFFFFFFFFFFFFFFFFFFFFFFFFFFFF AND SUB PUSH2 0xB64 JUMPI DUP6 CALLVALUE EQ PUSH2 0xB5F JUMPI PUSH1 0x40 MLOAD PUSH32 0x8C379A000000000000000000000000000000000000000000000000000000000 DUP2 MSTORE PUSH1 0x4 ADD PUSH2 0xB56 SWAP1 PUSH2 0x2B6C JUMP JUMPDEST PUSH1 0x40 MLOAD DUP1 SWAP2 SUB SWAP1 REVERT JUMPDEST PUSH2 0xBE3 JUMP JUMPDEST DUP5 PUSH20 0xFFFFFFFFFFFFFFFFFFFFFFFFFFFFFFFFFFFFFFFF AND PUSH4 0x23B872DD CALLER ADDRESS DUP10 PUSH1 0x40 MLOAD DUP5 PUSH4 0xFFFFFFFF AND PUSH1 0xE0 SHL DUP2 MSTORE PUSH1 0x4 ADD PUSH2 0xBA1 SWAP4 SWAP3 SWAP2 SWAP1 PUSH2 0x2B8A JUMP JUMPDEST PUSH1 0x20 PUSH1 0x40 MLOAD DUP1 DUP4 SUB DUP2 PUSH0 DUP8 GAS CALL ISZERO DUP1 ISZERO PUSH2 0xBBD JUMPI RETURNDATASIZE PUSH0 PUSH0 RETURNDATACOPY RETURNDATASIZE PUSH0 REVERT JUMPDEST POP POP POP POP PUSH1 0x40 MLOAD RETURNDATASIZE PUSH1 0x1F NOT PUSH1 0x1F DUP3 ADD AND DUP3 ADD DUP1 PUSH1 0x40 MSTORE POP DUP2 ADD SWAP1 PUSH2 0xBE1 SWAP2 SWAP1 PUSH2 0x2BE9 JUMP JUMPDEST POP JUMPDEST PUSH0 PUSH20 0xFFFFFFFFFFFFFFFFFFFFFFFFFFFFFFFFFFFFFFFF AND DUP5 PUSH1 0x6 ADD PUSH0 SWAP1 SLOAD SWAP1 PUSH2 0x100 EXP SWAP1 DIV PUSH20 0xFFFFFFFFFFFFFFFFFFFFFFFFFFFFFFFFFFFFFFFF AND PUSH20 0xFFFFFFFFFFFFFFFFFFFFFFFFFFFFFFFFFFFFFFFF AND EQ PUSH2 0xDC7 JUMPI PUSH0 PUSH20 0xFFFFFFFFFFFFFFFFFFFFFFFFFFFFFFFFFFFFFFFF AND DUP5 PUSH1 0x9 ADD PUSH0 SWAP1 SLOAD SWAP1 PUSH2 0x100 EXP SWAP1 DIV PUSH20 0xFFFFFFFFFFFFFFFFFFFFFFFFFFFFFFFFFFFFFFFF AND PUSH20 0xFFFFFFFFFFFFFFFFFFFFFFFFFFFFFFFFFFFFFFFF AND SUB PUSH2 0xCFF JUMPI DUP4 PUSH1 0x6 ADD PUSH0 SWAP1 SLOAD SWAP1 PUSH2 0x100 EXP SWAP1 DIV PUSH20 0xFFFFFFFFFFFFFFFFFFFFFFFFFFFFFFFFFFFFFFFF AND PUSH20 0xFFFFFFFFFFFFFFFFFFFFFFFFFFFFFFFFFFFFFFFF AND PUSH2 0x8FC DUP6 PUSH1 0x5 ADD SLOAD SWAP1 DUP2 ISZERO MUL SWAP1 PUSH1 0x40 MLOAD PUSH0 PUSH1 0x40 MLOAD DUP1 DUP4 SUB DUP2 DUP6 DUP9 DUP9 CALL SWAP4 POP POP POP POP ISZERO DUP1 ISZERO PUSH2 0xCF9 JUMPI RETURNDATASIZE PUSH0 PUSH0 RETURNDATACOPY RETURNDATASIZE PUSH0 REVERT JUMPDEST POP PUSH2 0xDC6 JUMP JUMPDEST DUP4 PUSH1 0x9 ADD PUSH0 SWAP1 SLOAD SWAP1 PUSH2 0x100 EXP SWAP1 DIV PUSH20 0xFFFFFFFFFFFFFFFFFFFFFFFFFFFFFFFFFFFFFFFF AND PUSH20 0xFFFFFFFFFFFFFFFFFFFFFFFFFFFFFFFFFFFFFFFF AND PUSH4 0xA9059CBB DUP6 PUSH1 0x6 ADD PUSH0 SWAP1 SLOAD SWAP1 PUSH2 0x100 EXP SWAP1 DIV PUSH20 0xFFFFFFFFFFFFFFFFFFFFFFFFFFFFFFFFFFFFFFFF AND DUP7 PUSH1 0x5 ADD SLOAD PUSH1 0x40 MLOAD DUP4 PUSH4 0xFFFFFFFF AND PUSH1 0xE0 SHL DUP2 MSTORE PUSH1 0x4 ADD PUSH2 0xD84 SWAP3 SWAP2 SWAP1 PUSH2 0x2C14 JUMP JUMPDEST PUSH1 0x20 PUSH1 0x40 MLOAD DUP1 DUP4 SUB DUP2 PUSH0 DUP8 GAS CALL ISZERO DUP1 ISZERO PUSH2 0xDA0 JUMPI RETURNDATASIZE PUSH0 PUSH0 RETURNDATACOPY RETURNDATASIZE PUSH0 REVERT JUMPDEST POP POP POP POP PUSH1 0x40 MLOAD RETURNDATASIZE PUSH1 0x1F NOT PUSH1 0x1F DUP3 ADD AND DUP3 ADD DUP1 PUSH1 0x40 MSTORE POP DUP2 ADD SWAP1 PUSH2 0xDC4 SWAP2 SWAP1 PUSH2 0x2BE9 JUMP JUMPDEST POP JUMPDEST JUMPDEST CALLER DUP5 PUSH1 0x6 ADD PUSH0 PUSH2 0x100 EXP DUP2 SLOAD DUP2 PUSH20 0xFFFFFFFFFFFFFFFFFFFFFFFFFFFFFFFFFFFFFFFF MUL NOT AND SWAP1 DUP4 PUSH20 0xFFFFFFFFFFFFFFFFFFFFFFFFFFFFFFFFFFFFFFFF AND MUL OR SWAP1 SSTORE POP DUP6 DUP5 PUSH1 0x5 ADD DUP2 SWAP1 SSTORE POP DUP5 DUP5 PUSH1 0x9 ADD PUSH0 PUSH2 0x100 EXP DUP2 SLOAD DUP2 PUSH20 0xFFFFFFFFFFFFFFFFFFFFFFFFFFFFFFFFFFFFFFFF MUL NOT AND SWAP1 DUP4 PUSH20 0xFFFFFFFFFFFFFFFFFFFFFFFFFFFFFFFFFFFFFFFF AND MUL OR SWAP1 SSTORE POP DUP7 PUSH32 0xE54EFF26401BF69B81B26F60BD85EF47F5D85275C1D268D84F68D6897431C47 CALLER DUP9 PUSH1 0x40 MLOAD PUSH2 0xE86 SWAP3 SWAP2 SWAP1 PUSH2 0x2C14 JUMP JUMPDEST PUSH1 0x40 MLOAD DUP1 SWAP2 SUB SWAP1 LOG2 POP POP POP POP POP POP POP JUMP JUMPDEST PUSH1 0x68 PUSH0 SWAP1 SLOAD SWAP1 PUSH2 0x100 EXP SWAP1 DIV PUSH20 0xFFFFFFFFFFFFFFFFFFFFFFFFFFFFFFFFFFFFFFFF AND DUP2 JUMP JUMPDEST PUSH1 0x64 DUP5 LT ISZERO PUSH2 0xF00 JUMPI PUSH1 0x40 MLOAD PUSH32 0x8C379A000000000000000000000000000000000000000000000000000000000 DUP2 MSTORE PUSH1 0x4 ADD PUSH2 0xEF7 SWAP1 PUSH2 0x2CAB JUMP JUMPDEST PUSH1 0x40 MLOAD DUP1 SWAP2 SUB SWAP1 REVERT JUMPDEST PUSH0 DUP4 GT PUSH2 0xF42 JUMPI PUSH1 0x40 MLOAD PUSH32 0x8C379A000000000000000000000000000000000000000000000000000000000 DUP2 MSTORE PUSH1 0x4 ADD PUSH2 0xF39 SWAP1 PUSH2 0x2D39 JUMP JUMPDEST PUSH1 0x40 MLOAD DUP1 SWAP2 SUB SWAP1 REVERT JUMPDEST DUP2 PUSH20 0xFFFFFFFFFFFFFFFFFFFFFFFFFFFFFFFFFFFFFFFF AND PUSH4 0x95EA7B3 ADDRESS DUP4 PUSH1 0x40 MLOAD DUP4 PUSH4 0xFFFFFFFF AND PUSH1 0xE0 SHL DUP2 MSTORE PUSH1 0x4 ADD PUSH2 0xF7D SWAP3 SWAP2 SWAP1 PUSH2 0x2C14 JUMP JUMPDEST PUSH0 PUSH1 0x40 MLOAD DUP1 DUP4 SUB DUP2 PUSH0 DUP8 DUP1 EXTCODESIZE ISZERO DUP1 ISZERO PUSH2 0xF94 JUMPI PUSH0 PUSH0 REVERT JUMPDEST POP GAS CALL ISZERO DUP1 ISZERO PUSH2 0xFA6 JUMPI RETURNDATASIZE PUSH0 PUSH0 RETURNDATACOPY RETURNDATASIZE PUSH0 REVERT JUMPDEST POP POP POP POP PUSH1 0x40 MLOAD DUP1 PUSH2 0x140 ADD PUSH1 0x40 MSTORE DUP1 CALLER PUSH20 0xFFFFFFFFFFFFFFFFFFFFFFFFFFFFFFFFFFFFFFFF AND DUP2 MSTORE PUSH1 0x20 ADD DUP5 DUP2 MSTORE PUSH1 0x20 ADD TIMESTAMP DUP2 MSTORE PUSH1 0x20 ADD DUP6 DUP2 MSTORE PUSH1 0x20 ADD PUSH0 ISZERO ISZERO DUP2 MSTORE PUSH1 0x20 ADD PUSH0 DUP2 MSTORE PUSH1 0x20 ADD PUSH0 PUSH20 0xFFFFFFFFFFFFFFFFFFFFFFFFFFFFFFFFFFFFFFFF AND DUP2 MSTORE PUSH1 0x20 ADD DUP4 PUSH20 0xFFFFFFFFFFFFFFFFFFFFFFFFFFFFFFFFFFFFFFFF AND DUP2 MSTORE PUSH1 0x20 ADD DUP3 DUP2 MSTORE PUSH1 0x20 ADD PUSH0 PUSH20 0xFFFFFFFFFFFFFFFFFFFFFFFFFFFFFFFFFFFFFFFF AND DUP2 MSTORE POP PUSH1 0x65 PUSH0 PUSH1 0x67 SLOAD DUP2 MSTORE PUSH1 0x20 ADD SWAP1 DUP2 MSTORE PUSH1 0x20 ADD PUSH0 KECCAK256 PUSH0 DUP3 ADD MLOAD DUP2 PUSH0 ADD PUSH0 PUSH2 0x100 EXP DUP2 SLOAD DUP2 PUSH20 0xFFFFFFFFFFFFFFFFFFFFFFFFFFFFFFFFFFFFFFFF MUL NOT AND SWAP1 DUP4 PUSH20 0xFFFFFFFFFFFFFFFFFFFFFFFFFFFFFFFFFFFFFFFF AND MUL OR SWAP1 SSTORE POP PUSH1 0x20 DUP3 ADD MLOAD DUP2 PUSH1 0x1 ADD SSTORE PUSH1 0x40 DUP3 ADD MLOAD DUP2 PUSH1 0x2 ADD SSTORE PUSH1 0x60 DUP3 ADD MLOAD DUP2 PUSH1 0x3 ADD SSTORE PUSH1 0x80 DUP3 ADD MLOAD DUP2 PUSH1 0x4 ADD PUSH0 PUSH2 0x100 EXP DUP2 SLOAD DUP2 PUSH1 0xFF MUL NOT AND SWAP1 DUP4 ISZERO ISZERO MUL OR SWAP1 SSTORE POP PUSH1 0xA0 DUP3 ADD MLOAD DUP2 PUSH1 0x5 ADD SSTORE PUSH1 0xC0 DUP3 ADD MLOAD DUP2 PUSH1 0x6 ADD PUSH0 PUSH2 0x100 EXP DUP2 SLOAD DUP2 PUSH20 0xFFFFFFFFFFFFFFFFFFFFFFFFFFFFFFFFFFFFFFFF MUL NOT AND SWAP1 DUP4 PUSH20 0xFFFFFFFFFFFFFFFFFFFFFFFFFFFFFFFFFFFFFFFF AND MUL OR SWAP1 SSTORE POP PUSH1 0xE0 DUP3 ADD MLOAD DUP2 PUSH1 0x7 ADD PUSH0 PUSH2 0x100 EXP DUP2 SLOAD DUP2 PUSH20 0xFFFFFFFFFFFFFFFFFFFFFFFFFFFFFFFFFFFFFFFF MUL NOT AND SWAP1 DUP4 PUSH20 0xFFFFFFFFFFFFFFFFFFFFFFFFFFFFFFFFFFFFFFFF AND MUL OR SWAP1 SSTORE POP PUSH2 0x100 DUP3 ADD MLOAD DUP2 PUSH1 0x8 ADD SSTORE PUSH2 0x120 DUP3 ADD MLOAD DUP2 PUSH1 0x9 ADD PUSH0 PUSH2 0x100 EXP DUP2 SLOAD DUP2 PUSH20 0xFFFFFFFFFFFFFFFFFFFFFFFFFFFFFFFFFFFFFFFF MUL NOT AND SWAP1 DUP4 PUSH20 0xFFFFFFFFFFFFFFFFFFFFFFFFFFFFFFFFFFFFFFFF AND MUL OR SWAP1 SSTORE POP SWAP1 POP POP CALLER PUSH20 0xFFFFFFFFFFFFFFFFFFFFFFFFFFFFFFFFFFFFFFFF AND PUSH1 0x67 SLOAD PUSH32 0x5D551E2A2CC977FD8C530317059B4F2D9F504FB82F7DFAD736F8D56679BCDFD0 PUSH1 0x40 MLOAD PUSH1 0x40 MLOAD DUP1 SWAP2 SUB SWAP1 LOG3 PUSH1 0x67 PUSH0 DUP2 SLOAD DUP1 SWAP3 SWAP2 SWAP1 PUSH2 0x1221 SWAP1 PUSH2 0x2D57 JUMP JUMPDEST SWAP2 SWAP1 POP SSTORE POP POP POP POP POP JUMP JUMPDEST PUSH0 PUSH20 0xFFFFFFFFFFFFFFFFFFFFFFFFFFFFFFFFFFFFFFFF AND PUSH1 0x6A PUSH0 SWAP1 SLOAD SWAP1 PUSH2 0x100 EXP SWAP1 DIV PUSH20 0xFFFFFFFFFFFFFFFFFFFFFFFFFFFFFFFFFFFFFFFF AND PUSH20 0xFFFFFFFFFFFFFFFFFFFFFFFFFFFFFFFFFFFFFFFF AND SUB PUSH2 0x12BB JUMPI PUSH1 0x40 MLOAD PUSH32 0x8C379A000000000000000000000000000000000000000000000000000000000 DUP2 MSTORE PUSH1 0x4 ADD PUSH2 0x12B2 SWAP1 PUSH2 0x2DE8 JUMP JUMPDEST PUSH1 0x40 MLOAD DUP1 SWAP2 SUB SWAP1 REVERT JUMPDEST PUSH0 PUSH1 0x40 MLOAD DUP1 PUSH1 0xA0 ADD PUSH1 0x40 MSTORE DUP1 ADDRESS PUSH1 0x40 MLOAD PUSH1 0x20 ADD PUSH2 0x12D8 SWAP2 SWAP1 PUSH2 0x271A JUMP JUMPDEST PUSH1 0x40 MLOAD PUSH1 0x20 DUP2 DUP4 SUB SUB DUP2 MSTORE SWAP1 PUSH1 0x40 MSTORE DUP2 MSTORE PUSH1 0x20 ADD DUP6 DUP6 DUP6 PUSH1 0x40 MLOAD PUSH1 0x24 ADD PUSH2 0x1301 SWAP4 SWAP3 SWAP2 SWAP1 PUSH2 0x2E06 JUMP JUMPDEST PUSH1 0x40 MLOAD PUSH1 0x20 DUP2 DUP4 SUB SUB DUP2 MSTORE SWAP1 PUSH1 0x40 MSTORE PUSH32 0xAD6561EC00000000000000000000000000000000000000000000000000000000 PUSH28 0xFFFFFFFFFFFFFFFFFFFFFFFFFFFFFFFFFFFFFFFFFFFFFFFFFFFFFFFF NOT AND PUSH1 0x20 DUP3 ADD DUP1 MLOAD PUSH28 0xFFFFFFFFFFFFFFFFFFFFFFFFFFFFFFFFFFFFFFFFFFFFFFFFFFFFFFFF DUP4 DUP2 DUP4 AND OR DUP4 MSTORE POP POP POP POP DUP2 MSTORE PUSH1 0x20 ADD PUSH0 PUSH8 0xFFFFFFFFFFFFFFFF DUP2 GT ISZERO PUSH2 0x139D JUMPI PUSH2 0x139C PUSH2 0x22AD JUMP JUMPDEST JUMPDEST PUSH1 0x40 MLOAD SWAP1 DUP1 DUP3 MSTORE DUP1 PUSH1 0x20 MUL PUSH1 0x20 ADD DUP3 ADD PUSH1 0x40 MSTORE DUP1 ISZERO PUSH2 0x13D6 JUMPI DUP2 PUSH1 0x20 ADD JUMPDEST PUSH2 0x13C3 PUSH2 0x211F JUMP JUMPDEST DUP2 MSTORE PUSH1 0x20 ADD SWAP1 PUSH1 0x1 SWAP1 SUB SWAP1 DUP2 PUSH2 0x13BB JUMPI SWAP1 POP JUMPDEST POP DUP2 MSTORE PUSH1 0x20 ADD DUP4 PUSH20 0xFFFFFFFFFFFFFFFFFFFFFFFFFFFFFFFFFFFFFFFF AND DUP2 MSTORE PUSH1 0x20 ADD PUSH2 0x1412 PUSH1 0x40 MLOAD DUP1 PUSH1 0x20 ADD PUSH1 0x40 MSTORE DUP1 PUSH3 0x30D40 DUP2 MSTORE POP PUSH2 0x1DEC JUMP JUMPDEST DUP2 MSTORE POP SWAP1 POP PUSH1 0x6A PUSH0 SWAP1 SLOAD SWAP1 PUSH2 0x100 EXP SWAP1 DIV PUSH20 0xFFFFFFFFFFFFFFFFFFFFFFFFFFFFFFFFFFFFFFFF AND PUSH20 0xFFFFFFFFFFFFFFFFFFFFFFFFFFFFFFFFFFFFFFFF AND PUSH4 0x96F4E9F9 CALLVALUE DUP8 DUP5 PUSH1 0x40 MLOAD DUP5 PUSH4 0xFFFFFFFF AND PUSH1 0xE0 SHL DUP2 MSTORE PUSH1 0x4 ADD PUSH2 0x1474 SWAP3 SWAP2 SWAP1 PUSH2 0x3025 JUMP JUMPDEST PUSH1 0x20 PUSH1 0x40 MLOAD DUP1 DUP4 SUB DUP2 DUP6 DUP9 GAS CALL ISZERO DUP1 ISZERO PUSH2 0x1490 JUMPI RETURNDATASIZE PUSH0 PUSH0 RETURNDATACOPY RETURNDATASIZE PUSH0 REVERT JUMPDEST POP POP POP POP POP PUSH1 0x40 MLOAD RETURNDATASIZE PUSH1 0x1F NOT PUSH1 0x1F DUP3 ADD AND DUP3 ADD DUP1 PUSH1 0x40 MSTORE POP DUP2 ADD SWAP1 PUSH2 0x14B5 SWAP2 SWAP1 PUSH2 0x307D JUMP JUMPDEST POP POP POP POP POP POP JUMP JUMPDEST PUSH0 PUSH1 0x65 PUSH0 DUP4 DUP2 MSTORE PUSH1 0x20 ADD SWAP1 DUP2 MSTORE PUSH1 0x20 ADD PUSH0 KECCAK256 SWAP1 POP DUP1 PUSH0 ADD PUSH0 SWAP1 SLOAD SWAP1 PUSH2 0x100 EXP SWAP1 DIV PUSH20 0xFFFFFFFFFFFFFFFFFFFFFFFFFFFFFFFFFFFFFFFF AND PUSH20 0xFFFFFFFFFFFFFFFFFFFFFFFFFFFFFFFFFFFFFFFF AND CALLER PUSH20 0xFFFFFFFFFFFFFFFFFFFFFFFFFFFFFFFFFFFFFFFF AND EQ PUSH2 0x1561 JUMPI PUSH1 0x40 MLOAD PUSH32 0x8C379A000000000000000000000000000000000000000000000000000000000 DUP2 MSTORE PUSH1 0x4 ADD PUSH2 0x1558 SWAP1 PUSH2 0x30F2 JUMP JUMPDEST PUSH1 0x40 MLOAD DUP1 SWAP2 SUB SWAP1 REVERT JUMPDEST DUP1 PUSH1 0x3 ADD SLOAD DUP2 PUSH1 0x2 ADD SLOAD PUSH2 0x1575 SWAP2 SWAP1 PUSH2 0x2A1F JUMP JUMPDEST TIMESTAMP GT PUSH2 0x15B6 JUMPI PUSH1 0x40 MLOAD PUSH32 0x8C379A000000000000000000000000000000000000000000000000000000000 DUP2 MSTORE PUSH1 0x4 ADD PUSH2 0x15AD SWAP1 PUSH2 0x315A JUMP JUMPDEST PUSH1 0x40 MLOAD DUP1 SWAP2 SUB SWAP1 REVERT JUMPDEST DUP1 PUSH1 0x4 ADD PUSH0 SWAP1 SLOAD SWAP1 PUSH2 0x100 EXP SWAP1 DIV PUSH1 0xFF AND ISZERO PUSH2 0x1607 JUMPI PUSH1 0x40 MLOAD PUSH32 0x8C379A000000000000000000000000000000000000000000000000000000000 DUP2 MSTORE PUSH1 0x4 ADD PUSH2 0x15FE SWAP1 PUSH2 0x31C2 JUMP JUMPDEST PUSH1 0x40 MLOAD DUP1 SWAP2 SUB SWAP1 REVERT JUMPDEST PUSH1 0x1 DUP2 PUSH1 0x4 ADD PUSH0 PUSH2 0x100 EXP DUP2 SLOAD DUP2 PUSH1 0xFF MUL NOT AND SWAP1 DUP4 ISZERO ISZERO MUL OR SWAP1 SSTORE POP DUP1 PUSH1 0x7 ADD PUSH0 SWAP1 SLOAD SWAP1 PUSH2 0x100 EXP SWAP1 DIV PUSH20 0xFFFFFFFFFFFFFFFFFFFFFFFFFFFFFFFFFFFFFFFF AND PUSH20 0xFFFFFFFFFFFFFFFFFFFFFFFFFFFFFFFFFFFFFFFF AND PUSH4 0x23B872DD DUP3 PUSH0 ADD PUSH0 SWAP1 SLOAD SWAP1 PUSH2 0x100 EXP SWAP1 DIV PUSH20 0xFFFFFFFFFFFFFFFFFFFFFFFFFFFFFFFFFFFFFFFF AND DUP4 PUSH1 0x6 ADD PUSH0 SWAP1 SLOAD SWAP1 PUSH2 0x100 EXP SWAP1 DIV PUSH20 0xFFFFFFFFFFFFFFFFFFFFFFFFFFFFFFFFFFFFFFFF AND DUP5 PUSH1 0x8 ADD SLOAD PUSH1 0x40 MLOAD DUP5 PUSH4 0xFFFFFFFF AND PUSH1 0xE0 SHL DUP2 MSTORE PUSH1 0x4 ADD PUSH2 0x16CC SWAP4 SWAP3 SWAP2 SWAP1 PUSH2 0x2B8A JUMP JUMPDEST PUSH0 PUSH1 0x40 MLOAD DUP1 DUP4 SUB DUP2 PUSH0 DUP8 DUP1 EXTCODESIZE ISZERO DUP1 ISZERO PUSH2 0x16E3 JUMPI PUSH0 PUSH0 REVERT JUMPDEST POP GAS CALL ISZERO DUP1 ISZERO PUSH2 0x16F5 JUMPI RETURNDATASIZE PUSH0 PUSH0 RETURNDATACOPY RETURNDATASIZE PUSH0 REVERT JUMPDEST POP POP POP POP PUSH0 PUSH20 0xFFFFFFFFFFFFFFFFFFFFFFFFFFFFFFFFFFFFFFFF AND DUP2 PUSH1 0x9 ADD PUSH0 SWAP1 SLOAD SWAP1 PUSH2 0x100 EXP SWAP1 DIV PUSH20 0xFFFFFFFFFFFFFFFFFFFFFFFFFFFFFFFFFFFFFFFF AND PUSH20 0xFFFFFFFFFFFFFFFFFFFFFFFFFFFFFFFFFFFFFFFF AND SUB PUSH2 0x17BE JUMPI DUP1 PUSH0 ADD PUSH0 SWAP1 SLOAD SWAP1 PUSH2 0x100 EXP SWAP1 DIV PUSH20 0xFFFFFFFFFFFFFFFFFFFFFFFFFFFFFFFFFFFFFFFF AND PUSH20 0xFFFFFFFFFFFFFFFFFFFFFFFFFFFFFFFFFFFFFFFF AND PUSH2 0x8FC DUP3 PUSH1 0x5 ADD SLOAD SWAP1 DUP2 ISZERO MUL SWAP1 PUSH1 0x40 MLOAD PUSH0 PUSH1 0x40 MLOAD DUP1 DUP4 SUB DUP2 DUP6 DUP9 DUP9 CALL SWAP4 POP POP POP POP ISZERO DUP1 ISZERO PUSH2 0x17B8 JUMPI RETURNDATASIZE PUSH0 PUSH0 RETURNDATACOPY RETURNDATASIZE PUSH0 REVERT JUMPDEST POP PUSH2 0x1884 JUMP JUMPDEST DUP1 PUSH1 0x9 ADD PUSH0 SWAP1 SLOAD SWAP1 PUSH2 0x100 EXP SWAP1 DIV PUSH20 0xFFFFFFFFFFFFFFFFFFFFFFFFFFFFFFFFFFFFFFFF AND PUSH20 0xFFFFFFFFFFFFFFFFFFFFFFFFFFFFFFFFFFFFFFFF AND PUSH4 0xA9059CBB DUP3 PUSH0 ADD PUSH0 SWAP1 SLOAD SWAP1 PUSH2 0x100 EXP SWAP1 DIV PUSH20 0xFFFFFFFFFFFFFFFFFFFFFFFFFFFFFFFFFFFFFFFF AND DUP4 PUSH1 0x5 ADD SLOAD PUSH1 0x40 MLOAD DUP4 PUSH4 0xFFFFFFFF AND PUSH1 0xE0 SHL DUP2 MSTORE PUSH1 0x4 ADD PUSH2 0x1842 SWAP3 SWAP2 SWAP1 PUSH2 0x2C14 JUMP JUMPDEST PUSH1 0x20 PUSH1 0x40 MLOAD DUP1 DUP4 SUB DUP2 PUSH0 DUP8 GAS CALL ISZERO DUP1 ISZERO PUSH2 0x185E JUMPI RETURNDATASIZE PUSH0 PUSH0 RETURNDATACOPY RETURNDATASIZE PUSH0 REVERT JUMPDEST POP POP POP POP PUSH1 0x40 MLOAD RETURNDATASIZE PUSH1 0x1F NOT PUSH1 0x1F DUP3 ADD AND DUP3 ADD DUP1 PUSH1 0x40 MSTORE POP DUP2 ADD SWAP1 PUSH2 0x1882 SWAP2 SWAP1 PUSH2 0x2BE9 JUMP JUMPDEST POP JUMPDEST DUP2 PUSH32 0xD2AA34A4FDBBC6DFF6A3E56F46E0F3AE2A31D7785FF3487AA5C95C642ACEA501 DUP3 PUSH1 0x6 ADD PUSH0 SWAP1 SLOAD SWAP1 PUSH2 0x100 EXP SWAP1 DIV PUSH20 0xFFFFFFFFFFFFFFFFFFFFFFFFFFFFFFFFFFFFFFFF AND DUP4 PUSH1 0x5 ADD SLOAD PUSH1 0x40 MLOAD PUSH2 0x18DD SWAP3 SWAP2 SWAP1 PUSH2 0x2C14 JUMP JUMPDEST PUSH1 0x40 MLOAD DUP1 SWAP2 SUB SWAP1 LOG2 POP POP JUMP JUMPDEST PUSH1 0x65 PUSH1 0x20 MSTORE DUP1 PUSH0 MSTORE PUSH1 0x40 PUSH0 KECCAK256 PUSH0 SWAP2 POP SWAP1 POP DUP1 PUSH0 ADD PUSH0 SWAP1 SLOAD SWAP1 PUSH2 0x100 EXP SWAP1 DIV PUSH20 0xFFFFFFFFFFFFFFFFFFFFFFFFFFFFFFFFFFFFFFFF AND SWAP1 DUP1 PUSH1 0x1 ADD SLOAD SWAP1 DUP1 PUSH1 0x2 ADD SLOAD SWAP1 DUP1 PUSH1 0x3 ADD SLOAD SWAP1 DUP1 PUSH1 0x4 ADD PUSH0 SWAP1 SLOAD SWAP1 PUSH2 0x100 EXP SWAP1 DIV PUSH1 0xFF AND SWAP1 DUP1 PUSH1 0x5 ADD SLOAD SWAP1 DUP1 PUSH1 0x6 ADD PUSH0 SWAP1 SLOAD SWAP1 PUSH2 0x100 EXP SWAP1 DIV PUSH20 0xFFFFFFFFFFFFFFFFFFFFFFFFFFFFFFFFFFFFFFFF AND SWAP1 DUP1 PUSH1 0x7 ADD PUSH0 SWAP1 SLOAD SWAP1 PUSH2 0x100 EXP SWAP1 DIV PUSH20 0xFFFFFFFFFFFFFFFFFFFFFFFFFFFFFFFFFFFFFFFF AND SWAP1 DUP1 PUSH1 0x8 ADD SLOAD SWAP1 DUP1 PUSH1 0x9 ADD PUSH0 SWAP1 SLOAD SWAP1 PUSH2 0x100 EXP SWAP1 DIV PUSH20 0xFFFFFFFFFFFFFFFFFFFFFFFFFFFFFFFFFFFFFFFF AND SWAP1 POP DUP11 JUMP JUMPDEST PUSH1 0x66 PUSH0 SWAP1 SLOAD SWAP1 PUSH2 0x100 EXP SWAP1 DIV PUSH20 0xFFFFFFFFFFFFFFFFFFFFFFFFFFFFFFFFFFFFFFFF AND DUP2 JUMP JUMPDEST PUSH1 0x67 SLOAD DUP2 JUMP JUMPDEST PUSH0 PUSH2 0x1A18 PUSH32 0x360894A13BA1A3210667C828492DB98DCA3E2076CC3735A920A3CA505D382BBC PUSH0 SHL PUSH2 0x1E6B JUMP JUMPDEST PUSH0 ADD PUSH0 SWAP1 SLOAD SWAP1 PUSH2 0x100 EXP SWAP1 DIV PUSH20 0xFFFFFFFFFFFFFFFFFFFFFFFFFFFFFFFFFFFFFFFF AND SWAP1 POP SWAP1 JUMP JUMPDEST POP JUMP JUMPDEST PUSH2 0x1A6D PUSH32 0x4910FDFA16FED3260ED0E7147F7CC6DA11A60208B5B9406D12A635614FFD9143 PUSH0 SHL PUSH2 0x1E74 JUMP JUMPDEST PUSH0 ADD PUSH0 SWAP1 SLOAD SWAP1 PUSH2 0x100 EXP SWAP1 DIV PUSH1 0xFF AND ISZERO PUSH2 0x1A8F JUMPI PUSH2 0x1A8A DUP4 PUSH2 0x1E7D JUMP JUMPDEST PUSH2 0x1BA7 JUMP JUMPDEST DUP3 PUSH20 0xFFFFFFFFFFFFFFFFFFFFFFFFFFFFFFFFFFFFFFFF AND PUSH4 0x52D1902D PUSH1 0x40 MLOAD DUP2 PUSH4 0xFFFFFFFF AND PUSH1 0xE0 SHL DUP2 MSTORE PUSH1 0x4 ADD PUSH1 0x20 PUSH1 0x40 MLOAD DUP1 DUP4 SUB DUP2 DUP7 GAS STATICCALL SWAP3 POP POP POP DUP1 ISZERO PUSH2 0x1AF7 JUMPI POP PUSH1 0x40 MLOAD RETURNDATASIZE PUSH1 0x1F NOT PUSH1 0x1F DUP3 ADD AND DUP3 ADD DUP1 PUSH1 0x40 MSTORE POP DUP2 ADD SWAP1 PUSH2 0x1AF4 SWAP2 SWAP1 PUSH2 0x307D JUMP JUMPDEST PUSH1 0x1 JUMPDEST PUSH2 0x1B36 JUMPI PUSH1 0x40 MLOAD PUSH32 0x8C379A000000000000000000000000000000000000000000000000000000000 DUP2 MSTORE PUSH1 0x4 ADD PUSH2 0x1B2D SWAP1 PUSH2 0x3250 JUMP JUMPDEST PUSH1 0x40 MLOAD DUP1 SWAP2 SUB SWAP1 REVERT JUMPDEST PUSH32 0x360894A13BA1A3210667C828492DB98DCA3E2076CC3735A920A3CA505D382BBC PUSH0 SHL DUP2 EQ PUSH2 0x1B9A JUMPI PUSH1 0x40 MLOAD PUSH32 0x8C379A000000000000000000000000000000000000000000000000000000000 DUP2 MSTORE PUSH1 0x4 ADD PUSH2 0x1B91 SWAP1 PUSH2 0x32DE JUMP JUMPDEST PUSH1 0x40 MLOAD DUP1 SWAP2 SUB SWAP1 REVERT JUMPDEST POP PUSH2 0x1BA6 DUP4 DUP4 DUP4 PUSH2 0x1F33 JUMP JUMPDEST JUMPDEST POP POP POP JUMP JUMPDEST PUSH0 PUSH0 DUP3 PUSH20 0xFFFFFFFFFFFFFFFFFFFFFFFFFFFFFFFFFFFFFFFF AND EXTCODESIZE GT SWAP1 POP SWAP2 SWAP1 POP JUMP JUMPDEST PUSH0 PUSH1 0x1 SWAP1 SLOAD SWAP1 PUSH2 0x100 EXP SWAP1 DIV PUSH1 0xFF AND PUSH2 0x1C1C JUMPI PUSH1 0x40 MLOAD PUSH32 0x8C379A000000000000000000000000000000000000000000000000000000000 DUP2 MSTORE PUSH1 0x4 ADD PUSH2 0x1C13 SWAP1 PUSH2 0x336C JUMP JUMPDEST PUSH1 0x40 MLOAD DUP1 SWAP2 SUB SWAP1 REVERT JUMPDEST JUMP JUMPDEST PUSH0 PUSH0 PUSH0 PUSH20 0xFFFFFFFFFFFFFFFFFFFFFFFFFFFFFFFFFFFFFFFF AND DUP4 PUSH20 0xFFFFFFFFFFFFFFFFFFFFFFFFFFFFFFFFFFFFFFFF AND EQ PUSH2 0x1CB5 JUMPI PUSH1 0x69 PUSH0 DUP5 PUSH20 0xFFFFFFFFFFFFFFFFFFFFFFFFFFFFFFFFFFFFFFFF AND PUSH20 0xFFFFFFFFFFFFFFFFFFFFFFFFFFFFFFFFFFFFFFFF AND DUP2 MSTORE PUSH1 0x20 ADD SWAP1 DUP2 MSTORE PUSH1 0x20 ADD PUSH0 KECCAK256 PUSH0 SWAP1 SLOAD SWAP1 PUSH2 0x100 EXP SWAP1 DIV PUSH20 0xFFFFFFFFFFFFFFFFFFFFFFFFFFFFFFFFFFFFFFFF AND PUSH2 0x1CD8 JUMP JUMPDEST PUSH1 0x68 PUSH0 SWAP1 SLOAD SWAP1 PUSH2 0x100 EXP SWAP1 DIV PUSH20 0xFFFFFFFFFFFFFFFFFFFFFFFFFFFFFFFFFFFFFFFF AND JUMPDEST SWAP1 POP PUSH0 DUP2 PUSH20 0xFFFFFFFFFFFFFFFFFFFFFFFFFFFFFFFFFFFFFFFF AND PUSH4 0xFEAF968C PUSH1 0x40 MLOAD DUP2 PUSH4 0xFFFFFFFF AND PUSH1 0xE0 SHL DUP2 MSTORE PUSH1 0x4 ADD PUSH1 0xA0 PUSH1 0x40 MLOAD DUP1 DUP4 SUB DUP2 DUP7 GAS STATICCALL ISZERO DUP1 ISZERO PUSH2 0x1D24 JUMPI RETURNDATASIZE PUSH0 PUSH0 RETURNDATACOPY RETURNDATASIZE PUSH0 REVERT JUMPDEST POP POP POP POP PUSH1 0x40 MLOAD RETURNDATASIZE PUSH1 0x1F NOT PUSH1 0x1F DUP3 ADD AND DUP3 ADD DUP1 PUSH1 0x40 MSTORE POP DUP2 ADD SWAP1 PUSH2 0x1D48 SWAP2 SWAP1 PUSH2 0x3410 JUMP JUMPDEST POP POP POP SWAP2 POP POP PUSH0 DUP3 PUSH20 0xFFFFFFFFFFFFFFFFFFFFFFFFFFFFFFFFFFFFFFFF AND PUSH4 0x313CE567 PUSH1 0x40 MLOAD DUP2 PUSH4 0xFFFFFFFF AND PUSH1 0xE0 SHL DUP2 MSTORE PUSH1 0x4 ADD PUSH1 0x20 PUSH1 0x40 MLOAD DUP1 DUP4 SUB DUP2 DUP7 GAS STATICCALL ISZERO DUP1 ISZERO PUSH2 0x1D98 JUMPI RETURNDATASIZE PUSH0 PUSH0 RETURNDATACOPY RETURNDATASIZE PUSH0 REVERT JUMPDEST POP POP POP POP PUSH1 0x40 MLOAD RETURNDATASIZE PUSH1 0x1F NOT PUSH1 0x1F DUP3 ADD AND DUP3 ADD DUP1 PUSH1 0x40 MSTORE POP DUP2 ADD SWAP1 PUSH2 0x1DBC SWAP2 SWAP1 PUSH2 0x34B1 JUMP JUMPDEST SWAP1 POP DUP1 PUSH1 0xA PUSH2 0x1DCB SWAP2 SWAP1 PUSH2 0x360B JUMP JUMPDEST DUP3 DUP8 PUSH2 0x1DD7 SWAP2 SWAP1 PUSH2 0x3655 JUMP JUMPDEST PUSH2 0x1DE1 SWAP2 SWAP1 PUSH2 0x36C3 JUMP JUMPDEST SWAP4 POP POP POP POP SWAP3 SWAP2 POP POP JUMP JUMPDEST PUSH1 0x60 PUSH4 0x97A657C9 PUSH1 0xE0 SHL DUP3 PUSH1 0x40 MLOAD PUSH1 0x24 ADD PUSH2 0x1E07 SWAP2 SWAP1 PUSH2 0x370D JUMP JUMPDEST PUSH1 0x40 MLOAD PUSH1 0x20 DUP2 DUP4 SUB SUB DUP2 MSTORE SWAP1 PUSH1 0x40 MSTORE SWAP1 PUSH28 0xFFFFFFFFFFFFFFFFFFFFFFFFFFFFFFFFFFFFFFFFFFFFFFFFFFFFFFFF NOT AND PUSH1 0x20 DUP3 ADD DUP1 MLOAD PUSH28 0xFFFFFFFFFFFFFFFFFFFFFFFFFFFFFFFFFFFFFFFFFFFFFFFFFFFFFFFF DUP4 DUP2 DUP4 AND OR DUP4 MSTORE POP POP POP POP SWAP1 POP SWAP2 SWAP1 POP JUMP JUMPDEST PUSH0 DUP2 SWAP1 POP SWAP2 SWAP1 POP JUMP JUMPDEST PUSH0 DUP2 SWAP1 POP SWAP2 SWAP1 POP JUMP JUMPDEST PUSH2 0x1E86 DUP2 PUSH2 0x1BAC JUMP JUMPDEST PUSH2 0x1EC5 JUMPI PUSH1 0x40 MLOAD PUSH32 0x8C379A000000000000000000000000000000000000000000000000000000000 DUP2 MSTORE PUSH1 0x4 ADD PUSH2 0x1EBC SWAP1 PUSH2 0x3796 JUMP JUMPDEST PUSH1 0x40 MLOAD DUP1 SWAP2 SUB SWAP1 REVERT JUMPDEST DUP1 PUSH2 0x1EF1 PUSH32 0x360894A13BA1A3210667C828492DB98DCA3E2076CC3735A920A3CA505D382BBC PUSH0 SHL PUSH2 0x1E6B JUMP JUMPDEST PUSH0 ADD PUSH0 PUSH2 0x100 EXP DUP2 SLOAD DUP2 PUSH20 0xFFFFFFFFFFFFFFFFFFFFFFFFFFFFFFFFFFFFFFFF MUL NOT AND SWAP1 DUP4 PUSH20 0xFFFFFFFFFFFFFFFFFFFFFFFFFFFFFFFFFFFFFFFF AND MUL OR SWAP1 SSTORE POP POP JUMP JUMPDEST PUSH2 0x1F3C DUP4 PUSH2 0x1F5E JUMP JUMPDEST PUSH0 DUP3 MLOAD GT DUP1 PUSH2 0x1F48 JUMPI POP DUP1 JUMPDEST ISZERO PUSH2 0x1F59 JUMPI PUSH2 0x1F57 DUP4 DUP4 PUSH2 0x1FAD JUMP JUMPDEST POP JUMPDEST POP POP POP JUMP JUMPDEST PUSH2 0x1F67 DUP2 PUSH2 0x1E7D JUMP JUMPDEST DUP1 PUSH20 0xFFFFFFFFFFFFFFFFFFFFFFFFFFFFFFFFFFFFFFFF AND PUSH32 0xBC7CD75A20EE27FD9ADEBAB32041F755214DBC6BFFA90CC0225B39DA2E5C2D3B PUSH1 0x40 MLOAD PUSH1 0x40 MLOAD DUP1 SWAP2 SUB SWAP1 LOG2 POP JUMP JUMPDEST PUSH1 0x60 PUSH2 0x1FD2 DUP4 DUP4 PUSH1 0x40 MLOAD DUP1 PUSH1 0x60 ADD PUSH1 0x40 MSTORE DUP1 PUSH1 0x27 DUP2 MSTORE PUSH1 0x20 ADD PUSH2 0x38CF PUSH1 0x27 SWAP2 CODECOPY PUSH2 0x1FDA JUMP JUMPDEST SWAP1 POP SWAP3 SWAP2 POP POP JUMP JUMPDEST PUSH1 0x60 PUSH0 PUSH0 DUP6 PUSH20 0xFFFFFFFFFFFFFFFFFFFFFFFFFFFFFFFFFFFFFFFF AND DUP6 PUSH1 0x40 MLOAD PUSH2 0x2003 SWAP2 SWAP1 PUSH2 0x37EE JUMP JUMPDEST PUSH0 PUSH1 0x40 MLOAD DUP1 DUP4 SUB DUP2 DUP6 GAS DELEGATECALL SWAP2 POP POP RETURNDATASIZE DUP1 PUSH0 DUP2 EQ PUSH2 0x203B JUMPI PUSH1 0x40 MLOAD SWAP2 POP PUSH1 0x1F NOT PUSH1 0x3F RETURNDATASIZE ADD AND DUP3 ADD PUSH1 0x40 MSTORE RETURNDATASIZE DUP3 MSTORE RETURNDATASIZE PUSH0 PUSH1 0x20 DUP5 ADD RETURNDATACOPY PUSH2 0x2040 JUMP JUMPDEST PUSH1 0x60 SWAP2 POP JUMPDEST POP SWAP2 POP SWAP2 POP PUSH2 0x2051 DUP7 DUP4 DUP4 DUP8 PUSH2 0x205C JUMP JUMPDEST SWAP3 POP POP POP SWAP4 SWAP3 POP POP POP JUMP JUMPDEST PUSH1 0x60 DUP4 ISZERO PUSH2 0x20BD JUMPI PUSH0 DUP4 MLOAD SUB PUSH2 0x20B5 JUMPI PUSH2 0x2075 DUP6 PUSH2 0x1BAC JUMP JUMPDEST PUSH2 0x20B4 JUMPI PUSH1 0x40 MLOAD PUSH32 0x8C379A000000000000000000000000000000000000000000000000000000000 DUP2 MSTORE PUSH1 0x4 ADD PUSH2 0x20AB SWAP1 PUSH2 0x384E JUMP JUMPDEST PUSH1 0x40 MLOAD DUP1 SWAP2 SUB SWAP1 REVERT JUMPDEST JUMPDEST DUP3 SWAP1 POP PUSH2 0x20C8 JUMP JUMPDEST PUSH2 0x20C7 DUP4 DUP4 PUSH2 0x20D0 JUMP JUMPDEST JUMPDEST SWAP5 SWAP4 POP POP POP POP JUMP JUMPDEST PUSH0 DUP3 MLOAD GT ISZERO PUSH2 0x20E2 JUMPI DUP2 MLOAD DUP1 DUP4 PUSH1 0x20 ADD REVERT JUMPDEST DUP1 PUSH1 0x40 MLOAD PUSH32 0x8C379A000000000000000000000000000000000000000000000000000000000 DUP2 MSTORE PUSH1 0x4 ADD PUSH2 0x2116 SWAP2 SWAP1 PUSH2 0x38AE JUMP JUMPDEST PUSH1 0x40 MLOAD DUP1 SWAP2 SUB SWAP1 REVERT JUMPDEST PUSH1 0x40 MLOAD DUP1 PUSH1 0x40 ADD PUSH1 0x40 MSTORE DUP1 PUSH0 PUSH20 0xFFFFFFFFFFFFFFFFFFFFFFFFFFFFFFFFFFFFFFFF AND DUP2 MSTORE PUSH1 0x20 ADD PUSH0 DUP2 MSTORE POP SWAP1 JUMP JUMPDEST PUSH0 PUSH20 0xFFFFFFFFFFFFFFFFFFFFFFFFFFFFFFFFFFFFFFFF DUP3 AND SWAP1 POP SWAP2 SWAP1 POP JUMP JUMPDEST PUSH0 DUP2 SWAP1 POP SWAP2 SWAP1 POP JUMP JUMPDEST PUSH0 PUSH2 0x218F PUSH2 0x218A PUSH2 0x2185 DUP5 PUSH2 0x214D JUMP JUMPDEST PUSH2 0x216C JUMP JUMPDEST PUSH2 0x214D JUMP JUMPDEST SWAP1 POP SWAP2 SWAP1 POP JUMP JUMPDEST PUSH0 PUSH2 0x21A0 DUP3 PUSH2 0x2175 JUMP JUMPDEST SWAP1 POP SWAP2 SWAP1 POP JUMP JUMPDEST PUSH0 PUSH2 0x21B1 DUP3 PUSH2 0x2196 JUMP JUMPDEST SWAP1 POP SWAP2 SWAP1 POP JUMP JUMPDEST PUSH2 0x21C1 DUP2 PUSH2 0x21A7 JUMP JUMPDEST DUP3 MSTORE POP POP JUMP JUMPDEST PUSH0 PUSH1 0x20 DUP3 ADD SWAP1 POP PUSH2 0x21DA PUSH0 DUP4 ADD DUP5 PUSH2 0x21B8 JUMP JUMPDEST SWAP3 SWAP2 POP POP JUMP JUMPDEST PUSH0 PUSH1 0x40 MLOAD SWAP1 POP SWAP1 JUMP JUMPDEST PUSH0 PUSH0 REVERT JUMPDEST PUSH0 PUSH0 REVERT JUMPDEST PUSH0 PUSH2 0x21FB DUP3 PUSH2 0x214D JUMP JUMPDEST SWAP1 POP SWAP2 SWAP1 POP JUMP JUMPDEST PUSH2 0x220B DUP2 PUSH2 0x21F1 JUMP JUMPDEST DUP2 EQ PUSH2 0x2215 JUMPI PUSH0 PUSH0 REVERT JUMPDEST POP JUMP JUMPDEST PUSH0 DUP2 CALLDATALOAD SWAP1 POP PUSH2 0x2226 DUP2 PUSH2 0x2202 JUMP JUMPDEST SWAP3 SWAP2 POP POP JUMP JUMPDEST PUSH0 PUSH1 0x20 DUP3 DUP5 SUB SLT ISZERO PUSH2 0x2241 JUMPI PUSH2 0x2240 PUSH2 0x21E9 JUMP JUMPDEST JUMPDEST PUSH0 PUSH2 0x224E DUP5 DUP3 DUP6 ADD PUSH2 0x2218 JUMP JUMPDEST SWAP2 POP POP SWAP3 SWAP2 POP POP JUMP JUMPDEST PUSH0 PUSH0 PUSH1 0x40 DUP4 DUP6 SUB SLT ISZERO PUSH2 0x226D JUMPI PUSH2 0x226C PUSH2 0x21E9 JUMP JUMPDEST JUMPDEST PUSH0 PUSH2 0x227A DUP6 DUP3 DUP7 ADD PUSH2 0x2218 JUMP JUMPDEST SWAP3 POP POP PUSH1 0x20 PUSH2 0x228B DUP6 DUP3 DUP7 ADD PUSH2 0x2218 JUMP JUMPDEST SWAP2 POP POP SWAP3 POP SWAP3 SWAP1 POP JUMP JUMPDEST PUSH0 PUSH0 REVERT JUMPDEST PUSH0 PUSH0 REVERT JUMPDEST PUSH0 PUSH1 0x1F NOT PUSH1 0x1F DUP4 ADD AND SWAP1 POP SWAP2 SWAP1 POP JUMP JUMPDEST PUSH32 0x4E487B7100000000000000000000000000000000000000000000000000000000 PUSH0 MSTORE PUSH1 0x41 PUSH1 0x4 MSTORE PUSH1 0x24 PUSH0 REVERT JUMPDEST PUSH2 0x22E3 DUP3 PUSH2 0x229D JUMP JUMPDEST DUP2 ADD DUP2 DUP2 LT PUSH8 0xFFFFFFFFFFFFFFFF DUP3 GT OR ISZERO PUSH2 0x2302 JUMPI PUSH2 0x2301 PUSH2 0x22AD JUMP JUMPDEST JUMPDEST DUP1 PUSH1 0x40 MSTORE POP POP POP JUMP JUMPDEST PUSH0 PUSH2 0x2314 PUSH2 0x21E0 JUMP JUMPDEST SWAP1 POP PUSH2 0x2320 DUP3 DUP3 PUSH2 0x22DA JUMP JUMPDEST SWAP2 SWAP1 POP JUMP JUMPDEST PUSH0 PUSH8 0xFFFFFFFFFFFFFFFF DUP3 GT ISZERO PUSH2 0x233F JUMPI PUSH2 0x233E PUSH2 0x22AD JUMP JUMPDEST JUMPDEST PUSH2 0x2348 DUP3 PUSH2 0x229D JUMP JUMPDEST SWAP1 POP PUSH1 0x20 DUP2 ADD SWAP1 POP SWAP2 SWAP1 POP JUMP JUMPDEST DUP3 DUP2 DUP4 CALLDATACOPY PUSH0 DUP4 DUP4 ADD MSTORE POP POP POP JUMP JUMPDEST PUSH0 PUSH2 0x2375 PUSH2 0x2370 DUP5 PUSH2 0x2325 JUMP JUMPDEST PUSH2 0x230B JUMP JUMPDEST SWAP1 POP DUP3 DUP2 MSTORE PUSH1 0x20 DUP2 ADD DUP5 DUP5 DUP5 ADD GT ISZERO PUSH2 0x2391 JUMPI PUSH2 0x2390 PUSH2 0x2299 JUMP JUMPDEST JUMPDEST PUSH2 0x239C DUP5 DUP3 DUP6 PUSH2 0x2355 JUMP JUMPDEST POP SWAP4 SWAP3 POP POP POP JUMP JUMPDEST PUSH0 DUP3 PUSH1 0x1F DUP4 ADD SLT PUSH2 0x23B8 JUMPI PUSH2 0x23B7 PUSH2 0x2295 JUMP JUMPDEST JUMPDEST DUP2 CALLDATALOAD PUSH2 0x23C8 DUP5 DUP3 PUSH1 0x20 DUP7 ADD PUSH2 0x2363 JUMP JUMPDEST SWAP2 POP POP SWAP3 SWAP2 POP POP JUMP JUMPDEST PUSH0 PUSH0 PUSH1 0x40 DUP4 DUP6 SUB SLT ISZERO PUSH2 0x23E7 JUMPI PUSH2 0x23E6 PUSH2 0x21E9 JUMP JUMPDEST JUMPDEST PUSH0 PUSH2 0x23F4 DUP6 DUP3 DUP7 ADD PUSH2 0x2218 JUMP JUMPDEST SWAP3 POP POP PUSH1 0x20 DUP4 ADD CALLDATALOAD PUSH8 0xFFFFFFFFFFFFFFFF DUP2 GT ISZERO PUSH2 0x2415 JUMPI PUSH2 0x2414 PUSH2 0x21ED JUMP JUMPDEST JUMPDEST PUSH2 0x2421 DUP6 DUP3 DUP7 ADD PUSH2 0x23A4 JUMP JUMPDEST SWAP2 POP POP SWAP3 POP SWAP3 SWAP1 POP JUMP JUMPDEST PUSH0 DUP2 SWAP1 POP SWAP2 SWAP1 POP JUMP JUMPDEST PUSH2 0x243D DUP2 PUSH2 0x242B JUMP JUMPDEST DUP3 MSTORE POP POP JUMP JUMPDEST PUSH0 PUSH1 0x20 DUP3 ADD SWAP1 POP PUSH2 0x2456 PUSH0 DUP4 ADD DUP5 PUSH2 0x2434 JUMP JUMPDEST SWAP3 SWAP2 POP POP JUMP JUMPDEST PUSH0 PUSH2 0x2466 DUP3 PUSH2 0x2196 JUMP JUMPDEST SWAP1 POP SWAP2 SWAP1 POP JUMP JUMPDEST PUSH2 0x2476 DUP2 PUSH2 0x245C JUMP JUMPDEST DUP3 MSTORE POP POP JUMP JUMPDEST PUSH0 PUSH1 0x20 DUP3 ADD SWAP1 POP PUSH2 0x248F PUSH0 DUP4 ADD DUP5 PUSH2 0x246D JUMP JUMPDEST SWAP3 SWAP2 POP POP JUMP JUMPDEST PUSH0 DUP2 SWAP1 POP SWAP2 SWAP1 POP JUMP JUMPDEST PUSH2 0x24A7 DUP2 PUSH2 0x2495 JUMP JUMPDEST DUP2 EQ PUSH2 0x24B1 JUMPI PUSH0 PUSH0 REVERT JUMPDEST POP JUMP JUMPDEST PUSH0 DUP2 CALLDATALOAD SWAP1 POP PUSH2 0x24C2 DUP2 PUSH2 0x249E JUMP JUMPDEST SWAP3 SWAP2 POP POP JUMP JUMPDEST PUSH0 PUSH0 PUSH0 PUSH1 0x60 DUP5 DUP7 SUB SLT ISZERO PUSH2 0x24DF JUMPI PUSH2 0x24DE PUSH2 0x21E9 JUMP JUMPDEST JUMPDEST PUSH0 PUSH2 0x24EC DUP7 DUP3 DUP8 ADD PUSH2 0x24B4 JUMP JUMPDEST SWAP4 POP POP PUSH1 0x20 PUSH2 0x24FD DUP7 DUP3 DUP8 ADD PUSH2 0x24B4 JUMP JUMPDEST SWAP3 POP POP PUSH1 0x40 PUSH2 0x250E DUP7 DUP3 DUP8 ADD PUSH2 0x2218 JUMP JUMPDEST SWAP2 POP POP SWAP3 POP SWAP3 POP SWAP3 JUMP JUMPDEST PUSH0 PUSH0 PUSH0 PUSH0 PUSH1 0x80 DUP6 DUP8 SUB SLT ISZERO PUSH2 0x2530 JUMPI PUSH2 0x252F PUSH2 0x21E9 JUMP JUMPDEST JUMPDEST PUSH0 PUSH2 0x253D DUP8 DUP3 DUP9 ADD PUSH2 0x24B4 JUMP JUMPDEST SWAP5 POP POP PUSH1 0x20 PUSH2 0x254E DUP8 DUP3 DUP9 ADD PUSH2 0x24B4 JUMP JUMPDEST SWAP4 POP POP PUSH1 0x40 PUSH2 0x255F DUP8 DUP3 DUP9 ADD PUSH2 0x2218 JUMP JUMPDEST SWAP3 POP POP PUSH1 0x60 PUSH2 0x2570 DUP8 DUP3 DUP9 ADD PUSH2 0x24B4 JUMP JUMPDEST SWAP2 POP POP SWAP3 SWAP6 SWAP2 SWAP5 POP SWAP3 POP JUMP JUMPDEST PUSH0 PUSH8 0xFFFFFFFFFFFFFFFF DUP3 AND SWAP1 POP SWAP2 SWAP1 POP JUMP JUMPDEST PUSH2 0x2598 DUP2 PUSH2 0x257C JUMP JUMPDEST DUP2 EQ PUSH2 0x25A2 JUMPI PUSH0 PUSH0 REVERT JUMPDEST POP JUMP JUMPDEST PUSH0 DUP2 CALLDATALOAD SWAP1 POP PUSH2 0x25B3 DUP2 PUSH2 0x258F JUMP JUMPDEST SWAP3 SWAP2 POP POP JUMP JUMPDEST PUSH0 PUSH0 PUSH0 PUSH0 PUSH1 0x80 DUP6 DUP8 SUB SLT ISZERO PUSH2 0x25D1 JUMPI PUSH2 0x25D0 PUSH2 0x21E9 JUMP JUMPDEST JUMPDEST PUSH0 PUSH2 0x25DE DUP8 DUP3 DUP9 ADD PUSH2 0x25A5 JUMP JUMPDEST SWAP5 POP POP PUSH1 0x20 PUSH2 0x25EF DUP8 DUP3 DUP9 ADD PUSH2 0x24B4 JUMP JUMPDEST SWAP4 POP POP PUSH1 0x40 PUSH2 0x2600 DUP8 DUP3 DUP9 ADD PUSH2 0x24B4 JUMP JUMPDEST SWAP3 POP POP PUSH1 0x60 PUSH2 0x2611 DUP8 DUP3 DUP9 ADD PUSH2 0x2218 JUMP JUMPDEST SWAP2 POP POP SWAP3 SWAP6 SWAP2 SWAP5 POP SWAP3 POP JUMP JUMPDEST PUSH0 PUSH1 0x20 DUP3 DUP5 SUB SLT ISZERO PUSH2 0x2632 JUMPI PUSH2 0x2631 PUSH2 0x21E9 JUMP JUMPDEST JUMPDEST PUSH0 PUSH2 0x263F DUP5 DUP3 DUP6 ADD PUSH2 0x24B4 JUMP JUMPDEST SWAP2 POP POP SWAP3 SWAP2 POP POP JUMP JUMPDEST PUSH2 0x2651 DUP2 PUSH2 0x21F1 JUMP JUMPDEST DUP3 MSTORE POP POP JUMP JUMPDEST PUSH2 0x2660 DUP2 PUSH2 0x2495 JUMP JUMPDEST DUP3 MSTORE POP POP JUMP JUMPDEST PUSH0 DUP2 ISZERO ISZERO SWAP1 POP SWAP2 SWAP1 POP JUMP JUMPDEST PUSH2 0x267A DUP2 PUSH2 0x2666 JUMP JUMPDEST DUP3 MSTORE POP POP JUMP JUMPDEST PUSH0 PUSH2 0x140 DUP3 ADD SWAP1 POP PUSH2 0x2694 PUSH0 DUP4 ADD DUP14 PUSH2 0x2648 JUMP JUMPDEST PUSH2 0x26A1 PUSH1 0x20 DUP4 ADD DUP13 PUSH2 0x2657 JUMP JUMPDEST PUSH2 0x26AE PUSH1 0x40 DUP4 ADD DUP12 PUSH2 0x2657 JUMP JUMPDEST PUSH2 0x26BB PUSH1 0x60 DUP4 ADD DUP11 PUSH2 0x2657 JUMP JUMPDEST PUSH2 0x26C8 PUSH1 0x80 DUP4 ADD DUP10 PUSH2 0x2671 JUMP JUMPDEST PUSH2 0x26D5 PUSH1 0xA0 DUP4 ADD DUP9 PUSH2 0x2657 JUMP JUMPDEST PUSH2 0x26E2 PUSH1 0xC0 DUP4 ADD DUP8 PUSH2 0x2648 JUMP JUMPDEST PUSH2 0x26EF PUSH1 0xE0 DUP4 ADD DUP7 PUSH2 0x2648 JUMP JUMPDEST PUSH2 0x26FD PUSH2 0x100 DUP4 ADD DUP6 PUSH2 0x2657 JUMP JUMPDEST PUSH2 0x270B PUSH2 0x120 DUP4 ADD DUP5 PUSH2 0x2648 JUMP JUMPDEST SWAP12 SWAP11 POP POP POP POP POP POP POP POP POP POP POP JUMP JUMPDEST PUSH0 PUSH1 0x20 DUP3 ADD SWAP1 POP PUSH2 0x272D PUSH0 DUP4 ADD DUP5 PUSH2 0x2648 JUMP JUMPDEST SWAP3 SWAP2 POP POP JUMP JUMPDEST PUSH0 PUSH1 0x20 DUP3 ADD SWAP1 POP PUSH2 0x2746 PUSH0 DUP4 ADD DUP5 PUSH2 0x2657 JUMP JUMPDEST SWAP3 SWAP2 POP POP JUMP JUMPDEST PUSH0 DUP3 DUP3 MSTORE PUSH1 0x20 DUP3 ADD SWAP1 POP SWAP3 SWAP2 POP POP JUMP JUMPDEST PUSH32 0x46756E6374696F6E206D7573742062652063616C6C6564207468726F75676820 PUSH0 DUP3 ADD MSTORE PUSH32 0x64656C656761746563616C6C0000000000000000000000000000000000000000 PUSH1 0x20 DUP3 ADD MSTORE POP JUMP JUMPDEST PUSH0 PUSH2 0x27B6 PUSH1 0x2C DUP4 PUSH2 0x274C JUMP JUMPDEST SWAP2 POP PUSH2 0x27C1 DUP3 PUSH2 0x275C JUMP JUMPDEST PUSH1 0x40 DUP3 ADD SWAP1 POP SWAP2 SWAP1 POP JUMP JUMPDEST PUSH0 PUSH1 0x20 DUP3 ADD SWAP1 POP DUP2 DUP2 SUB PUSH0 DUP4 ADD MSTORE PUSH2 0x27E3 DUP2 PUSH2 0x27AA JUMP JUMPDEST SWAP1 POP SWAP2 SWAP1 POP JUMP JUMPDEST PUSH32 0x46756E6374696F6E206D7573742062652063616C6C6564207468726F75676820 PUSH0 DUP3 ADD MSTORE PUSH32 0x6163746976652070726F78790000000000000000000000000000000000000000 PUSH1 0x20 DUP3 ADD MSTORE POP JUMP JUMPDEST PUSH0 PUSH2 0x2844 PUSH1 0x2C DUP4 PUSH2 0x274C JUMP JUMPDEST SWAP2 POP PUSH2 0x284F DUP3 PUSH2 0x27EA JUMP JUMPDEST PUSH1 0x40 DUP3 ADD SWAP1 POP SWAP2 SWAP1 POP JUMP JUMPDEST PUSH0 PUSH1 0x20 DUP3 ADD SWAP1 POP DUP2 DUP2 SUB PUSH0 DUP4 ADD MSTORE PUSH2 0x2871 DUP2 PUSH2 0x2838 JUMP JUMPDEST SWAP1 POP SWAP2 SWAP1 POP JUMP JUMPDEST PUSH32 0x496E697469616C697A61626C653A20636F6E747261637420697320616C726561 PUSH0 DUP3 ADD MSTORE PUSH32 0x647920696E697469616C697A6564000000000000000000000000000000000000 PUSH1 0x20 DUP3 ADD MSTORE POP JUMP JUMPDEST PUSH0 PUSH2 0x28D2 PUSH1 0x2E DUP4 PUSH2 0x274C JUMP JUMPDEST SWAP2 POP PUSH2 0x28DD DUP3 PUSH2 0x2878 JUMP JUMPDEST PUSH1 0x40 DUP3 ADD SWAP1 POP SWAP2 SWAP1 POP JUMP JUMPDEST PUSH0 PUSH1 0x20 DUP3 ADD SWAP1 POP DUP2 DUP2 SUB PUSH0 DUP4 ADD MSTORE PUSH2 0x28FF DUP2 PUSH2 0x28C6 JUMP JUMPDEST SWAP1 POP SWAP2 SWAP1 POP JUMP JUMPDEST PUSH0 DUP2 SWAP1 POP SWAP2 SWAP1 POP JUMP JUMPDEST PUSH0 PUSH1 0xFF DUP3 AND SWAP1 POP SWAP2 SWAP1 POP JUMP JUMPDEST PUSH0 PUSH2 0x2935 PUSH2 0x2930 PUSH2 0x292B DUP5 PUSH2 0x2906 JUMP JUMPDEST PUSH2 0x216C JUMP JUMPDEST PUSH2 0x290F JUMP JUMPDEST SWAP1 POP SWAP2 SWAP1 POP JUMP JUMPDEST PUSH2 0x2945 DUP2 PUSH2 0x291B JUMP JUMPDEST DUP3 MSTORE POP POP JUMP JUMPDEST PUSH0 PUSH1 0x20 DUP3 ADD SWAP1 POP PUSH2 0x295E PUSH0 DUP4 ADD DUP5 PUSH2 0x293C JUMP JUMPDEST SWAP3 SWAP2 POP POP JUMP JUMPDEST PUSH32 0x555550535570677261646561626C653A206D757374206E6F742062652063616C PUSH0 DUP3 ADD MSTORE PUSH32 0x6C6564207468726F7567682064656C656761746563616C6C0000000000000000 PUSH1 0x20 DUP3 ADD MSTORE POP JUMP JUMPDEST PUSH0 PUSH2 0x29BE PUSH1 0x38 DUP4 PUSH2 0x274C JUMP JUMPDEST SWAP2 POP PUSH2 0x29C9 DUP3 PUSH2 0x2964 JUMP JUMPDEST PUSH1 0x40 DUP3 ADD SWAP1 POP SWAP2 SWAP1 POP JUMP JUMPDEST PUSH0 PUSH1 0x20 DUP3 ADD SWAP1 POP DUP2 DUP2 SUB PUSH0 DUP4 ADD MSTORE PUSH2 0x29EB DUP2 PUSH2 0x29B2 JUMP JUMPDEST SWAP1 POP SWAP2 SWAP1 POP JUMP JUMPDEST PUSH32 0x4E487B7100000000000000000000000000000000000000000000000000000000 PUSH0 MSTORE PUSH1 0x11 PUSH1 0x4 MSTORE PUSH1 0x24 PUSH0 REVERT JUMPDEST PUSH0 PUSH2 0x2A29 DUP3 PUSH2 0x2495 JUMP JUMPDEST SWAP2 POP PUSH2 0x2A34 DUP4 PUSH2 0x2495 JUMP JUMPDEST SWAP3 POP DUP3 DUP3 ADD SWAP1 POP DUP1 DUP3 GT ISZERO PUSH2 0x2A4C JUMPI PUSH2 0x2A4B PUSH2 0x29F2 JUMP JUMPDEST JUMPDEST SWAP3 SWAP2 POP POP JUMP JUMPDEST PUSH32 0x41756374696F6E2068617320616C726561647920656E64656400000000000000 PUSH0 DUP3 ADD MSTORE POP JUMP JUMPDEST PUSH0 PUSH2 0x2A86 PUSH1 0x19 DUP4 PUSH2 0x274C JUMP JUMPDEST SWAP2 POP PUSH2 0x2A91 DUP3 PUSH2 0x2A52 JUMP JUMPDEST PUSH1 0x20 DUP3 ADD SWAP1 POP SWAP2 SWAP1 POP JUMP JUMPDEST PUSH0 PUSH1 0x20 DUP3 ADD SWAP1 POP DUP2 DUP2 SUB PUSH0 DUP4 ADD MSTORE PUSH2 0x2AB3 DUP2 PUSH2 0x2A7A JUMP JUMPDEST SWAP1 POP SWAP2 SWAP1 POP JUMP JUMPDEST PUSH32 0x42696420746F6F206C6F77000000000000000000000000000000000000000000 PUSH0 DUP3 ADD MSTORE POP JUMP JUMPDEST PUSH0 PUSH2 0x2AEE PUSH1 0xB DUP4 PUSH2 0x274C JUMP JUMPDEST SWAP2 POP PUSH2 0x2AF9 DUP3 PUSH2 0x2ABA JUMP JUMPDEST PUSH1 0x20 DUP3 ADD SWAP1 POP SWAP2 SWAP1 POP JUMP JUMPDEST PUSH0 PUSH1 0x20 DUP3 ADD SWAP1 POP DUP2 DUP2 SUB PUSH0 DUP4 ADD MSTORE PUSH2 0x2B1B DUP2 PUSH2 0x2AE2 JUMP JUMPDEST SWAP1 POP SWAP2 SWAP1 POP JUMP JUMPDEST PUSH32 0x45544820616D6F756E74206D69736D6174636800000000000000000000000000 PUSH0 DUP3 ADD MSTORE POP JUMP JUMPDEST PUSH0 PUSH2 0x2B56 PUSH1 0x13 DUP4 PUSH2 0x274C JUMP JUMPDEST SWAP2 POP PUSH2 0x2B61 DUP3 PUSH2 0x2B22 JUMP JUMPDEST PUSH1 0x20 DUP3 ADD SWAP1 POP SWAP2 SWAP1 POP JUMP JUMPDEST PUSH0 PUSH1 0x20 DUP3 ADD SWAP1 POP DUP2 DUP2 SUB PUSH0 DUP4 ADD MSTORE PUSH2 0x2B83 DUP2 PUSH2 0x2B4A JUMP JUMPDEST SWAP1 POP SWAP2 SWAP1 POP JUMP JUMPDEST PUSH0 PUSH1 0x60 DUP3 ADD SWAP1 POP PUSH2 0x2B9D PUSH0 DUP4 ADD DUP7 PUSH2 0x2648 JUMP JUMPDEST PUSH2 0x2BAA PUSH1 0x20 DUP4 ADD DUP6 PUSH2 0x2648 JUMP JUMPDEST PUSH2 0x2BB7 PUSH1 0x40 DUP4 ADD DUP5 PUSH2 0x2657 JUMP JUMPDEST SWAP5 SWAP4 POP POP POP POP JUMP JUMPDEST PUSH2 0x2BC8 DUP2 PUSH2 0x2666 JUMP JUMPDEST DUP2 EQ PUSH2 0x2BD2 JUMPI PUSH0 PUSH0 REVERT JUMPDEST POP JUMP JUMPDEST PUSH0 DUP2 MLOAD SWAP1 POP PUSH2 0x2BE3 DUP2 PUSH2 0x2BBF JUMP JUMPDEST SWAP3 SWAP2 POP POP JUMP JUMPDEST PUSH0 PUSH1 0x20 DUP3 DUP5 SUB SLT ISZERO PUSH2 0x2BFE JUMPI PUSH2 0x2BFD PUSH2 0x21E9 JUMP JUMPDEST JUMPDEST PUSH0 PUSH2 0x2C0B DUP5 DUP3 DUP6 ADD PUSH2 0x2BD5 JUMP JUMPDEST SWAP2 POP POP SWAP3 SWAP2 POP POP JUMP JUMPDEST PUSH0 PUSH1 0x40 DUP3 ADD SWAP1 POP PUSH2 0x2C27 PUSH0 DUP4 ADD DUP6 PUSH2 0x2648 JUMP JUMPDEST PUSH2 0x2C34 PUSH1 0x20 DUP4 ADD DUP5 PUSH2 0x2657 JUMP JUMPDEST SWAP4 SWAP3 POP POP POP JUMP JUMPDEST PUSH32 0x41756374696F6E206475726174696F6E206E6565647320746F20626520617420 PUSH0 DUP3 ADD MSTORE PUSH32 0x6C65617374203130307300000000000000000000000000000000000000000000 PUSH1 0x20 DUP3 ADD MSTORE POP JUMP JUMPDEST PUSH0 PUSH2 0x2C95 PUSH1 0x2A DUP4 PUSH2 0x274C JUMP JUMPDEST SWAP2 POP PUSH2 0x2CA0 DUP3 PUSH2 0x2C3B JUMP JUMPDEST PUSH1 0x40 DUP3 ADD SWAP1 POP SWAP2 SWAP1 POP JUMP JUMPDEST PUSH0 PUSH1 0x20 DUP3 ADD SWAP1 POP DUP2 DUP2 SUB PUSH0 DUP4 ADD MSTORE PUSH2 0x2CC2 DUP2 PUSH2 0x2C89 JUMP JUMPDEST SWAP1 POP SWAP2 SWAP1 POP JUMP JUMPDEST PUSH32 0x5374617274207072696365206D7573742062652067726561746572207468616E PUSH0 DUP3 ADD MSTORE PUSH32 0x2030000000000000000000000000000000000000000000000000000000000000 PUSH1 0x20 DUP3 ADD MSTORE POP JUMP JUMPDEST PUSH0 PUSH2 0x2D23 PUSH1 0x22 DUP4 PUSH2 0x274C JUMP JUMPDEST SWAP2 POP PUSH2 0x2D2E DUP3 PUSH2 0x2CC9 JUMP JUMPDEST PUSH1 0x40 DUP3 ADD SWAP1 POP SWAP2 SWAP1 POP JUMP JUMPDEST PUSH0 PUSH1 0x20 DUP3 ADD SWAP1 POP DUP2 DUP2 SUB PUSH0 DUP4 ADD MSTORE PUSH2 0x2D50 DUP2 PUSH2 0x2D17 JUMP JUMPDEST SWAP1 POP SWAP2 SWAP1 POP JUMP JUMPDEST PUSH0 PUSH2 0x2D61 DUP3 PUSH2 0x2495 JUMP JUMPDEST SWAP2 POP PUSH32 0xFFFFFFFFFFFFFFFFFFFFFFFFFFFFFFFFFFFFFFFFFFFFFFFFFFFFFFFFFFFFFFFF DUP3 SUB PUSH2 0x2D93 JUMPI PUSH2 0x2D92 PUSH2 0x29F2 JUMP JUMPDEST JUMPDEST PUSH1 0x1 DUP3 ADD SWAP1 POP SWAP2 SWAP1 POP JUMP JUMPDEST PUSH32 0x43434950206E6F7420636F6E6669677572656400000000000000000000000000 PUSH0 DUP3 ADD MSTORE POP JUMP JUMPDEST PUSH0 PUSH2 0x2DD2 PUSH1 0x13 DUP4 PUSH2 0x274C JUMP JUMPDEST SWAP2 POP PUSH2 0x2DDD DUP3 PUSH2 0x2D9E JUMP JUMPDEST PUSH1 0x20 DUP3 ADD SWAP1 POP SWAP2 SWAP1 POP JUMP JUMPDEST PUSH0 PUSH1 0x20 DUP3 ADD SWAP1 POP DUP2 DUP2 SUB PUSH0 DUP4 ADD MSTORE PUSH2 0x2DFF DUP2 PUSH2 0x2DC6 JUMP JUMPDEST SWAP1 POP SWAP2 SWAP1 POP JUMP JUMPDEST PUSH0 PUSH1 0x60 DUP3 ADD SWAP1 POP PUSH2 0x2E19 PUSH0 DUP4 ADD DUP7 PUSH2 0x2657 JUMP JUMPDEST PUSH2 0x2E26 PUSH1 0x20 DUP4 ADD DUP6 PUSH2 0x2657 JUMP JUMPDEST PUSH2 0x2E33 PUSH1 0x40 DUP4 ADD DUP5 PUSH2 0x2648 JUMP JUMPDEST SWAP5 SWAP4 POP POP POP POP JUMP JUMPDEST PUSH2 0x2E44 DUP2 PUSH2 0x257C JUMP JUMPDEST DUP3 MSTORE POP POP JUMP JUMPDEST PUSH0 DUP2 MLOAD SWAP1 POP SWAP2 SWAP1 POP JUMP JUMPDEST PUSH0 DUP3 DUP3 MSTORE PUSH1 0x20 DUP3 ADD SWAP1 POP SWAP3 SWAP2 POP POP JUMP JUMPDEST DUP3 DUP2 DUP4 MCOPY PUSH0 DUP4 DUP4 ADD MSTORE POP POP POP JUMP JUMPDEST PUSH0 PUSH2 0x2E7C DUP3 PUSH2 0x2E4A JUMP JUMPDEST PUSH2 0x2E86 DUP2 DUP6 PUSH2 0x2E54 JUMP JUMPDEST SWAP4 POP PUSH2 0x2E96 DUP2 DUP6 PUSH1 0x20 DUP7 ADD PUSH2 0x2E64 JUMP JUMPDEST PUSH2 0x2E9F DUP2 PUSH2 0x229D JUMP JUMPDEST DUP5 ADD SWAP2 POP POP SWAP3 SWAP2 POP POP JUMP JUMPDEST PUSH0 DUP2 MLOAD SWAP1 POP SWAP2 SWAP1 POP JUMP JUMPDEST PUSH0 DUP3 DUP3 MSTORE PUSH1 0x20 DUP3 ADD SWAP1 POP SWAP3 SWAP2 POP POP JUMP JUMPDEST PUSH0 DUP2 SWAP1 POP PUSH1 0x20 DUP3 ADD SWAP1 POP SWAP2 SWAP1 POP JUMP JUMPDEST PUSH2 0x2EDC DUP2 PUSH2 0x21F1 JUMP JUMPDEST DUP3 MSTORE POP POP JUMP JUMPDEST PUSH2 0x2EEB DUP2 PUSH2 0x2495 JUMP JUMPDEST DUP3 MSTORE POP POP JUMP JUMPDEST PUSH1 0x40 DUP3 ADD PUSH0 DUP3 ADD MLOAD PUSH2 0x2F05 PUSH0 DUP6 ADD DUP3 PUSH2 0x2ED3 JUMP JUMPDEST POP PUSH1 0x20 DUP3 ADD MLOAD PUSH2 0x2F18 PUSH1 0x20 DUP6 ADD DUP3 PUSH2 0x2EE2 JUMP JUMPDEST POP POP POP POP JUMP JUMPDEST PUSH0 PUSH2 0x2F29 DUP4 DUP4 PUSH2 0x2EF1 JUMP JUMPDEST PUSH1 0x40 DUP4 ADD SWAP1 POP SWAP3 SWAP2 POP POP JUMP JUMPDEST PUSH0 PUSH1 0x20 DUP3 ADD SWAP1 POP SWAP2 SWAP1 POP JUMP JUMPDEST PUSH0 PUSH2 0x2F4B DUP3 PUSH2 0x2EAA JUMP JUMPDEST PUSH2 0x2F55 DUP2 DUP6 PUSH2 0x2EB4 JUMP JUMPDEST SWAP4 POP PUSH2 0x2F60 DUP4 PUSH2 0x2EC4 JUMP JUMPDEST DUP1 PUSH0 JUMPDEST DUP4 DUP2 LT ISZERO PUSH2 0x2F90 JUMPI DUP2 MLOAD PUSH2 0x2F77 DUP9 DUP3 PUSH2 0x2F1E JUMP JUMPDEST SWAP8 POP PUSH2 0x2F82 DUP4 PUSH2 0x2F35 JUMP JUMPDEST SWAP3 POP POP PUSH1 0x1 DUP2 ADD SWAP1 POP PUSH2 0x2F63 JUMP JUMPDEST POP DUP6 SWAP4 POP POP POP POP SWAP3 SWAP2 POP POP JUMP JUMPDEST PUSH0 PUSH1 0xA0 DUP4 ADD PUSH0 DUP4 ADD MLOAD DUP5 DUP3 SUB PUSH0 DUP7 ADD MSTORE PUSH2 0x2FB7 DUP3 DUP3 PUSH2 0x2E72 JUMP JUMPDEST SWAP2 POP POP PUSH1 0x20 DUP4 ADD MLOAD DUP5 DUP3 SUB PUSH1 0x20 DUP7 ADD MSTORE PUSH2 0x2FD1 DUP3 DUP3 PUSH2 0x2E72 JUMP JUMPDEST SWAP2 POP POP PUSH1 0x40 DUP4 ADD MLOAD DUP5 DUP3 SUB PUSH1 0x40 DUP7 ADD MSTORE PUSH2 0x2FEB DUP3 DUP3 PUSH2 0x2F41 JUMP JUMPDEST SWAP2 POP POP PUSH1 0x60 DUP4 ADD MLOAD PUSH2 0x3000 PUSH1 0x60 DUP7 ADD DUP3 PUSH2 0x2ED3 JUMP JUMPDEST POP PUSH1 0x80 DUP4 ADD MLOAD DUP5 DUP3 SUB PUSH1 0x80 DUP7 ADD MSTORE PUSH2 0x3018 DUP3 DUP3 PUSH2 0x2E72 JUMP JUMPDEST SWAP2 POP POP DUP1 SWAP2 POP POP SWAP3 SWAP2 POP POP JUMP JUMPDEST PUSH0 PUSH1 0x40 DUP3 ADD SWAP1 POP PUSH2 0x3038 PUSH0 DUP4 ADD DUP6 PUSH2 0x2E3B JUMP JUMPDEST DUP2 DUP2 SUB PUSH1 0x20 DUP4 ADD MSTORE PUSH2 0x304A DUP2 DUP5 PUSH2 0x2F9D JUMP JUMPDEST SWAP1 POP SWAP4 SWAP3 POP POP POP JUMP JUMPDEST PUSH2 0x305C DUP2 PUSH2 0x242B JUMP JUMPDEST DUP2 EQ PUSH2 0x3066 JUMPI PUSH0 PUSH0 REVERT JUMPDEST POP JUMP JUMPDEST PUSH0 DUP2 MLOAD SWAP1 POP PUSH2 0x3077 DUP2 PUSH2 0x3053 JUMP JUMPDEST SWAP3 SWAP2 POP POP JUMP JUMPDEST PUSH0 PUSH1 0x20 DUP3 DUP5 SUB SLT ISZERO PUSH2 0x3092 JUMPI PUSH2 0x3091 PUSH2 0x21E9 JUMP JUMPDEST JUMPDEST PUSH0 PUSH2 0x309F DUP5 DUP3 DUP6 ADD PUSH2 0x3069 JUMP JUMPDEST SWAP2 POP POP SWAP3 SWAP2 POP POP JUMP JUMPDEST PUSH32 0x4F6E6C792073656C6C6572206F776E65722063616E20656E6400000000000000 PUSH0 DUP3 ADD MSTORE POP JUMP JUMPDEST PUSH0 PUSH2 0x30DC PUSH1 0x19 DUP4 PUSH2 0x274C JUMP JUMPDEST SWAP2 POP PUSH2 0x30E7 DUP3 PUSH2 0x30A8 JUMP JUMPDEST PUSH1 0x20 DUP3 ADD SWAP1 POP SWAP2 SWAP1 POP JUMP JUMPDEST PUSH0 PUSH1 0x20 DUP3 ADD SWAP1 POP DUP2 DUP2 SUB PUSH0 DUP4 ADD MSTORE PUSH2 0x3109 DUP2 PUSH2 0x30D0 JUMP JUMPDEST SWAP1 POP SWAP2 SWAP1 POP JUMP JUMPDEST PUSH32 0x41756374696F6E20686173206E6F7420656E6465642079657400000000000000 PUSH0 DUP3 ADD MSTORE POP JUMP JUMPDEST PUSH0 PUSH2 0x3144 PUSH1 0x19 DUP4 PUSH2 0x274C JUMP JUMPDEST SWAP2 POP PUSH2 0x314F DUP3 PUSH2 0x3110 JUMP JUMPDEST PUSH1 0x20 DUP3 ADD SWAP1 POP SWAP2 SWAP1 POP JUMP JUMPDEST PUSH0 PUSH1 0x20 DUP3 ADD SWAP1 POP DUP2 DUP2 SUB PUSH0 DUP4 ADD MSTORE PUSH2 0x3171 DUP2 PUSH2 0x3138 JUMP JUMPDEST SWAP1 POP SWAP2 SWAP1 POP JUMP JUMPDEST PUSH32 0x41756374696F6E20616C726561647920656E6465640000000000000000000000 PUSH0 DUP3 ADD MSTORE POP JUMP JUMPDEST PUSH0 PUSH2 0x31AC PUSH1 0x15 DUP4 PUSH2 0x274C JUMP JUMPDEST SWAP2 POP PUSH2 0x31B7 DUP3 PUSH2 0x3178 JUMP JUMPDEST PUSH1 0x20 DUP3 ADD SWAP1 POP SWAP2 SWAP1 POP JUMP JUMPDEST PUSH0 PUSH1 0x20 DUP3 ADD SWAP1 POP DUP2 DUP2 SUB PUSH0 DUP4 ADD MSTORE PUSH2 0x31D9 DUP2 PUSH2 0x31A0 JUMP JUMPDEST SWAP1 POP SWAP2 SWAP1 POP JUMP JUMPDEST PUSH32 0x45524331393637557067726164653A206E657720696D706C656D656E74617469 PUSH0 DUP3 ADD MSTORE PUSH32 0x6F6E206973206E6F742055555053000000000000000000000000000000000000 PUSH1 0x20 DUP3 ADD MSTORE POP JUMP JUMPDEST PUSH0 PUSH2 0x323A PUSH1 0x2E DUP4 PUSH2 0x274C JUMP JUMPDEST SWAP2 POP PUSH2 0x3245 DUP3 PUSH2 0x31E0 JUMP JUMPDEST PUSH1 0x40 DUP3 ADD SWAP1 POP SWAP2 SWAP1 POP JUMP JUMPDEST PUSH0 PUSH1 0x20 DUP3 ADD SWAP1 POP DUP2 DUP2 SUB PUSH0 DUP4 ADD MSTORE PUSH2 0x3267 DUP2 PUSH2 0x322E JUMP JUMPDEST SWAP1 POP SWAP2 SWAP1 POP JUMP JUMPDEST PUSH32 0x45524331393637557067726164653A20756E737570706F727465642070726F78 PUSH0 DUP3 ADD MSTORE PUSH32 0x6961626C65555549440000000000000000000000000000000000000000000000 PUSH1 0x20 DUP3 ADD MSTORE POP JUMP JUMPDEST PUSH0 PUSH2 0x32C8 PUSH1 0x29 DUP4 PUSH2 0x274C JUMP JUMPDEST SWAP2 POP PUSH2 0x32D3 DUP3 PUSH2 0x326E JUMP JUMPDEST PUSH1 0x40 DUP3 ADD SWAP1 POP SWAP2 SWAP1 POP JUMP JUMPDEST PUSH0 PUSH1 0x20 DUP3 ADD SWAP1 POP DUP2 DUP2 SUB PUSH0 DUP4 ADD MSTORE PUSH2 0x32F5 DUP2 PUSH2 0x32BC JUMP JUMPDEST SWAP1 POP SWAP2 SWAP1 POP JUMP JUMPDEST PUSH32 0x496E697469616C697A61626C653A20636F6E7472616374206973206E6F742069 PUSH0 DUP3 ADD MSTORE PUSH32 0x6E697469616C697A696E67000000000000000000000000000000000000000000 PUSH1 0x20 DUP3 ADD MSTORE POP JUMP JUMPDEST PUSH0 PUSH2 0x3356 PUSH1 0x2B DUP4 PUSH2 0x274C JUMP JUMPDEST SWAP2 POP PUSH2 0x3361 DUP3 PUSH2 0x32FC JUMP JUMPDEST PUSH1 0x40 DUP3 ADD SWAP1 POP SWAP2 SWAP1 POP JUMP JUMPDEST PUSH0 PUSH1 0x20 DUP3 ADD SWAP1 POP DUP2 DUP2 SUB PUSH0 DUP4 ADD MSTORE PUSH2 0x3383 DUP2 PUSH2 0x334A JUMP JUMPDEST SWAP1 POP SWAP2 SWAP1 POP JUMP JUMPDEST PUSH0 PUSH10 0xFFFFFFFFFFFFFFFFFFFF DUP3 AND SWAP1 POP SWAP2 SWAP1 POP JUMP JUMPDEST PUSH2 0x33A8 DUP2 PUSH2 0x338A JUMP JUMPDEST DUP2 EQ PUSH2 0x33B2 JUMPI PUSH0 PUSH0 REVERT JUMPDEST POP JUMP JUMPDEST PUSH0 DUP2 MLOAD SWAP1 POP PUSH2 0x33C3 DUP2 PUSH2 0x339F JUMP JUMPDEST SWAP3 SWAP2 POP POP JUMP JUMPDEST PUSH0 DUP2 SWAP1 POP SWAP2 SWAP1 POP JUMP JUMPDEST PUSH2 0x33DB DUP2 PUSH2 0x33C9 JUMP JUMPDEST DUP2 EQ PUSH2 0x33E5 JUMPI PUSH0 PUSH0 REVERT JUMPDEST POP JUMP JUMPDEST PUSH0 DUP2 MLOAD SWAP1 POP PUSH2 0x33F6 DUP2 PUSH2 0x33D2 JUMP JUMPDEST SWAP3 SWAP2 POP POP JUMP JUMPDEST PUSH0 DUP2 MLOAD SWAP1 POP PUSH2 0x340A DUP2 PUSH2 0x249E JUMP JUMPDEST SWAP3 SWAP2 POP POP JUMP JUMPDEST PUSH0 PUSH0 PUSH0 PUSH0 PUSH0 PUSH1 0xA0 DUP7 DUP9 SUB SLT ISZERO PUSH2 0x3429 JUMPI PUSH2 0x3428 PUSH2 0x21E9 JUMP JUMPDEST JUMPDEST PUSH0 PUSH2 0x3436 DUP9 DUP3 DUP10 ADD PUSH2 0x33B5 JUMP JUMPDEST SWAP6 POP POP PUSH1 0x20 PUSH2 0x3447 DUP9 DUP3 DUP10 ADD PUSH2 0x33E8 JUMP JUMPDEST SWAP5 POP POP PUSH1 0x40 PUSH2 0x3458 DUP9 DUP3 DUP10 ADD PUSH2 0x33FC JUMP JUMPDEST SWAP4 POP POP PUSH1 0x60 PUSH2 0x3469 DUP9 DUP3 DUP10 ADD PUSH2 0x33FC JUMP JUMPDEST SWAP3 POP POP PUSH1 0x80 PUSH2 0x347A DUP9 DUP3 DUP10 ADD PUSH2 0x33B5 JUMP JUMPDEST SWAP2 POP POP SWAP3 SWAP6 POP SWAP3 SWAP6 SWAP1 SWAP4 POP JUMP JUMPDEST PUSH2 0x3490 DUP2 PUSH2 0x290F JUMP JUMPDEST DUP2 EQ PUSH2 0x349A JUMPI PUSH0 PUSH0 REVERT JUMPDEST POP JUMP JUMPDEST PUSH0 DUP2 MLOAD SWAP1 POP PUSH2 0x34AB DUP2 PUSH2 0x3487 JUMP JUMPDEST SWAP3 SWAP2 POP POP JUMP JUMPDEST PUSH0 PUSH1 0x20 DUP3 DUP5 SUB SLT ISZERO PUSH2 0x34C6 JUMPI PUSH2 0x34C5 PUSH2 0x21E9 JUMP JUMPDEST JUMPDEST PUSH0 PUSH2 0x34D3 DUP5 DUP3 DUP6 ADD PUSH2 0x349D JUMP JUMPDEST SWAP2 POP POP SWAP3 SWAP2 POP POP JUMP JUMPDEST PUSH0 DUP2 PUSH1 0x1 SHR SWAP1 POP SWAP2 SWAP1 POP JUMP JUMPDEST PUSH0 PUSH0 DUP3 SWAP2 POP DUP4 SWAP1 POP JUMPDEST PUSH1 0x1 DUP6 GT ISZERO PUSH2 0x3531 JUMPI DUP1 DUP7 DIV DUP2 GT ISZERO PUSH2 0x350D JUMPI PUSH2 0x350C PUSH2 0x29F2 JUMP JUMPDEST JUMPDEST PUSH1 0x1 DUP6 AND ISZERO PUSH2 0x351C JUMPI DUP1 DUP3 MUL SWAP2 POP JUMPDEST DUP1 DUP2 MUL SWAP1 POP PUSH2 0x352A DUP6 PUSH2 0x34DC JUMP JUMPDEST SWAP5 POP PUSH2 0x34F1 JUMP JUMPDEST SWAP5 POP SWAP5 SWAP3 POP POP POP JUMP JUMPDEST PUSH0 DUP3 PUSH2 0x3549 JUMPI PUSH1 0x1 SWAP1 POP PUSH2 0x3604 JUMP JUMPDEST DUP2 PUSH2 0x3556 JUMPI PUSH0 SWAP1 POP PUSH2 0x3604 JUMP JUMPDEST DUP2 PUSH1 0x1 DUP2 EQ PUSH2 0x356C JUMPI PUSH1 0x2 DUP2 EQ PUSH2 0x3576 JUMPI PUSH2 0x35A5 JUMP JUMPDEST PUSH1 0x1 SWAP2 POP POP PUSH2 0x3604 JUMP JUMPDEST PUSH1 0xFF DUP5 GT ISZERO PUSH2 0x3588 JUMPI PUSH2 0x3587 PUSH2 0x29F2 JUMP JUMPDEST JUMPDEST DUP4 PUSH1 0x2 EXP SWAP2 POP DUP5 DUP3 GT ISZERO PUSH2 0x359F JUMPI PUSH2 0x359E PUSH2 0x29F2 JUMP JUMPDEST JUMPDEST POP PUSH2 0x3604 JUMP JUMPDEST POP PUSH1 0x20 DUP4 LT PUSH2 0x133 DUP4 LT AND PUSH1 0x4E DUP5 LT PUSH1 0xB DUP5 LT AND OR ISZERO PUSH2 0x35DA JUMPI DUP3 DUP3 EXP SWAP1 POP DUP4 DUP2 GT ISZERO PUSH2 0x35D5 JUMPI PUSH2 0x35D4 PUSH2 0x29F2 JUMP JUMPDEST JUMPDEST PUSH2 0x3604 JUMP JUMPDEST PUSH2 0x35E7 DUP5 DUP5 DUP5 PUSH1 0x1 PUSH2 0x34E8 JUMP JUMPDEST SWAP3 POP SWAP1 POP DUP2 DUP5 DIV DUP2 GT ISZERO PUSH2 0x35FE JUMPI PUSH2 0x35FD PUSH2 0x29F2 JUMP JUMPDEST JUMPDEST DUP2 DUP2 MUL SWAP1 POP JUMPDEST SWAP4 SWAP3 POP POP POP JUMP JUMPDEST PUSH0 PUSH2 0x3615 DUP3 PUSH2 0x2495 JUMP JUMPDEST SWAP2 POP PUSH2 0x3620 DUP4 PUSH2 0x290F JUMP JUMPDEST SWAP3 POP PUSH2 0x364D PUSH32 0xFFFFFFFFFFFFFFFFFFFFFFFFFFFFFFFFFFFFFFFFFFFFFFFFFFFFFFFFFFFFFFFF DUP5 DUP5 PUSH2 0x353A JUMP JUMPDEST SWAP1 POP SWAP3 SWAP2 POP POP JUMP JUMPDEST PUSH0 PUSH2 0x365F DUP3 PUSH2 0x2495 JUMP JUMPDEST SWAP2 POP PUSH2 0x366A DUP4 PUSH2 0x2495 JUMP JUMPDEST SWAP3 POP DUP3 DUP3 MUL PUSH2 0x3678 DUP2 PUSH2 0x2495 JUMP JUMPDEST SWAP2 POP DUP3 DUP3 DIV DUP5 EQ DUP4 ISZERO OR PUSH2 0x368F JUMPI PUSH2 0x368E PUSH2 0x29F2 JUMP JUMPDEST JUMPDEST POP SWAP3 SWAP2 POP POP JUMP JUMPDEST PUSH32 0x4E487B7100000000000000000000000000000000000000000000000000000000 PUSH0 MSTORE PUSH1 0x12 PUSH1 0x4 MSTORE PUSH1 0x24 PUSH0 REVERT JUMPDEST PUSH0 PUSH2 0x36CD DUP3 PUSH2 0x2495 JUMP JUMPDEST SWAP2 POP PUSH2 0x36D8 DUP4 PUSH2 0x2495 JUMP JUMPDEST SWAP3 POP DUP3 PUSH2 0x36E8 JUMPI PUSH2 0x36E7 PUSH2 0x3696 JUMP JUMPDEST JUMPDEST DUP3 DUP3 DIV SWAP1 POP SWAP3 SWAP2 POP POP JUMP JUMPDEST PUSH1 0x20 DUP3 ADD PUSH0 DUP3 ADD MLOAD PUSH2 0x3707 PUSH0 DUP6 ADD DUP3 PUSH2 0x2EE2 JUMP JUMPDEST POP POP POP POP JUMP JUMPDEST PUSH0 PUSH1 0x20 DUP3 ADD SWAP1 POP PUSH2 0x3720 PUSH0 DUP4 ADD DUP5 PUSH2 0x36F3 JUMP JUMPDEST SWAP3 SWAP2 POP POP JUMP JUMPDEST PUSH32 0x455243313936373A206E657720696D706C656D656E746174696F6E206973206E PUSH0 DUP3 ADD MSTORE PUSH32 0x6F74206120636F6E747261637400000000000000000000000000000000000000 PUSH1 0x20 DUP3 ADD MSTORE POP JUMP JUMPDEST PUSH0 PUSH2 0x3780 PUSH1 0x2D DUP4 PUSH2 0x274C JUMP JUMPDEST SWAP2 POP PUSH2 0x378B DUP3 PUSH2 0x3726 JUMP JUMPDEST PUSH1 0x40 DUP3 ADD SWAP1 POP SWAP2 SWAP1 POP JUMP JUMPDEST PUSH0 PUSH1 0x20 DUP3 ADD SWAP1 POP DUP2 DUP2 SUB PUSH0 DUP4 ADD MSTORE PUSH2 0x37AD DUP2 PUSH2 0x3774 JUMP JUMPDEST SWAP1 POP SWAP2 SWAP1 POP JUMP JUMPDEST PUSH0 DUP2 SWAP1 POP SWAP3 SWAP2 POP POP JUMP JUMPDEST PUSH0 PUSH2 0x37C8 DUP3 PUSH2 0x2E4A JUMP JUMPDEST PUSH2 0x37D2 DUP2 DUP6 PUSH2 0x37B4 JUMP JUMPDEST SWAP4 POP PUSH2 0x37E2 DUP2 DUP6 PUSH1 0x20 DUP7 ADD PUSH2 0x2E64 JUMP JUMPDEST DUP1 DUP5 ADD SWAP2 POP POP SWAP3 SWAP2 POP POP JUMP JUMPDEST PUSH0 PUSH2 0x37F9 DUP3 DUP5 PUSH2 0x37BE JUMP JUMPDEST SWAP2 POP DUP2 SWAP1 POP SWAP3 SWAP2 POP POP JUMP JUMPDEST PUSH32 0x416464726573733A2063616C6C20746F206E6F6E2D636F6E7472616374000000 PUSH0 DUP3 ADD MSTORE POP JUMP JUMPDEST PUSH0 PUSH2 0x3838 PUSH1 0x1D DUP4 PUSH2 0x274C JUMP JUMPDEST SWAP2 POP PUSH2 0x3843 DUP3 PUSH2 0x3804 JUMP JUMPDEST PUSH1 0x20 DUP3 ADD SWAP1 POP SWAP2 SWAP1 POP JUMP JUMPDEST PUSH0 PUSH1 0x20 DUP3 ADD SWAP1 POP DUP2 DUP2 SUB PUSH0 DUP4 ADD MSTORE PUSH2 0x3865 DUP2 PUSH2 0x382C JUMP JUMPDEST SWAP1 POP SWAP2 SWAP1 POP JUMP JUMPDEST PUSH0 DUP2 MLOAD SWAP1 POP SWAP2 SWAP1 POP JUMP JUMPDEST PUSH0 PUSH2 0x3880 DUP3 PUSH2 0x386C JUMP JUMPDEST PUSH2 0x388A DUP2 DUP6 PUSH2 0x274C JUMP JUMPDEST SWAP4 POP PUSH2 0x389A DUP2 DUP6 PUSH1 0x20 DUP7 ADD PUSH2 0x2E64 JUMP JUMPDEST PUSH2 0x38A3 DUP2 PUSH2 0x229D JUMP JUMPDEST DUP5 ADD SWAP2 POP POP SWAP3 SWAP2 POP POP JUMP JUMPDEST PUSH0 PUSH1 0x20 DUP3 ADD SWAP1 POP DUP2 DUP2 SUB PUSH0 DUP4 ADD MSTORE PUSH2 0x38C6 DUP2 DUP5 PUSH2 0x3876 JUMP JUMPDEST SWAP1 POP SWAP3 SWAP2 POP POP JUMP INVALID COINBASE PUSH5 0x6472657373 GASPRICE KECCAK256 PUSH13 0x6F772D6C6576656C2064656C65 PUSH8 0x6174652063616C6C KECCAK256 PUSH7 0x61696C6564A264 PUSH10 0x7066735822122078D2E1 0x22 SWAP11 RJUMPI 0x4699 0xE 0xD0 PUSH24 0xEA1372FB3BB75223E3430FB6A5DE108A37BF38819A64736F PUSH13 0x634300081E0033000000000000 "
				},
				"gasEstimates": {
					"creation": {
						"codeDepositCost": "2927000",
						"executionCost": "infinite",
						"totalCost": "infinite"
					},
					"external": {
						"Auctions(uint256)": "infinite",
						"admin()": "2574",
						"ccipRouter()": "infinite",
						"createAuction(uint256,uint256,address,uint256)": "infinite",
						"endAuction(uint256)": "infinite",
						"ethPriceFeed()": "infinite",
						"initialize(address,address)": "infinite",
						"nextAuctionId()": "2513",
						"placeBid(uint256,uint256,address)": "infinite",
						"priceFeeds(address)": "infinite",
						"proxiableUUID()": "infinite",
						"sendCrossChainBid(uint64,uint256,uint256,address)": "infinite",
						"setPriceETHFeed(address,address)": "infinite",
						"upgradeTo(address)": "infinite",
						"upgradeToAndCall(address,bytes)": "infinite"
					},
					"internal": {
						"_authorizeUpgrade(address)": "11",
						"_convertToUSD(uint256,address)": "infinite"
					}
				},
				"methodIdentifiers": {
					"Auctions(uint256)": "e8cd181f",
					"admin()": "f851a440",
					"ccipRouter()": "0de22984",
					"createAuction(uint256,uint256,address,uint256)": "b1cb48ef",
					"endAuction(uint256)": "b9a2de3a",
					"ethPriceFeed()": "af7665ce",
					"initialize(address,address)": "485cc955",
					"nextAuctionId()": "fc528482",
					"placeBid(uint256,uint256,address)": "ad6561ec",
					"priceFeeds(address)": "9dcb511a",
					"proxiableUUID()": "52d1902d",
					"sendCrossChainBid(uint64,uint256,uint256,address)": "b2703dc6",
					"setPriceETHFeed(address,address)": "a48e3815",
					"upgradeTo(address)": "3659cfe6",
					"upgradeToAndCall(address,bytes)": "4f1ef286"
				}
			},
			"storageLayout": {
				"storage": [
					{
						"astId": 540,
						"contract": "contracts/NFTAuction.sol:NFTAuction",
						"label": "_initialized",
						"offset": 0,
						"slot": "0",
						"type": "t_uint8"
					},
					{
						"astId": 543,
						"contract": "contracts/NFTAuction.sol:NFTAuction",
						"label": "_initializing",
						"offset": 1,
						"slot": "0",
						"type": "t_bool"
					},
					{
						"astId": 522,
						"contract": "contracts/NFTAuction.sol:NFTAuction",
						"label": "__gap",
						"offset": 0,
						"slot": "1",
						"type": "t_array(t_uint256)50_storage"
					},
					{
						"astId": 837,
						"contract": "contracts/NFTAuction.sol:NFTAuction",
						"label": "__gap",
						"offset": 0,
						"slot": "51",
						"type": "t_array(t_uint256)50_storage"
					},
					{
						"astId": 1521,
						"contract": "contracts/NFTAuction.sol:NFTAuction",
						"label": "Auctions",
						"offset": 0,
						"slot": "101",
						"type": "t_mapping(t_uint256,t_struct(Auction)1516_storage)"
					},
					{
						"astId": 1523,
						"contract": "contracts/NFTAuction.sol:NFTAuction",
						"label": "admin",
						"offset": 0,
						"slot": "102",
						"type": "t_address"
					},
					{
						"astId": 1525,
						"contract": "contracts/NFTAuction.sol:NFTAuction",
						"label": "nextAuctionId",
						"offset": 0,
						"slot": "103",
						"type": "t_uint256"
					},
					{
						"astId": 1528,
						"contract": "contracts/NFTAuction.sol:NFTAuction",
						"label": "ethPriceFeed",
						"offset": 0,
						"slot": "104",
						"type": "t_contract(AggregatorV3Interface)168"
					},
					{
						"astId": 1533,
						"contract": "contracts/NFTAuction.sol:NFTAuction",
						"label": "priceFeeds",
						"offset": 0,
						"slot": "105",
						"type": "t_mapping(t_address,t_contract(AggregatorV3Interface)168)"
					},
					{
						"astId": 1536,
						"contract": "contracts/NFTAuction.sol:NFTAuction",
						"label": "ccipRouter",
						"offset": 0,
						"slot": "106",
						"type": "t_contract(IRouterClient)42"
					}
				],
				"types": {
					"t_address": {
						"encoding": "inplace",
						"label": "address",
						"numberOfBytes": "20"
					},
					"t_array(t_uint256)50_storage": {
						"base": "t_uint256",
						"encoding": "inplace",
						"label": "uint256[50]",
						"numberOfBytes": "1600"
					},
					"t_bool": {
						"encoding": "inplace",
						"label": "bool",
						"numberOfBytes": "1"
					},
					"t_contract(AggregatorV3Interface)168": {
						"encoding": "inplace",
						"label": "contract AggregatorV3Interface",
						"numberOfBytes": "20"
					},
					"t_contract(IRouterClient)42": {
						"encoding": "inplace",
						"label": "contract IRouterClient",
						"numberOfBytes": "20"
					},
					"t_mapping(t_address,t_contract(AggregatorV3Interface)168)": {
						"encoding": "mapping",
						"key": "t_address",
						"label": "mapping(address => contract AggregatorV3Interface)",
						"numberOfBytes": "32",
						"value": "t_contract(AggregatorV3Interface)168"
					},
					"t_mapping(t_uint256,t_struct(Auction)1516_storage)": {
						"encoding": "mapping",
						"key": "t_uint256",
						"label": "mapping(uint256 => struct NFTAuction.Auction)",
						"numberOfBytes": "32",
						"value": "t_struct(Auction)1516_storage"
					},
					"t_struct(Auction)1516_storage": {
						"encoding": "inplace",
						"label": "struct NFTAuction.Auction",
						"members": [
							{
								"astId": 1497,
								"contract": "contracts/NFTAuction.sol:NFTAuction",
								"label": "seller",
								"offset": 0,
								"slot": "0",
								"type": "t_address"
							},
							{
								"astId": 1499,
								"contract": "contracts/NFTAuction.sol:NFTAuction",
								"label": "startPrice",
								"offset": 0,
								"slot": "1",
								"type": "t_uint256"
							},
							{
								"astId": 1501,
								"contract": "contracts/NFTAuction.sol:NFTAuction",
								"label": "startTime",
								"offset": 0,
								"slot": "2",
								"type": "t_uint256"
							},
							{
								"astId": 1503,
								"contract": "contracts/NFTAuction.sol:NFTAuction",
								"label": "duration",
								"offset": 0,
								"slot": "3",
								"type": "t_uint256"
							},
							{
								"astId": 1505,
								"contract": "contracts/NFTAuction.sol:NFTAuction",
								"label": "isended",
								"offset": 0,
								"slot": "4",
								"type": "t_bool"
							},
							{
								"astId": 1507,
								"contract": "contracts/NFTAuction.sol:NFTAuction",
								"label": "highestBid",
								"offset": 0,
								"slot": "5",
								"type": "t_uint256"
							},
							{
								"astId": 1509,
								"contract": "contracts/NFTAuction.sol:NFTAuction",
								"label": "highestBidder",
								"offset": 0,
								"slot": "6",
								"type": "t_address"
							},
							{
								"astId": 1511,
								"contract": "contracts/NFTAuction.sol:NFTAuction",
								"label": "nftAddress",
								"offset": 0,
								"slot": "7",
								"type": "t_address"
							},
							{
								"astId": 1513,
								"contract": "contracts/NFTAuction.sol:NFTAuction",
								"label": "nftId",
								"offset": 0,
								"slot": "8",
								"type": "t_uint256"
							},
							{
								"astId": 1515,
								"contract": "contracts/NFTAuction.sol:NFTAuction",
								"label": "tokenAddress",
								"offset": 0,
								"slot": "9",
								"type": "t_address"
							}
						],
						"numberOfBytes": "320"
					},
					"t_uint256": {
						"encoding": "inplace",
						"label": "uint256",
						"numberOfBytes": "32"
					},
					"t_uint8": {
						"encoding": "inplace",
						"label": "uint8",
						"numberOfBytes": "1"
					}
				}
			},
			"userdoc": {
				"kind": "user",
				"methods": {},
				"version": 1
			}
		}
	}
}