{
	"Task_1/Voting.sol": {
		"Voting": {
			"abi": [
				{
					"inputs": [
						{
							"internalType": "uint256",
							"name": "",
							"type": "uint256"
						}
					],
					"name": "candidates",
					"outputs": [
						{
							"internalType": "string",
							"name": "",
							"type": "string"
						}
					],
					"stateMutability": "view",
					"type": "function"
				},
				{
					"inputs": [
						{
							"internalType": "string",
							"name": "candidateName",
							"type": "string"
						}
					],
					"name": "getVotes",
					"outputs": [
						{
							"internalType": "int256",
							"name": "",
							"type": "int256"
						}
					],
					"stateMutability": "view",
					"type": "function"
				},
				{
					"inputs": [],
					"name": "resetVotes",
					"outputs": [],
					"stateMutability": "nonpayable",
					"type": "function"
				},
				{
					"inputs": [
						{
							"internalType": "string",
							"name": "candidateName",
							"type": "string"
						}
					],
					"name": "vote",
					"outputs": [],
					"stateMutability": "nonpayable",
					"type": "function"
				},
				{
					"inputs": [
						{
							"internalType": "string",
							"name": "",
							"type": "string"
						}
					],
					"name": "votes",
					"outputs": [
						{
							"internalType": "int256",
							"name": "",
							"type": "int256"
						}
					],
					"stateMutability": "view",
					"type": "function"
				}
			],
			"devdoc": {
				"kind": "dev",
				"methods": {},
				"version": 1
			},
			"evm": {
				"assembly": "    /* \"Task_1/Voting.sol\":356:1065  contract Voting{... */\n  mstore(0x40, 0x80)\n  callvalue\n  dup1\n  iszero\n  tag_1\n  jumpi\n  revert(0x00, 0x00)\ntag_1:\n  pop\n  dataSize(sub_0)\n  dup1\n  dataOffset(sub_0)\n  0x00\n  codecopy\n  0x00\n  return\nstop\n\nsub_0: assembly {\n        /* \"Task_1/Voting.sol\":356:1065  contract Voting{... */\n      mstore(0x40, 0x80)\n      callvalue\n      dup1\n      iszero\n      tag_1\n      jumpi\n      revert(0x00, 0x00)\n    tag_1:\n      pop\n      jumpi(tag_2, lt(calldatasize, 0x04))\n      shr(0xe0, calldataload(0x00))\n      dup1\n      0x3477ee2e\n      eq\n      tag_3\n      jumpi\n      dup1\n      0x805265e5\n      eq\n      tag_4\n      jumpi\n      dup1\n      0xb9830ff1\n      eq\n      tag_5\n      jumpi\n      dup1\n      0xb99ef1fa\n      eq\n      tag_6\n      jumpi\n      dup1\n      0xfc36e15b\n      eq\n      tag_7\n      jumpi\n    tag_2:\n      revert(0x00, 0x00)\n        /* \"Task_1/Voting.sol\":424:451  string[] public  candidates */\n    tag_3:\n      tag_8\n      0x04\n      dup1\n      calldatasize\n      sub\n      dup2\n      add\n      swap1\n      tag_9\n      swap2\n      swap1\n      tag_10\n      jump\t// in\n    tag_9:\n      tag_11\n      jump\t// in\n    tag_8:\n      mload(0x40)\n      tag_12\n      swap2\n      swap1\n      tag_13\n      jump\t// in\n    tag_12:\n      mload(0x40)\n      dup1\n      swap2\n      sub\n      swap1\n      return\n        /* \"Task_1/Voting.sol\":787:907  function getVotes(string memory candidateName)public view returns (int256){... */\n    tag_4:\n      tag_14\n      0x04\n      dup1\n      calldatasize\n      sub\n      dup2\n      add\n      swap1\n      tag_15\n      swap2\n      swap1\n      tag_16\n      jump\t// in\n    tag_15:\n      tag_17\n      jump\t// in\n    tag_14:\n      mload(0x40)\n      tag_18\n      swap2\n      swap1\n      tag_19\n      jump\t// in\n    tag_18:\n      mload(0x40)\n      dup1\n      swap2\n      sub\n      swap1\n      return\n        /* \"Task_1/Voting.sol\":915:1062  function resetVotes()public{... */\n    tag_5:\n      tag_20\n      tag_21\n      jump\t// in\n    tag_20:\n      stop\n        /* \"Task_1/Voting.sol\":378:417  mapping (string=>int256) public   votes */\n    tag_6:\n      tag_22\n      0x04\n      dup1\n      calldatasize\n      sub\n      dup2\n      add\n      swap1\n      tag_23\n      swap2\n      swap1\n      tag_16\n      jump\t// in\n    tag_23:\n      tag_24\n      jump\t// in\n    tag_22:\n      mload(0x40)\n      tag_25\n      swap2\n      swap1\n      tag_19\n      jump\t// in\n    tag_25:\n      mload(0x40)\n      dup1\n      swap2\n      sub\n      swap1\n      return\n        /* \"Task_1/Voting.sol\":460:779  function vote(string memory candidateName)public {... */\n    tag_7:\n      tag_26\n      0x04\n      dup1\n      calldatasize\n      sub\n      dup2\n      add\n      swap1\n      tag_27\n      swap2\n      swap1\n      tag_16\n      jump\t// in\n    tag_27:\n      tag_28\n      jump\t// in\n    tag_26:\n      stop\n        /* \"Task_1/Voting.sol\":424:451  string[] public  candidates */\n    tag_11:\n      0x01\n      dup2\n      dup2\n      sload\n      dup2\n      lt\n      tag_29\n      jumpi\n      0x00\n      dup1\n      revert\n    tag_29:\n      swap1\n      0x00\n      mstore\n      keccak256(0x00, 0x20)\n      add\n      0x00\n      swap2\n      pop\n      swap1\n      pop\n      dup1\n      sload\n      tag_31\n      swap1\n      tag_32\n      jump\t// in\n    tag_31:\n      dup1\n      0x1f\n      add\n      0x20\n      dup1\n      swap2\n      div\n      mul\n      0x20\n      add\n      mload(0x40)\n      swap1\n      dup2\n      add\n      0x40\n      mstore\n      dup1\n      swap3\n      swap2\n      swap1\n      dup2\n      dup2\n      mstore\n      0x20\n      add\n      dup3\n      dup1\n      sload\n      tag_33\n      swap1\n      tag_32\n      jump\t// in\n    tag_33:\n      dup1\n      iszero\n      tag_34\n      jumpi\n      dup1\n      0x1f\n      lt\n      tag_35\n      jumpi\n      0x0100\n      dup1\n      dup4\n      sload\n      div\n      mul\n      dup4\n      mstore\n      swap2\n      0x20\n      add\n      swap2\n      jump(tag_34)\n    tag_35:\n      dup3\n      add\n      swap2\n      swap1\n      0x00\n      mstore\n      keccak256(0x00, 0x20)\n      swap1\n    tag_36:\n      dup2\n      sload\n      dup2\n      mstore\n      swap1\n      0x01\n      add\n      swap1\n      0x20\n      add\n      dup1\n      dup4\n      gt\n      tag_36\n      jumpi\n      dup3\n      swap1\n      sub\n      0x1f\n      and\n      dup3\n      add\n      swap2\n    tag_34:\n      pop\n      pop\n      pop\n      pop\n      pop\n      dup2\n      jump\t// out\n        /* \"Task_1/Voting.sol\":787:907  function getVotes(string memory candidateName)public view returns (int256){... */\n    tag_17:\n        /* \"Task_1/Voting.sol\":854:860  int256 */\n      0x00\n        /* \"Task_1/Voting.sol\":879:884  votes */\n      0x00\n        /* \"Task_1/Voting.sol\":885:898  candidateName */\n      dup3\n        /* \"Task_1/Voting.sol\":879:899  votes[candidateName] */\n      mload(0x40)\n      tag_38\n      swap2\n      swap1\n      tag_39\n      jump\t// in\n    tag_38:\n      swap1\n      dup2\n      mstore\n      0x20\n      add\n      mload(0x40)\n      dup1\n      swap2\n      sub\n      swap1\n      keccak256\n      sload\n        /* \"Task_1/Voting.sol\":872:899  return votes[candidateName] */\n      swap1\n      pop\n        /* \"Task_1/Voting.sol\":787:907  function getVotes(string memory candidateName)public view returns (int256){... */\n      swap2\n      swap1\n      pop\n      jump\t// out\n        /* \"Task_1/Voting.sol\":915:1062  function resetVotes()public{... */\n    tag_21:\n        /* \"Task_1/Voting.sol\":958:964  uint i */\n      0x00\n        /* \"Task_1/Voting.sol\":965:966  0 */\n      0x00\n        /* \"Task_1/Voting.sol\":958:966  uint i=0 */\n      swap1\n      pop\n        /* \"Task_1/Voting.sol\":953:1055  for (uint i=0; i<candidates.length; i++) ... */\n    tag_41:\n        /* \"Task_1/Voting.sol\":970:980  candidates */\n      0x01\n        /* \"Task_1/Voting.sol\":970:987  candidates.length */\n      dup1\n      sload\n      swap1\n      pop\n        /* \"Task_1/Voting.sol\":968:969  i */\n      dup2\n        /* \"Task_1/Voting.sol\":968:987  i<candidates.length */\n      lt\n        /* \"Task_1/Voting.sol\":953:1055  for (uint i=0; i<candidates.length; i++) ... */\n      iszero\n      tag_42\n      jumpi\n        /* \"Task_1/Voting.sol\":1042:1043  0 */\n      0x00\n        /* \"Task_1/Voting.sol\":1019:1024  votes */\n      0x00\n        /* \"Task_1/Voting.sol\":1025:1035  candidates */\n      0x01\n        /* \"Task_1/Voting.sol\":1036:1037  i */\n      dup4\n        /* \"Task_1/Voting.sol\":1025:1038  candidates[i] */\n      dup2\n      sload\n      dup2\n      lt\n      tag_44\n      jumpi\n      tag_45\n      tag_46\n      jump\t// in\n    tag_45:\n    tag_44:\n      swap1\n      0x00\n      mstore\n      keccak256(0x00, 0x20)\n      add\n        /* \"Task_1/Voting.sol\":1019:1039  votes[candidates[i]] */\n      mload(0x40)\n      tag_48\n      swap2\n      swap1\n      tag_49\n      jump\t// in\n    tag_48:\n      swap1\n      dup2\n      mstore\n      0x20\n      add\n      mload(0x40)\n      dup1\n      swap2\n      sub\n      swap1\n      keccak256\n        /* \"Task_1/Voting.sol\":1019:1043  votes[candidates[i]] = 0 */\n      dup2\n      swap1\n      sstore\n      pop\n        /* \"Task_1/Voting.sol\":989:992  i++ */\n      dup1\n      dup1\n      0x01\n      add\n      swap2\n      pop\n      pop\n        /* \"Task_1/Voting.sol\":953:1055  for (uint i=0; i<candidates.length; i++) ... */\n      jump(tag_41)\n    tag_42:\n      pop\n        /* \"Task_1/Voting.sol\":915:1062  function resetVotes()public{... */\n      jump\t// out\n        /* \"Task_1/Voting.sol\":378:417  mapping (string=>int256) public   votes */\n    tag_24:\n      0x00\n      dup2\n      dup1\n      mload\n      0x20\n      dup2\n      add\n      dup3\n      add\n      dup1\n      mload\n      dup5\n      dup3\n      mstore\n      0x20\n      dup4\n      add\n      0x20\n      dup6\n      add\n      keccak256\n      dup2\n      dup4\n      mstore\n      dup1\n      swap6\n      pop\n      pop\n      pop\n      pop\n      pop\n      pop\n      0x00\n      swap2\n      pop\n      swap1\n      pop\n      sload\n      dup2\n      jump\t// out\n        /* \"Task_1/Voting.sol\":460:779  function vote(string memory candidateName)public {... */\n    tag_28:\n        /* \"Task_1/Voting.sol\":520:525  votes */\n      0x00\n        /* \"Task_1/Voting.sol\":526:539  candidateName */\n      dup2\n        /* \"Task_1/Voting.sol\":520:540  votes[candidateName] */\n      mload(0x40)\n      tag_51\n      swap2\n      swap1\n      tag_39\n      jump\t// in\n    tag_51:\n      swap1\n      dup2\n      mstore\n      0x20\n      add\n      mload(0x40)\n      dup1\n      swap2\n      sub\n      swap1\n      keccak256\n      0x00\n        /* \"Task_1/Voting.sol\":520:542  votes[candidateName]++ */\n      dup2\n      sload\n      dup1\n      swap3\n      swap2\n      swap1\n      tag_52\n      swap1\n      tag_53\n      jump\t// in\n    tag_52:\n      swap2\n      swap1\n      pop\n      sstore\n      pop\n        /* \"Task_1/Voting.sol\":558:564  uint i */\n      0x00\n        /* \"Task_1/Voting.sol\":565:566  0 */\n      0x00\n        /* \"Task_1/Voting.sol\":558:566  uint i=0 */\n      swap1\n      pop\n        /* \"Task_1/Voting.sol\":553:731  for (uint i=0; i<candidates.length; i++) ... */\n    tag_54:\n        /* \"Task_1/Voting.sol\":570:580  candidates */\n      0x01\n        /* \"Task_1/Voting.sol\":570:587  candidates.length */\n      dup1\n      sload\n      swap1\n      pop\n        /* \"Task_1/Voting.sol\":568:569  i */\n      dup2\n        /* \"Task_1/Voting.sol\":568:587  i<candidates.length */\n      lt\n        /* \"Task_1/Voting.sol\":553:731  for (uint i=0; i<candidates.length; i++) ... */\n      iszero\n      tag_55\n      jumpi\n        /* \"Task_1/Voting.sol\":696:709  candidateName */\n      dup2\n        /* \"Task_1/Voting.sol\":679:710  abi.encodePacked(candidateName) */\n      add(0x20, mload(0x40))\n      tag_57\n      swap2\n      swap1\n      tag_39\n      jump\t// in\n    tag_57:\n      mload(0x40)\n      0x20\n      dup2\n      dup4\n      sub\n      sub\n      dup2\n      mstore\n      swap1\n      0x40\n      mstore\n        /* \"Task_1/Voting.sol\":669:711  keccak256(abi.encodePacked(candidateName)) */\n      dup1\n      mload\n      swap1\n      0x20\n      add\n      keccak256\n        /* \"Task_1/Voting.sol\":650:660  candidates */\n      0x01\n        /* \"Task_1/Voting.sol\":661:662  i */\n      dup3\n        /* \"Task_1/Voting.sol\":650:663  candidates[i] */\n      dup2\n      sload\n      dup2\n      lt\n      tag_58\n      jumpi\n      tag_59\n      tag_46\n      jump\t// in\n    tag_59:\n    tag_58:\n      swap1\n      0x00\n      mstore\n      keccak256(0x00, 0x20)\n      add\n        /* \"Task_1/Voting.sol\":633:664  abi.encodePacked(candidates[i]) */\n      add(0x20, mload(0x40))\n      tag_61\n      swap2\n      swap1\n      tag_49\n      jump\t// in\n    tag_61:\n      mload(0x40)\n      0x20\n      dup2\n      dup4\n      sub\n      sub\n      dup2\n      mstore\n      swap1\n      0x40\n      mstore\n        /* \"Task_1/Voting.sol\":623:665  keccak256(abi.encodePacked(candidates[i])) */\n      dup1\n      mload\n      swap1\n      0x20\n      add\n      keccak256\n        /* \"Task_1/Voting.sol\":623:711  keccak256(abi.encodePacked(candidates[i])) == keccak256(abi.encodePacked(candidateName)) */\n      sub\n        /* \"Task_1/Voting.sol\":619:720  if (keccak256(abi.encodePacked(candidates[i])) == keccak256(abi.encodePacked(candidateName))) return; */\n      tag_62\n      jumpi\n        /* \"Task_1/Voting.sol\":713:720  return; */\n      pop\n      jump(tag_50)\n        /* \"Task_1/Voting.sol\":619:720  if (keccak256(abi.encodePacked(candidates[i])) == keccak256(abi.encodePacked(candidateName))) return; */\n    tag_62:\n        /* \"Task_1/Voting.sol\":589:592  i++ */\n      dup1\n      dup1\n      0x01\n      add\n      swap2\n      pop\n      pop\n        /* \"Task_1/Voting.sol\":553:731  for (uint i=0; i<candidates.length; i++) ... */\n      jump(tag_54)\n    tag_55:\n      pop\n        /* \"Task_1/Voting.sol\":741:751  candidates */\n      0x01\n        /* \"Task_1/Voting.sol\":757:770  candidateName */\n      dup2\n        /* \"Task_1/Voting.sol\":741:771  candidates.push(candidateName) */\n      swap1\n      dup1\n      0x01\n      dup2\n      sload\n      add\n      dup1\n      dup3\n      sstore\n      dup1\n      swap2\n      pop\n      pop\n      0x01\n      swap1\n      sub\n      swap1\n      0x00\n      mstore\n      keccak256(0x00, 0x20)\n      add\n      0x00\n      swap1\n      swap2\n      swap1\n      swap2\n      swap1\n      swap2\n      pop\n      swap1\n      dup2\n      tag_64\n      swap2\n      swap1\n      tag_65\n      jump\t// in\n    tag_64:\n      pop\n        /* \"Task_1/Voting.sol\":460:779  function vote(string memory candidateName)public {... */\n    tag_50:\n      pop\n      jump\t// out\n        /* \"#utility.yul\":7:82   */\n    tag_66:\n        /* \"#utility.yul\":40:46   */\n      0x00\n        /* \"#utility.yul\":73:75   */\n      0x40\n        /* \"#utility.yul\":67:76   */\n      mload\n        /* \"#utility.yul\":57:76   */\n      swap1\n      pop\n        /* \"#utility.yul\":7:82   */\n      swap1\n      jump\t// out\n        /* \"#utility.yul\":88:205   */\n    tag_67:\n        /* \"#utility.yul\":197:198   */\n      0x00\n        /* \"#utility.yul\":194:195   */\n      0x00\n        /* \"#utility.yul\":187:199   */\n      revert\n        /* \"#utility.yul\":211:328   */\n    tag_68:\n        /* \"#utility.yul\":320:321   */\n      0x00\n        /* \"#utility.yul\":317:318   */\n      0x00\n        /* \"#utility.yul\":310:322   */\n      revert\n        /* \"#utility.yul\":334:411   */\n    tag_69:\n        /* \"#utility.yul\":371:378   */\n      0x00\n        /* \"#utility.yul\":400:405   */\n      dup2\n        /* \"#utility.yul\":389:405   */\n      swap1\n      pop\n        /* \"#utility.yul\":334:411   */\n      swap2\n      swap1\n      pop\n      jump\t// out\n        /* \"#utility.yul\":417:539   */\n    tag_70:\n        /* \"#utility.yul\":490:514   */\n      tag_114\n        /* \"#utility.yul\":508:513   */\n      dup2\n        /* \"#utility.yul\":490:514   */\n      tag_69\n      jump\t// in\n    tag_114:\n        /* \"#utility.yul\":483:488   */\n      dup2\n        /* \"#utility.yul\":480:515   */\n      eq\n        /* \"#utility.yul\":470:533   */\n      tag_115\n      jumpi\n        /* \"#utility.yul\":529:530   */\n      0x00\n        /* \"#utility.yul\":526:527   */\n      0x00\n        /* \"#utility.yul\":519:531   */\n      revert\n        /* \"#utility.yul\":470:533   */\n    tag_115:\n        /* \"#utility.yul\":417:539   */\n      pop\n      jump\t// out\n        /* \"#utility.yul\":545:684   */\n    tag_71:\n        /* \"#utility.yul\":591:596   */\n      0x00\n        /* \"#utility.yul\":629:635   */\n      dup2\n        /* \"#utility.yul\":616:636   */\n      calldataload\n        /* \"#utility.yul\":607:636   */\n      swap1\n      pop\n        /* \"#utility.yul\":645:678   */\n      tag_117\n        /* \"#utility.yul\":672:677   */\n      dup2\n        /* \"#utility.yul\":645:678   */\n      tag_70\n      jump\t// in\n    tag_117:\n        /* \"#utility.yul\":545:684   */\n      swap3\n      swap2\n      pop\n      pop\n      jump\t// out\n        /* \"#utility.yul\":690:1019   */\n    tag_10:\n        /* \"#utility.yul\":749:755   */\n      0x00\n        /* \"#utility.yul\":798:800   */\n      0x20\n        /* \"#utility.yul\":786:795   */\n      dup3\n        /* \"#utility.yul\":777:784   */\n      dup5\n        /* \"#utility.yul\":773:796   */\n      sub\n        /* \"#utility.yul\":769:801   */\n      slt\n        /* \"#utility.yul\":766:885   */\n      iszero\n      tag_119\n      jumpi\n        /* \"#utility.yul\":804:883   */\n      tag_120\n      tag_67\n      jump\t// in\n    tag_120:\n        /* \"#utility.yul\":766:885   */\n    tag_119:\n        /* \"#utility.yul\":924:925   */\n      0x00\n        /* \"#utility.yul\":949:1002   */\n      tag_121\n        /* \"#utility.yul\":994:1001   */\n      dup5\n        /* \"#utility.yul\":985:991   */\n      dup3\n        /* \"#utility.yul\":974:983   */\n      dup6\n        /* \"#utility.yul\":970:992   */\n      add\n        /* \"#utility.yul\":949:1002   */\n      tag_71\n      jump\t// in\n    tag_121:\n        /* \"#utility.yul\":939:1002   */\n      swap2\n      pop\n        /* \"#utility.yul\":895:1012   */\n      pop\n        /* \"#utility.yul\":690:1019   */\n      swap3\n      swap2\n      pop\n      pop\n      jump\t// out\n        /* \"#utility.yul\":1025:1124   */\n    tag_72:\n        /* \"#utility.yul\":1077:1083   */\n      0x00\n        /* \"#utility.yul\":1111:1116   */\n      dup2\n        /* \"#utility.yul\":1105:1117   */\n      mload\n        /* \"#utility.yul\":1095:1117   */\n      swap1\n      pop\n        /* \"#utility.yul\":1025:1124   */\n      swap2\n      swap1\n      pop\n      jump\t// out\n        /* \"#utility.yul\":1130:1299   */\n    tag_73:\n        /* \"#utility.yul\":1214:1225   */\n      0x00\n        /* \"#utility.yul\":1248:1254   */\n      dup3\n        /* \"#utility.yul\":1243:1246   */\n      dup3\n        /* \"#utility.yul\":1236:1255   */\n      mstore\n        /* \"#utility.yul\":1288:1292   */\n      0x20\n        /* \"#utility.yul\":1283:1286   */\n      dup3\n        /* \"#utility.yul\":1279:1293   */\n      add\n        /* \"#utility.yul\":1264:1293   */\n      swap1\n      pop\n        /* \"#utility.yul\":1130:1299   */\n      swap3\n      swap2\n      pop\n      pop\n      jump\t// out\n        /* \"#utility.yul\":1305:1444   */\n    tag_74:\n        /* \"#utility.yul\":1394:1400   */\n      dup3\n        /* \"#utility.yul\":1389:1392   */\n      dup2\n        /* \"#utility.yul\":1384:1387   */\n      dup4\n        /* \"#utility.yul\":1378:1401   */\n      mcopy\n        /* \"#utility.yul\":1435:1436   */\n      0x00\n        /* \"#utility.yul\":1426:1432   */\n      dup4\n        /* \"#utility.yul\":1421:1424   */\n      dup4\n        /* \"#utility.yul\":1417:1433   */\n      add\n        /* \"#utility.yul\":1410:1437   */\n      mstore\n        /* \"#utility.yul\":1305:1444   */\n      pop\n      pop\n      pop\n      jump\t// out\n        /* \"#utility.yul\":1450:1552   */\n    tag_75:\n        /* \"#utility.yul\":1491:1497   */\n      0x00\n        /* \"#utility.yul\":1542:1544   */\n      0x1f\n        /* \"#utility.yul\":1538:1545   */\n      not\n        /* \"#utility.yul\":1533:1535   */\n      0x1f\n        /* \"#utility.yul\":1526:1531   */\n      dup4\n        /* \"#utility.yul\":1522:1536   */\n      add\n        /* \"#utility.yul\":1518:1546   */\n      and\n        /* \"#utility.yul\":1508:1546   */\n      swap1\n      pop\n        /* \"#utility.yul\":1450:1552   */\n      swap2\n      swap1\n      pop\n      jump\t// out\n        /* \"#utility.yul\":1558:1935   */\n    tag_76:\n        /* \"#utility.yul\":1646:1649   */\n      0x00\n        /* \"#utility.yul\":1674:1713   */\n      tag_127\n        /* \"#utility.yul\":1707:1712   */\n      dup3\n        /* \"#utility.yul\":1674:1713   */\n      tag_72\n      jump\t// in\n    tag_127:\n        /* \"#utility.yul\":1729:1800   */\n      tag_128\n        /* \"#utility.yul\":1793:1799   */\n      dup2\n        /* \"#utility.yul\":1788:1791   */\n      dup6\n        /* \"#utility.yul\":1729:1800   */\n      tag_73\n      jump\t// in\n    tag_128:\n        /* \"#utility.yul\":1722:1800   */\n      swap4\n      pop\n        /* \"#utility.yul\":1809:1874   */\n      tag_129\n        /* \"#utility.yul\":1867:1873   */\n      dup2\n        /* \"#utility.yul\":1862:1865   */\n      dup6\n        /* \"#utility.yul\":1855:1859   */\n      0x20\n        /* \"#utility.yul\":1848:1853   */\n      dup7\n        /* \"#utility.yul\":1844:1860   */\n      add\n        /* \"#utility.yul\":1809:1874   */\n      tag_74\n      jump\t// in\n    tag_129:\n        /* \"#utility.yul\":1899:1928   */\n      tag_130\n        /* \"#utility.yul\":1921:1927   */\n      dup2\n        /* \"#utility.yul\":1899:1928   */\n      tag_75\n      jump\t// in\n    tag_130:\n        /* \"#utility.yul\":1894:1897   */\n      dup5\n        /* \"#utility.yul\":1890:1929   */\n      add\n        /* \"#utility.yul\":1883:1929   */\n      swap2\n      pop\n        /* \"#utility.yul\":1650:1935   */\n      pop\n        /* \"#utility.yul\":1558:1935   */\n      swap3\n      swap2\n      pop\n      pop\n      jump\t// out\n        /* \"#utility.yul\":1941:2254   */\n    tag_13:\n        /* \"#utility.yul\":2054:2058   */\n      0x00\n        /* \"#utility.yul\":2092:2094   */\n      0x20\n        /* \"#utility.yul\":2081:2090   */\n      dup3\n        /* \"#utility.yul\":2077:2095   */\n      add\n        /* \"#utility.yul\":2069:2095   */\n      swap1\n      pop\n        /* \"#utility.yul\":2141:2150   */\n      dup2\n        /* \"#utility.yul\":2135:2139   */\n      dup2\n        /* \"#utility.yul\":2131:2151   */\n      sub\n        /* \"#utility.yul\":2127:2128   */\n      0x00\n        /* \"#utility.yul\":2116:2125   */\n      dup4\n        /* \"#utility.yul\":2112:2129   */\n      add\n        /* \"#utility.yul\":2105:2152   */\n      mstore\n        /* \"#utility.yul\":2169:2247   */\n      tag_132\n        /* \"#utility.yul\":2242:2246   */\n      dup2\n        /* \"#utility.yul\":2233:2239   */\n      dup5\n        /* \"#utility.yul\":2169:2247   */\n      tag_76\n      jump\t// in\n    tag_132:\n        /* \"#utility.yul\":2161:2247   */\n      swap1\n      pop\n        /* \"#utility.yul\":1941:2254   */\n      swap3\n      swap2\n      pop\n      pop\n      jump\t// out\n        /* \"#utility.yul\":2260:2377   */\n    tag_77:\n        /* \"#utility.yul\":2369:2370   */\n      0x00\n        /* \"#utility.yul\":2366:2367   */\n      0x00\n        /* \"#utility.yul\":2359:2371   */\n      revert\n        /* \"#utility.yul\":2383:2500   */\n    tag_78:\n        /* \"#utility.yul\":2492:2493   */\n      0x00\n        /* \"#utility.yul\":2489:2490   */\n      0x00\n        /* \"#utility.yul\":2482:2494   */\n      revert\n        /* \"#utility.yul\":2506:2686   */\n    tag_79:\n        /* \"#utility.yul\":2554:2631   */\n      0x4e487b7100000000000000000000000000000000000000000000000000000000\n        /* \"#utility.yul\":2551:2552   */\n      0x00\n        /* \"#utility.yul\":2544:2632   */\n      mstore\n        /* \"#utility.yul\":2651:2655   */\n      0x41\n        /* \"#utility.yul\":2648:2649   */\n      0x04\n        /* \"#utility.yul\":2641:2656   */\n      mstore\n        /* \"#utility.yul\":2675:2679   */\n      0x24\n        /* \"#utility.yul\":2672:2673   */\n      0x00\n        /* \"#utility.yul\":2665:2680   */\n      revert\n        /* \"#utility.yul\":2692:2973   */\n    tag_80:\n        /* \"#utility.yul\":2775:2802   */\n      tag_137\n        /* \"#utility.yul\":2797:2801   */\n      dup3\n        /* \"#utility.yul\":2775:2802   */\n      tag_75\n      jump\t// in\n    tag_137:\n        /* \"#utility.yul\":2767:2773   */\n      dup2\n        /* \"#utility.yul\":2763:2803   */\n      add\n        /* \"#utility.yul\":2905:2911   */\n      dup2\n        /* \"#utility.yul\":2893:2903   */\n      dup2\n        /* \"#utility.yul\":2890:2912   */\n      lt\n        /* \"#utility.yul\":2869:2887   */\n      0xffffffffffffffff\n        /* \"#utility.yul\":2857:2867   */\n      dup3\n        /* \"#utility.yul\":2854:2888   */\n      gt\n        /* \"#utility.yul\":2851:2913   */\n      or\n        /* \"#utility.yul\":2848:2936   */\n      iszero\n      tag_138\n      jumpi\n        /* \"#utility.yul\":2916:2934   */\n      tag_139\n      tag_79\n      jump\t// in\n    tag_139:\n        /* \"#utility.yul\":2848:2936   */\n    tag_138:\n        /* \"#utility.yul\":2956:2966   */\n      dup1\n        /* \"#utility.yul\":2952:2954   */\n      0x40\n        /* \"#utility.yul\":2945:2967   */\n      mstore\n        /* \"#utility.yul\":2735:2973   */\n      pop\n        /* \"#utility.yul\":2692:2973   */\n      pop\n      pop\n      jump\t// out\n        /* \"#utility.yul\":2979:3108   */\n    tag_81:\n        /* \"#utility.yul\":3013:3019   */\n      0x00\n        /* \"#utility.yul\":3040:3060   */\n      tag_141\n      tag_66\n      jump\t// in\n    tag_141:\n        /* \"#utility.yul\":3030:3060   */\n      swap1\n      pop\n        /* \"#utility.yul\":3069:3102   */\n      tag_142\n        /* \"#utility.yul\":3097:3101   */\n      dup3\n        /* \"#utility.yul\":3089:3095   */\n      dup3\n        /* \"#utility.yul\":3069:3102   */\n      tag_80\n      jump\t// in\n    tag_142:\n        /* \"#utility.yul\":2979:3108   */\n      swap2\n      swap1\n      pop\n      jump\t// out\n        /* \"#utility.yul\":3114:3422   */\n    tag_82:\n        /* \"#utility.yul\":3176:3180   */\n      0x00\n        /* \"#utility.yul\":3266:3284   */\n      0xffffffffffffffff\n        /* \"#utility.yul\":3258:3264   */\n      dup3\n        /* \"#utility.yul\":3255:3285   */\n      gt\n        /* \"#utility.yul\":3252:3308   */\n      iszero\n      tag_144\n      jumpi\n        /* \"#utility.yul\":3288:3306   */\n      tag_145\n      tag_79\n      jump\t// in\n    tag_145:\n        /* \"#utility.yul\":3252:3308   */\n    tag_144:\n        /* \"#utility.yul\":3326:3355   */\n      tag_146\n        /* \"#utility.yul\":3348:3354   */\n      dup3\n        /* \"#utility.yul\":3326:3355   */\n      tag_75\n      jump\t// in\n    tag_146:\n        /* \"#utility.yul\":3318:3355   */\n      swap1\n      pop\n        /* \"#utility.yul\":3410:3414   */\n      0x20\n        /* \"#utility.yul\":3404:3408   */\n      dup2\n        /* \"#utility.yul\":3400:3415   */\n      add\n        /* \"#utility.yul\":3392:3415   */\n      swap1\n      pop\n        /* \"#utility.yul\":3114:3422   */\n      swap2\n      swap1\n      pop\n      jump\t// out\n        /* \"#utility.yul\":3428:3576   */\n    tag_83:\n        /* \"#utility.yul\":3526:3532   */\n      dup3\n        /* \"#utility.yul\":3521:3524   */\n      dup2\n        /* \"#utility.yul\":3516:3519   */\n      dup4\n        /* \"#utility.yul\":3503:3533   */\n      calldatacopy\n        /* \"#utility.yul\":3567:3568   */\n      0x00\n        /* \"#utility.yul\":3558:3564   */\n      dup4\n        /* \"#utility.yul\":3553:3556   */\n      dup4\n        /* \"#utility.yul\":3549:3565   */\n      add\n        /* \"#utility.yul\":3542:3569   */\n      mstore\n        /* \"#utility.yul\":3428:3576   */\n      pop\n      pop\n      pop\n      jump\t// out\n        /* \"#utility.yul\":3582:4007   */\n    tag_84:\n        /* \"#utility.yul\":3660:3665   */\n      0x00\n        /* \"#utility.yul\":3685:3751   */\n      tag_149\n        /* \"#utility.yul\":3701:3750   */\n      tag_150\n        /* \"#utility.yul\":3743:3749   */\n      dup5\n        /* \"#utility.yul\":3701:3750   */\n      tag_82\n      jump\t// in\n    tag_150:\n        /* \"#utility.yul\":3685:3751   */\n      tag_81\n      jump\t// in\n    tag_149:\n        /* \"#utility.yul\":3676:3751   */\n      swap1\n      pop\n        /* \"#utility.yul\":3774:3780   */\n      dup3\n        /* \"#utility.yul\":3767:3772   */\n      dup2\n        /* \"#utility.yul\":3760:3781   */\n      mstore\n        /* \"#utility.yul\":3812:3816   */\n      0x20\n        /* \"#utility.yul\":3805:3810   */\n      dup2\n        /* \"#utility.yul\":3801:3817   */\n      add\n        /* \"#utility.yul\":3850:3853   */\n      dup5\n        /* \"#utility.yul\":3841:3847   */\n      dup5\n        /* \"#utility.yul\":3836:3839   */\n      dup5\n        /* \"#utility.yul\":3832:3848   */\n      add\n        /* \"#utility.yul\":3829:3854   */\n      gt\n        /* \"#utility.yul\":3826:3938   */\n      iszero\n      tag_151\n      jumpi\n        /* \"#utility.yul\":3857:3936   */\n      tag_152\n      tag_78\n      jump\t// in\n    tag_152:\n        /* \"#utility.yul\":3826:3938   */\n    tag_151:\n        /* \"#utility.yul\":3947:4001   */\n      tag_153\n        /* \"#utility.yul\":3994:4000   */\n      dup5\n        /* \"#utility.yul\":3989:3992   */\n      dup3\n        /* \"#utility.yul\":3984:3987   */\n      dup6\n        /* \"#utility.yul\":3947:4001   */\n      tag_83\n      jump\t// in\n    tag_153:\n        /* \"#utility.yul\":3666:4007   */\n      pop\n        /* \"#utility.yul\":3582:4007   */\n      swap4\n      swap3\n      pop\n      pop\n      pop\n      jump\t// out\n        /* \"#utility.yul\":4027:4367   */\n    tag_85:\n        /* \"#utility.yul\":4083:4088   */\n      0x00\n        /* \"#utility.yul\":4132:4135   */\n      dup3\n        /* \"#utility.yul\":4125:4129   */\n      0x1f\n        /* \"#utility.yul\":4117:4123   */\n      dup4\n        /* \"#utility.yul\":4113:4130   */\n      add\n        /* \"#utility.yul\":4109:4136   */\n      slt\n        /* \"#utility.yul\":4099:4221   */\n      tag_155\n      jumpi\n        /* \"#utility.yul\":4140:4219   */\n      tag_156\n      tag_77\n      jump\t// in\n    tag_156:\n        /* \"#utility.yul\":4099:4221   */\n    tag_155:\n        /* \"#utility.yul\":4257:4263   */\n      dup2\n        /* \"#utility.yul\":4244:4264   */\n      calldataload\n        /* \"#utility.yul\":4282:4361   */\n      tag_157\n        /* \"#utility.yul\":4357:4360   */\n      dup5\n        /* \"#utility.yul\":4349:4355   */\n      dup3\n        /* \"#utility.yul\":4342:4346   */\n      0x20\n        /* \"#utility.yul\":4334:4340   */\n      dup7\n        /* \"#utility.yul\":4330:4347   */\n      add\n        /* \"#utility.yul\":4282:4361   */\n      tag_84\n      jump\t// in\n    tag_157:\n        /* \"#utility.yul\":4273:4361   */\n      swap2\n      pop\n        /* \"#utility.yul\":4089:4367   */\n      pop\n        /* \"#utility.yul\":4027:4367   */\n      swap3\n      swap2\n      pop\n      pop\n      jump\t// out\n        /* \"#utility.yul\":4373:4882   */\n    tag_16:\n        /* \"#utility.yul\":4442:4448   */\n      0x00\n        /* \"#utility.yul\":4491:4493   */\n      0x20\n        /* \"#utility.yul\":4479:4488   */\n      dup3\n        /* \"#utility.yul\":4470:4477   */\n      dup5\n        /* \"#utility.yul\":4466:4489   */\n      sub\n        /* \"#utility.yul\":4462:4494   */\n      slt\n        /* \"#utility.yul\":4459:4578   */\n      iszero\n      tag_159\n      jumpi\n        /* \"#utility.yul\":4497:4576   */\n      tag_160\n      tag_67\n      jump\t// in\n    tag_160:\n        /* \"#utility.yul\":4459:4578   */\n    tag_159:\n        /* \"#utility.yul\":4645:4646   */\n      0x00\n        /* \"#utility.yul\":4634:4643   */\n      dup3\n        /* \"#utility.yul\":4630:4647   */\n      add\n        /* \"#utility.yul\":4617:4648   */\n      calldataload\n        /* \"#utility.yul\":4675:4693   */\n      0xffffffffffffffff\n        /* \"#utility.yul\":4667:4673   */\n      dup2\n        /* \"#utility.yul\":4664:4694   */\n      gt\n        /* \"#utility.yul\":4661:4778   */\n      iszero\n      tag_161\n      jumpi\n        /* \"#utility.yul\":4697:4776   */\n      tag_162\n      tag_68\n      jump\t// in\n    tag_162:\n        /* \"#utility.yul\":4661:4778   */\n    tag_161:\n        /* \"#utility.yul\":4802:4865   */\n      tag_163\n        /* \"#utility.yul\":4857:4864   */\n      dup5\n        /* \"#utility.yul\":4848:4854   */\n      dup3\n        /* \"#utility.yul\":4837:4846   */\n      dup6\n        /* \"#utility.yul\":4833:4855   */\n      add\n        /* \"#utility.yul\":4802:4865   */\n      tag_85\n      jump\t// in\n    tag_163:\n        /* \"#utility.yul\":4792:4865   */\n      swap2\n      pop\n        /* \"#utility.yul\":4588:4875   */\n      pop\n        /* \"#utility.yul\":4373:4882   */\n      swap3\n      swap2\n      pop\n      pop\n      jump\t// out\n        /* \"#utility.yul\":4888:4964   */\n    tag_86:\n        /* \"#utility.yul\":4924:4931   */\n      0x00\n        /* \"#utility.yul\":4953:4958   */\n      dup2\n        /* \"#utility.yul\":4942:4958   */\n      swap1\n      pop\n        /* \"#utility.yul\":4888:4964   */\n      swap2\n      swap1\n      pop\n      jump\t// out\n        /* \"#utility.yul\":4970:5085   */\n    tag_87:\n        /* \"#utility.yul\":5055:5078   */\n      tag_166\n        /* \"#utility.yul\":5072:5077   */\n      dup2\n        /* \"#utility.yul\":5055:5078   */\n      tag_86\n      jump\t// in\n    tag_166:\n        /* \"#utility.yul\":5050:5053   */\n      dup3\n        /* \"#utility.yul\":5043:5079   */\n      mstore\n        /* \"#utility.yul\":4970:5085   */\n      pop\n      pop\n      jump\t// out\n        /* \"#utility.yul\":5091:5309   */\n    tag_19:\n        /* \"#utility.yul\":5182:5186   */\n      0x00\n        /* \"#utility.yul\":5220:5222   */\n      0x20\n        /* \"#utility.yul\":5209:5218   */\n      dup3\n        /* \"#utility.yul\":5205:5223   */\n      add\n        /* \"#utility.yul\":5197:5223   */\n      swap1\n      pop\n        /* \"#utility.yul\":5233:5302   */\n      tag_168\n        /* \"#utility.yul\":5299:5300   */\n      0x00\n        /* \"#utility.yul\":5288:5297   */\n      dup4\n        /* \"#utility.yul\":5284:5301   */\n      add\n        /* \"#utility.yul\":5275:5281   */\n      dup5\n        /* \"#utility.yul\":5233:5302   */\n      tag_87\n      jump\t// in\n    tag_168:\n        /* \"#utility.yul\":5091:5309   */\n      swap3\n      swap2\n      pop\n      pop\n      jump\t// out\n        /* \"#utility.yul\":5315:5495   */\n    tag_88:\n        /* \"#utility.yul\":5363:5440   */\n      0x4e487b7100000000000000000000000000000000000000000000000000000000\n        /* \"#utility.yul\":5360:5361   */\n      0x00\n        /* \"#utility.yul\":5353:5441   */\n      mstore\n        /* \"#utility.yul\":5460:5464   */\n      0x22\n        /* \"#utility.yul\":5457:5458   */\n      0x04\n        /* \"#utility.yul\":5450:5465   */\n      mstore\n        /* \"#utility.yul\":5484:5488   */\n      0x24\n        /* \"#utility.yul\":5481:5482   */\n      0x00\n        /* \"#utility.yul\":5474:5489   */\n      revert\n        /* \"#utility.yul\":5501:5821   */\n    tag_32:\n        /* \"#utility.yul\":5545:5551   */\n      0x00\n        /* \"#utility.yul\":5582:5583   */\n      0x02\n        /* \"#utility.yul\":5576:5580   */\n      dup3\n        /* \"#utility.yul\":5572:5584   */\n      div\n        /* \"#utility.yul\":5562:5584   */\n      swap1\n      pop\n        /* \"#utility.yul\":5629:5630   */\n      0x01\n        /* \"#utility.yul\":5623:5627   */\n      dup3\n        /* \"#utility.yul\":5619:5631   */\n      and\n        /* \"#utility.yul\":5650:5668   */\n      dup1\n        /* \"#utility.yul\":5640:5721   */\n      tag_171\n      jumpi\n        /* \"#utility.yul\":5706:5710   */\n      0x7f\n        /* \"#utility.yul\":5698:5704   */\n      dup3\n        /* \"#utility.yul\":5694:5711   */\n      and\n        /* \"#utility.yul\":5684:5711   */\n      swap2\n      pop\n        /* \"#utility.yul\":5640:5721   */\n    tag_171:\n        /* \"#utility.yul\":5768:5770   */\n      0x20\n        /* \"#utility.yul\":5760:5766   */\n      dup3\n        /* \"#utility.yul\":5757:5771   */\n      lt\n        /* \"#utility.yul\":5737:5755   */\n      dup2\n        /* \"#utility.yul\":5734:5772   */\n      sub\n        /* \"#utility.yul\":5731:5815   */\n      tag_172\n      jumpi\n        /* \"#utility.yul\":5787:5805   */\n      tag_173\n      tag_88\n      jump\t// in\n    tag_173:\n        /* \"#utility.yul\":5731:5815   */\n    tag_172:\n        /* \"#utility.yul\":5552:5821   */\n      pop\n        /* \"#utility.yul\":5501:5821   */\n      swap2\n      swap1\n      pop\n      jump\t// out\n        /* \"#utility.yul\":5827:5975   */\n    tag_89:\n        /* \"#utility.yul\":5929:5940   */\n      0x00\n        /* \"#utility.yul\":5966:5969   */\n      dup2\n        /* \"#utility.yul\":5951:5969   */\n      swap1\n      pop\n        /* \"#utility.yul\":5827:5975   */\n      swap3\n      swap2\n      pop\n      pop\n      jump\t// out\n        /* \"#utility.yul\":5981:6371   */\n    tag_90:\n        /* \"#utility.yul\":6087:6090   */\n      0x00\n        /* \"#utility.yul\":6115:6154   */\n      tag_176\n        /* \"#utility.yul\":6148:6153   */\n      dup3\n        /* \"#utility.yul\":6115:6154   */\n      tag_72\n      jump\t// in\n    tag_176:\n        /* \"#utility.yul\":6170:6259   */\n      tag_177\n        /* \"#utility.yul\":6252:6258   */\n      dup2\n        /* \"#utility.yul\":6247:6250   */\n      dup6\n        /* \"#utility.yul\":6170:6259   */\n      tag_89\n      jump\t// in\n    tag_177:\n        /* \"#utility.yul\":6163:6259   */\n      swap4\n      pop\n        /* \"#utility.yul\":6268:6333   */\n      tag_178\n        /* \"#utility.yul\":6326:6332   */\n      dup2\n        /* \"#utility.yul\":6321:6324   */\n      dup6\n        /* \"#utility.yul\":6314:6318   */\n      0x20\n        /* \"#utility.yul\":6307:6312   */\n      dup7\n        /* \"#utility.yul\":6303:6319   */\n      add\n        /* \"#utility.yul\":6268:6333   */\n      tag_74\n      jump\t// in\n    tag_178:\n        /* \"#utility.yul\":6358:6364   */\n      dup1\n        /* \"#utility.yul\":6353:6356   */\n      dup5\n        /* \"#utility.yul\":6349:6365   */\n      add\n        /* \"#utility.yul\":6342:6365   */\n      swap2\n      pop\n        /* \"#utility.yul\":6091:6371   */\n      pop\n        /* \"#utility.yul\":5981:6371   */\n      swap3\n      swap2\n      pop\n      pop\n      jump\t// out\n        /* \"#utility.yul\":6377:6652   */\n    tag_39:\n        /* \"#utility.yul\":6509:6512   */\n      0x00\n        /* \"#utility.yul\":6531:6626   */\n      tag_180\n        /* \"#utility.yul\":6622:6625   */\n      dup3\n        /* \"#utility.yul\":6613:6619   */\n      dup5\n        /* \"#utility.yul\":6531:6626   */\n      tag_90\n      jump\t// in\n    tag_180:\n        /* \"#utility.yul\":6524:6626   */\n      swap2\n      pop\n        /* \"#utility.yul\":6643:6646   */\n      dup2\n        /* \"#utility.yul\":6636:6646   */\n      swap1\n      pop\n        /* \"#utility.yul\":6377:6652   */\n      swap3\n      swap2\n      pop\n      pop\n      jump\t// out\n        /* \"#utility.yul\":6658:6838   */\n    tag_46:\n        /* \"#utility.yul\":6706:6783   */\n      0x4e487b7100000000000000000000000000000000000000000000000000000000\n        /* \"#utility.yul\":6703:6704   */\n      0x00\n        /* \"#utility.yul\":6696:6784   */\n      mstore\n        /* \"#utility.yul\":6803:6807   */\n      0x32\n        /* \"#utility.yul\":6800:6801   */\n      0x04\n        /* \"#utility.yul\":6793:6808   */\n      mstore\n        /* \"#utility.yul\":6827:6831   */\n      0x24\n        /* \"#utility.yul\":6824:6825   */\n      0x00\n        /* \"#utility.yul\":6817:6832   */\n      revert\n        /* \"#utility.yul\":6844:6985   */\n    tag_91:\n        /* \"#utility.yul\":6893:6897   */\n      0x00\n        /* \"#utility.yul\":6916:6919   */\n      dup2\n        /* \"#utility.yul\":6908:6919   */\n      swap1\n      pop\n        /* \"#utility.yul\":6939:6942   */\n      dup2\n        /* \"#utility.yul\":6936:6937   */\n      0x00\n        /* \"#utility.yul\":6929:6943   */\n      mstore\n        /* \"#utility.yul\":6973:6977   */\n      0x20\n        /* \"#utility.yul\":6970:6971   */\n      0x00\n        /* \"#utility.yul\":6960:6978   */\n      keccak256\n        /* \"#utility.yul\":6952:6978   */\n      swap1\n      pop\n        /* \"#utility.yul\":6844:6985   */\n      swap2\n      swap1\n      pop\n      jump\t// out\n        /* \"#utility.yul\":7015:7889   */\n    tag_92:\n        /* \"#utility.yul\":7118:7121   */\n      0x00\n        /* \"#utility.yul\":7155:7160   */\n      dup2\n        /* \"#utility.yul\":7149:7161   */\n      sload\n        /* \"#utility.yul\":7184:7220   */\n      tag_184\n        /* \"#utility.yul\":7210:7219   */\n      dup2\n        /* \"#utility.yul\":7184:7220   */\n      tag_32\n      jump\t// in\n    tag_184:\n        /* \"#utility.yul\":7236:7325   */\n      tag_185\n        /* \"#utility.yul\":7318:7324   */\n      dup2\n        /* \"#utility.yul\":7313:7316   */\n      dup7\n        /* \"#utility.yul\":7236:7325   */\n      tag_89\n      jump\t// in\n    tag_185:\n        /* \"#utility.yul\":7229:7325   */\n      swap5\n      pop\n        /* \"#utility.yul\":7356:7357   */\n      0x01\n        /* \"#utility.yul\":7345:7354   */\n      dup3\n        /* \"#utility.yul\":7341:7358   */\n      and\n        /* \"#utility.yul\":7372:7373   */\n      0x00\n        /* \"#utility.yul\":7367:7533   */\n      dup2\n      eq\n      tag_187\n      jumpi\n        /* \"#utility.yul\":7547:7548   */\n      0x01\n        /* \"#utility.yul\":7542:7883   */\n      dup2\n      eq\n      tag_188\n      jumpi\n        /* \"#utility.yul\":7334:7883   */\n      jump(tag_186)\n        /* \"#utility.yul\":7367:7533   */\n    tag_187:\n        /* \"#utility.yul\":7451:7455   */\n      0xff\n        /* \"#utility.yul\":7447:7456   */\n      not\n        /* \"#utility.yul\":7436:7445   */\n      dup4\n        /* \"#utility.yul\":7432:7457   */\n      and\n        /* \"#utility.yul\":7427:7430   */\n      dup7\n        /* \"#utility.yul\":7420:7458   */\n      mstore\n        /* \"#utility.yul\":7513:7519   */\n      dup2\n        /* \"#utility.yul\":7506:7520   */\n      iszero\n        /* \"#utility.yul\":7499:7521   */\n      iszero\n        /* \"#utility.yul\":7491:7497   */\n      dup3\n        /* \"#utility.yul\":7487:7522   */\n      mul\n        /* \"#utility.yul\":7482:7485   */\n      dup7\n        /* \"#utility.yul\":7478:7523   */\n      add\n        /* \"#utility.yul\":7471:7523   */\n      swap4\n      pop\n        /* \"#utility.yul\":7367:7533   */\n      jump(tag_186)\n        /* \"#utility.yul\":7542:7883   */\n    tag_188:\n        /* \"#utility.yul\":7609:7647   */\n      tag_189\n        /* \"#utility.yul\":7641:7646   */\n      dup6\n        /* \"#utility.yul\":7609:7647   */\n      tag_91\n      jump\t// in\n    tag_189:\n        /* \"#utility.yul\":7669:7670   */\n      0x00\n        /* \"#utility.yul\":7683:7837   */\n    tag_190:\n        /* \"#utility.yul\":7697:7703   */\n      dup4\n        /* \"#utility.yul\":7694:7695   */\n      dup2\n        /* \"#utility.yul\":7691:7704   */\n      lt\n        /* \"#utility.yul\":7683:7837   */\n      iszero\n      tag_192\n      jumpi\n        /* \"#utility.yul\":7771:7778   */\n      dup2\n        /* \"#utility.yul\":7765:7779   */\n      sload\n        /* \"#utility.yul\":7761:7762   */\n      dup2\n        /* \"#utility.yul\":7756:7759   */\n      dup10\n        /* \"#utility.yul\":7752:7763   */\n      add\n        /* \"#utility.yul\":7745:7780   */\n      mstore\n        /* \"#utility.yul\":7821:7822   */\n      0x01\n        /* \"#utility.yul\":7812:7819   */\n      dup3\n        /* \"#utility.yul\":7808:7823   */\n      add\n        /* \"#utility.yul\":7797:7823   */\n      swap2\n      pop\n        /* \"#utility.yul\":7719:7723   */\n      0x20\n        /* \"#utility.yul\":7716:7717   */\n      dup2\n        /* \"#utility.yul\":7712:7724   */\n      add\n        /* \"#utility.yul\":7707:7724   */\n      swap1\n      pop\n        /* \"#utility.yul\":7683:7837   */\n      jump(tag_190)\n    tag_192:\n        /* \"#utility.yul\":7866:7872   */\n      dup4\n        /* \"#utility.yul\":7861:7864   */\n      dup9\n        /* \"#utility.yul\":7857:7873   */\n      add\n        /* \"#utility.yul\":7850:7873   */\n      swap6\n      pop\n        /* \"#utility.yul\":7549:7883   */\n      pop\n      pop\n        /* \"#utility.yul\":7334:7883   */\n    tag_186:\n      pop\n        /* \"#utility.yul\":7122:7889   */\n      pop\n      pop\n        /* \"#utility.yul\":7015:7889   */\n      swap3\n      swap2\n      pop\n      pop\n      jump\t// out\n        /* \"#utility.yul\":7895:8164   */\n    tag_49:\n        /* \"#utility.yul\":8024:8027   */\n      0x00\n        /* \"#utility.yul\":8046:8138   */\n      tag_194\n        /* \"#utility.yul\":8134:8137   */\n      dup3\n        /* \"#utility.yul\":8125:8131   */\n      dup5\n        /* \"#utility.yul\":8046:8138   */\n      tag_92\n      jump\t// in\n    tag_194:\n        /* \"#utility.yul\":8039:8138   */\n      swap2\n      pop\n        /* \"#utility.yul\":8155:8158   */\n      dup2\n        /* \"#utility.yul\":8148:8158   */\n      swap1\n      pop\n        /* \"#utility.yul\":7895:8164   */\n      swap3\n      swap2\n      pop\n      pop\n      jump\t// out\n        /* \"#utility.yul\":8170:8350   */\n    tag_93:\n        /* \"#utility.yul\":8218:8295   */\n      0x4e487b7100000000000000000000000000000000000000000000000000000000\n        /* \"#utility.yul\":8215:8216   */\n      0x00\n        /* \"#utility.yul\":8208:8296   */\n      mstore\n        /* \"#utility.yul\":8315:8319   */\n      0x11\n        /* \"#utility.yul\":8312:8313   */\n      0x04\n        /* \"#utility.yul\":8305:8320   */\n      mstore\n        /* \"#utility.yul\":8339:8343   */\n      0x24\n        /* \"#utility.yul\":8336:8337   */\n      0x00\n        /* \"#utility.yul\":8329:8344   */\n      revert\n        /* \"#utility.yul\":8356:8587   */\n    tag_53:\n        /* \"#utility.yul\":8394:8397   */\n      0x00\n        /* \"#utility.yul\":8417:8440   */\n      tag_197\n        /* \"#utility.yul\":8434:8439   */\n      dup3\n        /* \"#utility.yul\":8417:8440   */\n      tag_86\n      jump\t// in\n    tag_197:\n        /* \"#utility.yul\":8408:8440   */\n      swap2\n      pop\n        /* \"#utility.yul\":8462:8528   */\n      0x7fffffffffffffffffffffffffffffffffffffffffffffffffffffffffffffff\n        /* \"#utility.yul\":8455:8460   */\n      dup3\n        /* \"#utility.yul\":8452:8529   */\n      sub\n        /* \"#utility.yul\":8449:8552   */\n      tag_198\n      jumpi\n        /* \"#utility.yul\":8532:8550   */\n      tag_199\n      tag_93\n      jump\t// in\n    tag_199:\n        /* \"#utility.yul\":8449:8552   */\n    tag_198:\n        /* \"#utility.yul\":8579:8580   */\n      0x01\n        /* \"#utility.yul\":8572:8577   */\n      dup3\n        /* \"#utility.yul\":8568:8581   */\n      add\n        /* \"#utility.yul\":8561:8581   */\n      swap1\n      pop\n        /* \"#utility.yul\":8356:8587   */\n      swap2\n      swap1\n      pop\n      jump\t// out\n        /* \"#utility.yul\":8593:8686   */\n    tag_94:\n        /* \"#utility.yul\":8630:8636   */\n      0x00\n        /* \"#utility.yul\":8677:8679   */\n      0x20\n        /* \"#utility.yul\":8672:8674   */\n      0x1f\n        /* \"#utility.yul\":8665:8670   */\n      dup4\n        /* \"#utility.yul\":8661:8675   */\n      add\n        /* \"#utility.yul\":8657:8680   */\n      div\n        /* \"#utility.yul\":8647:8680   */\n      swap1\n      pop\n        /* \"#utility.yul\":8593:8686   */\n      swap2\n      swap1\n      pop\n      jump\t// out\n        /* \"#utility.yul\":8692:8799   */\n    tag_95:\n        /* \"#utility.yul\":8736:8744   */\n      0x00\n        /* \"#utility.yul\":8786:8791   */\n      dup3\n        /* \"#utility.yul\":8780:8784   */\n      dup3\n        /* \"#utility.yul\":8776:8792   */\n      shl\n        /* \"#utility.yul\":8755:8792   */\n      swap1\n      pop\n        /* \"#utility.yul\":8692:8799   */\n      swap3\n      swap2\n      pop\n      pop\n      jump\t// out\n        /* \"#utility.yul\":8805:9198   */\n    tag_96:\n        /* \"#utility.yul\":8874:8880   */\n      0x00\n        /* \"#utility.yul\":8924:8925   */\n      0x08\n        /* \"#utility.yul\":8912:8922   */\n      dup4\n        /* \"#utility.yul\":8908:8926   */\n      mul\n        /* \"#utility.yul\":8947:9044   */\n      tag_203\n        /* \"#utility.yul\":8977:9043   */\n      0xffffffffffffffffffffffffffffffffffffffffffffffffffffffffffffffff\n        /* \"#utility.yul\":8966:8975   */\n      dup3\n        /* \"#utility.yul\":8947:9044   */\n      tag_95\n      jump\t// in\n    tag_203:\n        /* \"#utility.yul\":9065:9104   */\n      tag_204\n        /* \"#utility.yul\":9095:9103   */\n      dup7\n        /* \"#utility.yul\":9084:9093   */\n      dup4\n        /* \"#utility.yul\":9065:9104   */\n      tag_95\n      jump\t// in\n    tag_204:\n        /* \"#utility.yul\":9053:9104   */\n      swap6\n      pop\n        /* \"#utility.yul\":9137:9141   */\n      dup1\n        /* \"#utility.yul\":9133:9142   */\n      not\n        /* \"#utility.yul\":9126:9131   */\n      dup5\n        /* \"#utility.yul\":9122:9143   */\n      and\n        /* \"#utility.yul\":9113:9143   */\n      swap4\n      pop\n        /* \"#utility.yul\":9186:9190   */\n      dup1\n        /* \"#utility.yul\":9176:9184   */\n      dup7\n        /* \"#utility.yul\":9172:9191   */\n      and\n        /* \"#utility.yul\":9165:9170   */\n      dup5\n        /* \"#utility.yul\":9162:9192   */\n      or\n        /* \"#utility.yul\":9152:9192   */\n      swap3\n      pop\n        /* \"#utility.yul\":8881:9198   */\n      pop\n      pop\n        /* \"#utility.yul\":8805:9198   */\n      swap4\n      swap3\n      pop\n      pop\n      pop\n      jump\t// out\n        /* \"#utility.yul\":9204:9264   */\n    tag_97:\n        /* \"#utility.yul\":9232:9235   */\n      0x00\n        /* \"#utility.yul\":9253:9258   */\n      dup2\n        /* \"#utility.yul\":9246:9258   */\n      swap1\n      pop\n        /* \"#utility.yul\":9204:9264   */\n      swap2\n      swap1\n      pop\n      jump\t// out\n        /* \"#utility.yul\":9270:9412   */\n    tag_98:\n        /* \"#utility.yul\":9320:9329   */\n      0x00\n        /* \"#utility.yul\":9353:9406   */\n      tag_207\n        /* \"#utility.yul\":9371:9405   */\n      tag_208\n        /* \"#utility.yul\":9380:9404   */\n      tag_209\n        /* \"#utility.yul\":9398:9403   */\n      dup5\n        /* \"#utility.yul\":9380:9404   */\n      tag_69\n      jump\t// in\n    tag_209:\n        /* \"#utility.yul\":9371:9405   */\n      tag_97\n      jump\t// in\n    tag_208:\n        /* \"#utility.yul\":9353:9406   */\n      tag_69\n      jump\t// in\n    tag_207:\n        /* \"#utility.yul\":9340:9406   */\n      swap1\n      pop\n        /* \"#utility.yul\":9270:9412   */\n      swap2\n      swap1\n      pop\n      jump\t// out\n        /* \"#utility.yul\":9418:9493   */\n    tag_99:\n        /* \"#utility.yul\":9461:9464   */\n      0x00\n        /* \"#utility.yul\":9482:9487   */\n      dup2\n        /* \"#utility.yul\":9475:9487   */\n      swap1\n      pop\n        /* \"#utility.yul\":9418:9493   */\n      swap2\n      swap1\n      pop\n      jump\t// out\n        /* \"#utility.yul\":9499:9768   */\n    tag_100:\n        /* \"#utility.yul\":9609:9648   */\n      tag_212\n        /* \"#utility.yul\":9640:9647   */\n      dup4\n        /* \"#utility.yul\":9609:9648   */\n      tag_98\n      jump\t// in\n    tag_212:\n        /* \"#utility.yul\":9670:9761   */\n      tag_213\n        /* \"#utility.yul\":9719:9760   */\n      tag_214\n        /* \"#utility.yul\":9743:9759   */\n      dup3\n        /* \"#utility.yul\":9719:9760   */\n      tag_99\n      jump\t// in\n    tag_214:\n        /* \"#utility.yul\":9711:9717   */\n      dup5\n        /* \"#utility.yul\":9704:9708   */\n      dup5\n        /* \"#utility.yul\":9698:9709   */\n      sload\n        /* \"#utility.yul\":9670:9761   */\n      tag_96\n      jump\t// in\n    tag_213:\n        /* \"#utility.yul\":9664:9668   */\n      dup3\n        /* \"#utility.yul\":9657:9762   */\n      sstore\n        /* \"#utility.yul\":9575:9768   */\n      pop\n        /* \"#utility.yul\":9499:9768   */\n      pop\n      pop\n      pop\n      jump\t// out\n        /* \"#utility.yul\":9774:9847   */\n    tag_101:\n        /* \"#utility.yul\":9819:9822   */\n      0x00\n        /* \"#utility.yul\":9840:9841   */\n      0x00\n        /* \"#utility.yul\":9833:9841   */\n      swap1\n      pop\n        /* \"#utility.yul\":9774:9847   */\n      swap1\n      jump\t// out\n        /* \"#utility.yul\":9853:10042   */\n    tag_102:\n        /* \"#utility.yul\":9930:9962   */\n      tag_217\n      tag_101\n      jump\t// in\n    tag_217:\n        /* \"#utility.yul\":9971:10036   */\n      tag_218\n        /* \"#utility.yul\":10029:10035   */\n      dup2\n        /* \"#utility.yul\":10021:10027   */\n      dup5\n        /* \"#utility.yul\":10015:10019   */\n      dup5\n        /* \"#utility.yul\":9971:10036   */\n      tag_100\n      jump\t// in\n    tag_218:\n        /* \"#utility.yul\":9906:10042   */\n      pop\n        /* \"#utility.yul\":9853:10042   */\n      pop\n      pop\n      jump\t// out\n        /* \"#utility.yul\":10048:10234   */\n    tag_103:\n        /* \"#utility.yul\":10108:10228   */\n    tag_220:\n        /* \"#utility.yul\":10125:10128   */\n      dup2\n        /* \"#utility.yul\":10118:10123   */\n      dup2\n        /* \"#utility.yul\":10115:10129   */\n      lt\n        /* \"#utility.yul\":10108:10228   */\n      iszero\n      tag_222\n      jumpi\n        /* \"#utility.yul\":10179:10218   */\n      tag_223\n        /* \"#utility.yul\":10216:10217   */\n      0x00\n        /* \"#utility.yul\":10209:10214   */\n      dup3\n        /* \"#utility.yul\":10179:10218   */\n      tag_102\n      jump\t// in\n    tag_223:\n        /* \"#utility.yul\":10152:10153   */\n      0x01\n        /* \"#utility.yul\":10145:10150   */\n      dup2\n        /* \"#utility.yul\":10141:10154   */\n      add\n        /* \"#utility.yul\":10132:10154   */\n      swap1\n      pop\n        /* \"#utility.yul\":10108:10228   */\n      jump(tag_220)\n    tag_222:\n        /* \"#utility.yul\":10048:10234   */\n      pop\n      pop\n      jump\t// out\n        /* \"#utility.yul\":10240:10783   */\n    tag_104:\n        /* \"#utility.yul\":10341:10343   */\n      0x1f\n        /* \"#utility.yul\":10336:10339   */\n      dup3\n        /* \"#utility.yul\":10333:10344   */\n      gt\n        /* \"#utility.yul\":10330:10776   */\n      iszero\n      tag_225\n      jumpi\n        /* \"#utility.yul\":10375:10413   */\n      tag_226\n        /* \"#utility.yul\":10407:10412   */\n      dup2\n        /* \"#utility.yul\":10375:10413   */\n      tag_91\n      jump\t// in\n    tag_226:\n        /* \"#utility.yul\":10459:10488   */\n      tag_227\n        /* \"#utility.yul\":10477:10487   */\n      dup5\n        /* \"#utility.yul\":10459:10488   */\n      tag_94\n      jump\t// in\n    tag_227:\n        /* \"#utility.yul\":10449:10457   */\n      dup2\n        /* \"#utility.yul\":10445:10489   */\n      add\n        /* \"#utility.yul\":10642:10644   */\n      0x20\n        /* \"#utility.yul\":10630:10640   */\n      dup6\n        /* \"#utility.yul\":10627:10645   */\n      lt\n        /* \"#utility.yul\":10624:10673   */\n      iszero\n      tag_228\n      jumpi\n        /* \"#utility.yul\":10663:10671   */\n      dup2\n        /* \"#utility.yul\":10648:10671   */\n      swap1\n      pop\n        /* \"#utility.yul\":10624:10673   */\n    tag_228:\n        /* \"#utility.yul\":10686:10766   */\n      tag_229\n        /* \"#utility.yul\":10742:10764   */\n      tag_230\n        /* \"#utility.yul\":10760:10763   */\n      dup6\n        /* \"#utility.yul\":10742:10764   */\n      tag_94\n      jump\t// in\n    tag_230:\n        /* \"#utility.yul\":10732:10740   */\n      dup4\n        /* \"#utility.yul\":10728:10765   */\n      add\n        /* \"#utility.yul\":10715:10726   */\n      dup3\n        /* \"#utility.yul\":10686:10766   */\n      tag_103\n      jump\t// in\n    tag_229:\n        /* \"#utility.yul\":10345:10776   */\n      pop\n      pop\n        /* \"#utility.yul\":10330:10776   */\n    tag_225:\n        /* \"#utility.yul\":10240:10783   */\n      pop\n      pop\n      pop\n      jump\t// out\n        /* \"#utility.yul\":10789:10906   */\n    tag_105:\n        /* \"#utility.yul\":10843:10851   */\n      0x00\n        /* \"#utility.yul\":10893:10898   */\n      dup3\n        /* \"#utility.yul\":10887:10891   */\n      dup3\n        /* \"#utility.yul\":10883:10899   */\n      shr\n        /* \"#utility.yul\":10862:10899   */\n      swap1\n      pop\n        /* \"#utility.yul\":10789:10906   */\n      swap3\n      swap2\n      pop\n      pop\n      jump\t// out\n        /* \"#utility.yul\":10912:11081   */\n    tag_106:\n        /* \"#utility.yul\":10956:10962   */\n      0x00\n        /* \"#utility.yul\":10989:11040   */\n      tag_233\n        /* \"#utility.yul\":11037:11038   */\n      0x00\n        /* \"#utility.yul\":11033:11039   */\n      not\n        /* \"#utility.yul\":11025:11030   */\n      dup5\n        /* \"#utility.yul\":11022:11023   */\n      0x08\n        /* \"#utility.yul\":11018:11031   */\n      mul\n        /* \"#utility.yul\":10989:11040   */\n      tag_105\n      jump\t// in\n    tag_233:\n        /* \"#utility.yul\":10985:11041   */\n      not\n        /* \"#utility.yul\":11070:11074   */\n      dup1\n        /* \"#utility.yul\":11064:11068   */\n      dup4\n        /* \"#utility.yul\":11060:11075   */\n      and\n        /* \"#utility.yul\":11050:11075   */\n      swap2\n      pop\n        /* \"#utility.yul\":10963:11081   */\n      pop\n        /* \"#utility.yul\":10912:11081   */\n      swap3\n      swap2\n      pop\n      pop\n      jump\t// out\n        /* \"#utility.yul\":11086:11381   */\n    tag_107:\n        /* \"#utility.yul\":11162:11166   */\n      0x00\n        /* \"#utility.yul\":11308:11337   */\n      tag_235\n        /* \"#utility.yul\":11333:11336   */\n      dup4\n        /* \"#utility.yul\":11327:11331   */\n      dup4\n        /* \"#utility.yul\":11308:11337   */\n      tag_106\n      jump\t// in\n    tag_235:\n        /* \"#utility.yul\":11300:11337   */\n      swap2\n      pop\n        /* \"#utility.yul\":11370:11373   */\n      dup3\n        /* \"#utility.yul\":11367:11368   */\n      0x02\n        /* \"#utility.yul\":11363:11374   */\n      mul\n        /* \"#utility.yul\":11357:11361   */\n      dup3\n        /* \"#utility.yul\":11354:11375   */\n      or\n        /* \"#utility.yul\":11346:11375   */\n      swap1\n      pop\n        /* \"#utility.yul\":11086:11381   */\n      swap3\n      swap2\n      pop\n      pop\n      jump\t// out\n        /* \"#utility.yul\":11386:12781   */\n    tag_65:\n        /* \"#utility.yul\":11503:11540   */\n      tag_237\n        /* \"#utility.yul\":11536:11539   */\n      dup3\n        /* \"#utility.yul\":11503:11540   */\n      tag_72\n      jump\t// in\n    tag_237:\n        /* \"#utility.yul\":11605:11623   */\n      0xffffffffffffffff\n        /* \"#utility.yul\":11597:11603   */\n      dup2\n        /* \"#utility.yul\":11594:11624   */\n      gt\n        /* \"#utility.yul\":11591:11647   */\n      iszero\n      tag_238\n      jumpi\n        /* \"#utility.yul\":11627:11645   */\n      tag_239\n      tag_79\n      jump\t// in\n    tag_239:\n        /* \"#utility.yul\":11591:11647   */\n    tag_238:\n        /* \"#utility.yul\":11671:11709   */\n      tag_240\n        /* \"#utility.yul\":11703:11707   */\n      dup3\n        /* \"#utility.yul\":11697:11708   */\n      sload\n        /* \"#utility.yul\":11671:11709   */\n      tag_32\n      jump\t// in\n    tag_240:\n        /* \"#utility.yul\":11756:11823   */\n      tag_241\n        /* \"#utility.yul\":11816:11822   */\n      dup3\n        /* \"#utility.yul\":11808:11814   */\n      dup3\n        /* \"#utility.yul\":11802:11806   */\n      dup6\n        /* \"#utility.yul\":11756:11823   */\n      tag_104\n      jump\t// in\n    tag_241:\n        /* \"#utility.yul\":11850:11851   */\n      0x00\n        /* \"#utility.yul\":11874:11878   */\n      0x20\n        /* \"#utility.yul\":11861:11878   */\n      swap1\n      pop\n        /* \"#utility.yul\":11906:11908   */\n      0x1f\n        /* \"#utility.yul\":11898:11904   */\n      dup4\n        /* \"#utility.yul\":11895:11909   */\n      gt\n        /* \"#utility.yul\":11923:11924   */\n      0x01\n        /* \"#utility.yul\":11918:12536   */\n      dup2\n      eq\n      tag_243\n      jumpi\n        /* \"#utility.yul\":12580:12581   */\n      0x00\n        /* \"#utility.yul\":12597:12603   */\n      dup5\n        /* \"#utility.yul\":12594:12671   */\n      iszero\n      tag_244\n      jumpi\n        /* \"#utility.yul\":12646:12655   */\n      dup3\n        /* \"#utility.yul\":12641:12644   */\n      dup8\n        /* \"#utility.yul\":12637:12656   */\n      add\n        /* \"#utility.yul\":12631:12657   */\n      mload\n        /* \"#utility.yul\":12622:12657   */\n      swap1\n      pop\n        /* \"#utility.yul\":12594:12671   */\n    tag_244:\n        /* \"#utility.yul\":12697:12764   */\n      tag_245\n        /* \"#utility.yul\":12757:12763   */\n      dup6\n        /* \"#utility.yul\":12750:12755   */\n      dup3\n        /* \"#utility.yul\":12697:12764   */\n      tag_107\n      jump\t// in\n    tag_245:\n        /* \"#utility.yul\":12691:12695   */\n      dup7\n        /* \"#utility.yul\":12684:12765   */\n      sstore\n        /* \"#utility.yul\":12553:12775   */\n      pop\n        /* \"#utility.yul\":11888:12775   */\n      jump(tag_242)\n        /* \"#utility.yul\":11918:12536   */\n    tag_243:\n        /* \"#utility.yul\":11970:11974   */\n      0x1f\n        /* \"#utility.yul\":11966:11975   */\n      not\n        /* \"#utility.yul\":11958:11964   */\n      dup5\n        /* \"#utility.yul\":11954:11976   */\n      and\n        /* \"#utility.yul\":12004:12041   */\n      tag_246\n        /* \"#utility.yul\":12036:12040   */\n      dup7\n        /* \"#utility.yul\":12004:12041   */\n      tag_91\n      jump\t// in\n    tag_246:\n        /* \"#utility.yul\":12063:12064   */\n      0x00\n        /* \"#utility.yul\":12077:12285   */\n    tag_247:\n        /* \"#utility.yul\":12091:12098   */\n      dup3\n        /* \"#utility.yul\":12088:12089   */\n      dup2\n        /* \"#utility.yul\":12085:12099   */\n      lt\n        /* \"#utility.yul\":12077:12285   */\n      iszero\n      tag_249\n      jumpi\n        /* \"#utility.yul\":12170:12179   */\n      dup5\n        /* \"#utility.yul\":12165:12168   */\n      dup10\n        /* \"#utility.yul\":12161:12180   */\n      add\n        /* \"#utility.yul\":12155:12181   */\n      mload\n        /* \"#utility.yul\":12147:12153   */\n      dup3\n        /* \"#utility.yul\":12140:12182   */\n      sstore\n        /* \"#utility.yul\":12221:12222   */\n      0x01\n        /* \"#utility.yul\":12213:12219   */\n      dup3\n        /* \"#utility.yul\":12209:12223   */\n      add\n        /* \"#utility.yul\":12199:12223   */\n      swap2\n      pop\n        /* \"#utility.yul\":12268:12270   */\n      0x20\n        /* \"#utility.yul\":12257:12266   */\n      dup6\n        /* \"#utility.yul\":12253:12271   */\n      add\n        /* \"#utility.yul\":12240:12271   */\n      swap5\n      pop\n        /* \"#utility.yul\":12114:12118   */\n      0x20\n        /* \"#utility.yul\":12111:12112   */\n      dup2\n        /* \"#utility.yul\":12107:12119   */\n      add\n        /* \"#utility.yul\":12102:12119   */\n      swap1\n      pop\n        /* \"#utility.yul\":12077:12285   */\n      jump(tag_247)\n    tag_249:\n        /* \"#utility.yul\":12313:12319   */\n      dup7\n        /* \"#utility.yul\":12304:12311   */\n      dup4\n        /* \"#utility.yul\":12301:12320   */\n      lt\n        /* \"#utility.yul\":12298:12477   */\n      iszero\n      tag_250\n      jumpi\n        /* \"#utility.yul\":12371:12380   */\n      dup5\n        /* \"#utility.yul\":12366:12369   */\n      dup10\n        /* \"#utility.yul\":12362:12381   */\n      add\n        /* \"#utility.yul\":12356:12382   */\n      mload\n        /* \"#utility.yul\":12414:12462   */\n      tag_251\n        /* \"#utility.yul\":12456:12460   */\n      0x1f\n        /* \"#utility.yul\":12448:12454   */\n      dup10\n        /* \"#utility.yul\":12444:12461   */\n      and\n        /* \"#utility.yul\":12433:12442   */\n      dup3\n        /* \"#utility.yul\":12414:12462   */\n      tag_106\n      jump\t// in\n    tag_251:\n        /* \"#utility.yul\":12406:12412   */\n      dup4\n        /* \"#utility.yul\":12399:12463   */\n      sstore\n        /* \"#utility.yul\":12321:12477   */\n      pop\n        /* \"#utility.yul\":12298:12477   */\n    tag_250:\n        /* \"#utility.yul\":12523:12524   */\n      0x01\n        /* \"#utility.yul\":12519:12520   */\n      0x02\n        /* \"#utility.yul\":12511:12517   */\n      dup9\n        /* \"#utility.yul\":12507:12521   */\n      mul\n        /* \"#utility.yul\":12503:12525   */\n      add\n        /* \"#utility.yul\":12497:12501   */\n      dup9\n        /* \"#utility.yul\":12490:12526   */\n      sstore\n        /* \"#utility.yul\":11925:12536   */\n      pop\n      pop\n      pop\n        /* \"#utility.yul\":11888:12775   */\n    tag_242:\n      pop\n        /* \"#utility.yul\":11478:12781   */\n      pop\n      pop\n      pop\n        /* \"#utility.yul\":11386:12781   */\n      pop\n      pop\n      jump\t// out\n\n    auxdata: 0xa2646970667358221220798cac1df9fd239bfc88c828bec58b44a5eee7ee8b22d504266f5a914cf335ef64736f6c634300081e0033\n}\n",
				"bytecode": {
					"linkReferences": {},
					"object": "6080604052348015600e575f5ffd5b50610a8e8061001c5f395ff3fe608060405234801561000f575f5ffd5b5060043610610055575f3560e01c80633477ee2e14610059578063805265e514610089578063b9830ff1146100b9578063b99ef1fa146100c3578063fc36e15b146100f3575b5f5ffd5b610073600480360381019061006e91906103a6565b61010f565b6040516100809190610441565b60405180910390f35b6100a3600480360381019061009e919061058d565b6101b5565b6040516100b091906105ec565b60405180910390f35b6100c16101db565b005b6100dd60048036038101906100d8919061058d565b61023a565b6040516100ea91906105ec565b60405180910390f35b61010d6004803603810190610108919061058d565b610266565b005b6001818154811061011e575f80fd5b905f5260205f20015f91509050805461013690610632565b80601f016020809104026020016040519081016040528092919081815260200182805461016290610632565b80156101ad5780601f10610184576101008083540402835291602001916101ad565b820191905f5260205f20905b81548152906001019060200180831161019057829003601f168201915b505050505081565b5f5f826040516101c5919061069c565b9081526020016040518091039020549050919050565b5f5f90505b600180549050811015610237575f5f60018381548110610203576102026106b2565b5b905f5260205f20016040516102189190610771565b90815260200160405180910390208190555080806001019150506101e0565b50565b5f818051602081018201805184825260208301602085012081835280955050505050505f915090505481565b5f81604051610275919061069c565b90815260200160405180910390205f815480929190610293906107b4565b91905055505f5f90505b60018054905081101561032b57816040516020016102bb919061069c565b60405160208183030381529060405280519060200120600182815481106102e5576102e46106b2565b5b905f5260205f20016040516020016102fd9190610771565b604051602081830303815290604052805190602001200361031e575061035f565b808060010191505061029d565b50600181908060018154018082558091505060019003905f5260205f20015f90919091909150908161035d9190610989565b505b50565b5f604051905090565b5f5ffd5b5f5ffd5b5f819050919050565b61038581610373565b811461038f575f5ffd5b50565b5f813590506103a08161037c565b92915050565b5f602082840312156103bb576103ba61036b565b5b5f6103c884828501610392565b91505092915050565b5f81519050919050565b5f82825260208201905092915050565b8281835e5f83830152505050565b5f601f19601f8301169050919050565b5f610413826103d1565b61041d81856103db565b935061042d8185602086016103eb565b610436816103f9565b840191505092915050565b5f6020820190508181035f8301526104598184610409565b905092915050565b5f5ffd5b5f5ffd5b7f4e487b71000000000000000000000000000000000000000000000000000000005f52604160045260245ffd5b61049f826103f9565b810181811067ffffffffffffffff821117156104be576104bd610469565b5b80604052505050565b5f6104d0610362565b90506104dc8282610496565b919050565b5f67ffffffffffffffff8211156104fb576104fa610469565b5b610504826103f9565b9050602081019050919050565b828183375f83830152505050565b5f61053161052c846104e1565b6104c7565b90508281526020810184848401111561054d5761054c610465565b5b610558848285610511565b509392505050565b5f82601f83011261057457610573610461565b5b813561058484826020860161051f565b91505092915050565b5f602082840312156105a2576105a161036b565b5b5f82013567ffffffffffffffff8111156105bf576105be61036f565b5b6105cb84828501610560565b91505092915050565b5f819050919050565b6105e6816105d4565b82525050565b5f6020820190506105ff5f8301846105dd565b92915050565b7f4e487b71000000000000000000000000000000000000000000000000000000005f52602260045260245ffd5b5f600282049050600182168061064957607f821691505b60208210810361065c5761065b610605565b5b50919050565b5f81905092915050565b5f610676826103d1565b6106808185610662565b93506106908185602086016103eb565b80840191505092915050565b5f6106a7828461066c565b915081905092915050565b7f4e487b71000000000000000000000000000000000000000000000000000000005f52603260045260245ffd5b5f819050815f5260205f209050919050565b5f81546106fd81610632565b6107078186610662565b9450600182165f8114610721576001811461073657610768565b60ff1983168652811515820286019350610768565b61073f856106df565b5f5b8381101561076057815481890152600182019150602081019050610741565b838801955050505b50505092915050565b5f61077c82846106f1565b915081905092915050565b7f4e487b71000000000000000000000000000000000000000000000000000000005f52601160045260245ffd5b5f6107be826105d4565b91507f7fffffffffffffffffffffffffffffffffffffffffffffffffffffffffffffff82036107f0576107ef610787565b5b600182019050919050565b5f6020601f8301049050919050565b5f82821b905092915050565b5f600883026108457fffffffffffffffffffffffffffffffffffffffffffffffffffffffffffffffff8261080a565b61084f868361080a565b95508019841693508086168417925050509392505050565b5f819050919050565b5f61088a61088561088084610373565b610867565b610373565b9050919050565b5f819050919050565b6108a383610870565b6108b76108af82610891565b848454610816565b825550505050565b5f5f905090565b6108ce6108bf565b6108d981848461089a565b505050565b5b818110156108fc576108f15f826108c6565b6001810190506108df565b5050565b601f82111561094157610912816106df565b61091b846107fb565b8101602085101561092a578190505b61093e610936856107fb565b8301826108de565b50505b505050565b5f82821c905092915050565b5f6109615f1984600802610946565b1980831691505092915050565b5f6109798383610952565b9150826002028217905092915050565b610992826103d1565b67ffffffffffffffff8111156109ab576109aa610469565b5b6109b58254610632565b6109c0828285610900565b5f60209050601f8311600181146109f1575f84156109df578287015190505b6109e9858261096e565b865550610a50565b601f1984166109ff866106df565b5f5b82811015610a2657848901518255600182019150602085019450602081019050610a01565b86831015610a435784890151610a3f601f891682610952565b8355505b6001600288020188555050505b50505050505056fea2646970667358221220798cac1df9fd239bfc88c828bec58b44a5eee7ee8b22d504266f5a914cf335ef64736f6c634300081e0033",
					"opcodes": "PUSH1 0x80 PUSH1 0x40 MSTORE CALLVALUE DUP1 ISZERO PUSH1 0xE JUMPI PUSH0 PUSH0 REVERT JUMPDEST POP PUSH2 0xA8E DUP1 PUSH2 0x1C PUSH0 CODECOPY PUSH0 RETURN INVALID PUSH1 0x80 PUSH1 0x40 MSTORE CALLVALUE DUP1 ISZERO PUSH2 0xF JUMPI PUSH0 PUSH0 REVERT JUMPDEST POP PUSH1 0x4 CALLDATASIZE LT PUSH2 0x55 JUMPI PUSH0 CALLDATALOAD PUSH1 0xE0 SHR DUP1 PUSH4 0x3477EE2E EQ PUSH2 0x59 JUMPI DUP1 PUSH4 0x805265E5 EQ PUSH2 0x89 JUMPI DUP1 PUSH4 0xB9830FF1 EQ PUSH2 0xB9 JUMPI DUP1 PUSH4 0xB99EF1FA EQ PUSH2 0xC3 JUMPI DUP1 PUSH4 0xFC36E15B EQ PUSH2 0xF3 JUMPI JUMPDEST PUSH0 PUSH0 REVERT JUMPDEST PUSH2 0x73 PUSH1 0x4 DUP1 CALLDATASIZE SUB DUP2 ADD SWAP1 PUSH2 0x6E SWAP2 SWAP1 PUSH2 0x3A6 JUMP JUMPDEST PUSH2 0x10F JUMP JUMPDEST PUSH1 0x40 MLOAD PUSH2 0x80 SWAP2 SWAP1 PUSH2 0x441 JUMP JUMPDEST PUSH1 0x40 MLOAD DUP1 SWAP2 SUB SWAP1 RETURN JUMPDEST PUSH2 0xA3 PUSH1 0x4 DUP1 CALLDATASIZE SUB DUP2 ADD SWAP1 PUSH2 0x9E SWAP2 SWAP1 PUSH2 0x58D JUMP JUMPDEST PUSH2 0x1B5 JUMP JUMPDEST PUSH1 0x40 MLOAD PUSH2 0xB0 SWAP2 SWAP1 PUSH2 0x5EC JUMP JUMPDEST PUSH1 0x40 MLOAD DUP1 SWAP2 SUB SWAP1 RETURN JUMPDEST PUSH2 0xC1 PUSH2 0x1DB JUMP JUMPDEST STOP JUMPDEST PUSH2 0xDD PUSH1 0x4 DUP1 CALLDATASIZE SUB DUP2 ADD SWAP1 PUSH2 0xD8 SWAP2 SWAP1 PUSH2 0x58D JUMP JUMPDEST PUSH2 0x23A JUMP JUMPDEST PUSH1 0x40 MLOAD PUSH2 0xEA SWAP2 SWAP1 PUSH2 0x5EC JUMP JUMPDEST PUSH1 0x40 MLOAD DUP1 SWAP2 SUB SWAP1 RETURN JUMPDEST PUSH2 0x10D PUSH1 0x4 DUP1 CALLDATASIZE SUB DUP2 ADD SWAP1 PUSH2 0x108 SWAP2 SWAP1 PUSH2 0x58D JUMP JUMPDEST PUSH2 0x266 JUMP JUMPDEST STOP JUMPDEST PUSH1 0x1 DUP2 DUP2 SLOAD DUP2 LT PUSH2 0x11E JUMPI PUSH0 DUP1 REVERT JUMPDEST SWAP1 PUSH0 MSTORE PUSH1 0x20 PUSH0 KECCAK256 ADD PUSH0 SWAP2 POP SWAP1 POP DUP1 SLOAD PUSH2 0x136 SWAP1 PUSH2 0x632 JUMP JUMPDEST DUP1 PUSH1 0x1F ADD PUSH1 0x20 DUP1 SWAP2 DIV MUL PUSH1 0x20 ADD PUSH1 0x40 MLOAD SWAP1 DUP2 ADD PUSH1 0x40 MSTORE DUP1 SWAP3 SWAP2 SWAP1 DUP2 DUP2 MSTORE PUSH1 0x20 ADD DUP3 DUP1 SLOAD PUSH2 0x162 SWAP1 PUSH2 0x632 JUMP JUMPDEST DUP1 ISZERO PUSH2 0x1AD JUMPI DUP1 PUSH1 0x1F LT PUSH2 0x184 JUMPI PUSH2 0x100 DUP1 DUP4 SLOAD DIV MUL DUP4 MSTORE SWAP2 PUSH1 0x20 ADD SWAP2 PUSH2 0x1AD JUMP JUMPDEST DUP3 ADD SWAP2 SWAP1 PUSH0 MSTORE PUSH1 0x20 PUSH0 KECCAK256 SWAP1 JUMPDEST DUP2 SLOAD DUP2 MSTORE SWAP1 PUSH1 0x1 ADD SWAP1 PUSH1 0x20 ADD DUP1 DUP4 GT PUSH2 0x190 JUMPI DUP3 SWAP1 SUB PUSH1 0x1F AND DUP3 ADD SWAP2 JUMPDEST POP POP POP POP POP DUP2 JUMP JUMPDEST PUSH0 PUSH0 DUP3 PUSH1 0x40 MLOAD PUSH2 0x1C5 SWAP2 SWAP1 PUSH2 0x69C JUMP JUMPDEST SWAP1 DUP2 MSTORE PUSH1 0x20 ADD PUSH1 0x40 MLOAD DUP1 SWAP2 SUB SWAP1 KECCAK256 SLOAD SWAP1 POP SWAP2 SWAP1 POP JUMP JUMPDEST PUSH0 PUSH0 SWAP1 POP JUMPDEST PUSH1 0x1 DUP1 SLOAD SWAP1 POP DUP2 LT ISZERO PUSH2 0x237 JUMPI PUSH0 PUSH0 PUSH1 0x1 DUP4 DUP2 SLOAD DUP2 LT PUSH2 0x203 JUMPI PUSH2 0x202 PUSH2 0x6B2 JUMP JUMPDEST JUMPDEST SWAP1 PUSH0 MSTORE PUSH1 0x20 PUSH0 KECCAK256 ADD PUSH1 0x40 MLOAD PUSH2 0x218 SWAP2 SWAP1 PUSH2 0x771 JUMP JUMPDEST SWAP1 DUP2 MSTORE PUSH1 0x20 ADD PUSH1 0x40 MLOAD DUP1 SWAP2 SUB SWAP1 KECCAK256 DUP2 SWAP1 SSTORE POP DUP1 DUP1 PUSH1 0x1 ADD SWAP2 POP POP PUSH2 0x1E0 JUMP JUMPDEST POP JUMP JUMPDEST PUSH0 DUP2 DUP1 MLOAD PUSH1 0x20 DUP2 ADD DUP3 ADD DUP1 MLOAD DUP5 DUP3 MSTORE PUSH1 0x20 DUP4 ADD PUSH1 0x20 DUP6 ADD KECCAK256 DUP2 DUP4 MSTORE DUP1 SWAP6 POP POP POP POP POP POP PUSH0 SWAP2 POP SWAP1 POP SLOAD DUP2 JUMP JUMPDEST PUSH0 DUP2 PUSH1 0x40 MLOAD PUSH2 0x275 SWAP2 SWAP1 PUSH2 0x69C JUMP JUMPDEST SWAP1 DUP2 MSTORE PUSH1 0x20 ADD PUSH1 0x40 MLOAD DUP1 SWAP2 SUB SWAP1 KECCAK256 PUSH0 DUP2 SLOAD DUP1 SWAP3 SWAP2 SWAP1 PUSH2 0x293 SWAP1 PUSH2 0x7B4 JUMP JUMPDEST SWAP2 SWAP1 POP SSTORE POP PUSH0 PUSH0 SWAP1 POP JUMPDEST PUSH1 0x1 DUP1 SLOAD SWAP1 POP DUP2 LT ISZERO PUSH2 0x32B JUMPI DUP2 PUSH1 0x40 MLOAD PUSH1 0x20 ADD PUSH2 0x2BB SWAP2 SWAP1 PUSH2 0x69C JUMP JUMPDEST PUSH1 0x40 MLOAD PUSH1 0x20 DUP2 DUP4 SUB SUB DUP2 MSTORE SWAP1 PUSH1 0x40 MSTORE DUP1 MLOAD SWAP1 PUSH1 0x20 ADD KECCAK256 PUSH1 0x1 DUP3 DUP2 SLOAD DUP2 LT PUSH2 0x2E5 JUMPI PUSH2 0x2E4 PUSH2 0x6B2 JUMP JUMPDEST JUMPDEST SWAP1 PUSH0 MSTORE PUSH1 0x20 PUSH0 KECCAK256 ADD PUSH1 0x40 MLOAD PUSH1 0x20 ADD PUSH2 0x2FD SWAP2 SWAP1 PUSH2 0x771 JUMP JUMPDEST PUSH1 0x40 MLOAD PUSH1 0x20 DUP2 DUP4 SUB SUB DUP2 MSTORE SWAP1 PUSH1 0x40 MSTORE DUP1 MLOAD SWAP1 PUSH1 0x20 ADD KECCAK256 SUB PUSH2 0x31E JUMPI POP PUSH2 0x35F JUMP JUMPDEST DUP1 DUP1 PUSH1 0x1 ADD SWAP2 POP POP PUSH2 0x29D JUMP JUMPDEST POP PUSH1 0x1 DUP2 SWAP1 DUP1 PUSH1 0x1 DUP2 SLOAD ADD DUP1 DUP3 SSTORE DUP1 SWAP2 POP POP PUSH1 0x1 SWAP1 SUB SWAP1 PUSH0 MSTORE PUSH1 0x20 PUSH0 KECCAK256 ADD PUSH0 SWAP1 SWAP2 SWAP1 SWAP2 SWAP1 SWAP2 POP SWAP1 DUP2 PUSH2 0x35D SWAP2 SWAP1 PUSH2 0x989 JUMP JUMPDEST POP JUMPDEST POP JUMP JUMPDEST PUSH0 PUSH1 0x40 MLOAD SWAP1 POP SWAP1 JUMP JUMPDEST PUSH0 PUSH0 REVERT JUMPDEST PUSH0 PUSH0 REVERT JUMPDEST PUSH0 DUP2 SWAP1 POP SWAP2 SWAP1 POP JUMP JUMPDEST PUSH2 0x385 DUP2 PUSH2 0x373 JUMP JUMPDEST DUP2 EQ PUSH2 0x38F JUMPI PUSH0 PUSH0 REVERT JUMPDEST POP JUMP JUMPDEST PUSH0 DUP2 CALLDATALOAD SWAP1 POP PUSH2 0x3A0 DUP2 PUSH2 0x37C JUMP JUMPDEST SWAP3 SWAP2 POP POP JUMP JUMPDEST PUSH0 PUSH1 0x20 DUP3 DUP5 SUB SLT ISZERO PUSH2 0x3BB JUMPI PUSH2 0x3BA PUSH2 0x36B JUMP JUMPDEST JUMPDEST PUSH0 PUSH2 0x3C8 DUP5 DUP3 DUP6 ADD PUSH2 0x392 JUMP JUMPDEST SWAP2 POP POP SWAP3 SWAP2 POP POP JUMP JUMPDEST PUSH0 DUP2 MLOAD SWAP1 POP SWAP2 SWAP1 POP JUMP JUMPDEST PUSH0 DUP3 DUP3 MSTORE PUSH1 0x20 DUP3 ADD SWAP1 POP SWAP3 SWAP2 POP POP JUMP JUMPDEST DUP3 DUP2 DUP4 MCOPY PUSH0 DUP4 DUP4 ADD MSTORE POP POP POP JUMP JUMPDEST PUSH0 PUSH1 0x1F NOT PUSH1 0x1F DUP4 ADD AND SWAP1 POP SWAP2 SWAP1 POP JUMP JUMPDEST PUSH0 PUSH2 0x413 DUP3 PUSH2 0x3D1 JUMP JUMPDEST PUSH2 0x41D DUP2 DUP6 PUSH2 0x3DB JUMP JUMPDEST SWAP4 POP PUSH2 0x42D DUP2 DUP6 PUSH1 0x20 DUP7 ADD PUSH2 0x3EB JUMP JUMPDEST PUSH2 0x436 DUP2 PUSH2 0x3F9 JUMP JUMPDEST DUP5 ADD SWAP2 POP POP SWAP3 SWAP2 POP POP JUMP JUMPDEST PUSH0 PUSH1 0x20 DUP3 ADD SWAP1 POP DUP2 DUP2 SUB PUSH0 DUP4 ADD MSTORE PUSH2 0x459 DUP2 DUP5 PUSH2 0x409 JUMP JUMPDEST SWAP1 POP SWAP3 SWAP2 POP POP JUMP JUMPDEST PUSH0 PUSH0 REVERT JUMPDEST PUSH0 PUSH0 REVERT JUMPDEST PUSH32 0x4E487B7100000000000000000000000000000000000000000000000000000000 PUSH0 MSTORE PUSH1 0x41 PUSH1 0x4 MSTORE PUSH1 0x24 PUSH0 REVERT JUMPDEST PUSH2 0x49F DUP3 PUSH2 0x3F9 JUMP JUMPDEST DUP2 ADD DUP2 DUP2 LT PUSH8 0xFFFFFFFFFFFFFFFF DUP3 GT OR ISZERO PUSH2 0x4BE JUMPI PUSH2 0x4BD PUSH2 0x469 JUMP JUMPDEST JUMPDEST DUP1 PUSH1 0x40 MSTORE POP POP POP JUMP JUMPDEST PUSH0 PUSH2 0x4D0 PUSH2 0x362 JUMP JUMPDEST SWAP1 POP PUSH2 0x4DC DUP3 DUP3 PUSH2 0x496 JUMP JUMPDEST SWAP2 SWAP1 POP JUMP JUMPDEST PUSH0 PUSH8 0xFFFFFFFFFFFFFFFF DUP3 GT ISZERO PUSH2 0x4FB JUMPI PUSH2 0x4FA PUSH2 0x469 JUMP JUMPDEST JUMPDEST PUSH2 0x504 DUP3 PUSH2 0x3F9 JUMP JUMPDEST SWAP1 POP PUSH1 0x20 DUP2 ADD SWAP1 POP SWAP2 SWAP1 POP JUMP JUMPDEST DUP3 DUP2 DUP4 CALLDATACOPY PUSH0 DUP4 DUP4 ADD MSTORE POP POP POP JUMP JUMPDEST PUSH0 PUSH2 0x531 PUSH2 0x52C DUP5 PUSH2 0x4E1 JUMP JUMPDEST PUSH2 0x4C7 JUMP JUMPDEST SWAP1 POP DUP3 DUP2 MSTORE PUSH1 0x20 DUP2 ADD DUP5 DUP5 DUP5 ADD GT ISZERO PUSH2 0x54D JUMPI PUSH2 0x54C PUSH2 0x465 JUMP JUMPDEST JUMPDEST PUSH2 0x558 DUP5 DUP3 DUP6 PUSH2 0x511 JUMP JUMPDEST POP SWAP4 SWAP3 POP POP POP JUMP JUMPDEST PUSH0 DUP3 PUSH1 0x1F DUP4 ADD SLT PUSH2 0x574 JUMPI PUSH2 0x573 PUSH2 0x461 JUMP JUMPDEST JUMPDEST DUP2 CALLDATALOAD PUSH2 0x584 DUP5 DUP3 PUSH1 0x20 DUP7 ADD PUSH2 0x51F JUMP JUMPDEST SWAP2 POP POP SWAP3 SWAP2 POP POP JUMP JUMPDEST PUSH0 PUSH1 0x20 DUP3 DUP5 SUB SLT ISZERO PUSH2 0x5A2 JUMPI PUSH2 0x5A1 PUSH2 0x36B JUMP JUMPDEST JUMPDEST PUSH0 DUP3 ADD CALLDATALOAD PUSH8 0xFFFFFFFFFFFFFFFF DUP2 GT ISZERO PUSH2 0x5BF JUMPI PUSH2 0x5BE PUSH2 0x36F JUMP JUMPDEST JUMPDEST PUSH2 0x5CB DUP5 DUP3 DUP6 ADD PUSH2 0x560 JUMP JUMPDEST SWAP2 POP POP SWAP3 SWAP2 POP POP JUMP JUMPDEST PUSH0 DUP2 SWAP1 POP SWAP2 SWAP1 POP JUMP JUMPDEST PUSH2 0x5E6 DUP2 PUSH2 0x5D4 JUMP JUMPDEST DUP3 MSTORE POP POP JUMP JUMPDEST PUSH0 PUSH1 0x20 DUP3 ADD SWAP1 POP PUSH2 0x5FF PUSH0 DUP4 ADD DUP5 PUSH2 0x5DD JUMP JUMPDEST SWAP3 SWAP2 POP POP JUMP JUMPDEST PUSH32 0x4E487B7100000000000000000000000000000000000000000000000000000000 PUSH0 MSTORE PUSH1 0x22 PUSH1 0x4 MSTORE PUSH1 0x24 PUSH0 REVERT JUMPDEST PUSH0 PUSH1 0x2 DUP3 DIV SWAP1 POP PUSH1 0x1 DUP3 AND DUP1 PUSH2 0x649 JUMPI PUSH1 0x7F DUP3 AND SWAP2 POP JUMPDEST PUSH1 0x20 DUP3 LT DUP2 SUB PUSH2 0x65C JUMPI PUSH2 0x65B PUSH2 0x605 JUMP JUMPDEST JUMPDEST POP SWAP2 SWAP1 POP JUMP JUMPDEST PUSH0 DUP2 SWAP1 POP SWAP3 SWAP2 POP POP JUMP JUMPDEST PUSH0 PUSH2 0x676 DUP3 PUSH2 0x3D1 JUMP JUMPDEST PUSH2 0x680 DUP2 DUP6 PUSH2 0x662 JUMP JUMPDEST SWAP4 POP PUSH2 0x690 DUP2 DUP6 PUSH1 0x20 DUP7 ADD PUSH2 0x3EB JUMP JUMPDEST DUP1 DUP5 ADD SWAP2 POP POP SWAP3 SWAP2 POP POP JUMP JUMPDEST PUSH0 PUSH2 0x6A7 DUP3 DUP5 PUSH2 0x66C JUMP JUMPDEST SWAP2 POP DUP2 SWAP1 POP SWAP3 SWAP2 POP POP JUMP JUMPDEST PUSH32 0x4E487B7100000000000000000000000000000000000000000000000000000000 PUSH0 MSTORE PUSH1 0x32 PUSH1 0x4 MSTORE PUSH1 0x24 PUSH0 REVERT JUMPDEST PUSH0 DUP2 SWAP1 POP DUP2 PUSH0 MSTORE PUSH1 0x20 PUSH0 KECCAK256 SWAP1 POP SWAP2 SWAP1 POP JUMP JUMPDEST PUSH0 DUP2 SLOAD PUSH2 0x6FD DUP2 PUSH2 0x632 JUMP JUMPDEST PUSH2 0x707 DUP2 DUP7 PUSH2 0x662 JUMP JUMPDEST SWAP5 POP PUSH1 0x1 DUP3 AND PUSH0 DUP2 EQ PUSH2 0x721 JUMPI PUSH1 0x1 DUP2 EQ PUSH2 0x736 JUMPI PUSH2 0x768 JUMP JUMPDEST PUSH1 0xFF NOT DUP4 AND DUP7 MSTORE DUP2 ISZERO ISZERO DUP3 MUL DUP7 ADD SWAP4 POP PUSH2 0x768 JUMP JUMPDEST PUSH2 0x73F DUP6 PUSH2 0x6DF JUMP JUMPDEST PUSH0 JUMPDEST DUP4 DUP2 LT ISZERO PUSH2 0x760 JUMPI DUP2 SLOAD DUP2 DUP10 ADD MSTORE PUSH1 0x1 DUP3 ADD SWAP2 POP PUSH1 0x20 DUP2 ADD SWAP1 POP PUSH2 0x741 JUMP JUMPDEST DUP4 DUP9 ADD SWAP6 POP POP POP JUMPDEST POP POP POP SWAP3 SWAP2 POP POP JUMP JUMPDEST PUSH0 PUSH2 0x77C DUP3 DUP5 PUSH2 0x6F1 JUMP JUMPDEST SWAP2 POP DUP2 SWAP1 POP SWAP3 SWAP2 POP POP JUMP JUMPDEST PUSH32 0x4E487B7100000000000000000000000000000000000000000000000000000000 PUSH0 MSTORE PUSH1 0x11 PUSH1 0x4 MSTORE PUSH1 0x24 PUSH0 REVERT JUMPDEST PUSH0 PUSH2 0x7BE DUP3 PUSH2 0x5D4 JUMP JUMPDEST SWAP2 POP PUSH32 0x7FFFFFFFFFFFFFFFFFFFFFFFFFFFFFFFFFFFFFFFFFFFFFFFFFFFFFFFFFFFFFFF DUP3 SUB PUSH2 0x7F0 JUMPI PUSH2 0x7EF PUSH2 0x787 JUMP JUMPDEST JUMPDEST PUSH1 0x1 DUP3 ADD SWAP1 POP SWAP2 SWAP1 POP JUMP JUMPDEST PUSH0 PUSH1 0x20 PUSH1 0x1F DUP4 ADD DIV SWAP1 POP SWAP2 SWAP1 POP JUMP JUMPDEST PUSH0 DUP3 DUP3 SHL SWAP1 POP SWAP3 SWAP2 POP POP JUMP JUMPDEST PUSH0 PUSH1 0x8 DUP4 MUL PUSH2 0x845 PUSH32 0xFFFFFFFFFFFFFFFFFFFFFFFFFFFFFFFFFFFFFFFFFFFFFFFFFFFFFFFFFFFFFFFF DUP3 PUSH2 0x80A JUMP JUMPDEST PUSH2 0x84F DUP7 DUP4 PUSH2 0x80A JUMP JUMPDEST SWAP6 POP DUP1 NOT DUP5 AND SWAP4 POP DUP1 DUP7 AND DUP5 OR SWAP3 POP POP POP SWAP4 SWAP3 POP POP POP JUMP JUMPDEST PUSH0 DUP2 SWAP1 POP SWAP2 SWAP1 POP JUMP JUMPDEST PUSH0 PUSH2 0x88A PUSH2 0x885 PUSH2 0x880 DUP5 PUSH2 0x373 JUMP JUMPDEST PUSH2 0x867 JUMP JUMPDEST PUSH2 0x373 JUMP JUMPDEST SWAP1 POP SWAP2 SWAP1 POP JUMP JUMPDEST PUSH0 DUP2 SWAP1 POP SWAP2 SWAP1 POP JUMP JUMPDEST PUSH2 0x8A3 DUP4 PUSH2 0x870 JUMP JUMPDEST PUSH2 0x8B7 PUSH2 0x8AF DUP3 PUSH2 0x891 JUMP JUMPDEST DUP5 DUP5 SLOAD PUSH2 0x816 JUMP JUMPDEST DUP3 SSTORE POP POP POP POP JUMP JUMPDEST PUSH0 PUSH0 SWAP1 POP SWAP1 JUMP JUMPDEST PUSH2 0x8CE PUSH2 0x8BF JUMP JUMPDEST PUSH2 0x8D9 DUP2 DUP5 DUP5 PUSH2 0x89A JUMP JUMPDEST POP POP POP JUMP JUMPDEST JUMPDEST DUP2 DUP2 LT ISZERO PUSH2 0x8FC JUMPI PUSH2 0x8F1 PUSH0 DUP3 PUSH2 0x8C6 JUMP JUMPDEST PUSH1 0x1 DUP2 ADD SWAP1 POP PUSH2 0x8DF JUMP JUMPDEST POP POP JUMP JUMPDEST PUSH1 0x1F DUP3 GT ISZERO PUSH2 0x941 JUMPI PUSH2 0x912 DUP2 PUSH2 0x6DF JUMP JUMPDEST PUSH2 0x91B DUP5 PUSH2 0x7FB JUMP JUMPDEST DUP2 ADD PUSH1 0x20 DUP6 LT ISZERO PUSH2 0x92A JUMPI DUP2 SWAP1 POP JUMPDEST PUSH2 0x93E PUSH2 0x936 DUP6 PUSH2 0x7FB JUMP JUMPDEST DUP4 ADD DUP3 PUSH2 0x8DE JUMP JUMPDEST POP POP JUMPDEST POP POP POP JUMP JUMPDEST PUSH0 DUP3 DUP3 SHR SWAP1 POP SWAP3 SWAP2 POP POP JUMP JUMPDEST PUSH0 PUSH2 0x961 PUSH0 NOT DUP5 PUSH1 0x8 MUL PUSH2 0x946 JUMP JUMPDEST NOT DUP1 DUP4 AND SWAP2 POP POP SWAP3 SWAP2 POP POP JUMP JUMPDEST PUSH0 PUSH2 0x979 DUP4 DUP4 PUSH2 0x952 JUMP JUMPDEST SWAP2 POP DUP3 PUSH1 0x2 MUL DUP3 OR SWAP1 POP SWAP3 SWAP2 POP POP JUMP JUMPDEST PUSH2 0x992 DUP3 PUSH2 0x3D1 JUMP JUMPDEST PUSH8 0xFFFFFFFFFFFFFFFF DUP2 GT ISZERO PUSH2 0x9AB JUMPI PUSH2 0x9AA PUSH2 0x469 JUMP JUMPDEST JUMPDEST PUSH2 0x9B5 DUP3 SLOAD PUSH2 0x632 JUMP JUMPDEST PUSH2 0x9C0 DUP3 DUP3 DUP6 PUSH2 0x900 JUMP JUMPDEST PUSH0 PUSH1 0x20 SWAP1 POP PUSH1 0x1F DUP4 GT PUSH1 0x1 DUP2 EQ PUSH2 0x9F1 JUMPI PUSH0 DUP5 ISZERO PUSH2 0x9DF JUMPI DUP3 DUP8 ADD MLOAD SWAP1 POP JUMPDEST PUSH2 0x9E9 DUP6 DUP3 PUSH2 0x96E JUMP JUMPDEST DUP7 SSTORE POP PUSH2 0xA50 JUMP JUMPDEST PUSH1 0x1F NOT DUP5 AND PUSH2 0x9FF DUP7 PUSH2 0x6DF JUMP JUMPDEST PUSH0 JUMPDEST DUP3 DUP2 LT ISZERO PUSH2 0xA26 JUMPI DUP5 DUP10 ADD MLOAD DUP3 SSTORE PUSH1 0x1 DUP3 ADD SWAP2 POP PUSH1 0x20 DUP6 ADD SWAP5 POP PUSH1 0x20 DUP2 ADD SWAP1 POP PUSH2 0xA01 JUMP JUMPDEST DUP7 DUP4 LT ISZERO PUSH2 0xA43 JUMPI DUP5 DUP10 ADD MLOAD PUSH2 0xA3F PUSH1 0x1F DUP10 AND DUP3 PUSH2 0x952 JUMP JUMPDEST DUP4 SSTORE POP JUMPDEST PUSH1 0x1 PUSH1 0x2 DUP9 MUL ADD DUP9 SSTORE POP POP POP JUMPDEST POP POP POP POP POP POP JUMP INVALID LOG2 PUSH5 0x6970667358 0x22 SLT KECCAK256 PUSH26 0x8CAC1DF9FD239BFC88C828BEC58B44A5EEE7EE8B22D504266F5A SWAP2 0x4C RETURN CALLDATALOAD 0xEF PUSH5 0x736F6C6343 STOP ADDMOD 0x1E STOP CALLER "
				},
				"gasEstimates": {
					"creation": {
						"codeDepositCost": "540400",
						"executionCost": "573",
						"totalCost": "540973"
					},
					"external": {
						"candidates(uint256)": "infinite",
						"getVotes(string)": "infinite",
						"resetVotes()": "infinite",
						"vote(string)": "infinite",
						"votes(string)": "infinite"
					}
				},
				"methodIdentifiers": {
					"candidates(uint256)": "3477ee2e",
					"getVotes(string)": "805265e5",
					"resetVotes()": "b9830ff1",
					"vote(string)": "fc36e15b",
					"votes(string)": "b99ef1fa"
				}
			},
			"storageLayout": {
				"storage": [
					{
						"astId": 5,
						"contract": "Task_1/Voting.sol:Voting",
						"label": "votes",
						"offset": 0,
						"slot": "0",
						"type": "t_mapping(t_string_memory_ptr,t_int256)"
					},
					{
						"astId": 8,
						"contract": "Task_1/Voting.sol:Voting",
						"label": "candidates",
						"offset": 0,
						"slot": "1",
						"type": "t_array(t_string_storage)dyn_storage"
					}
				],
				"types": {
					"t_array(t_string_storage)dyn_storage": {
						"base": "t_string_storage",
						"encoding": "dynamic_array",
						"label": "string[]",
						"numberOfBytes": "32"
					},
					"t_int256": {
						"encoding": "inplace",
						"label": "int256",
						"numberOfBytes": "32"
					},
					"t_mapping(t_string_memory_ptr,t_int256)": {
						"encoding": "mapping",
						"key": "t_string_memory_ptr",
						"label": "mapping(string => int256)",
						"numberOfBytes": "32",
						"value": "t_int256"
					},
					"t_string_memory_ptr": {
						"encoding": "bytes",
						"label": "string",
						"numberOfBytes": "32"
					},
					"t_string_storage": {
						"encoding": "bytes",
						"label": "string",
						"numberOfBytes": "32"
					}
				}
			},
			"userdoc": {
				"kind": "user",
				"methods": {},
				"version": 1
			}
		}
	}
}